:020000040000FA
:10000000000800205B2A0000C9260000C926000065
:1000100000000000000000000000000000000000E0
:10002000000000000000000000000000C9260000E1
:100030000000000000000000C9260000C9260000E2
:10004000C9260000C9260000C9260000C9260000F4
:10005000C9260000C9260000C9260000C9260000E4
:10006000C9260000C9260000C9260000C9260000D4
:10007000C9260000C9260000C9260000C9260000C4
:10008000C9260000C9260000C9260000C9260000B4
:10009000C9260000C9260000C9260000C9260000A4
:1000A000C9260000C9260000C9260000C926000094
:1000B000C9260000C9260000C9260000C926000084
:1000C000C9260000C9260000C9260000C926000074
:1000D000C9260000C9260000C9260000C926000064
:1000E000C9260000C9260000C9260000C926000054
:1000F000C9260000C9260000C9260000C926000044
:10010000C9260000C9260000C9260000C926000033
:10011000C9260000C9260000C9260000C926000023
:10012000C9260000C9260000C9260000C926000013
:10013000C9260000C9260000C9260000C926000003
:10014000C9260000C9260000C9260000C9260000F3
:10015000C9260000C9260000C9260000C9260000E3
:10016000C9260000C9260000C9260000C9260000D3
:10017000C9260000C9260000C9260000C9260000C3
:10018000C9260000C9260000C9260000C9260000B3
:10019000C9260000C9260000C9260000C9260000A3
:1001A000C9260000C9260000C9260000C926000093
:1001B000C9260000C9260000C9260000C926000083
:1001C000C9260000C9260000C9260000C926000073
:1001D000C9260000C926000000F002F800F0ADF8C2
:1001E0000CA030C8083824182D18671EA246AB464C
:1001F00054465D46AC4201D100F09FF87E460F3E6A
:10020000B6460FCC0126334200D0FB1A3343A24638
:10021000AB4618473C4F00005C4F00000023002411
:1002200000250026103A01D378C1FBD8520700D32D
:1002300030C100D50B60704710B56E2902D100F0B7
:1002400080FC10BD702902D100F045FA10BD66296E
:1002500002D104F0CDFB10BD652902D104F0C8FB2A
:1002600010BD672902D104F0C3FB10BD612902D182
:1002700004F0C6FB10BD03681B0A01D38023194399
:10028000692902D100F0B2F910BD642902D100F051
:10029000ADF910BD752902D100F0A8F910BD6F2984
:1002A00002D100F05FFF10BD782902D100F000FA02
:1002B00010BDE92902D100F0FBFE10BDE42902D1F6
:1002C00000F0F6FE10BDF52902D100F0F1FE10BDE0
:1002D000EF2902D100F052FF10BDF82902D100F041
:1002E000F5F910BD0368DB0901D3802319436329A5
:1002F00002D100F073FE10BD732902D100F076FE2A
:1003000010BDE32902D101F00AFA10BDF32902D190
:1003100001F00DFA10BD002010BD1FB501F002F86C
:1003200004000020002104F0F5FA401C6060002069
:10033000002104F0D9FAE0601FBD0648854603B4E9
:1003400002F0F0FE03BC01F074FD01F07EFD03F04D
:100350000BF800000008002070B505460C46164654
:1003600002E00FCC0FC5103E102EFAD2082E02D399
:1003700003CC03C5083E042E07D301CC01C5361FAC
:1003800003E021782970641C6D1C761EF9D270BDC3
:100390007046F0477047000000487047B80F0020D3
:1003A00070B50446051F00F037FB0068002C1AD01A
:1003B000446801E020466468002C01D0AC42F9D3C7
:1003C00001680A18AA4204D12A6805468918016002
:1003D00000E0456028684119A14205D16168696063
:1003E00021684018286070BD6C6070BD10B5202A6F
:1003F00004DB0146203A9140002010BD91402023AB
:100400009C1A0346E3401943904010BD10B5202AC2
:1004100004DB0846203AD040002110BD0B462024C2
:10042000D340D040A21A91400843194610BD43431F
:10043000514330B55C18010C130C0D4692B25D436C
:1004400080B251432C19054655430A0C09044D1935
:1004500062415843010C00044019514130BDFEB5C2
:10046000054610460C46184373D0AE468C46002015
:10047000AD1A01469C4167D36646002701243D46DC
:10048000B61A9D4102D313463A4621246546764664
:100490002F04360C3E432D0CB61A9D4104D3150C87
:1004A0001B042B4312041034654676462F06360A89
:1004B0003E432D0AB61A9D4104D3150E1B022B4351
:1004C00012020834654676462F0736093E432D0949
:1004D000B61A9D4104D3150F1B012B431201241D95
:1004E00065467646AF07B6083E43AD08B61A9D414D
:1004F00004D3950F9B002B439200A41C65467646BF
:10050000EF0776083E436D08B61A9D411AD392183C
:100510005B41641C16E00018764665464941B71AEF
:100520009D410191009009D36046B11A98418E46D1
:100530008446009801990025401C6941DD07520856
:100540002A435B08641EE6D57246634603B0F0BDDD
:10055000FFE700200146C046C0462A462346F5E78D
:100560007CB51D4616460C00009001D00019401EB7
:10057000084B7B442A4669460190304600F003FD53
:10058000002C054603D06946002000F00FFD2846E8
:100590007CBD0000410A000070B50C460546012AEA
:1005A00005D02878800600D5EA69002302E00123FF
:1005B00005E05B1C934202D2E05C0028F9D1A869F7
:1005C000E618C01AA861286AC0182862284600F0F8
:1005D00027FA04E06A682078A968641C9047B4424E
:1005E000F8D3284600F032FA70BD0000F7B50025B8
:1005F00075291068009914A611D000F038FA002867
:1006000002DA404211A608E0009909688A0701D57C
:100610000FA602E0490704D50EA6012501E000F06F
:100620002FFA009F0024243704E000F05EFE3031F2
:100630003955641C0028F8D12B46324621460098D3
:1006400000F027FAFEBD0000000000002D000000B1
:100650002B00000020000000F8B50F4601880905B6
:1006600002D5224C7C4402E0204C7C440E340546EA
:100670000021243508E016071209360FA65D6E54D6
:100680001E0732431B09491C16461E43F3D122465E
:1006900004780023240705D5702F06D0002901D047
:1006A0000223113200F0F5F9F8BD01231032F9E709
:1006B00070B504460D462146106800F0E1F90023AC
:1006C000024629462046FFF7C7FF70BDD21DD3085A
:1006D000DB000CCBC0E730B403682024126823434E
:1006E00003600823C36130BC0023B5E7A8430000C2
:1006F000F3B50446002081B020622046E1688847B7
:10070000002872D0252802D06268A168ABE0594F5A
:1007100000267F442046E16888472028054608DBFC
:10072000312D06D2781920380078002801D00643F0
:10073000F0E7B00701D5042086430020E0610746BA
:10074000A0612A2D0AD0284604F0C6F8002827D038
:10075000B8000019303D0090856119E00298BA0098
:10076000121902C8916102902046E1688847012F62
:10077000054617D1E06900281FDA202086431CE0D7
:1007800000980A21806948430099401930388861EF
:100790002046E1688847054604F09EF80028EFD11E
:1007A000012F0AD02E2D08D12046E1688847054642
:1007B000202006437F1C022FC3DBA069002803DA38
:1007C0004042A06101200643F00701D0102086437B
:1007D0006C2D0BD0682D09D04C2D3CD06A2D38D013
:1007E000742D38D07A2D36D016E040E0E1682F46DF
:1007F00020468847B842054609D16C2F29D00120F0
:100800008002E168064320468847054604E06C2FD5
:100810001DD0FF2001300643002D28D02846413846
:10082000192803D80120C00206432035204626603F
:100830002946029A1646FFF7FFFC002810D001282F
:100840000BD0F61DF008C0000830029055E740209C
:10085000E1E78020D5E70020D3E7361D02964CE77C
:1008600062682846A1689047206A401C44E7206AD5
:10087000FEBD000022430000F8B5042A2CD38307F4
:1008800012D00B78491C0370401C521E83070BD0FA
:100890000B78491C0370401C521E830704D00B7850
:1008A000491C0370401C521E8B079B0F05D0C91AB0
:1008B000DF002023DE1B08C90AE0FFF74DFDF8BD6D
:1008C0001D4608C9FD401C46B4402C4310C0121FF1
:1008D000042AF5D2F308C91A521EF0D40B78491C29
:1008E0000370401C521EEAD40B78491C0370401C54
:1008F000012AE4D409780170F8BD01E004C0091FA1
:100900000429FBD28B0701D50280801CC90700D0C7
:100910000270704700290BD0C30702D00270401C40
:10092000491E022904D3830702D50280801C891E38
:10093000E3E70022EEE70022DFE70000024670B5A1
:100940000A4392072AD11E4DEE0104C808C9541B60
:100950009443344017D0D0B2D9B2401A2106014393
:1009600010D190B299B2401A210401430AD1100269
:100970001902000A090A401A2102014302D1100E8D
:10098000190E401A70BD9A42DFD010BA19BA8842C7
:1009900001D9012070BD0020C04370BD02780B78E2
:1009A000401C491C002A09D09A4207D102780B78D2
:1009B000401C491C002A01D09A42EFD0D01A70BDC9
:1009C0000101010170477047704710B501469E2430
:1009D0000002CA15A307002A02D01843002A04DB2C
:1009E000A21A002A0CDDD04010BD1206120E01D151
:1009F00040004008A21A03D4D04040420028F3DD52
:100A0000FF2248001206904201D9002010BDC817ED
:100A1000C043584010BD704700487047BC0F0020CD
:100A200070B5044685690068C10601D5302600E02E
:100A30002026C00707D070BD62683046A168904785
:100A4000206A401C20626D1EF6D570BD70B504464C
:100A500085690078C00707D170BD6268A168202051
:100A60009047206A401C20626D1EF6D570BD096853
:100A70004A0501D540B27047C905FCD500B27047A0
:100A800009684A0501D5C0B27047C905FCD580B2D6
:100A90007047FFB504460D4681B0243000902168B0
:100AA000880604D51022E0699143216000E001200E
:100AB000A84201DD471B00E000270498A1697A19CC
:100AC0001018081AA0612078C00602D42046FFF74B
:100AD000A7FF002608E003986268A168805D904740
:100AE000206A401C761C206204988642F3DB207842
:100AF000C0060AD52046FFF793FF06E06268A168AA
:100B000030209047206A401C206238467F1E002813
:100B1000F4DC07E000986268A168405D9047206AB5
:100B2000401C206228466D1E0028F3DC2046FFF79B
:100B30008DFF2078000602D5022005B0F0BD01200F
:100B4000FBE711680268006A530501D5087009E0E7
:100B5000D30501D5088005E0130602D5C21705C1EB
:100B600000E0086001207047FFB50C461E468FB0BC
:100B700003CA089009914F007D0D00D16D1E002120
:100B800008460020C0460321099A89050840002A2A
:100B900003DA8200801840080840800D01280A907E
:100BA00002DD0020C0430A90089807430DD0F048AA
:100BB000F049281848430714189800281DD075429A
:100BC000291E1DDD0A9842421BE01898012802D018
:100BD0000020302104E00020F24305E02154401CB5
:100BE000B042FBDB30460022189B002121540F99B4
:100BF0008B600A60486013B0F0BDBD1B6D1CDFE761
:100C00000A9A002900DA69420BA800F095FD0BABA7
:100C100007CB03AB07C30899099800F0F9FD6B46B1
:100C200007C30146D4480918002D00910BDDD249B5
:100C300003980A9A49424018002303A90390684682
:100C400001F056F808E003990A9A0023081803A94E
:100C50000390684600F0F6FF6B4607C30004000CE3
:100C600003D00020C043410800E01046189A002A33
:100C700003D00022009215461EE0751E05D400F038
:100C800055FB303262556D1EF9D501220843079697
:100C900002D000227F1C04E02078302801D10022FD
:100CA0007F1E002A069787D01EE0112D07DA00F07C
:100CB0003DFB303262556D1C02460A43F5D10843B4
:100CC00003D00098002819D00EE00021681E05E02E
:100CD000235C625C63542254401E491C8142F7DB52
:100CE000A81B401E07950690079A18990020A0544B
:100CF0000F98079B069A81600CC07CE711260020A4
:100D0000189059E7D21DF0B50D460446D10893B0AE
:100D1000C90003C90C900D9103F0C8FD02460D985F
:100D2000C00F01D02D2007E02068810701D52B20BE
:100D300002E04007C00F4001032A0F9001D0072AAC
:100D400005DB03462946204600F09AFC0EE1207898
:100D5000800601D5E76900E006272846652D04D006
:100D6000662814D0672D69D12DE00020112F009046
:100D700001DB112300E07B1C0CAA03A910A8FFF7DC
:100D8000F3FE1199002610987D1C0E9142E001207F
:100D90003B460CAAC0070B900120009003A910A8A5
:100DA000FFF7E2FE119D12981099002600280E957B
:100DB00001D1781C0D18781B02D446427D1C761E8A
:100DC000E81B00903AE0012F00DA01270020112FE4
:100DD000009001DD112300E03B460CAA03A910A8F6
:100DE000FFF7C2FE11993D46109800260E9121781A
:100DF00009070BD40E99A94200DA0D4603A9012D6B
:100E000004DD4A19203AD27F302A06D0B84201DAEE
:100E1000011D04DA012100910FE06D1EEFE70028AB
:100E200002DC86192D1A03E0411CA94200DD0D46A3
:100E3000801B401C00900120C0070B902078000709
:100E400005D40098A84202DB0020C0430090694608
:100E50000020C8720B98012102AF0337C9078842EE
:100E600025D0022010902B2011900B9800280BDA2F
:100E700040420B902D20119006E00B9800F035FABF
:100E800030317F1E0B9039701099481E0029109048
:100E9000F3DC0B980028F0D111987F1E3870208861
:100EA000000501D5452000E065207F1E387001A8AF
:100EB000C01BC01D0B900F98002800D001204119C5
:100EC0000098C01709180B980818A169081A401E45
:100ED000A0612078C00602D42046FFF7A1FD0F983C
:100EE000002805D06268A1689047206A401C2062F3
:100EF0002078C00625D52046FFF792FD21E0002E80
:100F000007DB0E98B04204DD03A86268805DA1682B
:100F100002E06268A16830209047206A761C401C7D
:100F200020620098401E002800900AD100F0FAF9D3
:100F3000C06862680168405CA1689047206A401CF4
:100F4000206228466D1E0028D9DC07E062683878E8
:100F5000A1687F1C9047206A401C20620B99481EA4
:100F600000290B90F2DC2046FFF770FD032042E6DB
:100F700001FCFFFF104D0000E1DFFFFF01694A1C8B
:100F800002610878704700B58FB002910021059189
:100F90000549019379440391114604906846FFF78F
:100FA000A7FB0FB000BD0000E5FFFFFF0A6810704F
:100FB000521C0A6070470CC908399A4202D2531C6D
:100FC0000B601070704710B54369002B02D0C0460B
:100FD000C04601E0FFF7E0FA012010BD127801469B
:100FE00024310A7000224A700122ECE711680022C5
:100FF000D243E8E7F7B50446154686B02B48784457
:10100000002703C83E460090019111E007986A4608
:10101000B100415802A800F0BBFE411C07D0217866
:10102000890603D5E269391891420ED83F18761C1B
:101030002078800602D5E069B84206DDAE42E5DBE5
:101040000798B10040580028E0D1A069C01BA061FA
:101050002046FFF7E5FC154878445A3803C800904D
:101060000020019116E081006A460798415802A8C5
:1010700000F08EFE0590401C0AD0002505E0626855
:1010800002A8A168405D90476D1C05988542F6D383
:101090000498401CB0420490E5DB206AC01920622D
:1010A0002046FFF7D3FC09B0F0BD00004A3A00002B
:1010B000F7B5D21D0025D20815A6D200F52905CA1C
:1010C00011D0002A05DA00214042914111A60A46BA
:1010D00008E0009909688B0701D50FA602E04907CF
:1010E00001D50EA601251146009F0024243704E0F7
:1010F00000F01CF930323A55641C02460A43F7D11D
:101100002B46324621460098FFF7C3FCFEBD000087
:10111000000000002D0000002B0000002000000057
:1011200070B504460021243408E05507D2086D0F3D
:10113000303565545D072A43DB08491C15461D43BD
:10114000F3D10468002310A2250708D520252C40E0
:101150000C4304D0C46901230CA2641EC461FFF7D0
:1011600098FC70BD10B5044621461068FFF788FC56
:10117000002302462046FFF7D3FF10BDD21DD10841
:10118000C9000CC9CCE700000000000030000000DE
:10119000002203098B422CD3030A8B4211D3002374
:1011A0009C464EE003460B433CD4002243088B424E
:1011B00031D303098B421CD3030A8B4201D39446DB
:1011C0003FE0C3098B4201D3CB01C01A52418309CE
:1011D0008B4201D38B01C01A524143098B4201D388
:1011E0004B01C01A524103098B4201D30B01C01AB3
:1011F0005241C3088B4201D3CB00C01A524183082D
:101200008B4201D38B00C01A524143088B4201D359
:101210004B00C01A5241411A00D2014652411046B9
:1012200070475DE0CA0F00D04942031000D340422E
:1012300053409C46002203098B422DD3030A8B4264
:1012400012D38901FC2212BA030A8B420CD3890102
:1012500092118B4208D3890192118B4204D38901E8
:101260003AD0921100E08909C3098B4201D3CB0126
:10127000C01A524183098B4201D38B01C01A5241DB
:1012800043098B4201D34B01C01A524103098B42DF
:1012900001D30B01C01A5241C3088B4201D3CB00CA
:1012A000C01A524183088B4201D38B00C01A5241AD
:1012B000D9D243088B4201D34B00C01A5241411A84
:1012C00000D201465241104663465B1001D34042B2
:1012D000002B00D54942704763465B1000D3404263
:1012E00001B50020C046C04602BD01468008081A6C
:1012F00002091018020A1018020C1018C008820007
:1013000012185200891A01E0401C0A390A29FBD23E
:101310007047000010B500F005F8001D10BD00BFBB
:10132000F535000000487047C00F00200B4670B52F
:10133000024689078008084319469D08141AA941E6
:1013400025090807054308092C194841250A010603
:101350000D43010A2C194141200C0D0428430D0CAA
:1013600000194D41002140194D41C008690708434B
:10137000E908840F8D002543840024184D41241969
:101380006D41121BAB4107E00925ED432C115219A9
:1013900063410024401C61411C460A250026551B60
:1013A000B441F1D270BD0000D21DF0B504460D4627
:1013B000D0088DB0C000466807683146384603F053
:1013C00075FA0246F00F01D02D2307E0206881074F
:1013D00001D52B2302E04007C00F43016846002BD4
:1013E000037001D0012000E00020032A0A9001D000
:1013F000072A04DB2946204600F042F92DE1207837
:10140000800601D40D2500E0E5697000400D0D2D2A
:1014100001904BDA300D00210B9008460020C046A9
:10142000032189050840002E05DA82008018C20FCA
:101430001018401008408015012801DD0020C0432D
:10144000A9000023182906D39C460A460123183A0E
:101450001B07D34003E001221205CA4094460C3119
:10146000202902D33A46203900E032468A4000283B
:1014700002DD002A06D119E0002817D10121C90791
:101480008A4213D3194663467F185E41002806D16D
:101490000120C007824202D1084687439E430B9831
:1014A000310D814202D00198401C01902088000536
:1014B00002D57149794402E06F49794419396B4684
:1014C0000A9830221A540A980A7C401C1A54401C6C
:1014D0000A900198002801DC302000E031201872C9
:1014E000019A0120002A02D0644BD21804E0720055
:1014F0003A4302D0614A521C0192002D02DC22784C
:10150000120703D56A462E2050720220002286461A
:1015100094460CE032033601120F6D1E8B5C02AA5A
:1015200013546246521C401C9446052A01DA002DD1
:10153000F0DC002202AE08E03B0F3F01CB5C521C06
:101540006D1E3354401C082A01DA002DF4DC236898
:101550009A0601D511E0401E704504DD3218203A8C
:10156000D27F302AF7D0002807DD3218203AD27F08
:101570002E2A02D11A0700D4401E002D03DD3E2280
:101580003254401C6D1E497C31540199401C002985
:1015900006DA2D21471C315401984042019003E0A6
:1015A0002B21471C315401987D21C900884206DB5C
:1015B000FFF7F8FD3030F0557F1C019101E0642801
:1015C00008DB01986421FFF7EDFD3030F0557F1CFA
:1015D000019101E00A2806DB01980A21FFF7E2FDEC
:1015E0003030F0557F1C01980A21FFF7DBFD3031C8
:1015F000F1550A98A1697F1C7A191018081AA06180
:101600002078C00602D42046FFF70AFA216A6E4607
:101610000A980818206204E062683078A168761C95
:1016200090470A98401E0A90401CF5D12078C006C9
:1016300002D52046FFF7F4F902AE09E03078761CB7
:101640003E280DD06268A1689047206A401C206245
:101650007F1EF3D22046FFF7F9F90DB00320F0BD4D
:10166000206A4019206203E06268A1683020904738
:101670006D1EEDD3F8E70000AF35000001FCFFFF61
:10168000F8B51F46044601230068DB020326014625
:101690001840072A05DB002801D017A506E017A58A
:1016A00004E0002801D016A500E016A51020814313
:1016B0002160A069C01E002FA06101D0401EA06162
:1016C0002046FFF7ADF9002F09D038466268A168BF
:1016D0009047206A401C2062C01C206206E0206AFD
:1016E000FAE762682878A1686D1C9047761EF8D2E8
:1016F0002046FFF7ABF9F8BD4E414E006E616E001B
:10170000494E4600696E660010B54369002B02D051
:10171000C046C04601E0FFF76DFC012010BD126815
:10172000014624314262002282620122ECE7116804
:101730000022D243E8E70000F7B516468AB03348E6
:1017400078446C4603467C33C06F5A689B680DC46E
:101750002E487844763003AC0DC80DC43720C00144
:10176000081837211B30FFF71DFD05460C46803D4C
:101770001B3C02D56442012000E0002000270990B4
:1017800010E0E0070CD00C20204978437944324621
:101790004C3941186846012300F054FA6B4607C3E0
:1017A00064107F1C002CECD1184F7F442E3F16E0B4
:1017B000E80712D02001C0190EC8069108930792BD
:1017C0000068F04201D1981908903246012306A919
:1017D00003A800F037FA03AB07C36D10641C002D9B
:1017E000E6D10998002806D032466946012303A8AD
:1017F00000F07EFA05E001233246694603A800F0B6
:1018000021FA0A9B07C30DB0F0BD00003833000079
:10181000034640000A4610B5400D0BD00121C90710
:101820000F24A40200191C0364082143540D214312
:10183000D20207E000210120F2E7D40F4900214342
:101840005200401E0029F8DADB0FDB07184310BDF9
:10185000FFB50D46144685B04868516803F00CF892
:1018600000910190A868A16803F006F80291039026
:10187000A868616803F000F8029A12188242029286
:1018800001D2012000E00020019A0B18D218002894
:10189000019202D08A4202D903E08A4201D2012099
:1018A00000E000200099081800906868A16802F024
:1018B000E3FF029A12188242029201D2012000E054
:1018C0000020019A0B18D2180028019202D08A42F7
:1018D00002D903E08A4201D2012000E000200099F1
:1018E000081800902868216840004900400849080D
:1018F0004018FA49471814E001994000C90F0843FD
:101900000090019802994000C90F08430190029885
:1019100003994000C90F08430290039840007F1EBE
:10192000039000980028E7DA0898002801D0EC4ED0
:1019300000E00026B74201DA012000E00020002884
:1019400004902AD0F71BF806C00E15D0029B202168
:10195000091A039A8B401A430392029A019BC240D0
:101960008B401A430292019A009BC2408B4000991F
:101970001A430192C14000917B110DD06F460320A4
:10198000C11A03D500218200B95003E08A0081000A
:10199000BA587A50401EF3D537460398029900286A
:1019A00000D00120014308980291002808460CD07D
:1019B000002800D001200199019A4905084301211E
:1019C000D20AC902D202019200E001210E9B01223B
:1019D000D207012B02D0002B03D013E0002807D13F
:1019E00020E0904204D890420CD1019B0B4209D0D8
:1019F000019B5918019105D10099491C009101D111
:101A00007F1C009200280DD0102108460020C046FF
:101A10000498002806D00F98002803D00821084613
:101A20000020C04628682168019B009A4840C10FE9
:101A30000598C90739430EC009B0F0BDFFB587B09E
:101A4000099A089808995368926840688968964688
:101A50000022039317469446089A12685300099A85
:101A60005B081268520052089A1A9E4BD4180A9AC0
:101A7000002A01D0352200E04022069200220123F4
:101A800015460492DB07059324E0002D05D1754629
:101A90000346039E4D1BB34109D375466646039B1F
:101AA000491B049D9841059B7519AC465F416346EF
:101AB0003B4308D0059B049EDD0776082E435B0858
:101AC0000496059301E0521E641EC50FED074918E8
:101AD0004041521C069B9A42D7DB002D04D175462B
:101AE000039A6B1A824101D203200CE0039A0B4641
:101AF0006B404240134303D0014303D0012002E076
:101B0000022000E00020614601910021009702912F
:101B10000A99002905D0614640020143704B0191AA
:101B200002E08007002302909C4201DA012000E0DD
:101B3000002007003AD01A1BD006C00E15D0029D17
:101B40002021019C091AC5408C402543029C8C40F1
:101B500000D001242543019C0295009DC4408D4086
:101B600000992C430194C140009154111DD06D4641
:101B70000221002202290CD10320001B07E00028CB
:101B800004DB8600AE59002E00D00122401C032841
:101B9000F5DB081B02D588002A5004E08000285895
:101BA00010438A00A850491EE3D51C460A98002815
:101BB00002980CD0002800D001200199019A490513
:101BC00008430121D20AC902D202019200E0012198
:101BD000109B0122D207012B02D0002B03D013E06F
:101BE000002807D11FE0904204D890420CD1019BFD
:101BF0000B4209D0019B5918019105D10099491C4C
:101C0000009101D1641C009200280CD010210846DC
:101C10000020C046002F06D01198002803D00821CC
:101C200008460020C04608980999019A009B006860
:101C300009684840C10F0798C907214382600AC05C
:101C40000BB0F0BD00B585B0019300920A46014685
:101C5000002302A8FFF7FCFD02A807C805B000BDDD
:101C6000FFB50A461F4685B00799019301230091ED
:101C7000014602A8FFF7ECFD02990398049ECA0FE3
:101C80004900D20700920F22490892028C1A0021C3
:101C9000002800DB0C46450013486D08844214D32D
:101CA000079A002A04DA441E0026104DF64302E08B
:101CB00004460D460E46102108460020C046002F5F
:101CC00003D0042108460020C0462005E90A084345
:101CD000009908436905F20A1143ADE602C0FFFF0F
:101CE000013C0000FF3F0000FF070000FFFFFF7FF7
:101CF00000B585B0019300920A460146002302A870
:101D0000FFF79CFE02A807C8A8E7FFB50A461F46D2
:101D100085B00799019301230091014602A8FFF7BE
:101D20008DFE02990398049ECA0F4900D2070092C3
:101D30000F22490892028C1A0021002800DB0C4671
:101D4000450011486D08844214D3079A002A04DA2A
:101D5000441E00260D4DF64302E004460D460E4695
:101D6000102108460020C046002F03D00421084659
:101D70000020C0462005E90A084300990843690588
:101D8000F20A114358E60000FF070000FFFFFF7F43
:101D9000F8B516460C460546FFF7BCFA0368FF2067
:101DA0000230C05C012807D0FF2C0FD8185D002836
:101DB0000CD001202C70F8BDFF3332462146083389
:101DC0001868C71828460123B847F8BD0020C0434B
:101DD000F8BD70B58D180478401CA207920F01D190
:101DE0000278401C231106D10378401C03E00678DA
:101DF000401C0E70491C521EF9D1002B15D00278E0
:101E00000C2634408A1A401C0C2C03D0A401121B4F
:101E10009B1C08E004782402121B401CF8E714788D
:101E20000C70491C521C5B1EF9D5A942D3D300206B
:101E300070BD42F25010C2F2000048F20001C2F23E
:101E40000001FEF76ABAFEF7ABBA80B501F00EFFEB
:101E500080BC01BC864601F0D7BD1F210140012294
:101E60008A40000F0C21014040F20420C4F200001F
:101E70000B5893430B50704710B571460446C80782
:101E80001AD1601C12D044F6E830C0F200000830CD
:101E900040F24C210322D2438258A24204D00C3992
:101EA0000C300029F6D101E0006828B945F26D0038
:101EB000C0F2000001F020FA2046FFF7CEFF10BC70
:101EC00001BC86467046714672467346F4468EF3F0
:101ED000008874471F21014001228A40000F0C2115
:101EE000014040F20420C4F200000B5813430B5091
:101EF000704710B571460446C8071AD1601C12D04D
:101F000044F6E830C0F20000083040F24C210322D1
:101F1000D2438258A24204D00C390C300029F6D1A9
:101F200001E0006828B945F26D00C0F2000001F040
:101F3000E3F92046FFF7CEFF10BC01BC8646704691
:101F4000714672467346F4468EF300887447F0B5C6
:101F500084B001273A0440F20025C4F200052B6C3E
:101F600013432B642B6846F2FF06CFF6DB7668B18D
:101F7000042213432B602B6D1022134212D13346DF
:101F80005B1C0FD02C6D1442FAD00BE001221343DE
:101F90002B602B6D134205D133465B1C02D02C6D98
:101FA0001442FAD04CF60022CFF691628A1840F221
:101FB000022440F60063C0F227739A4274D801905D
:101FC00049F20043CFF62353CB1846F60044C0F243
:101FD000DC240020A34200D3074643F20063C0F292
:101FE0006E1303269A42344600D33C4600940225E1
:101FF0009A4200D33D46A940C34307460290B01E13
:10200000042803962AD841F60030C0F2B700B0FB8E
:10201000F6F0420002263046504342F60004CFF666
:10202000472404194EF60025C0F23265AC420CD8A4
:10203000451A0C1A884200D825469D4205D2002038
:10204000002D2B460296039F05D0761C40F20220FD
:102050008642E0D302E003460296039F039E761C6D
:10206000212ECCD178024FF60061CFF6FF714018D7
:10207000009B9903019A1143029CA21E0A4302434A
:1020800040F20025C4F200052A64581C784341F64A
:102090000031C0F2B701B1FBF0F06043400046F2FE
:1020A000FF06CFF6DB7616E00321C9436958FE34FC
:1020B000214208D04CF20E210843286446F6004025
:1020C000C0F2DC2007E044F20E410843286449F2E4
:1020D0000000C0F2D0302A6D042102E0761C02D04C
:1020E0002A6D0A42FAD004B0F0BD40F20021C4F2D9
:1020F00000010A6802430A6070470000F0B540F230
:102100000820C4F20000036802221340846B0521FA
:102110000D0400212C421FD1A10341F60031C0F271
:10212000B70119D4A50B03262E4044F6A435C0F2FE
:102130000005AD5D660A1F2737407E1C6E436400B4
:1021400040F2FE3525404CF2C064C0F22D046C43D1
:102150006118B1FBF6F1890040F64C74C2F200043C
:102160002160856807242C40022C1DD0012C11D140
:1021700048F2000141F20014C4F2040473B9036888
:10218000134303602368046894430460802213426D
:1021900008D109E0A10017A2515805E02268802368
:1021A0001A4201D047F6005180690F220240501CAC
:1021B000B1FBF0F040F65471C2F2000108604AF23F
:1021C0002011C0F20701411844F24022C0F20F0270
:1021D000B1FBF2F140F6E012C2F200021160F0BC75
:1021E00002BC8E46714672467346F4468EF30088F2
:1021F0007447C046001BB7000080000000000000CC
:102200001027000000000000006CDC02000000004D
:10221000001BB70080B500F09FFC40F65470C2F27E
:102220000000006880BC02BC8E4671467246734650
:10223000F4468EF30088744740F20020C4F2000098
:10224000006801210140494241F60030C0F2B70068
:102250000840714672467346F4468EF30088744710
:1022600040F20020C4F200000068810348F2000040
:102270000840714672467346F4468EF300887447F0
:10228000810ACAB2002192B141091F230B409A4032
:10229000000C0C21014044F69430C0F2000040587C
:1022A00040F22021C4F2000141581140D9400846B3
:1022B000714672467346F4468EF3008874470000F8
:1022C00010B501464FF6F070C7F6FF7008180328E6
:1022D00012D8810001A251188F46C04600F006B8FE
:1022E00000F025B800F02AB800F02FB840F218200E
:1022F000C4F2000001682EE04A0E07231A400020B5
:102300005AB3080D1F240440A240880E0C2101403E
:1023100044F68430C0F20000405840F21821C4F264
:1023200000014018D94340581040E04015E040F209
:102330001820C4F20000006841080CE040F21820A8
:10234000C4F200000068010A05E040F21820C4F25F
:1023500000000068410A0120084010BC02BC8E4603
:10236000714672467346F4468EF30088744780B512
:1023700000F0F2FB40F65470C2F20000006840F238
:102380003421C4F20001096807220A40D04080BC11
:1023900002BC8E46714672467346F4468EF3008840
:1023A000744780B500F0D8FB40F65470C2F20000CC
:1023B000006840F23421C4F20001096809090722CB
:1023C0000A40D04080BC02BC8E46714672467346BD
:1023D000F4468EF30088744710B540F24020C4F2F2
:1023E0000000016805200204002011421FD188036B
:1023F00041F60030C0F2B70019D48A0B0323134012
:1024000044F6A432C0F20002D25C4B0A1F241C40E6
:10241000631C5343490040F2FE320A404CF2C06153
:10242000C0F22D0151430818B0FBF3F0800010BC3E
:1024300002BC8E46714672467346F4468EF300889F
:1024400074474EF61050CEF200000168042291430A
:10245000016040F20020C4F2000001688022914334
:10246000016030BF704780B5FFF7EBFF80BC01BC57
:1024700086467046714672467346F4468EF300886F
:1024800074474EF61050CEF20000016804220A4351
:10249000026040F20020C4F20000016880220A437A
:1024A000026030BF704780B5FFF7EBFF80BC01BC16
:1024B00086467046714672467346F4468EF300882F
:1024C0007447F0B581B040F20025C4F200052E6DCE
:1024D0000321C943695840F200320A4049F2000121
:1024E000C0F2D031884200D98AB146F60041C0F22C
:1024F000DC21884203D940F200139A4207D043F20C
:102500000061C0F26E11884200D808460146286872
:102510000427384328602A6D1020024208D146F271
:10252000FF02CFF6DB72521C02D02B6D0342FAD0B1
:102530002869072202432A61286A0F2290432862F1
:102540002A6D0120024205D1C004FFF700FD0446B8
:102550002E6D03E00020FFF7FAFC04460220002164
:1025600000F008F8F00602D42868B8432860204636
:1025700001B0F0BDF0B581B040F20024C4F2000417
:10258000266D226804252A43226010221640236DFE
:10259000134208D146F2FF03CFF6DB735B1C02D077
:1025A000276D1742FAD0226907231A432261226A53
:1025B0000F27BA430A4322622169994301432161EB
:1025C00000F0CAFA16B92068A843206001B0F0BD37
:1025D000F0B50023DC43830ADDB240F21023C4F2DD
:1025E00000038DB146091F273740BD406540060CEA
:1025F0000C27374044F69436C0F20006F659F61818
:1026000037692F4017433761450E07222A4082B1B0
:10261000050D1F262E40B2406240800E0C2404405F
:1026200044F68430C0F200000059C45814400C43F2
:10263000C450F0BD70B5734614460D460646D80723
:102640001AD1701C12D044F6E830C0F200000830F5
:1026500040F24C210322D2438258B24204D00C39BA
:102660000C300029F6D101E0006828B945F26D0070
:10267000C0F2000000F040FE304629462246FFF737
:10268000A7FF70BC01BC8646704671467246734611
:10269000F4468EF30088744710B540F25022C4F21D
:1026A000000211680140012381420AD046F2FF0472
:1026B000CFF6DB740021641C04D011680140814214
:1026C000F8D11946084610BDFEE7F0B500231C46B8
:1026D0000125A5400D4207D015469D4003269E408A
:1026E0000768B7432F4307609B1C641C102CEFD175
:1026F000F0BDF0B581B001273C07FDF749FE41F27E
:102700000005C4F2040541F20006C5F204062042A9
:10271000284600D0304600903F04FDF739FE2042A5
:1027200004D0009A70683842FCD003E0009A6868D0
:102730003842FCD0D06B04210143D16301B0F0BD1D
:10274000F0B581B0044601252E07FDF721FE304289
:1027500004D041F20001C5F2040103E041F200019E
:10276000C4F20401486928400090E0618B690727A2
:102770003B40E3600B691E0D0F231E4042F2E00058
:10278000C2F2000006600E69360C1E4042F2F800EC
:10279000C2F2000006600E69360B2E4042F2D800ED
:1027A000C2F2000006600D692D0A1D4042F2F000E1
:1027B000C2F2000005600D692D090326354042F282
:1027C000CC00C2F2000005600D691D4042F2E40039
:1027D000C2F200000560CD682D0D354042F2D006F2
:1027E000C2F200063560CD68280C184042F2E805B8
:1027F000C2F200052860C868000B384042F2D402DB
:10280000C2F200021060C868000A184042F2EC02EE
:10281000C2F200021060C8680009384042F2DC07CA
:10282000C2F200073860C868184042F2F401C2F2F0
:102830000001086042F2E000C2F2000000680A23D2
:10284000584342F2F802C2F200021268101840F235
:10285000D0728018206042F2D800C2F200000068F6
:10286000584342F2F002C2F200021268801860601F
:1028700042F2CC00C2F200000068584342F2E40287
:10288000C2F2000212688018A060306858432A68BB
:1028900085182561009840B9152D04D302202062C7
:1028A000143D256101E00120206242F2D400C2F211
:1028B00000000068584342F2EC02C2F200021268C3
:1028C00080183A685A43096851186061A16101B0E3
:1028D000F0BDB0B5044601200507FDF759FD2842BB
:1028E00004D041F20000C5F2040003E041F2000010
:1028F000C4F2040041F25731CAF2EB5101600268A0
:10290000012A03D0016001680129FCD12CB12046C5
:10291000B0BC02BC8E4600F001B8B0BDF0B585B0C9
:10292000044601200190050741F20406C4F20406A2
:10293000301F049041F20407C5F20407381F0090CD
:10294000FDF726FD0395284201D00098049020460B
:10295000002C00D17FE001980504FDF719FD0399D3
:10296000084204D0049B38682842FCD003E0049B52
:1029700030682842FCD0E169586919B101990843CF
:10298000586108E0019988435861206A022802D101
:10299000206914302061E0680493986121690A205D
:1029A0000294B1FBF0F213054243891A090419435A
:1029B0006269B2FBF0F31C030C434343D11A0902D2
:1029C0002143029A9269B2FBF0F304465C43121B66
:1029D0000A43190111430191029C21684FF630020C
:1029E000CFF6FF728918B1FBF0F203465343C91AC0
:1029F000090412050A436168B1FBF0F31C03144398
:102A00004343C91A09022143029A9268B2FBF0F3C8
:102A10005843101A08431C010443FDF7B9FC0399FD
:102A2000084203D038682842FCD002E030682842CF
:102A3000FCD0049804610446FDF7AAFC03990842FF
:102A400004D0019938682842FCD003E0019930682D
:102A50002842FCD0E16005B0F0BD80B540F2001026
:102A6000C4F2000059210160162101608821016033
:102A700001680029F6D0DB21C94345F6A522425062
:102A80000021016000F088F8FDF7A6FBFEE740F2A8
:102A90000010C4F2000000210160704671467246C9
:102AA0007346F4468EF3008874474FF6FF71C0F208
:102AB000FF01014001228A40000E40F20801C4F2E9
:102AC0000001435893434350704671467246734623
:102AD000F4468EF30088744710B571460446C80763
:102AE00017D1601C0FD044F6E830C0F2000040F26D
:102AF0004C210268A24204D00C390C300029F8D1D4
:102B000001E0806828B945F26D00C0F2000000F0D5
:102B1000F3FB20463AF0CCFA10BC01BC8646704666
:102B2000714672467346F4468EF30088744740F24D
:102B30000010C4F2000059210160162101608821B3
:102B4000016001680029F6D07046714672467346EE
:102B5000F4468EF30088744780B53AF0A5FA40F643
:102B60004C71C2F2000108603AF07EFA40F65471EE
:102B7000C2F2000108604AF22011C0F207014018B9
:102B800044F24021C0F20F01B0FBF1F040F6E01139
:102B9000C2F20001086080BD70B54EF60850CEF25A
:102BA000000040F20001C0F200010160D0210323C7
:102BB00043501F22D4434DF20005C0F203052E46B8
:102BC0002640D422865041F20006C0F20006AD191C
:102BD0006D1E25401D43D823C5500424445040F2A7
:102BE0000004C1F2040484504FF6E174C1F20704FA
:102BF000C4500524445047F60065C0F28005855056
:102C000047F6E375C0F28005C5500625455048F2E9
:102C10000005C3F20005855047F6E175C3F20105D2
:102C2000C55007254550210781504FF6E171C5F683
:102C3000FF71C150C82201218150826808239A4344
:102C4000826042F20002C0F2FA5242604FF6FC602B
:102C5000CFF6FF700246C3324EF28033CEF200034D
:102C60001A6058600020C2439A60DA604FF2000395
:102C7000C4F202031A605A60941E9C60DA601A6102
:102C80005A619A611A620C22521E0C4694405D6A87
:102C900025435D62042AF7D88A04996A914200D1DB
:102CA00070BD40F20011C4F2000159230B601623DD
:102CB0000B6088230B600B68002BF6D04CF20003EE
:102CC000C4F2000311241C6040F60004C0F220048A
:102CD0005C60D8600120186118690028FCD19868F0
:102CE000401C0BD19A602120D8600120186118691E
:102CF0000028FCD1F720C04301220A50FEE7000063
:102D000010B50446002041F2FF01C4F205018C42D7
:102D100012DC40F20001C4F205018C4228D040F2DE
:102D20000011C4F205018C4227D041F20001C4F227
:102D300005018C4217D039E041F20011C4F20501BF
:102D40008C420BD041F20001C5F205018C420AD041
:102D500041F20011C5F205018C4227D140F2050075
:102D6000C5F640700DE040F20400C5F6007008E0C2
:102D700040F20200C5F6806003E040F20300C5F6B1
:102D8000C0603AF085F902280DD140F200100443EA
:102D900040F20010C4F20500844208D110BC01BC0E
:102DA00086463AF079B9800003A1085810BD10BCDE
:102DB00001BC86463AF074B9001BB70000800000E1
:102DC00000000000000000000000000010270000CC
:102DD00000000000001BB7000020EFF30581B9B12F
:102DE00040F65072C2F2000211684B1C10D048022B
:102DF00041F23803C2F20003185810600C20484317
:102E000040F6D472C2F20002131810589860481CA1
:102E1000714672467346F4468EF30088744710B5C7
:102E2000411EEFF305820020072919D8C2B10C22F8
:102E30004A4340F6D473C2F200039A1893680832EA
:102E400073B100201060480240F65072C2F20002D6
:102E5000136841F23804C2F20004235011600120CB
:102E600010BC02BC8E46714672467346F4468EF321
:102E700000887447B0B50020EFF3058151B341F2EB
:102E80003804C2F20004012040F6D471C2F20001FD
:102E900040F200220023A5180D604C608B6020607A
:102EA0000C31401C09282C46F4D1D84340F600616F
:102EB00041F23802C2F20002505040F65070C2F2A5
:102EC0000000036082F30B8882F30988022080F3FC
:102ED00014880120B0BC02BC8E467146724673460F
:102EE000F4468EF30088744701460020EFF3058214
:102EF000CAB10223EFF314821A40491E072912D8DF
:102F00008AB10C224A4340F6D471C2F200018A18F9
:102F100011460831936833B1506880F30B88086814
:102F200080F309880120714672467346F4468EF399
:102F300000887447B0B501460020EFF3058222B344
:102F40000223EFF314821A40491E07291DD8E2B16B
:102F50000C224A4340F6D473C2F200039D1829465E
:102F60000831AC688CB1EFF309846D68AC420CD3C6
:102F70009A58944209D80C6041F23800C2F200001D
:102F800080F30B8880F309880120B0BC02BC8E4618
:102F9000714672467346F4468EF30088744770B5E6
:102FA000054600240F2823DCA80040F65871C2F221
:102FB00000010C580E18022D1ADC601C18D128468E
:102FC00000F05FF8044690B9284600F05CF804462B
:102FD00068B942F23800C2F200000078BFF35F8F98
:102FE00042F23C04C2F200040121084202D03460E3
:102FF000204670BD42F23800C2F2000000F04AF8EC
:103000000028F4D044F63430C0F20000083042F218
:103010003C04C2F20004206042F23800C2F2000018
:1030200000F066F8E3E700200870012070471D20DB
:1030300070471520C0437047002070471046704706
:1030400001207047FEF7FFBE1820C243002001B9DF
:10305000104670470168896A084700207047016878
:103060000B69002101221847016889690847036834
:103070001B691847704701680B6900210A46184709
:1030800070470020704700207047012070471120D2
:103090007047000010B50446017803220A40002062
:1030A00062B1012A00D110BD07A045F24801C0F26B
:1030B000000140F28B5200F0D4FC2178022008433A
:1030C0002070012010BDC04630203D3D20282A67D9
:1030D000756172645F6F626A65637420262043586D
:1030E000415F47554152445F4D41534B2900000019
:1030F00010B5044600780321014002290CD045F2A6
:103100000900C0F2000045F24801C0F2000140F29F
:10311000935200F0A6FC2078FC21014001200843D6
:10312000207010BD10B54EF60850CEF200000168B8
:10313000762240F60003C2F2000310C910C3521EEB
:10314000FBD140F60001C2F20001016010BC01BCDD
:10315000864600F08CBDF0B583B003460020002BFE
:103160006BD0002969D0029159690D46463D882DE2
:1031700063D803250D400020461B6E41C8274F40F1
:10318000019217430125002F009500D13D462E40A6
:103190003025754344F63466C0F2000675191E6981
:1031A000B600AF599D6840F610666E435D683C24DA
:1031B0006C431D682C19A419DB6845F28016C0F217
:1031C00001067343E318DB194AF68064CFF6FE74F8
:1031D0001B19CE2912D1019A32B942F27F24C0F2D2
:1031E0003104A342019A28D8012A0AD14DF2FF04E2
:1031F000C0F22F04A342019A1FD802E04729019A86
:1032000018DB1120C043471CC82900DC384602B136
:10321000384640F26D144C434A1ED517AD0F521973
:103220009210A218101849F63242CFF6FF72801899
:1032300046439B1902980360009803B0F0BD01203B
:10324000EFF3108101400020401A48417047000010
:1032500010B542F24404C2F200042068401C04D1BC
:1032600005A012A1512200F0FCFB00F09DFA20689D
:10327000401C206010BDC046637269746963616C54
:103280005F73656374696F6E5F7265656E7472619A
:103290006E63795F636F756E746572203C2055496B
:1032A0004E5433325F4D4158000000002E5C6D6279
:1032B00065642D6F735C706C6174666F726D5C6DAC
:1032C0006265645F637269746963616C2E63000098
:1032D00042F24400C2F20000016821B10168491EB7
:1032E0000160006800B1704700F074BA0120EFF38C
:1032F000058101B90846704783B0F0B582B07546C4
:10330000044607A80EC042F25007C2F20007387800
:10331000012804D102B0F0BC01BC03B0004740F268
:103320000010C8F2FF00002631462A4600F090FA4D
:1033300007A03146324600F033FD01253D7007A954
:103340000191204600F06AFC284600F00DF8C046C6
:10335000466174616C2052756E2D74696D652065CF
:1033600072726F720000000080B508B100F08DFB32
:10337000FEE7F0B58FB072460D460746D00709D17B
:103380000020C64378684168A9424BD8806840183D
:10339000A84247D9FFF75CFF099501200B9003462F
:1033A000029000260C9640F65470C2F200000068AD
:1033B0000A90B8680169426989180D9100688018FF
:1033C0000E90019740F69C74C2F200041C4309A8B9
:1033D000A0470496039505960696B8680169426968
:1033E0008918079180688018089003A8A0470746AD
:1033F000099502980B900C9640F65470C2F20000AA
:1034000000680A90019880680169426989180D91E5
:10341000406880180E9009A8A047F64307B93E46B9
:10342000FFF756FF30460FB0F0BC02BC8E46714627
:1034300072467346F4468EF3008874470020714646
:1034400072467346F4468EF3008874477146CA0785
:10345000011D02B101460868006871467246734654
:10346000F4468EF30088744710B573460246002078
:10347000C043DB0715D153685A689C68A2188A427A
:1034800026D91A69521E002A22DBDB68D4001B19D8
:103490001C688C421BD9C4001B19521E002AF7DA83
:1034A00016E013685A689C68A2188A4210D91A69F3
:1034B000521E002A0CDBDB68D4001B191C688C42EE
:1034C00005D9C4001B19521E002AF7DA00E058681B
:1034D00010BC02BC8E46714672467346F4468EF3AB
:1034E000008874477146CA07011D02B10146086889
:1034F0008068714672467346F4468EF300887447BE
:103500007146CA07011D02B101460868406871464C
:1035100072467346F4468EF30088744780B500F017
:103520007DF8002080BC02BC8E4671467246734610
:10353000F4468EF300887447F0B58FB074460D469C
:10354000E10713D1E9184F1E0021CE43AF4259D3F2
:1035500044686168A94255D8A4686418AC4251D93E
:10356000AF4203D0B9424DD8BC424BD9019200932F
:103570000746FFF76DFE0995022002900B9000268A
:103580000C9640F65470C2F2000000680A90B868C9
:103590000169426989180D91006880180E90012018
:1035A00040F69C74C2F20004044309A8A0470098A6
:1035B00004900395019805900696B86841690269E0
:1035C00052180792C0684018089003A8A0470190BD
:1035D000099502980B900C9640F65470C2F20000C8
:1035E00000680A90B8680169426989180D914068BD
:1035F00080180E9009A8A0470198F64300B9064626
:10360000FFF766FE30460FB0F0BC02BC8E46714636
:1036100072467346F4468EF30088744744F6C03110
:10362000C0F2000144F6A832C0F2000244F6D433DE
:10363000C0F200030AC00260704745F22010C0F2D9
:103640000000704710B50B4602460068411C10D0C0
:103650009360D168032902D3CC1E022C0AD2032125
:10366000042403B12146D16010BC04BC964600F08E
:1036700072BB10BD0629F7D10621002BF4D140F210
:10368000C03140F2C0323C328300134082080A400D
:1036900044F60001C5F2000111430122CA5006217F
:1036A000E2E770B50D4604460160481C0BD00026C9
:1036B0002846314600F01EFB0220E9B201228A4072
:1036C0006260A660E06070BD0022C046C04670B572
:1036D00015460E460446FFF7E4FF701C2CD0206808
:1036E000411C0BD144F6A460C0F2000044F6BC615A
:1036F000C0F20001282200F0B4F920680121002D59
:103700000A4600D12A4640F2C03340F2C0353C356B
:1037100086002E408008184044F60003C5F20003DE
:1037200003439A512046FFF78DFF0021204670BCCD
:1037300004BC964600F001B870BD10B502460068A2
:10374000431C09D0032908D3CB1E022B0BD203291B
:1037500021D10321002320E010BD9468032104231C
:10376000E4B119461AE0062918D10621D160926801
:10377000AAB940F2C03140F2C0323C32830013405B
:1037800082080A4044F60001C5F2000111430122FB
:10379000CA50062103E0042101239360D16010BCCC
:1037A00004BC964600F0D7BAEFF31081EFF3108017
:1037B00072B642F23110C2F20000027802B17047D4
:1037C000012213468B4342F24001C2F200010B700A
:1037D0000270704780B50120EFF31081014204D1DF
:1037E00009A010A1352200F03CF942F23110C2F2DA
:1037F00000000021017042F24000C2F20000007897
:1038000000B162B680BDC046216172655F696E74A9
:10381000657272757074735F656E61626C65642841
:10382000290000002E5C6D6265642D6F735C686119
:103830006C5C6D6265645F637269746963616C5F1F
:1038400073656374696F6E5F6170692E6300000059
:10385000F0B58BB015460646002803DB40F2011692
:10386000C8F2FF0642F25004C2F200042078012898
:1038700000D1FEE70091FFF7EBFC01202070FFF77D
:1038800027FD42F24800C2F200000768791C01607F
:1038900001A82821FDF74FF87FB942F29800C2F243
:1038A000000006604560009981600C3001A98CC958
:1038B0008CC08CC98CC09CC99CC042F2FC00C2F276
:1038C000000006604560009981600C3001A91CC9A8
:1038D0001CC01CC91CC03CC93CC042F24C00C2F216
:1038E0000000016821B142F2FC00C2F200008847EA
:1038F000002042F25001C2F2000108700BB0F0BD8E
:10390000F0B583B0044640683821415C11B93A21D2
:10391000405C08B103B0F0BD2068006880470294A5
:103920002068C06980470446056875B944F6F860A8
:10393000C0F2000044F6FA61C0F200012C2200F04F
:1039400090F844F24025C0F20F051F20C1B20126B5
:1039500032468A40954205D0401E0027FF2108428A
:10396000F4D100E007466168081F1D280BD344F618
:10397000F860C0F2000044F6FA61C0F200013A2299
:1039800000F06FF82021019102994868002200920E
:103990000260426008684068804702994C683B2199
:1039A00067543A22009FA754A762E7622062A5608D
:1039B00030463946019AFCF719FD411E0198021F55
:1039C00007209040E160206144F24022C0F20F02E3
:1039D00039463B46FCF72BFD28187941401EB9417A
:1039E0002A463B46FCF73BFDA061E1612763676324
:1039F0002687029C204600F05EFD204603B0F0BC06
:103A000002BC8E4600F03EBC80B540F20000C1F220
:103A10000400016881F38888406801218843F0B47C
:103A200044464D4656465F46F0B401218843014660
:103A3000024603460446054606460746804681463A
:103A400082468346844680F300888447F0BCA046C3
:103A5000A946B246BB46F0BC3F20000600F0D4FEAB
:103A6000FAE770B582B014460D460646FFF7F0FB44
:103A70006846046040F24410C8F2FF00002231465C
:103A80002B4600F08AF802B070BDF0B587B0FFF7A2
:103A9000DFFB03A80A21FFF717FE002640F2C0371C
:103AA00044F60005C5F200050398411C0BD12822FD
:103AB00044F6A460C0F2000044F6BC61C0F200010C
:103AC000FFF7CFFF039840F2C0343C34810021401F
:103AD000800838402843012201924250962000F08D
:103AE000A1FE0398411C0BD1282244F6A460C0F229
:103AF000000044F6BC61C0F20001FFF7B2FF03987A
:103B00008100214080083840284300220292425020
:103B1000962000F087FE761C042EC5D104272E4681
:103B20000398411C0BD1282244F6A460C0F2000087
:103B300044F6BC61C0F20001FFF793FF03988100D7
:103B40002140800840F2C03528403043019A42505D
:103B500040F2901000F066FE0398411C0BD1282221
:103B600044F6A460C0F2000044F6BC61C0F200015B
:103B7000FFF777FF039881002140800828403043F9
:103B8000029A425040F2901000F04CFE7F1E3546E3
:103B9000C5D1029E40F2C03786E7E0B51D460E460D
:103BA00011467246FFF754FE049A3046294600F04B
:103BB000F7F800F04FF883B080B581B003AF0EC7BF
:103BC00003A9009100F02AF801B080BC01BC03B049
:103BD000004710B582B00446FFF73AFB002011E021
:103BE000C0B20D2806D001A90D20087002200122C4
:103BF00000F02CFE02200122214600F027FE611C6D
:103C000020780C4621780A29EAD00029F2D102B0A6
:103C100010BC01BC8646FFF75BBB000010B5A2B02C
:103C20000B46024601A88421FCF79AFC044684282E
:103C300005D301A87F3005A10522FCF71DFE012C4C
:103C400002DB01A8FFF7C5FF22B010BD2E2E2E0A01
:103C50000000000080B5FFF749FB10B9FFF7EFFA4D
:103C600008B930BFFDE70120FFF77EFB7047F0B5D4
:103C700081B042F23010C2F200000178C1BB0124D1
:103C8000047040F20017C4F2000759203860162073
:103C900038608820386038680028F6D00420FEF7A5
:103CA00024FA2046FEF721FA08252846FEF71DFAD9
:103CB00002263046FEF719FAA004FEF716FA102085
:103CC000FEF7EAFC2046FEF7E7FC2846FEF7E4FC98
:103CD0003046FEF7E1FC4020FEF7DEFC49F2000032
:103CE000C0F2D030FEF7EDFBFEF736FF0020386063
:103CF00001B0F0BD39F000BAB0B50C460546401C25
:103D00000AD144F6A960C0F2000045F2AC01C0F24D
:103D100000015422FFF7A5FE68087C2101406809D4
:103D200078220240501840F23001C4F2000142589B
:103D3000AB001C251D400F23AB409A432243425049
:103D4000B0BC01BC86467046714672467346F44666
:103D50008EF300887447B0B50D460446401C0AD166
:103D600044F6A960C0F2000045F2AC01C0F20001C7
:103D70002622FFF776FEEA1E032A10D8E0B20121C0
:103D80008140A00840F2C033034044F20000C5F275
:103D900000001843B0BC08BC9E46FEF796BCB0BD00
:103DA000F0B581B000920D4606460320400742F26E
:103DB000FC04C2F2000421680A4602404F428242DB
:103DC00000D08FB2080CC3B244F64970C0F20000B4
:103DD0003A46FFF7F0FE4FF6CF60CFF6FF70381887
:103DE000132847D8810001A251188F4600F026B849
:103DF00000F02AB800F02BB800F02CB800F02DB875
:103E000000F02EB800F02FB800F030B800F032B853
:103E100000F030B800F02EB800F02CB800F02AB84E
:103E200000F028B800F026B800F024B800F022B85E
:103E300000F020B800F01EB800F049B8A16844F6C0
:103E40003470C0F2000013E0A16845A010E0A16842
:103E50003FA00DE0A16839A00AE0A16832A007E008
:103E6000A16828A004E0A1682AA001E0A1681FA021
:103E7000FFF7A1FE3046FFF7ACFE616844F6AD7077
:103E8000C0F20000FFF797FE4DB139A0FFF7A1FE89
:103E90002846FFF79EFE38A00099FFF78CFEA16828
:103EA00044F69A70C0F20000FFF785FE216844F6E0
:103EB000BD70C0F20000FFF77EFE44F61A70C0F23B
:103EC000000001B0F0BC02BC8E46FFF774BE02A039
:103ED000FFF771FECEE7C046417373657274696F78
:103EE0006E206661696C65643A2000004D657373ED
:103EF00061676551756575653A20307825582C20C5
:103F00000000000054696D65723A20307825582C05
:103F1000200000004576656E74466C6167733A2038
:103F2000307825582C2000004D656D6F7279506FE8
:103F30006F6C3A20307825582C20000053656D6155
:103F400070686F72653A20307825582C2000000088
:103F50004D757465783A20307825582C2000000083
:103F60005468726561643A20307825582C2000002E
:103F70000A46696C653A20002B25640080B540F242
:103F80000100C7F2802039F097F880BC01BC86465A
:103F90007046714672467346F4468EF30088744745
:103FA00010B540F20820C4F2000000680221084267
:103FB00005D140F20100C7F2802039F081F841F2CA
:103FC0000000C4F2040000680121084207D1002467
:103FD0002046FEF77EFC2046214639F0A1F810BCB1
:103FE00001BC86467046714672467346F4468EF3AF
:103FF0000088744780B540F20820C4F200000068D1
:104000000221084205D140F20100C7F2802039F0B8
:1040100057F841F20000C4F2040001680120084092
:1040200080BC02BC8E46714672467346F4468EF3DF
:1040300000887447F0B597B040F20820C4F2000041
:1040400000680221084205D140F20100C7F2802039
:1040500039F036F80320C04341F20405C4F20405E8
:1040600028580127384201D139F04EF83E043C0768
:1040700042F23810C2F200000178D9BB01940770F7
:1040800064201190002410940F97062012900E9433
:104090000D940C940CA842F23411C2F20001224695
:1040A000FFF759F80028214668D041F20404C5F210
:1040B0000404FCF76DF90199084203D020683042EE
:1040C000FCD002E028683042FCD0FEF712FBFCF77F
:1040D0005FF90199084203D020683042FCD002E029
:1040E00028683042FCD0E86B42F23C11C2F2000179
:1040F0000860019CFCF74CF9204207D041F2040013
:10410000C5F2040001683142FCD002E02868304268
:10411000FCD003A8FEF714FB05980F9006981290A8
:1041200007980E904FF69401CFF6FF71039A51183D
:1041300011910499491E10910A9921B90B990229EC
:1041400001D10C300E9008980D9009980C900CA895
:1041500002A900242246FEF7FEFF002821460DD0CA
:1041600042F23C10C2F2000000680299081842F2C4
:104170003411C2F200010968441A0021204617B028
:10418000F0BC04BC964672467346F4468EF3008833
:104190007447F0B581B0054640F20820C4F2000033
:1041A00000680221084205D140F20100C7F28020D8
:1041B00038F086FF03200090C04341F20407C4F2A8
:1041C000040738580124204201D138F09DFF42F203
:1041D0003C10C2F2000005602504240741F20406E9
:1041E000C5F20406FCF7D4F8204203D03068284218
:1041F000FCD002E038682842FCD0FEF77AFAFCF7DF
:10420000C7F8204203D030682842FCD002E038686A
:104210002842FCD042F23C10C2F200000068F86371
:10422000FCF7B6F8204203D030682842FCD002E008
:1042300038682842FCD044F61030C0F20000FEF787
:104240006DFB40F20820C4F20000416948F2000210
:104250000098014201D042F2107244F24021C0F2B3
:104260000F01B1FBF2F1484300F0E1FA01B0F0BCFC
:1042700001BC86467046714672467346F4468EF31C
:1042800000887447F0B583B0044646683A20305C35
:1042900010B93920305C08B103B0F0BD204600F001
:1042A0000AF962685168C1B3156B0B6801270020D9
:1042B0000195AB423D4600D905460292526B4968D2
:1042C000914200D90746914200D03D46002D7CD155
:1042D000002701981B1A01977F41029880690125E8
:1042E00000938342284600D801987F1E9141029A8C
:1042F000D269914200D8019D914200D02846029A8D
:10430000156900283ED11346926844F24020C0F25D
:104310000F0082420DD1009830E0306AF1683269B6
:10432000101808402168096903B0F0BC04BC964627
:1043300008473B201B5C44F23F27C0F20F075BB1EC
:1043400000981A46FCF752F80023C019594144F26C
:104350004022C0F20F020FE0002700983B46FCF716
:1043600066F844F23F22C0F20F028018794144F20D
:104370004022C0F20F023B46FCF771F8854200D3A1
:104380000546029A106A4019D5680540306A854290
:1043900008D111A044F6FA61C0F2000140F2071200
:1043A000FFF75FFB2068016928468847206840685E
:1043B0008047316A8D4202D9A84203D305E0A84262
:1043C00000D269E7884200D366E72068406903B0FD
:1043D000F0BC02BC8E4600476D617463685F74690F
:1043E000636B20213D2071756575652D3E74696391
:1043F0006B5F6C6173745F7265616400F0B581B06E
:104400000546FEF725FF2868C068804768683A219E
:10441000415C79BB3921012747544168393021B3C8
:104420000097284600F047F82C466868026B416800
:104430000D68002395423A4600D81A46466B4D68EF
:10444000B54200D81F46B54200D03A46002A25465C
:104450000AD1CA68426003681BB1886898476868D7
:104460004268002A009FDCD13930002101702846C3
:10447000FFF708FF01B0F0BC01BC8646FEF728BF7D
:1044800080B500F001F880BD10B50446FFF738FA9A
:10449000FEF7DEFE204600F00EF8FEF719FF616819
:1044A000086B496B10BD40F20800C4F20500012101
:1044B000016000F071B9F0B585B0044646683A2055
:1044C000305C002800D07EE020684068804761684A
:1044D000096A884277D0316A3062401AB168F4685C
:1044E0000440002544F24020C0F20F00814264D015
:1044F000049144F24022C0F20F02002720463946C0
:104500003B46FBF794FF3B22B55C002D039026D081
:1045100001970F462A46FBF779FF044602912A4687
:10452000FBF764FF039A101A019B1A465A41521E68
:104530008F41B16A0918B162F06A7841F0620122D4
:10454000049DA9421F4600D33A4600B13A4633467D
:104550002833002A029D30D10022049F24E0002548
:104560000F46049A2B46FBF77AFF04460291049A01
:104570002B46FBF75CFF039A101A2A466A41521E2B
:104580008F41B16A4118B162F06A7841049FF062CC
:104590000122B94200D32A4600B12A4633462833C5
:1045A000002A029D09D10022C91B19601146514100
:1045B000491E90415860641C5541306B00193063AE
:1045C000706B6841706305B0F0BD40F20800C4F242
:1045D00005000121016070474EF28410CEF2000008
:1045E00001210160BFF34F8FBFF36F8F70474EF211
:1045F0000420CEF20000012101604EF20410CEF240
:1046000000000160704780B54EF28410CEF20000C9
:1046100001210160BFF34F8FBFF36F8F40F20200A3
:10462000C5F6806038F048FD42F24010C2F200004A
:104630000021018080BD45F24810C0F200007047A3
:10464000F0B583B042F24010C2F20000018851B1CF
:104650004EF28410CEF2000001210160BFF34F8FB3
:10466000BFF36F8F64E00126068040F20200C0F2C3
:10467000004038F039FD40F20204C5F680640022A3
:10468000204640F2002138F027FD204638F018FD82
:1046900040F20004C4F205042046FEF731FB44F268
:1046A0004025C0F20F05B0FBF5F14F1E802F0BD354
:1046B000029020A0019145F2E301C0F200016922BD
:1046C000FFF7CFF9019902984D43401B07D028A06E
:1046D00045F2E301C0F200016A22FFF7C2F90320AC
:1046E000C006074327604FF6FF70C0F2FF0060600E
:1046F0004EF60850CEF200000068C02144F2A742F6
:10470000C0F2000242504EF28410CEF20000066069
:10471000BFF34F8FBFF36F8F700721680143216094
:10472000B007216801432160700621680142FBD077
:1047300003B0F0BD287072657363616C655F746966
:104740006D657220213D202875696E7433325F7467
:1047500029202D3129202626207072657363616C13
:10476000655F74696D6572203C3D20313237000011
:1047700028636C6B5F74696D65722025204E555FF0
:10478000544D52434C4B5F5045525F534543292093
:104790003D3D20300000000040F69870C2F200005D
:1047A000016821B145F22010C0F2000008477047AF
:1047B00080B542F24010C2F20000008808B9FFF74D
:1047C0003FFF40F20C00C4F20500006880BD40F2DB
:1047D0000402C4F20502012151604EF28423CEF29C
:1047E000000319600223022800D818464FF6FF7311
:1047F000C0F2FF03984200D3184610604EF2041036
:10480000CEF200000160704780B542F20041C4F66C
:10481000741100F095F8FCF7D8F880BC02BC8E4605
:1048200000F005B840F2E8314843C046C04670B5D4
:104830000446FEF702FF0546FFF722FE064628461D
:10484000FFF71EFE801BA042F9D370BD70B5144661
:104850000D46FEF7A4FB092640B10168CB68294646
:1048600022469847002800DB70BD4642FBF794FDC6
:1048700006600020C04370BDF0B4040C8BB2264625
:1048800082B25E43104658430D0C370C36040021AB
:104890008019164679416E43370C36048019264636
:1048A00079416E438919F0BC704700004900CA0283
:1048B0000243100000D004204A0D01D00122104311
:1048C000044A490D914201D102210843012800D137
:1048D00005207047FF07000030380A2801D2012068
:1048E000704700207047000010B500290AD00878F2
:1048F000002807D005487844FCF720F8002801D0AC
:10490000002010BD0248784410BD00007A08000065
:104910007208000010B500290AD00878002807D0D6
:1049200005487844FCF70AF8002801D0002010BDA3
:104930000248784410BD00006A08000062080000C8
:1049400070B5420064414B005C41120E39D01B0E21
:1049500038D0FF2A3CD0FF2B3AD0D2187F3A400201
:104960004902400A490A4518ED0106004E43000A73
:10497000090A48430104731A4019190C4318990F86
:1049800004D05B08012149075B1A521CD80904D3E3
:10499000401CF50301D19D0607D0FF2A08D2D5059A
:1049A00006D0E4072043401970BD0125A843F4E771
:1049B000002A01DCE00770BD2402FF202043C0056F
:1049C00070BD1B0EFF2A03D0FF2B01D0E00770BD86
:1049D000FF2636064500B54206D84D00B54203D83D
:1049E000D218FF2A00D0E7E7004870BD0000C07F62
:1049F00003B402487844844603BC60470DC3FFFFFC
:104A000003B402487844844603BC6047A1C9FFFF51
:104A100030313233343536373839414243444546F4
:104A200040305800303132333435363738396162EE
:104A300063646566403078000400000800000000F0
:104A40000000000200010000100000000000000053
:104A50000000000030313233343536373839616286
:104A600063646566787000303132333435363738F8
:104A7000394142434445465850000000024000007E
:104A8000000000A00000000005400000000000C879
:104A9000000000000C4000000000409C00000000EE
:104AA000194000000020BCBE00000000344000009F
:104AB000BFC91B8E00000004B5400000504BCFD092
:104AC0006607E2CF010000006C4100003E8251AA5F
:104AD000DFEEA73401000000D9420000DCB5A0E2FF
:104AE0003A301F97FFFFFFFFB4450000FD25A0C827
:104AF000E9A3C14FFFFFFFFFFF3F00000000008060
:104B000000000000FF3F00000000008000000000E7
:104B1000D0070000010000000100000006000000B6
:104B20000000000000000000000000000100000084
:104B300000000000000000000000000081300000C4
:104B400045300000273000003D3000002F300000CD
:104B5000393000005B300000413000005F30000061
:104B600077300000333000006F3000006930000003
:104B700055300000493000008B3000008F300000BD
:104B80007530000000000000040000000800000074
:104B90000C000000000000000400000008000000FD
:104BA0001000000001020204D7000000890100008B
:104BB0006F0200001903000064050000E4090020F2
:104BC000040000000000000000000400944E0000FB
:104BD00001000000040000000000041000000400B8
:104BE0009C4E00000100000004000000903C800288
:104BF000000200000600000006FF4307002000003E
:104C0000FFFFFFFFFFFFFFFF004000000300000069
:104C100003000000000001001D0000000100000072
:104C20000000000107000000070000000000020073
:104C30000C0000000C00000000000400FFFFFFFF5C
:104C400001008072000000001C0000041CFE0340F4
:104C500008000000070000040700004020000000DA
:104C6000FFFFFFFFFFFFFFFF400000000C000008F8
:104C70000C000080800000001D0000041D00007773
:104C8000000100001A0000049A3C8042002000004D
:104C9000040000040400005F00000200050000049E
:104CA0000500405F000002001000000810000080B6
:104CB0000000000111000008110000800000000247
:104CC0001200000812000080000000041300000819
:104CD00013000080000000080D0000040D00406675
:104CE000010000000E0000040E00606602000000DB
:104CF0000F0000040E0060660400000006000008BB
:104D00000600C0A608000000FFFFFFFFFFFFFFFF37
:104D100010000000070000080700E0A620000000C7
:104D200010000004103D8057000001001100000435
:104D3000913DA0570000020012000004123C8C7745
:104D40000000040013000004933CAC77000008004E
:104D500014000004143DCC7700001000150000047E
:104D6000953DEC770000200008000004080000409A
:104D700001000000090000040900004002000000DA
:104D80000A0000040A0000400400000000000008BF
:104D900000FC07B6000001000100000801FD27B675
:104DA000000002000200000802FE47B600000400F6
:104DB0001800000418000040010000001600000860
:104DC0001600008000000100170000081700008096
:104DD000000002001A0000081A0000800000100005
:104DE0001B0000081B0000800000200017000004CA
:104DF000177F345200008000FFFFFFFFFFFFFFFF1F
:104E0000000000011F0000041900008000000002E3
:104E10001B0000049B3C80420100000008000008C9
:104E2000080000800000010009000008090000805F
:104E3000000002000000000080DE280080C84D0055
:104E400000A7760000349E008012C700809FEE000D
:104E5000007E1701805C400180E9670100C8900175
:104E60000055B8010000000080DE2800001A4F0045
:104E700080F8770080859F000064C80000F1EF0093
:104E800080CF180100AE4101003B690180199201F9
:104E900080A6B90100000000000800000000041016
:104EA000000800006F626A2D3E70696E20213D206F
:104EB0002850696E4E616D65294E43002E5C6D620F
:104EC00065642D6F735C746172676574735C5441C3
:104ED000524745545F4E55564F544F4E5C544152C5
:104EE0004745545F4D323335312F6770696F5F6FBF
:104EF000626A6563742E680030002E5C6D626564C2
:104F00002D6F735C68616C5C6D6265645F7469636E
:104F10006B65725F6170692E63000A2D2D204D62F2
:104F200065644F53204572726F7220496E666F2020
:104F30002D2D0A004B65726E656C204572726F7282
:104F40003A20307825582C20000A0A2B2B204D625D
:104F500065644F53204572726F7220496E666F20F0
:104F60002B2B0A4572726F72205374617475733AF9
:104F7000203078255820436F64653A202564204D01
:104F80006F64756C653A2025640A4572726F7220F1
:104F90004D6573736167653A20000A4572726F72DE
:104FA0002056616C75653A2030782558000A4C6FA0
:104FB000636174696F6E3A2030782558000A466F35
:104FC00072206D6F726520696E666F2C2076697332
:104FD00069743A2068747470733A2F2F61726D6D22
:104FE0006265642E6769746875622E696F2F6D62E1
:104FF00065646F732D6572726F722F3F6572726F89
:10500000723D307825303858004358415F4755414C
:1050100052445F494E49545F494E5F50524F475288
:10502000455353203D3D20282A67756172645F6FA8
:10503000626A6563742026204358415F4755415298
:10504000445F4D41534B29002E5C6D6265642D6FAA
:10505000735C706C6174666F726D5C6D6265645FC9
:1050600072657461726765742E637070004E6F6E46
:105070002D73656375726520646F6D61696E207450
:105080007269657320746F20636F6E74726F6C2029
:10509000736563757265206F7220756E64656669ED
:1050A0006E6564206D6F64756C652E002E5C6D629C
:1050B00065642D6F735C746172676574735C5441D1
:1050C000524745545F4E55564F544F4E5C544152D3
:1050D0004745545F4D323335315C70696E6D617098
:1050E0002E63002E5C6D6265642D6F735C7461725B
:1050F000676574735C5441524745545F4E55564F33
:10510000544F4E5C5441524745545F4D3233353114
:105110005C75735F7469636B65722E6300000000D9
:10512000285100005820002041460000B1470000EF
:10513000D9450000CB450000CF470000EF450000F7
:10514000074600003746000040420F0018000000EC
:105150009C520000E0090020D8050000D21D00008C
:105160007C550000B80F00208C1100001C020000CC
:105170001C00000043000000F8FFFFFF0C000000CF
:105180000E0000000F0000002E00000010010000C3
:1051900043000000F8FFFFFF004040404040404017
:1051A00040404141414141404040404040404040FA
:1051B000404040404040404040050202020202029E
:1051C00002020202020202020220202020202020ED
:1051D0002020200202020202020290909090909001
:1051E00010101010101010101010101010101010BF
:1051F0001010101002020202020288888888888833
:10520000080808080808080808080808080808081E
:105210000808080802020202400000000000000026
:10522000000000000000000000000000000000007E
:10523000000000000000000000000000000000006E
:10524000000000000000000000000000000000005E
:10525000000000000000000000000000000000004E
:10526000000000000000000000000000000000003E
:10527000000000000000000000000000000000002E
:10528000000000000000000000000000000000001E
:10529000000000000000000000000000101D3000B1
:1052A000000085B00A460346039002A801700192EF
:1052B0000093FFE74CF2C000C4F21B100B68012101
:1052C000084201D0FFE7F514320014300C016840A9
:1052D00022114301604CF20C10100B2221016003DB
:1052E000984CF204010E501501086002A8007800E5
:1052F0002808D1FFE70020C0434CF208181309E04A
:105300000C3132200B4AF60321C0F2550101606ACC
:10531000421056114600051CBFF36F8F7C1004002D
:10532000684090120B14E18E10080120049002E0F6
:105330000006201DFFE7049805B07047B0B587B0A0
:1053400013460C46054605900491039240F2001066
:105350007E12596A12166E1288B841E01008029344
:105360000194009503B210070120069038E02A420C
:10537000205C3204EA500440F2041021F83006FFA9
:10538000E740F2502024040068101EC6D11E5601CA
:105390001E321CF8120A646310425CE30AE0B81281
:1053A000007204111EFFE7069807B0B0BD82B0017D
:1053B000460190009180400401229162452811D05D
:1053C0001004084602F2072C81B0BA16260615B85A
:1053D000714696C8AE054898360098160098100495
:1053E000009801A6100480B584E8100A0290029883
:1053F0004FF6FF72CE044310400E70040002CF0E31
:1054000014100F2212051040012252059042019102
:105410000B64170298C2101501CFF6E07140180115
:1054200021FFF7A4FE039005E00298000C129E0CE9
:10543000380CFFE7039804B080BD80B586D04809DA
:105440000490039100200290D228090298039988C1
:10545000420FD21E101202994A1C02928900405833
:10546000FFF7B8FF002803B818080120059003E0F3
:10547000EBB416059010040598064A5804B0B58898
:105480004220120690059104920598C01C032188C1
:1054900043059006BC1271BC0C0C2C7108400690A0
:1054A00003930294019536031621702168140400B9
:1054B000283F369E064003040752049800F03CF84B
:1054C0008A100B07900CE00698001D0690641004EB
:1054D0001D04907E1C051F0590BCA8031A078418A4
:1054E000040798088456839C1642227004007801B1
:1054F0000A90070002019A101810D20410420620E8
:105500003C0601980091037E0305163C05322E7679
:10551000002E36532E857E85386D5E0429CA0546D9
:10552000341D98037F901DB8042811006804990069
:10553000900846FFF76CFF0099814238212205123E
:105540005632A81A655642000110056CDC02FF01B4
:105550006108610102310001002100FD43000030BB
:10556000B54D4620B4456903699946C368826841D0
:0C557000680068A84720BCA94630BD00B8
:020000040003F7
:10D000007FE97FE9C5F7E8BE7FE97FE9C5F707BF9C
:10D010007FE97FE9C5F72EBF7FE97FE9C5F764BFE8
:10D020007FE97FE9C5F786BF7FE97FE9C6F7A1B948
:10D030007FE97FE9C6F702BA7FE97FE9C6F706BA5A
:10D040007FE97FE9C6F710BA7FE97FE9C6F74ABAF8
:10D050007FE97FE9C6F754BA7FE97FE9C6F75EBA90
:10D060007FE97FE9C6F768BA7FE97FE9C5F746B887
:10D070007FE97FE9C5F7CEB87FE97FE9C5F7DCB87E
:10D080007FE97FE9C5F7ECB87FE97FE9C5F7F8B834
:10D090007FE97FE9C5F714B97FE97FE9C5F767B98B
:10D0A0007FE97FE9C5F77DB97FE97FE9C5F794B9E5
:10D0B0007FE97FE9C5F7F9BC7FE97FE9C4F7DCBE0A
:10D0C0007FE97FE9C4F715BF7FE97FE9C5F7CBB9F1
:10D0D0007FE97FE9C5F7E7B97FE97FE9C5F7AABA34
:10D0E0007FE97FE9C5F7D3BC7FE97FE9C5F7F4BCE9
:10D0F0007FE97FE9C5F71BBD7FE97FE9C6F7FCBD86
:10D100007FE97FE9C6F73ABF7FE97FE9C6F748BF05
:10D110007FE97FE9C6F76EBF7FE97FE9C6F78ABF7F
:10D120007FE97FE9C7F735B8000000000000000084
:10D1300000000000000000000000000000000000EF
:10D14000FFFFFFFFFFFFFFFFFFFFFFFFFFFFFFFFEF
:10D15000FFFFFFFFFFFFFFFFFFFFFFFFFFFFFFFFDF
:10D16000FFFFFFFFFFFFFFFFFFFFFFFFFFFFFFFFCF
:00000001FF
