:020000041000EA
:1004000000000608AB1F00100D0000000D200010BA
:1004100000000000000000000000000000000000DC
:100420000000000000000000000000000920001093
:10043000000000000000000009200010092000104A
:1004400009200010092000100920001009200010C8
:1004500009200010092000100920001009200010B8
:1004600009200010092000100920001009200010A8
:100470000920001009200010092000100920001098
:1004800010B5064C2378002B07D1054B002B02D06A
:10049000044800E000BF0123237010BD0C060408CF
:1004A00000000000086F0010084B10B5002B03D0AF
:1004B0000749084800E000BF07480368002B00D147
:1004C00010BD064B002BFBD09847F9E70000000059
:1004D00010060408086F00107002040800000000F5
:1004E000D0239B00054AD05803E0D0239B00034A49
:1004F000D058431CF9D0C0B27047C04600006540D8
:1005000010B50400002003E02100034800F0F6FECF
:100510000028F9D010BDC04600006540F8B50400C1
:100520000D00002101F0A6F82C4E336898686D226A
:10053000995C6C3A8A4003238B4013408022D20599
:1005400013438022D2008350002001F019FA326850
:100550001368802152589B181968090E01314B0805
:10056000C01801F071FDE9004B08181801F06CFD8E
:1005700001381B4B984221D91A48184B19688D68CD
:100580006F23CB5C032216009E4033006C268E5DE9
:100590006E27CF5DBE4033436D268E5D0121B14095
:1005A000B2400A4013438022120613438021C9003F
:1005B0006B506B5823681A432260F8BD074B1B68C9
:1005C0009A6872215B5AD218136807490B400002DF
:1005D00006490840184310600020CEE76808040868
:1005E000FFFF000001004A00FF0000FF00FFFF00C6
:1005F00070B50C001600002901D0002509E0002587
:10060000280070BD2078094B1870FFF779FF01347E
:100610000135B542F4DA23780A2BF3D1034B1B786A
:100620000D2BEFD00D20FFF76BFFEBE7280604083A
:1006300070B50D00160000290CD00024B4420ADA6F
:10064000FFF74EFF287001340A2804D00D2802D08D
:100650000135F3E70024200070BD000070B50500EF
:10066000084C094A0949200000F05CFE29002000DE
:10067000FFF754FF226880231B06134323600020EA
:1006800070BDC0460000654030080408306A0010A4
:100690000648902149014358054A1A40054B134327
:1006A0004350024B5B68DB06FBD5704700002040DF
:1006B000FCFF00000300FA0510B582B0002301938F
:1006C000019AC8239B0513430193019B0193019A4F
:1006D00080235B0013430193019B01221343019389
:1006E0001B4B1C682E23E35C002B00D101BE206A4B
:1006F0000100002306E00022002A08D0154A934298
:1007000005D801330A68002AF5DB134AF4E7114AD9
:1007100093421AD8019BC36001238360002200E04A
:100720000132B023E358C3181B68002B02DA094BCF
:100730009A42F5D9074B9A4207D8C3680193019AA8
:10074000A0231B069A4200D0019B02B010BDC046F8
:1007500068080408973A000001008A0070B5040098
:100760000E4B1B68002B06DB200000F097F90020E1
:1007700001F00EFBFBE772B6094E8025AD00094B78
:100780007351FFF785FF012001F0D4F97451FFF791
:1007900093FF06F0F9F862B6E6E7C046000126408E
:1007A0000000204000400016002800D001BE704725
:1007B00010B500F047F800F0AFF800F083F862B62B
:1007C00000F096F8054A0521054800F015FAE120E9
:1007D0004002FFF743FFFFF7E7FF10BD98690010E5
:1007E0008000314010B582B0FFF7E2FF0F4C6F235D
:1007F0000193002300930133012221000C4802F0F1
:100800004FFB0C4B0C4A21000C4802F049FB002422
:1008100006E0962001F08EF92022094BDA600134BF
:10082000092CF6D901210348FFF798FFCC69001085
:10083000E069001000040E10F86900101C6A001036
:1008400080003140F0B5C64600B51C4E31688B685B
:100850009C466D27CA5D01200400944003231D00BF
:1008600095402C408025ED0525438024E400624618
:10087000155172228A5A62441168114D0D40D421DB
:1008800089012943116031688D686F228A5C1E00DE
:100890009640B0466C268E5D6E228A5C964042463B
:1008A0003243C95D88408B400340134380221206C7
:1008B00013432B512B5904BC9046F0BD6808040823
:1008C000FF0000FF084B1B683D229A5C052A09D9EE
:1008D00098686D22995C6C3A8A4003238B401340E0
:1008E000024A83507047C04668080408140C000090
:1008F00010B5064C064A0021200000F07DF9054A9B
:100900000121200000F078F910BDC046800231407E
:10091000706A0010A46A0010704710B5002000F043
:1009200011FC10BD7047000010B5002001F028F840
:1009300000282AD0154B1860154B1B681C688022B4
:100940009B58E4182168090E013101F07DFB114B21
:10095000186023681B0AFF211940013101F074FB64
:100960000D4B1860441E0D49200001F06DFB013055
:100970000B4B1870FA218900200001F065FB013053
:10098000084B1860C003084B186010BD84000408B1
:1009900068080408880004088000040840420F002A
:1009A00094000408900004088C00040810B5204846
:1009B00000F09EF81F4CB022D200A3585B005B08E9
:1009C000A350E02189006358302083436350802383
:1009D0005B04A350184A194BE250A0229201043341
:1009E000E250FF22164BE25001F0CCFAC022520036
:1009F000A35801218B43A350FFF794FFFFF794FF07
:100A0000104B1A68136AAC21515ACA00521A9B182B
:100A10000022DA605A600C4A8021032000F0E0FBDB
:100A20000A4800F051FA0A4800F094FA10BDC04696
:100A30000C6B00100000264001000200840500003D
:100A40008C05000068080408B80504082C06040892
:100A5000D86A001090235B01024AD3580320184043
:100A60007047C0460000204010B501F0E6FA084C7F
:100A7000902149016358074A1A40074B13436350BA
:100A8000034B5B68DB06FBD501F0DBFA10BDC0460B
:100A900000002040FCFF00000100FA0570B50500D1
:100AA000830500D001BE01F0C8FA0400FFF7D2FFB1
:100AB000032813D00B4B802292009D5090204001C0
:100AC0001A5809491140094A0A431A50054B5B68F4
:100AD000DB06FBD5200001F0B4FA70BDFFF7C4FFC0
:100AE000E8E7C04600002040FCFF00000300FA05D4
:100AF000014B18607047C046680804081F4B9842B5
:100B000032D00ED91E4B984234D01BD91D4B98427F
:100B100026D01D4B984225D01C4B98421ED01C4815
:100B20001BE0402822D007D9802821D080235B00F9
:100B30009842F4D1114810E000280DD01028EED1D1
:100B400014480AE0A0231B06984205D0124B984295
:100B5000E5D1A020C00300E0002070470F48FCE76B
:100B60000F48FAE70F48F8E70448F6E70E48F4E7BD
:100B70000E48F2E7A420C003EFE7C046060052008B
:100B8000010000F0040000F0050000F0030000F098
:100B9000FF00520001005000090000A001005200B7
:100BA00002005200030052000200500005005200F3
:100BB00010B50E4B1C682E23E35C002B00D101BE48
:100BC000B023E358226A944663441B68002B0ADB77
:100BD000074B1868FFF792FF6268012393609368E0
:100BE000002BFCD110BD0348FCE7C0466808040890
:100BF000AC07040802005000F0B5CE46474680B569
:100C00008146002800D114E1002A00D113E1072910
:100C100000D901BE1368012B00D901BE56680F240C
:100C20003500A54300D001BE147A1F25AC4300D087
:100C300001BED068032800D901BE1069012800D97F
:100C400001BE5069012800D901BE9069012800D970
:100C500001BED069032800D901BE106A012800D95D
:100C600001BE506A012800D901BE906A012800D94E
:100C700001BED06A032800D901BE106B072800D935
:100C800001BE072900D901BE012B00D901BE002BEE
:100C900000D0BEE001338B4048464360072900D9AD
:100CA00001BE0F2334009C4300D001BE8F00634B74
:100CB0001C687923E55C4D442C686A3B1800B840F9
:100CC00084433340BB4023432B60177A072900D964
:100CD00001BE1F233800984300D001BE574B1C684B
:100CE000A3694846C31ADB0964691B01E318032999
:100CF00000D893E00C1F5D68E4001F26A640B543B2
:100D00001F263E40A64034002C435C60D3689C46BE
:100D1000082900D901BE6346032B00D901BE4C004F
:100D2000464B1E687823F75C4F443D68753B1800BE
:100D3000A040854360460340A3402B433B601369BA
:100D40009846082900D901BE4346012B00D901BEAF
:100D50004B469F6901252B008B409C46DB431F407F
:100D6000404605408D403D43484685615769072907
:100D700000D901BE012F00D901BE7A25755DA846B4
:100D8000C844404605681D4001231F408F403D4335
:100D9000056010208046A04403252C004046844076
:100DA000604620437B24375D4F443C688443906910
:100DB000184088400443D0690540404685402C4394
:100DC0003C607C24345D200048440468FF25AC432B
:100DD000166A3340566A770002263E403343966ACD
:100DE000B70004263E403343D66AF70018263E403B
:100DF0003343126B520115402B438900FE229200AF
:100E000011408B402343036000200CBC9046994660
:100E1000F0BD01238B40484683603FE71D68C80052
:100E20001F248440A5431F263E4086402E431E605B
:100E30006CE70348E9E70248E7E7C04668080408AA
:100E400001005A00084B1A68B023D3581B181B68BE
:100E5000002B01DB054870470B0C00D001BE0904D4
:100E6000090C41600020F6E76808040801008A00C8
:100E70000368002B05DB084B002B04D0064B180041
:100E800070470023F8E7C2600A0C00D001BE0904D5
:100E9000090C8160F3E7C04601008A00002909D0EF
:100EA000074B1A68B023D3581B181B68002B03DBB1
:100EB0000448704701BEF3E7C3680B600020F8E701
:100EC0006808040801008A00034B1B68002B00D04F
:100ED0007047014B1860FBE7C0070408F0B51B4CD6
:100EE0002568002D30D02C2460432818D3342700E7
:100EF0001F4007601D0A2C4044601B0C8360144D8A
:100F00002E682E25755DAF4200D301BE356AAC4612
:100F1000AC25755B7D43654405612F25755DAC424D
:100F200000D301BE80346401644444611D042B433A
:100F3000A360C261016200238361059B002B02D084
:100F400000229B5E8381F0BD01BECCE7C007040890
:100F500068080408F0B5C64600B58EB0041E48D037
:100F600063689C46032B00D901BEE36A9846002BB8
:100F700041D0236B002B40D007AA1300200062C889
:100F800062C322C822C302AD280023001433C2CB9F
:100F9000C2C042CB42C00821535E0CAE3380184B16
:100FA0001B689B8E6846808B1B18738063460D936D
:100FB0000B9B0A980096A26A4146FFF78FFF2B69A8
:100FC000E868002200920021FFF788FF216B3000C3
:100FD00000F04CFD0022B35E002B06DB1F22134005
:100FE0001E3A9A401300074A13600EB004BC9046A4
:100FF000F0BD01BEB4E701BEBBE701BEBCE7C04621
:101000006808040800E100E070B5002A17D01C4C05
:101010002568002D15D02C24604328184C432C192A
:10102000012529006668B14009044668B540006999
:10103000002823D0A669002E05D0124870BD01BE3D
:10104000E5E701BEE7E70668002E04DB0E4E002E42
:1010500003D00C48F2E70026F9E716683604360C90
:1010600031431160C2600122A26163622B0C00D087
:1010700001BE2D042D0C85600020DFE70348DDE76D
:10108000C007040807028A0001008A0004028A00DF
:1010900070B582B0040000230193002828D0206995
:1010A000002827D06369002B26D0226A002A25D089
:1010B000DD682A0C0AD012041A601B68204B1A68DB
:1010C000B023D3581B181B68002B19DB2D042D0CE3
:1010D0000AD063691D601B68636A002B2AD0984799
:1010E000002363620023A36163691B6802B070BDC3
:1010F00001BED4E701BED5E701BED6E701BED7E702
:1011000001A9FFF7CBFE00280ED101980268160C4A
:10111000FF231340E269934207D29B00226AD3580F
:10112000002B02D0984700E0002631002069FFF72D
:1011300089FECBE7A36A002BD4D09847D2E7C046FC
:101140006808040810B50200054B1B68002B05D089
:101150002C2050431818FFF79BFF10BD01BEF7E786
:10116000C007040870B50C00194B1B682E229A5C4E
:10117000824201D8174870BD002926D00A68D106DE
:1011800001D01448F7E71D6AAC215B5A58432D186B
:10119000114E3560D2080021606801F008FA002184
:1011A0002800FFF74FFE306822000021FFF760FEA5
:1011B000002801D00948DEE7074B18680021FFF737
:1011C00041FE0028D7D00548D5E70248D3E7C046FE
:1011D0006808040803018A00C407040801018A00A2
:1011E00010B5002A05D0002A1CD0002913D10E48C2
:1011F00010BD0029F7D10D4B1A682E23D35C9842FD
:1012000000D301BE136AAC21525A50431818084B40
:1012100018600020ECE7074B19605A601900FFF7CF
:10122000A1FFE5E70048E3E703018A006808040836
:10123000C4070408C8050408F0B583B00D001B4BB3
:101240001B68DC682368834203D8194C200003B074
:10125000F0BD46091F2318400127874000291BD0F5
:1012600000230193114B18680368002B18DB114B06
:10127000002B19D16268B300D3181A683A4211D012
:10128000BA431A6000240021FFF7DCFD002DDDD1F8
:10129000019800F0D6FED9E700F0CFFE0190E1E71B
:1012A0000023E5E7044CEEE7044CEFE7C40704082D
:1012B00004018A0001008A000201880003018800FD
:1012C0000A4B1B68DB681A6882420DD941091F224C
:1012D00010401E3A8240586889000B58134201D1D1
:1012E000034802E0034800E003487047C4070408CD
:1012F000000188000101880004018A0003681B05C1
:101300000CD5802282239B00C358DB05DB0D934262
:1013100006D090239B00C150012070474022F1E786
:101320000020FAE7F0B5DE4657464E464546E0B5A2
:1013300089B00392002800D185E1002900D184E121
:101340000B789A46022B00D901BE4E7BB31EDBB24E
:10135000062B00D901BE8D7B002D04D0022D02D0BA
:10136000032D00D001BE2123CB5C0493012B00D9B7
:1013700001BE2823CB5C0593012B00D901BE534647
:10138000012B09D98B7F002B0DD04B68013B062B1D
:1013900000D9A6E0002307E04C68083C0823A342DC
:1013A0009B415B4200E00023002B00D001BE8B6814
:1013B0005C1F042C00D901BE4A699046FF2A00D95F
:1013C00001BE8A699346FF2A00D901BE8F7C002F97
:1013D00006D05246002A02D1092B00D183E001BE7B
:1013E0004C6B220006949B4C224200D001BECA6B7B
:1013F0000792994C224200D001BE5246022A76D072
:101400004A68013A91460C7F002C76D08022520225
:101410009446082B74D880242401624622439446C3
:101420000F244A4614406246144380229204144317
:1014300004600A6B00920468220563D58024009A38
:10144000A24200D301BE8A6B0192046822055BD5DB
:101450008024019AA24200D301BE4A6A0292046823
:10146000220553D58024029AA24200D301BE5246DF
:101470001406C0229204144004644C7F002C47D010
:101480004024002F46D08027FF0027430C7C002CEF
:1014900042D08024640027434C7C002C3ED0802422
:1014A000A4002743CA6A9146541E2404F022120362
:1014B00014402743013E07243440A44627432D010E
:1014C000302425402F4387640C7B002C28D08027B4
:1014D0007F00CC7B002C27D15246022A22D0002448
:1014E00023E0012360E7002D00D179E777E78C7FC7
:1014F000002C85D10022914685E70022944688E79A
:1015000000248AE740249AE74024A2E74024AAE77F
:101510000024B6E70027B8E70024BCE70024C0E7B2
:101520000027D6E7013400E00124002C29D08024D4
:10153000A4003C43013B0F2633401C43C0229200D1
:101540008450FF244246224090465A461404FF220B
:101550001204144042461443C42292008450103AAC
:10156000845826400336B14502D34A46102A00D992
:1015700001BECC7F002C06D05246012A54D0002454
:1015800002E00024D5E70024002C4FD08024640022
:10159000624614432C4344643B435246012A47D0DD
:1015A00000273B438024A4000351FF23009A1340EB
:1015B0000534FF3403512023CB5C002B3BD0802328
:1015C0009B04049A012A38D000211943059B012B62
:1015D00036D000230B43FF21029C0C4023430365BC
:1015E000019B194081239B00C1501C4B069A1A4055
:1015F0001B4942501B4B079A1A401B494250039A01
:10160000002A24D00023536013609360D3601362D8
:10161000D3621363154B5363002009B03CBC904662
:101620009946A246AB46F0BD0124ADE70024AFE7E2
:1016300080277F02B5E70023C3E780214904C4E780
:1016400080235B02C6E70A48E7E70948E5E7002090
:10165000E3E7C04692F4FFFF8CF8FFFF6D0B00003C
:10166000C80F000073070000880F0000EFCDAB002B
:101670000160AA0003685B005B080360002904D0D6
:1016800000234B600B600B62CB627047014B186804
:101690007047C046CC070408A623DB000A4AD2588C
:1016A00003231340032B09D0A623DB00064AD2589C
:1016B00001231340022B03D0002070470223F9E7D7
:1016C000024B1868F9E7C04600002640C807040826
:1016D00002000C4B19683A23CB5C834200D801BE50
:1016E0001300D0339B0008495B580720184004289A
:1016F00000D07047C032920053581B300340E13095
:101700001843F6E7680804080000264010B5204B8F
:101710001A683A23D35C834200D801BEFFF7D8FF92
:10172000022814D00CD91223FF3398421CD0142362
:10173000FF33984220D0033B98420BD0002010BDCD
:10174000002823D00128F9D1FFF7A0FFF7E7FFF722
:10175000A3FFF4E70F4B104AD358002B01DB002006
:10176000EDE780200002EAE70C4B1B6904201840DB
:10177000E5D080200002E2E7094B074AD358002B4E
:1017800001DB0020DBE780200002D8E70548D6E730
:10179000680804080C0500000000264000002740EF
:1017A0003C05000000127A0010B5002832D01A491A
:1017B000B023DB00CB589A03920B026080225204C4
:1017C00013405A1E9341C371144BCB58DA04D20C08
:1017D00082801B0CDB05DB0D0381B123DB00CB58C2
:1017E0000F2214001C4084721C092240C2721A0A83
:1017F000D204D20C82811B0F032213408373084B47
:10180000CB58190A04320A4082711B0CDB05DB0D30
:10181000038210BD01BECAE7000026408405000017
:101820008C0500000138114B1A683B23D35C9842A9
:1018300001D30F4870478130FF3080000D4BC358F3
:101840007F221A400A70180A1F2210404870180C94
:1018500002408A70802212051A40501E8241CA70CE
:101860001B0F032213400B710020E3E768080408F4
:1018700001004A0000002640F0B587B004003E4B4E
:101880001A683A23D35C834200D801BE2000FFF7D8
:101890003DFF0500002C28D0374B1A683B23D35C52
:1018A0009C4243D90023002600270022002B19D098
:1018B00000232800002100F05DFD04000D0032002F
:1018C00000233800002100F055FD02000B00C9077D
:1018D00056080E435F08200029008019794100F066
:1018E00029FD0500280007B0F0BD1422002101A841
:1018F00000F05DFE01A8FFF757FFB023DB001F4A91
:10190000D358002B08DB002301A9019A8F88C979DD
:10191000002909D00226C9E701AB9B7B022B01D02D
:101920000123F1E70023EFE70126BFE705220021AD
:1019300001A800F03CFE01A92000FFF773FF013C65
:101940000D4B1A683B23D35C9C4200D301BE81340B
:10195000FF34A400094BE358002B05DB002301A949
:101960000A784F788E78A1E701AB1B79022B01D062
:101970000123F4E70023F2E768080408000026408A
:1019800010B5114B1A683C23D15C884200D301BECC
:101990000300E0339B000D4A9A58120903231340B9
:1019A00001249C40884200D301BEE0308000074BF8
:1019B000C3580F201840FFF75FFF6308C0182100CD
:1019C00000F042FB10BDC046680804080000264035
:1019D00030B5174B1B6828229A5C1F2A15D885083A
:1019E00007222C009443221E1ED103321040C00057
:1019F000FC3282401B682033AD005B191C688140BB
:101A000061401140614019600EE01A8F91420CD084
:101A10001A680723034080200006184380239B0197
:101A20009C4661448900885030BD01BEF0E7C04645
:101A3000680804080A4B9A680A4B9A4204D010308E
:101A40008000094BC0587047002906D003001033AE
:101A5000044A9B0098589950F5E701BEF6E7C04646
:101A600000ED00E00000040800040010F0B5CE46D0
:101A7000474680B583B0061E019150D04368032BC2
:101A800000D901BE0023F05E002829DB7188FFF732
:101A90009FFF00240022B35E7068002B22DB9908B0
:101AA000204FC0318900CA59944603221340DB00FD
:101AB000FC32914615009D406246AA431500800104
:101AC0004A4602409A402A43CA51174B9A68174B1C
:101AD0009A421ED0200003B00CBC90469946F0BD3F
:101AE000134CD7E79BB20F211940083989080631FA
:101AF00089000D4A8A18556803273B40DB00FF2107
:101B00000F009F40BD43800108409840284350602B
:101B1000DBE70023F05E0199FFF78CFFDAE7044C66
:101B2000D8E7C04600E100E000ED00E00000040856
:101B30000100560010B5040006E0084B186800F0DC
:101B400073FA074B9C46644480231B029C42F4D8E2
:101B5000044B1868604300F067FA10BD8C0004085D
:101B60000080FFFF90000408FEE7000010B50A4B5C
:101B70000268DA6142681A6282685A62C2689A62CE
:101B80000269DA6242691A6382695A63C2699A63B6
:101B9000FFF7EAFF10BDC046D005040870B584B059
:101BA00006000D00022804D9042802D0032800D022
:101BB00001BE6B1EDBB2012B04D9042D02D0082D0F
:101BC00000D001BEB300294A9C58042D1FD0012D1E
:101BD0001FD0022D34D1264B1C68002C33D0246931
:101BE00031E06469002C18D0224B984213D0A368CE
:101BF0002B42F6D1E3681A6802925B680193039363
:101C0000290002A823689847194B1C60E9E70020C7
:101C1000E8E70020E6E7012DE9D1012D01D004B06D
:101C200070BD144B984204D0B6000022124BF25003
:101C3000F5E7B6000E4B1A680F4BF250EFE71C00A9
:101C40006369002BFBD1002000E02469002CE6D062
:101C5000A3682B42F9D1E3681A6802925B6801938A
:101C60000393290002A823689847EEE710080408A8
:101C70000C080408FF004200F8070408002831D0CF
:101C8000194B1B681A68802159585118096801625C
:101C90008421595852181268426241229A5C002AE3
:101CA0001FD0E02299688A58D2061AD5DB68F22242
:101CB000D2019A580260F022D2019A5842600B4A2F
:101CC0009A5882600A4A9A58C2600A4A9A5802612F
:101CD000094A9A584261094A9A588261084A9B58AF
:101CE000C361704701BECBE76808040804780000B0
:101CF000087800000C7800001078000014780000CC
:101D000018780000002833D01A4B1B6880229A589C
:101D100019688C466244016A116084229A581968D5
:101D20008C466244416A116041229A5C002A1ED0AE
:101D3000E02299688A58D20619D5DB68F022D201D0
:101D4000416899500C4A816899500C4AC168995071
:101D50000B4A016999500B4A416999500A4A8169B5
:101D600099500A4AC16999500168E8329950704700
:101D700001BEC9E76808040804780000087800007C
:101D80000C7800001078000014780000187800002B
:101D9000F0B583B00600012800D901BEB0235B0571
:101DA0005B78002B1BD0B0235B055F78FFB26D4BD7
:101DB0005B68002B15D001210120FFF7EFFE050025
:101DC000002D10D0002D00D0BCE0664B5B68002BCE
:101DD00000D1C3E008210120FFF7E0FEBEE021278B
:101DE000E5E70025ECE700F028F901905D4B5B6822
:101DF000002B03D004210120FFF7D0FE5A4B1A68B4
:101E0000136AAC21515ACA00521A9B181A68002A48
:101E1000F4DADB68DA004ED4802080051843524B98
:101E20001A68116AAC23D75AFB00DB1BCB18D860A9
:101E3000002058605B68B0235B059B899BB2002B38
:101E400070D0B0235B059B899BB280204000834209
:101E50006BD02E23D35C002B00D101BEB023D3580E
:101E6000C9180B68002B66DB404A136904210B4339
:101E70001361012E5DD030BF3B4B1A68136AAC2151
:101E8000515ACA00521A9B181A68002AF4DADE68FE
:101E9000F30052D4364B1E40334B1A68136AAC2100
:101EA000515ACA00521A9B18DE6000225A600198EB
:101EB00000F0C7F886E71B0F1C072E48FFF7DEFE71
:101EC000212F18D0284B19688023C8580B689C46CE
:101ED00060440368284F3B40802252001343036054
:101EE0000B68842009585B18196839400A431A6046
:101EF000204B234390E71C4B19688023C8580B687C
:101F00009C46604403681C4F3B40902212011343DF
:101F100003600B68842009585B18196839400A432C
:101F20001A60E5E780235B008FE7300004F024FDB2
:101F3000A2E720BFA0E7114D9EE730010009FFF79F
:101F4000E1FEA7E7074B5B68002B03D002210120CD
:101F5000FFF724FE094B9D4200D0094D280003B035
:101F6000F0BDC046100804086808040800ED00E051
:101F7000FFFFFFDFD0070408FF00FFFF050042005E
:101F8000FF0042000749C02252008B589B009B086B
:101F90008020C00503438B50885880231B060343D1
:101FA0008B507047000026407047FFF7FDFF72B668
:101FB0000F4C104DAC4209DA21686268A368043BFB
:101FC00002DBC858D050FAE70C34F3E70A490B4A51
:101FD0000020521A02DD043A8850FCDC0848094906
:101FE0000860BFF34F8FFEF7E1FCFEF7FBFBFEE757
:101FF000146F00102C6F00100C0604087008040801
:102000000000040808ED00E0FEE7FEE700B504204C
:102010007146084202D0EFF3098001E0EFF3088037
:102020000430FFF7A3FDFEE70230800803D0013043
:102030000238FCD1C046C0467047EFF3108072B63C
:10204000704780F310887047002243088B4274D396
:1020500003098B425FD3030A8B4244D3030B8B42A9
:1020600028D3030C8B420DD3FF22090212BA030CB2
:102070008B4202D31212090265D0030B8B4219D393
:1020800000E0090AC30B8B4201D3CB03C01A5241B3
:10209000830B8B4201D38B03C01A5241430B8B42FB
:1020A00001D34B03C01A5241030B8B4201D30B03E4
:1020B000C01A5241C30A8B4201D3CB02C01A52410B
:1020C000830A8B4201D38B02C01A5241430A8B42CE
:1020D00001D34B02C01A5241030A8B4201D30B02B7
:1020E000C01A5241CDD2C3098B4201D3CB01C01AD1
:1020F000524183098B4201D38B01C01A52414309DB
:102100008B4201D34B01C01A524103098B4201D3C8
:102110000B01C01A5241C3088B4201D3CB00C01A35
:10212000524183088B4201D38B00C01A52414308AD
:102130008B4201D34B00C01A5241411A00D20146D2
:10214000524110467047FFE701B5002000F0F0F85B
:1021500002BDC0460029F7D076E7704703460B431F
:102160007FD4002243088B4274D303098B425FD390
:10217000030A8B4244D3030B8B4228D3030C8B42BC
:102180000DD3FF22090212BA030C8B4202D31212A2
:10219000090265D0030B8B4219D300E0090AC30B77
:1021A0008B4201D3CB03C01A5241830B8B4201D324
:1021B0008B03C01A5241430B8B4201D34B03C01A0D
:1021C0005241030B8B4201D30B03C01A5241C30A85
:1021D0008B4201D3CB02C01A5241830A8B4201D3F6
:1021E0008B02C01A5241430A8B4201D34B02C01AE0
:1021F0005241030A8B4201D30B02C01A5241CDD285
:10220000C3098B4201D3CB01C01A524183098B42CF
:1022100001D38B01C01A524143098B4201D34B01B8
:10222000C01A524103098B4201D30B01C01A52411B
:10223000C3088B4201D3CB00C01A524183088B42A2
:1022400001D38B00C01A524143088B4201D34B008B
:10225000C01A5241411A00D20146524110467047FD
:102260005DE0CA0F00D04942031000D34042534002
:1022700000229C4603098B422DD3030A8B4212D3C2
:10228000FC22890112BA030A8B420CD389019211F4
:102290008B4208D3890192118B4204D389013AD031
:1022A000921100E08909C3098B4201D3CB01C01A06
:1022B000524183098B4201D38B01C01A5241430919
:1022C0008B4201D34B01C01A524103098B4201D307
:1022D0000B01C01A5241C3088B4201D3CB00C01A74
:1022E000524183088B4201D38B00C01A5241D9D28C
:1022F00043088B4201D34B00C01A5241411A00D20D
:102300000146634652415B10104601D34042002B08
:1023100000D54942704763465B1000D3404201B587
:10232000002000F005F802BD0029F8D016E770473C
:102330007047C046002B11D1002A0FD1002900D1CF
:10234000002802D00021C943081C07B4024802A19A
:102350004018029003BDC046D9FFFFFF03B4684692
:1023600001B5029800F030F8019B9E4602B00CBC0B
:102370007047C046F0B5CE46474615042D0C2E00DA
:1023800080B50704140C3F0C9946030C7E435D4353
:10239000674363437F19340CE4199C46A54203D973
:1023A00080235B029846C4444B4651434343360462
:1023B000360C250C24046544A41959184919200029
:1023C0000CBC90469946F0BDF0B557464E46454682
:1023D000DE46E0B5040083B00D00924699468B427C
:1023E0002FD82CD04946504600F0CCF829000600E2
:1023F000200000F0C7F8331A9846203B9B4600D5D2
:1024000074E053465A4693401F0053464246934059
:102410001E00AF4229D826D05B46A41BBD41002B2D
:1024200000DA79E0002200230092019301235A464A
:1024300093400193012342469340009319E0824266
:10244000D0D900220023009201930C9B002B01D0D5
:102450001C605D600098019903B03CBC90469946B1
:10246000A246AB46F0BDA342D6D90022002300927B
:1024700001934346002BE8D0FB0772081A434646F7
:102480007B080EE0AB4201D1A2420CD8A41A9D41B8
:10249000012024196D410021013E24184D41002ED8
:1024A00006D0AB42EED9013E24196D41002EF8D181
:1024B0005B460098019900196941002B22DB2B0033
:1024C0005A46D3402A004446E2401C005B461500B1
:1024D000002B2CDB26009E40330026004746BE40E2
:1024E0003200801A994100900191AEE742462023C4
:1024F0009B1A5246DA40414613004A468A4017006A
:102500001F4382E7424620239B1A2A0046469A40F0
:102510002300F3401343D5E74246202300219B1AB2
:102520000022009101920122DA40019282E74246A4
:10253000202326009B1ADE402F00B44697406646B3
:102540003B003343C9E7C0461C2101231B049842CA
:1025500001D3000C10391B0A984201D3000A083934
:102560001B09984201D30009043902A2105C4018EB
:102570007047C0460403020201010101000000008F
:102580000000000010B5002903D1FFF7DDFF203067
:1025900002E0081CFFF7D8FF10BDC046002310B5AD
:1025A0009A4200D110BDCC5CC4540133F8E703005B
:1025B0008218934200D1704719700133F9E7F0B5E2
:1025C0008BB014001D1E129953DA802424061B19A7
:1025D0001D0014002D230B702023149E03229E4304
:1025E000462E07D03300453B59424B411099013AE2
:1025F000CB18109309AB049308AB0393139B009281
:102600000293109B220001932B0000F0EFFC0700C7
:10261000472E02D1119BDB0724D5109BFB18079393
:10262000462E14D13B78302B0CD100220023200001
:10263000290002F091FB002804D10123109A9B1A73
:10264000139A1360139B079A1B68D31807930022F1
:1026500000232000290002F07FFB302200280DD04B
:10266000079B09933800099B159ADB1B13600BB07D
:10267000F0BD0023AFE7591C09911A70099B079917
:102680009942F8D8EEE7F0B52B2385B007000C008F
:102690000270861C002901DA2D234C427B70092C24
:1026A00023DD02ABDD1D6B1E20000A210193FFF725
:1026B0003BFE6B1E3031197020000A21FFF74EFDE2
:1026C000040009280ADC023D30342C7002AB0733C9
:1026D0003000AB4204D8C01B05B0F0BD019DE2E75D
:1026E0002B78013533700136F0E73023E41833706E
:1026F000B01C7470EFE70000F0B595B00C000A92C2
:102700000B931A9D099001F031FB036818000D939B
:1027100000F0E0FB0023129323680E900C930C99B9
:10272000277E2B680722C90547D59B1893431A00BB
:1027300008322A601A685B68A264E3640122E56CCF
:10274000A66C6B005B080F935242A74B30000F99A9
:1027500004F00AF8002800D006E20122A24B5242FF
:1027600030000F9902F008FB002800D0FCE10022A5
:1027700000233000290002F0F5FA002803D02300DE
:102780002D2243331A70994D472F00D8984D0323BB
:1027900000260C9A236101339A4322600B9B13AAF3
:1027A000009321000A9B099800F0F2F9431C00D025
:1027B0009CE00120404215B0F0BD0733B6E780230E
:1027C0006268DB00511C45D1073262600C9A00211F
:1027D000134312AA059211AA0392232223600691A1
:1027E000019308A9636852180292009332002B00EB
:1027F00004970998FFF7E3FE20233A0005009A4367
:10280000472A07D1119BDA1C02DB626893425BDD29
:10281000023FFFB21199652F3BD8200001393A00E1
:1028200050301191FFF72FFF129A06008318236191
:10283000012A02DC2268D20701D501332361232358
:1028400008AA9B181B78002BA8D023002D22433305
:102850001A70A3E7672F01D0472FB7D1002A16D0EF
:102860000C9908A80B430021069112A9059111A902
:102870000391232109182360019300922B000497F0
:10288000029132000998FFF79AFE0500BAE701228B
:102890009BE7662F19D1636800290CDD2161002BAD
:1028A00002D12268D20702D501335B182361119B44
:1028B0000026A365C3E7002B03D101222168114242
:1028C00000D09A1C2261F2E76727119B129883427D
:1028D00005DB22682361D207E9D50133E6E701224F
:1028E000002B01DC9218D21A1218EBE7226853056C
:1028F00008D423692A000A9909980B9DA847431C0C
:1029000029D156E7652F00D8DCE0A06CE16C0022ED
:10291000002302F021FA002835D00123354A0A9914
:1029200009980B9DA847431C00D142E7119B129ABE
:10293000934202DB2368DB070DD50B9D0E9B0D9A9E
:102940000A990998A8470025431C00D131E7129B3A
:10295000013B9D420BDB236800259B0700D5FDE072
:10296000139BE068984200DB25E7180023E722006C
:1029700001231A320A9909980B9EB047431C00D1D3
:1029800017E70135E3E7119B002B35DC0123194ADA
:102990000A9909980B9EB047431C00D109E7119B87
:1029A000002B05D1129B002B02D12368DB07D2D567
:1029B0000B9E0E9B0D9A0A990998B0470026431C5E
:1029C00000D1F6E6119B5B429E4201DB129B91E730
:1029D000220001231A320A9909980B9FB847431C19
:1029E00000D1E6E60136EDE7FFFFEF7FC86B001090
:1029F000C46B0010D46B0010A36D129E9E4200DDCC
:102A00001E00002E35DC00230C93F343DB170F93DD
:102A10000F9BA76D0C9A3340FB1A9A4232DB119B35
:102A2000129A93423CDB2368DB0739D4129E119A39
:102A3000F31BB61A9E4200DD1E00002E39DCF74360
:102A40000025FB170C93119A129B0C999B1A3200CC
:102A50000A409B1A9D4200DB7DE7220001231A32C7
:102A60000A9909980B9FB847431C00D1A1E601358C
:102A7000E9E733002A000A9909980B9FB847431CDD
:102A8000C1D196E6220001231A320A9909980B9FB8
:102A9000B847431C00D18CE60C9B01330C93B7E77D
:102AA0000E9B0D9A0A9909980B9EB047431CBDD105
:102AB0007FE6EA1933000A9909980B9DA847431C41
:102AC000BDD176E6129B012B02DC01231A4238D0DD
:102AD00001232A000A9909980B9FB847431C00D18B
:102AE00067E60E9B0D9A0A9909980B9FB847431CFD
:102AF00000D15EE6A06CE16C0022002302F02CF90C
:102B0000002808D00025129B013B9D420DDB2200CE
:102B100033005032EFE6129B6A1C013B0A99099878
:102B20000B9DA847431CF2D143E6220001231A3231
:102B30000A9909980B9FB847431C00D139E6013523
:102B4000E1E72A00EAE72200012319320A990998ED
:102B50000B9EB047431C00D12BE60135E368139A66
:102B60009B1A9D42EFDBFBE632002B003000290070
:102B700003F0FAFD002800D121E6034D472F00D9CC
:102B800005E6024D03E6C046D06B0010CC6B00108A
:102B9000F7B5150001938A680B6900900C00934209
:102BA00000DA130022002B6043321278002A01D091
:102BB00001332B6023689B0602D52B6802332B6000
:102BC000062723681F4027D0230043331B785A1E53
:102BD00093412268920630D4220001994332009832
:102BE000089EB047431C25D0062320682A68E16868
:102BF00003400025042B03D18D1AEB43DB171D4046
:102C0000A3682269934201DD9B1AED180027BD429B
:102C100020D1002010E00137E3682A689B1A9F4208
:102C2000D2DA22000123193201990098089EB04798
:102C3000431CF0D101204042FEBD3020E118433159
:102C4000087021005A1C45310978A218433202331A
:102C50001170C1E7220001231A3201990098089EE1
:102C6000B047431CE6D00137D1E70000F0B58BB088
:102C700006920A0043320793059004920A7E0C00E4
:102C8000109B6E2A00D18FE017D8632A2CD008D869
:102C9000002A00D199E0582A54D0260042363270DA
:102CA00029E0642A01D0692AF7D121681A68080648
:102CB00023D5111D1960156825E0732A00D188E01D
:102CC00008D86F2A29D0702AE7D1202209680A4340
:102CD000226003E0752A20D0782ADED122007821F4
:102CE000453211706C4A30E00E001A684236111DF0
:102CF000196013683370012379E04906D9D5111D95
:102D000019600023D55E002D03DA2D23049A6D424D
:102D10001370624B0A2703932FE020681968050699
:102D200003D5081D18600D6805E04006F9D50D684B
:102D3000081D1860ADB2594B082703936F2A18D0AD
:102D40000A2716E045310A70544A03921A6821682E
:102D5000101D18601568080622D5CB0702D5202360
:102D6000194321601027002D03D1202322689A43A4
:102D700022602300002243331A706368A360002B93
:102D80005CDB0422216891432160002D58D1049E10
:102D9000002B64D02600039B42361B7833705EE024
:102DA0004806DAD5ADB2D8E709681A68080605D52D
:102DB000111D1960136862691A6006E04906F7D5AB
:102DC000111D19601368A28A1A800023049E2361D2
:102DD00054E01A68111D19601668002162683000FD
:102DE00000F0ECFF002801D0801B60606368236165
:102DF0000023049A137041E0236932000699059874
:102E0000079DA847431C43D0236800259B070FD488
:102E1000099BE06898423DDA18003BE0220001235C
:102E2000193206990598079EB047431C30D00135EA
:102E3000E368099A9B1A9D42F0DBE9E7002DA9D0CF
:102E4000049E28003900FFF785F9039B013E5B5C77
:102E5000280033703900FFF7F7F8051EF1D1082F6D
:102E600009D12368DB0706D563682269934202DC37
:102E70003023013E3370049B9B1B2361079B09AAEF
:102E800000932100069B0598FFF782FE431CB3D1F7
:102E9000012040420BB0F0BDE76B0010D66B001074
:102EA0000FB40B4B13B51C68002C05D0A369002B85
:102EB00002D1200000F0C4FE05AB049AA1682000F6
:102EC000019301F047FB16BC08BC04B01847C0468C
:102ED000980004080023C25C0133002AFBD1581E6D
:102EE0007047F0B503690C6989B0070005910026A9
:102EF0009C426DDC0B00013C1433A50003935B196D
:102F000004930300143302935D19049B28681B6823
:102F1000591C0193FFF798F80190B0422DD0039B04
:102F200002989C460696624608CA9446019A99B24F
:102F300051431B0C534389190A0C9B1807930288B1
:102F40001E0C069B89B2D2180368521A190C6B46E4
:102F50009B8BCB1A11145B18191492B21B041A43E1
:102F6000049B069104C06345DDD22B68002B04D17D
:102F7000029B043DAB422ED33C610599380001F021
:102F80003AF9002823DB0025019B029801330399BD
:102F9000019308C9028855199AB2AA1A05681B0C30
:102FA0002D0CEB1A15145B191D1492B21B0413435C
:102FB00008C0049B8B42ECD2029AA300D3181A6873
:102FC000002A04D1029A043B9A4209D33C61019E33
:102FD000300009B0F0BD2B68002BCDD1013CC7E714
:102FE0001A68002AF2D1013CECE70000F0B51600A7
:102FF0001F00446A9DB00490259D06960797002CFB
:1030000008D1102000F0BEFE049B5862446084602A
:103010000460C460049B5B6A196800290BD05A687D
:10302000012393404A608B60049800F00AFF00225D
:10303000049B5B6A1A60079B002B1FDA01232B603D
:103040007B005B080793079CB74B220019931A403B
:103050009A4216D1B54B249A1360069B002B03D1DC
:10306000240301D100F091FDB14B269A0A93B14B94
:10307000002A01D000F08FFD00F08FFD00232B60AF
:10308000E1E7069E079F002200233000390001F08F
:1030900063FE051E0ED00123249A1360A64B269AC8
:1030A0000A93002A01D100F078FDA44A26990A600B
:1030B00000F073FD1AAB01931BAB009332003B0091
:1030C000049801F015F9630005905B0D00D17FE0D5
:1030D0003A039B4C120B144321009A4A3000189576
:1030E0009E180022984B03F029F8984A984B02F05A
:1030F000A5FD984A984B01F05DFE040030000D00DC
:1031000003F086FB954A964B02F098FD02000B00F7
:103110002000290001F04EFE04000D0003F044FBE6
:103120000022039000232000290001F01BFE00284C
:103130000ED0039803F06CFB0B0002002900200066
:1031400001F00AFE030058425841039B1B1A0393E7
:1031500001231693039B162B0FD88249DB00C91855
:1031600008684968069A079B01F010FE00284BD0BA
:10317000039B013B0393002316931A9B9E1B002382
:103180000B933300013B0C9304D501239B1B0B9342
:1031900000230C93039B002B38DB039A0C9B944673
:1031A00063440C9300230F920893229B0125092B63
:1031B00000D991E0052B02DD0025043B2293229BE0
:1031C000981E032800D991E001F0ACFD8284297695
:1031D0001A9B1B9A9E18644BF218202A0FDD634B32
:1031E0000698F318D84040239B1A9C40204303F0D4
:1031F00051FB01235E4C013E0919189371E720230E
:1032000006989B1A9840F2E71690B6E70B9B039A34
:103210009B1A0B935342089300230F93C5E7012396
:103220000E93239B002B65DD1F000D93049A546AB7
:103230000022626004321100143199425FD9616842
:10324000049800F0C6FD049B20605B6A1B680A932B
:103250000E2F00D905E1002D00D102E1069B079C4D
:1032600014931594039B002B00DC85E01A000F21BA
:103270003C4B0A40D2009B185C681B681093119469
:10328000039B02241D11EB060AD53A4B0D401A6A26
:103290005B6A1498159902F09DF806900791013425
:1032A000344E002D30D1109A119B0698079902F0E8
:1032B00091F8069007917AE00123239A0E939446A1
:1032C000039B63445F1C0D933B1EAFDC0123ADE702
:1032D0000023A5E70023F0E700230E952293013B8E
:1032E00000220D931F00133323929FE701230E93B7
:1032F000023BF5E701230D931F001A00F4E7616814
:1033000052000131616096E701231D4208D01098F8
:103310001199E4183268736802F090FC10901191D2
:103320006D100836BDE7C0460000F07F0F27000093
:10333000016C0010046C0010D46B0010D56B0010F1
:103340000000F03F01FCFFFF0000F83F61436F63A6
:10335000A787D23FB3C8608B288AC63FFB799F50AE
:103360001344D33FA06C001032040000120400008C
:10337000000010FE786C0010039B0224002B16D076
:10338000149815995D420F23CA4A2B40DB00D318CD
:103390001A685B6802F052FC002306900791C64E43
:1033A0002D11002D00D08CE0002B00D081E7169B62
:1033B000002B00D191E0069A079B10921193109870
:1033C00011990022BD4B01F0CDFC002800D184E012
:1033D000002F00D181E00D9B002B3EDD109811994C
:1033E000039B00225E1EB64B02F028FC069007915C
:1033F0000D9D0134200003F00BFA069A079B02F0A2
:103400001DFC0022AF4B01F0D5FC12901391129BD2
:10341000139CAD4A10931194139B9C181194002D8A
:103420005ED1069807990022A84B02F087FE109AF9
:1034300023000690079101F0A9FC002800D001E3C9
:10344000A3481399844661440B0006980799109A83
:1034500001F088FC002800D0E8E2149B159C06933C
:1034600007941B9B002B00DA57E1039A0E2A00DD1C
:1034700053E1904BD2009B185C681B680893099439
:10348000239B002B00DBCEE0002F00DDCBE000D043
:10349000CFE20898099900228C4B02F0CFFB069AE4
:1034A000079B01F07DFC3E000897002800D0A4E2B5
:1034B0000A9B0A9A5D1C31231370039B013303930B
:1034C0009FE20122154205D0A4183268736802F009
:1034D000B5FB01236D10083663E7039E3D0089E7C5
:1034E0000A9A691E521917920E9A724BC900002A45
:1034F0004AD05B181A685B680020764901F06AFFC1
:10350000109A119B02F01AFE0A9B109011911293CF
:103510000698079903F048F9040003F079F90200CE
:103520000B000698079902F009FE129B30345D1CCF
:103530001C70109A119B0690079101F013FC002853
:1035400065D1069A079B00205C4902F0F7FD109AAE
:10355000119B01F007FC002800D0BEE0179B9D42A4
:1035600000D17AE7109811990022554B02F066FBC2
:1035700000221090119106980799514B02F05EFBC2
:10358000129506900791C3E7591808684968109A80
:10359000119B02F053FB109011910A9C179D069805
:1035A000079903F001F9129003F032F902000B00C1
:1035B0000698079902F0C2FD129B069007913033DE
:1035C0002370179B01340022A34224D1414B109851
:1035D000119901F0EFFB02000B000698079901F02A
:1035E000D5FB002800D078E0109A119B00203949C3
:1035F00002F0A4FD02000B000698079901F0B2FB4F
:10360000002800D129E76B1E1A78302A01D00396D2
:103610003FE01D00F7E706980799294B02F00EFBE3
:1036200006900791BBE70A9E089A099B069807999E
:1036300001F0D0FE03F0B8F8040003F0E9F8089AAE
:10364000099B02F0FBFA0B0002000698079902F0B2
:1036500075FD2300303333700A9B751CEB1A9F42B3
:103660004CD102000B0001F0A5FB06000F00020088
:103670000B000898099901F075FB00282CD10898D7
:10368000099932003B0001F067FB002801D0E307F5
:1036900022D40599049800F0D4FB00232B70039BDF
:1036A000249A01331360269B002B00D175E21D6024
:1036B00073E2C046A06C0010786C00100000F03F70
:1036C0000000244000001C400000C0FC000014402A
:1036D0000000C07C0000E03F039E6B1E1A78392A70
:1036E00006D10A9A9A4207D130231370130001368B
:1036F0001A7801321A708AE71D00EEE70022CF4BDC
:1037000002F09CFA00220023069007912E0001F09F
:1037100023FB002800D187E7BBE70E9A002A00D1DF
:1037200087E0229A012A6EDC189A002A67D0C44AE0
:103730009B18089D0B9C0B9A0121D2180B920C9A96
:103740000498D3180C9300F01AFC0600002C0EDD30
:103750000C9B002B0BDD0C9A2300944200DD130020
:103760000B9AE41AD21A0B920C9AD31A0C93089B58
:10377000002B1ED00E9B002B5FD0002D11DD3100E1
:103780002A00049800F094FC059A010006000498B1
:1037900000F0FEFB05991090049800F052FB109B7E
:1037A0000593089B5A1B04D00599049800F080FCEF
:1037B00005900121049800F0E2FB0F9B0890002B7C
:1037C0003DDD1A000100049800F072FC229B089075
:1037D0000025012B3BDC0025069BAB4233D1079B28
:1037E0001B03AB422FD1199B079A13422BD00B9B83
:1037F000013501330B930C9B01330C9323E03623EB
:103800001A9A9B1A95E7089B7D1EAB4206DB5D1B4F
:10381000002F0BDA0B9BDC1B00238CE7089B089521
:10382000EA1A0F9B00259B180F93F1E70B9C3B00B6
:1038300081E7089D0B9C0E9E88E7089AB4E7229BBF
:103840000025012BC7DD0F9B0120002B0BD0089B0F
:10385000089A1B690F9303339B00D318586800F034
:1038600045FB2023181A0C9BC0181F23184000D1B9
:10387000ABE001331B1A042B00DC9BE01C23181A5D
:103880000B9B24181B180B930C9B1B180C930B9B66
:10389000002B05DD1A000599049800F05BFC0590EB
:1038A0000C9B002B05DD1A000899049800F052FCCF
:1038B0000890169B002B00D189E00899059800F02C
:1038C0009AFC002800DB82E0039B0A22013B039361
:1038D00005990023049800F0CDFA0E9B0590002B6B
:1038E00000D15DE1002331000A22049800F0C2FA01
:1038F0000D9B0600002B02DC229B022B6DDC002CB2
:1039000005DD31002200049800F024FC06003000A0
:10391000002D11D07168049800F05BFA31000400AA
:1039200033690C319A1C92000C30FEF737FE0122ED
:103930002100049800F00EFC0D9F0A9B013F0B93A1
:10394000DB19370006000F9308990598FFF7C9FAAD
:1039500039000D900400059800F04DFC32000E90E7
:103960000899049800F060FC01230C93C36830347C
:103970000500002B04D10100059800F03CFC0C90E0
:103980002900049800F05DFA0C9B229A134300D0A2
:1039900089E0069A0133134200D084E0392C00D12B
:1039A000A3E00E9B002B01DD0D9C31340B9B5D1CB5
:1039B0001C7027E0042B00D169E70B9A1C33D21846
:1039C0000B920C9AE418D31860E70300F5E7002F78
:1039D0003CDC229B022B39DD0D970D9B002B0CD17B
:1039E00008990522049800F045FA0890010005980E
:1039F00000F001FC002800DD5AE5239B0A9DDB4313
:103A0000039300270899049800F01BFA002E00D1B8
:103A10003FE6002F05D0B74203D03900049800F0EC
:103A200010FA3100049800F00CFA32E608952E00E6
:103A3000E3E7002308931E00DFE7C04600002440B0
:103A400033040000039608952E0031E50E9B0D9778
:103A5000002B00D053E70A9D08990598FFF741FA1B
:103A60000A9B30300D9A287001350400EB1A9A42F7
:103A700078DC151E00DC012500270A9B5D190599DD
:103A80000122049800F066FB0899059000F0B3FB52
:103A900000282FDC01D1E3072CD46B1E1A78302AC2
:103AA000B0D11D00F9E70E9B002B07DB1D00229B08
:103AB0001D4326D10123069A134222D10C9B002BD1
:103AC00000DC73E705990122049800F043FB089994
:103AD000059000F090FB002804DC00D066E7E307C7
:103AE00000D463E7392C00D05EE70B9B0B9A5D1C7A
:103AF000392313706B1E1A78392A3BD001321A70A1
:103B000080E70B9B01330D930C9B002B05DD392CBB
:103B1000EBD00D9D01340B9B4AE70B9B0F9A0D9D3B
:103B20001C709342ABD000230A220599049800F040
:103B3000A1F9002305900A2239000498B74206D162
:103B400000F098F9070006000D9B0B93FCE600F0CF
:103B500091F93100070000230A22049800F08AF945
:103B60000600F1E700230A220599049800F082F983
:103B7000059071E70A9A9A4205D1039B013303939A
:103B8000312313703EE71D00B4E70A4B269A0A93CF
:103B9000094B002A01D0269A13600A981DB0F0BD87
:103BA0000D9B002B00DD56E7229B022B00DC52E729
:103BB00013E7C046F86B0010006C001010B5024906
:103BC00000F0B2F810BDC046594B0010002310B5EC
:103BD000040003604360836081814366C2810361A6
:103BE00043618361190008225C30FEF7E0FC054B5D
:103BF00024626362044BA362044BE362044B2363BD
:103C000010BDC046B1470010D94700101148001040
:103C10003D48001070B568254A1E55430E00290026
:103C2000743100F011FC041E08D000212A0001604C
:103C300046600C30A0606832FEF7B9FC200070BD11
:103C4000836913B50400002B28D18364C364036522
:103C5000134B144A1B6882620193984201D10123DD
:103C60008361200000F020F86060200000F01CF864
:103C7000A060200000F018F80022E06004216068D5
:103C8000FFF7A4FF01220921A068FFF79FFF02228E
:103C90001221E068FFF79AFF0123A36113BDC0461C
:103CA000C06B0010BD3B0010F8B51E4B07001E682E
:103CB000B369002B02D13000FFF7C2FF4836B46869
:103CC0007368013B04D53368002B07D03668F6E7EC
:103CD0000C22A55E002D0DD06834F2E704213800D7
:103CE000FFF798FF30600028F0D10C2304003B6000
:103CF0002000F8BD012320005B42E3810233A38151
:103D000065662560A560656025616561A56108221D
:103D100029005C30FEF74BFC6563A563A564E56490
:103D2000E6E7C046C06B0010F7B5040007000026A8
:103D300001914834002C01D13000FEBD6368A568B4
:103D40000093009B013B009301D52468F2E7AB8907
:103D5000012B08D90E22AB5E013304D029003800B4
:103D6000019B984706436835EBE70000034B1B684F
:103D7000186A002800D10248F03070479800040803
:103D8000FC00040810B5034B0100186800F05CFB50
:103D900010BDC0469800040882B0002900D101A9D6
:103DA000101E06D0002B06D013780B601078431E2F
:103DB000984102B0704702204042FAE7C9B2821827
:103DC000904201D10020704703788B42FBD0013034
:103DD000F6E770B5466A04000D00002E07D11020EA
:103DE000FFF7D0FF6062466086600660C660666A64
:103DF000F368002B13D0636AAA00DB689B1818686D
:103E0000002818D101210E00AE40721D9200200042
:103E100000F0C2FA00280CD0456086600DE0212237
:103E20000421200000F0B8FA636AF060DB68002B20
:103E3000E1D1002070BD02681A6000230361C360F5
:103E4000F8E770B5446A06000D00002C07D1102079
:103E5000FFF798FF7062446084600460C460002DC6
:103E600007D0736A6A68DB6892009B181A682A6038
:103E70001D6070BDF7B51E0014239C4607000C00A2
:103E800000200D698C44634619881B6851431B0C44
:103E9000534389190E0C9B1989B21E0C1B045B1825
:103EA0006146013008C18C468542ECDC002E1BD0F7
:103EB000A3689D4212DB63683800591CFFF789FF35
:103EC0002100236901909A1C92000C310C30FEF7FE
:103ED00065FB21003800FFF7B4FF019C2B1D9B0000
:103EE000E31801355E6025612000FEBD0300020C71
:103EF0000020824201D11B0410301A0E01D108307B
:103F00001B021A0F01D104301B019A0F01D102309C
:103F10009B00002B03DB01305B0000D420207047A6
:103F20000722036810B501001A400DD001240020BB
:103F3000234205D10230034203D0E34020000B604E
:103F400010BD9B080B60FBE79CB21000002C01D158
:103F500010201B0CDAB2002A01D108301B0A1A0704
:103F600001D104301B099A0701D102309B08DA07FE
:103F7000E8D45B0801D00130E4E72020E0E710B589
:103F80000C000121FFF725FF01234461036110BDEF
:103F9000F0B50B691500126989B00C00934201DA83
:103FA0002C000D0027692E69A268BB196168019376
:103FB000934200DD0131FFF70CFF0300143300933F
:103FC000009ABB1994469B009C4413000022049065
:103FD00063451CD32A001434BF00E3191432B60021
:103FE0000593931902940693069B9A4211D3019B61
:103FF000002B06DD04235B429C4463461B68002BB8
:1040000051D0049B019A18001A6109B0F0BD04C395
:10401000DEE71488002C1ED00026009D029F01CFF1
:10402000079508CD039383B2634319006B46000CD8
:104030009B896043CB1803999B19090C4118180CF4
:1040400009180E0C9BB209040B4307990B60059BE2
:10405000BB42E4D82E6013681B0C03931ED00026CD
:10406000009B029C1B68009807002188039D9BB25F
:10407000694320C82D0C49198E1931040B433B604C
:1040800008CC03991B0C4B437968360C89B25B183A
:1040900005999B191E0CA142E6D80360009B0432CF
:1040A00004330093A0E7019B013B01939FE70000CD
:1040B0000323F7B5134005000E001400002B08D0B1
:1040C0002249013B9A00525800233100FFF7D2FEEB
:1040D0000600A310019336D06C6A002C07D1102083
:1040E000FFF750FE6862446084600460C4606F6AD9
:1040F000BC68002C07D116492800FFF740FF0023B9
:104100000400B86003600122019B13420AD0310011
:1041100022002800FFF73CFF070031002800FFF7CE
:1041200090FE3E00019B5B1001930CD0206800289C
:1041300007D1220021002800FFF72AFF002320607A
:1041400003600400DFE73000FEBDC046686D00106C
:1041500071020000F0B50D0017002B69541185B0F5
:10416000E3180293013301934968AB680390019A05
:10417000934234DB0398FFF72CFE00230200060075
:1041800019001432A3422DDBE343DB171C402B0044
:104190001F21A40014192A69143392009A180F40A1
:1041A00024D00131C91B8C4600211868B840014356
:1041B0006046216002CB0434C1409A42F5D82160A8
:1041C000002902D0029B02330193019B0398013B1B
:1041D00033612900FFF735FE300005B0F0BD013135
:1041E0005B00C4E7980011500133CBE702CB02C457
:1041F0009A42FBD8E9E70A69036930B59B1A0ED1E8
:1042000092001430143184188918043C043922684F
:104210000D68AA4205D0AA42924101231343180017
:1042200030BDA042F1D3FAE7F0B50D0085B007002C
:10423000110028001400FFF7DEFF061E08D1010060
:104240003800FFF7C6FD01234661036105B0F0BDEC
:1042500001230193002804DB23002C001D00002310
:10426000019361683800FFF7B4FD2F000022019B25
:104270002669C3601434B300E31802932B69143722
:104280009B00FB18039303009446143320CC04CF07
:104290000192AAB294446A46614692882D0C8A1A09
:1042A0000199090C691A151449190D1492B20904DF
:1042B0000A431A60039AAC460433BA42E6D802991C
:1042C0001A008C4205D3043A1368002B0ED0066105
:1042D000BCE704CC91B261440D14120C52191514B0
:1042E00089B212040A43AC4604C3E8E7013EEAE798
:1042F000F7B51D000121089F1400FFF76AFD2B038D
:104300006D0006001B0B6D0D24D10193002C27D0EE
:1043100068460094FFF704FE009C00281ED0019B15
:1043200020211A00091A8A40C34022437261019376
:10433000019CB461631E9C4101343461002D18D08E
:10434000124BED1835232D183D60181A099B186083
:104350003000FEBD802252031343D6E77461E7E7C5
:1043600001A8FFF7DDFD0124019B3461736120305A
:10437000E4E7074BC018074B3860E3189B00F318BD
:104380005869FFF7B3FD6401201ADFE7CDFBFFFF9B
:10439000CEFBFFFFFFFFFF3F4A4370B51100140043
:1043A00000F052F8051E03D022000021FEF7FFF8AE
:1043B000280070BD70B50500002910D00C1F2368BF
:1043C000002B00DAE418280000F072FC1D4A136884
:1043D000002B05D163601460280000F06AFC70BDFA
:1043E000A34209D9216860188342F3D118685B6839
:1043F00041182160EEE713005A68002A01D0A2425A
:10440000F9D919685818A0420BD120680918581812
:1044100019608242E0D110685268411819605A60F0
:10442000DAE7A04202D90C232B60D5E72168601897
:10443000824203D1106852684118216062605C605A
:10444000CAE7C04624080408032370B5CD1C9D4369
:10445000083506000C2D1ED20C25A9421DD83000AF
:1044600000F026FC254A14682100002919D1244CAB
:104470002368002B03D1300000F088F92060290068
:10448000300000F083F9431C2CD10C233000336042
:1044900000F00FFC03E0002DDFDA0C233360002076
:1044A00070BD0B685B1B1AD40B2B03D90B60CC18A7
:1044B000256003E08C420ED163681360300000F089
:1044C000F8FB200007220B30231D9043C31AE7D0CE
:1044D0005A42E250E4E74B6863600C00EEE70C00E0
:1044E0004968C2E70323C41C9C43A042E0D0211AC0
:1044F000300000F04BF9431CDAD1C6E72408040869
:1045000028080408936810B5013B9360002B05DA76
:104510009469A34208DBCBB20A2B05D01368581C60
:1045200010601970C8B210BD00F08EF9FBE7F8B545
:1045300006000F001400D518AC4201D1002007E09E
:1045400021783A003000FFF7DDFF0134431CF3D13E
:10455000F8BD0000F0B59FB006000F0014000593F1
:10456000002804D08369002B01D1FFF769FB7F4B42
:104570009F425CD17768BB891B0762D53B69002BE2
:104580005FD0002306AD6B6120336B761033AB76C2
:104590000294029C2378002B5DD1029BE31A0493C2
:1045A0000DD0049B029A39003000FFF7C0FF431C76
:1045B00000D1CCE06A69049B944663446B61237824
:1045C000002B00D1C3E00122002352426A6002A9FD
:1045D0005432521801342B60EB60AB601370AB6542
:1045E000217805226248FFF7E9FB631C9C460028FE
:1045F00035D12968CB0604D5532302AA20309B1855
:1046000018700B0704D553232B2002AA9B1818708F
:1046100023782A2B2CD000200A21099B2278303ABB
:10462000092A00D86BE000282AD0099328E0514BD2
:104630009F4201D1B7689EE74F4B9F429BD1F768DD
:1046400099E73900300000F075F9002899D0012071
:1046500040421FB0F0BD252B9FD001349AE7444B58
:104660002968C01A012383400B432B606446B7E7D7
:10467000059B181D1B680590002B3ADB09936446C7
:1046800023782E2B0BD16378621C2A2B3FD1059BFC
:1046900002341A1D1B680592002B35DB0793217825
:1046A00003223648FFF78AFB002807D0334B2A68DD
:1046B000C01A4023834013432B6001342178631CCC
:1046C00006222F4802932976FFF778FB002844D072
:1046D0002C4B002B2FD12968059B0722C90528D513
:1046E0009B189343083305936B69039A9B186B617E
:1046F0004FE75B42EB6002230B432B60BFE74B436A
:1047000001349B18012089E701235B42C6E700239F
:1047100014000A201A006B6021783039092903D966
:10472000002BBCD00792BAE7424301345218012350
:10473000F2E70733D5E705AB00933A00124B2900A7
:104740003000FDF7D9FF0390039B0133CCD1BB8927
:104750005B0600D57BE70B987BE705AB00933A003F
:10476000094B29003000FEF781FAECE7286C0010B5
:10477000746D0010486C0010086C00107A6D001009
:104780007E6D0010F92600102F450010002370B533
:10479000064C05000800236002F0D4F8431C03D146
:1047A0002368002B00D02B6070BDC0466C08040845
:1047B00070B50C000E25495F00F07CFA002803DB81
:1047C000636D1B18636570BDA389024A1340A38102
:1047D000F9E7C046FFEFFFFFF8B51F008B89050022
:1047E0000C001600DB0505D50E23C95E002202234E
:1047F00000F0DEF9A389054A28001340A3813200A6
:104800000E23E15E3B0000F081F8F8BDFFEFFFFFF3
:1048100070B50C000E25495F00F0CAF9A389421C4F
:1048200003D1054A1340A38170BD80225201134376
:10483000A3816065F8E7C046FFEFFFFF10B50E23C8
:10484000C95E00F0EDF810BDF8B505000E001400CB
:10485000002804D08369002B01D1FFF7F1F9224B26
:104860009C422DD16C68A369A360A3891B0731D535
:104870002369002B2ED023682269F7B2981A636946
:10488000F6B2984205DB2100280000F065F9002807
:1048900026D1A3680130013BA36023685A1C226023
:1048A0001F706369984204D0A389DB071AD50A2ECA
:1048B00018D12100280000F04FF9002812D00FE095
:1048C0000A4B9C4201D1AC68CDE7094B9C42CAD14E
:1048D000EC68C8E72100280000F02CF80028CAD0B6
:1048E000012676423000F8BD286C0010486C00109C
:1048F000086C00100B1E04D0FF2A04D98A23036021
:104900008B3B180070470A700123FAE770B5050069
:10491000080011000022064C22601A00FBF768FE16
:10492000431C03D12368002B00D02B6070BDC04610
:104930006C080408364B70B51D6806000C00002D8D
:1049400005D0AB69002B02D12800FFF779F9314B74
:104950009C420FD16C680C23E25E93B219072DD4F0
:10496000D90611D409230120336037331343A381BF
:10497000404270BD284B9C4201D1AC68EBE7274B0D
:104980009C42E8D1EC68E6E75B0713D5616B002930
:1049900008D023004433994202D03000FFF70AFDCB
:1049A000002363632422A3899343A38100236360CC
:1049B000236923600823A2891343A3812369002B61
:1049C0000BD1A0218022A389890092000B40934241
:1049D00003D02100300000F027F90123A289134001
:1049E00011D00023A36063695B42A36100202369A7
:1049F0008342BED10C23E25E1306BAD54023134393
:104A0000A3810138B5E7920700D46369A360EDE79D
:104A100098000408286C0010486C0010086C001006
:104A2000002370B5064C05000800236001F06AFF02
:104A3000431C03D12368002B00D02B6070BDC046FF
:104A40006C080408F7B58A8905000C00130760D4C8
:104A50004B68002B04DC0B6C002B01DC0020FEBD3E
:104A6000E76A002FFAD000232E682B6080235B01B9
:104A70001A4034D0606DA3895B0706D56368C01AFD
:104A8000636B002B01D0236CC01A0200216A002343
:104A90002800E76AB847A189431C06D12B681D2B63
:104AA00031D82C4ADA40D3072DD50023636023691F
:104AB0002360CB0405D5431C02D12B68002B00D109
:104AC0006065616B2E600029C8D023004433994291
:104AD00002D02800FFF76EFC00206063BFE70123CF
:104AE000216A2800B847431CC5D12B68002BC2D0CF
:104AF0001D2B01D0162B01D12E60AFE74023A289D8
:104B00001343A381ABE740230B430120A381404221
:104B1000A5E70F69002FA1D00B680F60DB1B019385
:104B20000023920700D14B69A360019B002B00DC9E
:104B300094E7019B3A00216A2800A66AB047002842
:104B400003DC4023A2891343DFE7019B3F181B1AB4
:104B50000193EAE7010040200B6970B505000C00E5
:104B6000002B01D1002070BD002804D08369002BE8
:104B700001D1FFF765F80B4B9C4209D16C680C2200
:104B8000A35E002BEED021002800FFF75BFFEAE7D1
:104B9000054B9C4201D1AC68F1E7044B9C42EED13D
:104BA000EC68ECE7286C0010486C0010086C0010F2
:104BB00070B50500080011000022064C22601A00A2
:104BC00001F0B8FE431C03D12368002B00D02B60FA
:104BD00070BDC0466C08040870B50E001D000E23A1
:104BE000C95E90B01400002907DA00232B60B38956
:104BF0001B0611D48023DB000FE001AA00F06EF841
:104C00000028F2DBF022029B12021340054A9B1897
:104C10005A4253412B60EDE740230020236010B03F
:104C200070BDC04600E0FFFFF7B502268B89050086
:104C30000C00334206D02300473323602361012355
:104C40006361F7BD01AB6A46FFF7C6FF0099070035
:104C50002800FFF7F9FB002808D10C22A35E9A0573
:104C6000EFD4032293431E43A681E4E70F4BAB62CC
:104C70008023A28920601343A381009B206163618C
:104C8000019B002B0DD00E23E15E280000F038F8C8
:104C9000002806D00322A38993431A00012313435B
:104CA000A381A0893843A081CBE7C046BD3B00105B
:104CB0007047704770B50500080011000022064CCF
:104CC00022601A00FBF7B4FC431C03D12368002BBD
:104CD00000D02B6070BDC0466C080408002370B57E
:104CE000064C050008001100236001F013FE431C70
:104CF00003D12368002B00D02B6070BD6C08040822
:104D0000002370B5064C05000800236001F00AFE80
:104D1000431C03D12368002B00D02B6070BDC0461C
:104D20006C08040802B4714649084900095C49004E
:104D30008E4402BC7047C0468446101C62468C46B6
:104D4000191C634600E0C0461FB500F015FF00289F
:104D500001D40021C8421FBD10B500F06FFE4042D3
:104D6000013010BD10B500F007FF002801DB002066
:104D700010BD012010BDC04610B500F0FDFE00289A
:104D800001DD002010BD012010BDC04610B500F0AF
:104D90008FFE002801DC002010BD012010BDC046A0
:104DA00010B500F085FE002801DA002010BD0120BA
:104DB00010BDC046F8B54546DE4657464E460C0384
:104DC000E0B54E00C90F88460D00610A440F0C4340
:104DD000C70019035800DB0F9B464B0A510F0B43CA
:104DE000760D400D1900D200D84500D1AEE0351A3D
:104DF000002D00DCF6E000280FD1134300D1DBE0EA
:104E00006B1E002B00D037E1BA1A9742BF41641ADB
:104E10007F42E41B0126170024E0C64B9E424DD082
:104E200080231B041943382D00DD07E11F2D00DD11
:104E300038E12020431B9A460B0050468340994698
:104E400013004846EB401843030050468240501E72
:104E50008241E9401A43BA1A611A9742A4411700E5
:104E600064420C1B230262D56402650A002D00D146
:104E7000DFE02800FDF768FB0300083B1F2B00DD87
:104E8000D2E020223C00D21A9D40D4409F402543CE
:104E90009E4200DDC4E09E1B731C1F2B00DDF1E071
:104EA000202238002900D21AD840914097402C0087
:104EB0000143781E8741DC4000260F437B0709D061
:104EC0000F233B40042B05D03B1DBB42BF417F421B
:104ED000E4191F0023022CD5964B01369E4200D1C7
:104EE0009AE04546944BFF081C4060077605640233
:104EF0000743240B760D00212403230B0C0D8F4A4E
:104F000024051C431440330523435B00ED075B0875
:104F10002B43380019003CBC90469946A246AB464C
:104F2000F8BD6446044300D111E2040067467B07E4
:104F3000C6D145466007FF080743E4087D4B9E4203
:104F400030D024037605240B760DD4E7331A9A4625
:104F5000002B78DD002831D076488642AED0802004
:104F6000000401435346382B00DCE9E00A43511E9C
:104F70008A410021D219BA42BF4109197C42170067
:104F80000C192302D3D56B4B01369E4200D13AE176
:104F90000120694B1C407B0807401F43E007074383
:104FA00064088BE723003B4300D1CBE1802212034E
:104FB00014432403240B9EE72E007FE708001043D0
:104FC00000D1B4E0581E002800D0DEE0BA18BA4282
:104FD0009B4164185B42E418170001262302A6D502
:104FE0000226D5E7002D6ED1701C4005400D01282A
:104FF00000DCF9E0B81A844687428041E51A404255
:105000002D1A280200D489E0D71BBA4292411C1BFA
:105010005242A51AD84629E74546002400276AE7E8
:10502000454CF61A2C4049E73D00283885400027BA
:105030002EE73800FDF788FA20301DE70A43511E9D
:105040008A41002107E7002B00D0F3E0701C4305E4
:105050005B0D012B00DCADE0364B984200D1D1E076
:10506000BA18BA42BF4164187F42E419E7075208F0
:1050700017436408060021E72E48854200D193E0DB
:105080001D00D0E629001F3EF140202B00D18DE00D
:105090004022D31A9D402F437D1EAF4100240F4371
:1050A000002644E72B000800203BD8400300202DB9
:1050B00000D17DE04020451BA9400A43511E8A4192
:1050C00000211A43C7E6002E50D01A4EB04257D0E6
:1050D00080266B429946360434434B46382B00DD1C
:1050E000D6E01F2B00DD35E12026F51A2600AE4064
:1050F000B2463E00DE40AC46350056462E4365467D
:10510000AF407D1EAF41DC403743D71BBA429241CE
:105110000C1B5242A41A0600D846A3E66446674612
:105120002C4300D0A2E600250026002706E71E003B
:10513000C4E6C046FF070000FFFF7FFFFFFF0F80B0
:105140001F2B63DC2020C31A080098409C4683462E
:1051500053461000D84003005846184363469A400F
:10516000531E9A4153460243D94003E726003E436B
:1051700006D0EB439946002BC7D0944EB042ACD139
:105180000C0017000600D84698E6904B9A450BD0C5
:105190008246E7E6002800D09EE01800104300D1C8
:1051A000E9E01C001700D846884E87E6002572E724
:1051B000002182E723003B43002E00D0ABE0002B10
:1051C00000D1E7E00B00134300D177E6BA18BA42EA
:1051D000BF4164187F42E419230200D4F2E07C4B03
:1051E00017001C40060069E620003843002ED1D18C
:1051F00000285BD11C00144300D1A8E01C0017005C
:10520000D8465BE606000024002797E650460B00D0
:105210002038C34099465346202B00D195E04023C7
:1052200050461B1A99400A43511E8A414B460021A1
:105230001A439FE6002E30D126003E4367D0DB4361
:105240009A46002B1CD0614EB04260D05346382B9A
:1052500000DD96E01F2B00DD9FE02026F31A2600DC
:105260009E409C46B34653463E00DE4033005E46B9
:105270001E4363469F407B1E9F415346DC4037439D
:10528000BF189742924164185242A418060078E66B
:1052900027437C1EA741002437E74C4EB04236D04E
:1052A00080265B4236049A463443CFE71800104309
:1052B00000D103E6B81A84466745AD41E01A6D4255
:1052C000401B050200D42CE6D71BBA4292411C1B9E
:1052D0005242A41AD846F1E51800104300D163E702
:1052E000F808670707438020E4080003044208D059
:1052F000DD08054205D1D208590711430F002C00E3
:10530000D8467B0FE4001C43FF00304ED6E50C006E
:1053100017000600D2E5002B38D00B00134300D154
:1053200042E7F808670707438020E40800030442C7
:10533000E7D0CB080342E4D1D208490711430F005C
:105340001C00DEE700270024D5E500216BE70025DF
:105350000027F3E54E462500203EF5404B462E0043
:10536000202B2DD04025ED1AAC4027437C1EA741B1
:1053700000243743C9E6802400252403134E002768
:10538000DCE527437C1EA741002479E70C001700C9
:105390000E4E93E50C00170090E556462300203E84
:1053A000F34099465346202B0ED0402356469B1B74
:1053B0009C4027437C1EA7414B4600241F435FE7C8
:1053C0000024D2E71700B2E50024F2E7FF0700004F
:1053D000FFFF7FFFF0B557464546DE464E46E0B537
:1053E0004C000E0387B0834692461D008046360B64
:1053F000640DCF0F002C4FD06F4B9C4235D08023D3
:10540000420F1B04F600134333439946C3009846EA
:105410006A4B00269C460023644403932B031B0B1A
:105420009B466B00ED0F50465B0D01955ED0624AC6
:10543000934253D05A46D1008022400F12040243B7
:105440000A4393465246D1005C4A94460022634484
:105450003800684084460290E41A16430F2E00D9A3
:10546000B4E0574BB6009B599F460300334399461F
:105470006CD100239846023308260393CEE7CB462F
:105480004146039A0197022A65D1019B4A4C9C46EA
:105490000023002298466BE00300334399464ED028
:1054A000002E00D1BCE13000FDF74EF803000B3BAD
:1054B0001C2B00DDACE11D22D31A5A460100DA4054
:1054C00008398E401300334399465B468B4098461B
:1054D00000233C4C0026241A03939FE751465A466A
:1054E000114329D1002293460232B1E759460143C4
:1054F0001ED05B46002B00D19EE15846FDF724F8F4
:1055000003000B3B1C2B00DD8FE102005946083ADB
:1055100091408B461D21CB1A5146D9400B0059466C
:105520000B4351469B469140264B00221B1A8FE7A6
:10553000002301229B468BE75146032288E7002384
:105540009846013304260024039367E70323B146FA
:1055500003930C2662E7032A00D15CE2019B012A37
:1055600000D0E4E113409C4600230024002298462A
:1055700000211203130B0A0D12051A432305124CC6
:1055800040462240134362465B00D2075B08134348
:10559000190007B03CBC90469946A246AB46F0BD08
:1055A000002380229C4612039846034CE0E7002328
:1055B000014C00229846DBE7FF07000001FCFFFFDB
:1055C000886E00100DFCFFFFFFFF0F80D94500D94A
:1055D00039E100D134E1002346464D469A46013C6C
:1055E0005B460A0E1B021A430B02170C03931304AB
:1055F0001B0C3900280090460193FCF725FD0200A2
:10560000019B83465A43280039009146FCF7A2FDCE
:10561000350C09040D43A9450DD95B464544013BB2
:10562000A84500D93AE1A94500D837E102235B42F9
:105630009C464544E3444B46EB1A3900180004935A
:10564000FCF702FD019B050043433900049899468D
:10565000FCF780FD330409041B0C0B43994509D961
:1056600043446A1E984500D91AE1994500D817E1CC
:10567000023D43444A469B1A5A4612042A43039960
:105680009346100C0A0C914609045A46090C4E46E2
:105690000D001204120C45430591514372437043AF
:1056A00052190E0CB218954203D980256D02AC46F2
:1056B0006044150C09041204090C2818521883427E
:1056C00000D2CEE000D1C8E01D1A53469E1AB24562
:1056D00092415242AB1A9A46984500D117E13900DF
:1056E0001800FCF7B1FC019B05004343390050460C
:1056F0000493FCF72FFD04980B04310C19438842E6
:1057000009D941446B1E884500D907E1884200D879
:1057100004E1023D4144049BCB1A18003900049374
:10572000FCF792FC019B82464343390004980193A5
:10573000FCF710FD01980B043104090C1943884251
:105740000DD953464144013B884500D9E8E08842E1
:1057500000D8E5E002235B429C464144E244019BC1
:105760002D04CE1A51462943059D4F462A000B04AD
:10577000080C1B0C5A4345437B4378435B19170CB9
:10578000FB189D4203D980256D02AC4660441D0C78
:1057900012041B04120C28189B18864200D293E0B6
:1057A00000D18EE001231943A04BE318002B00DC4D
:1057B00099E04A0700D09EE05A46D20106D55A46E3
:1057C0009B4B1A4080239346DB00E318994A93428F
:1057D00068DD0123029A984C1A40002394469846AB
:1057E0000022C5E680224B46120313420AD05B46D4
:1057F000134206D11A431203120BAC4688468E4C54
:10580000B6E64B461A431203120BBC468A4CAFE66F
:1058100003005A46283B9A4000239146984657E693
:105820005846FCF791FE203040E603005246283BE4
:105830009A400021934677E6FCF786FE20305FE62B
:10584000884500D2C7E64B46DE075D0843465B0845
:105850001E434346DB079A46C2E60025924500D325
:1058600033E7039E5946B446E244B245AD416D422A
:105870004544EB180139984507D2984200D97FE09A
:1058800000D1BCE01D1A8B461FE79845FAD1039D55
:105890005545F2D943468B461D1A16E79B46CAE684
:1058A0001500E7E65A46C90852070A435B059046C9
:1058B0005C0D5A460123029952021940120B8C4684
:1058C00056E6002B00D16FE746444A1EB04529D961
:1058D0001100864200D065E7039A934200D061E749
:1058E00062E7012149420120C21A382A21DD029BC8
:1058F00003409C4638E60F220A40042A00D15BE7A9
:105900000A00111D914292415242934454E7474B81
:10591000E318002BE5DD01225242F2E71D00FAE612
:105920009A461CE7B04239D86ED011003AE702938C
:105930003AE71F2A3CDC20239B1A0C00584699406A
:1059400098404B1E99415B46D440D34020430843C6
:105950001A00430709D00F230340042B05D0010090
:10596000081D88429B415B42D21813023AD501239D
:10597000029A01241A400023944698460022F7E533
:10598000022149428C46039DE344AC46E244AA45C9
:10599000AD416D424544ED182D1A96E68A1E0399D5
:1059A0004D008D42894149424144761803958FE765
:1059B0001F204042C31A5846D8400300202A28D04E
:1059C00040205D46821A954029434A1E9141194361
:1059D000072300220B4009D00F2300220B400800B0
:1059E000042BBDD1010053075202120BC908194301
:1059F000012388460299002419408C46B8E5524597
:105A0000BED88B46002560E6039D9D42C6D311009B
:105A100062E70025D8E780225B4612031A43019B08
:105A20001203120B9C468846034CA1E5FF030000BD
:105A3000FFFFFFFEFE070000FF070000F0B54F4626
:105A40004646D6465C00C0B51F03DB0F9A46174B8F
:105A50000E034D0084468046360B6D0DC90F9146EE
:105A60003F0B640D01209D4208D09C4201D0A5420D
:105A70000BD01CBC90469946A246F0BD634633430A
:105A8000F7D1AC42F5D13A43F3D10120BE42F0D177
:105A9000C845EED1514507D0002DEAD163461E43DB
:105AA0003000461EB041E4E70020E2E7FF070000B7
:105AB000F0B54546DE4657464E46E0B51F033D0B62
:105AC0002C4F0E034C00AB465D008446360B640D34
:105AD000C90F90466D0DDB0FBC422AD0254FBD4249
:105AE0002DD0002C0FD130430700814678427841F9
:105AF000C0B2002D17D15F463A4314D14B46002067
:105B0000002B0AD006E0002D02D15846024301D0F6
:105B1000994218D04842012108433CBC904699461E
:105B2000A246AB46F0BD0028F2D00120013B18434D
:105B3000F3E737000743D1D002204042EDE75F464C
:105B40001743CED0F8E7AC42E4DC03DA481E01216B
:105B50000843E2E75E45DDD806D000205E45DCD292
:105B60000123481E1843D8E7C445D3D80020C445B4
:105B7000F6D3D2E7FF070000F0B54E464546DE46B5
:105B800057465C00E0B51F03DB0F99462A4B0E0316
:105B90004D00C90F8446360B6D0D8B4690463F0B6A
:105BA000640D9D4220D0244B9C4222D0002D12D166
:105BB000304343424341DBB2002C1FD0002B0CD0BA
:105BC0004B460120013B034318003CBC90469946DC
:105BD000A246AB46F0BD002C16D0CB4517D05B4695
:105BE000594201230B43EFE7310002230143EBD17C
:105BF000D9E7390002231143E6D1D7E73A43DDD193
:105C000000230028E0D0EAE73A43E6D1E7E7A542DF
:105C1000E5DC05DBBE42E2D807D00023BE42D3D28A
:105C20005946012301390B43CEE7C445D7D8002399
:105C3000C445F5D3C8E7C046FF070000F0B5574696
:105C40004546DE464E46E0B50C0398464E00230B13
:105C500087B0070092469B46760DCD0F002E6BD085
:105C60006D4B9E4235D080245B46420F2404DB00FE
:105C700014431C43C3009946684BA3469C4600232B
:105C800000276644029343461C035A00DB0F50462C
:105C9000240B520D984600D176E05F4B9A426DD0AE
:105CA0008023410F1B040B435C49E4008C461C43DA
:105CB000C300002062444146B6186940721C01913D
:105CC000944607430F2F00D9B0E0554ABF00D25980
:105CD00097465B460343994600D087E000239B46E6
:105CE000023308270293CEE742460192022867D08A
:105CF000032800D10EE2012800D062E10023002435
:105D00000022994601990140CDB2002112030B0DEA
:105D1000120B1B051343434A240513401C43640024
:105D2000ED0764082C434846210007B03CBC904670
:105D30009946A246AB46F0BD034399464FD05B4619
:105D4000002B00D189E15846FCF7FEFB03000B3B1A
:105D50001C2B00DD7AE11D22D31A3A0001005C46BB
:105D6000DA4008398C4013008F4023439B46B946E4
:105D700000232D4E0027361A029384E7534623430F
:105D80002AD10024022096E75346234320D0002C3A
:105D900000D157E12000FCF7D7FB03000B3B1C2B85
:105DA00000DD49E11D21CB1A51460200D94053467E
:105DB000083A944093400C431B4A121A00207AE799
:105DC0000125019B144C1D400023002299469CE7AD
:105DD0000024002201206EE7534603206BE70023D6
:105DE0009B4601330427002602934CE70323814698
:105DF0000C27029347E780220023002512039946CF
:105E0000054C82E75C464B4602986FE75C464B4682
:105E1000019502986AE7C046FF07000001FCFFFFFA
:105E2000C86E0010FFFF0F800DFCFFFF4A46494679
:105E3000170C1A0C1B041B0C08041900000C41431E
:105E40001500884619007D4379430395894629004A
:105E5000150045434D44029545462D0CAA46029D2A
:105E60005544A94506D98A46802149028946CA4433
:105E700051460391290C0491414609042D04090C53
:105E800088462900250C24044144240C0591210056
:105E900041438846210079438A466843414650443D
:105EA0008146080C48446F43824503D9802149024A
:105EB00089464F44010C89463900494402914146C4
:105EC0000F0404993F0C88460004C01980444146E1
:105ED000049159460F0C0904090C884659438A4617
