:020000041000EA
:1000000000000108D9BC01100D000000B10500106E
:1000100000000000000000000000000000000000E0
:10002000000000000000000000000000899C01109A
:1000300000000000000000000D9D0110199D01103E
:1000400031BD011061C0011031BD011031BD011081
:1000500031BD011031BD011031BD011031BD0110A4
:1000600031BD011031BD011031BD011031BD011094
:1000700031BD011031BD011031BD011031BD011084
:1000800031BD011031BD011031BD011031BD011074
:1000900031BD011031BD011031BD011031BD011064
:1000A00031BD011031BD011031BD011031BD011054
:1000B00031BD011031BD011031BD011031BD011044
:1000C00010B5064C2378002B07D1054B002B02D02E
:1000D000044800E000BF0123237010BD9015000804
:1000E00000000000A4B60210044B10B5002B03D092
:1000F0000349044800E000BF10BDC04600000000F6
:1001000094150008A4B60210164B002B00D1144B16
:100110009D46402292029A1A924600218B460F4633
:100120001348144A121A1FF039F80F4B002B00D055
:1001300098470E4B002B00D0984700200021040068
:100140000D000D48002802D00C4819F055F91EF09A
:1001500009FC2000290019F07FFC19F087FAC0463D
:10016000000008000000010800000000B99901101B
:100170009015000894B60008F993011000000000E3
:10018000036810B50400022B05D0032B01D0012B0E
:1001900007D1002101E088470100606801F08EF876
:1001A00010BDBE220149024819F062F8CE57021074
:1001B000DE57021010B58C0004192369406801F065
:1001C00011F82369834204D01E220249024819F023
:1001D0004FF810BDB0570210015802107FB56B46A2
:1001E00005009E1D32000021FFF7E4FF02AA012155
:1001F0002800FFF7DFFF03AA02212800FFF7DAFF3C
:10020000039901201EF034F8041E11D002000321CE
:100210002800FFF7CFFF3088039B2200029902F0ED
:10022000EDFE050020001EF0D1FB280004B070BDDB
:100230008D256D42F9E730B585B06B4600219C1DD8
:100240002200050002910391FFF7B4FF208802A964
:1002500002F0B8FE041E0BD10100042302AA686854
:1002600000F0E0FF042303AA0121686800F0DAFF30
:10027000200005B030BD30B585B06B4600219C1D17
:100280002200050002910391FFF794FF208803AA42
:1002900002A902F0E3FE041E0BD10100042302AA0E
:1002A000686800F0BFFF042303AA0121686800F01A
:1002B000B9FF200005B030BD13B56B469C1D220070
:1002C0000021FFF777FF208802F0B2FE16BD30B59F
:1002D00087B06B46040000219D1D2A000491059102
:1002E000FFF768FF02AA20000121FFF763FF03AABE
:1002F00020000221FFF75EFF039A029904A802F092
:1003000043FE288804A902F041FE07B030BD13B5B2
:100310006B469C1D22000021FFF74CFF208802F055
:100320001DFE16BD37B5002101AA0500FFF742FFEB
:100330006B4601999A1C012002F0F0FD041E06D1C3
:1003400002236A460100D218686800F06BFF2000A3
:100350003EBD70B50E250024060086B06D442A000F
:1003600021002C8004940594FFF724FF04AA300098
:100370000121FFF71FFF05AA30000221FFF71AFF36
:10038000288823000094059A049902F0A7FE06B07D
:1003900070BD73B56B4600219D1C01AA59800600F3
:1003A0000191FFF707FF2A000199012002F096FD55
:1003B000041E05D1010002232A00706800F032FFFC
:1003C000200076BD30B58DB03022002168468025F2
:1003D0001EF0E4FE2D0629003A4800F087FD0400D7
:1003E0001020044208D0694600F0A2FD0028F2D196
:1003F00035496846FFF7C4FE2020044208D069460C
:1004000000F096FD0028E6D130496846FFF7B8FEB7
:100410004020044208D0694600F08AFD0028DAD165
:100420002B496846FFF7ACFE8020044208D069469D
:1004300000F07EFD0028CED126496846FFF7A0FED9
:1004400080204000044208D0694600F071FD002879
:10045000C1D121496846FFF793FE80208000044205
:1004600008D0694600F064FD0028B4D11B496846F5
:10047000FFF786FE8020C000044208D0694600F0E5
:1004800057FD0028A7D116496846FFF779FE80205E
:100490000001044208D0694600F04AFD00289AD1C4
:1004A00010496846FFF76CFE80204001044292D05C
:1004B000694600F03DFD00288DD10B496846FFF7E5
:1004C0005FFE88E7F01F0000930300105303001045
:1004D000250300100F030010CF020010B902001016
:1004E0007702001037020010DD01001010B5041E65
:1004F00004D1B8221149124818F0BAFE11481AF076
:1005000051FCE061002803D1BD220C490E48F3E7FD
:100510000E4B0022190001329C602033092AFAD1C7
:10052000E1600B4A00210B481BF09EFA6060002836
:1005300003D1C72201490848DEE710BD2158021047
:100540003C580210E858021057580210C400000826
:10055000E4010008C50300109C58021070B5041E89
:1005600004D16F220B490C4818F082FE0B4D280075
:1005700002F02EFA0A4803F0A5FF0A4804F09AF8A0
:10058000094804F03BFD0948FFF7B0FF256005204E
:1005900070BDC0461E5902102E59021008020008F4
:1005A0002C0200085002000874020008980200089B
:1005B0002C4B05E02C4B03E02C4B01E02C4BFFE7D0
:1005C000EFF308802B4972460A4201D0EFF309800D
:1005D0009C46294B196802680A60043142680A6027
:1005E000043182680A600431C2680A600431F0C1D3
:1005F00047460F6004314F460F60043157460F6085
:1006000004315F460F60043102690A6008314269B3
:100610000A60043182690A600431C2690A600431E7
:1006200003462033154E324200D0043375460D4E3A
:10063000354200D148330C46103C2360EFF3098269
:100640000A600431EFF308820A60043172460A60DE
:100650000431EFF314820A606046074900F05EF847
:10066000FEE7000010000000200000003000000045
:1006700040000000040000004C590210000200007D
:1006800030B5002585B01A4CAB002900E258194856
:10069000013518F0F5FC0D2DF5D1A36C1648029329
:1006A000636C0193236C0093E36BA26B616B18F096
:1006B000E7FC124B1248196818F0E2FCE36C1B07C8
:1006C00012D5104818F0DCFC236D0F48DB0700D46E
:1006D0000E4818F0D5FCE36C0D485B0700D40D48BC
:1006E00018F0CEFC05B030BD0B4818F0C9FCEFE7A0
:1006F0004CA50008E0590210EE59021000ED00E090
:100700003D5A02104B5A02105A5A0210675A0210F0
:100710008A5A0210965A02107A5A021013B504002F
:10072000154818F0ADFC302C17D0402C1AD0202CD6
:100730001DD1124818F0A4FC114C124818F0A0FC6E
:10074000FFF79EFF104818F09BFC00230F4A009310
:10075000D26B0F49200018F0A5FD0E4818F090FC50
:100760000D4CEAE70D4818F08BFC0D4CE5E70D4801
:1007700018F086FC0C4CE0E7505902107959021031
:100780003E01FF80A6590210B15902104CA5000885
:10079000D0590210885902103F01FF809159021070
:1007A0004001FF809C5902103D01FF80F0B587B0E9
:1007B00006000291039200F0CBFA002826D00368CD
:1007C00000930121300018F0BEFC071EF9D000256F
:1007D00073880020AB4217D92B012C040193736856
:1007E0002A013C43059005A99818220018F098FCAE
:1007F00000280ED020007368019A9B18029ADA60D4
:10080000009A5A60039A9A6007B0F0BD01235B42D8
:10081000D6E70135DCE7000037B5428805000B0C50
:100820009A4205D8009215496822154818F020FD13
:100830001C0143681B598B4205D00B006C220F49E9
:10084000104818F015FD00F083FA00280DD002685A
:100850006B681B19596891420AD09968914207D078
:1008600076220649084818F003FD01225242EFE7BC
:1008700000225A609A601A6037BDC046A25A021020
:10088000DA5A0210285B0210645B021037B50500CB
:10089000002904D184221749174818F0E9FC42883E
:1008A0000B0C9A4205D8009212498A22134818F07C
:1008B000DFFC1C0143681B598B4205D00B008E22C4
:1008C0000C490F4818F0D4FC00F042FA00280CD074
:1008D00002686B681C196368934209D0A36893424D
:1008E00006D0982203490748D7E701225242F0E791
:1008F000E0683EBDBE5A0210A05B0210DA5A021038
:10090000285B0210DD5B0210F0B5002106000D4BE4
:100910005D681B680C338D4201D1002010E000227D
:100920005F68BA4202D101312433F4E718685401F8
:1009300000190468A64201D00132F2E70028F2D083
:10094000F0BDC046EC02000870B50D0001210400A6
:1009500083684942D8691AF03BFAE369002B0BD14E
:10096000A561A368E561616858681BF0A7F8A368F2
:10097000D8691AF043FA70BD1D61F2E7F0B585B091
:1009800005000E00FFF7C0FF041E05D12B007422E6
:100990003A493B4818F06CFC0369002B0ED13268D1
:1009A000C1688A4210D90293E3687A2201932368CE
:1009B000324900933348336818F05AFC012B03D1B5
:1009C0003268C1688A42EED100F0C2F9071E07D131
:1009D000237D002B1ED1236838222B492B48D9E7D1
:1009E000416900290BD000228069236882420BD123
:1009F0003A68254900922648462218F039FC0368D7
:100A00003D2221492348C5E795004D599D4201D01B
:100A10000132EBE73A000C21300000F0B1F9002878
:100A200004D1812215491C4818F022FC1B4B0021DF
:100A3000986919F035FD051E0BD1194BB06873602C
:100A4000002F03D01AF044FB05B0F0BD00F04AFDC2
:100A5000FAE7A36801001A681248FFF7A7FE00230F
:100A6000114A706029002F606C60EE60AB602B61F2
:100A7000AA82AB752000FFF767FFE5E74B5C021029
:100A8000645D0210825D02102B5C0210DF5D0210BB
:100A90004E5E0210175E02108E5E0210EC0200081D
:100AA00001000080F402000801020000F0B51024EB
:100AB0008DB004AD0F0022000021060028001EF0BA
:100AC0006DFB002108AA0120089109910A950B9459
:100AD000019702911AF0C0FA0390002804D1B722BE
:100AE00009490A4818F0C4FB01A93000FFF746FF86
:100AF0000121039849421AF0C5FA03981AF01CFB29
:100B000002980DB0F0BDC0465D5C02102C5D021075
:100B100070B50D0001001848FFF7B8FE1821040059
:100B20000268280000F02CF9002804D1CE221349D5
:100B3000134818F09DFBA37D012B0CD180231B06CD
:100B40002B6123686869002B02D100F0CBFC70BDDB
:100B50001AF0BEFAFBE7200004221530032100F052
:100B6000CFF802232375E5600FCD00F0AFF8210028
:100B70006068FFF7E9FEEAE7F4020008695C02102A
:100B80009B5C0210F0B5102491B00F0016000021FC
:100B90002200050002A801931EF000FB002102AB19
:100BA0000893019B06AA0C93169B012006910791BE
:100BB00009940A970B960D930E911AF04DFA0F9027
:100BC000002805D183220A4952000A4818F050FB38
:100BD0000AA92800FFF79CFF01210F9849421AF04B
:100BE00051FA0F981AF0A8FA0E9811B0F0BDC0464D
:100BF000785C02102C5D021070B50D0001000F48EA
:100C0000FFF744FE082104000268280000F0B8F84D
:100C1000002805D18F220A4952000A4818F028FB03
:100C200020000321153000F083F80323E5602375CD
:100C300021006068FFF788FE70BDC046F40200081E
:100C4000815C0210FE5C021070B504008AB00028BE
:100C500025D0102502AE2A00002130001EF09EFA99
:100C6000002106AA01200691079108960995009493
:100C70001AF0F2F90190002805D1A1220949520089
:100C8000094818F0F5FA69462000FFF7B5FF012181
:100C9000019849421AF0F6F901981AF04DFA0AB093
:100CA00070BDC046915C0210C85C021010B5FFF721
:100CB0002BFE041E01D1002010BD00F049F80028D1
:100CC00002D1237D002BF6D0E068F5E71FB50028A0
:100CD00001D1002906D1002A01D1002B02D1CC1864
:100CE000042C08D9029301920091030026220249A4
:100CF000024818F0BDFA1FBDBE5E0210435F02102D
:100D000030B50F2485B06C440D002170210018F01F
:100D1000F3F9002806D123782F22009502490348D1
:100D200018F0A6FA05B030BDCD5E0210F75E0210D5
:100D300007B50378DBB2994205D000913822024909
:100D4000024818F095FA07BDE25E0210F75E021045
:100D500070B51AF09FFE0022084B5C681B68944235
:100D600002D10021080070BD190024331D00203D70
:100D70002D688542F6D00132F1E7C046EC0200084A
:100D800010B5031E12D0012300290FD041184C1EAC
:100D90000023A0420AD89A4215D1134B134CC31812
:100DA000A34205D8124B8B425241D3B2180010BD5A
:100DB000104B114CC0181300A042F7D80F4A8A42BA
:100DC0005B41DBB2F2E7F8220D4C120682180023D9
:100DD000A24201D80B4AF2E7F022120680180A4A12
:100DE0009042E3D8094AEAE70000FFF7FF760300E4
:100DF000007704080000F8EFFF7F070000800F1065
:100E0000FFFF000000000108FFFF070000000810BE
:100E100010B51BF09FFA0E4A18210A2019F02AFB80
:100E20000C4CA061002803D10B490C4818F020FAA3
:100E30000B4A28210A2019F01DFBE061002802D18D
:100E400005490848F2E72000FFF788FB606010BD05
:100E5000D4020008EC020008975F0210A45F0210A1
:100E6000BC020008D05F021010B5024B186800F0F9
:100E7000CFFBFAE70C030008F7B50C000100184897
:100E800017000193FFF702FD0600006805211530E9
:100E9000FFF74EFF032C05D934221249FF321248C6
:100EA00018F0E6F9731DDB7F0025A34215D9E40095
:100EB0003619B568019B9D4200D91D00002D0CD04C
:100EC000002F04D02A00716838001EF0BDF8736846
:100ED0005B197360B3685B1BB3602800FEBDC0463E
:100EE000FC02000871600210F263021037B50400C2
:100EF0000D00FFF72DFF836808201843631C0AD0FC
:100F00002300834306D000902300DB2206490748D4
:100F100018F0AEF92000EA1702211AF029FE831C0E
:100F200000D100203EBDC046606002105E6302102A
:100F3000F0B593B00F000400FFF70AFF3021060060
:100F400002003800FFF71CFF002804D1F222944968
:100F5000944818F08DF93022002138001EF01EF957
:100F6000B268002C04D0651E254001D1224206D172
:100F700000922300FE228A498B4818F079F91AF072
:100F8000E7FD20420AD02B00326993420BD1842224
:100F9000230083498548520018F06AF904228049E9
:100FA000FF328348D5E7F1685D014D1969688C42CD
:100FB00001D00133E9E7002DE9D00121AB684942B6
:100FC000D86919F005FFAC69002C03D1B922794921
:100FD0007948BEE700222369AB612261934203D1C5
:100FE000EB6168681AF09EFDAB68D86919F006FFDE
:100FF0002000237D1530022B09D0032B21D00221A4
:10100000012B1FD09222664952006C48C4E705228A
:101010000421FFF775FE2822002108A81EF0BEF863
:101020000022237D0792022B00D089E0226818213C
:10103000E068FFF7A5FE002807D15B226049614800
:1010400087E71900FFF774FEE5E7E3685E681D684F
:101050009A68DB683100280004930692FFF736FE99
:10106000F3B20793002E29D1049B002B68D0049B78
:101070002268D9000698FFF783FE002853D008ABFA
:10108000F6009E190023069D03936B689C46002B77
:101090004DD02A00331D03CA03C3039B61469A0047
:1010A0003B002033995070682268FFF769FE0028E2
:1010B0003DD1039B9422424943486DE7F1002268E9
:1010C0002800FFF75DFE00281ED008AB0593002323
:1010D00003936B689C46002B1AD02A00059B0433AF
:1010E00003CA03C3039B61469A003B001033995027
:1010F000059B22685868FFF743FE002808D1039B30
:101100007C222F49314847E76B222D49304820E7A0
:10111000039B083501330393059B08330593039B19
:101120009E42D6D1A0E7832225492A4811E7039B96
:10113000083501330393039A049B08369342A4D1E4
:101140000121254B4942D86919F0AAF9011E03D1A2
:101150009D221B492148FCE60D2306AA9B18079AED
:101160000894DA77020008AB61CB61C261CB61C23F
:1011700061CB61C21B681A4813600022FFF716FB9F
:10118000237D3B60A3687860FB602368002B04D05C
:101190001B680020BB6013B0F0BD01235B42F8E781
:1011A000696002109B600210B76002101F6102109C
:1011B00003610210426002106E6102108E61021023
:1011C0002E600210C0610210486202100462021018
:1011D000E561021028620210EC0200086D62021044
:1011E000FC020008F8B514000F001D000600FFF710
:1011F000AFFD290002002000FFF7C2FD002805D145
:1012000052220649FF32064818F032F82B00390006
:1012100030002200FFF730FEF8BDC0467E600210AD
:1012200096620210F7B507000C0016001D1E3AD09A
:10123000FFF78EFD290002003000FFF7A1FD002816
:1012400005D1B32218491948520018F011F8390095
:101250001748FFF71BFB0700006805211530FFF753
:1012600067FD7B1DD97F0C19032C04D970220E4910
:10127000FF321048E9E7E4003C19A368AB4207D20B
:10128000BA22009352002B0007490B4817F0F0FFD9
:101290002A00310060681DF0D7FE63685B19636047
:1012A000A3685D1BA560F7BD8760021096620210FF
:1012B000FC02000898630210B3630210F7B5070040
:1012C0000D0001004348FFF7E1FA06000468390009
:1012D0004048FFF7A1FA2822002130001DF05EFFF0
:1012E0003D4F3100F86919F0FBF8200023681530F4
:1012F0000193237D022B36D0032B4DD0012B60D1DF
:10130000364B002D08D09D4206D0CB222B0034490D
:101310003448520017F0ACFFE668B26800929D4274
:1013200017D10221FFF704FD71682F48FFF774FA07
:101330001822002120001DF031FF2100B86919F0AA
:10134000CFF87560019B0098002B3FD100F0CAF8E0
:10135000F7BD03220221FFF7D3FC002CF2D00023BB
:10136000E3602375EEE7214BEB187E2B05D8B822FE
:101370002B00FF321A491E48CCE703220521FFF754
:10138000BFFC80231B069D4201D10123A375E368A6
:101390001D615B690093E0E7E56819006A680092E7
:1013A0000122FFF7ADFC29680F48FFF735FA182234
:1013B000002120001DF0F2FE2100B86919F090F81C
:1013C000C0E7F022064952000A48A3E719F080FE60
:1013D000BEE7C046FC020008EC02000801000080E5
:1013E00091600210B5620210F4020008FFFFFF7F57
:1013F000F06202102863021010B50C0001000348CF
:10140000FFF744FA03689C6010BDC046FC02000868
:10141000054B10B51B68586919F05AFE034B1B6841
:10142000186919F055FE10BD100300080C030008E0
:1014300010B51AF0D5FF10BD10B51AF0D1FF10BDD0
:10144000F0B51E4B95B01E4C1E4D3822002106A84B
:101450000293039404951DF0A1FE1B4B05A93C22A9
:10146000200005931DF0F0FD05A93C2228001DF089
:10147000EBFD02A90C2215481DF0E6FD144819F0F9
:1014800091FC144A06000021012019F0E5FD124AE2
:1014900007000021012019F0DFFD01900F483B00FB
:1014A00032002900006800F063F80D4B019A21001A
:1014B000186800F06BF815B0F0BDC046779A333D60
:1014C0000C770408487704080C4A2863007704085E
:1014D0002C6402101C6402103C640210100300080B
:1014E0000C0300081FB504000C22002101A81DF008
:1014F00055FE0021034822000B000068029400F012
:1015000051F81FBD1003000830B585B001900138B7
:101510000C00029115000392032806D821F08AFFDF
:1015200002070B0F1000FFF729FA05B030BD1000BD
:10153000FFF7EEFAF9E71000FFF75EFBF5E7002290
:1015400008212000FFF71CFC002804D16C2206496A
:10155000064817F08DFE2800FFF7A8FB20606068A2
:10156000FFF7C0FFE1E7C0460C640210C061021043
:1015700010B5054C026104600C1D44600C3104344C
:101580008460C160436110BDFFD948A2044B026171
:1015900003600B1D43600C3104338360C1607047EE
:1015A00042658BA6F0B585B00191012101AC050023
:1015B00049420069FA276260A360032619F008FC1B
:1015C0007F00AA6869681368086801338C46334055
:1015D000834218D00C2310684343E868C31883CCB7
:1015E00083C3136801333340136063461B6812687A
:1015F00001333340934201D1FFF71AFF286919F0F4
:10160000FDFB05B0F0BD3900686919F03BFDD8E776
:10161000FA21F0B54900050085B0006919F032FDE6
:10162000AB686A689C4610681B68984201D105B097
:10163000F0BD0C211368E8684B4301ACC3182000CF
:10164000C2CBC2C00321136801330B401360634651
:101650001B68126802330B40934201D1FFF7ECFE86
:1016600007CCFFF751FFDBE7F0B5214B85B01B68D6
:1016700003900E0001920020012B08D01D4D1E4A40
:101680006B7829781B020B43934202D0012005B0EE
:10169000F0BD019A032AF9D933800423E978AA78A6
:1016A0000902114302912C1D7380F718029BEB185D
:1016B0009C4216D22388039A1B0B93420ED1628858
:1016C000738801999B188B42E0D8380021001DF0E7
:1016D000BBFC63887288FF189B1873806388002B9B
:1016E00004D10122024B00201A60D0E7E418DDE7A4
:1016F000801C0008A064021016200000F0B51E2512
:1017000089B0059300230F9F6D4404920E9E2B8099
:1017100006243F2F1BD92A001121012001F0FEFBD6
:101720000534002813D1109B2888043302930197B5
:101730000096059B049A094901F0AEFB002809D0E8
:10174000288801F00BFC0A3C288801F007FC2000E7
:1017500009B0F0BD109B04001E60F5E709000710FA
:10176000F0B50F26A7B01F002D9B182201932E9BCA
:10177000002100932F9B08A802932C9D1DF00EFDC5
:10178000602200210EA81DF009FD04ABF6183300FD
:1017900008AA60210EA800F06FF8041E02D00720EE
:1017A00027B0F0BD0A990029F9D00C9B0393002BB8
:1017B000F5D033780B9A3B60019B9A42EFD8280012
:1017C0001DF042FC0D9A029B9A42E8D80C990098B1
:1017D0000B9E1DF039FC309A0D9B60C20099319A26
:1017E00020000AC2DCE7000070B50C00061D0021D5
:1017F0000500042230001DF0D1FC0A4B3000E41833
:1018000061426141072349421940074BC91801F061
:10181000F1FA002801D1286070BD8630431E98413E
:101820000330F9E7401901000200000113B5036815
:10183000040000910192002B05D1002903D004304F
:1018400001F0F6FA206013BD37B51C000368009163
:101850000192002B0DD1231D04300D0001F0FDFA83
:10186000002803D10300256018003EBD05238A30FF
:10187000FAD00423F8E70000F0B589B00293002302
:10188000150004AA971C01903A001121012007932A
:101890003B8001F043FB0123002822D1388806AAAF
:1018A00005A901F0DBFB002801D0388816E0059B74
:1018B000484A190003921140474A9142F5D1474ADC
:1018C000069C1340464A93420ED1E408103420008F
:1018D0001DF072F806003888002E12D101F03EFB90
:1018E0000123180009B0F0BD3E4A934204D10323FE
:1018F000E4085C434A34EAE70734E408640001344E
:10190000E5E707AB2200310001F0CAFB002803D055
:1019100030001DF05BF8C8E70598039B2E4A034092
:1019200093424AD180B21738072846D821F082FD69
:10193000043D3F45454541430123029A1370079BEF
:10194000581E400823F0D0FE1CF002FC21F0BAFF24
:10195000079B0400581E400823F0C6FE1CF0F8FB4D
:1019600021F0B0FF002C2ED00022731C995C019F47
:10197000B9540132A242F9D13A19AF60EC60019238
:10198000002824D01C190023E25C0199CA540133B9
:101990008342F9D129616B6130001DF017F804AB67
:1019A000588801F0DBFA00239BE70223C5E70323F5
:1019B000C3E70423C1E70523BFE730001DF006F8A5
:1019C00004AB58888AE7AC60EC603300D8E7286144
:1019D0006861E1E70000FFEF00000360FFFFFFEF39
:1019E0000000016000000260024B1B6803600020E1
:1019F0007047C046841E000803207047F0B589B0C8
:101A000002AB01249D1D0023070001910C702A00E8
:101A1000112120002B800693079301F07FFA002804
:101A20004BD1288805AA04A901F018FB002840D151
:101A3000049B264A26491A408A423AD1254A059CE7
:101A40001340254A934227D1E408103420001CF0AB
:101A5000B3FF061E2DD0288806AB2200310001F00E
:101A60001FFB00282FD11D4907A801F0C3F900284A
:101A700029D1069A310007A801F0DAF901993B0053
:101A80000131202207A801F0E8F90400601E84411A
:101A900030001CF09BFF0DE0114A934204D1032358
:101AA000E4085C434A34D1E70734E40864000134B5
:101AB000CCE70124288801F051FA20003B6801336B
:101AC0003B6009B0F0BD0124E2E7C0460000FFEF33
:101AD00000000360FFFFFFEF00000160090000014C
:101AE00000000260032070470B0010B50268034934
:101AF00018001DF0A9FA002010BDC0467D64021038
:101B000010B502F035FDC02203009201904209D0C9
:101B10000AD880225201904204D08022920193423E
:101B200000D00023180010BDA022D2019042F9D0AD
:101B3000C022D2019042F5D08022D201EFE700000E
:101B40000C23036000487047706402100D2303608B
:101B50000048704762640210484248418000704764
:101B6000F0B50E258BB0039302ABED180290002365
:101B700001200F00160011212A00288008930993E4
:101B800001F0ACF9041E1AD1364A374908A801F011
:101B9000FBF9288808A901F0F9F9041E0FD1334A8E
:101BA000330C1B04934259D1029B2888002B2FD061
:101BB000202F07D087246442288801F0CFF9200025
:101BC0000BB0F0BD3B00029A310001F017FA041E81
:101BD000F2D1288806AA07A901F040FA041EEBD129
:101BE000C0228021079BD2051A40C9058A4217D11D
:101BF000069BDE1DF6082888119B109A039901F0B8
:101C00004FFA041ED8D1119B1B68B342D4D9D1E737
:101C10008022009423005200310001F05FFAD6E7E1
:101C2000134A14491A408A4203D1069BDE08103633
:101C3000E1E711498A4205D10326069BDB085E4392
:101C40004A36D8E70D4A060013400D4A9342D2D1D6
:101C5000069BDE1DF60876000136CCE78724644239
:101C6000ADE7C04609000710010C0000000003703A
:101C7000FFFFFFEF00000160000002600000FFEFC7
:101C800000000360F7B51600020005001F00089B66
:101C900098320C001160566006CB00F099FF2800C6
:101CA000E10FA030009533003A0000F03FFB041E26
:101CB00004D0033C60424441E01CFEBD02212800E8
:101CC00000F0D4FF2800052100F0D0FF2000F4E749
:101CD0007047D0B516001F000400CB170A0000F0B3
:101CE0008CFF32003B00200000F087FFD0BD73B5B1
:101CF000050016685468CB170A0000F07EFF32001A
:101D000028002300022100F08CFF73BD73B505008D
:101D100016685468CB170A0000F06FFF32002800E5
:101D20002300032100F07DFF73BD7FB50600002274
:101D30000D00052100F0BBFF6A460221300000F0D3
:101D4000B6FF30000099A030019A00F0F3FB0028A4
:101D500005D0033843425841033004B070BD02AC93
:101D60002100300000F0F0FF03000128F5D0022030
:101D7000002BF2D106CC06C51800EEE703000020C8
:101D8000242B05D005D8203B1800431E9841800025
:101D900070470020302BFBD0403BF5E710B51DF01D
:101DA00053F910BDF0B51D0087B0184B029101909A
:101DB00003925A882968D3180093154C002907D03C
:101DC00005AC20000422FFF7E9FF64882B681C198A
:101DD0003F27009BA34201D8002013E005AE042258
:101DE00021003000FFF7DAFF338801989A113A405A
:101DF0007188824208D101201F40029B1F70039B03
:101E00002C60198007B0F0BD6418E2E7841C00085C
:101E1000881C00080023F7B506000F0015001360AA
:101E20000A4A0B4B12889A420DD16B46DC1D3A00D0
:101E30002B0021000020FFF7B5FF012802D12378F5
:101E4000B342EDD1FEBD01204042FBE7841C0008F7
:101E50001620000037B51400022907D004290ED03F
:101E6000012912D10378236000203EBD6B469D1DE1
:101E70000A0001002800FFF791FF2B88F3E70A0012
:101E800001002000FFF78AFFEEE701204042ECE767
:101E900037B513000400092927D8080021F0CAFA31
:101EA0001012142325252525050B02212000FFF7FC
:101EB0001EFF00203EBD06212000FFF727FFF8E7A8
:101EC0000421F9E70521F1E701AA03CBFFF7C2FFDF
:101ED00005000520002DEDD1019A2B0003212000E3
:101EE000FFF7F7FEE5E70121E6E70520E2E700005E
:101EF000F0B54368CDB0060005920025242B03D130
:101F000003681D6A202343600722072300912A40AB
:101F10005B4229001AA8FFF7B5FE002806D002256B
:101F2000012800D0052528004DB0F0BD3200C6497B
:101F30001AA8FFF7DCFE8023DB051D4000D066E118
:101F4000082229000FA80DAE1DF028F90EAA3100B5
:101F500028000E95FFF75EFF012800D00BE10E9BD5
:101F600004330F933388043B0FAAB8491AA810937F
:101F7000FFF7BDFE0FA8FFF7E3FD11AE119000289B
:101F800006D00F9B3200B2491AA87360FFF7BEFE5D
:101F90000FA8FFF7DBFD1190002806D00F9B320041
:101FA000AC491AA87360FFF7B1FE212331000EA8D7
:101FB0000E93FFF723FD0325071EB4D10E9B0FAA36
:101FC000A5491AA810930F96FFF791FE1223082235
:101FD00039000FA80CAD0D931DF0E0F80EAA2900F2
:101FE00001200E97FFF716FF012800D0CFE00E9BCF
:101FF00004330F932B88043B0FAA98491AA8109317
:10200000FFF784FE202311AE0EAF310038000E938F
:10201000FFF76AFD0325002800D084E70E9B0FAA76
:102020008F491AA810930F96FFF761FE3000FFF753
:10203000DBFC051E00D076E7119B119A89491AA88E
:10204000DB17FFF746FE3200390002201195FFF73B
:10205000E1FE012800D0A5E03988119B0439181D44
:102060000FAAFFF7F7FE002800D05BE70F9B9AB29C
:10207000C023DB019A4200D954E700237A491AA809
:10208000FFF727FE01230024029300230A93774BD6
:10209000774A1B88934275D112226B4604A95218C5
:1020A0000F211B7A04A8049309180AAB0498FFF7C0
:1020B00079FE431C66D0012800D09BE00134012C3E
:1020C0000CD11AA8FFF704FE01236A4A5B42039071
:1020D00000F093FD0421039800F0C8FD3F270A9B00
:1020E0000BAD1900042228000C93FFF757FE6A88F5
:1020F00009AB1A802B8808AA3B401AA81370FFF777
:10210000E7FD05210500002600F0B0FD08AB1978B9
:10211000CB0800D184E0002E58D10C9B0DAE1900E5
:10212000042230000E93FFF739FE1623728804A9AB
:102130005B181A801122338852183B401AA813707A
:10214000FFF7C6FD112304AA9B181978CB082DD1DF
:10215000464B474A1B88934237D1162204A952188E
:10216000112104A809180EAB0498FFF71BFE0130DB
:102170000128E7D829E011AD29002020FFF73CFC19
:10218000002801D00325CEE60F952023ECE6310090
:102190000DA8FFF7A7FC0325002800D0C3E60F9683
:1021A0000D9B29E7FFF7ACFC020061E70E9B04AA38
:1021B0000433119316239B181B8811AA043B1AA8F9
:1021C0001293FFF765FE0028C2D00126274B284A4C
:1021D0001B8893420ED109AA0CAB08A90498FFF7FB
:1021E000E1FD0200431C05D000288FD10521280005
:1021F00000F05DFD029B01330293072B00D044E702
:10220000002C19D000220421039800F050FD0599FC
:102210001AA8FFF78AFD0025A84200D183E67EE6D2
:102220000C9B0FAA04330F9309AB1B881AA8043B1D
:102230001093FFF72DFEC9E7012200230E491AA8CB
:10224000FFF747FDE3E7C04600DBFEFF04DBFEFFD0
:10225000FEDAFEFF08DBFEFFFFDAFEFF03DBFEFF18
:1022600005DBFEFF07DBFEFF06DBFEFF841C00082C
:102270001620000002DBFEFF01DBFEFF802210B50E
:10228000920002490120FFF7EFF910BD841C0008FD
:1022900070B5136886B045680668029353682800D5
:1022A0001400009601950393FFF768FD002818D1EC
:1022B000012229003000FFF74FFC002811D1022233
:1022C00003990298FFF748FC00280AD104AA02A942
:1022D0006846FFF70DFE002803D1049B2360059B91
:1022E000636006B070BD0000002110B5036886B0C1
:1022F0001B6814680091029152680B490193039185
:102300000420032A0DD91800FFF738FD002808D152
:1023100004AA02A96846FFF7EBFD002801D1059B3E
:10232000236006B010BDC046FFFFFF7FF3B5060077
:10233000FFB010001F000D00079200F059F97B4B11
:102340000124984266D0079BF761B3613319DD77AA
:10235000869B7362002D60D020211FA811AA1590C2
:10236000169100F0CFF9041E54D100231222869852
:1023700000F077FC0421869800F078FC10223AAD3A
:10238000310028001892179600F022FC0521280041
:1023900000F06CFC01220023280000F02EFC079BBB
:1023A000079ADB17280000F028FC052128002200EE
:1023B00000F07DFC27A9280000F0C6FC002800D012
:1023C000B0E0279B289A33617261002B22D0330042
:1023D0002A00103303CB03C202216B683A9A869815
:1023E00000F01FFC119E129D0521869800F03EFC16
:1023F00004220023869800F000FC32000221869817
:102400002B003A963B9500F00CFC002205218698A3
:1024100000F04DFC20007FB0F6BD202127AB0993D2
:102420004B230C910E9111A91FA8059117AA0FA972
:102430000A930B920D900491139514950DAA02A97D
:1024400011CA11C16A460BAB03CB03C208AB29000A
:102450002A003800FFF784F9041EDBD10A9A099993
:102460003AA800F0B5FB05213AA800F0FFFB0122D5
:1024700000233AA800F0C1FB022200233AA800F092
:10248000BCFB089D01225242D317EF173AA800F077
:10249000B4FB2A003B003AA800F0AFFB0F9F109D51
:1024A00002225242D3173AA800F0A7FB2B003A00B1
:1024B00002213AA81597169500F0B3FB119F129DC3
:1024C00003225242D3173AA800F097FB2B003A00A0
:1024D00002213AA81597169500F0A3FB22000521CA
:1024E0003AA800F0E4FB15A93AA800F02DFC02344C
:1024F000002800D08EE71FAB179320230C493AA881
:102500001893FFF771F9041E00D083E71599169A06
:102510003AA8FFF78BF911AB1799189A3AA8FFF769
:1025200093F920E7220023004DE7C046FFFFFF7F1D
:10253000C0E6FEFFF0B5ABB007921AAA0C92402598
:102540002022040006910CAE12A90F9275600E9124
:1025500006AB02A8944684CB84C02300684610339F
:1025600084CB84C008AB6246A06900F04FF8071E18
:102570002CD1631CDB7F002B2BD00600089B05931E
:10258000099B0493049B2A009D4200D91A001AABB0
:10259000981905991CF058FD049BF618ED1A3F2E6A
:1025A000F0D91AAB0A9340230B93656A08220AA953
:1025B00010A81CF049FD109A02212800119B00F080
:1025C00030FB00220421606A00F071FB38002BB060
:1025D000F0BD0AAB02936B4606CE06C3089A099B70
:1025E000E169A069FFF78AF80028DED00700EDE76F
:1025F000073043425841034B40421840024BC01839
:102600007047C046C1E6FE7FFFFFFF7FF3B5FFB016
:10261000029103920BA92122050014A8019300F056
:10262000D7FA042114A800F021FB334C3AAE200065
:102630001DF0CEF82200030003213B9014A83A9429
:1026400000F0EFFA3300002486AF06CF06C314A8CB
:102650003A9A879B022100F0E4FA2200230002212B
:1026600014A83A943B9400F0DCFA220023000221E3
:1026700014A83A943B9400F0D4FA230022000221DB
:1026800014A83A943B9400F0CCFA2200042114A838
:1026900000F00DFB07A914A800F056FB030014205E
:1026A000A34222D1073569426941144D4942144B76
:1026B0002940C9183000FFF797F8A04215D10899B2
:1026C0008A1E914213D209900A9009990A9A300001
:1026D000FFF7ACF888997A683000FFF7A7F8019BFC
:1026E0000299039A3000FFF7AFF87FB0F6BD079B61
:1026F0000A920993E9E7C0466C650210C1E6FE7FC5
:10270000FFFFFF7F70B5202492B00AAE02900391C4
:1027100015000E49220030001CF096FC6A46099410
:10272000089608AB03CB03C204AC039A02992000BD
:10273000002300F081F9230006CB06C5236807209B
:102740005A4253415B42184012B070BD4C650210B2
:10275000F0B597B0802170200906FEF7C7FB102363
:102760000700184215D0302200210AA81CF016FDDF
:102770000AA91020FEF7DCFB041E0AD10A9B022BDB
:1027800021D0032B01D0012B64D121000B98FEF73F
:1027900095FD2024274200D18EE0302200210AA896
:1027A0001CF0FCFC0AA92000FEF7C2FB011E00D0B1
:1027B00082E00A9B022B52D0032B02D0012B00D0C7
:1027C00093E00C0074E00E9901201BF051FD051EF2
:1027D0001AD00E9B020021000B98FEF703FD0E9B02
:1027E0000393984207D028001CF0F0F84322724966
:1027F000724816F03DFD129901201BF039FD061EAE
:1028000004D128001CF0E2F80524BEE70E9B0695D3
:102810000793129B089003930993FFF72FFD041E63
:1028200006D028001CF0D2F830001CF0CFF8ACE73E
:10283000634B0C9A06A81A60012308AA1900FFF737
:1028400027FD041EEDD10100099B089A0B98FEF7A5
:10285000E9FCE6E7632258495A4816F009FD04AD41
:102860000E9B2A000B98FEF7BDFC0E9B039398422B
:1028700002D080225449BBE705AB0893129B069512
:10288000079003930993FFF7F9FC041E10D14C4BFA
:102890000C9A06A81A60012308AA1900FFF724FD64
:1028A000041E05D10100099B089A0B98FEF7BAFC9B
:1028B00021000B98FEF702FD4024274200D149E792
:1028C000302200210AA81CF069FC0AA92000FEF7AA
:1028D0002FFB011E00D03DE70A9B022B08D0032BE3
:1028E00001D0012B64D10C0025E095223649B3E7D5
:1028F0000E9B06908724042B58D108AA0B98FEF74C
:1029000071FC0E9B0393984202D0B8222F496FE7C7
:10291000129901201BF0ACFC061E46D00F9900292D
:1029200020D001201BF0A4FC0400051E08D13000BB
:102930001CF04CF88D3C21000B98FEF7BFFC09E71A
:102940000F9B020001210B98FEF74CFC0F9B039399
:10295000984208D030001CF039F820001CF036F8FE
:10296000CD22D3E70D00129B06AF0393009301978E
:102970003300089A0F992800FFF7F2F8041E05D1DA
:102980000100069B32000B98FEF74CFC0B980423C9
:102990003A000121FEF746FC30001CF017F8002D2C
:1029A000C9D028001CF012F8C5E78D246442C2E7A4
:1029B000E622064950E7C04677650210015802102A
:1029C000841E0008DE5702108C650210A6650210F6
:1029D00010B5041E04D176220F49104816F048FCA9
:1029E0000F4818F0DFF9E061002810D00D4B0E4AB7
:1029F0009C629C649C60E36000210C4819F034F8F0
:102A00006060002807D1852203490948E6E77B2258
:102A100001490848E2E710BDBC6502103C580210AD
:102A20006C6602101403000874030008512700109C
:102A300028660210E8650210F7B5050000911C0039
:102A4000934203D8099ED21AB24204D200232B60CB
:102A50006B602800FEBD009F3200F8180899A41989
:102A60001CF0F2FA2F606C60F3E7000082B06B4656
:102A70005A60054A0091828100228260827306CBEF
:102A800006C002B07047C0460F0B000073B500913E
:102A900001921E00837B0400002B05D1124B82891A
:102AA0009A4202D00123A37373BD826843689A429D
:102AB000F8D8019D9B1AAB42F4D3B242F2D3921BD9
:102AC00006D00168002903D0891948191CF00EFBB3
:102AD0002068002804D080192A0000991CF006FB09
:102AE000A3685D19A560DFE70F0B00008B7B10B5B5
:102AF000002B03D000230360436010BD054A8C897E
:102B0000944202D001228A73F5E78B6843600B6818
:102B10000360F2E70F0B0000F0B515248BB0119D98
:102B200004AB0290039101921098E418002D2FD16C
:102B300017282DD8002A2ED12100C0B2039B0139BD
:102B40005B01C0180870621A129B0298FFF79EFF83
:102B50000BB0F0BD114EF75C0E00013EF2439446FF
:102B60008C4467450EDC019A0133D21BC91B0192CC
:102B7000DBB206002E43EDD1019A002AEADC1733BE
:102B8000D8B2DBE72A063070000A10432D0AE4E7CA
:102B900000232100EDE72B00FBE7C04698660210FA
:102BA0001FB584680092019302940022FFF7B4FFDE
:102BB0001FBD00008388054A0321D21A012A02DDC5
:102BC00000210133838008007047C046FEFF0000EB
:102BD00013B5040000910192002198221CF0DEFA46
:102BE000019A00992000FFF741FF220023001432D0
:102BF00094331A600423A37613BD10B5017C04003E
:102C000000290DD1002B02DAD243DB430131200031
:102C1000FFF7C6FF230094331868FFF7CBFF20743B
:102C200010BD30B585B06D4600926B60037C04002A
:102C3000002B14D1092902D0019AFFF7B1FF2A0015
:102C400002AB03CA03C32000A36802996A68FFF7B6
:102C50001DFF230094331868FFF7ACFF207405B004
:102C600030BD10B50621FFF79BFF10BDF8B505007C
:102C70009435040028680E00FFF79CFF207400289C
:102C800005D1A7683B00663302D907232374F8BD3A
:102C900022002B688C320221934206D01A000100D8
:102CA00008322A6098819F609E732174EFE7F0B527
:102CB000037C89B004000D001700002B08D106002A
:102CC0000200943633681432934203D104232374F0
:102CD00009B0F0BD9A798A4201D01023F7E71A684B
:102CE000049282680592022924D11300049A981A4A
:102CF000049B009002930023290001931A002000F6
:102D0000FFF70AFF002F11D0210006A8FFF7EEFE03
:102D1000059A049B06999B1AA2689B18079A9342EE
:102D20000FD8D21A002900D0C91806C73368083B4B
:102D30003360CDE70339988889B220F08FFB80B2E9
:102D4000D6E700221100F0E773B5057C0E00002DD8
:102D50000FD1030094331A68803B9A420BD1837BD6
:102D6000002B0AD16C4601002000FFF7BFFE0CCCFF
:102D70000CC6280076BD0A25FBE70125F9E710B54A
:102D80000C000121FDF792FE00232060984200DC38
:102D9000913B180010BD73B5040006A820C8067842
:102DA000206800280CDD0095FDF7ECFE0500002EE4
:102DB00004D02068FDF748FF00232360280076BD7B
:102DC00089256D42FAE77FB51E0000230C0003A998
:102DD00015000393FFF7D3FF002809D101230193C6
:102DE000089B2A0000932100330003A8FFF7D3FFBC
:102DF00004B070BD0E2210B586B002AB1A7000226E
:102E000004935A80082304000391010007480593A6
:102E1000FFF7B5FF002807D10190009003000122C1
:102E200004A92000FFF7B7FF06B010BD020F000095
:102E30000F2310B588B002AC237000230494638084
:102E400008240691079201930093022204A9039398
:102E50000594FFF7A0FF08B010BD30B510248FB067
:102E60001500039204AA14700024069254800822CC
:102E7000079203AA089204220C93012309920D924F
:102E8000023A0A91019300920AAB06A905940B95A8
:102E9000FFF781FF0FB030BD30B58FB00993129BA3
:102EA00003910A93139B00210B93149B08920C939C
:102EB00002222425042302AC049105911031608084
:102EC000257007910D9300920AAB06A9024806945B
:102ED000FFF779FF0FB030BD030F000000B58FB0D2
:102EE0000391118806AB19800021089104311973F0
:102EF0000A9310230B9303AB0C9301230492022239
:102F000007900D9100930AA904AB03480592FFF7BF
:102F10005AFF0FB000BDC046060F000000B58FB0CD
:102F20000391118806AB19800021089105311973AE
:102F30000A9310230B9303AB0C93042304920222F5
:102F40000D93033B079000930AA904AB0248059236
:102F5000FFF739FF0FB000BD060F0000062100B5D6
:102F600089B004AA002310801173029210220093EA
:102F7000039202A90F3A034805930693FFF723FF34
:102F800009B000BD060F000006C0704700B58BB049
:102F900002AA10800B20069210731022089107924B
:102FA0004A1E91410023C90009910093022206A9FB
:102FB000034803930493FFF706FF0BB000BDC04620
:102FC000060F0000002200B58BB006AB07920892F6
:102FD0000C3218801A7302931023049103934B1E32
:102FE00099410B3AC9000591009204AB02A902482D
:102FF000FFF7E9FE0BB000BD060F000070B58AB008
:1030000016001D00049100230222102102AC208032
:1030100022730791009306A9044803930694089627
:103020000995FFF7D0FE0AB070BDC046060F00003C
:10303000072100B589B004AA002310801173029201
:1030400010220093039202A90F3A034805930693B6
:10305000FFF7B9FE09B000BD060F000000B58DB046
:1030600004AB188000200590069008301873029376
:103070001023089103930A924B1E9941531E9A41C3
:1030800002238900920009910B920093012208AB60
:1030900002A90248FFF797FE0DB000BD060F000021
:1030A00010B58CB004AC208000200A930423059056
:1030B00006900A3020730B930630023B0390089170
:1030C00009920093012208AB02A903480294FFF77A
:1030D0007AFE0CB010BDC046060F000030B58FB0B0
:1030E00003921D1E129C04D1002C04D08720404264
:1030F00017E0002CFAD00691292104AA1080117340
:1031000008921022099203AA00230A920422009333
:103110000B9208A9013A044805930C950D94FFF70A
:1031200052FE0FB030BDC046060F0000802210B521
:103130005200002101481CF031F810BDE83E0008A3
:10314000802210B55200002101481CF027F810BD64
:10315000E83E00080B4A70B5002314001588002DC6
:1031600007D15568002D04D1DB00E052E318596007
:1031700070BD01330832202BF0D13B2202490348B5
:1031800016F076F8E83E00089C660210F26602101F
:10319000002370B5084ADC00A1180D88854203D1D0
:1031A0000023A3524B6070BD0133202BF3D1482282
:1031B0000249034816F05CF8E83E0008C6660210B3
:1031C0002A670210002210B5074B1C88844202D1E6
:1031D0005C688C4205D001320833202AF5D10020EA
:1031E00010BD0120FCE7C046E83E0008084B5A68C5
:1031F000904204D01A690121904201D07047002109
:103200000C224A43002199509B1859601972F5E726
:10321000E83F0008F0B599B0302200210CA81BF05F
:10322000BDFF80200CA98001FDF782FE041E16D18F
:103230000C9B022B15D0032B00D1EBE0012B00D00F
:10324000F0E0FC21180049001BF012F8011E40D0EC
:103250000D98FEF7D1F821000D98FEF72FF819B060
:10326000F0BD09AD01000C2228001BF097FF109B58
:103270000C2B00D0CAE02A0021000D98FDF7B2FF08
:10328000109B0593834204D0694A6A496A4815F045
:10329000EFFF28782A38052800D9B9E020F0CAF8CD
:1032A00003122C4E5295002308A90F98089304F09E
:1032B000EBFF041ECFD10100042308AA0D98FDF7EF
:1032C000B1FFC8E7149E012031001AF0D1FF051E9E
:1032D00001D18D243DE0010032000F9804F0DEFFA3
:1032E000041E05D1010033002A000D98FDF79AFF56
:1032F00028001BF06BFBAEE768880E99FFF762FFB2
:10330000002825D0119B07AA01210D98FDF76AFF1F
:10331000042801D0494AB8E7129B08AA02210D9857
:10332000FDF760FF042801D0454AAEE768880F9B8F
:10333000089A079905F01EF904008CE70F9804F02D
:1033400059FFF9E768880E99FFF73CFF002802D182
:10335000882464427FE7119901201AF089FF061E34
:10336000B7D0119B020001210D98FDF73BFF119B87
:103370000593834201D0334A87E7129901201AF05E
:1033800077FF071E03D130001BF020FBA1E7129B43
:10339000020002210D98FDF725FF129B834201D008
:1033A000294A72E76988AA680293119B03920093E5
:1033B000019705936A6833000F9805F008F9040037
:1033C00038001BF003FB300093E768880E99FFF785
:1033D000F9FE0028BCD0119901201AF049FF061E01
:1033E00000D176E7119B020001210D98FDF7FAFE4E
:1033F000119B834201D0154A47E76A6869880F9894
:103400000092320005F01EF90400DCE79124A0E7E9
:1034100086249EE70F9804F0EDFE0F98002800D058
:1034200067E718E70A4A03490A4815F021FFC04632
:10343000FC05000046680210015802102D0600002D
:1034400033060000520600005F06000081060000FF
:103450009E060000DE570210F0B5A5B08021C248DC
:103460000906FDF743FD10220990104229D00021E2
:10347000203218A81BF092FE18A91020FDF758FD65
:1034800000281ED1189B022B06D0032B02D0012B43
:1034900000D0CCE0040010E005F0ACFA041E0CD122
:1034A000B24A136801331360012B06D101001822C0
:1034B000AF481BF073FEFFF739FE21001998FDF7A6
:1034C000FDFE2024099B234223D03022002118A88E
:1034D0001BF064FE200018A9FDF72AFD041E18D178
:1034E000189B022B00D1A7E0032B00D17FE1012B19
:1034F00000D084E1B421180049001AF0B9FE011E81
:1035000000D180E11998FDF777FF21001998FDF7A8
:10351000D5FE4024099B234222D03022002118A846
:103520001BF03CFE200018A9FDF702FD041E17D178
:10353000189B022B00D168E1032B00D183E2012B01
:1035400000D08BE2E02118001AF092FE011E00D19B
:1035500087E21998FDF750FF21001998FDF7AEFE9C
:103560008024099B6400234222D03022002118A825
:103570001BF014FE18A92000FDF7DAFC061E17D177
:10358000189B022B00D16EE2032B00D14EE3012BDE
:1035900000D052E34C2118001AF06AFE011E00D13F
:1035A0004EE31998FDF728FF31001998FDF786FEC4
:1035B0008024099B234218D03022002118A81BF038
:1035C000EDFD18A92000FDF7B3FC071E0DD1189BD7
:1035D000022B00D136E3032B03D0012B01D000F0E6
:1035E00026FC39001998FDF769FE8024099BA40088
:1035F000234201D100F0AFFC3022002118A81BF0BB
:10360000CDFD18A92000FDF793FC051E01D000F0A8
:10361000A2FC189B022B01D100F00DFC032B03D060
:10362000012B01D000F0DEFC2C0000F090FC922277
:103630005049514815F01CFE0FAD0100082228002A
:103640001BF0ACFD1C9B082B00D0CAE02A00210017
:103650001998FDF7C7FD1C9B0A93984204D0E122FC
:103660004649474800F02BFE28781538052800D930
:10367000B9E01FF0DFFE03131F4D87B268881A9967
:10368000FFF7A0FD002802D1882464423DE7698845
:103690006A681B9803F0BCFF040036E768881A9933
:1036A000FFF790FD0028EFD069886A681B9803F047
:1036B000B4FFF1E7C8231D9D5B0029009D4200D99E
:1036C000190001201AF0D4FD071E00D18DE0002D55
:1036D00004D12C0038001BF079F916E7C8232E001E
:1036E0005B009D4200D91E0033003A000121199869
:1036F000FDF778FD864202D089225200B0E7320001
:1037000039001B9803F08EFF041EE3D1AD1BDEE7EA
:1037100000241D9B0CAA012119980C94FDF762FD51
:103720001D9B0A93984201D09522E6E70C9901204F
:103730000D941AF09DFD051E57D001000DAB0C9A9B
:103740001B9803F09FFF041E0BD101000D9B2A0064
:103750001998FDF767FD04230DAA01211998FDF7BB
:1037600061FD2800B7E7C046F07F00000040000878
:10377000E83F000864670210DE57021098670210E5
:103780000158021000230DAA0D9301211D9B1998C9
:10379000FDF728FD1D9B0A93984203D11E990D9BAE
:1037A000994201D0A322A8E701201AF061FD051E6D
:1037B0001BD01E9B020002211998FDF713FD1E9BD2
:1037C0000A93984202D05222FF3249E70D9A29000B
:1037D0001B9803F086FF0400C3E71B9803F0EEFD7F
:1037E0005AE7912451E786244FE78D244DE71B9833
:1037F00003F0E4FD1B98002800D06CE785E67422F6
:10380000B749FF3215E7B74C7FE60FAD010008223C
:1038100028001BF0C3FC1C9B082B00D00DE12A00E4
:1038200021001998FDF7DEFC1C9B0A93984203D0F7
:10383000CD225200AC4914E728780E38062800D96A
:10384000FDE01FF0F7FD040A37689398CE00696821
:103850001B9803F04BF904007EE6C8231D9D5B0016
:1038600029009D4200D9190001201AF001FD071E10
:1038700000D1E6E0002D04D12C0038001BF0A6F8A2
:103880006AE6C8232E005B009D4200D91E0033006B
:103890003A0001211998FDF7A5FC864201D0DB22F0
:1038A000C7E7320039001B9803F064F9041EE4D125
:1038B000AD1BDFE700241D9B0CAA012119980C9475
:1038C000FDF790FC1D9B0A93984201D0E722B0E7D8
:1038D0000C9901200D941AF0CBFC051E00D1B0E02C
:1038E00001000DAB0C9A1B9803F04CF9041E0BD190
:1038F00001000D9B2A001998FDF794FC04230DAAE2
:1039000001211998FDF78EFC28001BF05FF81B9829
:10391000FFF76CFC20E600230DAA0D9301211D9BEF
:103920001998FDF75FFC1D9B0A93984203D11E99DD
:103930000D9B994202D0EC22FF327BE701201AF066
:1039400097FC051E7DD01E9B020002211998FDF7F1
:1039500049FC1E9B0A93984201D0FB2269E70D9A0D
:1039600029001B9803F0D6FC0400CDE71B9803F058
:103970006FF80400CBE700255C4B1A981A680D9588
:103980001B99904202D15E68B14214D0DD68A84212
:1039900013D11E69B14210D101220D920C214A436C
:1039A0009B181A7A002101321A72199804230DAA61
:1039B000FDF738FCD0E52A00F0E700260D96B2426C
:1039C00002D15E68002E06D0002D33D11A69002A7C
:1039D00030D101320D920C256A4398509B185960E2
:1039E000DFE71D9B0DAA01211998FDF7FBFB1D9B2D
:1039F0000A93984202D0852292001BE70D9B1A9AE7
:103A0000012B17D80C255D43384FEB599A4211D141
:103A10007E19706800280DD01B9903F09BFC337A47
:103A20000400013BDBB23372002B00D094E5EB5174
:103A3000736091E5892464428EE59124FBE7862436
:103A4000F9E78D24F7E71B9803F002F81B9800288C
:103A500000D181E5FFF7CAFB1B980FE7244A2249F2
:103A6000E7E5204C78E50DAC0100082220001BF0B2
:103A700095FB1C9B082B00D0D4E022003100199844
:103A8000FDF7B0FB1C9B0A93984202D0194A1A49D1
:103A9000E7E520781B38062800D9C5E01FF0CAFCEE
:103AA00004142E4B629FBE0060881A99FFF78AFBB0
:103AB000002802D18826764276E5618862681B98E4
:103AC00004F09EF906006FE560881A99FFF77AFB0B
:103AD0000028EFD0618862681B9804F096F9F1E73E
:103AE0009867021001000080AA670210E83F0008F2
:103AF0003302000095030000E96702100021209CBA
:103B000010220FA80C911BF049FB0CAB22000FA94F
:103B10001B9804F0A1F9061E00D045E50C9B0FAAE6
:103B200001001998FDF77EFB04230CAA01211998C6
:103B3000FDF778FB38E51D9C102200210FA81BF033
:103B40002DFB23000FAA01211998FDF74BFB84429E
:103B500002D0F22292009AE722000FA91B9804F0EB
:103B600059F9AFE700231D9E01203100209F0F93DC
:103B70001AF07EFB041E12D00200330001211998B6
:103B8000FDF730FB864201D0C74A80E739000120AB
:103B90001AF06EFB051E04D120001AF017FF8D26C7
:103BA00089E70FAB019332000300009721001B98B7
:103BB00004F07EF9061E0BD101000F9B2A00199814
:103BC000FDF730FB04230FAA01211998FDF72AFB0A
:103BD00020001AF0FBFE28001AF0F8FEE4E40023AF
:103BE000209D012029000F931AF042FB041ED6D01D
:103BF00001000FAB2A001B9804F08EF9061E0BD1B2
:103C000001000F9B22001998FDF70CFB04230FAA5B
:103C100001211998FDF706FB2000DDE71B9804F051
:103C200023F84FE7912646E7862644E71B9804F0E1
:103C30001BF81B980028CFD1B6E49C4A9C49F8E4B5
:103C40009C4EB1E41C9B0A93102B00D0E7E0199D19
:103C50000FAC0100102220001BF0A0FA102322005C
:103C600039002800FDF7BEFA1C9B0A93984202D047
:103C7000952292002BE060881A99FFF7A3FA00289A
:103C800000D1D0E020782438032800D9CDE01FF0FF
:103C9000D1FB024179790023209901200D931AF07C
:103CA000E7FA041E51D01D9901201AF0E1FA05002F
:103CB0002000002D47D01D9B2A0001211998FDF7F7
:103CC00091FA1D9A03000A92904202D07A4A7B49E7
:103CD000C7E40FA90DAA48880292209A00940A927C
:103CE000019210992A0003F033FD071E05D101004F
:103CF0000D9B22001998FDF795FA04230DAA0121C6
:103D00001998FDF78FFA28001AF060FE20001AF0CB
:103D10005DFE66E41D9901201AF0AAFA051E14D072
:103D20001D9B020001211998FDF75CFA1D9B0A9367
:103D3000984201D0624ACAE71E9901201AF098FA07
:103D4000061E04D128001AF041FE8D2768E002000B
:103D50001E9B02211998FDF745FA1E9A03000A924C
:103D6000904201D0574AB2E71D9A608801920095AF
:103D70003200616803F0E8FD070028001AF026FE13
:103D80003000C4E700231D9901200D931AF070FA4A
:103D9000051EDAD01D9B020001211998FDF722FAB9
:103DA0001D9B0A93984201D0B02262E7A368209934
:103DB000EB1801200A931AF05BFA061EC2D0A36822
:103DC00060886168E26824780B93A4466346209F6C
:103DD0000DAC0494039702960192262B18D10A9BEE
:103DE0002A0000930B9B03F063FE071E05D1010020
:103DF0000D9B32001998FDF715FA042322000121CA
:103E00001998FDF70FFA30001AF0E0FD28007EE760
:103E10000A9B2A0000930B9B03F0BEFEE5E7912767
:103E20007F42FFF7DEFB8827FAE78627F8E7264A76
:103E30002249FFF7FEFB1C9E9124242E57D1199F87
:103E40000FAC0100320020001BF0A8F93300220063
:103E500029003800FDF7C6F91C9B0A93984204D04C
:103E6000C62292001949FFF7FCFB60881A99FFF7F8
:103E7000A9F9002800D1B1E02378223B012B00D919
:103E8000AEE01D9901200D951AF0F2F9051E2DD016
:103E90001D9B020001211998FDF7A4F91D9B0A93AF
:103EA000984217D00A4ADDE7DF030000240400002F
:103EB000E96702100100008073020000BD67021074
:103EC00095020000A2020000F7020000D66702106F
:103ED00032030000E3682099EB1801200A931AF0DE
:103EE000C7F9061E05D128001AF070FD8D24644222
:103EF0002DE0E2682389608861689446226924780D
:103F0000209F0B9323000DAC069405970496039213
:103F1000222B59D10A9B00950293634614AA019360
:103F20000B9B04F077F8041E0BD101000D9B3200AF
:103F30001998FDF777F904230DAA01211998FDF7C7
:103F400071F928001AF042FD30001AF03FFD2100FF
:103F50001998FDF7B3F98024099BE400234216D099
:103F60003022002118A81BF019F9200018A9FCF72D
:103F7000DFFF041E0BD1189B022B38D0032B02D07D
:103F8000012B00D0E2E121001998FDF797F9802478
:103F9000099B2401234200D1F5E10021302218A819
:103FA0001BF0FCF818A92000FCF7C2FF002800D085
:103FB000E9E1189B022B00D1CCE1032B02D0012BAD
:103FC00000D021E20400DAE10A9B009502936346E7
:103FD00014AA01930B9B04F08FF8A4E7882486E7CA
:103FE000862484E7DB22B7499200FFF722FB1C9B63
:103FF0000A93102B00D0A3E1199E0FAD01001022EF
:1040000028001BF0CBF810232A0021003000FDF718
:10401000E9F81C9B0A93984203D0AB4AAB49FFF7DF
:1040200020FB287B1A9E0238272800D98AE11FF03E
:104030000BFA5E002701340164017C0181009100CC
:10404000B900DF003A005200280089018901890186
:104050008901890189018901890189018901890110
:104060008901890189018901890189018901890100
:1040700089018901890189018901890189018901F0
:10408000F50028883100209FFFF79CF8002835D0E4
:1040900028880DA903F0B2FF041E00D073E73B008F
:1040A0000DAA210077E0288831001D9CFFF78AF8CF
:1040B000002823D023000DAA01211998FDF792F8BA
:1040C000844202D08E22D200A8E728880DA903F0EE
:1040D0006FFF040057E728883100209FFFF772F830
:1040E00000280BD028880DA903F078FFD4E7288892
:1040F00031001D9CFFF766F8002802D18824644235
:1041000041E7210001201AF0B3F8061E00D11BE19F
:104110000200230001211998FDF764F8844201D0C0
:104120006B4A7BE7288823003200A96802F000FC74
:10413000040059E028883100FFF744F80028DDD05A
:10414000288802F021FC041E00D01CE72888FFF715
:104150001FF818E70023288831000C930D93FFF710
:1041600031F800281BD028880DAA0CA902F023FCE6
:104170000400209B0A93032B05D904230CAA0021D9
:104180001998FDF74FF8219B0A93032B00D8FAE604
:10419000042301210DAA1998FDF744F8F3E68824B9
:1041A0006442E6E728883100209CFFF70BF80028DE
:1041B000A4D0210001201AF05BF8061E00D1C3E054
:1041C00028880DAB2200310002F016FC041E05D138
:1041D00001000D9B32001998FDF724F804230DAA65
:1041E00001211998FDF71EF830001AF0EFFBCAE61E
:1041F00028883100209CFEF7E5FF002800D17DE7EC
:10420000210001201AF034F8061E00D19CE0288815
:104210000DAB2200310002F004FCD7E72888310002
:104220001D9F1E9CFEF7CEFF002800D166E73B00D5
:104230000DAA01211998FCF7D5FF874201D0254A24
:10424000ECE6254BAA6800269A4211D1B4420FD061
:10425000210001201AF00CF80200061E74D0230081
:1042600002211998FCF7BEFF844201D01B4AD5E613
:104270002888009433000D9AA96804F0BDFA57E726
:10428000280004F0A5FC041E00D07CE6288831003C
:10429000FEF760FF02232A0003E71D9B0DAA012100
:1042A00019980E96FCF79EFF1D9B0A93984201D029
:1042B0000B4AB3E6042819D00A4A04490A4814F004
:1042C000D7FFC046D66702104904000001680210FB
:1042D0009B04000011050000000001701E05000095
:1042E000390500003D050000666802102B000D999D
:1042F0000E9A686804F097FCC5E71D9B0DAA012182
:1043000019980E96FCF76EFF1D9B0A93984201D0F8
:10431000604A83E6042801D05F4ACEE72B000D995E
:104320000E9A686804F05AFCADE728883100FEF761
:1043300049FF002800D1E1E6288804F0A1FC02E74B
:104340009124DCE68624DAE68D24D8E6534A5449E3
:10435000FFF76FF9209E0120310019F089FF051E3B
:1043600056D0310004F006FA041E05D101003300D6
:104370002A001998FCF756FF28001AF027FB2100A5
:104380001998FCF79BFF8024099B6401234215D0F8
:104390000021302218A81AF001FF18A92000FCF70C
:1043A000C7FD00280AD1189B022B34D0032B01D063
:1043B000012B42D100211998FCF780FF099B9B0437
:1043C00001D5FEF727FF8024099BE401234201D198
:1043D000FFF744F83022002118A81AF0DFFE200071
:1043E00018A9FCF7A5FD041E01D0FFF737F8189BAC
:1043F000022B26D0032B01D0012B42D1210019988A
:10440000FCF75CFFFFF72AF8264A2749FFF711F966
:104410008D246442B3E7254A1368002B01DD013B7C
:10442000136011680029C5D1182221481AF0B6FE80
:10443000FEF786FE04F0C2FABCE7BA221D49FFF778
:10444000F8F880231C9DDB009D421ED82900012026
:1044500019F00EFF061E1BD002002B002100199838
:10446000FCF7C0FE854203D0134A1449FFF7F9F860
:104470002900300004F094F9040030001AF0A6FA84
:10448000BCE70F4A0D49FFF7D4F887246442B5E72B
:104490008D24FBE74E050000520500007605000064
:1044A00001680210D30500003468021000400008C3
:1044B000E83F00087E6702109E0500001E6802109B
:1044C000AA05000010B5041E04D1D32211491248D8
:1044D00014F0CEFE114816F065FCE061002803D10F
:1044E000D8220C490E48F3E70E4B00221900013286
:1044F0009C6020330B2AFAD1E1600B4A00210B4863
:1045000017F0B2FA6060002803D1E222014908489E
:10451000DEE710BD9F6802103C580210446902108B
:10452000C068021098030008F8040008593400100D
:104530000069021080235B01036000207047802324
:1045400010B55B01984202D100F0DEFB10BD862061
:104550004042FBE7BFF34F8F034B044ADA60BFF3DF
:104560004F8FC046FDE7C04600ED00E00400FA05AD
:10457000882030B5012187B04002FCF797FA00246B
:1045800005002000A54215DD03AB04930423059329
:10459000033B0093220004AB210028000394FCF7A6
:1045A000F1FA80231B06984200D103942800FCF7FF
:1045B0004BFB039807B030BD10B5FFF7CBFF036985
:1045C00007B5042B02D0802000060EBD01AA0021F1
:1045D0004068FCF707FE0428F5D10198FFF7AFFF0C
:1045E000F3E773B5066A0500042E0CD101A8FFF7A6
:1045F000A1FF041E05D10100330001AA6868FCF781
:1046000011FE200076BD80242406FAE7036810B569
:104610000400022B05D0032B01D0012B07D1002170
:1046200001E0884701006068FCF748FE10BD4A229F
:104630000149024814F01CFE7069021080690210E2
:1046400070B58CB030220021684680261AF0A6FD95
:104650001025360631007020FCF748FC0400284283
:1046600009D069462800FCF763FC0028F2D10E4906
:104670006846FFF7CBFF2020044208D06946FCF7CC
:1046800057FC0028E6D109496846FFF7BFFF4020E4
:104690000442DFD06946FCF74BFC0028DAD104491C
:1046A0006846FFF7B3FFD5E7E3450010BF450010AC
:1046B000B945001010B5041E04D170220F491048EE
:1046C00014F0D6FD0F4816F06DFBE061002810D005
:1046D0000D4B0E4A9C629C649C60E36000210C4878
:1046E00017F0C2F96060002807D17F22034909480A
:1046F000E6E7752201490848E2E710BDA469021007
:104700003C580210386A02101C0500087C0500089D
:1047100041460010F6690210B8690210184B984221
:1047200024D010DC174B984222D004DC164B984260
:1047300020D0842312E0154B98421DD0144B984290
:10474000F7D18E230AE0134B984209DC124B9842B2
:1047500014DA124BC01892230128EAD85B4203E016
:104760000023984200D0843B180070478523F5E76A
:104770009823F3E78723F1E78C23EFE79523EDE711
:104780001201FF800201FF800101FF800701FF800D
:104790000B01FF804601FF804501FF80E5FE007FA1
:1047A000F0B53F240021A446059D0F4E67462F40DB
:1047B000F75D4C1CE4B24754AD0913D123350231E7
:1047C0000555C9B21C3517002F40F75D4C1C4754E6
:1047D000920999060A43E1B214009B091C43F2D1E5
:1047E0004454F0BD2100E1E7606A0210F0B589B0E1
:1047F0000393002315000693026807930193059322
:1048000005AB00939769082306AA04000E00B84779
:1048100000280FD1059B01001848082B0FD1069ADC
:104820002B689A4204D80CD1079A6B689A4208D92F
:10483000134804E0134B01219842F0D0124814F0C1
:1048400017FD9A4215D22A0006A92000039B98471B
:1048500000280CD10022236800925F692A000823F7
:1048600031002000B847002805D00848E7E708488D
:10487000E5E70029EED109B0F0BDC046A06A0210FC
:10488000EC6A02100701FF80C46A0210386B021044
:104890001B6B0210F0B51D00012389B00F001099A9
:1048A00004001600994319D113002B4319D0132289
:1048B00003A81AF073FC2B00320003A80097FFF73F
:1048C0006FFF109A236800925D690F9A0E9B03A9EF
:1048D0002000A847FFF722FF09B0F0BD8620404224
:1048E000FAE78720FBE7F0B51D0013008BB004004A
:1048F0000F0016002B4335D00021132205A81AF013
:104900004DFC32002B0005A80097FFF749FF2368F4
:1049100003AADB6905A92000984700281ED1039A45
:10492000109B9A421ED311995B188B421AD39A425C
:1049300002D28A20404213E0109A2368019202AA10
:10494000009202909D69129A119B05A92000A84728
:10495000002803D1029B119A9342EAD3FFF7DEFEAF
:104960000BB0F0BD8720E5E7F0B51E0013008DB059
:10497000050003911700129C33431FD0002113221E
:1049800007A81AF00BFC039B3A00009307A833001A
:10499000FFF706FF2B6805AADB6907A928009847DF
:1049A000002807D10123069A60601A4200D0636094
:1049B000059B2360FFF7B2FE0DB0F0BD872040429B
:1049C000FAE7F0B51D00130089B004000F001600CF
:1049D0002B4313D00021132203A81AF0DFFB32006F
:1049E0002B0003A80097FFF7DBFE236803A91B6ACF
:1049F00020009847FFF792FE09B0F0BD87204042A3
:104A0000FAE710B503681B699847FFF787FE10BDEA
:104A10000020704770B50B4C2378BFF35B8F0A4DB5
:104A2000DB070CD4200014F0F1FC002807D0200094
:104A300014F004FD054A0649280014F0DBFC2800A8
:104A400070BDC046C8840008D0840008C0000008BB
:104A50008572011037B5FFF7DDFF0A4912F018FC27
:104A60006A461100084B1860084B30CB30C1002853
:104A700002D1074814F0FCFB064B0749FFF7B6FECE
:104A800037BDC046646B0210208500085C6B0210C5
:104A9000816B0210114A0010A26B0210F0B50C4C91
:104AA0001F00236885B005001600002B01D1FFF719
:104AB000D1FF0C9B320002930B9B290001930A9BB0
:104AC000009320683B00FFF7E5FE05B0F0BDC0464F
:104AD00020850008F0B50C4C1F00236885B0050048
:104AE0001600002B01D1FFF7B5FF0C9B320002939B
:104AF0000B9B290001930A9B009320683B00FFF762
:104B0000F2FE05B0F0BDC04620850008F7B5094C9F
:104B10001F00236805001600002B01D1FFF79AFF44
:104B2000089B3200009329003B002068FFF71CFF20
:104B3000FEBDC04620850008F8B5084C1F0023685C
:104B400005001600002B01D1FFF784FF32003B0067
:104B500029002068FFF735FFF8BDC0462085000812
:104B600010B5FFF757FF064912F092FB054B18608E
:104B7000002802D1044814F07BFBFFF742FF10BD70
:104B8000646B021020850008816B021030B58BB079
:104B900002900391002B01D1002A22D102A9049195
:104BA000069308210EAB0893042305910F4807399B
:104BB00007920993FBF77AFF051E15DD00230322F8
:104BC000009304A9FBF7DEFF802304001B06984234
:104BD00001D1922464422800FCF736F820000BB083
:104BE00030BD87246442F9E79224FBE7011A0100F3
:104BF00030B58DB00392109A04900591002A01D12E
:104C0000002B24D104A908910821099103A90A9134
:104C10008D20042140020B91033906920793FBF784
:104C200045FF051E16DD01230222009308A906ABED
:104C3000FBF7A8FF802304001B06984201D19224B1
:104C400064422800FCF700F820000DB030BD872436
:104C50006442F9E79224FBE7F0B58BB00290039130
:104C6000161E24D000230493059302AB0693082359
:104C700004AC01211048079308940993FBF716FF31
:104C8000071E17DD012208AB009206A9FBF77AFF89
:104C90000CCC0CC6802305001B06984201D192253E
:104CA0006D423800FBF7D0FF28000BB0F0BD872520
:104CB0006D42F9E79225FBE7021A010030B587B093
:104CC00002AB049308230290039101210D48059340
:104CD000FBF7ECFE051E12DD00230122009304A960
:104CE000FBF750FF802304001B06984201D1922459
:104CF00064422800FBF7A8FF200007B030BD9224D3
:104D00006442F9E7031A010037B501210C48FBF7AB
:104D1000CDFE051E11DD00210B0000910A00FBF7FE
:104D200031FF802304001B06984201D19224644283
:104D30002800FBF789FF20003EBD92246442FAE779
:104D4000041A010010B5FFF70BFF10BD002300226D
:104D500013B50092019303690400082B02D0802050
:104D6000000616BD6A4600214068FCF73BFA082899
:104D7000F5D1009A019BA068FFF7DEFEF1E770B560
:104D800086B004AE04000822002130001AF006FAB2
:104D900000230022029203932369082B04D080256C
:104DA0002D06280006B070BD236A082BF7D102AA91
:104DB00000216068FCF716FA0828F0D1029A039BDC
:104DC0000096A068FFF7A2FE051EEAD10100236A43
:104DD00032006068FCF726FAE3E700230022002196
:104DE00070B588B006920793036904000591082BFB
:104DF00004D080252D06280008B070BD4569042D1B
:104E0000F7D106AA4068FCF7EDF90828F1D12B008C
:104E100005AA01216068FCF7E5F90428E9D1206AB8
:104E200019F0CAFD061E1AD0236A02900193059B51
:104E3000A0680093069A079BFFF74CFE051E05D15C
:104E40000100236A32006068FCF7ECF9226A002155
:104E500030001AF0A3F9300019F0B8FDCBE7922525
:104E60006D42C8E700230022F0B5002689B0069203
:104E700007930369040047690596082B04D0802432
:104E80002406200009B0F0BD8569042DF7D106AADB
:104E900031004068FCF7A6F90828F0D12B0005AADC
:104EA00002216068FCF79EF90428E8D1380019F067
:104EB00083FD051E0BD06369020001216068FCF7C9
:104EC00091F96369984205D0280019F07FFD92247A
:104ED0006442D6E7059B019502930097069A079BCB
:104EE000A068FFF7DBFD3A000400310028001AF04B
:104EF00055F9280019F06AFDC3E70000036810B5F2
:104F00000400022B05D0032B01D0012B07D1002177
:104F100001E0884701006068FCF7D0F910BDA022CD
:104F20000149024814F0A4F9B26B02108069021022
:104F300070B58CB03022002168468025F8261AF022
:104F40002DF92D06760029003000FBF7CFFF040075
:104F500012F07EF8031E04D0B3222149214814F038
:104F600087F92020044208D06946FBF7E1FF0028BA
:104F7000E9D11D496846FFF7C1FF1020044208D05F
:104F80006946FBF7D5FF0028DDD118496846FFF7D1
:104F9000B5FF4020044208D06946FBF7C9FF00284E
:104FA000D1D113496846FFF7A9FF8020044208D0F9
:104FB0006946FBF7BDFF0028C5D10E496846FFF7DB
:104FC0009DFF802040000442BDD06946FBF7B0FF42
:104FD0000028B8D108496846FFF790FFB3E7C046FC
:104FE000C26B0210CC6B0210654E0010DB4D00103E
:104FF0007F4D00104D4D0010454D001010B5041EA2
:1050000004D184221149124814F032F9114815F0E4
:10501000C9FEE061002814D00F4B00211A0088322D
:1050200014609C629C649C669C60E3600B4A0C4824
:1050300016F01AFD6060002807D193220349094841
:10504000E2E7892201490848DEE710BDFD6B021046
:105050003C5802107C6C0210A005000840060008B5
:10506000314F00103F6C0210066C02100020704798
:1050700000207047012000217047C1698069704796
:10508000004870479A6C0210F0B5431C87B0059336
:10509000DB7F0500002B00D143622E002436012166
:1050A000300014F05DF800230490019301280AD128
:1050B0002F1D380000F030FA0190002806D0049926
:1050C000300014F066F8019807B0F0BD29696A69EC
:1050D000AB69EC695B18544138000293039400F00B
:1050E000F3F90400380000F0EBF9039B2418002BBF
:1050F00002D1029BA34206D90121300014F049F8E5
:10510000194B0193DFE76B69380002932C6900F0BB
:10511000D7F9019B029A934201D1A042ECD82C69A5
:105120006B691C4304D1380000F0CAF96C61286136
:10513000AC69EB691C4312D1380000F0C5F90600D8
:10514000380000F0BDF9270032002300060028696E
:10515000696992197B41121A8B41AA61EB610123A3
:10516000059AD377AFE7C0465FF0FFFFF0B5066959
:10517000476985B0040004300292039300F0A0F95F
:10518000029A039B05000A980B9912184B41009252
:105190000193236820009B6B9847019B8B4203D8A7
:1051A00005D1009B834202D9002005B0F0BD029AD0
:1051B000039BB6185F412A000023B61A9F4123685B
:1051C0002000196B029A039B884702000B003000F5
:1051D00039001EF02DFB1A43E6D10A9A0B9B00986A
:1051E0000199B6185F4101225242D31780185941E4
:1051F0000B0021680200096B2000884702000B00A9
:10520000300039001EF014FB1A4350425041C0B226
:10521000CBE70000F0B585B003911F00431CDB7F96
:10522000160004000A9D0B9A002B02D10B4805B012
:10523000F0BD036801920095D96B32003B008847AE
:105240000028F3D02269636992197B411100201D67
:105250000A002B00039900F099F9E8E75FF0FFFFDF
:10526000F0B585B003911F00431CDB7F16000400DE
:105270000A9D0B9A002B02D10B4805B0F0BD0368C4
:1052800001920095196C32003B0088470028F3D04A
:105290002269636992197B411100201D0A002B00CD
:1052A000039900F08FF9E8E75FF0FFFFF7B51F0003
:1052B000431CDB7F16000400089D099A002B01D1D6
:1052C0000A48FEBD036801920095596C32003B000C
:1052D00088470028F4D022696369B6185F41201D11
:1052E0002A00310000F0F4F9EBE7C0465FF0FFFF61
:1052F000421C0300002010B5D27F824202D0181D4C
:1053000000F0D6F8002110BD10B5431CDB7F002B48
:1053100003D0043000F0DCF810BD01204042FBE770
:1053200070B51D00036814009B6A060098470200D0
:105330000B00200029001EF07BFA1A4301D0002048
:1053400070BD336830009B6A984702000B000498D8
:1053500005991EF06DFA1A43F1D1049A059BA41821
:105360005D41336830009B6B984701238D4202D822
:1053700002D1844200D90023D8B2E1E770B5451CC0
:105380000400E87F002801D1606270BD2000012187
:10539000243013F0FEFE030000208342F5D1E877AD
:1053A000201D00F0D7F8F0E710B50400044B0833D7
:1053B0000360FFF7E3FF201D00F079F8200010BD27
:1053C000A46C021010B50400FFF7EEFF200014F0EB
:1053D00065F9200010BD421C0300002010B5D27FEB
:1053E000824203D0181D196900F066F8002110BD33
:1053F000411C0300002010B5C97F814204D0196907
:10540000181D891800F058F8002110BD70B51D0056
:10541000036814005B6A0600984702000B00200036
:1054200029001EF005FA1A4301D0002070BD336830
:1054300030005B6A984702000B00049805991EF043
:10544000F7F91A43F1D1049A059BA4185D4133681A
:1054500030009B6B984701238D4202D802D18442D1
:1054600000D90023D8B2E1E70E4B73B5083304002E
:1054700008C015000E0000F019F80023621C266118
:105480006361A561E361D3776362721C01D09D42C1
:1054900006D10093002304481A00190013F002FFFC
:1054A000200076BDA46C02100101FF807047704798
:1054B00010B518F091F910BD10B518F07DF910BDB8
:1054C00010B518F08BF910BD10B518F08AF910BDA1
:1054D00010B518F089F910BD70B505000468002CEE
:1054E00015D10C4E3068002803D00121494215F037
:1054F0006FFC2C68002C05D12C000834200014F01F
:1055000053F92C603068002801D015F077FC20009A
:1055100070BDC046F0A5000870B505000C4E300007
:10552000FFF7DAFF14F048F9280018F005F9040035
:10553000280018F051F914F0ADF868603000FFF75A
:10554000CBFF14F04FF9601E8441604270BDC0462D
:10555000888D000870B506000B4D2800FFF7BCFFD2
:1055600014F02AF9300018F0E9F8441EA041444232
:105570007068002801D014F095F82800FFF7ACFF00
:1055800014F030F9200070BD888D0008F7B50F00C9
:10559000160005000A4C01932000FFF79DFF14F050
:1055A0000BF93A003100019B280013F041FA050085
:1055B0002000FFF791FF14F015F92800FEBDC0464A
:1055C000888D0008F0B587B0019100920293050024
:1055D00018F002F90700280018F003F90600280067
:1055E00018F0FCF83900039000981DF0BDFF0C1E68
:1055F00069D1019B002B66D0029A009B9B18039AED
:10560000B618B3425FD83148FFF766FF14F0D4F8FC
:10561000029B002B4FD0002C4BD10099280018F092
:10562000CBF80400010000981DF09EFF029B601A59
:10563000984200D918000322019B134201D1B842BD
:105640002ED20600B84200D93E00320001996868A7
:1056500019F0FAFCBE4205D26B68BA1B9819FF21FB
:1056600019F09CFD6B680497059310230393049B2A
:10567000059A0099280018F06BF8041E06D0039BC9
:10568000013B0393002BF2D101246442029B9B1B3C
:105690000293009B9B190093019B9B190193B7E711
:1056A00039001DF0DBFE7843019B04900600059352
:1056B000DBE7012464420548FFF70EFF14F092F87F
:1056C000200007B0F0BD01246442F9E7888D00088E
:1056D000F7B50D001700060018F083F8040030003D
:1056E00018F07CF82018EC19A04203D2012464427F
:1056F0002000FEBDA0421FD81948FFF7EDFE14F0B0
:105700005BF80024002F24D0002C20D1102301931B
:105710002900300018F014F8041E06D0019B013B4C
:105720000193002BF4D1012464422900300018F0C9
:1057300043F83F1A2D18E5E72100300018F03CF837
:10574000010020001DF010FF0029CFD1D4E7012473
:1057500064420348FFF7C0FE14F044F8C8E7C046AF
:10576000888D000816204042704710B503681B69F9
:10577000984710BD10B503689B69984710BD10B5D8
:1057800003689B6A984710BD0020814200D11938F8
:105790007047012070471620404270471620404253
:1057A0007047704710B503689B68984710BD0000AC
:1057B00010B50400084B0022083323600023A260C8
:1057C000E36000230800A16123616361034913F0D2
:1057D0002FFB200010BDC046F8700210A557001026
:1057E00007B5010000900831806913F062FB07BD26
:1057F000010010B50831806913F084FB10BD000072
:1058000010B50400034B08330360FFF7F1FF2000DD
:1058100010BDC046F870021010B5036801221B6964
:105820000021984710BD002210B5036811001B69C4
:10583000984710BD030000B57F3304DAFF234042D0
:10584000DB011840404203006C3300D17EE20300CC
:105850006C3300DD07E1AA4B984200D179E200DD0C
:105860007BE0A84B984200D176E23BDCA64B984205
:1058700000D174E21BDCA54B984200D172E20BDC34
:10588000A34B984200D170E29723A24A5B42904218
:1058900000D01333180000BD9F4B984200D167E23F
:1058A00096239E4A5B429042F4D01233F2E79C4B1F
:1058B000984200D15FE20ADC9A4B984200D15DE247
:1058C0008623994A5B429042E4D00233E2E7974B49
:1058D000984200D155E28D23954A5B429042D9D03F
:1058E0000933D7E7934B984200D14DE21ADC924B33
:1058F000984200D14BE20ADC904B984200D149E239
:1059000087238F4A5B429042C4D00333C2E78D4B5A
:10591000984200D141E295238B4A5B429042B9D034
:105920001133B7E7894B984200D139E20ADC884B42
:10593000984200D137E29523864A5B429042A9D033
:105940001133A7E7844B984200D12FE28623834A84
:105950005B4290429ED002339CE7814B984200D13B
:1059600027E23EDC7F4B984200D125E21CDC7E4BD7
:10597000984200D123E20BDC7C4B984200D121E21B
:1059800095237B4A5B42904200D183E7113381E744
:10599000784B984200D118E28723774A5B429042C5
:1059A00000D177E7033375E7744B984200D10FE2DB
:1059B0000BDC734B984200D10DE28723714A5B42A6
:1059C000904200D166E7033364E76F4B984200D101
:1059D00004E287236D4A5B42904200D15AE70333C9
:1059E00058E76B4B984200D1FBE11CDC694B9842B5
:1059F00000D1F9E10BDC684B984200D1F7E1872335
:105A0000664A5B42904200D144E7033342E7644B6D
:105A1000984200D1EEE1EE239B01C0180300581E0E
:105A20008341853B36E75F4B984200D1E5E10BDCD3
:105A30005D4B984200D1E3E186235C4A5B42904291
:105A400000D127E7023325E7594B984200D1DAE12C
:105A500003007A3300D1D9E1564B984200D1D8E106
:105A600084235B4216E70300273300D1D4E103000F
:105A7000273300DDE5E00300383300D1CFE1030038
:105A8000383300DD98E00300603300D1CAE1030041
:105A900060331CDC0300663300D1C6E103006633CB
:105AA0000ADC03006A3300D1C2E187235B4268301D
:105AB00000D1EFE60333EDE60300643300D1BAE131
:105AC00087235B42623000D1E4E60333E2E6030061
:105AD0003C330ADC03003D3300DBAFE194235B423F
