:020000041000EA
:100000000000010891BC01100D00000089050010DE
:1000100000000000000000000000000000000000E0
:10002000000000000000000000000000419C0110E2
:100030000000000000000000C59C0110D19C0110D0
:10004000E9BC011019C00110E9BC0110E9BC0110A4
:10005000E9BC0110E9BC0110E9BC0110E9BC0110C8
:10006000E9BC0110E9BC0110E9BC0110E9BC0110B8
:10007000E9BC0110E9BC0110E9BC0110E9BC0110A8
:10008000E9BC0110E9BC0110E9BC0110E9BC011098
:10009000E9BC0110E9BC0110E9BC0110E9BC011088
:1000A000E9BC0110E9BC0110E9BC0110E9BC011078
:1000B000E9BC0110E9BC0110E9BC0110E9BC011068
:1000C00010B5064C2378002B07D1054B002B02D02E
:1000D000044800E000BF0123237010BDE0130008B6
:1000E0000000000074B80210044B10B5002B03D0C0
:1000F0000349044800E000BF10BDC04600000000F6
:10010000E413000874B80210164B002B00D1144BF6
:100110009D46402292029A1A924600218B460F4633
:100120001348144A121A1FF015F80F4B002B00D079
:1001300098470E4B002B00D0984700200021040068
:100140000D000D48002802D00C4819F029F91EF0C6
:10015000E5FB2000290019F05BFC19F05BFAC046B2
:100160000000080000000108000000007199011063
:10017000E0130008DCB40008A193011000000000A7
:1001800010B5041E04D17B220F49104819F03AF82B
:100190000F481AF0E3FDE061002810D00D4B0E4A25
:1001A0009C629C649C60E36000210C481BF038FC5E
:1001B0006060002807D18A2203490948E6E78022C7
:1001C00001490848E2E710BD68570210E4570210E1
:1001D00084580210C4000008945802102927001007
:1001E0003F580210FF57021010B5041E05D19E2281
:1001F00013491448520019F005F813481AF0AEFDDF
:10020000E061002804D142220D49FF320F48F2E795
:100210000F4B0022190001329C6020330B2AFAD1C7
:10022000E1600C4A00210C481BF0FAFB60600028DA
:1002300004D14C220249FF320848DCE710BDC04619
:1002400078570210E45702104C590210C858021097
:10025000240100085C590210D5330010085902101F
:1002600010B5041E05D1CD2211491248520018F0D4
:10027000C9FF11481AF072FDE061002811D00F4B40
:100280000F4A9C629C649C60E36000210D481BF057
:10029000C7FB6060002809D1AA220549FF320A483D
:1002A000E5E7A0220249FF320848E0E710BDC0465A
:1002B00088570210E4570210CC5A0210D8030008E5
:1002C000DC5A02108D4600108A5A02104C5A021055
:1002D00010B5041E04D1134A1349144818F092FFB4
:1002E00013481AF03BFDE061002814D0114B0021A7
:1002F0001A00883214609C629C649C669C60E36077
:100300000D4A0E481BF08CFB6060002808D10C4A97
:1003100005490C48E2E78422034992000A48DDE7D8
:1003200010BDC0460B02000096570210E4570210A1
:10033000145A021038030008245A0210154F0010F6
:100340001A020000D55902109C59021010B5041E63
:1003500005D1FF220F491048920018F053FF0F48B3
:100360001AF0FCFCE06100280ED00D4B0D4A9C6099
:10037000E36000210C481BF053FB6060002807D1AC
:100380000A4A04490A48E8E70A4A02490A48E4E7EF
:1003900010BDC0469F570210E4570210945B021034
:1003A00038040008A45B0210150400100B040000C0
:1003B000475B021001040000005B021070B5041ED0
:1003C00004D10C4A0C490D4818F01CFF0C4D2800B4
:1003D000FFF7D6FE0B48FFF707FF0B48FFF740FF7C
:1003E0000A48FFF775FF0A48FFF7B0FF25600520B0
:1003F00070BDC04696040000B65702108059021026
:1004000084020008A8020008CC020008F0020008DC
:1004100014030008F0B591B03022002104A81EF0AA
:1004200099FE80211020090600F04CFD10220300E7
:10043000104204D149494A48213218F0E3FE04A988
:10044000102000F061FD0028EBD1059B0293002BEA
:1004500006D0069B5A1C03D03B2240494148ECE79A
:10046000049B022B1CD0032B01D0012B71D10C9BC0
:1004700002930D9B0393039A029B13430E9A13431B
:100480000F9A1343089A1343099A13430A9A134382
:100490000B9A0292134357D06D223049324815E02F
:1004A000089B0293099B0393039A029B94460A9A22
:1004B00063449B180B9A9B180292162B03D10C9B3A
:1004C0000293142B04D045222449284818F09AFEA0
:1004D0001E201EF04DFA051E03D14B221F49244851
:1004E000F4E71E2200211EF035FE2F00002604AC8A
:1004F00023693A003100059800F060FE23698342C9
:1005000005D00090532215491A4818F07BFE013699
:10051000FF180434032EEBD1290017481FF0E8F828
:10052000041E03D05B220D491448CFE7144E059FEB
:1005300030001FF029F93200431C2100380000F080
:100540005DFE28001EF01EFA0021059800F0A2FEB4
:1005500067E7732201490B486FE7C046705C0210E1
:10056000805C0210AA5C02108C5D0210E45C021038
:10057000245D0210455D0210505C02106A5D02109D
:10058000665C0210D65D02102C4B05E02C4B03E09C
:100590002C4B01E02C4BFFE7EFF308802B49724610
:1005A0000A4201D0EFF309809C46294B1968026882
:1005B0000A60043142680A60043182680A600431CA
:1005C000C2680A600431F0C147460F6004314F46EB
:1005D0000F60043157460F6004315F460F600431ED
:1005E00002690A60083142690A60043182690A605E
:1005F0000431C2690A60043103462033154E324289
:1006000000D0043375460D4E354200D148330C46B8
:10061000103C2360EFF309820A600431EFF3088293
:100620000A60043172460A600431EFF314820A60F2
:100630006046074900F05EF8FEE700001000000089
:100640002000000030000000400000000400000016
:10065000FC5D02100002000030B5002585B01A4C88
:10066000AB002900E2581948013518F0C7FC0D2DE0
:10067000F5D1A36C16480293636C0193236C00932D
:10068000E36BA26B616B18F0B9FC124B124819684E
:1006900018F0B4FCE36C1B0712D5104818F0AEFC40
:1006A000236D0F48DB0700D40E4818F0A7FCE36C5D
:1006B0000D485B0700D40D4818F0A0FC05B030BD14
:1006C0000B4818F09BFCEFE794A30008905E021023
:1006D0009E5E021000ED00E0ED5E0210FB5E021077
:1006E0000A5F0210175F02103A5F0210465F0210A5
:1006F0002A5F021013B50400154818F07FFC302C57
:1007000017D0402C1AD0202C1DD1124818F076FC9E
:10071000114C124818F072FCFFF79EFF104818F0B9
:100720006DFC00230F4A0093D26B0F49200018F094
:100730008BFD0E4818F062FC0D4CEAE70D4818F0EE
:100740005DFC0D4CE5E70D4818F058FC0C4CE0E75B
:10075000005E0210295E02103E01FF80565E02100C
:10076000615E021094A30008805E0210385E0210E1
:100770003F01FF80415E02104001FF804C5E02108D
:100780003D01FF80F0B587B006000291039200F0B2
:10079000CBFA002826D0036800930121300018F01E
:1007A0009CFC071EF9D0002573880020AB4217D9A6
:1007B0002B012C04019373682A013C43059005A981
:1007C0009818220018F06AFC00280ED020007368E8
:1007D000019A9B18029ADA60009A5A60039A9A600A
:1007E00007B0F0BD01235B42D6E70135DCE700002E
:1007F00037B5428805000B0C9A4205D8009215497E
:100800006822154818F0FEFC1C0143681B598B42F6
:1008100005D00B006C220F49104818F0F3FC00F0D3
:1008200083FA00280DD002686B681B195968914241
:100830000AD09968914207D076220649084818F0F4
:10084000E1FC01225242EFE700225A609A601A60EE
:1008500037BDC046525F02108A5F0210D85F021097
:100860001460021037B50500002904D1842217490D
:10087000174818F0C7FC42880B0C9A4205D8009222
:1008800012498A22134818F0BDFC1C0143681B5909
:100890008B4205D00B008E220C490F4818F0B2FC99
:1008A00000F042FA00280CD002686B681C196368DB
:1008B000934209D0A368934206D09822034907487F
:1008C000D7E701225242F0E7E0683EBD6E5F0210BA
:1008D000506002108A5F0210D85F02108D60021013
:1008E000F0B5002106000D4B5D681B680C338D428E
:1008F00001D1002010E000225F68BA4202D101312C
:100900002433F4E71868540100190468A64201D0A2
:100910000132F2E70028F2D0F0BDC046880400089A
:1009200070B50D000121040083684942D8691AF0AE
:100930002BFAE369002B0BD1A561A368E56161681F
:1009400058681BF097F8A368D8691AF033FA70BD9D
:100950001D61F2E7F0B585B005000E00FFF7C0FF9E
:10096000041E05D12B0074223A493B4818F04AFC7A
:100970000369002B0ED13268C1688A4210D90293F4
:10098000E3687A220193236832490093334833683D
:1009900018F038FC012B03D13268C1688A42EED1CD
:1009A00000F0C2F9071E07D1237D002B1ED123685A
:1009B00038222B492B48D9E7416900290BD0002266
:1009C0008069236882420BD13A6825490092264803
:1009D000462218F017FC03683D2221492348C5E749
:1009E00095004D599D4201D00132EBE73A000C21B0
:1009F000300000F0B1F9002804D1812215491C48CB
:100A000018F000FC1B4B0021986919F025FD051E0C
:100A10000BD1194BB0687360002F03D01AF034FB70
:100A200005B0F0BD00F04AFDFAE7A36801001A68BE
:100A30001248FFF7A7FE0023114A706029002F60BB
:100A40006C60EE60AB602B61AA82AB752000FFF793
:100A500067FFE5E7FB6002101462021032620210C9
:100A6000DB6002108F620210FE620210C762021089
:100A70003E63021088040008010000809004000812
:100A800001020000F0B510248DB004AD0F0022006B
:100A90000021060028001EF05DFB002108AA0120AD
:100AA000089109910A950B94019702911AF0B0FAF6
:100AB0000390002804D1B72209490A4818F0A2FB84
:100AC00001A93000FFF746FF0121039849421AF0BF
:100AD000B5FA03981AF00CFB02980DB0F0BDC046B1
:100AE0000D610210DC61021070B50D0001001848A4
:100AF000FFF7B8FE182104000268280000F02CF966
:100B0000002804D1CE221349134818F07BFBA37DA3
:100B1000012B0CD180231B062B6123686869002BF5
:100B200002D100F0CBFC70BD1AF0AEFAFBE720005A
:100B300004221530032100F0CFF802232375E5606D
:100B40000FCD00F0AFF821006068FFF7E9FEEAE79B
:100B500090040008196102104B610210F0B51024D6
:100B600091B00F00160000212200050002A8019399
:100B70001EF0F0FA002102AB0893019B06AA0C9329
:100B8000169B01200691079109940A970B960D93E5
:100B90000E911AF03DFA0F90002805D183220A49E0
:100BA00052000A4818F02EFB0AA92800FFF79CFF04
:100BB00001210F9849421AF041FA0F981AF098FA59
:100BC0000E9811B0F0BDC04628610210DC61021021
:100BD00070B50D0001000F48FFF744FE0821040026
:100BE0000268280000F0B8F8002805D18F220A49D1
:100BF00052000A4818F006FB20000321153000F0CF
:100C000083F80323E560237521006068FFF788FE01
:100C100070BDC0469004000831610210AE61021040
:100C200070B504008AB0002825D0102502AE2A0035
:100C3000002130001EF08EFA002106AA0120069144
:100C400007910896099500941AF0E2F9019000289E
:100C500005D1A12209495200094818F0D3FA694682
:100C60002000FFF7B5FF0121019849421AF0E6F98B
:100C700001981AF03DFA0AB070BDC04641610210F9
:100C80007861021010B5FFF72BFE041E01D1002081
:100C900010BD00F049F8002802D1237D002BF6D0CA
:100CA000E068F5E71FB5002801D1002906D1002A28
:100CB00001D1002B02D1CC18042C08D90293019247
:100CC0000091030026220249024818F09BFA1FBD3A
:100CD0006E630210F363021030B50F2485B06C44CC
:100CE0000D002170210018F0C5F9002806D12378E5
:100CF0002F2200950249034818F084FA05B030BD50
:100D00007D630210A763021007B50378DBB2994236
:100D100005D0009138220249024818F073FA07BD45
:100D200092630210A763021070B51AF08FFE0022C2
:100D3000084B5C681B68944202D10021080070BD1A
:100D4000190024331D00203D2D688542F6D0013264
:100D5000F1E7C0468804000810B5031E12D0012335
:100D600000290FD041184C1E0023A0420AD89A42F5
:100D700015D1134B134CC318A34205D8124B8B4209
:100D80005241D3B2180010BD104B114CC0181300C3
:100D9000A042F7D80F4A8A425B41DBB2F2E7F82261
:100DA0000D4C120682180023A24201D80B4AF2E72A
:100DB000F022120680180A4A9042E3D8094AEAE76C
:100DC0000000FFF7FF760300007704080000F8EF4B
:100DD000FF7F070000800F10FFFF000000000108E8
:100DE000FFFF07000000081010B51BF08FFA0E4A35
:100DF00018210A2019F01AFB0C4CA061002803D11D
:100E00000B490C4818F0FEF90B4A28210A2019F06A
:100E10000DFBE061002802D105490848F2E72000F7
:100E2000FFF7CCFA606010BD700400088804000869
:100E300047640210546402105804000880640210D1
:100E400010B5024B186800F0CFFBFAE7A8040008C1
:100E5000F7B50C000100184817000193FFF702FDD9
:100E60000600006805211530FFF74EFF032C05D959
:100E700034221249FF32124818F0C4F9731DDB7F87
:100E80000025A34215D9E4003619B568019B9D429F
:100E900000D91D00002D0CD0002F04D02A0071684D
:100EA00038001EF0ADF873685B197360B3685B1BA4
:100EB000B3602800FEBDC0469804000821650210FA
:100EC000A268021037B504000D00FFF72DFF8368FC
:100ED00008201843631C0AD02300834306D00090E7
:100EE0002300DB220649074818F08CF92000EA1796
:100EF00002211AF019FE831C00D100203EBDC0461D
:100F0000106502100E680210F0B593B00F000400D7
:100F1000FFF70AFF3021060002003800FFF71CFF30
:100F2000002804D1F2229449944818F06BF9302239
:100F3000002138001EF00EF9B268002C04D0651EA6
:100F4000254001D1224206D100922300FE228A4987
:100F50008B4818F057F91AF0D7FD20420AD02B0021
:100F6000326993420BD18422230083498548520081
:100F700018F048F904228049FF328348D5E7F16828
:100F80005D014D1969688C4201D00133E9E7002DFC
:100F9000E9D00121AB684942D86919F0F5FEAC6986
:100FA000002C03D1B92279497948BEE70022236990
:100FB000AB612261934203D1EB6168681AF08EFD48
:100FC000AB68D86919F0F6FE2000237D1530022B9E
:100FD00009D0032B21D00221012B1FD09222664978
:100FE00052006C48C4E705220421FFF775FE282251
:100FF000002108A81EF0AEF80022237D0792022BE4
:1010000000D089E022681821E068FFF7A5FE0028DB
:1010100007D15B226049614887E71900FFF774FE3A
:10102000E5E7E3685E681D689A68DB6831002800C0
:1010300004930692FFF736FEF3B20793002E29D1F0
:10104000049B002B68D0049B2268D9000698FFF708
:1010500083FE002853D008ABF6009E190023069D9E
:1010600003936B689C46002B4DD02A00331D03CAA6
:1010700003C3039B61469A003B002033995070687C
:101080002268FFF769FE00283DD1039B9422424964
:1010900043486DE7F10022682800FFF75DFE002855
:1010A0001ED008AB0593002303936B689C46002B6E
:1010B0001AD02A00059B043303CA03C3039B61466D
:1010C0009A003B0010339950059B22685868FFF73F
:1010D00043FE002808D1039B7C222F49314847E773
:1010E0006B222D49304820E7039B083501330393D9
:1010F000059B08330593039B9E42D6D1A0E783222C
:1011000025492A4811E7039B083501330393039AC5
:10111000049B08369342A4D10121254B4942D8694A
:1011200019F09AF9011E03D19D221B492148FCE6C2
:101130000D2306AA9B18079A0894DA77020008ABD9
:1011400061CB61C261CB61C261CB61C21B681A48CD
:1011500013600022FFF716FB237D3B60A3687860D5
:10116000FB602368002B04D01B680020BB6013B019
:10117000F0BD01235B42F8E7196502104B650210D0
:1011800067650210CF650210B3650210F2640210A9
:101190001E6602103E660210DE64021070660210C7
:1011A000F8660210B466021095660210D866021046
:1011B000880400081D67021098040008F8B51400A0
:1011C0000F001D000600FFF7AFFD29000200200000
:1011D000FFF7C2FD002805D152220649FF3206481A
:1011E00018F010F82B00390030002200FFF730FE15
:1011F000F8BDC0462E65021046670210F7B507001D
:101200000C0016001D1E3AD0FFF78EFD29000200CB
:101210003000FFF7A1FD002805D1B3221849194875
:10122000520017F0EFFF39001748FFF71BFB0700CC
:10123000006805211530FFF767FD7B1DD97F0C196C
:10124000032C04D970220E49FF321048E9E7E4006C
:101250003C19A368AB4207D2BA22009352002B007C
:1012600007490B4817F0CEFF2A00310060681DF0D7
:10127000C7FE63685B196360A3685D1BA560F7BD6B
:10128000376502104667021098040008486802108B
:1012900063680210F7B507000D0001004348FFF72F
:1012A000E1FA0600046839004048FFF7A1FA282255
:1012B000002130001DF04EFF3D4F3100F86919F05C
:1012C000EBF82000236815300193237D022B36D0E4
:1012D000032B4DD0012B60D1364B002D08D09D4201
:1012E00006D0CB222B0034493448520017F08AFF35
:1012F000E668B26800929D4217D10221FFF704FD13
:1013000071682F48FFF774FA1822002120001DF0A1
:1013100021FF2100B86919F0BFF87560019B0098A2
:10132000002B3FD100F0CAF8F7BD03220221FFF7DE
:10133000D3FC002CF2D00023E3602375EEE7214BB1
:10134000EB187E2B05D8B8222B00FF321A491E4815
:10135000CCE703220521FFF7BFFC80231B069D423B
:1013600001D10123A375E3681D615B690093E0E788
:10137000E56819006A6800920122FFF7ADFC296850
:101380000F48FFF735FA1822002120001DF0E2FE79
:101390002100B86919F080F8C0E7F0220649520030
:1013A0000A48A3E719F070FEBEE7C046980400089B
:1013B0008804000801000080416502106567021082
:1013C00090040008FFFFFF7FA0670210D86702109B
:1013D00010B50C0001000348FFF744FA03689C6055
:1013E00010BDC04698040008054B10B51B6858692D
:1013F00019F04AFE034B1B68186919F045FE10BD31
:10140000AC040008A804000810B51AF0C5FF10BD10
:1014100010B51AF0C1FF10BDF0B51E4B95B01E4CB3
:101420001E4D3822002106A80293039404951DF056
:1014300091FE1B4B05A93C22200005931DF0E0FD09
:1014400005A93C2228001DF0DBFD02A90C2215484D
:101450001DF0D6FD144819F081FC144A0600002145
:10146000012019F0D5FD124A07000021012019F0D2
:10147000CFFD01900F483B0032002900006800F0CA
:1014800063F80D4B019A2100186800F06BF815B055
:10149000F0BDC046779A333D0C77040848770408BE
:1014A0000C4A286300770408DC680210CC6802103C
:1014B000EC680210AC040008A80400081FB5040082
:1014C0000C22002101A81DF045FE00210348220046
:1014D0000B000068029400F051F81FBDAC04000836
:1014E00030B585B0019001380C00029115000392CF
:1014F000032806D821F07AFF02070B0F1000FFF730
:1015000029FA05B030BD1000FFF7EEFAF9E7100038
:10151000FFF75EFBF5E7002208212000FFF71CFC27
:10152000002804D16C220649064817F06BFE2800FB
:10153000FFF7A8FB20606068FFF7C0FFE1E7C04647
:10154000BC6802107066021010B5054C02610460A0
:101550000C1D44600C3104348460C160436110BDD3
:10156000FFD948A2044B026103600B1D43600C319C
:1015700004338360C160704742658BA6F0B585B0C7
:101580000191012101AC050049420069FA2762601E
:10159000A360032619F0F8FB7F00AA686968136846
:1015A000086801338C463340834218D00C231068FE
:1015B0004343E868C31883CC83C3136801333340C3
:1015C000136063461B68126801333340934201D1B4
:1015D000FFF71AFF286919F0EDFB05B0F0BD3900DF
:1015E000686919F02BFDD8E7FA21F0B5490005002C
:1015F00085B0006919F022FDAB686A689C461068E6
:101600001B68984201D105B0F0BD0C211368E86851
:101610004B4301ACC3182000C2CBC2C003211368E6
:1016200001330B40136063461B68126802330B40A2
:10163000934201D1FFF7ECFE07CCFFF751FFDBE748
:10164000F0B5214B85B01B6803900E00019200207D
:10165000012B08D01D4D1E4A6B7829781B020B43C5
:10166000934202D0012005B0F0BD019A032AF9D9B6
:1016700033800423E978AA780902114302912C1DD2
:101680007380F718029BEB189C4216D22388039AAA
:101690001B0B93420ED16288738801999B188B4271
:1016A000E0D8380021001DF0ABFC63887288FF1879
:1016B0009B1873806388002B04D10122024B002009
:1016C0001A60D0E7E418DDE750880008506902107E
:1016D00016200000F0B51E2589B0059300230F9F4A
:1016E0006D4404920E9E2B8006243F2F1BD92A00A6
:1016F0001121012001F0E4FB0534002813D1109BD7
:1017000028880433029301970096059B049A09499F
:1017100001F094FB002809D0288801F0F1FB0A3C75
:10172000288801F0EDFB200009B0F0BD109B0400FB
:101730001E60F5E709000710F0B50F26A7B01F00DF
:101740002D9B182201932E9B002100932F9B08A80C
:1017500002932C9D1DF0FEFC602200210EA81DF0BE
:10176000F9FC04ABF618330008AA60210EA800F0BB
:101770006FF8041E02D0072027B0F0BD0A99002997
:10178000F9D00C9B0393002BF5D033780B9A3B6078
:10179000019B9A42EFD828001DF032FC0D9A029B63
:1017A0009A42E8D80C9900980B9E1DF029FC309ABB
:1017B0000D9B60C20099319A20000AC2DCE700004C
:1017C00070B50C00061D00210500042230001DF03C
:1017D000C1FC0A4B3000E4186142614107234942D1
:1017E0001940074BC91801F0C3FA002801D128603D
:1017F00070BD8630431E98410330F9E7401901005F
:101800000200000113B50368040000910192002B4F
:1018100005D1002903D0043001F0D4FA206013BDB3
:1018200037B51C00036800910192002B0DD1231DD8
:1018300004300D0001F0E3FA002803D10300256015
:1018400018003EBD05238A30FAD00423F8E70000D3
:10185000F0B589B002930023150004AA971C0190EB
:101860003A001121012007933B8001F029FB01235D
:10187000002822D1388806AA05A901F08FFB00288C
:1018800001D0388816E0059B484A190003921140A0
:10189000474A9142F5D1474A069C1340464A934233
:1018A0000ED1E408103420001DF062F806003888DC
:1018B000002E12D101F024FB0123180009B0F0BD65
:1018C0003E4A934204D10323E4085C434A34EAE7E6
:1018D0000734E40864000134E5E707AB2200310077
:1018E00001F07EFB002803D030001DF04BF8C8E764
:1018F0000598039B2E4A034093424AD180B2173881
:10190000072846D821F072FD043D3F454545414337
:101910000123029A1370079B581E400823F0C0FE53
:101920001CF0F2FB21F0AAFF079B0400581E4008A0
:1019300023F0B6FE1CF0E8FB21F0A0FF002C2ED017
:101940000022731C995C019FB9540132A242F9D163
:101950003A19AF60EC600192002824D01C190023D2
:10196000E25C0199CA5401338342F9D129616B6168
:1019700030001DF007F804AB588801F0C1FA0023CD
:101980009BE70223C5E70323C3E70423C1E705233D
:10199000BFE730001CF0F6FF04AB58888AE7AC6064
:1019A000EC603300D8E728616861E1E70000FFEFF1
:1019B00000000360FFFFFFEF000001600000026015
:1019C000024B1B68036000207047C046548A000821
:1019D00003207047F0B589B002AB01249D1D0023A0
:1019E000070001910C702A00112120002B80069322
:1019F000079301F065FA00284BD1288805AA04A9AD
:101A000001F0CCFA002840D1049B264A26491A400E
:101A10008A423AD1254A059C1340254A934227D150
:101A2000E408103420001CF0A3FF061E2DD02888E7
:101A300006AB2200310001F0D3FA00282FD11D4956
:101A400007A801F095F9002829D1069A310007A8C6
:101A500001F0B8F901993B000131202207A801F0FB
:101A6000CEF90400601E844130001CF08BFF0DE0B5
:101A7000114A934204D10323E4085C434A34D1E77A
:101A80000734E40864000134CCE70124288801F01D
:101A900037FA20003B6801333B6009B0F0BD0124F8
:101AA000E2E7C0460000FFEF00000360FFFFFFEF2A
:101AB000000001600900000100000260032070477F
:101AC0000B0010B50268034918001DF099FA0020B8
:101AD00010BDC0462D69021010B502F06FFDC02286
:101AE00003009201904209D00AD88022520190420C
:101AF00004D080229201934200D00023180010BD30
:101B0000A022D2019042F9D0C022D2019042F5D059
:101B10008022D201EFE700000C23036000487047E9
:101B2000206902100D2303600048704712690210FB
:101B30004842484180007047F0B50E258BB00393B2
:101B400002ABED180290002301200F0016001121B6
:101B50002A0028800893099301F092F9041E1AD1F3
:101B6000364A374908A801F0E1F9288808A901F0A8
:101B7000DFF9041E0FD1334A330C1B04934259D1B1
:101B8000029B2888002B2FD0202F07D08724644267
:101B9000288801F0B5F920000BB0F0BD3B00029A97
:101BA000310001F0E1F9041EF2D1288806AA07A944
:101BB00001F0F4F9041EEBD1C0228021079BD2056D
:101BC0001A40C9058A4217D1069BDE1DF6082888EF
:101BD000119B109A039901F003FA041ED8D1119BAE
:101BE0001B68B342D4D9D1E780220094230052006D
:101BF000310001F013FAD6E7134A14491A408A4219
:101C000003D1069BDE081036E1E711498A4205D16F
:101C10000326069BDB085E434A36D8E70D4A0600DA
:101C200013400D4A9342D2D1069BDE1DF608760082
:101C30000136CCE787246442ADE7C04609000710AF
:101C4000010C000000000370FFFFFFEF00000160C7
:101C5000000002600000FFEF00000360F7B516000F
:101C6000020005001F00089B98320C0011605660AE
:101C700006CB00F065FF2800E10FA030009533008F
:101C80003A0000F03FFB041E04D0033C6042444194
:101C9000E01CFEBD0221280000F0A0FF2800052165
:101CA00000F09CFF2000F4E77047D0B516001F003D
:101CB0000400CB170A0000F058FF32003B00200060
:101CC00000F053FFD0BD73B5050016685468CB17FC
:101CD0000A0000F04AFF320028002300022100F031
:101CE00058FF73BD73B5050016685468CB170A001A
:101CF00000F03BFF320028002300032100F049FFE1
:101D000073BD7FB5060000220D00052100F087FF9E
:101D10006A460221300000F082FF30000099A030B6
:101D2000019A00F0F3FB002805D0033843425841E4
:101D3000033004B070BD02AC2100300000F0BCFFE5
:101D400003000128F5D00220002BF2D106CC06C5F5
:101D50001800EEE703000020242B05D005D8203B17
:101D60001800431E9841800070470020302BFBD0A4
:101D7000403BF5E710B51DF043F910BDF0B51D006F
:101D800087B0184B0291019003925A882968D318A2
:101D90000093154C002907D005AC20000422FFF762
:101DA000E9FF64882B681C193F27009BA34201D8D8
:101DB000002013E005AE042221003000FFF7DAFF17
:101DC000338801989A113A407188824208D10120E3
:101DD0001F40029B1F70039B2C60198007B0F0BD51
:101DE0006418E2E754880008588800080023F7B513
:101DF00006000F00150013600A4A0B4B12889A4226
:101E00000DD16B46DC1D3A002B0021000020FFF7AE
:101E1000B5FF012802D12378B342EDD1FEBD0120E8
:101E20004042FBE7548800081620000037B5140034
:101E3000022907D004290ED0012912D1037823608A
:101E400000203EBD6B469D1D0A0001002800FFF7E3
:101E500091FF2B88F3E70A0001002000FFF78AFFBB
:101E6000EEE701204042ECE737B5130004000929F2
:101E700027D8080021F0BAFA1012142325252525A9
:101E8000050B02212000FFF71EFF00203EBD0621AA
:101E90002000FFF727FFF8E70421F9E70521F1E724
:101EA00001AA03CBFFF7C2FF05000520002DEDD1ED
:101EB000019A2B0003212000FFF7F7FEE5E701213F
:101EC000E6E70520E2E70000F0B54368CDB0060084
:101ED00005920025242B03D103681D6A202343604B
:101EE0000722072300912A405B4229001AA8FFF726
:101EF000B5FE002806D00225012800D005252800BF
:101F00004DB0F0BD3200C6491AA8FFF7DCFE8023B1
:101F1000DB051D4000D066E1082229000FA80DAEA8
:101F20001DF018F90EAA310028000E95FFF75EFF8C
:101F3000012800D00BE10E9B04330F933388043B40
:101F40000FAAB8491AA81093FFF7BDFE0FA8FFF714
:101F5000E3FD11AE1190002806D00F9B3200B2496C
:101F60001AA87360FFF7BEFE0FA8FFF7DBFD119004
:101F7000002806D00F9B3200AC491AA87360FFF707
:101F8000B1FE212331000EA80E93FFF723FD032598
:101F9000071EB4D10E9B0FAAA5491AA810930F963D
:101FA000FFF791FE1223082239000FA80CAD0D9304
:101FB0001DF0D0F80EAA290001200E97FFF716FF9A
:101FC000012800D0CFE00E9B04330F932B88043BF5
:101FD0000FAA98491AA81093FFF784FE202311AE88
:101FE0000EAF310038000E93FFF76AFD032500287D
:101FF00000D084E70E9B0FAA8F491AA810930F9662
:10200000FFF761FE3000FFF7DBFC051E00D076E72E
:10201000119B119A89491AA8DB17FFF746FE320077
:10202000390002201195FFF7E1FE012800D0A5E05C
:102030003988119B0439181D0FAAFFF7F7FE0028F5
:1020400000D05BE70F9B9AB2C023DB019A4200D914
:1020500054E700237A491AA8FFF727FE012300243A
:10206000029300230A93774B774A1B88934275D1DA
:1020700012226B4604A952180F211B7A04A804935C
:1020800009180AAB0498FFF779FE431C66D00128B3
:1020900000D09BE00134012C0CD11AA8FFF704FEFC
:1020A00001236A4A5B42039000F05FFD042103981C
:1020B00000F094FD3F270A9B0BAD19000422280075
:1020C0000C93FFF757FE6A8809AB1A802B8808AA81
:1020D0003B401AA81370FFF7E7FD05210500002615
:1020E00000F07CFD08AB1978CB0800D184E0002E0D
:1020F00058D10C9B0DAE1900042230000E93FFF74F
:1021000039FE1623728804A95B181A8011223388BD
:1021100052183B401AA81370FFF7C6FD112304AAFA
:102120009B181978CB082DD1464B474A1B88934200
:1021300037D1162204A95218112104A809180EAB90
:102140000498FFF71BFE01300128E7D829E011AD04
:1021500029002020FFF73CFC002801D00325CEE613
:102160000F952023ECE631000DA8FFF7A7FC03250F
:10217000002800D0C3E60F960D9B29E7FFF7ACFCC3
:10218000020061E70E9B04AA0433119316239B18E7
:102190001B8811AA043B1AA81293FFF765FE0028BA
:1021A000C2D00126274B284A1B8893420ED109AA88
:1021B0000CAB08A90498FFF7E1FD0200431C05D011
:1021C00000288FD10521280000F029FD029B013352
:1021D0000293072B00D044E7002C19D000220421E1
:1021E000039800F01CFD05991AA8FFF78AFD002549
:1021F000A84200D183E67EE60C9B0FAA04330F931E
:1022000009AB1B881AA8043B1093FFF72DFEC9E702
:10221000012200230E491AA8FFF747FDE3E7C04655
:1022200000DBFEFF04DBFEFFFEDAFEFF08DBFEFF45
:10223000FFDAFEFF03DBFEFF05DBFEFF07DBFEFF31
:1022400006DBFEFF548800081620000002DBFEFFBC
:1022500001DBFEFF802210B5920002490120FFF74A
:10226000EFF910BD5488000870B5136886B0456852
:1022700006680293536828001400009601950393A2
:10228000FFF768FD002818D1012229003000FFF770
:102290004FFC002811D1022203990298FFF748FC55
:1022A00000280AD104AA02A96846FFF70DFE0028FB
:1022B00003D1049B2360059B636006B070BD0000E2
:1022C000002110B5036886B01B6814680091029164
:1022D00052680B49019303910420032A0DD9180079
:1022E000FFF738FD002808D104AA02A96846FFF7C5
:1022F000EBFD002801D1059B236006B010BDC04650
:10230000FFFFFF7FF3B50600FFB010001F000D00B8
:10231000079200F059F97B4B0124984266D0079B45
:10232000F761B3613319DD77869B7362002D60D04E
:1023300020211FA811AA1590169100F0CFF9041EB4
:1023400054D100231222869800F043FC0421869881
:1023500000F044FC10223AAD310028001892179684
:1023600000F0EEFB0521280000F038FC01220023DC
:10237000280000F0FAFB079B079ADB17280000F003
:10238000F4FB05212800220000F049FC27A92800C1
:1023900000F092FC002800D0B0E0279B289A33611F
:1023A0007261002B22D033002A00103303CB03C20A
:1023B00002216B683A9A869800F0EBFB119E129D01
:1023C0000521869800F00AFC04220023869800F07C
:1023D000CCFB3200022186982B003A963B9500F008
:1023E000D8FB00220521869800F019FC20007FB060
:1023F000F6BD202127AB09934B230C910E9111A917
:102400001FA8059117AA0FA90A930B920D9004918A
:10241000139514950DAA02A911CA11C16A460BABF6
:1024200003CB03C208AB29002A003800FFF784F968
:10243000041EDBD10A9A09993AA800F081FB052114
:102440003AA800F0CBFB012200233AA800F08DFB54
:10245000022200233AA800F088FB089D0122524284
:10246000D317EF173AA800F080FB2A003B003AA8E8
:1024700000F07BFB0F9F109D02225242D3173AA817
:1024800000F073FB2B003A0002213AA8159716952D
:1024900000F07FFB119F129D03225242D3173AA8EE
:1024A00000F063FB2B003A0002213AA8159716951D
:1024B00000F06FFB220005213AA800F0B0FB15A93F
:1024C0003AA800F0F9FB0234002800D08EE71FABD9
:1024D000179320230C493AA81893FFF771F9041EAB
:1024E00000D083E71599169A3AA8FFF78BF911AB3C
:1024F0001799189A3AA8FFF793F920E722002300CA
:102500004DE7C046FFFFFF7FC0E6FEFFF0B5ABB072
:1025100007921AAA0C9240252022040006910CAEC4
:1025200012A90F9275600E9106AB02A8944684CB57
:1025300084C023006846103384CB84C008AB624655
:10254000A06900F04FF8071E2CD1631CDB7F002B25
:102550002BD00600089B0593099B0493049B2A003B
:102560009D4200D91A001AAB981905991CF048FD34
:10257000049BF618ED1A3F2EF0D91AAB0A934023AC
:102580000B93656A08220AA910A81CF039FD109A5D
:1025900002212800119B00F0FCFA00220421606A4D
:1025A00000F03DFB38002BB0F0BD0AAB02936B4648
:1025B00006CE06C3089A099BE169A069FFF78AF86D
:1025C0000028DED00700EDE7073043425841034BB7
:1025D00040421840024BC0187047C046C1E6FE7F1B
:1025E000FFFFFF7FF3B5FFB0029103920BA92122F9
:1025F000050014A8019300F0A3FA042114A800F028
:10260000EDFA334C3AAE20001DF0BEF82200030074
:1026100003213B9014A83A9400F0BBFA3300002445
:1026200086AF06CF06C314A83A9A879B022100F012
:10263000B0FA22002300022114A83A943B9400F03F
:10264000A8FA22002300022114A83A943B9400F037
:10265000A0FA23002200022114A83A943B9400F02F
:1026600098FA2200042114A800F0D9FA07A914A8A6
:1026700000F022FB03001420A34222D10735694257
:102680006941144D4942144B2940C9183000FFF7E5
:1026900097F8A04215D108998A1E914213D2099049
:1026A0000A9009990A9A3000FFF7ACF888997A687D
:1026B0003000FFF7A7F8019B0299039A3000FFF75B
:1026C000AFF87FB0F6BD079B0A920993E9E7C046D1
:1026D0001C6A0210C1E6FE7FFFFFFF7F70B5202459
:1026E00092B00AAE0290039115000E49220030000C
:1026F0001CF086FC6A460994089608AB03CB03C21B
:1027000004AC039A02992000002300F04DF9230045
:1027100006CB06C5236807205A4253415B42184046
:1027200012B070BDFC690210F0B597B08021702026
:102730000906FEF7C7FB10230700184215D0302208
:1027400000210AA81CF006FD0AA91020FEF7DCFBF8
:10275000041E0AD10A9B022B21D0032B01D0012B8E
:1027600064D121000B98FEF795FD2024274200D16B
:102770008EE0302200210AA81CF0ECFC0AA92000FF
:10278000FEF7C2FB011E00D082E00A9B022B52D052
:10279000032B02D0012B00D093E00C0074E00E99C3
:1027A00001201BF041FD051E1AD00E9B02002100E6
:1027B0000B98FEF703FD0E9B0393984207D0280069
:1027C0001CF0E0F844227249724816F01BFD129981
:1027D00001201BF029FD061E04D128001CF0D2F8B0
:1027E0000524BEE70E9B06950793129B0890039362
:1027F0000993FFF72FFD041E06D028001CF0C2F835
:1028000030001CF0BFF8ACE7634B0C9A06A81A60C6
:10281000012308AA1900FFF727FD041EEDD10100CE
:10282000099B089A0B98FEF7E9FCE6E764225849F1
:102830005A4816F0E7FC04AD0E9B2A000B98FEF7F1
:10284000BDFC0E9B0393984202D081225449BBE702
:1028500005AB0893129B0695079003930993FFF726
:10286000F9FC041E10D14C4B0C9A06A81A600123E7
:1028700008AA1900FFF724FD041E05D10100099BD9
:10288000089A0B98FEF7BAFC21000B98FEF702FDA0
:102890004024274200D149E7302200210AA81CF039
:1028A00059FC0AA92000FEF72FFB011E00D03DE7CE
:1028B0000A9B022B08D0032B01D0012B64D10C0002
:1028C00025E096223649B3E70E9B06908724042B19
:1028D00058D108AA0B98FEF771FC0E9B03939842FF
:1028E00002D0B9222F496FE7129901201BF09CFCFE
:1028F000061E46D00F99002920D001201BF094FC21
:102900000400051E08D130001CF03CF88D3C21006D
:102910000B98FEF7BFFC09E70F9B020001210B9803
:10292000FEF74CFC0F9B0393984208D030001CF03C
:1029300029F820001CF026F8CE22D3E70D00129BC8
:1029400006AF0393009301973300089A0F9928006C
:10295000FFF7F2F8041E05D10100069B32000B9828
:10296000FEF74CFC0B9804233A000121FEF746FCCD
:1029700030001CF007F8002DC9D028001CF002F828
:10298000C5E78D246442C2E7E722064950E7C04606
:10299000276A02106C6A0210548A00088C6A0210BE
:1029A0003C6A0210566A0210F7B5050000911C003F
:1029B000934203D8099ED21AB24204D200232B605C
:1029C0006B602800FEBD009F3200F8180899A4191A
:1029D0001CF016FB2F606C60F3E7000082B06B46C2
:1029E0005A60054A0091828100228260827306CB80
:1029F00006C002B07047C0460F0B000073B50091CF
:102A000001921E00837B0400002B05D1124B8289AA
:102A10009A4202D00123A37373BD826843689A422D
:102A2000F8D8019D9B1AAB42F4D3B242F2D3921B69
:102A300006D00168002903D0891948191CF032FB1F
:102A40002068002804D080192A0000991CF02AFB75
:102A5000A3685D19A560DFE70F0B00008B7B10B545
:102A6000002B03D000230360436010BD054A8C890E
:102A7000944202D001228A73F5E78B6843600B68A9
:102A80000360F2E70F0B0000F0B515248BB0119D29
:102A900004AB0290039101921098E418002D2FD1FD
:102AA00017282DD8002A2ED12100C0B2039B01394E
:102AB0005B01C0180870621A129B0298FFF79EFF14
:102AC0000BB0F0BD114EF75C0E00013EF243944690
:102AD0008C4467450EDC019A0133D21BC91B01925D
:102AE000DBB206002E43EDD1019A002AEADC17334F
:102AF000D8B2DBE72A063070000A10432D0AE4E75B
:102B000000232100EDE72B00FBE7C046AF6A02106F
:102B10001FB584680092019302940022FFF7B4FF6E
:102B20001FBD00008388054A0321D21A012A02DD55
:102B300000210133838008007047C046FEFF00007B
:102B400013B5040000910192002198221CF002FBB1
:102B5000019A00992000FFF741FF22002300143260
:102B600094331A600423A37613BD10B5017C0400CE
:102B700000290DD1002B02DAD243DB4301312000C2
:102B8000FFF7C6FF230094331868FFF7CBFF2074CC
:102B900010BD30B585B06D4600926B60037C0400BB
:102BA000002B14D1092902D0019AFFF7B1FF2A00A6
:102BB00002AB03CA03C32000A36802996A68FFF747
:102BC0001DFF230094331868FFF7ACFF207405B095
:102BD00030BD10B50621FFF79BFF10BDF8B505000D
:102BE0009435040028680E00FFF79CFF207400282D
:102BF00005D1A7683B00663302D907232374F8BDCB
:102C000022002B688C320221934206D01A00010068
:102C100008322A6098819F609E732174EFE7F0B5B7
:102C2000037C89B004000D001700002B08D10600BA
:102C30000200943633681432934203D10423237480
:102C400009B0F0BD9A798A4201D01023F7E71A68DB
:102C5000049282680592022924D11300049A981ADA
:102C6000049B009002930023290001931A00200086
:102C7000FFF70AFF002F11D0210006A8FFF7EEFE94
:102C8000059A049B06999B1AA2689B18079A93427F
:102C90000FD8D21A002900D0C91806C73368083BDC
:102CA0003360CDE70339988889B220F0B3FB80B256
:102CB000D6E700221100F0E773B5057C0E00002D69
:102CC0000FD1030094331A68803B9A420BD1837B67
:102CD000002B0AD16C4601002000FFF7BFFE0CCC90
:102CE0000CC6280076BD0A25FBE70125F9E710B5DB
:102CF0000C000121FDF7C6FE00232060984200DC95
:102D0000913B180010BD10B504000068FDF788FF66
:102D10000023236010BD73B5050006A810C806780F
:102D2000286800280ADD0094FDF718FF0400002E33
:102D300002D02800FFF7E7FF200076BD8924644217
:102D4000FAE77FB51E0000230C0003A915000393CA
:102D5000FFF7CDFF002809D101230193089B2A002A
:102D600000932100330003A8FFF7D5FF04B070BD26
:102D700030B5026887B00500002A1DD10E2002ABD5
:102D800018705A800493082303910D482900059375
:102D9000FFF7ADFF041E0CD101900090030001224B
:102DA00004A92800FFF7B7FF041E02D02800FFF790
:102DB000AAFF200007B030BD89246442F9E7C0466D
:102DC000020F00000F2330B589B0050002A8037080
:102DD00000230490438008200691059007920193F8
:102DE0000093022204A928000393FFF794FF041E16
:102DF00002D02800FFF787FF200009B030BD30B5B2
:102E000010248FB01500039204AA147000240692B7
:102E100054800822079203AA089204220C930123EB
:102E200009920D92023A0A91019300920AAB06A907
:102E300005940B95FFF76FFF0FB030BD30B58FB025
:102E40000993129B03910A93139B00210B93149BEC
:102E500008920C9302222425042302AC04910591CC
:102E600010316080257007910D9300920AAB06A97E
:102E700002480694FFF765FF0FB030BD030F000056
:102E800000B58FB00391118806AB1980002108911D
:102E9000043119730A9310230B9303AB0C93012392
:102EA0000492022207900D9100930AA904AB0348F3
:102EB0000592FFF746FF0FB000BDC046060F0000A9
:102EC00000B58FB00391118806AB198000210891DD
:102ED000053119730A9310230B9303AB0C9304234E
:102EE000049202220D93033B079000930AA904ABBE
:102EF00002480592FFF725FF0FB000BD060F000046
:102F0000062100B589B004AA002310801173029233
:102F100010220093039202A90F3A034805930693E7
:102F2000FFF70FFF09B000BD060F000006C0704795
:102F300000B58BB002AA10800B20069210731022ED
:102F4000089107924A1E91410023C90009910093FC
:102F5000022206A9034803930493FFF7F2FE0BB085
:102F600000BDC046060F000070B58AB016001D00F7
:102F7000049100230222102102AC208022730791C9
:102F8000009306A904480393069408960995FFF751
:102F9000D8FE0AB070BDC046060F000000B58DB067
:102FA00004AB188000200590069008301873029337
:102FB0001023089103930A924B1E9941531E9A4184
:102FC00002238900920009910B920093012208AB21
:102FD00002A90248FFF7B5FE0DB000BD060F0000C4
:102FE00010B58CB004AC208000200A930423059017
:102FF00006900A3020730B930630023B0390089131
:1030000009920093012208AB02A903480294FFF73A
:1030100098FE0CB010BDC046060F000030B58FB052
:1030200003921D1E129C04D1002C04D08720404224
:1030300017E0002CFAD00691292104AA1080117300
:1030400008921022099203AA00230A9204220093F4
:103050000B9208A9013A044805930C950D94FFF7CB
:1030600070FE0FB030BDC046060F0000802210B5C4
:103070005200002101481CF06DF810BD588A00086C
:10308000802210B55200002101481CF063F810BDE9
:10309000588A00080B4A70B5002314001588002DCB
:1030A00007D15568002D04D1DB00E052E3185960C8
:1030B00070BD01330832202BF0D13B220249034876
:1030C00016F0A0F8588A0008B36A0210096B0210C3
:1030D000002370B5084ADC00A1180D88854203D191
:1030E0000023A3524B6070BD0133202BF3D1482243
:1030F0000249034816F086F8588A0008DD6A021073
:10310000416B0210002210B5074B1C88844202D18B
:103110005C688C4205D001320833202AF5D10020AA
:1031200010BD0120FCE7C046588A000810B5040015
:10313000C0681BF027FC00216068FEF749F910BD4C
:10314000084B5A68904204D01A690121904201D07C
:10315000704700210C224A43002199509B18596066
:103160001972F5E7588B0008F0B599B030220021AC
:103170000CA81BF0EFFF80200CA98001FDF7C4FE16
:10318000041E16D10C9B022B15D0032B00D1F3E0AB
:10319000012B00D0F7E0FC21180049001BF044F897
:1031A000011E42D00D98FEF713F921000D98FEF78D
:1031B00071F819B0F0BD09AD01000C2228001BF018
:1031C000C9FF109B0C2B00D0D2E02A0021000D98E3
:1031D000FDF7F4FF109B0593834204D0734A7449B2
:1031E000744816F00FF828782A38052800D9C1E06D
:1031F00020F0FCF803122F515997002308A90F98CB
:10320000089304F0FBFF041ECFD10100042308AA99
:103210000D98FDF7F3FFC8E7149E002E07D031008C
:1032200001201BF001F8051E02D18D2444E0350079
:10323000320029000F9804F0EBFF041E05D10100B5
:1032400033002A000D98FDF7D9FF28001BF09AFBE8
:10325000ABE768880E99FFF755FF00282BD0119B2C
:1032600007AA01210D98FDF7A9FF042801D0524AB1
:10327000B5E7129B08AA02210D98FDF79FFF0428CD
:1032800001D04E4AABE768880F9B089A079905F072
:103290002BF9040089E70F9804F066FF04000CA8DE
:1032A000FFF744FF81E768880E99119C129FFFF792
:1032B00029FF002802D18824644276E70025AC4229
:1032C0000FD0210001201AF0AFFF051E1CD0020014
:1032D000230001210D98FDF771FF844201D0384A87
:1032E0007DE70026B74253D0390001201AF09CFF39
:1032F000061E0AD002003B0002210D98FDF75EFF7A
:10330000874245D02F4A6AE706008D246442280090
:103310001BF038FB30001BF035FB002C00D144E7DC
:10332000BDE768880E99119CFFF7ECFE0028C2D01B
:10333000002C0FD0210001201AF076FF0200061E9B
:1033400013D0230001210D98FDF738FF844202D0ED
:103350001D4A44E726006B686988320000930F9885
:10336000230005F029F90400D4E78D24644296E790
:103370009124A1E786249FE70F98002800D114E745
:1033800004F0F2FE8BE7114A0949114815F03AFFA3
:103390000B9B09AA51880F980393009402970196FA
:1033A0002B000A9A05F0CDF80400B0E725060000CE
:1033B0005D6C02106C6A0210570600005D0600008A
:1033C0007C06000087060000A9060000CC0600006D
:1033D0008C6A0210F0B5A5B08021C6480906FDF739
:1033E00071FD10220990104229D00021203218A826
:1033F0001BF0B0FE18A91020FDF786FD00281ED195
:10340000189B022B06D0032B02D0012B00D0ADE07D
:10341000040010E005F0A8FA041E0CD1B64A1368A7
:1034200001331360012B06D101001822B3481BF0B1
:1034300091FEFFF71BFE21001998FDF72BFF2024BA
:10344000099B234223D03022002118A81BF082FEC2
:10345000200018A9FDF758FD041E18D1189B022B57
:1034600000D188E0032B00D188E1012B00D08CE152
:10347000B421180049001AF0D7FE011E00D188E1DE
:103480001998FDF7A5FF21001998FDF703FF4024C7
:10349000099B234222D03022002118A81BF05AFE9B
:1034A000200018A9FDF730FD041E17D1189B022B30
:1034B00000D170E1032B00D1A5E2012B00D0A9E2DD
:1034C000E02118001AF0B0FE011E00D1A5E2199803
:1034D000FDF77EFF21001998FDF7DCFE8024099B93
:1034E0006400234222D03022002118A81BF032FEB3
:1034F00018A92000FDF708FD051E17D1189B022B07
:1035000000D18CE2032B00D177E3012B00D07BE3C9
:103510004C2118001AF088FE011E00D177E319989B
:10352000FDF756FF29001998FDF7B4FE8024099B8A
:10353000234201D100F0A5FF3022002118A81BF082
:1035400009FE18A92000FDF7DFFC051E01D000F0E0
:1035500098FF189B022B00D15BE3032B03D0012BB8
:1035600001D000F014FC2C0000F087FF9822644981
:10357000644815F047FE0FAD0100082228001BF03B
:10358000E9FD1C9B082B00D0F3E02A0021001998CC
:10359000FDF714FE1C9B0A93984204D0E7225A4977
:1035A0005A4800F0EDFD28781538052800D9E3E0E9
:1035B0001FF01CFF03162566AEDA68881A99FFF71C
:1035C000A1FD002818D069886A681B9803F0DAFF0B
:1035D000051E00D157E718A8FFF7A8FD2C0052E7F9
:1035E00068881A99FFF78EFD002805D069886A68F7
:1035F0001B9803F0CCFFEBE788256D42EBE71D9DA0
:10360000002D36D0C82329005B009D4200D9190047
:1036100001201AF009FE0A90002809D11B988D2676
:1036200003F086FE764218A8FFF780FD34002AE7F3
:10363000C8232F005B009D4200D91F003B000A9A5F
:1036400001211998FDF7BAFD874202D08B22520062
:10365000A5E73A000A991B9803F09EFF061E01D1C8
:10366000ED1BE5D10A981BF08DF9002E00D10AE779
:10367000D9E72A0029001B9803F08EFF0600F4E723
:1036800000230CAA0C930D9301211D9B1998FDF7A3
:1036900095FD1D9B0A93984202D03422FF327EE7AB
:1036A0000C9900290DD001201AF0BEFD051E09D18C
:1036B0001B988D2403F03CFE644218A8FFF736FDEA
:1036C000E1E60D000DAB0C9A29001B9803F094FF66
:1036D000041E0BD101000D9B2A001998FDF78EFDE9
:1036E00004230DAA01211998FDF788FD28001BF07D
:1036F00049F9E2E7F07F0000708B0008588B000862
:103700007B6B02108C6A0210AF6B02106C6A0210A5
:1037100000230DAA0D9301211D9B1998FDF74EFD65
:103720001D9B0A93984203D11E990D9B994201D08B
:10373000A9228CE700290FD001201AF075FD0200A4
:10374000051EB5D00D9B02211998FDF737FD0D9B85
:10375000984202D0AE227AE70D000D9A29001B98FC
:1037600003F079FF0400C1E71B9803F0E1FD0400BA
:10377000A3E79124644286E68624FBE71B98002891
:1037800000D180E603F0D4FD97E78822B449FF32E8
:10379000EEE6B44C77E60FAD0100082228001BF0DE
:1037A000D9FC1C9B082B00D029E12A002100199884
:1037B000FDF704FD1C9B0A93984203D0D7225200C8
:1037C000A949EDE628780E38062800D919E11FF03E
:1037D0000DFE04104E7FADB2EB0069681B9803F03C
:1037E0003FF90400002C00D174E618A8FFF79EFCF6
:1037F00070E61D9D002D33D0C82329005B009D423B
:1038000000D9190001201AF00FFD071E05D18D24E3
:103810001B9803F0D7F864421EE0C8232E005B001B
:103820009D4200D91E0033003A0001211998FDF78E
:10383000C5FC864201D0E622C1E7320039001B9860
:1038400003F052F9041E01D1AD1BE6D138001BF084
:1038500099F8002C00D13DE61B98FFF771FCC4E7F6
:103860002A0029001B9803F03FF90400F1E7002328
:103870000CAA0C930D9301211D9B1998FDF79EFC3A
:103880001D9B0A93984201D0F52298E70C990029D4
:103890001CD001201AF0C8FC051EB8D00DAB0C9A44
:1038A00029001B9803F028F9041E0BD101000D9B81
:1038B0002A001998FDF7A2FC04230DAA01211998EA
:1038C000FDF79CFC28001BF05DF8C5E70D00E5E75F
:1038D00000230DAA0D9301211D9B1998FDF76EFC85
:1038E0001D9B0A93984203D11E990D9B994201D0CA
:1038F0005E4A65E7002911D001201AF095FC02000C
:10390000051E00D183E70D9B02211998FDF756FC97
:103910000D9B984203D08522920051E70D000D9A2D
:1039200029001B9803F0B0FC0400CBE71B9803F0C0
:1039300049F8040090E700254D4B1A981A680D9538
:103940001B99904202D15E68B14214D0DD68A84252
:1039500013D11E69B14210D101220D920C214A43AC
:103960009B181A7A002101321A72199804230DAAA1
:10397000FDF744FCAEE52A00F0E700260D96B242C2
:1039800002D15E68002E06D0002D0AD11A69002AE5
:1039900007D101320D920C256A4398509B1859604B
:1039A000DFE78924644295E51D9B0DAA0121199842
:1039B000FDF704FC1D9B0A93984201D02D4AFFE6B7
:1039C0000D9B1A9A012B17D80C255D43284FEB59F4
:1039D0009A4211D17E19706800280DD01B9903F00E
:1039E00073FC337A0400013BDBB23372002B00D04E
:1039F000F8E6EB517360F5E689246442F5E691241C
:103A0000D0E78624CEE71B98002800D162E502F0BB
:103A1000D9FF21E7184A1449AAE5124C5AE50DAC22
:103A20000100082220001BF095FB1C9B082B00D0F6
:103A3000DEE0220029001998FDF7C0FB1C9B0A93C9
:103A4000984202D00D4A0E49AAE520781B38062874
:103A500000D9D0E01FF0CAFC16293854729DC70067
:103A6000AF6B021001000080C16B02100A0200005F
:103A7000588B00083B0200005D020000AB03000011
:103A8000006C021060881A99FFF73CFB002818D0E0
:103A9000618862681B9804F06DF9041E00D141E54D
:103AA00018A8FFF743FB25003CE560881A99FFF74B
:103AB00029FB002805D0618862681B9804F05FF933
:103AC000EBE788246442EBE70021209C10220FA83A
:103AD0000C911BF03FFB0CAB22000FA91B9804F0CC
:103AE00075F9051E26D10C9B0FAA01001998FDF748
:103AF00085FB04230CAA01211998FDF77FFB11E532
:103B00001D9C102200210FA81BF024FB23000FAAEC
:103B100001211998FDF752FB844202D0F82292004D
:103B200091E722000FA91B9804F02EF90500002D43
:103B300000D1F7E418A8FFF7F9FAF3E400271D9D78
:103B4000209E0F97BD420FD0290001201AF06CFB78
:103B50000200071E15D02B0001211998FDF72EFB3E
:103B6000854201D0CB4A6EE70024A64201D100F085
:103B7000D8FC310001201AF057FB041E01D000F0E0
:103B8000D0FC8D251B9804F029F800246D4200F02C
:103B9000DFFC0023209D0F939D420BD029000120C4
:103BA0001AF042FB041E06D18D251B9804F016F86E
:103BB0006D42BFE72C002A000FAB21001B9804F0D8
:103BC00065F9051E0BD101000F9B22001998FDF726
:103BD00015FB04230FAA01211998FDF70FFB200004
:103BE0001AF0D0FEA6E71B9803F0F8FF0500A1E746
:103BF00091256D4296E48625FBE71B98002800D1AD
:103C000090E403F0EBFF95E7A34AA449B0E4A44D88
:103C100088E41C9B91240A93102B00D0B3E0199EDA
:103C20000FAC0100102220001BF094FA1023220098
:103C300029003000FDF7C2FA1C9B0A93984202D07B
:103C4000984A9949ACE460881A99FFF75BFA002812
:103C500000D197E020782438032800D995E01FF0A0
:103C6000C5FB022A5A5A0025209F0D951D9CAF4284
:103C700005D0390001201AF0D7FA051E16D000260B
:103C8000B44201D100F0DAFB210001201AF0CCFA95
:103C9000061E0CD00200230001211998FDF78EFAB0
:103CA000844200D1CAE3A7229200CAE706008D240D
:103CB000644200F0DCFB00261D9B1E9F0A93B3426A
:103CC00010D0190001201AF0AFFA061E21D00A9B6D
:103CD000020001211998FDF771FA0A9B834201D075
:103CE000724AAEE70025AF4201D100F0E5FB390092
:103CF00001201AF099FA051ED9D002003B000221DA
:103D00001998FDF75BFA874201D100F0D5FB684AAC
:103D100097E70500CBE700231D9E0D93209F9E4251
:103D200001D100F0FBFB310001201AF07DFA051EE5
:103D300026D00200330001211998FDF73FFA864290
:103D400001D05C4A7DE72E00A368EB180A933D1E64
:103D500000D1BCE3390001201AF066FA051E00D03C
:103D6000B5E38D24644200F0D4FB049262460192D4
:103D70000A9A039700920295320003F0C7FEBAE355
:103D80000600EEE78824644277E38624FBE74A4A8C
:103D90004549FFF7EDFB1C9D9126242D57D1199F16
:103DA0000FAE01002A0030001BF0D4F92B003200C6
:103DB00021003800FDF702FA1C9B0A93984204D0B8
:103DC000CE2292003D49FFF7EBFB70881A99FFF76E
:103DD00099F900283AD03378223B012B39D81D9D20
:103DE0000D94209F002D00D126E3290001201AF018
:103DF0001BFA041E28D002002B0001211998FDF7A0
:103E0000DDF9854201D0D422DBE72500F368E31811
:103E10000A933C1E00D1A3E2390001201AF004FAF3
:103E2000041E00D09CE28D267642C1E203920A9ADB
:103E300006960292624605970192049400950B9BA8
:103E400014AA04F013F9A5E20500ECE788267642EF
:103E5000B4E28626FBE71A4A1849FFF789FB1C9B48
:103E60000A93102B00D0B7E1199E0FAD010010226C
:103E700028001BF06FF910232A0021003000FDF705
:103E80009DF91C9B0A93984220D00E4A0E49FFF7D9
:103E900087FBC046F703000049040000006C0210D5
:103EA000010000807E020000D46B0210BE02000000
:103EB000C9020000E702000017030000ED6B0210CA
:103EC000820300006E040000186C0210287B1A9E0A
:103ED0000238272800D981E11FF092FA5D003301F2
:103EE00040015B01730184009400BC00E5003A00CE
:103EF0005100280080018001800180018001800143
:103F000080018001800180018001800180018001A9
:103F10008001800180018001800180018001800199
:103F200080018001800180018001FF00288831002C
:103F3000209FFFF7E7F8002834D028880DA904F067
:103F400017F8041E00D056E23B000DAA21007AE0CB
:103F5000288831001D9CFFF7D5F8002822D02300C7
:103F60000DAA01211998FDF729F9844201D0A54A2B
:103F70008CE728880DA903F0D5FF04003BE22888D0
:103F80003100209FFFF7BEF800280BD028880DA92C
:103F900003F0DEFFD5E7288831001D9CFFF7B2F85B
:103FA000002802D18824644225E2002C07D0210099
:103FB00001201AF039F9061E02D18D24F3E72600FC
:103FC0002300320001211998FDF7F8F8844201D04E
:103FD0008D4A5BE7288823003200A96802F062FC62
:103FE00004005AE028883100FFF78CF80028D9D067
:103FF000288802F083FC041E00D0FCE12888FFF72B
:1040000067F8F8E10023288831000C930D93FFF73F
:1040100079F800281BD028880DAA0CA902F085FC8D
:104020000400209B0A93032B05D904230CAA00212A
:104030001998FDF7E3F8219B0A93032B00D8DAE1E6
:10404000042301210DAA1998FDF7D8F8D3E188249B
:104050006442E6E728883100209CFFF753F80028E7
:10406000A0D0002C1DD0210001201AF0DDF8061E82
:10407000A3D028880DAB2200310002F077FC041E8B
:1040800005D101000D9B32001998FDF7B7F8042304
:104090000DAA01211998FDF7B1F830001AF072FC51
:1040A000A9E12600E5E728883100209CFFF72AF8DF
:1040B000002800D176E7002C0DD0210001201AF055
:1040C000B3F8061E00D178E728880DAB2200310036
:1040D00002F061FCD3E72600F6E7288831001D9F37
:1040E0001E9CFFF70FF8002800D15BE73B000DAAEC
:1040F00001211998FDF762F8874201D0434AC5E6CD
:10410000434BAA6800269A4213D1B44211D0210031
:1041100001201AF089F80200061E00D14DE72300A5
:1041200002211998FDF74AF8844202D0A822D20051
:10413000ACE62888009433000D9AA96804F016FBB9
:104140004EE7280004F0FEFC041E00D053E128884E
:104150003100FEF79FFF02232A00F7E61D9B0DAA00
:10416000012119980E96FDF729F81D9B0A93984294
:1041700001D0284A8AE6042804D0274A274928483B
:1041800015F040F82B000D990E9A686804F005FDB3
:10419000DAE71D9B0DAA012119980E96FDF70EF87E
:1041A0001D9B0A93984201D0AE22C0E7042801D09B
:1041B0001C4AE3E72B000D990E9A686804F0C8FCCE
:1041C000C2E728883100FEF79DFF002800D1E9E60C
:1041D000288804F00FFD0EE79124E4E68624E2E649
:1041E000B3220E49D200FFF7C3F9209E002E1BD048
:1041F000310001201AF018F8051E16D18D246442F2
:1042000022E0C04695040000C10400003305000010
:10421000000001705B0500005F050000186C0210D3
:104220007D6C02107405000035003100280004F098
:104230005BFA041E05D1010033002A001998FCF72F
:10424000DDFF28001AF09EFB21001998FDF722F8E7
:104250008024099B6401234215D00021302218A834
:104260001AF078FF18A92000FCF74EFE00280AD1AA
:10427000189B022B2DD0032B01D0012B3BD1002109
:104280001998FDF707F8099B9B0401D5FEF76CFF11
:104290008024099BE401234201D1FFF79DF800210E
:1042A000302218A81AF056FF18A92000FCF72CFE9F
:1042B000002801D0FFF790F8189B022B1FD0032B8A
:1042C00001D0012B45D104003DE0A54AA549FFF7E7
:1042D0004FF9A54A1368002B01DD013B13601168FB
:1042E0000029CCD11822A1481AF034FFFEF7C8FEED
:1042F00004F01EFBC3E7C0229D49FFF739F9802374
:104300001C9CDB009C4228D8002C07D021000120F7
:1043100019F08AFF051E02D18D241FE0250023001D
:104320002A0000211998FCF749FF844203D0914AE2
:104330009149FFF735F92100280004F0EBF904005A
:1043400028001AF01FFB21001998FCF7A3FFFFF7C4
:1043500043F88A4A8849FFF70BF987246442F2E759
:10436000F2683389708871689446326936780B93A5
:1043700033000DAE222B00D058E503920A9A069620
:104380000292624605970192049400950B9B14AA31
:1043900003F0FAFD061E0BD101000D9B22001998B7
:1043A000FCF72CFF04230DAA01211998FCF726FF26
:1043B00028001AF0E7FA20001AF0E4FA3100199800
:1043C000FCF768FF8024099BE400234217D03022C9
:1043D000002118A81AF0BEFE200018A9FCF794FDD1
:1043E000041E0CD1189B022B00D138E5032B02D000
:1043F000012B00D0F4E621001998FCF74BFF802434
:10440000099B2401234200D122E70021302218A871
:104410001AF0A0FE18A92000FCF776FD002800D0B5
:1044200016E7189B022B00D1DFE6032B02D0012BED
:1044300000D04AE7040007E70A95EAE40FA90DABAC
:10444000488832000293019723000095109903F0E9
:1044500039F9041E05D10D9B2A0021001998FCF79B
:10446000CDFE04230DAA01211998FCF7C7FE3000E8
:104470001AF088FA28001AF085FA21001998FCF73A
:1044800009FF8024099BA40023429BD030220021F5
:1044900018A81AF05FFE200018A9FCF735FD041ECD
:1044A00090D1189B022B00D175E4032B02D0012B75
:1044B00000D0D0E4260081E70A9B60880193009633
:1044C00061683B002A0003F0F9F90400CFE7E268D5
:1044D00060886168A368247894460DAA262C00D0D1
:1044E00043E40492624601920A9A0397009202956D
:1044F000320003F097FA041E05D101000D9B2A003B
:104500001998FCF77BFE04230DAA01211998FCF7EA
:1045100075FE28001AF036FA3000ACE70A96FFF76D
:1045200016FC0FAB01932A000096230039001B985C
:1045300003F078FC051E0BD10F9B2200290019986F
:10454000FCF75CFE04230FAA01211998FCF756FE24
:1045500038001AF017FA20001AF014FAFFF7E7FAF9
:10456000FC0500004B6C0210708B0008588B000893
:10457000956B0210C3050000356C0210CF050000DA
:1045800080235B01036000207047802310B55B012E
:10459000984202D100F0AAFB10BD86204042FBE702
:1045A000BFF34F8F034B044ADA60BFF34F8FC0460F
:1045B000FDE7C04600ED00E00400FA05882030B5B4
:1045C000012187B04002FCF75DFA002405002000BD
:1045D000A54215DD03AB049304230593033B00932D
:1045E000220004AB210028000394FCF7B7FA8023D3
:1045F0001B06984200D103942800FCF711FB039896
:1046000007B030BD10B5FFF7CBFF036907B5042B2A
:1046100002D0802000060EBD01AA00214068FCF7F0
:10462000CDFD0428F5D10198FFF7AFFFF3E773B58F
:10463000066A0500042E0CD101A8FFF7A1FF041E95
:1046400005D10100330001AA6868FCF7D7FD2000FE
:1046500076BD80242406FAE7036810B50400022B17
:1046600005D0032B01D0012B07D1002101E08847A1
:1046700001006068FCF70EFE10BD4A2201490248A5
:1046800014F0C0FDB66C0210D65D021070B58CB08F
:1046900030220021684680261AF05CFD102536067F
:1046A00031007020FCF70EFC0400284209D0694656
:1046B0002800FCF729FC0028F2D10E496846FFF7D4
:1046C000CBFF2020044208D06946FCF71DFC0028DF
:1046D000E6D109496846FFF7BFFF40200442DFD01A
:1046E0006946FCF711FC0028DAD104496846FFF757
:1046F000B3FFD5E72F4600100B460010054600100B
:10470000184B984224D010DC174B984222D004DC7E
:10471000164B984220D0842312E0154B98421DD0AE
:10472000144B9842F7D18E230AE0134B984209DCD0
:10473000124B984214DA124BC01892230128EAD87F
:104740005B4203E00023984200D0843B180070478E
:104750008523F5E79823F3E78723F1E78C23EFE739
:104760009523EDE71201FF800201FF800101FF8028
:104770000701FF800B01FF804601FF804501FF809C
:10478000E5FE007FF0B53F240021A446059D0F4EB5
:1047900067462F40F75D4C1CE4B24754AD0913D176
:1047A000233502310555C9B21C3517002F40F75D7E
:1047B0004C1C4754920999060A43E1B214009B0924
:1047C0001C43F2D14454F0BD2100E1E7C66C021055
:1047D000F0B589B003930023150006930268079390
:1047E0000193059305AB00939769082306AA04007B
:1047F0000E00B84700280FD1059B01001848082B70
:104800000FD1069A2B689A4204D80CD1079A6B688C
:104810009A4208D9134804E0134B01219842F0D082
:10482000124814F0EFFC9A4215D22A0006A9200083
:10483000039B984700280CD10022236800925F69EF
:104840002A00082331002000B847002805D0084876
:10485000E7E70848E5E70029EED109B0F0BDC0461A
:10486000066D0210526D02100701FF802A6D0210C2
:104870009E6D0210816D0210F0B51D00012389B0FC
:104880000F00109904001600994319D113002B430F
:1048900019D0132203A81AF05DFC2B00320003A8E4
:1048A0000097FFF76FFF109A236800925D690F9AD7
:1048B0000E9B03A92000A847FFF722FF09B0F0BD17
:1048C00086204042FAE78720FBE7F0B51D00130081
:1048D0008BB004000F0016002B4335D000211322AB
:1048E00005A81AF037FC32002B0005A80097FFF747
:1048F00049FF236803AADB6905A92000984700281F
:104900001ED1039A109B9A421ED311995B188B42B9
:104910001AD39A4202D28A20404213E0109A2368A6
:10492000019202AA009202909D69129A119B05A918
:104930002000A847002803D1029B119A9342EAD392
:10494000FFF7DEFE0BB0F0BD8720E5E7F0B51E00F7
:1049500013008DB0050003911700129C33431FD044
:104960000021132207A81AF0F5FB039B3A000093DD
:1049700007A83300FFF706FF2B6805AADB6907A924
:1049800028009847002807D10123069A60601A4240
:1049900000D06360059B2360FFF7B2FE0DB0F0BD51
:1049A00087204042FAE7F0B51D00130089B00400EB
:1049B0000F0016002B4313D00021132203A81AF076
:1049C000C9FB32002B0003A80097FFF7DBFE23682A
:1049D00003A91B6A20009847FFF792FE09B0F0BDBB
:1049E00087204042FAE710B503681B699847FFF734
:1049F00087FE10BD0020704770B50B4C2378BFF3C5
:104A00005B8F0A4DDB070CD4200014F0D3FC002888
:104A100007D0200014F0E6FC054A0649280014F0EF
:104A2000BDFC280070BDC046748B0008788B000860
:104A3000C0000008F971011037B5FFF7DDFF0A4922
:104A400012F0E0FB6A461100084B1860084B30CBAF
:104A500030C1002802D1074814F0D4FB064B0749A7
:104A6000FFF7B6FE37BDC046CC6D0210C88B0008FC
:104A7000C46D0210E96D0210F54900100A6E0210B3
:104A8000F0B50C4C1F00236885B005001600002B04
:104A900001D1FFF7D1FF0C9B320002930B9B290041
:104AA00001930A9B009320683B00FFF7E5FE05B0E9
:104AB000F0BDC046C88B0008F0B50C4C1F00236841
:104AC00085B005001600002B01D1FFF7B5FF0C9B48
:104AD000320002930B9B290001930A9B00932068EC
:104AE0003B00FFF7F2FE05B0F0BDC046C88B0008E2
:104AF000F7B5094C1F00236805001600002B01D1F3
:104B0000FFF79AFF089B3200009329003B002068C2
:104B1000FFF71CFFFEBDC046C88B0008F8B5084C67
:104B20001F00236805001600002B01D1FFF784FF4A
:104B300032003B0029002068FFF735FFF8BDC04672
:104B4000C88B000810B5FFF757FF064912F05AFB53
:104B5000054B1860002802D1044814F053FBFFF7FE
:104B600042FF10BDCC6D0210C88B0008E96D021029
:104B700030B58BB002900391002B01D1002A22D1D5
:104B800002A90491069308210EAB08930423059112
:104B90000F48073907920993FBF774FF051E15DDCF
:104BA00000230322009304A9FBF7D8FF802304000D
:104BB0001B06984201D1922464422800FCF730F889
:104BC00020000BB030BD87246442F9E79224FBE754
:104BD000011A010030B58DB00392109A049005912E
:104BE000002A01D1002B24D104A9089108210991A0
:104BF00003A90A918D20042140020B9103390692EA
:104C00000793FBF73FFF051E16DD012302220093E9
:104C100008A906ABFBF7A2FF802304001B069842FD
:104C200001D1922464422800FBF7FAFF20000DB066
:104C300030BD87246442F9E79224FBE7F0B58BB0DE
:104C400002900391161E24D000230493059302AB17
:104C50000693082304AC0121104807930894099394
:104C6000FBF710FF071E17DD012208AB009206A913
:104C7000FBF774FF0CCC0CC6802305001B06984282
:104C800001D192256D423800FBF7CAFF28000BB016
:104C9000F0BD87256D42F9E79225FBE7021A010076
:104CA00030B587B002AB0493082302900391012131
:104CB0000D480593FBF7E6FE051E12DD00230122D9
:104CC000009304A9FBF74AFF802304001B069842C7
:104CD00001D1922464422800FBF7A2FF200007B014
:104CE00030BD92246442F9E7031A010037B501216F
:104CF0000C48FBF7C7FE051E11DD00210B000091DB
:104D00000A00FBF72BFF802304001B06984201D109
:104D1000922464422800FBF783FF20003EBD9224CA
:104D20006442FAE7041A010010B5FFF70BFF10BD4B
:104D30000023002213B50092019303690400082B9D
:104D400002D08020000616BD6A4600214068FCF7AC
:104D500035FA0828F5D1009A019BA068FFF7DEFE1E
:104D6000F1E770B586B004AE0400082200213000DF
:104D70001AF0F0F900230022029203932369082B12
:104D800004D080252D06280006B070BD236A082BAC
:104D9000F7D102AA00216068FCF710FA0828F0D1C8
:104DA000029A039B0096A068FFF7A2FE051EEAD1B7
:104DB0000100236A32006068FCF720FAE3E7002371
:104DC0000022002170B588B00692079303690400A1
:104DD0000591082B04D080252D06280008B070BD51
:104DE0004569042DF7D106AA4068FCF7E7F90828C1
:104DF000F1D12B0005AA01216068FCF7DFF9042836
:104E0000E9D1206A19F0B4FD061E1AD0236A029077
:104E10000193059BA0680093069A079BFFF74CFE41
:104E2000051E05D10100236A32006068FCF7E6F92F
:104E3000226A002130001AF08DF9300019F0A2FD2D
:104E4000CBE792256D42C8E700230022F0B500268B
:104E500089B0069207930369040047690596082BF9
:104E600004D080242406200009B0F0BD8569042DFB
:104E7000F7D106AA31004068FCF7A0F90828F0D164
:104E80002B0005AA02216068FCF798F90428E8D1F4
:104E9000380019F06DFD051E0BD063690200012179
:104EA0006068FCF78BF96369984205D0280019F017
:104EB00069FD92246442D6E7059B01950293009711
:104EC000069A079BA068FFF7DBFD3A00040031005B
:104ED00028001AF03FF9280019F054FDC3E700003C
:104EE000036810B50400022B05D0032B01D0012B61
:104EF00007D1002101E0884701006068FCF7CAF98A
:104F000010BDA3220149024814F07CF91A6E021068
:104F1000D65D021070B58CB0302200216846802525
:104F2000F8261AF017F92D06760029003000FBF755
:104F3000C9FF040012F046F8031E04D0B62221492E
:104F4000214814F05FF92020044208D06946FBF79D
:104F5000DBFF0028E9D11D496846FFF7C1FF10209B
:104F6000044208D06946FBF7CFFF0028DDD118497D
:104F70006846FFF7B5FF4020044208D06946FBF7BA
:104F8000C3FF0028D1D113496846FFF7A9FF80204D
:104F9000044208D06946FBF7B7FF0028C5D10E4987
:104FA0006846FFF79DFF802040000442BDD069465F
:104FB000FBF7AAFF0028B8D108496846FFF790FF21
:104FC000B3E7C0462A6E0210346E0210494E00103C
:104FD000BF4D0010634D0010314D0010294D0010E1
:104FE0000020704700207047012000217047C169F0
:104FF0008069704700487047656E0210F0B5431C29
:1050000087B00593DB7F0500002B00D143622E00A3
:1050100024360121300014F06DF800230490019330
:1050200001280AD12F1D380000F030FA0190002825
:1050300006D00499300014F076F8019807B0F0BD5E
:1050400029696A69AB69EC695B18544138000293BD
:10505000039400F0F3F90400380000F0EBF9039B2F
:105060002418002B02D1029BA34206D90121300053
:1050700014F059F8194B0193DFE76B69380002937C
:105080002C6900F0D7F9019B029A934201D1A0420A
:10509000ECD82C696B691C4304D1380000F0CAF9C4
:1050A0006C612861AC69EB691C4312D1380000F0D7
:1050B000C5F90600380000F0BDF9270032002300D2
:1050C00006002869696992197B41121A8B41AA610D
:1050D000EB610123059AD377AFE7C0465FF0FFFF8E
:1050E000F0B50669476985B0040004300292039365
:1050F00000F0A0F9029A039B05000A980B99121878
:105100004B4100920193236820009B6B9847019BC1
:105110008B4203D805D1009B834202D9002005B001
:10512000F0BD029A039BB6185F412A000023B61A0D
:105130009F4123682000196B029A039B8847020055
:105140000B00300039001EF04FFB1A43E6D10A9ADB
:105150000B9B00980199B6185F4101225242D31768
:10516000801859410B0021680200096B2000884714
:1051700002000B00300039001EF036FB1A4350428B
:105180005041C0B2CBE70000F0B585B003911F00DD
:10519000431CDB7F160004000A9D0B9A002B02D1F2
:1051A0000B4805B0F0BD036801920095D96B320041
:1051B0003B0088470028F3D02269636992197B413C
:1051C0001100201D0A002B00039900F099F9E8E76F
:1051D0005FF0FFFFF0B585B003911F00431CDB7F3C
:1051E000160004000A9D0B9A002B02D10B4805B053
:1051F000F0BD036801920095196C32003B008847AE
:105200000028F3D02269636992197B411100201DA7
:105210000A002B00039900F08FF9E8E75FF0FFFF29
:10522000F7B51F00431CDB7F16000400089D099A98
:10523000002B01D10A48FEBD036801920095596C0C
:1052400032003B0088470028F4D022696369B61811
:105250005F41201D2A00310000F0F4F9EBE7C04661
:105260005FF0FFFF421C0300002010B5D27F824296
:1052700002D0181D00F0D6F8002110BD10B5431C57
:10528000DB7F002B03D0043000F0DCF810BD0120E0
:105290004042FBE770B51D00036814009B6A0600DE
:1052A000984702000B00200029001EF09DFA1A43C7
:1052B00001D0002070BD336830009B6A984702001F
:1052C0000B00049805991EF08FFA1A43F1D1049A45
:1052D000059BA4185D41336830009B6B9847012300
:1052E0008D4202D802D1844200D90023D8B2E1E72E
:1052F00070B5451C0400E87F002801D1606270BDD4
:1053000020000121243013F00EFF0300002083420F
:10531000F5D1E877201D00F0D7F8F0E710B50400CC
:10532000044B08330360FFF7E3FF201D00F079F81A
:10533000200010BD706E021010B50400FFF7EEFFE4
:10534000200014F07FF9200010BD421C0300002053
:1053500010B5D27F824203D0181D196900F066F89B
:10536000002110BD411C0300002010B5C97F8142FF
:1053700004D01969181D891800F058F8002110BDD3
:1053800070B51D00036814005B6A060098470200B0
:105390000B00200029001EF027FA1A4301D000203C
:1053A00070BD336830005B6A984702000B000498B8
:1053B00005991EF019FA1A43F1D1049A059BA41815
:1053C0005D41336830009B6B984701238D4202D8C2
:1053D00002D1844200D90023D8B2E1E70E4B73B565
:1053E0000833040008C015000E0000F019F800236F
:1053F000621C26616361A561E361D3776362721CFD
:1054000001D09D4206D10093002304481A001900E0
:1054100013F01AFF200076BD706E02100101FF80AC
:105420007047704710B518F0B3F910BD10B518F0FB
:105430009FF910BD10B518F0ADF910BD10B518F0FA
:10544000ACF910BD10B518F0ABF910BD70B5050082
:105450000468002C15D10C4E3068002803D00121BF
:10546000494215F091FC2C68002C05D12C00083421
:10547000200014F06DF92C603068002801D015F080
:1054800099FC200070BDC04638A4000870B5050026
:105490000C4E3000FFF7DAFF14F062F9280018F024
:1054A00027F90400280018F073F914F0C7F86860B1
:1054B0003000FFF7CBFF14F06DF9601E84416042AD
:1054C00070BDC046D08B000870B506000B4D28009B
:1054D000FFF7BCFF14F044F9300018F00BF9441E3C
:1054E000A04144427068002801D014F0AFF82800B1
:1054F000FFF7ACFF14F04EF9200070BDD08B000810
:10550000F7B50F00160005000A4C01932000FFF7C5
:105510009DFF14F025F93A003100019B280013F09B
:1055200041FA05002000FFF791FF14F033F928003D
:10553000FEBDC046D08B0008F0B587B00191009247
:105540000293050018F024F90700280018F025F947
:105550000600280018F01EF93900039000981DF08D
:10556000DFFF0C1E69D1019B002B66D0029A009BC5
:105570009B18039AB618B3425FD83148FFF766FF0D
:1055800014F0EEF8029B002B4FD0002C4BD1009969
:10559000280018F0EDF80400010000981DF0C0FF8D
:1055A000029B601A984200D918000322019B134203
:1055B00001D1B8422ED20600B84200D93E003200D6
:1055C0000199686819F01CFDBE4205D26B68BA1BD0
:1055D0009819FF2119F0BEFD6B68049705931023FD
:1055E0000393049B059A0099280018F08DF8041E77
:1055F00006D0039B013B0393002BF2D101246442AC
:10560000029B9B1B0293009B9B190093019B9B1980
:105610000193B7E739001DF0FDFE7843019B04902C
:1056200006000593DBE7012464420548FFF70EFFFF
:1056300014F0B0F8200007B0F0BD01246442F9E78F
:10564000D08B0008F7B50D001700060018F0A5F87C
:105650000400300018F09EF82018EC19A04203D284
:10566000012464422000FEBDA0421FD81948FFF764
:10567000EDFE14F075F80024002F24D0002C20D16A
:10568000102301932900300018F036F8041E06D0CC
:10569000019B013B0193002BF4D1012464422900BA
:1056A000300018F065F83F1A2D18E5E721003000AA
:1056B00018F05EF8010020001DF032FF0029CFD164
:1056C000D4E7012464420348FFF7C0FE14F062F8F7
:1056D000C8E7C046D08B000816204042704710B57E
:1056E00003681B69984710BD10B503689B6998470C
:1056F00010BD10B503689B6A984710BD0020814219
:1057000000D1193870470120704716204042704779
:10571000162040427047704710B503689B68984751
:1057200010BD000010B50400084B002208332360B0
:105730000023A260E36000230800A161236163618C
:10574000034913F02FFB200010BDC046C4720210A5
:105750001957001007B5010000900831806913F057
:1057600062FB07BD010010B50831806913F084FBAE
:1057700010BD000010B50400034B08330360FFF7B1
:10578000F1FF200010BDC046C472021010B50368BE
:1057900001221B690021984710BD002210B5036843
:1057A00011001B69984710BD030000B57F3304DA70
:1057B000FF234042DB011840404203006C3300D11C
:1057C0007EE203006C3300DD07E1AA4B984200D172
:1057D00079E200DD7BE0A84B984200D176E23BDC29
:1057E000A64B984200D174E21BDCA54B984200D135
:1057F00072E20BDCA34B984200D170E29723A24ADD
:105800005B42904200D01333180000BD9F4B98427A
:1058100000D167E296239E4A5B429042F4D0123355
:10582000F2E79C4B984200D15FE20ADC9A4B984227
:1058300000D15DE28623994A5B429042E4D0023374
:10584000E2E7974B984200D155E28D23954A5B429F
:105850009042D9D00933D7E7934B984200D14DE21B
:105860001ADC924B984200D14BE20ADC904B9842F2
:1058700000D149E287238F4A5B429042C4D0033370
:10588000C2E78D4B984200D141E295238B4A5B429F
:105890009042B9D01133B7E7894B984200D139E231
:1058A0000ADC884B984200D137E29523864A5B4256
:1058B0009042A9D01133A7E7844B984200D12FE240
:1058C0008623834A5B4290429ED002339CE7814B01
:1058D000984200D127E23EDC7F4B984200D125E27E
:1058E0001CDC7E4B984200D123E20BDC7C4B9842BF
:1058F00000D121E295237B4A5B42904200D183E7AD
:10590000113381E7784B984200D118E28723774A18
:105910005B42904200D177E7033375E7744B9842BE
:1059200000D10FE20BDC734B984200D10DE28723CC
:10593000714A5B42904200D166E7033364E76F4BE4
:10594000984200D104E287236D4A5B42904200D125
:105950005AE7033358E76B4B984200D1FBE11CDC5C
:10596000694B984200D1F9E10BDC684B984200D1B9
:10597000F7E18723664A5B42904200D144E7033354
:1059800042E7644B984200D1EEE1EE239B01C01840
:105990000300581E8341853B36E75F4B984200D198
:1059A000E5E10BDC5D4B984200D1E3E186235C4AE4
:1059B0005B42904200D127E7023325E7594B9842DA
:1059C00000D1DAE103007A3300D1D9E1564B984295
:1059D00000D1D8E184235B4216E70300273300D1CE
:1059E000D4E10300273300DDE5E00300383300D1C4
:1059F000CFE10300383300DD98E00300603300D1CD
:105A0000CAE1030060331CDC0300663300D1C6E149
:105A1000030066330ADC03006A3300D1C2E1872346
:105A20005B42683000D1EFE60333EDE603006433F8
:105A300000D1BAE187235B42623000D1E4E6033350
:105A4000E2E603003C330ADC03003D3300DBAFE158
:105A500094235B42403000D1D6E61033D4E60300F5
:105A60003A3300D1A7E193235B42393000D1CBE632
:105A70000F33C9E680BBFFFF00AFFFFF809EFFFF33
:105A8000009DFFFF009CFFFF809CFFFF809DFFFFAC
:105A9000009EFFFF80ADFFFF009FFFFF809FFFFF85
:105AA00000AEFFFF80AEFFFF80B2FFFF00B1FFFF3F
:105AB00080AFFFFF80B0FFFF80B1FFFF00B2FFFFAC
:105AC00080B4FFFF80B3FFFF00B4FFFF80BAFFFF89
:105AD00000BBFFFF00C2FFFF80BEFFFF00BDFFFF56
