:020000041000EA
:100000000000010805BA01100D00000055030010A2
:1000100000000000000000000000000000000000E0
:10002000000000000000000000000000A199011085
:100030000000000000000000259A0110319A011014
:100040005DBA011089BD01105DBA01105DBA0110E1
:100050005DBA01105DBA01105DBA01105DBA011000
:100060005DBA01105DBA01105DBA01105DBA0110F0
:100070005DBA01105DBA01105DBA01105DBA0110E0
:100080005DBA01105DBA01105DBA01105DBA0110D0
:100090005DBA01105DBA01105DBA01105DBA0110C0
:1000A0005DBA01105DBA01105DBA01105DBA0110B0
:1000B0005DBA01105DBA01105DBA01105DBA0110A0
:1000C00010B5064C2378002B07D1054B002B02D02E
:1000D000044800E000BF0123237010BDD8140008BD
:1000E00000000000D4AB0210084B10B5002B03D069
:1000F0000749084800E000BF07480368002B00D10B
:1001000010BD064B002BFBD09847F9E7000000001C
:10011000DC140008D4AB0210D41100080000000069
:10012000164B002B00D1144B9D46402292029A1A86
:10013000924600218B460F461348144A121A1EF0AD
:100140009BFE0F4B002B00D098470E4B002B00D08E
:1001500098470020002104000D000D48002802D01F
:100160000C4818F0CDFF1EF085FA2000290019F088
:10017000FFFA19F0FFF8C04600000800000001086F
:1001800000000000D1960110D81400085CB80008E7
:100190000191011000000000F0B58FB03022002165
:1001A00002A880271EF068FE3F063900702000F08C
:1001B00073FD10220300104243D002A9100000F08A
:1001C0008DFD051EF1D1029E022E08D0032E01D016
:1001D000012E31D10021039800F044FFE5E72C4CBB
:1001E0000100802220001EF047FE069B079A089916
:1001F0009A1852180191012A12D929002200039855
:1002000000F0C4FE079B221805000121039800F0AE
:10021000BDFE2A18A218089B3100039800F0B6FE14
:100220000A9B0193002BD5D062782378A218002175
:10023000039800F0CBFECDE739221649164818F096
:100240009BFE202003420FD002A900F047FD0028AA
:10025000ABD1029B022B05D0032BBBD0012BB9D015
:100260004C22EAE73900B6E7402003420BD002A94E
:1002700000F034FD011E98D1029B0193013B022B3B
:10028000A9D95A22D9E75D220249044818F074FE20
:10029000F4140008D84C0210E94C0210014D021071
:1002A00010B5041E04D16C220F49104818F064FEEA
:1002B0000F481AF00BFCE061002810D00D4B0E4ADD
:1002C0009C629C649C60E36000210C481BF062FA15
:1002D0006060002807D17B2203490948E6E77122C4
:1002E00001490848E2E710BD244D02103C4D0210C0
:1002F000EC4D0210C4000008240100089901001010
:100300009F4D0210574D021070B5051E04D16E228C
:100310000D490E4818F030FE0D4C200002F010FA86
:100320002000243003F0C8FF2000483004F0BEF85D
:1003300020006C3004F05EFD20009030FFF7B0FF2D
:100340002C60052070BDC046284E0210384E0210A9
:10035000480100082C4B05E02C4B03E02C4B01E03E
:100360002C4BFFE7EFF308802B4972460A4201D07D
:10037000EFF309809C46294B196802680A60043132
:1003800042680A60043182680A600431C2680A6007
:100390000431F0C147460F6004314F460F6004310D
:1003A00057460F6004315F460F60043102690A60EE
:1003B000083142690A60043182690A600431C26905
:1003C0000A60043103462033154E324200D0043314
:1003D00075460D4E354200D148330C46103C236023
:1003E000EFF309820A600431EFF308820A600431F6
:1003F00072460A600431EFF314820A6060460749CE
:1004000000F05EF8FEE70000100000002000000091
:10041000300000004000000004000000544E0210B4
:100420000002000030B5002585B01A4CAB00290051
:10043000E2581948013518F0A7FC0D2DF5D1A36C31
:1004400016480293636C0193236C0093E36BA26BD9
:10045000616B18F099FC124B1248196818F094FC63
:10046000E36C1B0712D5104818F08EFC236D0F4863
:10047000DB0700D40E4818F087FCE36C0D485B07DF
:1004800000D40D4818F080FC05B030BD0B4818F0C2
:100490007BFCEFE714A70008E84E0210F64E0210AE
:1004A00000ED00E0454F0210534F0210624F021062
:1004B0006F4F0210924F02109E4F0210824F021097
:1004C00013B50400154818F05FFC302C17D0402CF1
:1004D0001AD0202C1DD1124818F056FC114C12488D
:1004E00018F052FCFFF79EFF104818F04DFC002357
:1004F0000F4A0093D26B0F49200018F057FD0E48A9
:1005000018F042FC0D4CEAE70D4818F03DFC0D4C8C
:10051000E5E70D4818F038FC0C4CE0E7584E0210A7
:10052000814E02103E01FF80AE4E0210B94E021005
:1005300014A70008D84E0210904E02103F01FF8011
:10054000994E02104001FF80A44E02103D01FF8031
:10055000F0B587B006000291039200F0CDFA0028B2
:1005600026D0036800930121300018F070FC071EAC
:10057000F9D00025738800209D4217D22B012C044E
:10058000019373682A013C43059005A9981822003D
:1005900018F04AFC00280ED020007368019A9B18BE
:1005A000029ADA60009A5A60039A9A6007B0F0BD26
:1005B00001235B42D6E70135DCE7000037B542880E
:1005C00005000B0C934205D300921549682215488B
:1005D00018F0D2FC1C0143681B59994205D00B004E
:1005E0006C220F49104818F0C7FC00F085FA00286B
:1005F0000DD002686B681B1959688A420AD0996845
:100600008A4207D076220649084818F0B5FC012234
:100610005242EFE700225A609A601A6037BDC04626
:10062000AA4F0210E24F0210305002106C5002101C
:1006300037B50500002904D184221749174818F05E
:100640009BFC42880B0C934205D3009212498A22EC
:10065000134818F091FC1C0143681B59994205D0BE
:100660000B008E220C490F4818F086FC00F044FA6B
:1006700000280CD002686B681C1963689A4209D084
:10068000A3689A4206D0982203490748D7E7012277
:100690005242F0E7E0683EBDC64F0210A85002107B
:1006A000E24F021030500210E5500210F0B5002168
:1006B00006000D4B5D681B680C33A94201D1002078
:1006C00010E000225F68BA4202D101312433F4E71E
:1006D0001868540100190468A64201D00132F2E7FB
:1006E0000028F2D0F0BDC0462C02000870B50D0005
:1006F0000121040083684942D8691AF0FDF9E369D1
:10070000002B0BD1A561A368E561616858681BF0F7
:100710006BF8A368D8691AF005FA70BD1D61F2E79D
:10072000F0B585B005000E00FFF7C0FF041E05D12F
:100730002B0074223C493D4818F01EFC0369002B35
:100740000ED13268C1688A4210D90293E3687A22D6
:1007500001932368344900933548336818F00CFC42
:10076000012B03D13268C1688A42EED100F0C4F98E
:10077000071E07D1237D002B1FD1236838222D4966
:100780002D48D9E74269002A0BD0002381698B42AA
:100790000CD13B684622009323682649274818F06D
:1007A000EBFB03683D2223492548C5E79800105814
:1007B0002568A84201D00133E9E73A000C21300056
:1007C00000F0B2F9002804D1812217491D4818F021
:1007D000D3FB1D4B0021986919F0F4FC051E0BD1C9
:1007E0001A4BB0687360002F03D01AF005FB05B0F8
:1007F000F0BD00F04BFDFAE7A36801001A68144849
:10080000FFF7A6FE022370606B75013B2B7500237A
:100810002F606C60EE60AB602B61AB75290020002F
:10082000FFF764FFE3E7C046535102106C52021019
:100830008A52021033510210E7520210565302102E
:100840001F530210965302102C0200080100008072
:1008500034020008F0B510248DB004AD0F00220062
:100860000021060028001EF007FB002108AA012035
:10087000089109910A950B94019702911AF080FA58
:100880000390002804D1B72209490A4818F074FBE4
:1008900001A93000FFF744FF0121039849421AF0F3
:1008A00085FA03981AF0DEFA02980DB0F0BDC04642
:1008B000655102103452021070B50C000100184846
:1008C000FFF7B6FE182105000268200000F02CF9A1
:1008D000002804D1CE221349134818F04DFBAB7DFC
:1008E000012B0CD180231B0623612B686069002B30
:1008F00002D100F0CBFC70BD1AF07EFAFBE72800B5
:1009000004221530032100F0CFF802232B75EC6090
:100910000FCC00F0AFF829006868FFF7E7FEEAE7C0
:100920003402000871510210A3510210F0B51024D6
:1009300091B00F00160000212200050002A80193CB
:100940001EF09AFA002102AB0893019B06AA0C93B1
:10095000169B01200691079109940A970B960D9317
:100960000E911AF00DFA0F90002805D183220A4942
:1009700052000A4818F000FB0AA92800FFF79CFF64
:1009800001210F9849421AF011FA0F981AF06AFAE9
:100990000E9811B0F0BDC0468051021034520210C2
:1009A00070B50D0001000F48FFF742FE082104005A
:1009B0000268280000F0B8F8002805D18F220A4903
:1009C00052000A4818F0D8FA20000321153000F030
:1009D00083F80323E560237521006068FFF786FE36
:1009E00070BDC04634020008895102100652021040
:1009F00070B504008AB0002825D0102502AE2A0068
:100A0000002130001EF038FA002106AA01200691CC
:100A100007910896099500941AF0B2F90190002800
:100A200005D1A12209495200094818F0A5FA6946E2
:100A30002000FFF7B5FF0121019849421AF0B6F9ED
:100A400001981AF00FFA0AB070BDC0469951021011
:100A5000D051021010B5FFF729FE041E01D100206D
:100A600010BD00F049F8002802D1237D002BF6D0FC
:100A7000E068F5E71FB5002801D1002906D1002A5A
:100A800001D1002B02D1CC18042C08D90293019279
:100A90000091030026220249024818F06DFA1FBD9A
:100AA000C65302104B54021030B50F2485B06C446D
:100AB0000D002170210018F0A3F9002806D1237839
:100AC0002F2200950249034818F056FA05B030BDB0
:100AD000D5530210FF53021007B50378DBB29942D9
:100AE00005D0009138220249024818F045FA07BDA6
:100AF000EA530210FF53021070B51AF061FE002293
:100B0000084B5C681B68A24202D10021080070BD3E
:100B1000190024331D00203D2D68A842F6D0013273
:100B2000F1E7C0462C02000810B5031E1DD00123BA
:100B300000291AD009184C1E0023A04215D89A4249
:100B400015D1144A904210D9134B984203D8134A36
:100B50000123914209D9124B124AC0180023904236
:100B600003D8114A8A425B41DBB2180010BD0F4A1C
:100B70009042FAD9074B984203D80D4A012391427B
:100B8000F3D9F0230B4A1B06C01800239042ECD87F
:100B9000094AE7E7FFFF0008FF760408007704082A
:100BA0000000F8EFFF7F070000800F10FFFFFF0736
:100BB00000000108FFFF07000000081010B51BF03F
:100BC0005DFA0E4A18210A2019F0E6FA0C4CA061D1
:100BD000002803D10B490C4818F0CEF90B4A282104
:100BE0000A2019F0D9FAE061002802D10549084825
:100BF000F2E72000FFF788FB606010BD14020008D8
:100C00002C0200089F540210AC540210FC01000892
:100C1000D854021010B5024B186800F0CDFBFAE76B
:100C20004C020008F7B50C000100184817000193AA
:100C3000FFF7FEFC0600006805211530FFF74CFFAA
:100C4000032C05D934221249FF32124818F094F9C6
:100C5000731DDB7F00259C4215D2E4003619B56870
:100C6000019B9D4200D91D00002D0CD0002F04D007
:100C70002A00716838001EF06DF873685B197360A4
:100C8000B3685B1BB3602800FEBDC0463C02000891
:100C900079550210FA58021037B504000D00FFF71D
:100CA0002BFF836808201843631C0AD0230083436A
:100CB00006D000902300DB220649074818F05CF9B3
:100CC0002000EA1702211AF0E9FD831C00D1002060
:100CD0003EBDC0466855021066580210F0B593B08C
:100CE00003910400FFF708FF30210600020003987B
:100CF000FFF71AFF002804D1F2229349934818F015
:100D00003BF93022002103981EF0B6F8B268002C9F
:100D100004D0651E254001D1224206D10092230055
:100D2000FE2289498A4818F027F91AF0A7FD2042C7
:100D30000AD02B00326993420BD1842223008249CE
:100D40008448520018F018F904227F49FF32824883
:100D5000D5E7F1685D014D1969688C4201D0013316
:100D6000E9E7002DE9D00121AB684942D86919F0C3
:100D7000C3FEAC69002C03D1B92278497848BEE79C
:100D800000222369AB612261934203D1EB61686861
:100D90001AF05EFDAB68D86919F0C4FE2000237D0F
:100DA0001530022B09D0032B21D00221012B1FD09B
:100DB0009222654952006B48C4E705220421FFF7DF
:100DC00073FE2822002108A81EF056F80022237D79
:100DD0000692022B00D080E022681821E068FFF71D
:100DE000A3FE002807D15B225F49604887E719000E
:100DF000FFF772FEE5E7E3685F681D689A68DB68E5
:100E00003900280004930592FFF734FEFBB20693E5
:100E1000002F2AD1049B002B5FD0049B2268D900AD
:100E20000598FFF781FE00284DD0FF0012ABDF19B7
:100E30003D000027059E243D73689C46002B46D04C
:100E40002B00320003CA03C3039ABB00D3186246C7
:100E500061461A6228682268FFF766FE002836D1CC
:100E60003B009422404942486CE7F9002268280080
:100E7000FFF75AFE0026002807D16B223A493D4869
:100E80003DE701360835B742C4D06B689C46002B5D
:100E9000F7D0280008AAF300D31807931A1D0AC830
:100EA0000AC263460398B20082181361079B226846
:100EB00061465868FFF738FE0028E2D133007C22F3
:100EC00029492D483EE7832227492C4817E7049BF0
:100ED000013708360835BB42AED10125284B6D429B
:100EE0002900D86919F06EF9011E03D19D221E490F
:100EF000244804E70D2306AA9B186A46127E08942C
:100F0000DA77020008ABC1CBC1C2C1CBC1C2C1CB31
:100F1000C1C21B681C4813600022FFF719FB237D28
:100F2000039A13601300A2685860DA602368002BEC
:100F300004D1039B9D60002013B0F0BD1B68049397
:100F4000049A039B9A60F6E771550210A3550210AC
:100F5000BF550210275602100B5602104A550210B8
:100F6000765602109656021036550210C8560210D8
:100F700050570210ED5602100C5702103057021055
:100F80002C020008755702103C020008F8B5140046
:100F90000F001D000600FFF7AFFD29000200200032
:100FA000FFF7C2FD002805D152220649FF3206484C
:100FB00017F0E2FF2B00390030002200FFF732FE6D
:100FC000F8BDC046865502109E570210F7B50700BF
:100FD0000C0016001D1E3AD0FFF78EFD29000200FE
:100FE0003000FFF7A1FD002805D1B32218491948A8
:100FF000520017F0C1FF39001748FFF719FB07002F
:10100000006805211530FFF767FD7B1DD97F0C199E
:10101000032C04D970220E49FF321048E9E7E4009E
:101020003C19A3689D4207D9BA22009352002B00B5
:1010300007490B4817F0A0FF2A00310060681DF037
:1010400089FE63685B196360A3685D1BA560F7BDDB
:101050008F5502109E5702103C020008A058021043
:10106000BB580210F7B507000D0001004348FFF719
:10107000DFFA0600046839004048FFF79FFA28228B
:10108000002130001DF0F8FE3D4F3100F86919F0E5
:10109000B9F82000236815300193237D022B36D048
:1010A000032B4DD0012B60D1364B002D08D09D4233
:1010B00006D0CB222B0034493448520017F05CFF95
:1010C000E668B26800929D4217D10221FFF704FD45
:1010D00071682F48FFF772FA1822002120001DF0D6
:1010E000CBFE2100B86919F08DF87560019B00985E
:1010F000002B3FD100F0CAF8F7BD03220221FFF711
:10110000D3FC002CF2D00023E3602375EEE7214BE3
:10111000EB187E2B05D8B8222B00FF321A491E4847
:10112000CCE703220521FFF7BFFC80231B069D426D
:1011300001D10123A375E3681D615B690093E0E7BA
:10114000E56819006A6800920122FFF7ADFC296882
:101150000F48FFF733FA1822002120001DF08CFE03
:101160002100B86919F04EF8C0E7F0220649520094
:101170000A48A3E719F040FEBEE7C0463C0200085B
:101180002C0200080100008099550210BD57021082
:1011900034020008FFFFFF7FF8570210305802109A
:1011A00010B50C0001000348FFF742FA03689C6089
:1011B00010BDC0463C020008054B10B51B685869BD
:1011C00019F01AFE034B1B68186919F015FE10BDC3
:1011D000500200084C02000810B51AF095FF10BD2F
:1011E00010B51AF091FF10BDF0B53C2695B01D4C1E
:1011F0001D4D1E4B3200002105A802930394049557
:101200001DF03AFE1A4B320005A9200005931DF08F
:10121000A1FD320005A928001DF09CFD02A90C22A9
:1012200014481DF097FD144819F050FC134A0600AD
:101230000021012019F0A4FD114A0700002101201E
:1012400019F09EFD01900F483B0032002900006814
:1012500000F062F80C4B019A2100186800F06AF85F
:1012600015B0F0BD0C77040848770408779A333D31
:101270000C4A2863007704083459021024590210DC
:1012800044590210500200084C0200081FB5040027
:101290000C22002101A81DF0EFFD002103482200CF
:1012A0000B000068029400F051F81FBD50020008C6
:1012B00030B585B0019001380C0002911500039201
:1012C000032806D821F008FC02070B0F1000FFF7D7
:1012D00027FA05B030BD1000FFF7EEFAF9E710006D
:1012E000FFF75EFBF5E7002208212000FFF71CFC5A
:1012F000002804D16C220649064817F03DFE28005C
:10130000FFF7A8FB20606068FFF7C0FFE1E7C04679
:1013100014590210C856021010B5054C0261046041
:101320000C1D44600C3104348460C160436110BD05
:10133000FFD948A2044B026103600B1D43600C31CE
:1013400004338360C160704742658BA6F0B585B0F9
:101350000191012101AC050049420069FA27626050
:10136000A360032619F0C8FB7F00AA6869681368A8
:10137000086801338C463340834218D00C23106830
:101380004343E868C31883CC83C3136801333340F5
:10139000136063461B68126801333340934201D1E6
:1013A000FFF71AFF286919F0BDFB05B0F0BD390041
:1013B000686919F0FBFCD8E7FA21F0B5490005008F
:1013C00085B0006919F0F2FCAB686A689C46106849
:1013D0001B68984201D105B0F0BD0C211368E86884
:1013E0004B4301ACC3182000C2CBC2C00321136819
:1013F00001330B40136063461B68126802330B40D5
:10140000934201D1FFF7ECFE07CCFFF751FFDBE77A
:10141000F0B5214B85B01B6803900E0001920020AF
:10142000012B08D01D4D1E4A6B7829781B020B43F7
:10143000934202D0012005B0F0BD019A032AF9D9E8
:1014400033800423E978AA780902114302912C1D04
:101450007380F718029BEB189C4216D22388039ADC
:101460001B0B93420ED16288738801999B18994295
:10147000E0D3380021001DF06DFC63887288FF18EE
:101480009B1873806388002B04D10122024B00203B
:101490001A60D0E7E418DDE7481E0008A8590210DA
:1014A00016200000F0B51E2589B0059300230F9F7C
:1014B0006D4404920E9E2B8006243F2F1BD92A00D8
:1014C0001121012001F00EFC0534002813D1109BDE
:1014D00028880433029301970096059B049A0949D2
:1014E00001F096FB002809D0288801F02FFC0A3C67
:1014F000288801F02BFC200009B0F0BD109B0400EF
:101500001E60F5E709000710F0B50F26A7B01F0011
:101510002D9B182201932E9B002100932F9B08A83E
:1015200002932C9D1DF0A8FC602200210EA81DF046
:10153000A3FC04ABF618330008AA60210EA800F043
:101540006FF8041E02D0072027B0F0BD0A990029C9
:10155000F9D00C9B0393002BF5D033780B9A3B60AA
:10156000019B9A42EFD828001DF0F4FB0D9A029BD4
:101570009A42E8D80C9900980B9E1DF0EBFB309A2C
:101580000D9B60C20099319A20000AC2DCE700007E
:1015900070B5051D04000E000422002128001DF076
:1015A0006BFC094B9E4207D00849280001F0CCFA99
:1015B000002803D1206070BD0549F6E78630431E40
:1015C00098410330F7E7C046C0E6FEFF0200000185
:1015D0000900000113B50368040000910192002B7B
:1015E00005D1002903D0043001F0CEFA206013BDEC
:1015F00037B51C00036800910192002B0DD1231D0B
:1016000004300D0001F0DAFA002803D10300256050
:1016100018003EBD05238A30FAD00423F8E7000005
:10162000F0B589B000930023160004AA971C02901D
:101630003A001121012007933B8001F053FB012365
:10164000002822D1388806AA05A901F007FC002845
:1016500001D0388816E0059B4B4A190003921140CF
:101660004A4A9142F5D14A4A069C1340494A93425C
:101670000ED1E408103420001DF028F80500388849
:10168000002D12D101F062FB0123180009B0F0BD5A
:10169000414A934204D10323E4085C434A34EAE715
:1016A0000734E40864000134E5E707AB22002900B1
:1016B00001F00AFC002803D028001DF011F8C8E74B
:1016C0000598039B314A034093424FD180B21738AB
:1016D00007284BD821F000FA0442444A4A4A4648B7
:1016E0000123009A1370079B581E400823F08AFAC2
:1016F0001CF0D8FB21F038FC079B0400581E400862
:1017000023F080FA1CF0CEFB00900191002C33D026
:1017100000236F1CEA1852780299CA5401339C4284
:10172000F8D10B19B160F46002930098019921F08F
:101730001BFC002824D000233C19E25C0299CA5407
:1017400001338342F9D13161736128001CF0C8FF75
:1017500004AB588801F0FAFA002396E70223C0E7A9
:101760000323BEE70423BCE70523BAE728001CF0E7
:10177000B7FF04AB588885E7B460F4602F00D4E766
:1017800030617061E1E7C0460000FFEF00000360D8
:10179000FFFFFFEF0000016000000260024B1B68CA
:1017A000036000207047C0464C20000803207047AB
:1017B000F0B589B002AB01249D1D00230700019103
:1017C0000C702A00112120002B800693079301F052
:1017D00089FA00284BD1288805AA04A901F03EFB0C
:1017E000002840D1049B264A26491A408A423AD111
:1017F000254A059C1340254A934227D1E40810341A
:1018000020001CF063FF061E2DD0288806AB2200A6
:10181000310001F059FB00282FD11D4907A801F024
:1018200093F9002829D1069A310007A801F0ACF9F4
:1018300001993B000131202207A801F0BFF9040003
:10184000601E844130001CF04BFF0DE0114A9342B2
:1018500004D10323E4085C434A34D1E70734E408A5
:1018600064000134CCE70124288801F06FFA2000DD
:101870003B6801333B6009B0F0BD0124E2E7C0469C
:101880000000FFEF00000360FFFFFFEF00000160BA
:101890000900000100000260032070470B0010B532
:1018A0000268034918001DF055FA002010BDC0461B
:1018B0008559021010B502F057FDC02203009201B5
:1018C000904209D00AD880225201904204D080224E
:1018D0009201934200D00023180010BDA022030003
:1018E000D2019042F8D0C022D2019042F4D080229E
:1018F000D201EEE70C2303600048704778590210CC
:101900000D230360004870476A590210484248415D
:1019100080007047F0B50E258BB0039302ABED1835
:101920000290002301200F00160011212A002880B8
:101930000893099301F0A4F9041E3FD1364A3749B0
:1019400008A801F02BFA288808A901F029FA041E3A
:1019500034D1334A330C1B04934259D1029B002BE0
:101960002FD0202F25D128883B00029A310001F08A
:1019700045FA041E1FD1288806AA07A901F06EFAAD
:10198000041E18D1C0228021079BD2051A40C90528
:101990008A421FD1069BDE1DF6082888119B109AEB
:1019A000039901F091FA041E05D1119B1B689E4218
:1019B00001D287246442288801F0C8F920000BB0C6
:1019C000F0BD80222888230000945200310001F0ED
:1019D00081FACEE7134A14491A408A4203D1069B82
:1019E000DE081036D9E711498A4205D10326069B45
:1019F000DB085E434A36D0E70D4A060013400D4A25
:101A00009342CAD1069BDE1DF60876000136C4E774
:101A100087246442D2E7C04609000710010C000089
:101A200000000370FFFFFFEF000001600000026094
:101A30000000FFEF00000360F7B51600020005008C
:101A40001F00089B98320C001160566006CB00F016
:101A50006FFF2800E10FA030009533003A0000F03E
:101A600027FB041E04D0033C60424441E01CFEBD41
:101A70000221280000F0AAFF2800052100F0A6FF9F
:101A80002000F4E77047D0B516001F000400CB1704
:101A90000A0000F062FF32003B00200000F05DFF12
:101AA000D0BD73B5050016685468CB170A0000F066
:101AB00054FF320028002300022100F062FF73BDB2
:101AC00073B5050016685468CB170A0000F045FF8F
:101AD000320028002300032100F053FF73BD7FB5BF
:101AE000060000220D00052100F091FF6A46022148
:101AF000300000F08CFF30000099A030019A00F017
:101B0000E5FB002805D0033843425841033004B0B8
:101B100070BD02AC2100300000F0C6FF03000128B8
:101B2000F5D00220002BF2D106CC06C51800EEE756
:101B3000242802D003D8202805D1002004E0302832
:101B4000FBD04028F9D00420704710B51DF002F9F1
:101B500010BD0000F0B51D4C87B003921D00228817
:101B60001B4B019002919A422CD163882968E3189B
:101B700000930434002907D005AC20000422FFF7AD
:101B8000E4FF64882B681C193F27009B9C4201D30B
:101B9000002013E005AE042221003000FFF7D5FF3E
:101BA000338801989A113A407188824208D1012005
:101BB0001F40029B1F70039B2C60198007B0F0BD73
:101BC0006418E2E701204042F8E7C0464C1E0008D6
:101BD000162000000023F7B506000F001500136063
:101BE0006B46DC1D3A002B0021000020FFF7B2FFFE
:101BF000012802D12378B342F2D1FEBD37B51400DB
:101C0000022907D004290ED0012912D103782360BC
:101C100000203EBD6B469D1D0A0001002800FFF715
:101C200094FF2B88F3E70A0001002000FFF78DFFE7
:101C3000EEE701204042ECE737B513000400092924
:101C400027D8080020F048FF101214232525252549
:101C5000050B02212000FFF724FF00203EBD0621D6
:101C60002000FFF72DFFF8E70421F9E70521F1E750
:101C700001AA03CBFFF7C2FF05000520002DEDD11F
:101C8000019A2B0003212000FFF7FDFEE5E701216B
:101C9000E6E70520E2E70000F0B54368CFB00600B4
:101CA00007920024242B03D103681C6A202343607D
:101CB00007220723009122405B4221001CA8FFF766
:101CC000BBFE002806D00224012800D003342000E7
:101CD0004FB0F0BD3200BF491CA8FFF7E2FE8023E1
:101CE000DB051C4000D02BE10822210011A80FAE1B
:101CF0001DF0C2F810AA310020001094FFF76AFF0F
:101D0000012800D026E1109B043311933388043B53
:101D100011AAB1491CA81293FFF7C3FE11A8FFF73F
:101D2000E9FD13AE1390002806D0119B3200AB4999
:101D30001CA87360FFF7C4FE11A8FFF7E1FD139024
:101D4000002806D0119B3200A5491CA87360FFF73C
:101D5000B7FE2123310010A81093FFF729FD0324BB
:101D6000071EB4D1109B11AA9E491CA8129311966C
:101D7000FFF797FE12233900082211A80F931DF0D8
:101D80007BF810970EAF10AA39000120FFF722FF51
:101D9000012800D0EAE0109B043311933B88043BF8
:101DA00011AA91491CA81293FFF78AFE202313AEB3
:101DB00010AF310038001093FFF770FD03240028A6
:101DC00000D084E7109B11AA88491CA81293119691
:101DD000FFF767FE3000FFF7E1FC041E00D076E756
:101DE000139B139A82491CA8DB17FFF74CFE3200A5
:101DF000390002201394FFF7EDFE012800D0BFE068
:101E00003988139B0439181D11AAFFF7F7FE002823
:101E100000D0DBE006AB9A8DC023DB019A4200D9EB
:101E2000D4E0002373491CA8FFF72DFE01230025F1
:101E30000393002312220C936B4606A952180F211C
:101E40001B7B06A8049309180CAB0498FFF782FECD
:101E5000431C00D1BCE0012865D10135012D0CD116
:101E60001CA8FFF70FFE0123634A5B42059000F0B8
:101E700074FD0421059800F0A9FD0C9B0DAE19001E
:101E8000042230000E93FFF760FE3F2273880BACF4
:101E9000238033880AAF13401CA83B70FFF7F2FD84
:101EA00005210690002600F091FD3978CB087BD003
:101EB000002E29D10E9B0FAE190004223000109382
:101EC000FFF743FE1623728806A95B181A803F228B
:101ED00033881CA813402E3A52181370FFF7D2FD16
:101EE000112306AA9B181978CB084DD1162206A9F2
:101EF0005218112106A8091810AB0498FFF72AFE02
:101F000001300128ECD8012622000EAB39000498DC
:101F1000FFF720FE0200431C05D00028C5D1052193
:101F2000069800F074FD039B01330393072B00D048
:101F30007FE7002D43D000220421059800F067FDC3
:101F400007991CA8FFF7CBFD0024A04200D1BEE6F4
:101F50000234B9E613AE31002020FFF727FC03243A
:101F6000002800D0B3E611962023D1E631000FA857
:101F7000FFF792FC002800D0A9E611960F9B0FE70F
:101F8000FFF798FC020047E7109B06AA043313935F
:101F900016239B181B8813AA043B1CA81493FFF755
:101FA0004BFE0028A2D0AEE70E9B11AA043311937A
:101FB00023881CA8043B1293FFF73EFEA4E70122EE
:101FC00000230E491CA8FFF75EFDB9E705247EE655
:101FD00003247CE600DBFEFF04DBFEFFFEDAFEFFEF
:101FE00008DBFEFFFFDAFEFF03DBFEFF05DBFEFF83
:101FF00007DBFEFF06DBFEFF02DBFEFF01DBFEFF71
:10200000802210B5920002490120FFF701FA10BDAD
:102010004C1E000870B5136886B0456806680293C8
:10202000536828001400009601950393FFF780FD84
:10203000002818D1012229003000FFF767FC002892
:1020400011D1022203990298FFF760FC00280AD1FF
:1020500004AA02A96846FFF71FFE002803D1049BCB
:102060002360059B636006B070BD0000002110B5C1
:10207000036886B01B6814680091029152680B498E
:10208000019303910420032A0DD91800FFF750FD96
:10209000002808D104AA02A96846FFF7FDFD002820
:1020A00001D1059B236006B010BDC046FFFFFF7F36
:1020B000F0B5834C0500A54410001F000E000792E8
:1020C00000F064F97F4B0124984266D0079BEF61D2
:1020D000AB612B19DE778A9B6B62002E62D02021C8
:1020E00023A80FAA0D900E9100F0CAF9041E54D136
:1020F000002312228A9800F064FC04218A9800F0E0
:1021000065FC102229003EA81C921B9500F010FCD3
:1021100005213EA800F05AFC012200233EA800F051
:102120001CFC079B079ADB173EA800F016FC2BAEA1
:1021300005213EA8220000F06AFC31003EA800F014
:10214000B3FC002800D0B7E02B9B2C9A2B616A616E
:10215000002B22D02B003200103303CB03C202210C
:1021600073682B9A8A9800F00CFC0F9E109D052135
:102170008A9800F02BFC042200238A9800F0EDFBE3
:10218000320002218A982B003E963F9500F0F9FB21
:10219000002205218A9800F03AFC200085239B004C
:1021A0009D44F0BD23A90D9120212BAB1BAA0993BF
:1021B0000B924B2320220E9117A905910FA90A9388
:1021C0000C920491119612960DAA02A911CA11C17E
:1021D0006A460BAB03CB03C208AB310032003800B8
:1021E000FFF792F9041ED8D10A9A09993EA800F087
:1021F0009FFB05213EA800F0E9FB012200233EA839
:1022000000F0ABFB022200233EA800F0A6FB089ED4
:1022100001225242D317F7173EA800F09EFB32006E
:102220003B003EA800F099FB0F9E109F02225242F5
:10223000D3173EA800F091FB3B00320002213EA8DC
:102240001396149700F09DFB179E189F032252428D
:10225000D3173EA800F081FB3B00320002213EA8CC
:102260001596169700F08DFB220005213EA800F080
:10227000CEFB19A93EA800F017FC0234002800D0BC
:102280008BE7199B104917931A9B3EA8189323AB11
:10229000199320231A93FFF77BF9041E00D07CE7E3
:1022A0001799189A3EA8FFF795F90FAB19991A9A42
:1022B0003EA8FFF79DF919E72200230046E7C04634
:1022C000ECFDFFFFFFFFFF7FC0E6FEFFF0B5ABB008
:1022D00007921AAA0C9240252022040006910CAE07
:1022E00012A90F9275600E9106AB02A8944684CB9A
:1022F00084C023006846103384CB84C008AB624698
:10230000A06900F04DF8049000282AD1631CDB7FFF
:10231000002B2BD0099E089B370005933200AE425C
:1023200000D92A001AABB81B181805991CF012FD29
:10233000AD1BBB193F2F17D91AAB0A9340230B9340
:10234000656A08220AA910A81CF004FD109A02214F
:102350002800119B00F015FB00220421606A00F0A8
:1023600056FB04982BB0F0BD1F00D7E70AAB0293D1
:102370006B4606CE06C3089A099BE169A069FFF780
:1023800091F80028DCD00490EBE70000C31D01D0D9
:10239000014870470148FCE7FFFFFF7FC0E6FEFFF2
:1023A000F0B5354C0700A5440091019213A92122F4
:1023B0001CA81D0000F0BCFA04211CA800F006FBBC
:1023C0002E4C8EAE20001DF079F822000024030070
:1023D00003211CA800F0D5FA0FAB06CE06C31CA83B
:1023E0000F9A8F9B022100F0CCFA220023000221D9
:1023F0001CA800F0C6FA2200230002211CA800F04D
:10240000C0FA2300220002211CA800F0BAFA220020
:1024100004211CA800F0FBFA05A91CA800F044FB4D
:1024200003001420A3421ED13800FFF7AFFF0100C4
:1024300042A8FFF7ADF8A04215D106998A1E914235
:1024400015D2079008900799089A42A8FFF7C2F89A
:102450009099726842A8FFF7BDF82B000099019A85
:1024600042A8FFF7C5F889239B009D44F0BD059B5A
:1024700008920793E7E7C046DCFDFFFF745A02109D
:1024800070B5202492B00AAE0290039115000E4957
:10249000220030001CF05EFC6A460994089608ABE6
:1024A00003CB03C204AC039A02992000002300F07E
:1024B0007BF9230006CB06C5236807205A42534107
:1024C0005B42184012B070BD545A0210F0B597B07C
:1024D000802170200906FEF7DFFB10230700184259
:1024E0004BD0302200210AA81CF0C6FC0AA91020FB
:1024F000FEF7F4FB041E40D10A9B022B05D0032BF0
:1025000001D0012B62D1002433E00E9901201BF091
:1025100063FD051E1AD00E9B020021000B98FEF7EA
:1025200035FD0E9B0393984207D028001CF0D8F885
:1025300043227D497D4816F01FFD129901201BF0B2
:102540004BFD061E04D128001CF0CAF8052410E03B
:102550000E9B06950793129B089003930993FFF730
:102560004FFD041E20D028001CF0BAF830001CF0EB
:10257000B7F821000B98FEF775FD2024274257D0AD
:10258000302200210AA81CF077FC0AA92000FEF7DF
:10259000A5FB011E4CD10A9B022B1CD0032B01D0A2
:1025A000012B5ED100243FE0614B0C9A06A81A6013
:1025B000012308AA1900FFF72DFD041ED3D1010045
:1025C000099B089A0B98FEF701FDCCE76322564958
:1025D000584816F0D1FC04AC0E9B22000B98FEF775
:1025E000D5FC0E9B0393984202D080225249A1E76A
:1025F00005AB0893129B0694079003930993FFF78A
:10260000FFFC041E10D14A4B0C9A06A81A60012345
:1026100008AA1900FFF72AFD041E05D10100099B35
:10262000089A0B98FEF7D2FC21000B98FEF71AFDD2
:102630004024274200D14BE7302200210AA81CF099
:102640001BFC0AA92000FEF749FB011E00D03FE752
:102650000A9B022B08D0032B01D0012B61D100254E
:102660005AE095223449B3E70E9B06908725042B48
:102670001CD108AA0B98FEF789FC0E9B0393984285
:1026800002D0B8222D4955E7129901201BF0A4FC75
:10269000061E0AD00F9900291CD001201BF09CFCBB
:1026A000041E05D130001CF01BF88D256D4233E06F
:1026B0000F9B020001210B98FEF768FC0F9B039310
:1026C000984208D030001CF00BF820001CF008F8ED
:1026D000CD22D7E70C00129B06AF0393009301971E
:1026E0003300089A0F992000FFF714F9051E05D151
:1026F0000100069B32000B98FEF768FC0B98042340
:102700003A000121FEF762FC30001BF0E9FF002CCB
:1027100002D020001BF0E4FF29000B98FEF7A2FC7A
:10272000D6E6E622054953E77F5A0210C45A021042
:102730004C200008E45A0210945A0210AE5A0210BB
:1027400010B5041E04D176220F49104816F014FC6F
:102750000F4818F0BBF9E061002810D00D4B0E4A6D
:102760009C629C649C60E36000210C4819F012F8A4
:102770006060002807D1852203490948E6E77B22EB
:1027800001490848E2E710BD075B02103C4D02100A
:10279000B85B021054020008B4020008CD240010F7
:1027A000745B0210345B0210F7B5050000911C0049
:1027B000934203D8099ED21AB24204D200232B605E
:1027C0006B602800FEBD009F3200F8180899A4191C
:1027D0001CF0C0FA2F606C60F3E7000082B0019239
:1027E000054A6B468281002200918260827306CB8B
:1027F00006C002B07047C0460F0B000073B50091D1
:1028000001921E00837B0400002B05D1124B8289AC
:102810009A4202D00123A37373BD826843689A422F
:10282000F8D8019D9B1AAB42F4D3B242F2D3921B6B
:1028300006D00168002903D0891948191CF0CCFA88
:102840002068002804D080192A0000991CF0C4FADE
:10285000A3685D19A560DFE70F0B00008B7B10B547
:10286000002B03D000230360436010BD054A8C8910
:10287000944202D001228A73F5E78B6843600B68AB
:102880000360F2E70F0B0000F0B515258BB0119E29
:1028900004AB02900391109CED18002E19D1172C57
:1028A00017D8E3B22900002A07D0330027003743A6
:1028B00012D1002A10DC1733DBB2039A013952011E
:1028C0009B180B706A1A129B0298FFF797FF0BB0C8
:1028D000F0BD00232900E9E7084FFF5CC81B019009
:1028E0000198814203D10133D21BDBB2DEE701390B
:1028F00030060C70240A0443360AF1E7E45B021048
:102900001FB584680092019302940022FFF7BCFF78
:102910001FBD00008388054A0321D21A012A02DD67
:1029200000210133838008007047C046FEFF00008D
:1029300013B5040000910192002198221CF09CFA2A
:10294000019A00992000FFF749FF2200230014326A
:1029500094331A600423A37613BD10B5017C0400E0
:1029600000290DD1002B02DAD243DB4301312000D4
:10297000FFF7C6FF230094331868FFF7CBFF2074DE
:1029800010BD30B585B000920193037C04006D4604
:10299000002B14D1092902D0019AFFF7B1FF2A00B8
:1029A00002AB03CA03C32000A36802996A68FFF759
:1029B00025FF230094331868FFF7ACFF207405B09F
:1029C00030BD10B50621FFF79BFF10BDF8B505001F
:1029D0009435040028680E00FFF79CFF207400283F
:1029E00005D1A7683B00663302D907232374F8BDDD
:1029F00022002B688C320221934206D01A0001007B
:102A000008322A6098819F609E732174EFE7F0B5C9
:102A1000037C89B004000D001700002B08D10600CC
:102A20000200943633681432934203D10423237492
:102A300009B0F0BD9A798A4201D01023F7E71A68ED
:102A4000049282680592022924D11300049A981AEC
:102A5000049B009002930023290001931A00200098
:102A6000FFF712FF002F11D0210006A8FFF7F6FE96
:102A7000049B059A06999A1AA368D218079B9A4252
:102A80000FD89B1A002900D089180AC73368083B61
:102A90003360CDE70339988889B220F031F880B2ED
:102AA000D6E700231900F0E773B5057C0E00002D72
:102AB0000FD1030094331A68803B9A420BD1837B79
:102AC000002B0AD16C4601006846FFF7C7FE0CCC0C
:102AD0000CC6280076BD0A25FBE70125F9E70000B2
:102AE000F0B5102591B008AC07000391049205934E
:102AF0002A0016AB002120001E781CF0BDF9039BB4
:102B000001210C93049B0F480D93059B27800E9386
:102B100004232673069407950F93FDF79BFE041E6E
:102B20000DDD02230122009306A90CABFDF7FEFE8A
:102B300005002000FDF75CFF280011B0F0BD9125D5
:102B40006D42F9E7060F000030B50E22002487B071
:102B500002AB5C801A7004930823050003910948B6
:102B600001210593FDF776FE2860A04207DD009461
:102B70002300012204A9FDF7D9FE07B030BD912042
:102B80004042FAE7020F000030B500230F2589B05C
:102B900002AC6380257004940824006803930594B4
:102BA00006910792984206DD0093022204A9FDF7E0
:102BB000BDFE09B030BD89204042FAE770B500255E
:102BC00010268EB004000392100004AA55801670DF
:102BD00006920822079203AA089204220B9020680A
:102BE000059509920A910C930D92A8420DDD023AC7
:102BF00000920AAB06A9FDF799FE06002068FDF7D2
:102C0000F7FE256030000EB070BD89267642F9E7E8
:102C1000F0B5102591B004AC07000E00029200211F
:102C20002A00200003931CF027F924232370029B21
:102C300001210A93039B11480B93169B67800C9309
:102C4000179B66600D93189B08940E9304230995B7
:102C50000F93FDF7FFFD041E0CDD02220CAB00926A
:102C600008A9FDF763FE05002000FDF7C1FE28005E
:102C700011B0F0BD91256D42F9E7C046030F000089
:102C8000F0B5102615008FB006AC07000391320096
:102C9000002120001CF0F0F82B88049523800225E9
:102CA000042303AA01210E48676023730A940B963C
:102CB0000C920D930595FDF7CDFD041E0DDD01234E
:102CC0002A0000930AA904ABFDF730FE050020009E
:102CD000FDF78EFE28000FB0F0BD91256D42F9E79B
:102CE000060F0000F0B5102615008FB006AC0700E7
:102CF00003913200002120001CF0BEF82B880495BF
:102D000023800523237303AB0C93022504230121A5
:102D10000D4867600A940B960D930595FDF79AFD93
:102D2000041E0DDD01232A0000930AA904ABFDF760
:102D3000FDFD05002000FDF75BFE28000FB0F0BD93
:102D400091256D42F9E7C046060F000070B51025C9
:102D500088B004AC06002A00002120001CF08CF88A
:102D6000062301210C482680237302940395FDF766
:102D700071FD041E0CDD00230122009302A9FDF762
:102D8000D5FD05002000FDF733FE280008B070BD1A
:102D900091256D42F9E7C046060F000006C0704756
:102DA000F0B510268BB002AD0C00070032000021F8
:102DB00028001CF061F80B2308942B73631E9C41C0
:102DC0000121E4000C4809942F8006950796FDF731
:102DD00041FD041E0CDD00230222009306A9FDF72D
:102DE000A5FD05002000FDF703FE28000BB0F0BD97
:102DF00091256D42F9E7C046060F0000F0B5102599
:102E00000E008DB004AC0700029200212A002000C1
:102E100003931CF031F8A6600226029B01210A935D
:102E2000039B0D4827802673089409950B93FDF7A3
:102E300011FD041E0CDD00233200009308A9FDF7EC
:102E400075FD05002000FDF7D3FD28000DB0F0BD95
:102E500091256D42F9E7C046060F0000F0B5102736
:102E60008FB006AE0D00140003903A000021300030
:102E70001CF002F86B469B890A95338008230C945A
:102E800033736B1E9D41631E9C41AD00A400012164
:102E90000C480D94049605970B95FDF7DBFC041E7A
:102EA0000DDD02230122009304A90AABFDF73EFDCC
:102EB00005002000FDF79CFD28000FB0F0BD912516
:102EC0006D42F9E7060F000013B50A240094FFF7DE
:102ED00007FE16BDF0B510268FB004AC07000291B6
:102EE00003920021320020001D001BF0C5FF029B51
:102EF0002780A3602923237303AB0A930423089438
:102F00000B930996149B002D04D1002B04D0872429
:102F1000644214E0002BFAD0149B01210A480C955E
:102F20000D93FDF797FC051E0CDD00230322009393
:102F300008A9FDF7FBFC04002800FDF759FD20005F
:102F40000FB0F0BD9124E3E7060F0000802210B51A
:102F50005200002101481BF08FFF10BDB040000857
:102F6000802210B55200002101481BF085FF10BDE2
:102F7000B0400008002370B5094ADC00A55A002DB6
:102F800006D115196E68002E02D16960A05270BD7D
:102F90000133202BF1D13B220249034815F0ECFF0D
:102FA000B0400008E85B02103E5C0210002210B541
:102FB000084BD100CC5A844204D10022CA525B187B
:102FC0005A6010BD0132202AF3D128320249034849
:102FD00015F0D2FFB0400008125C0210765C0210BF
:102FE00030B580240023084A64009D5A854203D1ED
:102FF000D5186D688D4204D00833A342F5D1002066
:1030000030BD0120FCE7C046B0400008084B5A68BC
:10301000904204D01A690121904201D070470021EA
:103020000C224A43002199509B1859601972F5E708
:10303000B041000870B598B0302200210CA81BF0F8
:103040001BFF80200CA98001FDF748FE051E48D11A
:103050000C9B022B11D0032B00D1EEE0012B00D0F2
:10306000F5E0FC21180049001AF0B6FF011E41D01E
:103070000D98FEF795F82C002FE009AC01000C220A
:1030800020001BF0F9FE109B0C2B00D0D1E0220099
:1030900029000D98FDF77AFF109B0593984204D004
:1030A0006D4A6E496E4815F067FF20782A3805286A
:1030B00000D9C0E01FF010FD03173153579A0023C9
:1030C00008A90F98089304F00BFF041E05D1010016
:1030D000042308AA0D98FDF779FF21000D98FDF74C
:1030E000C1FF18B070BD149E012031001AF074FFAA
:1030F000051E01D18D243DE0010032000F9804F03F
:10310000F9FE041E05D1010033002A000D98FDF7D9
:103110005DFF28001BF0E4FADFE760880E99FFF7F7
:103120005FFF002825D0119B07AA01210D98FDF70C
:103130002DFF042801D04B4AB3E7129B08AA0221B5
:103140000D98FDF723FF042801D0474AA9E76088BE
:103150000F9B089A079905F041F80400BDE70F9806
:1031600004F074FEF9E760880E99FFF739FF002834
:1031700002D188246442B0E7119901201AF02CFF93
:10318000051EB7D0119B020001210D98FDF7FEFE30
:10319000119B0593984201D0344A82E7129901208D
:1031A0001AF01AFF061E03D128001BF099FAA1E7B6
:1031B000129B020002210D98FDF7E8FE129B059379
:1031C000984201D02A4A6CE7A36861880393119B57
:1031D000029000930196059362682B000F9805F00A
:1031E0002AF8040030001BF07BFA92E760880E9901
:1031F000FFF7F6FE0028BCD0119901201AF0ECFE72
:10320000051E00D176E70200119B01210D98FDF704
:10321000BDFE119A03000592904201D0154A40E785
:10322000626861880F9800922A0005F03EF8040059
:103230006FE791249EE786249CE70F9804F006FE32
:103240000F98041E00D148E71BF04AFA13E70A4A18
:1032500002490A4815F090FEFC050000925D02103C
:10326000C45A02102D06000033060000520600006A
:103270005F060000810600009E060000E45A02106E
:10328000F0B5A3B08021C5480906FDF705FD102261
:103290000890104228D00021203216A81BF0ECFD27
:1032A00016A91020FDF71AFD00281DD1169B022B30
:1032B00005D0032B01D0012B3CD1002410E005F0F8
:1032C00061F9041E0CD1B64A136801331360012B57
:1032D00006D101001822B3481BF0CEFDFFF736FEE1
:1032E00021001798FDF7BEFE2024089B234200D141
:1032F0007DE03022002116A81BF0BEFD16A920009B
:10330000FDF7ECFC051E72D1169B022B17D0032B88
:1033100000D135E1012B00D03CE1B4211800490077
:103320001AF05AFE011E00D146E11798FDF738FF4A
:103330002C0058E092229C499C4815F01DFE0DACD3
:103340000100082220001BF097FD1A9B082B00D0DB
:1033500010E1220029001798FDF718FE1A9B099327
:10336000984204D0E1229249924800F0AAFE2078C7
:103370001538052800D9FFE01FF0B8FB060016003D
:103380002200A200CD00F80060881899FFF728FEFF
:10339000002802D18824644225E061886268199877
:1033A00003F03AFF04001EE060881899FFF718FE4A
:1033B0000028EFD061886268199803F032FFF1E7C6
:1033C000C8231B9D5B0029009D4200D919000120E4
:1033D0001AF002FE071E00D1D0E0002D56D12C00BD
:1033E00038001BF07DF921001798FDF73BFE4024C3
:1033F000089B234222D03022002116A81BF03CFD5E
:10340000200016A9FDF76AFC041E17D1169B022B9B
:1034100000D1D3E0032B00D1FBE1012B00D003E26C
:10342000E02118001AF0D8FD011E00D1FFE1179825
:10343000FDF7B6FE21001798FDF714FE8024089BC7
:103440006400234200D15CE23022002116A81BF068
:1034500013FD200016A9FDF741FC041E00D050E228
:10346000169B022B00D1E4E1032B00D1DEE2012BFD
:1034700000D0E5E24C2118001AF0AEFD011E00D18B
:10348000E1E21798FDF78CFE260036E2C8232E00F5
:103490005B009D4200D91E0033003A0001211798BD
:1034A000FDF774FD864202D0892252005BE73200AC
:1034B0003900199803F0BAFE041E91D1AD1B8CE7B8
:1034C00000241B9B0AAA012117980A94FDF75EFDB0
:1034D0001B9B0993984201D09522E6E70A990120A7
:1034E0000B941AF079FD051E48D001000BAB0A9A27
:1034F000199803F0CBFE041E0BD101000B9B2A0090
:103500001798FDF763FD04230BAA01211798FDF717
:103510005DFD280065E700230BAA0B9301211B9B8F
:103520001798FDF733FD1B9B0993984203D11C9913
:103530000B9B994201D0A322B7E701201AF04CFD62
:10354000051E1BD01C9B020002211798FDF71EFDD3
:103550001C9B0993984202D05222FF3203E70B9A38
:103560002900199803F0C1FE0400D2E7199803F06E
:103570002DFD17E791240EE786240CE78D240AE73A
:10358000199803F023FD1998041E00D12BE71BF0B6
:10359000A7F8CDE674220649FF32CDE6F07F0000A1
:1035A000C8410008B0410008B05C0210E45A0210A3
:1035B000E45C0210C45A0210BC4C14E70DAD0100CB
:1035C000082228001BF058FC1A9B082B00D01AE197
:1035D0002A0021001798FDF7D9FC1A9B09939842FD
:1035E00003D0CD225200B249BEE628780E38062814
:1035F00000D90AE11FF070FA040A37689499DE00D6
:103600006968199802F0F2FF040013E7C8231B9DB4
:103610005B0029009D4200D9190001201AF0DCFC52
:10362000071E00D1F3E0002D04D12C0038001BF060
:1036300057F8FFE6C8232E005B009D4200D91E000C
:1036400033003A0001211798FDF7A0FC864201D013
:10365000DB22C7E732003900199803F00BF8041E8B
:10366000E4D1AD1BDFE700241B9B0AAA01211798B8
:103670000A94FDF78BFC1B9B0993984201D0E7222B
:10368000B0E70A9901200B941AF0A6FC051E00D1A0
:10369000BDE001000BAB0A9A199802F0F5FF041E79
:1036A0000BD101000B9B2A001798FDF78FFC042318
:1036B0000BAA01211798FDF789FC28001BF010F8D0
:1036C0001998FFF7A3FCB5E600230BAA0B93012181
:1036D0001B9B1798FDF75AFC1B9B0993984203D13B
:1036E0001C990B9B994202D0EC22FF327BE7012010
:1036F0001AF072FC051E00D189E01C9B0200022119
:103700001798FDF743FC1C9B0993984201D0FB22BC
:1037100068E70B9A2900199803F00AFC0400CCE72B
:10372000199802F015FF0400CAE70023189A1D003B
:103730009446604A199F110010000B93022B08D188
:103740000023012519000B93022B1CD1892464420C
:1037500070E60E68B44512D14E68B7420FD1002D05
:1037600000D00B930C214B43D218137A0133137200
:1037700004230BAA00211798FDF728FC5AE6013311
:103780000C310125DAE71668002E0FD15668002E9D
:103790000CD1002900D00B930C2253436246C25037
:1037A000C018037A476001330372E1E701330C323A
:1037B0002900C9E71B9B0BAA01211798FDF7E6FB1F
:1037C0001B9B0993984202D0852292000BE70B9B2A
:1037D000189A012BBAD80C255D43364FEB599A4203
:1037E000B4D17E1970680028B0D0199903F0C0FBDD
:1037F000337A0400013BDBB23372002B00D019E6B0
:10380000EB51736016E69124A1E786249FE78D248F
:103810009DE7199802F09CFE1998002800D109E64E
:10382000FFF7F4FB199802E7234A214984E51F4C6E
:1038300000E60BAD0100082228001BF01DFB1A9BBF
:103840009126082B1DD12A0021001798FDF79EFB19
:103850001A9B0993984202D0184A194984E528789E
:103860001B38062800D9DFE01FF036F904142C6756
:103870007EBBDA0068881899FFF7B2FB002802D1F6
:103880008826764239E069886A68199804F0E2F877
:10389000060032E068881899FFF7A2FB0028EFD0F5
:1038A00069886A68199804F0DAF8F1E70100008085
:1038B000F65C0210B04100083302000095030000DE
:1038C000355D021000211E9C10220DA80A911BF0EC
:1038D000D3FA0AAB22000DA9199804F0E7F8061EE6
:1038E0000BD101000A9B0DAA1798FDF76FFB04236B
:1038F0000AAA01211798FDF769FB31001798FDF717
:10390000B1FB8024089B234200D140E130220021FA
:1039100016A81BF0B1FA16A92000FDF7DFF9051E65
:1039200000D034E1169B022B00D18EE0032B02D095
:10393000012B00D085E1002425E11B9C10220021F1
:103940000DA81BF099FA23000DAA01211798FDF785
:103950001DFB844202D0F22292007EE722000DA9D4
:10396000199804F081F893E700231B9E0120310091
:103970001E9F0D931AF030FB041E12D0020033007C
:1039800001211798FDF702FB864201D0BB4A64E78C
:10399000390001201AF020FB051E04D120001AF086
:1039A0009FFE8D266DE70DAB01933200030000975B
:1039B0002100199804F0A8F8061E0BD101000D9BF8
:1039C0002A001798FDF702FB04230DAA012117987E
:1039D000FDF7FCFA20001AF083FE28001AF080FEA2
:1039E0008BE700231E9D012029000D931AF0F4FAA5
:1039F000041ED6D001000DAB2A00199804F0B8F8C7
:103A0000061E0BD101000D9B22001798FDF7DEFA70
:103A100004230DAA01211798FDF7D8FA2000DDE74D
:103A2000199803F043FF33E786262AE7199803F035
:103A30003DFF1998061E00D15FE71AF051FE23E5FD
:103A40008F4A904978E4904E57E71A9B9124099346
:103A5000102B00D0F1E00DAC0100102220001BF073
:103A60000BFA1023220029001798FDF78FFA1A9BF2
:103A70000993984202D0952292002EE0608818990E
:103A8000FFF7AEFA002800D1D6E0207824380328CA
:103A900000D9D4E01FF020F80242979700231E9926
:103AA00001200B931AF098FA051E08D01B990120EB
:103AB0001AF092FA061E04D128001AF011FE8D2485
:103AC000BBE002001B9B01211798FDF75FFA1B9AD0
:103AD00003000992904202D06C4A6D4944E40DA95A
:103AE0000BAA488802921E9A0095099201920E999B
:103AF000320003F031FC041E05D12A000B9B21008B
:103B00001798FDF763FA04230BAA01211798FDF714
:103B10005DFA30001AF0E4FD280032E01B99012024
:103B20001AF05AFA051ECAD01B9B020001211798F1
:103B3000FDF72CFA1B9B0993984201D0554ACCE71C
:103B40001C9901201AF048FA061EB5D002001C9BF1
:103B500002211798FDF71AFA1C9A03000992904265
:103B600001D04D4AB9E71B9A6088019200956168BF
:103B70000992320003F0F6FC040028001AF0B0FDB0
:103B800030001AF0ADFD21001798FDF76BFA802484
:103B9000089BA400234200D1DBE03022002116A8BC
:103BA0001BF06AF916A92000FDF798F8051E00D051
:103BB000CFE0169B022B48D0032B02D0012B00D064
:103BC000EBE00024C1E000231B9901200B931AF0C5
:103BD00003FA051E00D172E71B9B02000121179812
:103BE000FDF7D4F91B9B0993984201D0B02243E71B
:103BF000A3681E990120EF181AF0EEF9061E00D1F5
:103C00005AE71E9B0BAA21786088049203930296C0
:103C1000E36800970193A3682A00262908D1616808
:103C200003F05CFD041E00D06DE70B9B320066E7DD
:103C3000616803F0CDFDF5E788246442A3E786249C
:103C4000FBE7164A1249FFF777FB1A9E9124242EB0
:103C500051D10DAC0100320020001BF00DF93300F2
:103C6000220029001798FDF791F91A9B09939842B1
:103C700018D0C62292000A49FFF776FBDF03000046
:103C800024040000355D0210010000807302000072
:103C9000095D021095020000A2020000F702000078
:103CA000225D021060881899FFF79AF9002870D0F9
:103CB0002378223B012B6ED81B9901200B951AF01B
:103CC0008BF9051E16D01B9B020001211798FDF7EA
:103CD0005DF91B9B0993984201D0AE4ACBE7E3689C
:103CE0001E990120EF181AF077F9061E05D1280059
:103CF0001AF0F6FC8D24644227E00BAA2178238970
:103D0000608806921E9A0496059222690297039291
:103D1000E2680095019212AA222936D1616803F067
:103D2000A5FF041E0BD101000B9B32001798FDF775
:103D30004DF904230BAA01211798FDF747F9280034
:103D40001AF0CEFC30001AF0CBFC21001798FDF7DA
:103D500089F98024089BE400234200D197E03022B7
:103D6000002116A81BF088F8200016A9FCF7B6FF62
:103D7000041E00D08BE0169B022B13D0032B02D025
:103D8000012B00D0CFE100247DE0616803F0E0FF6B
:103D9000C7E78824AFE78624ADE7DB227E4992009F
:103DA000FFF7CAFA1A9B0993102B00D0B5E10DADAD
:103DB0000100102228001BF05FF810232A002100C8
:103DC0001798FDF7E3F81A9B0993984203D0734ABA
:103DD0007349FFF7C9FA287B189E0238272800D9B3
:103DE0009DE11EF083FE7D004F015C0177018F0194
:103DF000A000AF00E10007013900710028009C011C
:103E00009C019C019C019C019C019C019C019C01CA
:103E10009C019C019C019C019C019C019C019C01BA
:103E20009C019C019C019C019C019C019C019C01AA
:103E30009C019C011D01288831001E9FFFF7D0F8CE
:103E4000002854D028880BA903F004FF041E1AD1BF
:103E50003B000BAA210096E0288831001B9CFFF74D
:103E6000BFF8002843D023000BAA01211798FDF7C3
:103E70008DF8844202D08E22D200A9E728880BA9AF
:103E800003F0C2FE040021001798FDF7EBF8802430
:103E9000089B2401234200D162E10021302216A8B0
:103EA0001AF0EAFF16A92000FCF718FF002800D03E
:103EB00056E1169B022B00D139E1032B02D0012BD6
:103EC00000D08AE1002447E1288831001E9FFFF7D7
:103ED00087F800280BD028880BA903F0ABFEB5E7C4
:103EE000288831001B9CFFF77BF8002802D188242A
:103EF0006442C8E7210001201AF06EF8061E00D1C6
:103F00000FE10200230001211798FDF73FF88442DA
:103F100001D0244A5CE7288823003200A96802F017
:103F200087FA040062E028883100FFF759F800287A
:103F3000DDD0288802F0A8FA041EA4D12888FFF753
:103F400035F8A0E70023288831000A930B93FFF788
:103F500047F800281BD028880BAA0AA902F0ABFA60
:103F600004001E9B0993032B05D904230AAA0021F0
:103F70001798FDF72BF81F9B0993032B00D882E7B6
:103F8000042301210BAA1798FDF720F87BE788246A
:103F90006442E6E732030000225D0210490400009B
:103FA0004D5D02109B040000288831001E9CFFF725
:103FB00017F800289BD0210001201AF00DF8061EEA
:103FC00000D1AEE028880BAB2200310002F094FA59
:103FD000041E05D101000B9B32001798FCF7F6FF79
:103FE00004230BAA01211798FCF7F0FF30001AF008
:103FF00077FB48E7288831001E9CFEF7F1FF002878
:1040000000D174E72100012019F0E6FF061E00D15F
:1040100087E028880BAB2200310002F082FAD7E754
:10402000288831001B9F1C9CFEF7DAFF002800D176
:104030005DE73B000BAA01211798FCF7A7FF874219
:1040400001D08B4AC4E68B4BAA6800269A4211D154
:10405000B4420FD02100012019F0BEFF061E60D02F
:104060000200230002211798FCF790FF844201D040
:10407000814AADE62888009433000B9AA96804F0C1
:1040800081F94EE7280004F069FB041E00D0FAE62F
:1040900028883100FEF76EFF02232A00DAE61B9B18
:1040A0000BAA012117980C96FCF770FF1B9B099334
:1040B000984201D0714A8BE6042804D0704A7149B5
:1040C000714814F059FF2B000B990C9A686804F0A2
:1040D00070FBDAE71B9B0BAA012117980C96FCF7E3
:1040E00055FF1B9B0993984201D0684A70E604284B
:1040F00001D0674AE3E72B000B990C9A686804F03B
:1041000033FBC2E728883100FEF76AFF002800D1A0
:10411000EDE6288804F07BFB0EE79124E8E6862490
:10412000E6E68D24E4E65B4A5649FFF705F91E9E54
:104130000120310019F050FF051E52D0310004F06B
:10414000DDF8041E05D1010033002A001798FCF7A2
:104150003DFF28001AF0C4FA21001798FCF782FFEF
:104160008024089B6401234215D00021302216A828
:104170001AF082FE16A92000FCF7B0FD00280AD133
:10418000169B022B30D0032B01D0012B3ED10021F6
:104190001798FCF767FF089B9B0401D5FEF74AFFC1
:1041A0008024089BE401234201D1FFF76BF8302201
:1041B000002116A81AF060FE16A92000FCF78EFD5B
:1041C000061E01D0FFF75EF8169B022B22D0032BB0
:1041D00001D0012B43D100243BE02F4A2F49FFF7A8
:1041E000ABF88D246442B7E72D4A1368002B01DD3C
:1041F000013B136011680029C9D1182229481AF01F
:104200003BFEFEF7ADFE04F0A1F9C0E7BA22264955
:10421000FFF792F880231A9CDB009C4223D82100F0
:10422000012019F0D9FE051E20D002002300310024
:104230001798FCF7ABFE844203D01C4A1C49FFF7D9
:1042400093F82100280004F071F8040028001AF007
:1042500047FA21001798FCF705FFFFF713F8154AF6
:104260001349FFF769F887246442F2E78D24FBE7DE
:1042700011050000000001701E0500003905000056
:104280003D0500004D5D0210B25D02104E050000BC
:104290005205000076050000D3050000805D021085
:1042A000C8410008B0410008CA5C02109E05000029
:1042B0006A5D0210AA05000010B5041E04D1D322C5
:1042C0001249134814F058FE124816F0FFFB0B2158
:1042D000E061114A002803D1D8220C490F48F1E7C8
:1042E0004B01D31A6933FF3301391C600029F7D120
:1042F000E2600B480B4A17F04DFA6060002803D1CA
:10430000E22202490848DDE710BDC046EB5D02101D
:104310003C4D0210905E0210D80200080C5E0210A4
:1043200081320010380400084C5E021080235B01CB
:10433000036000207047802310B55B01984202D1D2
:1043400000F0DEFB10BD86204042FBE7BFF34F8F3D
:10435000034A044BDA60BFF34F8FC046FDE7C04607
:104360000400FA0500ED00E0882030B5012187B097
:104370004002FCF76FFA002405002000A54215DD7D
:1043800003AB049304230593033B0093220004AB87
:10439000210028000394FCF7C9FA80231B069842E9
:1043A00000D103942800FCF723FB039807B030BD2D
:1043B00010B5FFF7CBFF036907B5042B02D08020AF
:1043C00000060EBD01AA00214068FCF7DFFD0428AD
:1043D000F5D10198FFF7AFFFF3E773B5066A050063
:1043E000042E0CD101A8FFF7A1FF041E05D1010086
:1043F000330001AA6868FCF7E9FD200076BD80243F
:104400002406FAE7036810B50400022B05D0032B3D
:1044100001D0012B07D1002101E08847010060682D
:10442000FCF720FE10BD4A220149024814F0A4FD09
:10443000BC5E0210CC5E021070B58CB03022002140
:10444000684680261AF018FD1025360631007020C7
:10445000FCF722FC0400284209D069462800FCF73A
:104460003DFC0028F2D10E496846FFF7CBFF202023
:10447000044208D06946FCF731FC0028E6D109491E
:104480006846FFF7BFFF40200442DFD06946FCF7D3
:1044900025FC0028DAD104496846FFF7B3FFD5E7C9
:1044A000DB430010B7430010B143001010B5041EE9
:1044B00004D170220F49104814F05EFD0F4816F029
:1044C00005FBE061002810D00D4B0E4A9C629C64F5
:1044D0009C60E36000210C4817F05CF960600028E4
:1044E00007D17F2203490948E6E7752201490848B8
:1044F000E2E710BDF05E02103C4D0210845F021036
:104500005C040008BC04000839440010425F02103B
:10451000045F0210184B984223D010DC174B9842CE
:1045200023D004DC164B984221D0842312E0154B93
:10453000984218D0144B9842F7D18E230AE0134BBF
:10454000984209DC124B984213DA124BC01892239E
:104550000128EAD85B4202E000239842E5D1180026
:1045600070478523F6E78C23F4E79823F2E7872347
:10457000F0E79523EEE7C0461201FF800201FF80BD
:104580000101FF800701FF800B01FF804601FF80D2
:104590004501FF80E5FE007FF0B53F240021A446E1
:1045A000059D0F4E67462F40F75D4C1CE4B2475403
:1045B000AD0913D1233502310555C9B21C35170099
:1045C0002F40F75D4C1C4754920999060A43E1B20B
:1045D00014009B091C43F2D14454F0BD2100E1E7D3
:1045E000AC5F0210F0B589B0039300231500069369
:1045F000026807930193059305AB0093976908231D
:1046000006AA04000E00B84700280FD1059B010040
:104610001848082B0FD1069A2B689A4204D80CD15F
:10462000079A6B689A4208D9134804E0134B01219A
:104630009842F0D0124814F09FFC9A4215D22A00FA
:1046400006A92000039B984700280CD1002223686C
:1046500000925F692A00082331002000B847002833
:1046600005D00848E7E70848E5E70029EED109B09A
:10467000F0BDC046EC5F0210386002100701FF80F9
:10468000106002108460021067600210F0B51D0017
:10469000012389B00F00109904001600994319D125
:1046A00013002B4319D0132203A81AF0E5FB2B00AB
:1046B000320003A80097FFF76FFF109A236800925B
:1046C0005D690F9A0E9B03A92000A847FFF722FF00
:1046D00009B0F0BD86204042FAE78720FBE7F0B53D
:1046E0001D0013008BB004000F0016002B4335D0C3
:1046F0000021132205A81AF0BFFB32002B0005A8E9
:104700000097FFF749FF236803AADB6905A920008A
:10471000984700281ED1039A109B9A421ED31199E4
:104720005B1899421AD89A4202D28A20404213E07A
:10473000109A2368019202AA009202909D69129A2F
:10474000119B05A92000A847002803D1119B029ABC
:104750009342EAD8FFF7DEFE0BB0F0BD8720E5E715
:10476000F0B51E0013008DB0050003911700129CD8
:1047700033431FD00021132207A81AF07DFB039BAF
:104780003A00009307A83300FFF706FF2B6805AA3D
:10479000DB6907A928009847002807D10123069A5A
:1047A00060601A4200D06360059B2360FFF7B2FE91
:1047B0000DB0F0BD87204042FAE7F0B51D001300B0
:1047C00089B004000F0016002B4313D000211322E0
:1047D00003A81AF051FB32002B0003A80097FFF743
:1047E000DBFE236803A91B6A20009847FFF792FEAF
:1047F00009B0F0BD87204042FAE710B503681B6995
:104800009847FFF787FE10BD0020704770B50B4C2E
:104810002378BFF35B8F0A4DDB070CD4200014F024
:1048200079FC002807D0200014F08CFC054A0649CA
:10483000280014F063FC280070BDC0469086000874
:1048400098860008C0000008256F011037B5FFF7F3
:10485000DDFF0A4912F06CFB6946094B6A46186095
:10486000084B30CB30C1002802D1074814F084FB3C
:10487000064B0749FFF7B6FE37BDC046B0600210D1
:10488000E8860008A8600210CD60021009480010F8
:10489000EE600210F0B50C4C1F00236885B00500D7
:1048A0001600002B01D1FFF7D1FF0C9B32000293C1
:1048B0000B9B290001930A9B009320683B00FFF7A4
:1048C000E5FE05B0F0BDC046E8860008F0B50C4C2A
:1048D0001F00236885B005001600002B01D1FFF7EB
:1048E000B5FF0C9B320002930B9B290001930A9B9E
:1048F000009320683B00FFF7F2FE05B0F0BDC04614
:10490000E8860008F7B5094C1F002368050016006B
:10491000002B01D1FFF79AFF089B3200009329007A
:104920003B002068FFF71CFFFEBDC046E88600087C
:10493000F8B5084C1F00236805001600002B01D1B4
:10494000FFF784FF32003B0029002068FFF735FFA6
:10495000F8BDC046E886000810B5FFF757FF0649C6
:1049600012F0E6FA054B1860002802D1044814F052
:1049700003FBFFF742FF10BDB0600210E88600089D
:10498000CD60021030B58BB002900391002B01D1A5
:10499000002A22D102A90491069308210EAB0893A4
:1049A000042305910F48073907920993FBF752FF3B
:1049B000051E15DD00230322009304A9FBF7B6FFB3
:1049C000802304001B06984201D1922464422800EF
:1049D000FCF70EF820000BB030BD87246442F9E7E5
:1049E0009224FBE7011A010030B58DB00392109AB2
:1049F00004900591002A01D1002B24D104A908912B
:104A00000821099103A90A918D20042140020B91EC
:104A1000033906920793FBF71DFF051E16DD0123E0
:104A20000222009308A906ABFBF780FF8023040055
:104A30001B06984201D1922464422800FBF7D8FF5C
:104A400020000DB030BD87246442F9E79224FBE7D3
:104A5000F0B58BB002900391161E24D0002304936E
:104A6000059302AB0693082304AC01211048079379
:104A700008940993FBF7EEFE071E17DD012208AB31
:104A8000009206A9FBF752FF0CCC0CC68023050050
:104A90001B06984201D192256D423800FBF7A8FF12
:104AA00028000BB0F0BD87256D42F9E79225FBE7A2
:104AB000021A010030B587B002AB049308230290BC
:104AC000039101210D480593FBF7C4FE051E12DD7D
:104AD00000230122009304A9FBF728FF8023040090
:104AE0001B06984201D1922464422800FBF780FF04
:104AF000200007B030BD92246442F9E7031A010098
:104B000037B501210C48FBF7A5FE051E11DD00217C
:104B10000B0000910A00FBF709FF802304001B062D
:104B2000984201D1922464422800FBF761FF2000E3
:104B30003EBD92246442FAE7041A010010B5FFF763
:104B40000BFF10BD0023002213B5009201930369EF
:104B50000400082B02D08020000616BD6A46002102
:104B60004068FCF713FA0828F5D1009A019BA06869
:104B7000FFF7DEFEF1E770B586B004AE0400082250
:104B8000002130001AF078F90023002202920393EA
:104B90002369082B04D080252D06280006B070BD9F
:104BA000236A082BF7D102AA00216068FCF7EEF90E
:104BB0000828F0D1029A039B0096A068FFF7A2FE96
:104BC000051EEAD10100236A32006068FCF7FEF995
:104BD000E3E700230022002170B588B00692079316
:104BE000036904000591082B04D080252D062800B8
:104BF00008B070BD4569042DF7D106AA4068FCF7DE
:104C0000C5F90828F1D12B0005AA01216068FCF73D
:104C1000BDF90428E9D1206A19F058FD061E1AD002
:104C2000236A02900193059BA0680093069A079B54
:104C3000FFF74CFE051E05D10100236A32006068B3
:104C4000FCF7C4F9226A002130001AF015F930008F
:104C500019F046FDCBE792256D42C8E700230022FC
:104C6000F0B5002689B006920793036904004769EE
:104C70000596082B04D080242406200009B0F0BD3E
:104C80008569042DF7D106AA31004068FCF77EF94A
:104C90000828F0D12B0005AA02216068FCF776F9FC
:104CA0000428E8D1380019F011FD051E0BD0636906
:104CB000020001216068FCF769F96369984205D038
:104CC000280019F00DFD92246442D6E7059B01955A
:104CD00002930097069A079BA068FFF7DBFD3A0056
:104CE0000400310028001AF0C7F8280019F0F8FC79
:104CF000C3E70000036810B50400022B05D0032BA6
:104D000001D0012B07D1002101E088470100606834
:104D1000FCF7A8F910BDA0220149024814F02CF9B3
:104D2000FE600210CC5E021070B58CB03022002103
:104D300068468025F8261AF09FF82D06760029008F
:104D40003000FBF7A9FF040011F0D2FF031E04D0CE
:104D5000B3222149214814F00FF92020044208D041
:104D60006946FBF7BBFF0028E9D11D496846FFF7FC
:104D7000C1FF1020044208D06946FBF7AFFF0028AE
:104D8000DDD118496846FFF7B5FF4020044208D03E
:104D90006946FBF7A3FF0028D1D113496846FFF706
:104DA000A9FF8020044208D06946FBF797FF00283E
:104DB000C5D10E496846FFF79DFF802040000442A0
:104DC000BDD06946FBF78AFF0028B8D1084968467C
:104DD000FFF790FFB3E7C0460E61021018610210A2
:104DE0005D4C0010D34B0010774B0010454B00106A
:104DF0003D4B001010B5041E04D184221149124805
:104E000014F0BAF8114815F061FEE061002814D0E2
:104E10000F4B00211A00883214609C629C649C66CF
:104E20009C60E3600B4A0C4816F0B4FC60600028FC
:104E300007D1932203490948E2E78922014908483A
:104E4000DEE710BD496102103C4D0210C86102103E
:104E5000E004000880050008294D00108B61021055
:104E6000526102100020704700207047012000218D
:104E70007047C1698069704700487047E661021059
:104E8000F0B5431C87B00593DB7F0500002B00D1F4
:104E900043622E0024360121300013F0E5FF002389
:104EA0000490019301280AD12F1D380000F0DEF98B
:104EB0000190002806D00499300013F0EEFF01980D
:104EC00007B0F0BD29696A69AB69EC695B185441A8
:104ED00038000293039400F09FF90400380000F0BA
:104EE00097F9039B2418002B02D1029BA34206D9F9
:104EF0000121300013F0D1FF194B0193DFE76B69FB
:104F0000380002932C6900F083F9019B029A9342C6
:104F100001D1A042ECD82C696B691C4304D1380044
:104F200000F076F96C612861AC69EB691C4312D121
:104F3000380000F071F90600380000F069F9270028
:104F40003200230006002869696992197B41121A10
:104F50008B41AA61EB610123059AD377AFE7C04685
:104F60005FF0FFFF421C0300002010B5D27F824299
:104F700002D0181D00F044F9002110BD10B5431CEB
:104F8000DB7F002B03D0043000F04AF910BD012074
:104F90004042FBE770B5451C0400E87F002801D1C2
:104FA000606270BD20000121243013F076FF030001
:104FB00000208342F5D1E877201D00F075F9F0E775
:104FC00010B50400044B08330360FFF7E3FF201D16
:104FD00000F015F9200010BDF061021010B50400BA
:104FE000FFF7EEFF200014F0DDF9200010BD421C99
:104FF0000300002010B5D27F824203D0181D19692A
:1050000000F002F9002110BD411C0300002010B582
:10501000C97F814204D01969181D891800F0F4F87D
:10502000002110BDF7B51F00431CDB7F04000D00FD
:105030001600002B33D003689B6A984702000B00D0
:10504000300039001DF046FF1A4328D123682000A4
:105050009B6A984702000B00089809991DF03AFFD7
:105060001A431CD1089A099B92197B410092019323
:10507000236820009B6B9847019B8B420FD802D17D
:10508000009B83420BD82269636992197B4111000E
:10509000201D0A00089B290000F03EF9FEBD0148D2
:1050A000FCE7C0465FF0FFFFD3B51F00431CDB7F6A
:1050B00004001600002B39D00368196B3B008847A9
:1050C00002000B00300039001DF004FF1A432DD1FF
:1050D000069A079B92197B410092019300980199CF
:1050E00001225242D31712184B4121682000096B4C
:1050F000884702000B00009801991DF0EBFE1A434F
:1051000014D1236820009B6B9847019B8B420DD8DC
:1051100002D1009B834209D822696369B6185F41B6
:10512000201D069A310000F07BF9D6BD0048FCE74F
:105130005FF0FFFFF7B51F00431CDB7F04000D008D
:105140001600002B33D003685B6A984702000B00FF
:10515000300039001DF0BEFE1A4328D1236820001C
:105160005B6A984702000B00089809991DF0B2FE8F
:105170001A431CD1089A099B92197B410092019312
:10518000236820009B6B9847019B8B420FD802D16C
:10519000009B83420BD82269636992197B411100FD
:1051A000201D0A00089B290000F09AF8FEBD014866
:1051B000FCE7C0465FF0FFFF0E4B73B508330400F9
:1051C00008C015000E0000F019F80023621C2661CB
:1051D0006361A561E361D3776362721C01D09D4274
:1051E00006D10093002304481A00190013F0DEFED4
:1051F000200076BDF06102100101FF80704770470A
:1052000010B518F07FF910BD10B518F06FF910BD8A
:1052100010B518F079F910BD10B518F078F910BD77
:1052200010B518F077F910BD70B505000468002CB2
:1052300017D10D4E3068002803D00121494215F0E6
:105240005BFC2C68002C07D12C000834002C02D009
:10525000200014F037F92C603068002801D015F0D8
:1052600061FC200070BDC046B8A7000870B50500FD
:105270000C4E3000FFF7D8FF14F02CF9280018F07E
:10528000F5F80400280018F03DF914F077F868608C
:105290003000FFF7C9FF14F033F9601E844160420B
:1052A00070BDC046508F000870B506000B4D280039
:1052B000FFF7BAFF14F00EF9300018F0D9F8441EC9
:1052C000A04144427068002801D014F06FF8280013
:1052D000FFF7AAFF14F014F9200070BD508F0008EA
:1052E000F7B50F00160005000A4C01932000FFF7E8
:1052F0009BFF14F0EFF83A003100019B280013F0F7
:1053000005FA05002000FFF78FFF14F0F9F82800D8
:10531000FEBDC046508F0008F0B587B002910092E4
:105320000193060018F0EEF80500300018F0EFF8D1
:105330000390300018F0E8F82900070000981DF0ED
:1053400065FC0C1E02D1029B002B02D10124644299
:1053500061E0009A019B9B18039AD2199342F5D8F9
:105360002E48FFF761FF14F0B5F8019B002B4DD0DC
:10537000002C4BD10099300018F0B8F8040001005F
:1053800000981DF043FC019B601A984200D9180058
:105390000322029B134201D185422ED92F00854260
:1053A00000D907003A000299706819F0D3FCAF42A7
:1053B00005D27368EA1BD819FF2119F05DFD7368E7
:1053C0000395059310230493039B059A00993000DD
:1053D00018F058F8041E06D0049B013B0493002BE0
:1053E000F2D101246442019BDB1B0193009BDB197A
:1053F0000093029BDB190293B7E729001DF080FBA5
:105400006843029B039007000593DBE70348FFF71F
:105410000BFF14F075F8200007B0F0BD508F0008A6
:10542000F7B50D001700060018F071F80400300001
:1054300018F06AF82018EC19A04202D2012040426C
:10544000FEBDA0421FD81948FFF7EEFE14F042F847
:105450000024002F22D0002C20D1102301932900FA
:10546000300018F007F8041E06D0019B013B0193A1
:10547000002BF4D1012464422900300018F036F8E2
:105480003F1A2D18E5E72100300018F02FF8010031
:1054900020001DF0BBFB0029D0D1D4E70348FFF763
:1054A000C3FE14F02DF82000CAE7C046508F000854
:1054B00016204042704710B503681B69984710BD1D
:1054C00010B503689B69984710BD10B503689B6AC7
:1054D000984710BD0020814200D119387047012043
:1054E0007047162040427047162040427047704770
:1054F00010B503689B68984710BD000010B5040004
:10550000084B0022083323600023A260E3600023DD
:105510000800A16123616361034913F00DFB2000C2
:1055200010BDC04638660210F154001007B50100E6
:1055300000900831806913F040FB07BD010010B5F1
:105540000831806913F062FB10BD000010B5040043
:10555000034B08330360FFF7F1FF200010BDC04686
:105560003866021010B5036801221B6900219847B4
:1055700010BD002210B5036811001B69984710BDCB
:10558000030000B57F3304DAFF234042DB011840FB
:10559000404203006C3300D10DE203006C3300DDA8
:1055A000B9E0964B984200D109E25FDC944B9842F7
:1055B00041D030DC934B984200D100E216DC924B94
:1055C000984200D1F9E10ADC904B984200D1DFE02B
:1055D00097238F4A5B42904236D1180000BD8D4B15
:1055E000984200D1DFE18C4A9623F3E78B4B984237
:1055F00000D1CDE008DC8A4B98421CD0894B984200
:1056000022D186235B42E8E7874B984200D1CCE168
:10561000864A8D23DEE7864B984200D1CFE115DC28
:10562000844B984200D1C6E107DC834B9842E8D016
:10563000824B984208D18723E4E7814B9842E0D01F
:10564000804B984200D1B8E18423DBE77E4B98423F
:1056500000D19DE004DC7D4B9842ECD07C4BF0E720
:105660007C4B984200D193E07B4BC8E77B4B984240
:1056700000D19AE127DC7A4B984200D188E012DC15
:10568000784B984200D194E106DC774B984200D1E8
:1056900091E1764A95239DE7754B984200D188E1C8
:1056A000744A872396E7744B984200D187E105DC62
:1056B000724B984200D17AE1714AF2E7714B9842FD
:1056C000B9D0714BB5E7714B9842B4D010DC704B38
:1056D000984296D004DC6F4B9842ACD06E4BA8E752
:1056E0006E4B984202D06E4B9842ADD1852389E72C
:1056F0006C4B984200D184E705DC6B4B984200D19B
:105700007FE76A4B7BE76A4B984241D003007A33CC
:105710003ED0684B95E70300273339D00300273389
:1057200000DDC9E00300383300D16AE703003833F5
:1057300030DC0300603300D17DE70300603316DC0A
:105740000300663300D176E70300663307DC03000D
:105750006A3300D133E1683000D16CE774E70300AD
:10576000643300D167E7623000D164E76CE703007F
:105770003C3307DC03003D3302DA403000D063E7FE
:1057800094233FE703003A33FAD0393000D05BE787
:10579000932337E70300323300D132E7030032337B
:1057A00015DC03003533F3D00300353306DC03008A
:1057B0003733EDD0363000D123E745E703003433EB
:1057C000DED093235B42333000D106E73CE7030091
:1057D0002D33DDD003002D3305DC03003133D7D06A
:1057E0002F30D5D030E703002933D1D0030029333F
:1057F00000DD20E72B30CBD026E7C04680BBFFFF83
:1058000000AFFFFF809EFFFF009DFFFF009CFFFF9A
:10581000809CFFFF809DFFFF009EFFFF80ADFFFF8C
:10582000009FFFFF809FFFFF00AEFFFF80AEFFFFE6
:1058300080B2FFFF00B1FFFF80AFFFFF80B0FFFF2E
:1058400080B1FFFF00B2FFFF80B4FFFF80B3FFFF16
:1058500000B4FFFF80BAFFFF00BBFFFF00C2FFFFE5
:1058600080BEFFFF00BDFFFF00BCFFFF80BCFFFF4D
:1058700080BDFFFF00BEFFFF80C0FFFF00BFFFFF36
:1058800080BFFFFF00C1FFFF80C1FFFF00C5FFFF1A
:1058900080C3FFFF80C2FFFF00C3FFFF00C4FFFF04
:1058A00080C4FFFF80C6FFFF80C5FFFF00C6FFFF6B
:1058B00080C7FFFF00C7FFFF030012337DD0030046
:1058C000123336DC0300193300D161E703001933CA
:1058D00014DC030022330DDC0300243300DB90E6EC
:1058E0000300263300D18CE693235B42253000D1A0
:1058F00073E6A9E6203000D183E6A5E6030016335F
:1059000000D17EE60300163309DC0300183300D112
:1059100077E693235B42173000D15EE694E60300FE
:10592000143300D187E693235B42133000D154E651
:105930008AE603000C3300D17DE603000C3319DC4A
:1059400003000F3339D003000F3309DC0300113398
:1059500000D11DE78D235B42103000D13DE673E698
:1059600003000E3300D166E687235B420D3000D181
:1059700033E669E6831D00D15DE6831D09DC030083
:105980000A3300D157E68A235B42083000D124E66F
:105990005AE6831C09D00023984200D11DE6031D5E
:1059A00000D051E647E689232CE692232AE6962387
:1059B00028E6972326E68A2324E6952322E68D23EC
:1059C00020E6C046F7B5802417006404DBB2394AEC
:1059D00023439A18060001911024022A2DD9364A31
:1059E00004349A18012A28D9344A0834934224D01E
:1059F000334A0434934220D0324A103493421CD0AC
:105A0000314A1034934218D0304A243C934214D087
:105A10002F4A0434934210D02E4A043C93420CD0B7
:105A20002D4A0434934208D02C4A1034934204D0B7
:105A30002B4A9B185C425C41A401099B0B9A3900DC
:105A400001209D1818F0C8FA3060002802D18D207E
:105A500040422BE077603A00019919F07BF9099BED
:105A6000AB4224D86519AC4221D82900012018F096
:105A7000B3FAB0600028EAD00B9BF560002B04D08D
:105A800000191A000A9919F065F9099B002B07D033
:105A90000B9B099AE018B3680899181819F05AF97D
:105AA000330000205133503618703470FEBD87200B
:105AB000CEE7C046FFFFFFFEFCFFFFFE080000012F
:105AC000090000010A0000010B0000010C000001A8
:105AD0000D00000110000001110000011200000182
