:020000041000EA
:1000000000000108D52B03100D0000004D04001066
:1000100000000000000000000000000000000000E0
:10002000000000000000000000000000F9EB0210DA
:1000300000000000000000007DEC021089EC0210BE
:100040002D2C03103D3203102D2C03102D2C0310EA
:100050002D2C03102D2C03102D2C03102D2C0310F0
:100060002D2C03102D2C03102D2C03102D2C0310E0
:100070002D2C03102D2C03102D2C03102D2C0310D0
:100080002D2C03102D2C03102D2C03102D2C0310C0
:100090002D2C03102D2C03102D2C03102D2C0310B0
:1000A0002D2C03102D2C03102D2C03102D2C0310A0
:1000B0002D2C03102D2C03102D2C03102D2C031090
:1000C00010B5064C2378002B07D1054B002B02D02E
:1000D000044800E000BF0123237010BD3016000863
:1000E00000000000B4760410084B10B5002B03D0BC
:1000F0000749084800E000BF07480368002B00D10B
:1001000010BD064B002BFBD09847F9E7000000001C
:1001100034160008B47604104411000800000000F2
:10012000164B002B00D1144B9D46402292029A1A86
:10013000924600218B460F461348144A121A39F092
:1001400025FA0F4B002B00D098470E4B002B00D008
:1001500098470020002104000D000D48002802D01F
:100160000C482DF087FE38F00FFE200029002EF0FD
:10017000E3FA2DF075FEC0460000080000000108FB
:100180000000000071E602103016000854940008C8
:1001900075DE02100000000000B585B00190019BE3
:1001A000002B05D11F49204B6C2218002DF01AF8A6
:1001B0001E4B180030F0EEFD0200019B1A62019BFD
:1001C0001B6A002B05D11749194B712218002DF01D
:1001D00009F80023039309E0164A039B5B01D31837
:1001E0000833019A1A60039B01330393039B022B8C
:1001F000F2D9019B0F4A1A610F4A104B00211800D7
:1002000032F0E8FA0200019B5A60019B5B68002B08
:1002100005D104490A4B7B2218002CF0E3FFC046AD
:1002200005B000BD88F40310C8F3031078F4031080
:10023000E4F30310E8000008C4000008A502001061
:100240002CF4031000B583B00190019B002B05D165
:100250000E490F4B652218002CF0C4FF0D4B1800FF
:10026000FFF79AFF0C4B180002F054FA0B4B1800E2
:1002700004F0CEF90A4B180004F0E4FF019B054A94
:100280001A600423180003B000BDC046BCF403107C
:10029000A0F403104801000870010008980100084C
:1002A000C001000800B591B0019000230F9302AB8C
:1002B00018002C231A00002139F068F980231B064E
:1002C000180001F0CFFB03000F930F9B1022134087
:1002D0006BD002AB1900102001F0D2FB02AB1B68FF
:1002E000022B04D0032B56D0012B54D04DE0534B9E
:1002F00080220021180039F049F902ABDA6802AB1C
:100300001B69D21802AB5B69D318012B21D902AB50
:10031000586802ABDB68494A002101F0C5FC0300C4
:100320000E9302AB58680E9A444BD21802AB1B696D
:10033000012101F0B9FC02000E9B9B180E9302AB49
:1003400058680E9A3D4BD21802AB5B69022101F04E
:10035000ABFC02ABDB69002B1FD037236B44374A61
:1003600012781A7036236B44344A52781A7002ABF2
:10037000586836236B441A78304BD21837236B44B5
:100380001B78002101F0CCFC07E02D492D4B3422D5
:1003900018002CF027FFC04600E0C04602AB5B68A7
:1003A0000021180001F040FD88E70F9B2022134038
:1003B00022D002AB1900202001F062FB02AB1B68C7
:1003C000022B0AD0032B01D0012B0FD102AB5B68AB
:1003D0000021180001F028FD2FE002AB5A688023AD
:1003E0001B061900100001F01FFD26E01449154BF3
:1003F000432218002CF0F6FE0F9B4022134016D02B
:1004000002AB1900402001F03BFB02AB1B68013B33
:10041000022B06D802AB5B680021180001F004FD36
:100420000BE00749074B4E2218002CF0DBFE0F9B18
:100430000349054851222CF0D5FE3FE7B01A0008C9
:1004400008F50310CCF40310E4F403102C4B05E082
:100450002C4B03E02C4B01E02C4BFFE7EFF3088023
:100460002B4972460A4201D0EFF309809C46294B82
:10047000196802680A60043142680A6004318268BF
:100480000A600431C2680A600431F0C147460F6057
:1004900004314F460F60043157460F6004315F4608
:1004A0000F60043102690A60083142690A60043150
:1004B00082690A600431C2690A600431034620334C
:1004C000154E324200D0043375460D4E354200D1F0
:1004D00048330C46103C2360EFF309820A60043174
:1004E000EFF308820A60043172460A600431EFF3C8
:1004F00014820A606046074900F010F8FEE7000029
:10050000100000002000000030000000400000004B
:100510000400000014F503100002000000B587B0CD
:1005200003900291002305931C4B18002CF0D4FC7F
:10053000039B302B0AD0402B0FD0202B14D1184B0B
:1005400018002CF0C9FC174B059314E0164B18004B
:100550002CF0C2FC154B05930DE0154B18002CF048
:10056000BBFC144B059306E0134B18002CF0B4FCB5
:10057000124B0593C046124B18002CF0ADFC00F056
:1005800027F8104B18002CF0A7FC0F4BDA6B0F4923
:1005900005980023009300232CF0D2FE18F50310D9
:1005A00044F503103E01FF8054F503103F01FF8026
:1005B00060F503104001FF806CF503103D01FF80E2
:1005C00078F5031084F5031008830008A4F50310E0
:1005D00070B586B0002305930CE02E4A059B9B0066
:1005E000D3181A6805992C4B18002CF075FC059B44
:1005F00001330593059B0C2BEFDD264B5C6B254BE4
:100600009D6B244BDE6B234B1A6C224B596C214B98
:100610009B6C224802930191009233002A00210032
:100620002CF05AFC1E4B1A681E4B110018002CF0BF
:1006300053FC184BDB6C0822134012D01A4B1800E5
:100640002CF04AFC134B1B6D0122134004D0174BB6
:1006500018002CF041FC0CE0154B18002CF03CFC71
:1006600007E0144B18002CF037FC114B18002CF04D
:1006700033FC084BDB6C0422134004D00E4B1800F3
:100680002CF02AFC03E00D4B18002CF025FCC04692
:1006900006B070BD08830008B4F50310C4F503105C
:1006A00000ED00E014F6031024F6031034F60310F6
:1006B00044F6031058F6031068F6031074F603109E
:1006C00082B001900091009B180002B070470000BA
:1006D00000B58FB0039002910192039B002B05D1CE
:1006E0003849394B2C2218002CF03CFB029B002B84
:1006F00005D13449354B2D2218002CF033FB00F086
:100700001DFE03000B930B9B002B02D00B9B1B6861
:1007100001E001235B420A93039B012118002CF0A6
:10072000D7FC03000993099B002BF5D000230D9300
:1007300000230C9333E0002304930C9B1A04099BC1
:1007400013430893039B5A680C9B1B01D318079310
:1007500004AB0693089B0593059A0699079B18001E
:100760002CF090FC031E17D0089B0D93039B5A6836
:100770000C9B1B01D318029ADA60039B5A680C9BEE
:100780001B01D3180A9A5A60039B5A680C9B1B01E1
:10079000D318019A9A6008E00C9B01330C93039BD9
:1007A0005B881A000C9B9A42C5D80D9B002B05D183
:1007B0000449074B582218002CF0D4FA0D9B18005E
:1007C0000FB000BD80F60310C8F60310E4F6031066
:1007D00000F7031000B58BB003900291039B002B30
:1007E00005D13949394B612218002CF0BBFA029B24
:1007F000002B05D13449364B622218002CF0B2FA96
:10080000029B1B0C0993039B5B881A00099B9A426D
:1008100009D8099A039B5B882E492F48009313003F
:1008200068222CF0DFFC039B5A68099B1B01D3183C
:100830001A68029B9A4205D0029B264927486C22DF
:100840002CF0D0FC00F07AFD03000893089B002BED
:1008500002D0089B1B6801E001235B420793039BC6
:100860005A68099B1B01D3185A68079B9A420ED0FD
:10087000039B5A68099B1B01D3189A68079B9A42ED
:1008800005D01449164B762218002CF0ABFC039BC4
:100890005A68099B1B01D31800225A60039B5A68AF
:1008A000099B1B01D31800229A60039B5A68099B7D
:1008B0001B01D318069300230593069B059A1A6023
:1008C000C0460BB000BDC04680F60310C8F603104A
:1008D00020F70310CCF803103CF7031088F703103F
:1008E000C4F7031000B589B003900291039B002B5D
:1008F00005D13649364B812218002CF033FA029B81
:10090000002B05D13349344B842218002CF06AFCAB
:10091000029B1B0C0793039B5B881A00079B9A4260
:1009200009D8079A039B5B882A492C480093130037
:100930008A222CF057FC039B5A68079B1B01D31893
:100940001A68029B9A4205D0029B224924488E22B3
:100950002CF048FC00F0F2FC03000693069B002BF1
:1009600002D0069B1B6801E001235B420593039BB9
:100970005A68079B1B01D3185A68059B9A420ED0F0
:10098000039B5A68079B1B01D3189A68059B9A42E0
:1009900005D01049134B982218002CF023FC039B20
:1009A0005A68079B1B01D318DB68002B05D1074948
:1009B0000D4B9D2218002CF0D5F9039B5A68079B1C
:1009C0001B01D318DB68180009B000BD80F60310C6
:1009D000C8F60310E8F8031000F803103CF7031002
:1009E00088F7031040F8031090F8031084B00190CA
:1009F0000091002303930FE0019B1A69039B5B01A5
:100A0000D3180293029B1A68009B9A4201D1029B61
:100A100008E0039B01330393019B5A69039B9A42AD
:100A2000EAD80023180004B07047000000B585B074
:100A300001900023039316E00F4B1968039A1300EB
:100A40009B009B18DB00CB18019A11001800FFF7E0
:100A5000CDFF03000293029B002B01D0029B08E014
:100A6000039B01330393044B5A68039B9A42E3D8D8
:100A70000023180005B000BD1802000800B587B0BB
:100A800003900291029B002B0DD1039B1B7D012241
:100A90005340DBB2002B06D0039B1B681A491B484E
:100AA00038222CF09FFB029B002B2BD0029B9B69D2
:100AB000002B06D1029B1B68134915483D222CF0E0
:100AC00091FB002305930CE0029B9A69059B9B0018
:100AD000D3181A68039B1B689A4212D0059B0133F6
:100AE0000593029BDA69059B9A42EDD8039B1A682D
:100AF000029B1B68044907480093130046222CF010
:100B000071FBC04607B000BD00FC031004F90310E0
:100B10003CF9031074F9031000B583B00190009103
:100B2000009A0199034B1800FFF7D2FD030018004B
:100B300003B000BD2002000800B583B00190019A07
:100B4000044B11001800FFF7CDFE0300180003B09E
:100B500000BDC0462002000800B585B0019000919C
:100B6000019B9B681A6A01235B421900100030F058
:100B700035F903000393039B002B05D02349244B35
:100B8000572218002CF0EEF8019BDB69002B03D1F3
:100B9000019B009A9A6103E0019BDB69009A1A614C
:100BA000019B009ADA61019B9B685A68019B5B6814
:100BB0001900100031F066FE03000293029B002B27
:100BC00005DA1249134B662218002CF0CBF8019B72
:100BD0005B68029A134005D10C490F4B672218003D
:100BE0002CF0C0F8019B9B681B6A180030F020F9BC
:100BF00003000393039B002B05D00449044B6B2295
:100C000018002CF0AFF8C04605B000BDB4F90310D1
:100C1000F8F903100CFA031028FA031030B58BB062
:100C200005900491049B002B05D15649564B702228
:100C300018002CF097F8059B1800FFF7F7FE03004B
:100C40000993099B002B05D1059B504950487422FC
:100C50002CF0C8FA099B1B69002B05D1049B1A686C
:100C6000099BDB689A4209D8099B1B69012B17D1A4
:100C7000049B1A68099BDB689A4211D0049B1D688B
:100C8000099B1A68099BD968099B1B693F4C41481D
:100C90000293019100922B007A2221002CF0A2FAFB
:100CA00000F04CFB03000893089A099B1100180000
:100CB000FFF7E4FE089A049B0C21180000F078FB73
:100CC00003001A0001235340DBB2002B05D02F494B
:100CD000314B812218002CF085FA304B9B690021A2
:100CE00018002EF081FF03000793079B002B1BD1F8
:100CF000049B2B4A5A60089B002B0FD0049B9B68D7
:100D0000180030F0A5FB03000693069B002B35D09E
:100D10001C49244B8A2218002CF024F8049B9B6861
:100D2000180001F02FFB29E0099B9B681A68079BBC
:100D300011001800FFF7F0FE0200049B5A60079BA9
:100D400002225A75079B089A1A60079B099A5A60F3
:100D5000079B049ADA60079B01221A75079B002201
:100D60009A60079B00221A61079B00229A75079AD6
:100D7000099B11001800FFF7EFFE00E0C0460BB022
:100D800030BDC046B4F9031044FA0310ECFB031065
:100D900058FA031078FA0310D4FA03101802000866
:100DA00001000080F8F9031000B58FB001900091A8
:100DB00009AB180010231A00002138F0E7FB05AB3F
:100DC00000221A6005AB00225A6005AB09AA9A609E
:100DD00005AB1022DA6002AB009A1A6002AB002267
:100DE0005A6005AB1A000021012030F0DDFA020044
:100DF00002AB9A6002AB9B68002B05D119491A4BD4
:100E0000B72218002CF0EEF902AA019B110018007D
:100E1000FFF704FF02AB9A6801235B421900100040
:100E200030F0EEFA03000D930D9B002B05D00F4917
:100E30000F4BBD2218002BF095FF02AB9B681800EA
:100E400030F028FB03000D930D9B002B05D00749C4
:100E5000074BC02218002BF085FF02AB5B6818001F
:100E60000FB000BD20FC031004FB0310B4F9031005
:100E7000F8F9031000B585B001900091009B002B9C
:100E800005D13649364BC92218002BF06BFF019B68
:100E90001800FFF751FE03000393039B002B05D1BD
:100EA0002E49304BCB2218002BF05CFF039B1A68B5
:100EB000009B1821180000F07BFA03001A000123A0
:100EC0005340DBB2002B05D02749284BCE22180017
:100ED0002CF088F9039B9B7D012B1DD1009B802268
:100EE00012061A61039B1B68002B05D1009B5B69EE
:100EF000180001F047FA2EE0009B5B69180030F003
:100F0000A7FA03000293029B002B24D01349184B2D
:100F1000D82218002BF026FF039B1533042203214F
:100F2000180000F0A3F9039B009ADA60039B0222E9
:100F30001A75009B1868009B5968009B9A68009B73
:100F4000DB6800F067F9039B5B68039A11001800E7
:100F5000FFF702FE00E0C04605B000BDB4F9031083
:100F600044FA03103CFB03102CFC031054FB031049
:100F7000F8F9031000B595B0039002910192009327
:100F80000FAB180010231A00002138F0FFFA0BAB4A
:100F900000221A600BAB00225A600BAB0FAA9A60BA
:100FA0000BAB1022DA6005AB029A1A6005AB019A0E
:100FB0005A6005AB009A9A6005AB169ADA6005ABE9
:100FC00000221A610BAB1A000021012030F0ECF96D
:100FD000020005AB5A6105AB5B69002B06D1832388
:100FE0005A001B491B4B18002CF0FCF805AA039B68
:100FF00011001800FFF73EFF05AB5A6901235B4261
:101000001900100030F0FCF903001393139B002B20
:1010100006D086235A001049104B18002BF0A2FE70
:1010200005AB5B69180030F035FA03001393139B8E
:10103000002B07D01023FF331A000749074B180075
:101040002BF090FE05AB1B69180015B000BDC04623
:101050003CFC031004FB0310B4F90310F8F903106F
:1010600000B585B001900091009B002B06D18C2328
:101070005A002049204B18002BF074FE019B1800E9
:10108000FFF75AFD03000393039B002B07D11C239A
:10109000FF331A001749194B18002BF063FE039B0E
:1010A0001A68009B0821180000F082F903001A005A
:1010B00001235340DBB2002B06D08F235A00104986
:1010C000104B18002CF08EF8039B153303211800E9
:1010D00000F004F9039B009ADA60039B03221A755F
:1010E000039B5B68039A11001800FFF735FDC046AB
:1010F00005B000BDB4F9031044FA03103CFB031023
:1011000048FC031084FB031000B58FB00190019BD5
:10111000002B55D009AB180010231A00002138F01D
:1011200035FA05AB00221A6005AB00225A6005AB08
:1011300009AA9A6005AB1022DA6003AB019A1A6023
:1011400005AB1A000021012030F02EF9020003AB9C
:101150005A6003AB5B68002B06D1A1235A001A49E1
:101160001A4B18002CF03EF803AA019B110018003E
:10117000FFF776FF03AB5A6801235B4219001000AA
:1011800030F03EF903000D930D9B002B06D0A423F5
:101190005A000F490F4B18002BF0E4FD03AB5B68BE
:1011A000180030F077F903000D930D9B002B08D049
:1011B0004C23FF331A000649064B18002BF0D2FDD2
:1011C000C0460FB000BDC04658FC0310B4FB03106E
:1011D000B4F90310F8F9031000B585B001900023AD
:1011E0000393019B1800FFF721FC03000293029B6D
:1011F000002B0AD000F0A2F8031E03D1029B1B7D36
:10120000002B02D0029BDB680393039B180005B000
:1012100000BD000000B589B00790069105920493C7
:10122000079B002B02D1069B002B0AD1059B002BAC
:1012300002D1049B002B04D1069A049BD318042BE3
:101240000CD9079A07490848049B0293059B019310
:10125000069B0093130026222BF0C4FFC04609B062
:1012600000BDC04680FD031064FC031000B587B0CC
:101270000390080011000B236B44021C1A700A2310
:101280006B440A1C1A7017236B440B226A441278B1
:101290001A700A236B441A7817216944039B1800BB
:1012A0002BF0C0FE03001A0001235340DBB2002BD9
:1012B0000DD017236B441B781A000B236B441B784B
:1012C00004490548009313002F222BF08BFFC046E2
:1012D00007B000BD90FD0310B8FC031000B589B045
:1012E00003900A000B236B441A70039B0693172389
:1012F0006B44069A12781A7017236B441A781F23CE
:101300006B441A701F226A440B236B4412781B78BB
:101310009A420CD01F236B441A780B236B441B7822
:10132000044905480093130038222BF05BFFC046A8
:1013300009B000BDA8FD0310B8FC031000B583B0D0
:1013400031F076FA03000093009B002B05D115497C
:10135000154B5E2218002BF005FD0023019317E0CA
:10136000124B1968019A13009B009B18DB00CB18E5
:101370005A68009B9A4208D10C4B1968019A1300D5
:101380009B009B18DB00CB1808E0019B0133019305
:10139000064B5A68019B9A42E2D80023180003B01A
:1013A00000BDC04600FD031060FD031018020008D8
:1013B0008CB0039002910192039B002B01D100237A
:1013C00076E0029B002B01D1012371E0039A029B7E
:1013D000D3185A1E039B9A4201D2002368E080234F
:1013E0001B050B9380235B020A9380235B05099303
:1013F00080231B030893304B0793304B0693304BED
:101400000593F023DB020493019B002B27D1039A61
:10141000079B9A420FD3079A069BD218039B9A42C6
:1014200009D9039A029BD2180799069BCB189A42B6
:1014300001D801233CE0039A059B9A4237D3059AD1
:10144000049BD218039B9A4231D9039A029BD2186B
:101450000599049BCB189A4229D8012328E0039AC6
:101460000B9B9A420FD30B9A0A9BD218039B9A426A
:1014700009D9039A029BD2180B990A9BCB189A425E
:1014800001D8012314E0039A099B9A420FD3099AC9
:10149000089BD218039B9A4209D9039A029BD2183F
:1014A0000999089BCB189A4201D8012300E0002338
:1014B00018000CB07047C046000001080077030018
:1014C0000000081010B532F04DFA174B1A00182121
:1014D0000A202EF05DFB0200144B9A61134B9B69AE
:1014E000002B05D1124A134B110018002BF07AFE85
:1014F000114B1A0028210A202EF04AFB02000B4B48
:10150000DA610A4BDB69002B05D1094A0B4B11004C
:1015100018002BF067FE054B1800FEF793FE020043
:10152000024B5A60C04610BDE801000818020008CE
:1015300050FE0310F0FD0310000200081CFE031013
:1015400010B5034B1B68180001F078F8F9E7C046A6
:101550003C02000800B583B001900091009A019907
:10156000034B1800FFF7B4F80300180003B000BDE8
:101570002802000800B583B00190019A044B1100C5
:101580001800FFF7AFF90300180003B000BDC04614
:101590002802000800B583B00190019A034B1100A6
:1015A0001800FFF717F9C04603B000BD2802000875
:1015B00000B583B00190019A034B11001800FFF7AA
:1015C00009F9C04603B000BD2002000884B00190B4
:1015D00000910023039311E0019B1A69039B5B01B7
:1015E000D3185A68009B9A4205D1019B1A69039B44
:1015F0005B01D31808E0039B01330393019B5A69F5
:10160000039B9A42E8D80023180004B070470000FA
:1016100010B596B00190009103AB180028231A0072
:10162000002137F0B3FF03AB019A1A60019B1B7DC9
:10163000022B00D0F6E0019BD868019B1B681A00C2
:101640001821FFF7B5FE03001A0001235340DBB257
:10165000002B05D08D498E4B5B2218002BF0C2FD6C
:10166000019BDB681393139B1B681293139B5B68AE
:101670001193139B9B681093139BDB680F930F9B35
:10168000109A11991298FFF7C5FD119BD9B203ABBF
:1016900024229954119B002B5DD0119BD900019BF2
:1016A0001A68129B1800FFF783FE03001A0001233B
:1016B0005340DBB2002B05D07449764B6B221800E7
:1016C0002BF090FD0023159341E0159BDB00129A4F
:1016D000D3185B68002B36D0159BDB00129AD0180C
:1016E00003AA159BDB000421D3185B18020003CA70
:1016F00003C3159BDB00129AD3185A680099159BF7
:1017000002339B00CB1804331A6003AA159BDB003D
:10171000D3180433186803AA159BDB00D3180833C9
:101720001968019B1B681A00FFF742FE03001A00AC
:1017300001235340DBB2002B06D0159B534956487A
:101740007C222BF04FFDC046159B01331593159A53
:10175000119B9A42B9D30F9B002B63D00F9BD900EA
:10176000019B1A68109B1800FFF722FE03001A0065
:1017700001235340DBB2002B05D04449474B832261
:1017800018002BF02FFD0023149347E0149BDB007F
:10179000109AD3185B68002B3CD0119A149BD31875
:1017A000149AD2001099881803AADB000421D318D8
:1017B0005B18020003CA03C3149BDB00109AD31802
:1017C0005A680099149B06339B00CB1804331A60A7
:1017D000119A149BD31803AADB00D318043318689A
:1017E000119A149BD31803AADB00D3180833196885
:1017F000019B1B681A00FFF7DBFD03001A000123A1
:101800005340DBB2002B06D0149B2049244894227D
:101810002BF0E8FCC046149B01331493149A0F9BE1
:101820009A42B3D31F4BDA6901235B4219001000BF
:101830002EF0DAF903000E930E9B002B05D113490D
:10184000194B9D2218002BF0CDFC0E9B03AA13CA46
:1018500013C313CA13C313CA13C312681A600E9BAF
:1018600000211800FFF776FE03000D93019B1B7DFE
:101870001A00009B1A60019B9A68009B9A60009B6B
:101880000D9A5A60C04616B010BDC046A0040410A0
:1018900060FE031088FE0310A8FE0310CCFE0310A8
:1018A000ECFE03101802000810FF031000B587B00B
:1018B0000190019B9B681A6A01235B42190010008A
:1018C0002FF08CFA03000593059B002B05D02849C7
:1018D000284BAD2218002BF045FA019B9B6904931D
:1018E000049B002B05D12449244BB32218002BF074
:1018F00079FC049B1A69019B9A61049B00221A617E
:10190000019B9B69002B1DD1019B0022DA61019B89
:101910005B68180030F0DEFF03000393039B002B8D
:1019200005DA1349164BBF2218002BF01BFA019B56
:101930005B68039A134005D10D49124BC022180071
:101940002BF010FA019B9B681B6A18002FF070FAAD
:1019500003000593059B002B05D00549054BC522C7
:1019600018002BF0FFF9049B180007B000BDC0461B
:101970003CFF031080FF0310B404041094FF031015
:10198000B4FF0310D0FF031000B58BB00491039295
:1019900017236B44021C1A70FFF7D0FC0300099355
:1019A000099B002B05D12A492A4BCE2218002BF087
:1019B000D9F9099BDB68082213430893099B9A68AD
:1019C000089B1343079317236B441B78002B02D00B
:1019D000079B04930EE0089B049A1A40049B9A42CA
:1019E00008D0049A1C491D48089B00931300DB2271
:1019F0002BF0F8FB039A80231B069A4201D0039B2D
:101A000001E001235B4204981A00022130F09EFF9E
:101A100003000693069B079A1A40069B9A420DD034
:101A2000039A80231B069A4202D0069B023305D0FC
:101A300007490B4BE72218002BF094F9069B023361
:101A400001D0069B00E0002318000BB000BDC0468B
:101A50003CFF0310ECFF0310D40404100C0004102E
:101A60004800041000B583B00190019B1A000021CA
:101A70000120FFF789FF0300180003B000BD00003C
:101A800010B58AB003900291FFF758FC0300099348
:101A9000099B002B05D15149514BF92218002BF01D
:101AA00061F9099A029B2C211800FFF781FC0300C1
:101AB0001A0001235340DBB2002B05D049494A4BA1
:101AC000FC2218002BF08EFB029B2C220021180018
:101AD00037F05CFD039B002B06D0039B013B039A70
:101AE000134001D1012200E0002223236B441A702D
:101AF0001A7801210A401A7023236B441B780122B3
:101B00005340DBB2002B04D1099B9B68039A13401E
:101B10000AD1099B9B68039C8422520031493348B7
:101B2000009323002BF05EFB30F0F8FE03000793D8
:101B3000039B079A134007D10E23FF331A0029494C
:101B40002B4B18002BF04EFB039A099B1100180039
:101B5000FFF73CFD03000693069B002B07D1039C77
:101B600089235A001F49234823002BF03BFB069B87
:101B70001800FFF79BFE03000593059B1B7D022BBE
:101B80000AD0032B10D0012B15D1059B1533022150
:101B90001800FFF7A3FB18E0059B1533052204216D
:101BA0001800FFF763FB10E0059B153303211800B5
:101BB000FFF794FB09E0059B1B7D1C0097235A004F
:101BC00008490D4823002BF00DFB029A059B1100DC
:101BD0001800FFF71DFDC0460AB010BD3CFF031002
:101BE000ECFF0310E0040410C4000410E000041033
:101BF0002C010410480104109801041000B587B0AE
:101C00000390029101920093039B1800FFF7B2FC2E
:101C100003000593059B1B68153305211800FFF78A
:101C20005DFB029B032B06D99E235A001C491D4BCA
:101C300018002BF0D7FA059B24229B5C1A00029B0C
:101C40009A4201D8002327E0029BDB00059AD318B3
:101C500004330493049B5A68009B9A4202D2049B6B
:101C60005B680093009B002B15D0019B002B06D0D6
:101C7000049B1968009A019B180037F0F5FB049B40
:101C80001A68009BD218049B1A60049B5A68009B38
:101C9000D21A049B5A60009B180007B000BDC046D2
:101CA000E8040410C801041000B587B00390029145
:101CB00001920093FFF742FB03000593059B002B65
:101CC00007D15823FF331A001149124B18002BF08B
:101CD00049F8059A0099019B1800FFF769FB03007A
:101CE0001A0001235340DBB2002B06D0AD235A006B
:101CF00009490A4B18002BF075FA009B019A0299CA
:101D00000398FFF77BFF0300180007B000BDC04633
:101D10003CFF0310ECFF0310F8040410E40104106E
:101D200010B58AB00590049103920293029B002B98
:101D30006BD0FFF703FB03000993099B002B06D12F
:101D4000B6235A003249334B18002BF00BF8099A8E
:101D50000299039B1800FFF72BFB03001A000123D5
:101D60005340DBB2002B07D07023FF331A002A49FF
:101D70002A4B18002BF036FA059B1800FFF7FAFBE8
:101D800003000893089B1B68153305211800FFF713
:101D9000A5FA089B24229B5C1A00049B9B180493C1
:101DA000049B032B06D9BC235A001B491C4B18006B
:101DB0002BF018FA049BDB00089AD318043307931E
:101DC000079B5A68029B9A420AD2079B5B68029C57
:101DD0007E22FF3210491348009323002BF002FAB1
:101DE000079B1B68029A0399180037F03DFB079B7D
:101DF0001A68029BD218079B1A60079B5A68029BBD
:101E0000D21A079B5A60C04600E0C0460AB010BD17
:101E10003CFF0310ECFF031004050410E401041060
:101E2000040204102002041010B58EB0019000913D
:101E3000019B1800FFF79EFB03000B930B9B1B6895
:101E40000D930D9B002B07D18C23FF331A008B4978
:101E50008B4B18002AF086FF0D9BDB68002B06D108
:101E6000C6235A008549874B18002AF07BFF019B47
:101E70001800FFF78FFB0B9B28220021180037F07A
:101E800085FB814BDB690B9A110018002DF0D4FE05
:101E900003000A930A9B002B06D0CB235A007749F4
:101EA0007A4B18002AF05EFF00230C930D9B1A68F2
:101EB00027236B4451424A411A700D9B1B7D022B14
:101EC00051D0032B00D178E0012B00D0A3E0009B80
:101ED000002B0CD0009B6E4A934208D0009CA0239C
:101EE000FF331A006B496C4823002BF07BF90D9BE4
:101EF000DB680893089B9B680C93009B644A9342A1
:101F000029D10D9B153302211800FFF7E7F9089B33
:101F10005B681800FFF74CFB0D9B1822002118008E
:101F200037F034FB584B9B690D9A110018002DF0C7
:101F300083FE03000793079B002B06D0D9235A008A
:101F40004E49524B18002AF00DFF089B009A5A6028
:101F500000230D936BE00D9B153303220221180023
:101F6000FFF784F963E0009A80231B069A420BD0A6
:101F7000009B4A4A934207DA009CE0235A004549F5
:101F8000474823002BF02EF90D9B15330322052122
:101F90001800FFF76BF9009A80231B069A4202D1C2
:101FA0000D9B01229A750D9BDB680693069B009A98
:101FB0001A61069B5B690C9339E00D9BDB68059306
:101FC000059B5B680C930D9B1533012203211800C0
:101FD000FFF74CF9059B1B681800FFF7E9FA0D9B0A
:101FE00018220021180037F0D1FA274B9B690D9A6F
:101FF000110018002DF020FE0300049300230D9320
:10200000049B002B12D0E223FF331A001B491F4B05
:1020100018002AF0A7FE0D9B1B7D1C00EA23FF334E
:102020001A001C491F4823002BF0DCF8C0460D9B0A
:10203000002B05D00D9B0022DA600D9B00221A7543
:1020400027236B441B78002B04D00C9B180000F056
:1020500099F90FE00C9B18002FF0FAF90300039395
:10206000039B002B06D0FB235A000449074B1800A2
:102070002AF078FEC0460EB010BDC0463CFF0310EB
:1020800060020410800204101802000880FF031090
:102090000100008010050410A802041080000080D8
:1020A000E40204101C03041000B585B00190019BEC
:1020B0001800FFF75FFA03000393039B1B68002BD4
:1020C00005D10A4A0A490B4B18002AF04BFE039B24
:1020D0001B681B68002B02D101235B4203E0039BBA
:1020E0001B681B681B68180005B000BD1E020000BD
:1020F0003CFF0310BC03041000B585B001900091B3
:10210000019B1800FFF736FA03000393039B1B683B
:10211000009A9A60C04605B000BD000000B583B0CB
:10212000154B1B685B6918002FF092F903000193AF
:10213000019B002B08D0019B033305D00F49104BA6
:10214000442218002AF00EFE0E4B1B681B69180073
:102150002FF07EF903000193019B002B08D0019B17
:10216000033305D00549064B472218002AF0FAFD33
:10217000C04603B000BDC046380200083405041054
:10218000940504103C02000810B531F015FDC0465E
:1021900010BD10B531F010FDC04610BD00B587B0C0
:1021A00001AB186059609A6001AB1B68022B11D01B
:1021B00002D8012B05D045E0032B15D0042B1DD0F0
:1021C00040E001AB9A6801AB5B6819001000FEF7B4
:1021D00025FD3DE001AB9B681A0001AB5B6819006F
:1021E0001000FEF747FE33E001AB9B681A0001AB1D
:1021F0005B6819001000FEF733FF29E001AB5B6854
:102200000593059B002208211800FFF7D1F8030071
:102210001A0001235340DBB2002B05D00E490F4BAF
:102220006C2218002AF0DEFF01AB9B681800FEF755
:10223000D3FF0200059B1A60059B5B68180000F045
:10224000A1F805E00649074B752218002AF08AFD1F
:10225000C04607B000BDC04670060410CC0504108F
:1022600034050410F405041000B599B0394B1793E8
:102270000FAB394A1A60179B0C331A000FAB5A6028
:10228000179B48331A000FAB9A606B4618003C232B
:102290001A00002137F07AF96B46304A1A600FAB0A
:1022A0005B6816930FAB9B6815936946169B3C229F
:1022B000180037F0D9F86946159B3C22180037F012
:1022C000D3F80FA9179B0C22180037F0CDF8244B38
:1022D00018002EF05FFD03001493149B002B05D112
:1022E0002049214B9F2218002AF03CFD1F4B1A0069
:1022F000002101202FF058F803001393139B002BAB
:1023000005D118491A4BA22218002AF02BFD194BAF
:102310001A00002101202FF047F803001293129BAE
:10232000002B05D10F49144BA52218002AF01AFDE5
:10233000124B1868139B149A159900F03DF8104B36
:102340001B68129A1699180000F096F8C04619B04A
:1023500000BDC04600770408779A333D0C4A2863D5
:102360004006041034050410FC0504105006041047
:102370001006041060060410280604103802000835
:102380003C02000800B587B0019003AB18000C2395
:102390001A00002137F0FAF8019A03AB5A60054B96
:1023A000186803AB19685A689B6800F0B5F8C04616
:1023B00007B000BD3802000800B585B00390029157
:1023C00001920093039B002B05D12349234B242228
:1023D00018002AF0C7FC029B002B05D11E49204B98
:1023E000252218002AF0BEFC029B1B681D4A93425E
:1023F00005D019491C4B262218002AF0B3FC019B7A
:10240000002B05D11449194B272218002AF0AAFCE9
:10241000009B002B05D11049154B282218002AF0EB
:10242000A1FC039B134A1A60029B1A1D039B5A606E
:10243000029B08331A00039B9A60029B0C331A001C
:10244000039BDA60039B019A1A61039B009A5A610D
:10245000C04605B000BDC04680060410CC0604107E
:10246000DC0604100C4A2863F40604102407041048
:1024700034070410FFD948A200B585B0039002913B
:102480000192039B002B05D11C491D4B37221800DC
:102490002AF068FC029B002B05D11849194B382201
:1024A00018002AF05FFC029B1B68174A934205D074
:1024B0001249164B392218002AF054FC019B002BBC
:1024C00005D10E49124B3A2218002AF04BFC039B0F
:1024D000104A1A60029B1A1D039B5A60029B083324
:1024E0001A00039B9A60029B0C331A00039BDA606C
:1024F000039B019A1A61C04605B000BD8006041016
:10250000CC060410DC0604100C4A2863F406041000
:102510004C07041042658BA610B586B00390684640
:10252000016042608360039B002B05D13D493E4B17
:10253000472218002AF016FC039B1B683B4A934273
:1025400005D038493A4B482218002AF00BFC039B6F
:102550001A6901235B42190010002EF03FFC0300B2
:102560000593059B002B1BD02E49324B4B221800A4
:102570002AF0F8FB039B5A69FA235B00190010004C
:102580002EF03EFF03000593059B002B08D0059B12
:10259000023305D02349284B502218002AF0E2FBD1
:1025A000039B9B681B68013303221A40039B5B68F3
:1025B0001B689A42DED0039BD968039B9B681A680C
:1025C00013005B009B189B00CB186A4613CA13C309
:1025D000039B9B68039A92681268013203210A40A8
:1025E0001A60039B5B681B68013303221A40039B3C
:1025F0009B681B689A4201D1FFF7C6FD039B1B69CC
:1026000018002EF015FC03000593059B002B05D048
:102610000449084B5D2218002AF0A4FBC04606B00E
:1026200010BDC04680060410CC060410FFD948A295
:10263000600704108C070410A007041010B586B0C2
:102640000190019B002B05D12D492E4B63221800D0
:102650002AF088FB019B1B682B4A934205D028492E
:102660002A4B642218002AF07DFB019B1A69FA2389
:102670005B00190010002EF0C3FE03000593059BBC
:10268000002B31D0059B02332ED01D49204B6822F0
:1026900018002AF067FB019BD968019B5B681A68E8
:1026A00013005B009B189B00CA1802AB13CA13C32C
:1026B000019B5B68019A52681268013203210A404B
:1026C0001A60019B9B681B68023303221A40019B1E
:1026D0005B681B689A4201D1FFF75BFD02AB18688B
:1026E00059689A68FFF75AFD019B5B681A68019B5D
:1026F0009B681B689A42CED1C04606B010BDC0464A
:1027000080060410CC06041042658BA6D80704107E
:10271000A007041000B585B00190019B002B05D1E6
:102720001F49204BD42218002AF05CFD1E4B1800D4
:102730002EF030FB0200019B1A62019B1B6A002BEA
:1027400005D11749194BD92218002AF04BFD002357
:10275000039309E0164A039B5B01D3180833019ADF
:102760001A60039B01330393039B0A2BF2D9019B4D
:102770000F4A1A610F4A104B0021180030F02AF856
:102780000200019B5A60019B5B68002B05D1044944
:102790000A4BE32218002AF025FDC04605B000BD13
:1027A000E408041024080410D4080410400804109D
:1027B0006402000840020008094500108008041067
:1027C00084B0039002910192019B00221A6033E0D1
:1027D000019B1A68444913005B009B189B005A58E0
:1027E000039B9A4223D1019B1A683F4913005B0067
:1027F0009B189B00CB1804331A68029B9A4216D18F
:10280000019B1A68384913005B009B189B00CB188A
:1028100008331B780133D8B2334913005B009B188F
:102820009B00CB180833021C1A70002358E0019B50
:102830001B685A1C019B1A60019B1B68012BC7D99E
:10284000019B00221A6045E0019B1A68264913008B
:102850005B009B189B005B58002B36D1019B1A68CC
:10286000214913005B009B189B00CB1804331B68A5
:10287000002B2AD1019B1A681B4913005B009B188F
:102880009B00039A5A50019B1A68174913005B007A
:102890009B189B00CB180433029A1A60019B1A689C
:1028A000114913005B009B189B00CB1808331B7861
:1028B0000133D8B20C4913005B009B189B00CB1866
:1028C0000833021C1A7000230AE0019B1B685A1C83
:1028D000019B1A60019B1B68012BB5D989235B42C0
:1028E000180004B07047C0460460000882B0019030
:1028F000019B1B7A013BDAB2019B1A72019B1B7A86
:10290000002B05D1019B00221A60019B00225A6016
:10291000C04602B07047000084B0019000230393CA
:102920002BE01949039A13005B009B189B00CB18FE
:1029300004331A68019B9A421CD11349039A13006D
:102940005B009B189B0000225A500F49039A13000A
:102950005B009B189B00CB18043300221A600A49C5
:10296000039A13005B009B189B00CB1808330022CE
:102970001A7005E0039B01330393039B012BD0D90D
:10298000C04604B07047C0460460000884B003909D
:1029900002910192039B012B14D81249039A130050
:1029A0005B009B189B005A58029B9A420AD10D4922
:1029B000039A13005B009B189B00CB1804331B6821
:1029C000002B02D189235B4209E0039A13005B00CC
:1029D0009B189B00034A9A18019B1A600023180059
:1029E00004B070470460000800B58DB06B46180055
:1029F0002C231A00002136F0C9FD00230B936B46EF
:102A000019001020FFF73CF86B461B68022B04D01E
:102A1000032B20D0012B1ED016E009F00DFD030082
:102A20000B930B9B002B18D1114B1B685A1C104B9E
:102A30001A600F4B1B68012B0FD10E4B182200217F
:102A4000180036F0A3FD08E06B461B680A490B48E6
:102A500083222AF0C7FBC04600E0C0466B465B6895
:102A60000B9A11001800FFF7DFF9C0460DB000BD4A
:102A70000060000804600008480A0410F40804100C
:102A800000B58DB06B4618002C231A00002136F0DB
:102A90007DFD00230B936A4680235B011100180023
:102AA000FEF7EEFF6B461B68022B04D0032B1FD0F2
:102AB000012B1DD015E0154B1B68002B04DD134BBB
:102AC0001B685A1E114B1A60104B1B68002B11D14A
:102AD0000F4B18220021180036F058FD09F088FC31
:102AE00008E06B461B680B490B48A8222AF07AFBCA
:102AF000C04600E0C0466B465B680B9A11001800A8
:102B0000FFF792F9C0460DB000BDC0460060000856
:102B100004600008640A0410F408041010B596B0AC
:102B200005AB18002C231A00002136F02FFD0023DE
:102B3000159305AB19002020FEF7A2FF05AB1B681B
:102B4000022B1BD0032B00D138E1012B00D044E134
:102B5000B4235B001900012035F0C8FD0300149375
:102B6000149B002B02D1A84B159342E105AB5B6887
:102B7000149A11001800FFF7BFFA3AE103AB1800EE
:102B800008231A00002136F001FD05ABDB68082B95
:102B900003D091235B4215932BE105AB586805AB3D
:102BA000DB6803AA0021FFF77FF80300139305AB4E
:102BB000DA68139B9A4205D09449954BCD221800B0
:102BC0002AF010FB03AB1B78153B052B00D9EFE077
:102BD0009A00904BD3181B689F4605AB986803ABCF
:102BE000598803AB5B681A0006F05AF90300159385
:102BF000E2E005AB986803AB598803AB5B681A0049
:102C000006F062F903001593D6E005AB1B691900C5
:102C1000012035F06BFD03001293129B002B03D1B2
:102C20008D235B421593C7E005AB586805AB1B6964
:102C3000129A0121FFF738F80300139305AB1A69C4
:102C4000139B9A4205D07149714BEA2218002AF071
:102C5000C9FA05AB986805AB1A69129B190006F012
:102C600047F903001593129B180036F0C3F8A3E050
:102C70000023029305AB586805AB1B6902AA01212A
:102C8000FFF712F80300139305AB1A69139B9A42DE
:102C900005D05E495E4BFA2218002AF0A3FA002301
:102CA0000193029B1900012035F020FD03001193D0
:102CB000119B002B03D18D235B4215937CE005AB68
:102CC0009868029A01AB119906F03EFA0300159339
:102CD000159B002B0DD105AB5868019B119A002163
:102CE000FFF71EF805AB586801AA04230121FFF77E
:102CF00017F8119B180036F07DF8C0465CE0002301
:102D0000009305AB586805AB1B696A460121FEF7C5
:102D1000CBFF0300139305AB1A69139B9A4204D1AE
:102D200005AB5A69009B9A4206D08B235A0037495B
:102D3000374B18002AF056FA009B1900012035F095
:102D4000D5FC03001093109B002B03D18D235B4215
:102D5000159331E005AB586805AB5B69109A022109
:102D6000FEF7A2FF0300139305AB5A69139B9A4227
:102D700007D02223FF331A002449254B18002AF0DC
:102D800031FA05AB9B68009A1099180006F022FAF8
:102D900003001593109B180036F02CF8C0460BE08A
:102DA00005AB9B68180005F0D1FC0300159303E008
:102DB00086235B421593C046C0461AE005AB9B686C
:102DC000180005F0C3FC05AB9B68002B10D005ABC9
:102DD0009B68180036F00EF80AE005AB1B681C0073
:102DE0004423FF331A0009490B4823002AF0FAF95B
:102DF000C04605AB5B68159A11001800FFF714F880
:102E0000C04616B010BDC04601000080800A041004
:102E10001809041038090410F408041010B59AB009
:102E200009AB18002C231A00002136F0AFFB002359
:102E3000199309AB19004020FEF722FE09AB1B686D
:102E4000022B19D0032B00D196E1012B00D0A7E172
:102E5000E021012035F04AFC03001893189B002B59
:102E600002D1DA4B1993A6E109AB5B68189A1100FD
:102E70001800FFF741F99EE10023179307AB1800F4
:102E800008231A00002136F081FB09ABDB68082B10
:102E900003D091235B4219938DE109AB586809ABCC
:102EA000DB6807AA0021FEF7FFFE0300179309ABBA
:102EB000DA68179B9A4206D0B4235A00C449C54B1E
:102EC00018002AF08FF907AB1B780E3B062B00D9B0
:102ED00049E19A00C04BD3181B689F4609AB9A681A
:102EE00007AB5B681900100005F046F80300199362
:102EF00040E109AB1B691900012035F0F7FB030025
:102F00001693169B002B03D18D235B42199331E15D
:102F100009AB586809AB1B69169A0121FEF7C4FE7C
:102F20000300179309AB1A69179B9A4207D07E23B7
:102F3000FF331A00A649A74B18002AF053F909AB32
:102F4000986809AB1A69169B190005F08FF8030001
:102F50001993169B180035F04DFF0BE100230693E3
:102F600009AB586809AB1B6906AA0121FEF79CFE54
:102F70000300179309AB1A69179B9A4206D0C62320
:102F80005A009349934B18002AF02CF9002305931B
:102F9000069B1900012035F0A9FB03001593159B32
:102FA000002B03D18D235B421993E3E009AB9868B2
:102FB000069A05AB159905F09DF803001993199B26
:102FC000002B0DD109AB5868059B159A0021FEF71F
:102FD000A7FE09AB586805AA04230121FEF7A0FE4D
:102FE000159B180035F006FF09AB9B681800FFF72A
:102FF00093FCC046BEE00023049309AB586809ABBC
:103000001B6904AA0121FEF74FFE0300179309ABC9
:103010001A69179B9A4204D109AB5A69049B9A42D8
:1030200007D0AA23FF331A0069496A4B18002AF017
:10303000D9F8049B1900012035F058FB03001493C4
:10304000149B002B03D18D235B42199392E009ABB3
:10305000586809AB5B69149A0221FEF725FE03004C
:10306000179309AB5A69179B9A4206D0DA235A0084
:103070005749584B18002AF0B5F809AB9B68049AD9
:103080001499180005F06AF903001993149B1800AD
:1030900035F0B0FE09AB9B681800FFF73DFCC04659
:1030A00068E009AB9B68180004F036FF0300199331
:1030B00009AB9B681800FFF72FFC5BE0002303932C
:1030C00009AB5B681800FEF7EFFF09AB9B6803AA2A
:1030D0001900FFF775FB03001993199B002B46D1CC
:1030E00009AB586803AA04230021FEF719FEC04665
:1030F0003DE00023029309AB586809AB1B6901AAA4
:103100000121FEF7D1FD0300179309AB1A69179B44
:103110009A4207D0D823FF331A002D492D4B1800AF
:103120002AF060F8019C09AB5B681800FEF7BCFF51
:10313000010002AB1A002000FFF728FC03001993DE
:10314000199B002B15D1029B5A6809AB9B6819008B
:10315000100005F02BF903001993029B1800FFF7EC
:10316000C5FBC04605E086235B42199302E0C046DA
:1031700000E0C046C0461EE009AB9B68180004F0A2
:10318000CBFE09AB9B68002B14D009AB9B681800E1
:10319000FFF7C2FB09AB9B68180035F02BFE09E076
:1031A00009AB1B681C00FD235A0009490B4823008A
:1031B0002AF018F8C04609AB5B68199A110018008C
:1031C000FEF732FEC0461AB010BDC04601000080B6
:1031D000940A04101809041050090410F40804108B
:1031E00070B5A2B00DAB18002C231A00002136F0E8
:1031F000CDF9002321930DAB19008020FEF740FC90
:103200000DAB1B68022B06D0032B00D19FE1012BD5
:1032100000D19CE191E10DABDB68102B03D0912331
:103220005B42219394E10023209309AB1800102303
:103230001A00002136F0AAF90DAB58680DABDB6817
:1032400009AA0021FEF730FD030020930DABDA68D8
:10325000209B9A4205D0C34AC349C44B180029F0A9
:10326000C1FF09AB1B78252B6BD002DC242B04D0CB
:103270005DE1272B00DD5AE1C5E0002308930DAB8B
:10328000DB691900012035F031FA03001F931F9B01
:10329000002B03D18D235B4221934CE10DAB1B69C5
:1032A0001900012035F022FA03001E931E9B002B0B
:1032B00007D18D235B4221931F9B180035F09AFDA7
:1032C00039E10DAB58680DAB1B691E9A0121FEF761
:1032D000EBFC030020930DAB1A69209B9A4205D0AA
:1032E000A34AA149A14B180029F07CFF09AB5888DB
:1032F00009AB59680DAB1D690DABDB691E9C08AAB3
:10330000029201931F9B00932B00220006F026FAE5
:1033100003002193219B002B06D10DAB5868089B1D
:103320001F9A0021FEF7FCFC0DAB586808AA042385
:103330000121FEF7F5FC1F9B180035F05BFDC04630
:10334000F9E00DAB1B691900012035F0CFF903003E
:103350001D931D9B002B03D18D235B422193EAE03B
:103360000DAB58680DAB1B691D9A0121FEF79CFC43
:10337000030020930DAB1A69209B9A4205D07D4A29
:1033800079497A4B180029F02DFF0DAB5B691900C4
:10339000012035F0ABF903001C931C9B002B03D1DB
:1033A0008D235B422193C6E00DAB58680DAB5B6982
:1033B0001C9A0221FEF778FC030020930DAB5A699A
:1033C000209B9A4205D06C4A6749684B180029F047
:1033D00009FF09AB588809AB59680DAB5C690DABA7
:1033E0001B691C9A01931D9B0093230006F042FA6F
:1033F000030021931D9B180035F0FCFC1C9B18005A
:1034000035F0F8FC97E0002307930DAB1B6919001A
:10341000012035F06BF903001B931B9B002B03D19C
:103420008D235B42219386E00DAB58680DAB1B6981
:103430001B9A0121FEF738FC030020930DAB1A699B
:10344000209B9A4205D04D4A4749484B180029F025
:10345000C9FE1B9B1A9309AB9B681B9AD31819933F
:103460000DABDB691900012035F040F9030018931A
:10347000189B002B07D18D235B4221931B9B1800C7
:1034800035F0B8FC57E009AB1B78262B1AD109ABF5
:10349000588809AB5C6809AB9E6809ABDA680DAB6C
:1034A000DB691A9D07A904910393189B029301926B
:1034B000199B009333002A00210006F065FA0300EF
:1034C000219319E009AB588809AB5C6809AB9E6889
:1034D00009ABDA680DABDB691A9D07A90491039368
:1034E000189B02930192199B009333002A0021003C
:1034F00006F0F4FA03002193219B002B06D10DABBB
:103500005868079B189A0021FEF70AFC0DAB586813
:1035100007AA04230121FEF703FC189B180035F0CD
:1035200069FC1B9B180035F065FCC04603E0862350
:103530005B422193C046C0460AE00DAB1B681C00ED
:10354000AD239A0008490E48230029F04BFEC046DF
:103550000DAB5B68219A11001800FEF765FCC046B0
:1035600022B070BD19020000A80A04101809041046
:1035700032020000530200005F0200007D020000E2
:10358000F4080410F0B5A5B013AB18002C231A00F2
:10359000002135F0FBFF0023239313AA80239B0017
:1035A00011001800FEF76CFA13AB1B68022B06D053
:1035B000032B00D1E2E0012B00D1DFE0D7E013AB19
:1035C000DB68242B03D091235B422393D7E00023B5
:1035D000229309AB180024231A00002135F0D6FFEE
:1035E00013AB586813ABDB6809AA0021FEF75CFB3C
:1035F0000300229313ABDA68229B9A4205D0654AF6
:103600006549664B180029F0EDFD09AB1B78223B9C
:10361000012B00D9A5E00023129313AB1B691900FD
:10362000012035F063F803002193219B002B03D187
:103630008D235B42239398E013AB586813AB1B694F
:10364000219A0121FEF730FB0300229313AB1A6984
:10365000229B9A4205D0524A4F49504B180029F0FC
:10366000C1FD219B209309ABDB68219AD3181F93DE
:1036700013ABDB691900012035F038F803001E9305
:103680001E9B002B07D1219B180035F0B3FB8D2327
:103690005B42239369E009AB1B78222B23D109AB52
:1036A0005C8809AB5D6809AB1B891F0009ABDA6850
:1036B00009AB196913ABDB6909A81430060012A81D
:1036C000069005931E9B049303911F9B0293019206
:1036D000209B00933B0032002900200006F026FFCB
:1036E0000300239322E009AB5C8809AB5D6809AB5A
:1036F0001B891F0009ABDA6809AB196913ABDB69D9
:1037000009A81430060012A8069005931E9B049386
:1037100003911F9B02930192209B00933B00320078
:103720002900200006F0DCFF03002393239B002BDD
:103730000DD113AB5868129B1E9A0021FEF7F0FAC8
:1037400013AB586812AA04230121FEF7E9FA219B62
:10375000180035F04FFB1E9B180035F04BFBC046A0
:1037600003E086235B422393C046C04607E013ABC9
:103770001B680C4A08490C4829F034FDC04613ABBD
:103780005B68239A11001800FEF74EFBC04625B077
:10379000F0BDC046D3020000C40A0410180904108A
:1037A000E702000021030000F408041010B5A6B0E1
:1037B0000023259310AB18002C231A00002135F0AC
:1037C000E5FE10AA80235B0011001800FEF758F9EF
:1037D00010AB1B68022B19D0032B00D155E1012B34
:1037E00000D061E14C21012034F080FF03002493DC
:1037F000249B002B02D1B54B25935DE110AB5B6898
:10380000249A11001800FEF777FC55E10EAB180062
:1038100008231A00002135F0B9FE10ABDB68082B35
:1038200003D091235B42259346E110AB586810AB5F
:10383000DB680EAA0021FEF737FA0300239310ABD2
:10384000DA68239B9A4206D0D2239A00A049A14B62
:10385000180029F0C7FC0EAB1B781B3B062B00D9C8
:103860000CE19A009C4BD3181B689F4610AB9868DC
:103870000EAB59880EAB5B681A0006F00BFB030019
:10388000259300E110AB98680EAB59880EAB5B68CE
:103890001A0006F013FB03002593F4E000230D93B8
:1038A00010ABDB69229309AB180010231A0000212A
:1038B00035F06CFE10AB98680DAB229A09A906F0A2
:1038C00011FB03002593259B002B00D0DAE010AB01
:1038D00058680D9B09AA0021FEF722FA10AB586820
:1038E0000DAA04230121FEF71BFAC046CAE010AB63
:1038F0001B69219305AB180010231A00002135F035
:1039000045FE10AB5868219B05AA0121FEF7CCF9B2
:1039100003002393239A219B9A4205D06F4A6C4956
:103920006C4B180029F05EFC10AB9B68219A05A92E
:10393000180006F029FB03002593C046A3E010AB56
:103940001B69209310ABDB691F9300230493209B1A
:103950001900012034F0CAFE03001E931E9B002BA9
:1039600003D18D235B4225938DE010AB5868209BDB
:103970001E9A0121FEF798F903002393239A209BB6
:103980009A4205D0564A5249524B180029F02AFC57
:103990001F9B1900012034F0A9FE03001D931D9BFD
:1039A000002B07D11E9B180035F024FA8D235B42B3
:1039B000259368E010AB98681D9C209A1E9904AB73
:1039C00001931F9B0093230006F01FFB0300259328
:1039D000259B002B0DD110AB5868049B1D9A00212C
:1039E000FEF79EF910AB586804AA04230121FEF7E4
:1039F00097F91E9B180035F0FDF91D9B180035F056
:103A0000F9F9C0463FE010ABDB691C930023039338
:103A10001C9B1900012034F069FE03001B931B9BC3
:103A2000002B03D18D235B4225932CE010AB9868CB
:103A300003AB1C9A1B9906F031FB03002593259BD1
:103A4000002B0DD110AB5868039B1B9A0021FEF789
:103A500067F910AB586803AA04230121FEF760F947
:103A60001B9B180035F0C6F9C0460CE010AB9B68F4
:103A7000180006F097FB0300259304E086235B42C1
:103A8000259300E0C046C04616E010AB9B681800C6
:103A900006F088FB10AB9B68002B0CD010AB9B682A
:103AA000180035F0A7F906E010AB1B680D4A08496D
:103AB0000D4829F097FBC04610AB5B68259A1100B2
:103AC0001800FEF7B1F9C04626B010BD0100008015
:103AD000D80A0410180904106C0904106F030000C0
:103AE00086030000CB030000F408041010B5ACB04E
:103AF00013AB18002C231A00002135F047FD0023DA
:103B00002B9313AA8023DB0011001800FDF7B8FFE8
:103B100013AB1B68022B06D0032B00D15AE2012BFA
:103B200000D157E24CE213ABDB68102B03D091239A
:103B30005B422B934FE2002329930FAB1800102315
:103B40001A00002135F022FD13AB586813ABDB6877
:103B50000FAA0021FEF7A8F80300299313ABDA6837
:103B6000299B9A4205D0DF4ADF49E04B180029F033
:103B700039FB0FAB1B7B292B00D910E29A00DC4BE1
:103B8000D3181B689F4613ABDB6928930FAB1B88C8
:103B90000EAA1100180006F090FB03002B932B9B3C
:103BA000002B00D0FFE113AB5868289B0EAA002120
:103BB000FEF7B6F8C046F6E113AB1B69279313ABCB
:103BC0005868279B0CAA0121FEF76EF80300299381
:103BD000299A279B9A4205D0C64AC349C34B18006D
:103BE00029F000FB0FAB1B880CAA1100180006F08F
:103BF0000FFB03002B93C046E0E113ABDB69269378
:103C00000FAB1B880AAA1100180006F031FB030055
:103C10002B932B9B002B00D0C7E113AB5868269B3E
:103C20000AAA0021FEF77CF8C046BEE113AB1B696F
:103C30002593259B1900012034F058FD030024939F
:103C4000249B002B03D18D235B422B93B6E113AB56
:103C50005868259B249A0121FEF726F80300299332
:103C6000299A259B9A4205D0A34A9F499F4B180049
:103C700029F0B8FA0FAB18880FAB9968259B249AE6
:103C800003F0E9FD03002B93249B180035F0B2F8F4
:103C900094E10FAB1B88180003F028FE03002B9360
:103CA0008CE10FAB1B8808AA09A9180003F086FE57
:103CB00003002B932B9B002B00D078E113ABDB6927
:103CC000032B06D913AB586809AA04230021FEF779
:103CD00027F813AB1B6A032B00D868E113AB5868B5
:103CE00008AA04230121FEF71BF8C0465FE113ABCD
:103CF000DB692393239B1900012034F0F7FC0300B8
:103D00002293229B002B03D18D235B422B9355E101
:103D10000FAB188807AB239A229903F0D5FF030055
:103D20002B932B9B002B06D113AB5868079B229A31
:103D30000021FDF7F5FF13AB586807AA0423012102
:103D4000FDF7EEFF229B180035F054F8C04635E130
:103D500013ABDB692193219B1900012034F0C6FCD1
:103D600003002093209B002B03D18D235B422B93D8
:103D700024E10FAB188806AB219A209903F0CCFF01
:103D800003002B932B9B002B06D113AB5868069B8B
:103D9000209A0021FDF7C4FF13AB586806AA04233C
:103DA0000121FDF7BDFF209B180035F023F8C04628
:103DB00004E113AB1B691F9313AB5B691E930023D4
:103DC0002A9313AB58681F9B05AA0121FDF76CFFCE
:103DD00003002993299A1F9B9A4205D0474A4249DA
:103DE000424B180029F0FEF90FAB9B68444A9342FE
:103DF00023D11E9B002B20D01E9B1900012034F0E4
:103E000075FC03002A932A9B002B03D18D235B4270
:103E10002B93D3E013AB58681E9B2A9A0221FDF71F
:103E200043FF03002993299A1E9B9A4205D0354AE5
:103E30002D492E4B180029F0D5F90FAB18880FAB80
:103E40009968059A2A9C1E9B0093230008F0EEF9BE
:103E500003002B932A9B180034F0CCFFC046ADE042
:103E60000FAB180008F01BFC03002B932B9B002BBF
:103E700000D09EE013AB58680FAA02230021FDF783
:103E80004FFF96E0002304930023039313AB58687D
:103E900013AB1B6904AA0121FDF706FF0300299358
:103EA00013AB1A69299B9A4205D0174A0E490F4B4A
:103EB000180029F097F913AB586813AB5B6903AA94
:103EC0000221FDF7F1FE0300299313AB5A69299BE8
:103ED0009A421BD09423DA000349044B180029F0BE
:103EE00081F9C046ED030000F00A0410180904101F
:103EF0008809041006040000230400007504000073
:103F000000000170820400009C0400000FAB5B689D
:103F100004990FAA180008F084FC03002B932B9B34
:103F2000002B48D113AB58680FAA02230021FDF7DC
:103F3000F7FEC0463FE00023029313AB586813AB73
:103F40001B6902AA0121FDF7AFFE0300299313AB01
:103F50001A69299B9A4205D0244A2549254B180005
:103F600029F040F90FAB5B6802990FAA180008F01E
:103F700049FC03002B932B9B002B1ED113AB5868DD
:103F80000FAA02230021FDF7CBFEC04615E00FABC0
:103F90001B88180008F062FC03002B930EE08623B8
:103FA0005B422B930AE0C04608E0C04606E0C046EC
:103FB00004E0C04602E0C04600E0C046C0460AE059
:103FC00013AB1B681C009923DA0009490A48230037
:103FD00029F008F9C04613AB5B682B9A1100180052
:103FE000FDF722FFC0462CB010BDC046AF04000054
:103FF000F00A041018090410F408041000B591B078
:1040000001AB18002C231A00002135F0BFFA002361
:104010000F9301AA8023DB0111001800FDF730FD8A
:1040200001AB1B68022B06D0032B01D0012B3CD126
:1040300000230F9340E001ABDB680E930E9A8023C0
:10404000DB009A4203D987235B420F9334E00E9B37
:104050001900012034F04AFB03000D930D9B002B47
:1040600003D18D235B420F9326E001AB58680E9B72
:104070000D9A0021FDF718FE03000C930C9A0E9B7D
:104080009A4205D0114A1249124B180029F0AAF899
:104090000E9A0D9B1100180008F084F803000F938E
:1040A0000D9B180034F0A6FE06E001AB1B680A4A1F
:1040B00007490A4829F096F801AB5B680F9A11008E
:1040C0001800FDF7B1FEC04611B000BDEE040000BF
:1040D000100B041018090410FA040000F40804106E
:1040E00000B58FB06B4618002C231A00002135F064
:1040F0004DFA00230D936A4680231B01110018001E
:10410000FDF7BEFC6B461B68022B04D0032B31D09D
:10411000012B2FD027E06B46DB690C930C9B190019
:10412000012034F0E3FA03000B930B9B002B03D127
:104130008D235B420D931EE00C9A0B9B110018001F
:1041400008F00CF803000D930D9B002B06D16B4675
:1041500058680C9B0B9A0021FDF7E2FD0B9B1800A1
:1041600034F048FE07E06B461B68084A08490948D6
:1041700029F038F8C0466B465B680D9A11001800AC
:10418000FDF752FEC0460FB000BDC046210500003D
:10419000280B0410F408041070B59EB000231D9382
:1041A0000BAB18002C231A00002135F0EFF90BAAF5
:1041B00080239B0111001800FDF762FC0BAB1B680C
:1041C000022B1CD0032B00D166E1012B00D072E141
:1041D000FC235B001900012034F088FA03001C93D3
:1041E0001C9B002B03D18D235B421D936BE10BAB1A
:1041F0005B681C9A11001800FDF77EFF63E108ABB5
:1042000018000C231A00002135F0C0F90BABDB6855
:104210000C2B03D091235B421D9354E10BAB5868E8
:104220000BABDB6808AA0021FDF73EFD03001B93E2
:104230000BABDA681B9B9A4205D0A84AA849A94B48
:10424000180028F0CFFF08AB1B782A3B052B00D9BC
:104250001BE19A00A44BD3181B689F4600230793C9
:104260000BAB9B6807AA1100180006F09FFB030028
:104270001D931D9B002B00D00BE10BAB586807AAC8
:1042800004230021FDF74CFDC04602E100231A93F0
:104290000BABDB691993199B1900012034F026FA46
:1042A00003001A931A9B002B03D18D235B421D93AD
:1042B000F0E00BAB9B68199A1A99180006F0C6FF3C
:1042C00003001D931D9B002B06D10BAB5868199B57
:1042D0001A9A0021FDF724FD1A9B180034F08AFD7C
:1042E000D8E00BAB58680BAB1B6906AA0121FDF7A0
:1042F000DBFC03001B931B9B042B05D07B4A7849F6
:10430000784B180028F06EFF0BAB58680BAB5B695D
:1043100005AA0221FDF7C8FC03001B931B9B042B7D
:1043200005D0734A6E496F4B180028F05BFF08AB4D
:1043300058880699059A0BAB9B6807F01FF8030095
:104340001D93C046A6E00BAB9B68180006F0B2FABE
:1043500003001D939EE00BAB1B691900012034F094
:10436000C5F903001893189B002B03D18D235B42E2
:104370001D938FE00BAB58680BAB1B69189A01219A
:10438000FDF792FC03001B930BAB1A691B9B9A422F
:1043900005D0584A5249534B180028F023FF0BAB65
:1043A0005B691900012034F0A1F903001793179BF2
:1043B000002B07D18D235B421D93189B180034F00E
:1043C00019FD67E00BAB58680BAB5B69179A0221CC
:1043D000FDF76AFC03001B930BAB5A691B9B9A42C7
:1043E00005D0454A3E493F4B180028F0FBFE0BAB79
:1043F000986808AB5C8808AB5D680BAB1A690BABBF
:10440000596908AB9B68189E03930291179B01930F
:10441000009233002A00210007F04EFD03001D9397
:1044200038E00BAB1B691900012034F05FF9030081
:104430001693169B002B03D18D235B421D9329E01D
:104440000BAB58680BAB1B69169A0121FDF72CFCCE
:1044500003001B930BAB1A691B9B9A4205D0274A9A
:104460001F49204B180028F0BDFE0BAB986808AB25
:1044700059880BAB1C6908AB5B68169A0093230044
:1044800007F030FE03001D9304E086235B421D937A
:1044900000E0C046C04616E00BAB9B68180006F073
:1044A00009FA0BAB9B68002B0CD00BAB9B68180078
:1044B00034F0A0FC06E00BAB1B68114A0849114818
:1044C00028F090FEC0460BAB5B681D9A11001800E7
:1044D000FDF7AAFCC0461EB070BDC04649050000ED
:1044E0003C0B041018090410300A04107405000075
:1044F0007A050000910500009E050000B705000048
:10450000D4050000F408041000B585B00190002324
:10451000039380231B061800FDF7A4FA03000393FE
:10452000039B1022134001D0FEF75EFA039B20226A
:10453000134001D0FEF7F2FA039B4022134001D052
:10454000FEF76CFC039A80235B00134001D0FFF759
:104550002DF9039B8022134001D0FEF741FE039A00
:1045600080239B00134001D0FFF70CF8039A8023AF
:10457000DB00134001D0FFF7B9FA039A80231B0137
:10458000134001D0FFF7ACFD039A80235B01134079
:1045900001D0FEF775FA039A80239B01134001D0E6
:1045A000FFF7FAFD039A8023DB011340AFD0FFF73A
:1045B00025FDACE7BFF34F8F034B044ADA60BFF32E
:1045C0004F8FC046FDE7C04600ED00E00400FA054D
:1045D00082B00190019B802252011A6000231800D2
:1045E00002B0704700B583B00190019A80235B014F
:1045F0009A4203D100F0FAFD030000E0014B1800DD
:1046000003B000BDE803008010B5FFF7D3FF000042
:1046100000B585B00190019B002B05D11F49204BAF
:104620007122180028F0DEFD1E4B18002CF0B2FBA2
:104630000200019B1A62019B1B6A002B05D11749DE
:10464000194B7622180028F0CDFD0023039309E0D2
:10465000164A039B5B01D3180833019A1A60039B27
:1046600001330393039B022BF2D9019B0F4A1A617A
:104670000F4A104B002118002EF0ACF80200019BED
:104680005A60019B5B68002B05D104490A4B8022CC
:10469000180028F0A7FDC04605B000BD2C0C041082
:1046A000780B04101C0C0410940B0410E803000891
:1046B000C4030008A1470010D40B041000B585B056
:1046C0000190019BDB69042B02D080231B0610E0C4
:1046D00002AB1800FFF77CFF03000393039B002B42
:1046E00006D1019B586802AA04230021FDF718FB9C
:1046F000039B180005B000BD00B585B00190019B7B
:10470000DB68042B02D080231B0611E0019B586854
:1047100003AA04230021FDF7C7FA0300042B02D0EB
:1047200080231B0604E0039B1800FFF75BFF0300D8
:10473000180005B000BD00B583B00190FFF764FF1D
:10474000C046180003B000BD00B585B001900091CF
:1047500000230393019B1B68022B04D0032B10D072
:10476000012B0ED006E0019A009B10009847030031
:10477000039307E0019B1B6807490848512228F072
:1047800031FDC046019B5B68039A11001800FDF7DC
:104790004BFBC04605B000BD600C04103C0C04107F
:1047A00000B58FB0019000230D9302AB18002C23AD
:1047B0001A00002134F0EAFE80231B061800FDF7E2
:1047C00051F903000D930D9B102213400AD002AB48
:1047D00019001020FDF754F9124A02AB110018001D
:1047E000FFF7B2FF0D9B202213400AD002AB190045
:1047F0002020FDF745F90C4A02AB11001800FFF725
:10480000A3FF0D9B40221340D6D002AB19004020DD
:10481000FDF736F9054A02AB11001800FFF794FFC7
:10482000CAE7C046BD460010F946001037470010E1
:1048300010B58CB0059004910392029307AB00224F
:104840001A6007AB00225A60002306932F236B44A3
:1048500000221A70059B1B6818331C6807AA04996C
:1048600005980023019306AB00930823A04703009B
:104870000A930A9B002B06D1069B082B10D0344BC1
:10488000180028F0AFFC0A9B324A934204D12F2330
:104890006B4401221A7003E02F4B180028F0A2FC91
:1048A00007AB1A68039B1B689A420BD807AB1A68C0
:1048B000039B1B689A4209D107AB5A68039B5B684C
:1048C0009A4203D9254B180028F08CFC07AB1A68D4
:1048D000039B1B689A420BD307AB1A68039B1B68A8
:1048E0009A4217D107AB5A68039B5B689A4211D270
:1048F000039A07A90598029B984703000993099B0F
:10490000002B03D0164B180028F06CFC2F236B44AF
:1049100001221A702F236B441B78002B14D0059BA7
:104920001B6814331C68039A0499059800230093AC
:104930000823A04703005A1E9341DBB2002B03D08B
:10494000084B180028F04EFCC0460CB010BDC04605
:10495000B00C04100701FF80D40C0410FC0C0410F0
:104960002C0D04104C0D041082B00190019B204AC4
:10497000934223D01E4A934210DC1E4A934226D013
:104980001C4A934203DC1C4A934223D02BE01B4A6F
:10499000934219D01A4A934213D024E0194A934201
:1049A00008DC194A93421BDA184A94466344012BE7
:1049B00019D812E0002B16D1002316E085235B42A4
:1049C00013E08E235B4210E08C235B420DE09823C2
:1049D0005B420AE087235B4207E092235B4204E0EC
:1049E00095235B4201E084235B42180002B07047CC
:1049F0001201FF800201FF800101FF800701FF809B
:104A00000B01FF804601FF804501FF80E5FE007F2E
:104A1000F0B58DB00390029100920193039B002B9F
:104A200005D14949494BA122180028F09BF9029B66
:104A3000132B05D04449464BA222180028F092F9C6
:104A40002F236B4400221A70129B0A932F236B446E
:104A50001B782F226A44591C11701A00039B9B1863
:104A60000A9A3F210A403B498A5C1A700A9B0993C3
:104A700006230893099A089BDA4013000A930A9BBD
:104A8000002B00D0E2E72F236B441B782F226A44CF
:104A9000591C11701A00039B9B1823221A702F2394
:104AA0006B441B782F226A44591C11701A00039B17
:104AB0009B18009A3F210A401600019A00210A40E3
:104AC0001700244A921912781A70009A019B0692D4
:104AD000079306230593059B203B002B03DB079AD6
:104AE000DA4014000AE0059B2022D31A079A9A4064
:104AF00013000699059AD1400C001C43079A059BA8
:104B0000DA40150000940195009B019A134300D0F0
:104B1000C5E72F236B441B782F226A44591C117060
:104B20001A00039B9B1800221A702F236B441B78DA
:104B3000132B05DD0449084BB722180028F012F9A1
:104B4000C0460DB0F0BDC046700D0410BC0D041081
:104B5000D40D0410700C0410040E041030B58FB086
:104B60000590049102920393149B0122934302D077
:104B700086235B422BE007AB180013231A000021A9
:104B800034F004FD029B039C07A8049A00921A00CB
:104B900023001321FFF73CFF00230D93149B0122F8
:104BA000134001D001230D93059B1B6814331C682F
:104BB000129D139A07A905980D9B00932B00A047FF
:104BC00003000C930C9B1800FFF7CEFE03001800A7
:104BD0000FB030BD30B591B00590049102920393AF
:104BE0000AAB180013231A00002134F0CFFC029BFB
:104BF000039C0AA8049A00921A0023001321FFF7CD
:104C000007FF059B1B681C331B6808AA0AA90598A7
:104C1000984703000F930F9B002B36D108AB1A68FF
:104C2000149B9A4202D287235B4233E0159A149B6D
:104C3000D218159B9A4202D287235B422AE0149A2B
:104C4000159BD21808AB1B689A4202D98A235B4293
:104C500020E000230793059B1B6818331C68159DF3
:104C6000169A0AA90598149B019307AB00932B0091
:104C7000A04703000F930F9B002B06D1079A159BAB
:104C80009A4202D28A235B4204E00F9B1800FFF78E
:104C90006BFE0300180011B030BD10B58EB005904A
:104CA00004910292039308AB180013231A00002109
:104CB00034F06CFC029B039C08A8049A00921A0032
:104CC00023001321FFF7A4FE059B1B681C331B6800
:104CD00006AA08A90598984703000D930D9B002B81
:104CE00011D1109B00225A6006AB5B680122134071
:104CF00005D0109B5B6801221A43109B5A6006ABDB
:104D00001A68109B1A600D9B1800FFF72DFE030018
:104D100018000EB010BD10B58CB005900491029231
:104D2000039306AB180013231A00002134F02EFC65
:104D3000029B039C06A8049A00921A0023001321E8
:104D4000FFF766FE059B1B6820331B6806A9059AC2
:104D50001000984703000B930B9B1800FFF704FE0D
:104D6000030018000CB010BD00B585B00190019B88
:104D70001B6810331B68019A1000984703000393C7
:104D8000039B1800FFF7F0FD0300180005B000BDFD
:104D900000B583B00190019B180000F00DF9019B54
:104DA000180003B000BD000010B5144B1B78BFF312
:104DB0005B8FDBB21A00012313405A425341DBB22E
:104DC000002B17D00D4B180029F06EF803005A1E67
:104DD0009341DBB2002B0DD0094B1800FFF7D8FF31
:104DE000064B180029F0B2F8064A0749044B180090
:104DF00029F02EF8024B180010BDC046D064000800
:104E000080640008C00000080594021084B003907C
:104E1000029101920023180004B0704700B585B0DC
:104E2000FFF7C2FF030003930F4A039B1100180012
:104E300024F09CFC02000D4B1A6001AB0C4A03CA23
:104E400003C30A4B1B68002B03D10A4B180028F040
:104E5000C9F9064B1868084B01AA0849FFF7E8FC96
:104E6000C04605B000BDC046300E0410D464000832
:104E7000840E0410500E04100D4E0010740E041019
:104E800010B588B00790049205930C4B1B68002B5B
:104E900001D1FFF7C3FF094B1868049B059C0799D4
:104EA0000C9A02920B9A01920A9A00921A0023001D
:104EB000FFF754FE0300180008B010BDD4640008CA
:104EC00010B588B00790049205930C4B1B68002B1B
:104ED00001D1FFF7A3FF094B1868049B059C0799B4
:104EE0000C9A02920B9A01920A9A00921A002300DD
:104EF000FFF770FE0300180008B010BDD46400086E
:104F000010B586B00590029203930A4B1B68002BE4
:104F100001D1FFF783FF074B1868029B039C05999B
:104F2000089A00921A002300FFF7B7FE030018004A
:104F300006B010BDD464000810B584B00390009290
:104F40000193094B1B68002B01D1FFF767FF064B4C
:104F50001868009B019C03991A002300FFF7DBFEF1
:104F60000300180004B010BDD464000800B583B07D
:104F7000FFF71AFF030001930C4A019B1100180070
:104F800024F0F4FB02000A4B1A60094B1B68002B4B
:104F900003D1084B180028F025F9054B1B681800B1
:104FA000FFF7E2FE0300180003B000BD300E04104E
:104FB000D4640008500E041082B00190019B1800C8
:104FC00002B0704700B58FB0049005910392029330
:104FD000029B002B05D1039B002B02D087235B4251
:104FE00035E006AB04AA1A6006AB08225A6006AB8D
:104FF000029A9A6006AB039ADA6006AB10AA1A61AD
:1050000006AB04225A61134B01211800FBF7CCFEBA
:1050100003000C930C9B002B02DC92235B4216E0F6
:1050200006A90C980023009300230322FBF7A2FF9C
:1050300003000D930D9A80231B069A4202D19223FE
:105040005B420D930C9B1800FCF75EF80D9B18005B
:105050000FB000BD011A010000B58FB0049005919A
:1050600003920293109B002B05D1029B002B02D0D0
:1050700087235B4237E008AB04AA1A6008AB08221A
:105080005A6008AB03AA9A6008AB0422DA6006AB48
:10509000109A1A6006AB029A5A608D235B020121B6
:1050A0001800FBF781FE03000C930C9B002B02DC25
:1050B00092235B4217E006AA08A90C9801230093EB
:1050C00013000222FBF756FF03000D930D9A802375
:1050D0001B069A4202D192235B420D930C9B18004F
:1050E000FCF712F80D9B18000FB000BD00B58FB093
:1050F000049005910392039B002B02D187235B420E
:105100003AE00AAB00221A600AAB00225A6008ABF0
:1051100004AA1A6008AB08225A6006AB0AAA1A60F1
:1051200006AB08225A60164B01211800FBF73CFE23
:1051300003000C930C9B002B02DC92235B421BE0D0
:1051400006AA08A90C980123009313000122FBF77B
:1051500011FF03000D93039B0AAA03CA03C30D9A10
:1051600080231B069A4202D192235B420D930C9B33
:105170001800FBF7C9FF0D9B18000FB000BDC0461B
:10518000021A010000B589B00290039104AB02AA93
:105190001A6004AB08225A60134B01211800FBF778
:1051A00003FE03000693069B002B02DC92235B4266
:1051B00016E004A906980023009300230122FBF7C0
:1051C000D9FE03000793079A80231B069A4202D157
:1051D00092235B420793069B1800FBF795FF079B02
:1051E000180009B000BDC046031A010000B585B023
:1051F000134B01211800FBF7D7FD03000293029B1C
:10520000002B02DC92235B4216E0029800230093FD
:10521000002300220021FBF7ADFE03000393039A55
:1052200080231B069A4202D192235B420393029B86
:105230001800FBF769FF039B180005B000BDC046CE
:10524000041A010000B585B00190019B002B05D127
:105250001F49204B8422180027F0C4FF1E4B180062
:105260002BF098FD0200019B1A62019B1B6A002B28
:1052700005D11749194B8922180027F0B3FF0023E5
:10528000039309E0164A039B5B01D3180833019A84
:105290001A60039B01330393039B042BF2D9019BF8
:1052A0000F4A1A610F4A104B002118002DF092FA94
:1052B0000200019B5A60019B5B68002B05D10449E9
:1052C0000A4B9322180027F08DFFC04605B000BDA1
:1052D000440F04109C0E0410340F0410B80E041078
:1052E0006C0400084804000801560010F40E041075
:1052F00010B58EB005900023002408930994002374
:105300000D93059B1B690C9300230793059BDB689A
:10531000082B03D1059B5B69042B02D080231B065D
:1053200059E0059B586808AA08230021FCF7BCFC3B
:105330000300082B02D080231B064CE0059B586815
:1053400007AA04230221FCF7AFFC0300042B02D0C0
:1053500080231B063FE00C9B180033F041FD030047
:105360000D930D9B002B02D192235B4233E0059BF2
:105370005868059B1B690D9A0121FCF795FC0200FA
:10538000059B1B699A4206D00D9B180033F032FD35
:1053900092235B421FE0059B5B681800FCF784FECC
:1053A0000100089B099C079A02920D9A01920C9A9F
:1053B00000921A0023000800FFF762FD03000B9320
:1053C0000C9A0D9B0021180034F0E0F80D9B18009A
:1053D00033F010FD0B9B18000EB010BD30B58DB032
:1053E0000590002300240893099400230793059B4C
:1053F000DB68082B03D1059B1B69042B02D080239B
:105400001B0653E0059B586808AA08230021FCF7F7
:105410004BFC0300082B02D080231B0646E0059BB3
:10542000586807AA04230121FCF73EFC0300042B63
:1054300002D080231B0639E0059BDB69180033F09E
:10544000CFFC03000B930B9B002B02D192235B42FA
:105450002CE0059B5B681800FCF726FE0500089B06
:10546000099C0799059AD2690B98029001920091C4
:105470001A0023002800FFF723FD03000A930A9B6C
:10548000002B07D1059B5868059BDB690B9A00210F
:10549000FCF746FC059BDA690B9B0021180034F0F1
:1054A00075F80B9B180033F0A5FC0A9B18000DB093
:1054B00030BD10B58AB0039007AB180008231A005E
:1054C000002134F063F80023002404930594039B27
:1054D000DB68082B03D1039BDB69082B02D08023F8
:1054E0001B0629E0039B586804AA08230021FCF747
:1054F000DBFB0300082B02D080231B061CE0039B70
:105500005B681800FCF7D0FD0100049B059C07AA0E
:1055100000921A0023000800FFF7F2FC0300099331
:10552000099B002B07D1039B5868039BDB6907AAE3
:105530000021FCF7F5FB099B18000AB010BD10B55F
:1055400084B001900023002402930394019BDB6844
:10555000082B02D080231B061AE0019B586802AA80
:1055600008230021FCF7A0FB0300082B02D08023B6
:105570001B060DE0019B5B681800FCF795FD010020
:10558000029B039C1A0023000800FFF7D5FC0300D0
:10559000180004B010BD00B583B00190FFF7E6FC21
:1055A0000300180003B000BD00B585B00190009164
:1055B00000230393019B1B68022B04D0032B10D004
:1055C000012B0ED006E0019A009B100098470300C3
:1055D000039307E0019B1B6807490848B92227F09D
:1055E00001FEC046019B5B68039A11001800FCF79E
:1055F0001BFCC04605B000BDA80F0410500F0410DE
:1056000000B591B0019000230F9303AB18002C2339
:105610001A00002133F0BAFF80231B061800FCF7A4
:1056200021FA03000F9323F02BFC03000E930E9B33
:10563000002B05D00E9B2A492A48D12227F0D2FD03
:105640000F9B202213400AD003AB19002020FCF747
:1056500017FA254A03AB11001800FFF7A5FF0F9BAF
:10566000102213400AD003AB19001020FCF708FAEF
:105670001E4A03AB11001800FFF796FF0F9B402254
:1056800013400AD003AB19004020FCF7F9F9184A7F
:1056900003AB11001800FFF787FF0F9B8022134018
:1056A0000AD003AB19008020FCF7EAF9114A03ABDA
:1056B00011001800FFF778FF0F9A80235B0013405A
:1056C000AAD003AA80235B0011001800FCF7D8F9C8
:1056D000094A03AB11001800FFF766FF9CE7C046BC
:1056E000B80F0410740F0410F1520010DD530010B5
:1056F000B35400103F5500109755001082B0019030
:10570000034A019B1A60019B180002B07047C04613
:105710009010041000B583B00190019B1800FFF7B2
:10572000EDFF019B180028F081FC019B180003B0DD
:1057300000BD82B001900023180002B0704784B011
:105740000390009201930023180004B0704784B0C6
:105750000390009201930023180004B0704710B525
:1057600082B00190019B1B6828331B68019A1000CE
:10577000984703000C001800210002B010BD10B5BE
:1057800084B0039000920193039B1B682C331B6829
:10579000039A1000984703000C001800210004B081
:1057A00010BD82B0019001235B42180002B0704727
:1057B00030B585B0039000920193039B1B6824339E
:1057C0001B68039A1000984703000C000098019989
:1057D0001A00230037F00EFF1C00130019002200EE
:1057E0000B0013432DD1039B1B6824331B68039AC2
:1057F0001000984703000C00089809991A0023002C
:1058000037F0F8FE1C001300190022000B001343B0
:1058100017D10099019A089B099CC91862410C0094
:105820001500039B1B6838331B68039A10009847C8
:1058300002000B009D4204D801D1944201D80123FB
:1058400000E00023180005B030BD30B585B00390EE
:1058500000920193039B1B6828331B68039A100076
:10586000984703000C00009801991A00230037F0B4
:10587000C1FE1C001300190022000B0013432DD1A0
:10588000039B1B6828331B68039A1000984703008A
:105890000C00089809991A00230037F0ABFE1C0091
:1058A0001300190022000B00134317D10099019A2D
:1058B000089B099CC91862410C001500039B1B68DA
:1058C00038331B68039A1000984702000B009D4272
:1058D00004D801D1944201D8012300E0002318002C
:1058E00005B030BDF0B585B0039000920193039BE5
:1058F0001B6830331968009B019C03981A00230031
:10590000884703000C00009801991A00230037F023
:1059100071FE1C001300190022000B00134342D13A
:105920000099019A0A9B0B9CC91862410D00160050
:10593000039B1B6830331F680099019A0A9B0B9CDC
:105940005B18544101214942CA175B18544103991D
:105950001A0023000800B84703000C001A002300B7
:105960002800310037F046FE1C0013001900220009
:105970000B00134317D10099019A0A9B0B9CC9187D
:1059800062410C001500039B1B6838331B68039AA7
:105990001000984702000B009D4204D801D19442A8
:1059A00001D8012300E00023180005B0F0BD00007D
:1059B00082B00190034A019B1A60019B180002B05B
:1059C0007047C04690100410F0B587B00590049160
:1059D0000392059B1800FFF7EBFF174A059B1A601F
:1059E000059B0433180000F0F0FA049B1E0000230E
:1059F0001F00059B1E615F61039B1C0000231D00AF
:105A0000059B9C61DD61059B202200219954059B2B
:105A100000225A62049B013302D0039B002B07D162
:105A200006490748002300930023002227F088FC42
:105A3000059B180007B0F0BD48100410C40F0410F7
:105A40000101FF8000B583B001900A4A019B1A60F2
:105A5000019B180000F0E8F8019B0433180000F0E7
:105A6000BFFA019B1800FFF749FE019B180003B025
:105A700000BDC0464810041000B583B00190019BE2
:105A80001800FFF7DFFF019B180028F0CFFA019BF9
:105A9000180003B000BD0000F0B5C64600B58CB0DC
:105AA0000990099B20229B5C01225340DBB2002B12
:105AB00002D0099B00225A62099B2433012118005D
:105AC00027F026FB03000B930B9B012B01D0002337
:105AD000A2E0099B0433180000F08EFA03000A9339
