:020000041000EA
:40000000002000080B0100100D0000006D01001000000000000000000000000000000000000000000000000000000000690100100000000000000000690100106901001083
:4000400069010010690100106901001069010010690100106901001069010010690100106901001069010010690100106901001069010010690100106901001069010010E0
:4000800069010010690100106901001069010010690100106901001069010010690100106901001069010010690100106901001069010010690100106901001069010010A0
:4000C00010B5064C2378002B07D1054B002B02D0044800E000BF0123237010BD6C050008000000000C150010044B10B5002B03D00349044800E000BF10BDC04600000000C9
:40010000700500080C1500107047FFF7FDFF72B60F4C104DAC4209DA21686268A368043B02DBC858D050FAE70C34F3E70A490B4A0020521A02DD043A8850FCDC084809495F
:400140000860BFF34F8F00F0F1F800F099F9FEE710150010281500106C0500087C0700080000000808ED00E0FEE7FEE700B504207146084202D0EFF3098001E0EFF30880B8
:40018000043000F0DBFDFEE710B5002000F040FC10BD7047E02370B5544C9B00E2580F23D02113409A0089001219505807210840032860D0042861D0424250414C4A40426B
:4001C00010404C4A8018002B67D1B223B1220321DB00D200E558A358A6581B0F360F0B400E4204D0A258120F0A40012A01D1EA0701D4032B11D1B0233F4ADB00E558A158EC
:40020000E658C904C90C00F051FFAD03AD0B6843F101C90F013100F049FFE0239B00E3589B069B0FD840354B1860354B1C691969240A090E013100F039FF324BE1B2186075
:40024000013100F033FF304B040018602F4B30491860304BC01800F029FFFA212E4B890018702E4BE01800F021FF2D4B18602D4BC003186070BD2C4A1068A4E7C021890084
:4002800052581F210A40112A01D0132A02D18020000298E7FA20C00195E7012BBDD1C823C0220321DB00D200E558A358A6581B0F360F0B400E4204D0A258120F0A40012A7A
:4002C00001D1EA0701D4032BA7D1C022D200A358A158A5587F221F261340090A3140584300F0E4FE290C314095E7C0460000264000DC0BFF00366E0184050000C80000087F
:4003000000002140CC000008C0000008D400000840420F003F420F00DC000008E7030000D8000008D0000008C400000810B5244800F0C2F8B022E0213020224CD200A35838
:4003400089005B005B08A35063588343635080235B04A3501C4B1D4AE250A02204339201E250FF221A4BE25000F08EFEC02201215200A3588B43A350FFF70BFFFFF70AFF17
:40038000B0235B055A78002A02D05B78212B03D10022104BDA605A600F4A8021042000F09FFB0E4800F09EF90D4B1B6851331B78002B02D00B4800F001FA00F035F910BD3B
:4003C0005C1200100000264084050000010002008C050000E000234088050008980500087807000828120010024BD86F032318407047C0460400214010B500F056F8074927
:40040000074ACB6F1A40074B1343CB67102306490A681A42FCD000F04CF810BD04002140FCFF00000100FA058800214070B50F4C060000F03AF8E36F0500DB439B0701D106
:40044000FFF7DAFFB0230A4A9B00D650E36F094A09491A40094B1343E36710230A681A42FCD0280000F025F870BDC0460400214000002140FCFF0000880021400300FA059F
:4004800010B562B60348FFF7D1FF002000F066FDFBE7C046002000100230800803D001300238FCD1C046C0467047EFF3108072B6704780F310887047014B18607047C046A7
:4004C000780700081D4B98420FD010D840282FD005D8002830D0102828D019481EE0802828D080235B009842F7D1144816E0154B984214D008D8A0231B0698421CD0124BDA
:400500009842EAD1A0200BE0104B98420AD0104B984209D00F4B9842DFD10F487047A420C003FBE70D48F9E70D48F7E70D48F5E70D48F3E70D48F1E70020EFE706005200C0
:40054000FF005200010000F0090000A0040000F0050000F0030000F001005200020052000300520001005000020050000500520070B50A4D04002B6831331B78834204D813
:40058000C4210748FF3100F0C9FB2B681A00B03210884443186A201870BDC046780700081413001010B50020FFF7E2FF0A4B1C682300B4331B68C0180368002B0ADB074B03
:4005C0001868FFF77FFF012263689A609A68002AFCD110BD0248FCE77807000818070008020050000D4B10B51860002804D0FE235B42038000234380094B1B681A00503201
:400600001278002A08D051331B78002B04D002220449002000F06EF910BDC04628070008780700084D01000810B50248FFF7DAFF10BDC0462C0700080B4B70B51B6805005A
:40064000B4331B680C00C3181B68002B09DA0B0C03D00649064800F061FB0020A4B26C6070BD0448FCE7C04678070008D50200001413001001008A00036870B505000C0060
:40068000002B0ADAC2600B0C03D00549054800F045FB0020A4B2AC6070BD0348FCE7C046BB0200001413001001008A0070B505000C1E03D19921084800F030FB074B1B68D0
:4006C000B4331B68EB181B68002B03DA0020EB68236070BD0248FCE77A1300107807000801008A00024B1A68002A00D11860704730070008F7B52C4D1F002B68040000915F
:400700000192002B03D1B521284800F007FB2C23FF225C432B683D001C193B0A3F0CA760234F134063603B681540256031331B789D4204D3C4211F48FF3100F0EFFA3B689A
:400740001A00B032128855431A6A3233AD1825611B7865689D4204D3E0211648FF3100F0DDFA3B6880351B6A6D01A668ED186561330C09D0FF210F4F4900380000F0CEFAB8
:400780000D49380000F0CAFA33041A0C1343AB60019BE361009B23620023A361089B002B01D01B782373F7BD30070008DF1300107807000814130010FF010000F0B50400EE
:4007C00085B0002803D15221214800F0A7FA6368032B03D954211E4800F0A0FAE36A002B03D158211A4800F099FA236B002B03D15921174800F092FAA36802AD2B70154BE0
:4008000022681B68E16ADB8EE0689B186B706368A26A039300952369266A676AFFF76AFF00213B000A0000913000FFF763FF216B280000F01FFA0023EB56002B06DB1F22E6
:4008400013401E3A9A401300034A136005B0F0BDDF1300107807000800E100E0F7B504000F00151E019303D1FD211C4800F056FA1B4E3368002B03D1FE21184800F04EFA9E
:400880002C235C4332685F4314192669D719002E1FD0BB69002B1ED13368002B1BDA01226368140011009C407B6899402B6809049BB20B432B60019BF5607B62BA61230CC3
:4008C00003D00849084800F029FA0020A4B2B460FEBD0648FCE70648FAE7C046DF13001030070008BB0200001413001004028A0007028A00F8B5114F04003B680E00150097
:40090000002B04D1AF210E48490000F007FA2C2060433C682418236A002B04D1B1210848490000F0FBF9E369AB4204D90020236AAD00EE50F8BD0348FCE7C04630070008D6
:40094000DF1300100A028A00002373B504000193984204D1D2212C48FF3100F0DFF92369002B04D1E9212848490000F0D7F96369002B04D1D4212448FF3100F0CFF9236A3D
:40098000002B04D1EA212048490000F0C7F96269D5682B0C22D01B04136013681B4B20691B68B4331B68C3181B68002B16DA01A9FFF77CFE0026B0420CD10198E2690368DA
:4009C0001E0CDBB29A4205D9226A9B009B58002B00D0984731002069FFF72EFEADB2002D09D063691D6000251B68636AAB4205D098476562A56163691B6873BDA36A002B6E
:400A0000F8D09847F6E7C046DF1300107807000870B5084C05002368002B04D1B2210648FF3100F07BF92C20454320684019FFF78BFF70BD30070008DF13001070B50A4DC6
:400A400004002B6831331B78834204D8C4210748FF3100F063F92B681A00B03210884443186A201870BDC0467807000814130010F8B5174B0D001B6831331B78834225D9E5
:400A8000002923D01F240B681C401FD1FFF7D6FF07002B680F4EDA0821003060686800F091FB21003800FFF7C7FD21002A003068FFF7E2FD041E07D101003068FFF7BCFD6A
:400AC00003002000002B00D00348F8BD0348FCE7780700083C07000801018A0003018A0010B50C00002A07D100290DD1FFF7A6FF064B1860200010BD002905D004490C60DC
:400B00004A60FFF7B5FFF6E70248F4E73C0700083407000803018A00F7B5184F04003B680191DE683368834226D90025A94202D1FFF7BBFC050038680368002B1ADA1F2252
:400B400001232240934064097268A4001419226813420DD09A43226000240021FFF76CFD019B002B02D12800FFF7A3FC2000FEBD034CF2E7034CF3E7034CF7E73C0700084A
:400B8000020188000301880004018A000A4B1B68DB681A6882420DD959681F23420918401E3B8340920050581840431E9841034BC01870470248FCE73C07000800018800DC
:400BC00004018A0070B51A4E050033680C001A0028321278012A15D182080721100088430FD103202840C00084401B68920020339B182200FF24844019684A4014404C4093
:400C00001C6070BD5B8FDBB28B4203D17621094800F084F80720802205408020336892011B680006A4180543A400E550E9E7C04678070008451400100A4B70B59B680A4EC2
:400C400010300D008400B34209D1002904D138210648FF3100F062F83059355170BD044B1859FBE700ED00E0000000084514001000000010F8B506000D00002841D04368E5
:400C8000032B03D93221204800F048F800203056002828DB7178FFF795FF0024FF2200200327944630567168C3B21F40FF006646BA4089013140D243B940002815DB134E38
:400CC00083089B009B19C026B6009F593A40114399510F4B9A680F4B9A4202D12900FFF7ABFF2000F8BD0C4CD8E70F263340083B074E9B089B009B19DE6932401143D9613B
:400D0000E7E7054CEDE7C0464514001000E100E000ED00E0000000080100560070B50D00044C01001822200000F054FAA56101BEFEE7C04630050008FEE7000002680A4BB8
:400D400010B5DA6142681A6282685A62C2689A620269DA6242691A6382695A63C2699A63FFF7EAFF10BDC04630050008B0235B055A782120002A01D05878C0B27047B023E6
:400D80005B059A89002A02D0988980B2704780204000FBE710B5074C236831331B78002B04D1C4210448FF31FFF7B8FF2368186A10BDC046780700081413001030B50400B9
:400DC00085B00D00042803D927492848FFF7A6FF6B1E012B07D9FB222B1F134203D024492248FFF79BFF234BA400E458042D01D0012D1AD100200FE0A3682B420BD1E3688C
:400E000029001A685B6802920193039302A823689847194B1C606469002C04D0174B9842EAD1012DE8D105B030BD022D06D1124B1B68181EF7D01C6903E01C006369002BE7
:400E4000FBD10020002CEED0A3682B4209D1E36829001A685B6802920193039302A8236898472469EEE7C046DC090000A9140010DD0900004407000840070008FF004200DC
:400E800010B5041E03D111491148FFF747FFF222104BD2011B68DB689A582260F022D2019A5862600C4A9A58A2600C4A9A58E2600B4A9A5822610B4A9A5862610A4A9A5885
:400EC000A2610A4A9B58E36110BDC046CB0A0000A91400107807000804780000087800000C78000010780000147800001878000010B5041E03D110491048FFF70FFFF022C2
:400F00000F4B61681B68D201DB689950A1680D4A9950E1680C4A995021690C4A995061690B4A9950A1690B4A9950E1690A4A99502168E832995010BDF30A0000A914001078
:400F40007807000804780000087800000C780000107800001478000018780000F7B50700012803D940494148FFF7D8FE404D6B68002B4AD1FFF799FA6B680190002B56D14B
:400F80003C4E33681A0043321278002A07D09B68E0331B68DB0602D53748FFF771FFFFF7EEFE80235B00984246D1380000F034F9002433681A0043321278002A17D0002885
:400FC00015D09B68E0331B68DB0610D5FFF7CEFE294B212808D032681300B033198807234B43126A9B18DB681800FFF781FF0198FFF75FFA002C0ED16B68002B03D0082180
:401000000120FFF7DBFE2000FEBD01210800FFF7D5FE041EAED06B68002B03D002210120FFF7CCFE154B9C42EDD0154CEBE704210120FFF7C3FEA3E7FFF7ACFE3368B433A6
:401040001B68C0180368002B0BDB04230D4A11690B431361012F02D030BF0020A8E720BFFBE70020054CA4E7A5020000A91400104407000878070008580700080500420086
:40108000FF00420000ED00E0C0228020064952008B58C0059B009B0803438B50802388581B0603438B50704700002640002243088B4274D303098B425FD3030A8B4244D399
:4010C000030B8B4228D3030C8B420DD3FF22090212BA030C8B4202D31212090265D0030B8B4219D300E0090AC30B8B4201D3CB03C01A5241830B8B4201D38B03C01A5241C3
:40110000430B8B4201D34B03C01A5241030B8B4201D30B03C01A5241C30A8B4201D3CB02C01A5241830A8B4201D38B02C01A5241430A8B4201D34B02C01A5241030A8B4289
:4011400001D30B02C01A5241CDD2C3098B4201D3CB01C01A524183098B4201D38B01C01A524143098B4201D34B01C01A524103098B4201D30B01C01A5241C3088B4201D37E
:40118000CB00C01A524183088B4201D38B00C01A524143088B4201D34B00C01A5241411A00D20146524110467047FFE701B5002000F006F802BDC0460029F7D076E77047A8
:4011C0007047C04603001218934200D1704719700133F9E730B50500002A00D130BD0C78013A6B1C2C700131002C05D19A189A42F4D01C700133FAE71D00EDE7F8B5C0468C
:40120000F8BC08BC9E467047F8B5C046F8BC08BC9E4670470000000001B40248844601BC604700BFA9020008030000000100000001000000000000000503600004000000C5
:401240000100000000000000010000000604600008000000F8060008890100100000214000002540000001400000344000002440000031400000324000001F4100002340D5
:4012800000001140010101010101010101101010800019005500F0000501053B04101C01010000000FC000000004000001010101011D3A5778960008200010120800000068
:4012C000001F00000010000F002000023F06080E00080009000A000B24282C3034000000100000009000000088000000080000008000000004F0000000F00000400200005B
:401300002005A000D00100018001A0012000000010000000433A2F55736572732F766D65642F4D6F647573546F6F6C626F785F312E312F6C69627261726965732F70736FB1
:40134000633673772D312E312F636F6D706F6E656E74732F70736F633670646C2F647269766572732F696E636C7564652F63795F6970635F6472762E6800433A2F5573655D
:4013800072732F766D65642F4D6F647573546F6F6C626F785F312E312F6C69627261726965732F70736F633673772D312E312F636F6D706F6E656E74732F70736F633670B4
:4013C000646C2F647269766572732F736F757263652F63795F6970635F6472762E6300433A2F55736572732F766D65642F4D6F647573546F6F6C626F785F312E312F6C69A3
:40140000627261726965732F70736F633673772D312E312F636F6D706F6E656E74732F70736F633670646C2F647269766572732F736F757263652F63795F6970635F706968
:4014400070652E6300433A2F55736572732F766D65642F4D6F647573546F6F6C626F785F312E312F6C69627261726965732F70736F633673772D312E312F636F6D706F6EF8
:40148000656E74732F70736F633670646C2F647269766572732F736F757263652F63795F737973696E742E6300433A2F55736572732F766D65642F4D6F647573546F6F6C17
:4014C000626F785F312E312F6C69627261726965732F70736F633673772D312E312F636F6D706F6E656E74732F70736F633670646C2F647269766572732F736F757263654A
:401500002F63795F737973706D2E6300000000000000001000000008C000000030150010C0000008700400006C0500081002000000093D000048E80100127A0000093D0037
:401540000000D00700093D00A00F000004000000E9000010C100001080B230B5C00020D0104B07221C682300B0331B885A43236AD31819680029FCDA3E210B4B062519606B
:401580000A4B0B491960A3210A4BC9005D500A4958505858206A1218002050605A58002AFCDA30BD7807000804012640080126401E1F0000000026401C05000010B5437807
:4015C000FF2B11D100F0CCF90400042000F0A8F9C3685A68012311681943116011681942FCD1200000F0C4F910BDF7B500900020019100F095F93F4D06002B681A005033B1
:40160000B43214681B780419002B5AD000F090F9070003281BD000F0A3F9374A374B0500D358002B3EDA364A0121300000F0A8F9002837D10198FFF78FFF009B002B3ED027
:401640002368002BFCDB00F07BF904002BE0062000F066F92B68B4331B68C0180368002B02DA284C2000FEBD002000F091F9264B9842F6D00023254A19001268012000F07E
:4016800047F90025A842ECD1002000F081F91E4A1F4B904203D09D42E3D00135F4E79D42B9D1DEE7174C032F05D10121002000F04FF90028F9D1280000F05AF9D2E7154CF0
:4016C000F1E700F04DF90E4A05000121300000F057F9002809D1009B002B08D02368002BFCDB00F02DF90400E5E7064CE3E7094CE1E7C04678070008000026401C0500008D
:4017000018070008050052000101880028070008F049020001005000F7B56E4D04002A68536800931300B033198807234B43126A9B181A68002AFCDA00F0E2F82A68130024
:40174000B033198807234B43212800D096E0116A5B180221D8680143D960D968C9072FD508208446944460461600D968C06F01911168883608183568076849190D683902BE
:40178000FF273F040F40694689882D0A2D0639432943D960902103684F4D09012B400B430360136830681B18186805402943196013686246D26F9A18126832689B181B68F8
:4017C000444D2A681300B033198807234B43126A9B1800225A600423404A11690B431361012C50D030BF2A681300B033198807234B43126A9B181A68002AFCDA00F080F849
:40180000212842D1296807220B000124B0331B8800205A430B6AD318DD6825421CD0080008300D68C06F2C4E28180568DB6835401B0C1B061B0C2B4303600B0088331868DE
:401840000B6818180B6A0568D318DB682E401B0E1B023343036020000B6A0221D218D3688B43D3601B4B1A681300B033198807234B43126A9B1800225A60FEBD126A9B181E
:40188000174ADA609CE720BFADE70020009BFC331B698342E6D1A320124B1349134A144FC0000E681D5814680F6006271F503E20106010483E371F501F58002FFCDA009821
:4018C0000D4FFC3007610E60A321C9005D5001201460C7E778070008FF00FFFF00ED00E0580700080000264008012640040126401E1F00001C050000AAAAAAAA000000000F
:4019000001B40248844601BC604700BF6D0D001001B40248844601BC604700BF5D08001001B40248844601BC604700BF7105001001B40248844601BC604700BFE903001076
:4019400001B40248844601BC604700BFA505001001B40248844601BC604700BF190B001001B40248844601BC604700BFAB04001001B40248844601BC604700BFB304001043
:4019800001B40248844601BC604700BF7906001001B40248844601BC604700BF8D0B0010000000000000000000000000000000000000000000000000000000000000000018
:4019C00000000000000000000000000000000000000000000000000000000000000000000000000000000000000000000000000000000000000000000000000000000000E7
:00000001FF