:020000040000FA
:10000000000800200D240000191E0000E51E00005D
:1000100000000000000000000000000000000000E0
:10002000000000000000000000000000C5250000E6
:100030000000000000000000711F0000191E0000F9
:10004000191E0000191E0000191E0000191E0000D4
:10005000191E0000191E0000191E0000191E0000C4
:10006000191E0000191E0000191E0000191E0000B4
:10007000191E0000191E0000191E0000191E0000A4
:10008000191E0000191E0000191E0000191E000094
:10009000191E0000191E0000191E0000191E000084
:1000A000191E0000191E0000191E0000191E000074
:1000B000191E0000191E0000191E0000191E000064
:1000C000191E0000191E0000191E0000191E000054
:1000D000191E0000191E0000191E0000191E000044
:1000E000191E0000191E0000191E0000191E000034
:1000F000191E0000191E0000191E0000191E000024
:10010000191E0000191E0000191E0000191E000013
:10011000191E0000191E0000191E0000191E000003
:10012000191E0000191E0000191E0000191E0000F3
:10013000191E0000191E0000191E0000191E0000E3
:10014000191E0000191E0000191E0000191E0000D3
:10015000191E0000191E0000191E0000191E0000C3
:10016000191E0000191E0000191E0000191E0000B3
:10017000191E0000191E0000191E0000191E0000A3
:10018000191E0000191E0000191E0000191E000093
:10019000191E0000191E0000191E0000191E000083
:1001A000191E0000191E0000191E0000191E000073
:1001B000191E0000191E0000191E0000191E000063
:1001C000191E0000191E0000191E000081240000E5
:1001D000191E0000191E000000F002F800F054F88B
:1001E0000CA030C8083824182D18671EA246AB464C
:1001F00054465D46AC4201D100F046F87E460F3EC3
:10020000B6460FCC0126334200D0FB1A3343A24638
:10021000AB46184708FA010028FA01000023002421
:1002200000250026103A01D378C1FBD8520700D32D
:1002300030C100D50B60704710B5692902D100F0BC
:10024000DDF910BD642902D100F0D8F910BD75297F
:1002500002D100F0D3F910BD782902D100F030FAB4
:1002600010BD732902D100F006FF10BD002010BDA3
:100270001FB50348034900F046FE01F0FFF81FBD1B
:1002800000C80020000001200548854603B405F0A1
:10029000BCF903BCFFF7ECFF01F027FA09F004FDFD
:1002A0000010002070B505460C46164602E00FCC43
:1002B0000FC5103E102EFAD2082E02D303CC03C570
:1002C000083E042E07D301CC01C5361F03E0217878
:1002D0002970641C6D1C761EF9D270BD00487047F1
:1002E000A89E002070B51BF085FF01230446002264
:1002F0001B07C01A914101D3002070BD204600F0B9
:1003000007F8050002D0214600F098FD284670BD90
:1003100070B5064600F0DAFD056830460B30C408BB
:10032000E400B44201D8002070BD68682A46002865
:1003300018D00168A14211D30B46214608318B42E7
:1003400008D3436801194B6003681B1B0B605160A5
:10035000046001E041685160001D70BD02464068C4
:100360000028E6D12146284600F0B8FD0028DCD15F
:1003700070BD70B50446051F00F0A8FD0068002C94
:100380001AD0446801E020466468002C01D0AC42D9
:10039000F9D301680A18AA4204D12A6805468918C7
:1003A000016000E0456028684119A14205D16168FB
:1003B000696021684018286070BD6C6070BD10B520
:1003C000202A04DB0146203A9140002010BD9140D4
:1003D00020239C1A0346E3401943904010BD10B5FA
:1003E000202A04DB0846203AD040002110BD0B46ED
:1003F0002024D340D040A21A91400843194610BD92
:100400004343514330B55C18010C130C0D4692B2B6
:100410005D4380B251432C19054655430A0C09042B
:100420004D1962415843010C00044019514130BD3F
:10043000FEB5044610460D46184373D0A6468C46BA
:100440000020A41A01469D4167D366460027012477
:100450003D46B61A9D4102D313463A4621246546CD
:1004600076462F04360C3E432D0CB61A9D4104D31C
:10047000150C1B042B4312041034654676462F06D8
:10048000360A3E432D0AB61A9D4104D3150E1B02AF
:100490002B4312020834654676462F0736093E4341
:1004A0002D09B61A9D4104D3150F1B012B431201D0
:1004B000241D65467646AF07B6083E43AD08B61A1A
:1004C0009D4104D3950F9B002B439200A41C6546CD
:1004D0007646EF0776083E436D08B61A9D411AD35B
:1004E00092185B41641C16E0001876466546494147
:1004F000B71A9D410191009009D36046B11A984105
:100500008E468446009801990025401C6941DD070C
:1005100052082A435B08641EE6D57246634603B060
:10052000F0BDFFE72046284307D00020C043014626
:10053000C046C04622462B46F1E700200146F7E7B9
:100540000FB4054910B503AA029800F099FD10BC3C
:1005500008BC04B0184700005C9F002070B504463A
:1005600085690068C10601D5302600E02026C00755
:1005700007D070BD62683046A1689047206A401C71
:1005800020626D1EF6D570BD70B504468569007891
:10059000C00707D170BD6268A16820209047206A1B
:1005A000401C20626D1EF6D570BD70B50C46054628
:1005B000012A05D02878800600D5EA69002302E0E8
:1005C000012305E05B1C934202D2E05C0028F9D1D4
:1005D000A869E618C01AA861286AC01828622846C7
:1005E000FFF7BCFF04E06A682078A968641C9047A4
:1005F000B442F8D32846FFF7C7FF70BDF7B5002512
:1006000075291068009914A611D0C046C04600286C
:1006100002DA404211A608E0009909688A0701D56C
:100620000FA602E0490704D50EA6012501E0C04649
:10063000C046009F0024243704E000F0F1FE303172
:100640003955641C0028F8D12B46324621460098C3
:1006500000F08DFCFEBD0000000000002D00000039
:100660002B00000020000000F8B50F4601880905A6
:1006700002D5224C7C4402E0204C7C440E340546DA
:100680000021243508E016071209360FA65D6E54C6
:100690001E0732431B09491C16461E43F3D122464E
:1006A00004780023240705D5702F06D0002901D037
:1006B0000223113200F05BFCF8BD01231032F9E790
:1006C00070B504460D4621461068C046C04600235A
:1006D000024629462046FFF7C7FF70BDD21DD3084A
:1006E000DB000CCBC0E730B403682024126823433E
:1006F00003600823C36130BC0023B5E7DABB010007
:10070000F3B50446002081B020622046E1688847A6
:10071000002872D0252802D06268A168ABE0594F4A
:1007200000267F442046E16888472028054608DBEC
:10073000312D06D2781920380078002801D00643E0
:10074000F0E7B00701D5042086430020E0610746AA
:10075000A0612A2D0AD028461BF065FD002827D06D
:10076000B8000019303D0090856119E00298BA0088
:10077000121902C8916102902046E1688847012F52
:10078000054617D1E06900281FDA202086431CE0C7
:1007900000980A21806948430099401930388861DF
:1007A0002046E168884705461BF03DFD0028EFD153
:1007B000012F0AD02E2D08D12046E1688847054632
:1007C000202006437F1C022FC3DBA069002803DA28
:1007D0004042A06101200643F00701D0102086436B
:1007E0006C2D0BD0682D09D04C2D3CD06A2D38D003
:1007F000742D38D07A2D36D016E040E0E1682F46CF
:1008000020468847B842054609D16C2F29D00120DF
:100810008002E168064320468847054604E06C2FC5
:100820001DD0FF2001300643002D28D02846413836
:10083000192803D80120C00206432035204626602F
:100840002946029A1646FFF7F7FC002810D0012827
:100850000BD0F61DF008C0000830029055E740208C
:10086000E1E78020D5E70020D3E7361D02964CE76C
:1008700062682846A1689047206A401C44E7206AC5
:10088000FEBD000054BB0100F8B5044616460D46F7
:100890004769007B800730D0384604F03FFF0028CE
:1008A0002BD132461026002A25D0012A02D0022A56
:1008B00023D104E0204600F0F3FC45191BE0384644
:1008C00004F019FFE16831430028E16004DA2046B2
:1008D00000F02EFD0120F8BDC9030BD56268E16A66
:1008E000914200D81146A26989182269891A814269
:1008F00000DD08462D18002D01DA0220F8BDE16A5E
:100900006068E268814206D29103E06203D501216A
:1009100049048A433243A669AE4211DCE16A81424E
:1009200001D90B4600E003469F192369FF1AAF4225
:1009300006DD814201D90F4600E007469F4206D1FD
:10094000202002430020A060A56220600DE0AD1BC6
:10095000E669AE1B8142A66000D90846C01A281A73
:100960002060581960602020824303480240002024
:10097000E26040342072F8BDBFCFD7FFF7B516460E
:100980000C460098002843D0104600F06FF82078FD
:10099000611C61280AD0722802D0772839D102E080
:1009A0000125002404E00225042401E02D4D082443
:1009B0000222032301270878491C2B2806D062282D
:1009C00007D02039C87F742807D008E01D4314439E
:1009D000F1E7042005433C43EDE710200443009871
:1009E000214604F09DFE411C13D00021316171604D
:1009F0000121F5604902F1617061200704D530469C
:100A000002220021FFF740FF306D38433065304649
:100A1000FEBD0020FEBDF8B50D460646124C206D09
:100A2000C10704D0410804D044086400F7E7224617
:100A300010E05420FFF76CFC070010D07908206DFF
:100A4000490001221143084354212065384600F033
:100A5000F7F93A4629463046FFF790FFF8BD0020E7
:100A6000F8BD000002800000089F0020FEB504468B
:100A7000466900690F4F0190E56800200090A807C3
:100A800007D0204600F084FC304604F031FE0028F8
:100A900001DA3846FEBD280502D50198FFF769FC4A
:100AA0004C21204600F0CCF9206D40084000206524
:100AB0000098FEBDFFFFFFFF10B50478002C01D0A9
:100AC0000A4603E0002010BDA342FCD01378521C5C
:100AD000002BF9D1401CF0E730B503461D78002DFE
:100AE00008D00A461478521C002C03D0AC42F9D12D
:100AF0005B1CF3E7181A30BD30B505460B462A4695
:100B00001C781078521C5B1C002801D0A042F7D042
:100B1000002C03D0002802D06D1CEFE7284630BD22
:100B2000034610B50B439B070FD1042A0DD308C809
:100B300010C9121FA342F8D018BA21BA884201D9AD
:100B4000012010BD0020C04310BD002A03D0D307F0
:100B500003D0521C07E0002010BD03780C78401C25
:100B6000491C1B1B07D103780C78401C491C1B1B1C
:100B700001D1921EF1D1184610BD0000034670B598
:100B800002460B439B070FD10E4CE60100E008C262
:100B900008C91D1B9D433542F9D0D9B21170521CB2
:100BA00000290DD01B0AF8E70B78491C1370521C62
:100BB000002B05D00B78491C1370521C002BF3D16D
:100BC00070BD00000101010130B5441C03E0017853
:100BD000401C00290DD08107F9D10B4BDD0104C861
:100BE000D11A91432940FAD0001B0A0603D0C01E37
:100BF00030BD001B30BD0A0401D0801E30BD09028B
:100C0000FCD0401E30BD0000010101010346F0B5DB
:100C10000B439B072DD1244DEF01042A29D308C88B
:100C200010C95E1B9E43121F3E4017D0D8B2E1B2DE
:100C3000401A3106014310D198B2A1B2401A3104D2
:100C400001430AD118022102000A090A401A31029E
:100C5000014302D1180E210E401AF0BDA342DCD090
:100C600018BA21BA884201D90120F0BD0020C04342
:100C7000F0BD002A01D10020F0BD03780C78401CA3
:100C8000491C002B0DD0A3420BD1521E09D0037872
:100C90000C78401C491C002B03D0A34201D1521EEA
:100CA000EBD1181BF0BD000001010101F8B5042AC9
:100CB0002CD3830712D00B78491C0370401C521EA2
:100CC00083070BD00B78491C0370401C521E83070E
:100CD00004D00B78491C0370401C521E8B079B0FDD
:100CE00005D0C91ADF002023DE1B08C90AE0FFF780
:100CF000D9FAF8BD1D4608C9FD401C46B4402C4336
:100D000010C0121F042AF5D2F308C91A521EF0D4DB
:100D10000B78491C0370401C521EEAD40B78491C06
:100D20000370401C012AE4D409780170F8BD431A0D
:100D300070B593421BD28918801804E0491E401EEA
:100D40000B78521E03709307F8D106E01039103863
:100D500078C9103978C01038103A102AF6D203E05A
:100D6000091F001F0B680360121FF9D570BDFFF744
:100D700099FA70BDF8B5064614460843800707D0B7
:100D8000751AA54219D20819102D13D2311907E08E
:100D90003046FFF7CCFFF8BD401E491E02780A70AE
:100DA000641EF9D2F8BD471B2A463946FFF77EFF7D
:100DB000641B3846A542F6D3011B22463046FFF796
:100DC00075FFF8BD134610B50446CAB219461002A5
:100DD000821810048218204600F021F8204610BD29
:100DE000D2B210B513029A1813049A1800F017F82B
:100DF00010BDD2B210B513029A1813049A1800F05D
:100E000001F810BD01E004C0091F0429FBD28B07C3
:100E100001D50280801CC90700D0027070470029EC
:100E20000BD0C30702D00270401C491E022904D314
:100E3000830702D50280801C891EE3E70022EEE7CB
:100E40000022DFE7024670B50A4392072AD11E4D01
:100E5000EE0104C808C9541B9443344017D0D0B2E3
:100E6000D9B2401A2106014310D190B299B2401A6A
:100E7000210401430AD110021902000A090A401A8A
:100E80002102014302D1100E190E401A70BD9A4280
:100E9000DFD010BA19BA884201D9012070BD0020F4
:100EA000C04370BD02780B78401C491C002A09D051
:100EB0009A4207D102780B78401C491C002A01D0C5
:100EC0009A42EFD0D01A70BD01010101004870476D
:100ED000B09E0020704770477047704738B5044691
:100EE0000A4600206946C046C046002805D0024692
:100EF0002046009900F0A8FA012038BD10B5012065
:100F000000F05AFB10BDF8B5C046C04605460020AB
:100F10000C461020C0460646A819A0420DD93246FC
:100F200069460020C046C046070001D100F044FBDE
:100F30000098A04200D00546C419FFF7C7FFF61D70
:100F400007460560F008C0004619284600F008F87A
:100F5000B44204D031463868A21B00F075FAF8BDDF
:100F60000021016041608060704710207047FFB52C
:100F700004460D4681B0243000902168880604D5CF
:100F80001022E0699143216000E00120A84201DDC8
:100F9000471B00E000270498A1697A191018081A65
:100FA000A0612078C00602D42046FFF7D7FA0026B9
:100FB00008E003986268A168805D9047206A401C41
:100FC000761C206204988642F3DB2078C0060AD59E
:100FD0002046FFF7C3FA06E06268A1683020904718
:100FE000206A401C206238467F1E0028F4DC07E09F
:100FF00000986268A168405D9047206A401C2062AA
:1010000028466D1E0028F3DC2046FFF7BDFA207845
:10101000000602D5022005B0F0BD0120FBE700006C
:1010200001694A1C02610878704700B58FB00291CF
:1010300000210591054901937944039111460490DB
:101040006846FFF75DFB0FB000BD0000E5FFFFFF46
:1010500010B54369002B02D0C046C04601E0FFF73F
:10106000A4FA012010BD1278014624310A70002232
:101070004A700122ECE711680022D243E8E7000041
:10108000084B70B50D467B44FFF7CFFF044628465A
:1010900000F00AF8002802D00020C04370BD2046AE
:1010A00070BD0000ABB10100C068802108407047EE
:1010B000F8B505460C46C8680521C90488430121D6
:1010C00089050843E060800602D5204600F086F9D5
:1010D0007149E0680140022903D0204600F028F958
:1010E000BCE00521012249030140D20391420FD106
:1010F000C00306D56168E06A884200D8084660608F
:1011000006E02069E0626060606904F0F4FAA061C2
:10111000A1680022EEB200290EDAE06883050BD444
:10112000C943A1600921226049030843E060606867
:10113000411C61600670ACE0E0680121490308438E
:10114000E060002020602069002831D1606904F04F
:10115000E5FA012527462437ED02002816D0A0899C
:101160008005800F08D0E069FFF7D2F800282061E1
:1011700002D0E068284318E001202761E061E068C0
:10118000032109028843012189020DE0E069FFF78C
:10119000BFF800282061EFD0E0682843E0608105B7
:1011A000890F03D1FF2101310843E06020696060AD
:1011B000E2683A4F2569D0051FD56168E06A884228
:1011C00000D80846411B05D02246284600F0BAF850
:1011D000002843D1E068010204D5E5620020656083
:1011E000A06053E0691CE1626160E169491E384317
:1011F000A160E06030462E70F8BD100201D53A4083
:1012000009E06068411C61600670E06838430A2E9E
:10121000E06006D00022E16A6068814203D90B4693
:1012200002E00122F7E70346A7895B1B7F0504D490
:10123000E7699F4201DD002A1ED0814200D80146A5
:101240000F1A0020E5626560002BA06009DD2246D0
:101250001946284600F076F8002802D00020C04346
:10126000F8BD002F08D0A069E5626560C01BA061D1
:10127000E06810210843E060E068000209D5616879
:10128000A069E562491B40186560A0610120C04368
:10129000F8BD3046F8BD00008210000000000100DB
:1012A00010B50146C268900703D0900607D5886A3A
:1012B0000AE0FFF713F801210160881E10BD8B6959
:1012C0004868C0180B69C01A40310B7A002B02D055
:1012D000497A401A10BD1103FCD50028FADD401EE2
:1012E00010BD000070B5C468A50713D0650211D405
:1012F000D51FF93D0AD0FF3D6D1E07D0FF3DFF3DD4
:10130000022D07D101462431012305E0074E5D1E61
:10131000B54201D3012070BD0161C36141600F215D
:1013200009028C431443C460002070BDFFFFFF001E
:10133000C1688022114392039143C1600021816002
:1013400001607047F7B514460E463348D5685769B3
:10135000054209D03846A16904F02EFA002811DBB5
:101360002D48C0430540E5602B463246384600997B
:1013700004F025FA4200A1695208B21A891800281F
:10138000A16104D02046FFF7D3FF0020C043FEBD7B
:1013900070B504460569C06A6168884200D808468D
:1013A000E1680522D2049143E160C90314D5A84243
:1013B00009D02246411B2846FFF7C4FF002802D06F
:1013C0000020C04370BDE56200206560A060E06859
:1013D000012109048843E060002070BD10B5044677
:1013E000C06820218843E060A16AA06988420ED0CD
:1013F0002046FFF7CDFFE068032109038843102151
:101400000843E060A06AA0612069E062606003496F
:10141000E0680840E06010BD10000200BFBFFFFFA1
:1014200001468008081A02091018020A1018020C56
:101430001018C008820012185200891A01E0401CDE
:101440000A390A29FBD2704710B50346406801E00B
:1014500003464068002801D08842F9D31868C318B1
:101460008B4206D0CB1CD808C000001D411A521A6E
:101470000146081D0A60FEF77CFF10BD10B5434809
:101480005421FFF7DDFC42485421FFF7D9FC4148C5
:101490005421FFF7D5FC40483C493D4B404A016090
:1014A0003E4803603B4810605A1C0A65411C1965A0
:1014B000012101653C48354A3AA17844FFF75EFABC
:1014C000002804D1384878440C3800F081F83848B6
:1014D0002F4A36A17844FFF751FA002804D1344846
:1014E00078440C3800F074F832482A4A2FA1784426
:1014F000FFF744FA002804D12E4878440C3800F055
:1015000067F840232148DC0000212246FFF7EAFE6D
:10151000002804D0244878445C3800F059F81C486E
:10152000224640230021FFF7DDFE002804D020489A
:1015300078445C3800F04CF816482246102300210D
:10154000FFF7D0FE002804D01A4878445C3800F039
:101550003FF810BD0F4870B5006D44080B4864009B
:10156000FFF784FA0A48FFF781FA0A48FFF77EFA84
:1015700009E0206D450820466D00FFF777FA204608
:10158000FEF7F7FE2C46002CF3D170BD089F00201B
:101590005C9F0020B09F0020002600200426002031
:1015A000082600207200000082D6010077000000AB
:1015B0006FD6010046D6010010B500F00FF800F01C
:1015C00001F810BD10B5002801D004F093F810BD4B
:1015D00010B500F045F8FFF7F5FF10BD10B5012874
:1015E00005D0002103A000F021F8012010BD09A1C1
:1015F000F8E7000053494752544D454D3A204F7586
:1016000074206F662068656170206D656D6F7279FA
:10161000000000003A2048656170206D656D6F72B2
:101620007920636F727275707465640070B50546D9
:101630000C460A2000E06D1C04F0D6F8002D06D000
:1016400028780028F7D102E0641C04F0CDF8002CC3
:1016500002D020780028F7D10A2004F0C5F870BD28
:1016600010B5014602A0FFF7E1FF012010BD000008
:1016700053494752545245443A2052656469726551
:1016800063743A2063616E2774206F70656E3A2030
:101690000000000070B58C180578401C6B075B0FCC
:1016A00001D10378401C2A1106D10278401C03E0C6
:1016B0000678401C0E70491C5B1EF9D12B0705D41F
:1016C0000023521E0DD40B70491CFAE70378401C0E
:1016D000CB1A921C03E01D780D70491C5B1C521E36
:1016E000F9D5A142D8D3002070BD80B509F02AFBFE
:1016F00009F00EFB80BC01BC864609F069BA1FB533
:101700008468009201930294002200F0EDFB1FBD5B
:101710001F21014001228A40800F80001E4943584A
:10172000934343507047C04610B5044621B1012091
:10173000214605F09FF828B1204610BC02BC8E4619
:10174000FFF7E6BF1E4808F09BFAC046714601222B
:101750000A4051425141FFF7E7BF80B5714601226F
:101760000A4051425141FFF7DFFF002080BC02BC1C
:101770008E46714672467346F4468EF3008874476F
:101780001F21014001228A40800F800002494358F6
:10179000134343507047C0460402004010B504464E
:1017A00021B10120214605F065F828B1204610BC82
:1017B00002BC8E46FFF7E4BF014808F061FAC0465C
:1017C000EBFA0100714601220A4051425141FFF7F4
:1017D000E5BF80B5714601220A4051425141FFF7F1
:1017E000DDFF002080BC02BC8E4671467246734607
:1017F000F4468EF300887447F0B587B00E46054670
:1018000001200104404C626C0A436264014605B148
:10181000042162680A43626005B1102000F0EAFA10
:101820003A4830183A49884206D832463D480023A3
:1018300086420AD3184609E020688005800F58D0F8
:10184000344805436564344C57E001203249032293
:101850008E42029200D30290019502248E4203949C
:10186000214600D301468E400696DD430493212A8B
:1018700029D0901E042820D80593DA48B0FBF2F056
:1018800040000023039C40F200218B4214D02646E6
:1018900046432549771825498F420AD806998F1B58
:1018A00000D2771AAF4204D24FB1991C05913D4640
:1018B00004925B1C641CE6E7059B521CD7E79B1C4B
:1018C00000250492F9E7049D680240F20021401AC5
:1018D000029CA103019A11439A1E0A4302430A483B
:1018E0004264601C6843BF49B1FBF0F058434400B8
:1018F00003E00A4805436564094C042000F07AFAC5
:10190000204607B0F0BDC046FC01004000CA91FE71
:10191000000E27070EC20000006CDC020E4400001F
:101920000090D00300D8B805002847FA00EA320634
:10193000EB490A6802430A607047C046B0B52A48BE
:101940000268836B052109040B4201D0002112E0DB
:10195000990326490FD41C04A40F254D2C5D9D042A
:10196000ED0E6D1C6543DB059B0D224C5C4361183D
:10197000B1FBF5F18900204B1960846807232340EF
:10198000022B18D0012B0DD102231A4048F200017E
:101990001A4A0BD104681C430460126804689C4313
:1019A000046004E0990016A2515804E0126812067F
:1019B00001D547F6005180690F220240501CB1FB4F
:1019C000F0F07449086016494118164AB1FBF2F16B
:1019D000154A1160B0BC02BC8E4671467246734611
:1019E000F4468EF30088744708020040001BB700DD
:1019F0006CEE0100C0C62D005826002000110440E6
:101A0000001BB7000080000000000000102700004D
:101A100000000000006CDC0200000000001BB700AA
:101A200020A1070040420F005426002080B501F09D
:101A30006DF85848006880BC02BC8E4671467246FC
:101A40007346F4468EF300887447C046BA4800686F
:101A5000012101404942634808407146724673467D
:101A6000F4468EF300887447B3480068810348F257
:101A700000000840714672467346F4468EF30088B3
:101A80007447C046810AC9B291B18205D20E914015
:101A9000000C0C230340BB48C058094BC0580840F9
:101AA000D040714672467346F4468EF30088744700
:101AB0000020714672467346F4468EF300887447E0
:101AC000200200401D494118032910D8880001A2B6
:101AD0001018874600F006B800F01BB800F01DB8DB
:101AE00000F01FB816480168012008401DE0010100
:101AF000490F21D0C201D20E9140800E0C23034029
:101B0000A148C0580E4BC018083800680840D040A3
:101B10000BE00B480068800706E009480068C00534
:101B200002E0074800688005C00F714672467346A0
:101B3000F4468EF3008874470020F6E7F0FFFF7F3D
:101B40001802004080B500F0E1FF12480068124919
:101B5000096807220A40D04080BC02BC8E4671460C
:101B600072467346F4468EF30088744780B500F0E1
:101B7000CDFF08480068084909684906490FC84070
:101B800080BC02BC8E46714672467346F4468EF3A4
:101B90000088744750260020340200401048016835
:101BA00005200004014201D0002012E088030D4806
:101BB0000FD40A04920F0C4B9A5C8B04DB0E5B1C57
:101BC0005343C905890D094A4A431018B0FBF3F085
:101BD0008000714672467346F4468EF3008874475F
:101BE00040020040001BB7006CEE0100C0C62D0093
:101BF000124801680422914301604F480168802225
:101C00009143016030BF704780B5FFF7F1FF0020BE
:101C100080BC02BC8E46714672467346F4468EF313
:101C2000008874470548016804220A43026042485C
:101C3000016880220A43026030BF704710ED00E067
:101C400080B5FFF7EFFF002080BC02BC8E467146D6
:101C500072467346F4468EF300887447F8B5364DE5
:101C60002E6D291F0A6840F2003111401D4CA04220
:101C700000D959B11C4CA04203D940F20012914244
:101C800004D01A49884200D8084604462868042728
:101C900038432860102000F0ADF82869072101437F
:101CA0002961286A0F2188432862286DC00707D15F
:101CB0000120C0042146FFF79FFD04462E6D04E07D
:101CC00000202146FFF798FD04460220002100F085
:101CD0000FF8F00602D42868B84328602046F8BD03
:101CE000000200400090D003006CDC0200366E0160
:101CF000F8B50D460446104E306D0090306804274C
:101D000038433060102000F075F83069072108432F
:101D10003061306A0F229043284330623069884333
:101D20002043306100F0F2FE0098C00602D4306813
:101D3000B8433060F8BDC0460002004070B5830A69
:101D4000DCB20F4B64B18505ED0EAC40050C0C26E2
:101D50002E400C4DAD595D192E69A64316432E61D8
:101D60000201520F0BD0C401E40EA240800E0C24DD
:101D7000044005480059C45894430C43C45070BDF6
:101D8000100200405CEE01004CEE010070B51446FC
:101D90000D46064623B10120314604F06BFD38B1F3
:101DA00030462946224670BC08BC9E46FFF7C6BF97
:101DB000014807F065FFC046EBFA010090B4734696
:101DC00001241C406342634190BCFFF7DFBF10B5A4
:101DD000734601241C4063426341FFF7D7FF002094
:101DE00010BC02BC8E46714672467346F4468EF3B2
:101DF00000887447B0B50146054A064B012000240F
:101E00001D680D408D4202D0521CF9D32046B0BD52
:101E1000FF60DBFF50020040FEE70000B0B50F207E
:101E2000800314490968814200D1B0BD124959228A
:101E3000162388240A600B600C600D68002DF9D011
:101E40000E4911220A600E4A4A600022CA6001222D
:101E50000A610B69002BFCD18B685B1C08D1886080
:101E60002120C8600A6108690028FCD10548026089
:101E7000FEE7C04628F002400001004000C00040DC
:101E80000008200008000040F8B50092002303225B
:101E90001D46202B0ED00E46EE40F60707D0009EC2
:101EA0009E4017469F400468BC43344304609B1C1B
:101EB0006D1CEEE7F8BDF8B50092002303221D4625
:101EC000202B0ED00E46EE40F60707D0009E9E4017
:101ED00017469F40046BBC43344304639B1C6D1C3A
:101EE000EEE7F8BDFEE70000F0B589B00191029081
:101EF00006A80930049000200746C5430F9C0E9E9B
:101F0000109B104603934AB90022314618392146E6
:101F1000914103D2049B1A4602981CE0049A3B4666
:101F20003146214301D1012811DB0593D9B20FA31A
:101F3000595C0B463BB156555219360A2706F6191D
:101F40005B1E240AF6E7401A059B5B1CE8E7173383
:101F50001E460298049B0199490171185155511967
:101F60005A1A039B00F03EFF09B0F0BD01010204C4
:101F7000EFF30980EFF30B8107B5F0B444464D460B
:101F800056465F46F0B4684618F08AFFF0BCA0469B
:101F9000A946B246BB46F0BC0FBC9E4680F30988FA
:101FA00081F30B887047000070B50446007C00B1D7
:101FB00070BD1D461646092904D0002320462A4636
:101FC000FFF79DFBA368204631462A4600F00AFF32
:101FD0009420205881881D4A914201D9032002E0B3
:101FE000491C81800020207470BDC04613460A46FB
:101FF0000221FFF7D9BF13460A460221FFF7D4BFDB
:1020000010B5044600F008F80299039A204610BC67
:1020100008BC9E46FFF7EABFB0B50446007C00B19D
:10202000B0BDDD176A405D40D90F20462B46FFF753
:1020300066FB942020588188044A914201D90320EC
:1020400002E0491C818000202074B0BDFCFF00002C
:1020500010B50446FFF7E0FF029A039B204610BC30
:1020600002BC8E46FFF7D8BF0621FFF748BB05210B
:102070000022C046C046F0B587B00546007CE8BBEC
:102080001446942028582A461432904209D0827966
:102090008A4208D1AA6803680229049206D1D01A9C
:1020A00009E0042000E01020287427E08088CA1E80
:1020B00092B2B0FBF2F02F469437002600900196C2
:1020C0000293284632460393FFF70EFF9CB105A802
:1020D000294600F0B3FEA8680499401A03994018F5
:1020E0000699814201D2304603E0059A02B11618E2
:1020F000081A2660606038680838386007B0F0BD9C
:102100001CB50C460146007C00B11CBD942008584B
:102110000A461432904201D00A201CBD887B08B1C7
:1021200001201CBD684600F089FE0098019903C497
:1021300000201CBD70B515460E4604469821FEF7DA
:102140007FFE204631462A4600F044FE20461430E9
:10215000942160500420A07670BD0521C046C04681
:1021600070B5942283589A88104CA24202D303215E
:10217000017470BD521C9A80002202748468652527
:10218000ED43AC4201D907220DE005468C35AB4248
:1021900008D0054694351E4608362E6099739C601B
:1021A0009A8100E00222027470BDC046FDFF00006B
:1021B00010B503F0F7F9C00001D5064C00E0044C5F
:1021C00000F0FCF8206804210143216010BDC046E6
:1021D0003C1004403C10045070B5044603F0E2F992
:1021E000C00001D5744B00E0724B5A6901210A40CE
:1021F000E261986907250540E56018690002050F4E
:102200002C4805601D692D032D0F45601D69ED04E7
:10221000ED0F85601D692D052D0FC5601D69AD068B
:10222000AD0F05611E690F252E404661DE68B602BE
:10223000B60F8661DE683603360FC661DE68760447
:10224000760F0662DE683605360F4662DE68760671
:10225000760F8662DB682B40C36205680A235D4304
:102260004668751940F2D076AD19256085685D43E2
:10227000C668AD19656005695D434669AD19A5601D
:1022800085695D43C669AD1925613AB9152D04D339
:1022900002212162143D256100E02162016A594357
:1022A000426A89186161816A5943C06A0818A0614D
:1022B00070BDC0465CA1002010B5044603F072F961
:1022C000C00001D53C4800E03A4808490160026876
:1022D000012A03D0016001680129FCD12CB12046FC
:1022E00010BC02BC8E4600F003B810BD5713EBA51E
:1022F000FEB5044603F056F9C00001D52E4D00E0AE
:102300002C4D002C55D000F059F8E169686919B1DD
:1023100001210843686108E0012188436861206A5F
:10232000022802D1206914302061E068A861206889
:1023300040F2D071401A0A26B0FBF6F132464A4309
:10234000801A0004090501436068B0FBF6F213032C
:102350000B437243801A00021843A168B1FBF6F2E6
:1023600033465343C91A014317010F43A069029032
:1023700060690190246900F021F82F61B4FBF6F048
:1023800001057043201A00040843019BB3FBF6F1DA
:102390000A0302437143581A00021043029AB2FB27
:1023A000F6F14E43921B02430C01144300F006F871
:1023B000EC60FEBD001004400010045010B5012078
:1023C000040403F0EFF8C00004D40F480168214270
:1023D000FCD003E00B4801682142FCD010BDC04690
:1023E00010B50120040403F0DDF8C00004D4064851
:1023F00001682142FCD003E0024801682142FCD080
:1024000010BDC046041004500410044041F2000006
:10241000C2F2000080F30988EFF314800221084320
:1024200080F3148842F23140C0F2000000470000FF
:10243000094859211622882301600260036004685C
:10244000002CF9D00549064A0A600021016000F01D
:1024500071FBFDF7C1FEFEE70001004024000040D3
:10246000A55A000004480168082291430160001F3A
:10247000024901607047C04610ED00E00000FA0517
:102480000848026808491140EFF30582D20502D1DD
:1024900006A2104607DF01600A480821016018F013
:1024A0002FBBC04630F00240F3FF03004F6F707344
:1024B0002E2E2E204D5043206661756C74212121F3
:1024C000000000008CE200E010B50020C1430B4882
:1024D000016041608A1E8260C1600161084A4261F8
:1024E000816101620B210122082906D313468B402A
:1024F000446A1C434462491EF6E710BD00F00240E6
:10250000FFFFFFFDB0B50C460546480637D5A86964
:10251000801E0078C11F132933D88A0001A39A189E
:102520009746C04600F02BB800F033B800F035B83D
:1025300000F020B800F01EB800F01CB800F01AB887
:1025400000F018B800F016B800F014B800F012B897
:1025500000F010B800F00EB800F00CB800F00AB8A7
:1025600000F008B800F006B800F004B800F002B8B7
:1025700000F000B82946224600F030F828602046D6
:10258000B0BDEFF30580C005F9D106A0004607DF16
:10259000F5E7284618F0FEFAF1E7284618F02AFE7B
:1025A000EDE7C046556E6B6E6F776E205356432035
:1025B0006E756D62657220726571756573746564A0
:1025C0002100000004207146084202D0EFF3098088
:1025D00000E070477146FFF795FF0047F0B585B002
:1025E0000A380024102800D9E8E1830001A5EB187F
:1025F0009F46C04600F020B800F021B800F022B895
:1026000000F023B800F02AB800F02EB800F032B87D
:1026100000F036B800F04AB800F090B800F0A0B86A
:1026200000F0DFB800F002B900F03FB900F071B976
:1026300000F088B900F095B919F096FABEE119F0EA
:1026400089FABBE140F20014B8E1002208461146C5
:1026500005B0F0BC04BC964619F06CBA00240846DC
:10266000214619F037FAA9E100240846214619F05D
:1026700054F9A3E100240846214619F006FA9DE129
:1026800099B160C918F0C3FF044608B918F006FCF8
:102690006561002E06D52069284203D12046083006
:1026A00018F02AFB24692C4088E1FEE7002944D079
:1026B00060C9284618F05EFA012801D018F0EEFB38
:1026C00018F0A5FF074608B918F0E8FB386819F0BC
:1026D000D5F800903021002402233046224618F01D
:1026E0007FFB08B118F0DAFB386910B918F0D6FB97
:1026F00038690496284201D118F0D0FB38462946A3
:1027000018F0DAFF064608B918F0C8FB1036304654
:1027100018F082FB002800D13CE101461431302240
:102720000498FEF7C3FA304618F094FB002800D155
:1027300044E13869A843386140E1FEE779B121C935
:1027400018F036FF064608B918F0A8FBB168002952
:1027500000D123E170682A4619F0D0F82EE1FEE797
:10276000F1B341C90A6804924968039118F020FF47
:10277000074608B918F092FB78684068006819F0BD
:102780007DF802907869022801D018F087FB042EAA
:1027900001D318F083FBB0003D18686A002800D10F
:1027A0000CE124350298009000220223049803993A
:1027B00018F016FB08B118F071FB2C680398A042C2
:1027C00000D80446F0003E18716C04982246FEF7CB
:1027D0006DFA706C001970642868001B2860EDE0C9
:1027E000FEE711B3C1C918F0E3FE054608B918F0B9
:1027F00055FB6869022801D018F050FB042E01D364
:1028000018F04CFBB0002818416A002900D1D5E02F
:1028100024308F420C4600D83C46F200AA18536C74
:102820001B195364091B0160C8E0FEE7E1B341C90D
:102830000A6804924D6818F0BBFE044608B918F007
:102840002DFB60684068006819F018F80390606913
:10285000022801D018F022FB042E01D318F01EFB31
:10286000F0002718B86EB1006118496B081A85424C
:1028700001D918F013FB3E466836039800900024F7
:10288000012304982946224618F0AAFA08B118F044
:1028900005FB786E3168401804992A46FEF706FA5F
:1028A00030684019306089E0FEE789B381C918F0CB
:1028B0007FFE0646054608B918F0F0FA6868394602
:1028C00020B9049018F0EAFA049839466A69032A94
:1028D00069D0022A75D0012A62D1544A914266D049
:1028E000534A914200D19AE0002959D1074618F085
:1028F000A7FC014618B9039118F0D0FA03992A6A87
:10290000002A54D038460F4618F0F8FF39464EE0FA
:10291000FEE7B1B10D68002D01DC18F0BFFA2846C2
:1029200018F05AFE054608B918F0B8FA28690822C6
:1029300002432A61696911400835284618F000FAF7
:102940003CE0FEE718F063FE054608B918F0A6FA69
:102950002869010702D418F0A1FA286908218843E0
:1029600015E0B1B10E6818F052FE054608B918F02E
:1029700095FA286918F0FEF8012801D018F08EFAAF
:102980002869304202D118F089FA2869B0432861D9
:1029900014E0FEE70120C007C41C0FE035620DE023
:1029A00018F07CFA02E0A96818F0EBFD00210C3663
:1029B000304618F0C5F9284618F0F8FD204605B055
:1029C000F0BD61B10120C007814201D1014606E09E
:1029D0008030814200DB11B918F060FA00212869CB
:1029E0004069022819D10391029430468430049042
:1029F00000213422AB58B3B12846049B1B685D58B4
:102A0000344677187E6EB54208D15B18BD6E5D60A6
:102A1000121D083105462646ECE7FEE7FEE70120D9
:102A2000C007811CC3E7029C0399C0E70100008036
:102A3000020000802D4900200860714672467346EE
:102A4000F4468EF30088744710B5010E094A8B587E
:102A5000FF242406A04301248440A3438B5010BCD0
:102A600001BC86467046714672467346F4468EF344
:102A7000008874470800004010B5044621B10020CA
:102A8000214603F0F7FE28B1204610BC02BC8E465A
:102A900038F026BB014807F0F3F8C046EBFA010016
:102AA000714601220A4051425141FFF7E5BF80B50E
:102AB000714601220A4051425141FFF7DDFF0020DB
:102AC00080BC02BC8E46714672467346F4468EF355
:102AD0000088744710B505485921162288230160E3
:102AE000026003600468002CF9D010BD00010040B2
:102AF00080B5FFF7EFFF002080BC02BC8E46714618
:102B000072467346F4468EF30088744710B538F069
:102B1000E3FA054CA06038F0BFFA04494118044AB2
:102B2000B1FBF2F103C410BD5026002020A1070024
:102B300040420F00014802490160704708ED00E083
:102B40000000000010B504461A48844214D01A4808
:102B500084420DD0194884420CD01948844207D0D1
:102B60001848844206D01848844219D1194804E014
:102B7000164802E0164800E00D4838F0A1FA022895
:102B80000AD140F2001004430F4884420AD110BC1D
:102B900001BC864638F098BA80000FA1085810BDD5
:102BA000002010BD10BC01BC864638F091BAC0466A
:102BB0000200805E00000540001105500010054035
:102BC0000011054000100550000105400500405F60
:102BD0000400005F0300C05E001BB700008000001F
:102BE00000000000000000000000000010270000AE
:102BF00000000000001BB700EFF305810020C905AD
:102C00000BD0674A1168002907D4C80010180023A8
:102C1000DB43436080681060481C7146724673460F
:102C2000F4468EF300887447B0B5EFF30582411E79
:102C30000020092914D8594B1A4011D0CB00584A0A
:102C4000D3185C6864B1181D564C25688D4201D1BB
:102C50000025256000240460106898601160012040
:102C6000B0BC02BC8E46714672467346F4468EF383
:102C700000887447EFF30580C0050ED04848014630
:102C80000C31022300220B2B03D00CC100315B1C42
:102C9000F9E7D1430165012000E00020714672464A
:102CA0007346F4468EF300887447C046EFF30582FE
:102CB000411E002009290AD8384B1A4007D0CA0003
:102CC000374B9A18526812B136480160012071469C
:102CD00072467346F4468EF30088744705480146F1
:102CE000C331054A116050600021C9439160E3304F
:102CF000D0607047FCFEFFFF80E300E01148022136
:102D000001601F21104A13468B4343600F4952183C
:102D100003210A431C239A438260002202600C4A6A
:102D200042600C4A8260012202600B4B43600B4BF5
:102D30008360016005210907416009498160083805
:102D400002607047D8ED00E000B00300FF0F000004
:102D500000C00310E1FF071000000130E17F0130E7
:102D6000E1FFFF5FEFF30582411E002009290ED825
:102D70000A4B1A400BD0CA00094B9A18526832B15C
:102D8000084A13688B4202D100201060012071466E
:102D900072467346F4468EF300887447FF010000C4
:102DA0000CA00020C42B0020F8B50D4604460020DE
:102DB00001469A420BD31E46D21A079F974206D865
:102DC0000699A8193A46FDF771FFB81929462160FE
:102DD0006060F8BD10B500238373204C84810EC061
:102DE00010BDC046F8B50446807B00B1F8BD0E4664
:102DF000A0891A4988420AD16168A068814206D335
:102E00001546091A914202D31F46984202D2012068
:102E1000A073F8BDC21B206805D020B1C1194819A4
:102E2000FDF7A8FF206820B1C01931462A46FDF7FA
:102E3000A1FFA0684019A060F8BDC0468A7B4AB9CE
:102E40008A89064B9A4203D10A688968026003E0C6
:102E500001228A7300210160416070470F0B00005E
:102E6000014840687047C04680A00020F0B50025AA
:102E7000059E3F210E4CB7090E40A65D46556D1CC0
:102E8000002F3E46F7D1232646556D1C96090A4071
:102E9000A25CEFB2C2559A06B2189B0916461E43B1
:102EA0006D1C002EF2D1E9B200224254F0BDC046A2
:102EB00068E901001B494118022917D31A49411832
:102EC000022917D31949884218D01949884219D0C4
:102ED0001849884219D0184988421AD000B31749B6
:102EE00088421AD19720C043133070479720C043BF
:102EF000801D70479720C043C01C70479720C04377
:102F0000113070479720C04370479720C0430C3062
:102F100070479720C0430A3070479720C043143051
:102F20007047C046E5FE007FBBFE007F0101FF80C9
:102F30000201FF800701FF800B01FF801201FF806B
:102F4000E0B503F009FE2448018881B1491E0180E3
:102F5000080407D10A480168802291430160204893
:102F6000FEF7F4FB8CBC01BC864603F0FDBD03F00C
:102F7000FBFD0021009103480A460B4607F0B8FE0E
:102F80000C900B4024010480E0B503F0E5FD1249EC
:102F90000888124A904215D0421C0A8068B910482D
:102FA000FEF710FC0F48FFF77BFD3348C168802215
:102FB0000A43C26001680906FCD58CBC01BC864688
:102FC00003F0D2BD03F0D0FD0021009106480A466F
:102FD0000B4607F08DFEC046A4A10020FFFF0000B5
:102FE000190000801F00000423010480B0B50C46C6
:102FF0004542FDF773F90560A0001149081800214A
:103000004160B0BD10B50D4802F0D0F80C4810304A
:103010000021CC430321102904D002683AB1001DDD
:10302000491CF8E7FDF75AF91821016001E0046036
:103030000C46024802F0BAF8204610BD9CA10020C0
:103040000C260020F0B50346002013B909B1C04397
:10305000F0BD5C18084D0126A34209D02F68374304
:103060002F602F68BF07FCD56F681F705B1CF3E7EC
:1030700002B11160F0BDC04600900B40BFB51446D0
:103080000A4601466846012303810023019309BAD9
:103090000E4B0B401B010E4D0D402909C9180D4B5D
:1030A0000B409B000C4D0D40A908C9180B4B0B4061
:1030B0005B000B4D0D406908C918009103AB214618
:1030C00000F0BAFC039804B0B0BDC0460F0F0F0F5C
:1030D000F0F0F0F033333333CCCCCCCC55555555E0
:1030E000AAAAAAAABCB5FFF7BBFE084C60600125DE
:1030F0000195009530B106A16A46094B16F058FDBE
:103100002570BCBD074806F0BBFDC046C0A000202E
:103110005053415F4954535F56455253494F4E00F7
:1031200099A90000A8F80100F0B585B0074628204D
:10313000385C08B90020F8623C462C340125204652
:10314000294603F0FFFC01280AD1381D049000F045
:1031500033FD38B106460121204603F0E0FC50E083
:1031600000264EE001953D46183527CD8018039086
:103170004D41049E304602F0DDF90290304602F0E7
:10318000DDF90299401800260399401A3046A841FB
:1031900009D3B8690390FD69049802F0CFF9039947
:1031A000081AB54105D20121204603F0B8FC4E4E65
:1031B00027E0B869F9690143049D05D1284602F06A
:1031C000BDF90021B861F9613C462834386A796A52
:1031D0000143019814D1284602F0ACF9B969FA69A3
:1031E00000230393401A029028461D46954102F0A1
:1031F000A5F9029908183862039845417D62019843
:103200002070304605B0F0BDFEB506462820305C83
:10321000B0B115460C460998089F3168C96B0097F4
:1032200001903046884758B1B0694219301D214697
:103230003B4603B0049CA646F0BC01B000F0DCBCE9
:103240002948FEBD7CB504462820205C98B115466F
:103250000798069E2168496C009601902046884791
:1032600048B1A0694119201D324602B070BC08BCAB
:103270009E4600F0DDBC1C487CBDC04610B504462F
:103280002820215C20462C3061B1012103F047FC4D
:1032900050B9201D28340021217010BC02BC8E467C
:1032A00000F016BD00210160002010BDFEB50646ED
:1032B0002820305CB0B115460C460998089F31684B
:1032C000096C009701903046884758B1B06942199F
:1032D000301D21463B4603B0049CA646F0BC01B01D
:1032E00000F014BDFA48FEBD5FF0FFFF1CB50B46B1
:1032F0002824002101558361C16102624162C162DB
:10330000124C0834046041608160C16001615B1C43
:1033100001D002B11CBD009102480A460B4607F0DD
:10332000E7FCC0460101FF8080B500F005F880BCD5
:1033300002BC8E4602F008B910B5044603480830B6
:1033400020602046FFF79AFF204610BDE8E9010003
:1033500000200870012070471D2070471520C043D1
:103360007047002070471046704701207047FDF7F6
:1033700000B81520C043704711B91820C0437047EA
:10338000002070471520C04370470168896A0847CC
:103390000020704701680B6900210122184701686D
:1033A0008969084703681B691847704701680B69FA
:1033B00000210A4618471520C04370477047002077
:1033C000704700207047000070B50F2801DD002015
:1033D00070BD04468000124D29184868022C11DC8B
:1033E000421C0FD10E1D204600F022FB48B920469A
:1033F00000F020FB28B90B48D0E88F0FC00702D09F
:103400002846306070BD074C204602F0CFF80028F7
:10341000F6D02078FC210140481C2070F0E7C0461F
:103420000C26002098A10020F8B504463430012570
:10343000294603F087FB012805D160680168896887
:10344000884710B1F8BD0020F8BD60680168496A7E
:1034500088472061616160680168896A8847A06067
:10346000E16060680168896B884702460F46A06189
:10347000E161E06A28B9A068164602F067F83246B2
:10348000E06226462836206B28B92069009202F0B7
:103490005DF8009A20632262676235740020307004
:1034A000F8BD0000F0B58FB01F460D913821415C8A
:1034B000C24B002900D1F4E0159E149C0168C96B31
:1034C0000094019609900C921D463B4688472B4676
:1034D000002800D1E5E02246099C60680168C96BBC
:1034E000009201960C9D0B9616462A463B4688474D
:1034F000D0B172190B9B7B41216A606A8A1A02461D
:103500009A4106D2A268E36851184341481BBB4167
:103510000AD2606801684C6900960B9901910D9977
:103520002A463B46A047BDE02046283006900020B2
:103530000290284623460B9C32461146214300D177
:10354000AEE00E97069909780A9217460B940C90F4
:1035500081B31A6A5C6A811A0E9F3946A1410AD268
:10356000121ABC410A991746511A21460B9A9141E9
:103570001BD300211AE09D68DE68A9187441411A26
:103580003946A1410A9F0B9C14D20E9F39462A4608
:103590003346FCF74DFFAD1A9E410A98281A304673
:1035A0000B9988416AD3002469E0012101B91446CE
:1035B00001B90A9F1D695E690E992A463346FCF7D8
:1035C00037FF1946781B2046B0413B461AD31046B8
:1035D000084317D1184621462A461D463346FCF7B4
:1035E00027FF0998406801684C690026AD1A0095CC
:1035F00001960D990C9A0E9F3B46A04703460B9CE3
:103600000A9A30E00998076B0597406817460268E8
:1036100052690492009501960897ED1B8E41EA1AB3
:103620003246A241039301D3002200E00122079217
:103630000C9A089BD21A0E9B8B410599049FB847A0
:103640000590079800B9039D0998006B08994118E7
:103650000D982A46FDF72AFB079800B926460E9FCB
:103660000B9C0A9A059BE3B90C98099B521BB44129
:10367000281877410D9949190D915EE701240998A1
:1036800004B90A9DC06A81180D982A46FDF70EFB01
:10369000002C0B9C00D126460C98099B0A9AE5E762
:1036A000029B18460FB0F0BD10B504463820205CD0
:1036B00020B1204600F05EF810B110BDC74810BD23
:1036C00060680168096910BC04BC96460847C0469A
:1036D0005FF0FFFFF0B585B03821415CF9B10B9D7B
:1036E0000A9CA118039104955D41066A476AB11AC4
:1036F000394699410BD30399891BBD4107D3014634
:1037000028318569C6690562466200250D704068EA
:103710000168096A0094049C0194884700E0AF485E
:1037200005B0F0BDF0B585B03821415CF9B10B9D15
:103730000A9CA118039104955D41066A476AB11A73
:10374000394699410BD30399891BBD4107D30146E3
:1037500028318569C6690562466200250D7040689A
:103760000168C9690094049C0194884700E09B4863
:1037700005B0F0BDFEB504463820205C90B125466A
:103780002835287880B1206A0290636AE26A271D92
:1037900083CF0668B669009101971146029AB04737
:1037A00020B1FEBD8D48FEBD0020FEBDA069E169CF
:1037B0002062616200202870FEBDC0465FF0FFFFFE
:1037C00070B504463820205C002568B12068016986
:1037D0002046884738B920463430012103F09FF94C
:1037E0000028284602D070BD284670BD25463835D1
:1037F000E06A01F0A7FE0026E662206B01F0A2FE5F
:1038000026632E7060680168C96870BC04BC964667
:1038100008470000F0B58FB00C913821415C0029B9
:1038200000D1D6E01F46144682680646C36820468B
:103830003946FCF7FDFD33462546A01A316A726A07
:103840004140114306D01846FFF794FF3346002845
:1038500000D0C1E0184628300790159914980E90B2
:1038600000200390C04305900D932A460E9808430C
:1038700000D1B0E00B91039E5E629D68DC6810464B
:1038800039460A922A462346FCF7D2FD0A98821A44
:1038900005990A400D990A620492811A0897B74166
:1038A0000846384309910BD00695681A2146B9415C
:1038B0000E9A121A0B9B1A468A4116D3002215E063
:1038C0000E9E701B0B990846A0410E960B462A4689
:1038D00012D30E9E304615462346FCF7A9FDB61AB4
:1038E0002A4605980640002306E0012202B90B464D
:1038F0000E9E02B90646069AB01A1846A0411FD27B
:1039000002930798007860B90D98C16A4068134621
:1039100002685569009301940023049AA84700287F
:103920005AD10D9DE86A099C00190C993246FDF7A1
:10393000BDF92046AA68EC68E96A0691029B02E09C
:103940000C980690099830185F41394617461D4675
:103950002346FCF76DFD134305D00120079908703D
:10396000089F0B9929E0F01B28462346A0413A46C0
:1039700001D3002100E0012101B92B460D98046A12
:103980000994446A40680768BF69019301B93246E7
:1039900000920699099A2346B847E8B90D9A9069AA
:1039A000D16910625162002007990870506801685F
:1039B00009698847089F0B9970B90E98801B0E9073
:1039C000A9410A9AB2186F410C9880190C900D9B6E
:1039D0004CE7024800E003980FB0F0BD5FF0FFFF36
:1039E00010B504461148083003C4083C204608308E
:1039F0002121FDF725FA382000212154E1622163BD
:103A00006163204610BDC04680B500F005F880BC5B
:103A100002BC8E4601F098BD10B50446034808303C
:103A200020602046FFF7CCFE204610BD98EA01003A
:103A30000020704700207047B0B51C46054600685E
:103A40001860284601F020FD00B1B0BD21686A7AF7
:103A5000AAB909BA0C4A0A4012010C4B0B401909C9
:103A600089180B4A0A4092000A4B0B4099088918A2
:103A7000094A0A405200094B0B40590889186A68E4
:103A80004A402260B0BDC0460F0F0F0FF0F0F0F0BB
:103A900033333333CCCCCCCC55555555AAAAAAAA2E
:103AA000007B7047F8B50E460446184D284608308E
:103AB00001F07CFB2D6875B1AF6857B13846FDF752
:103AC00083F8B04205D1384621463246FDF728F842
:103AD00078B12D1DEEE7072E05D10DA00722214656
:103AE000FDF71EF850B10948083001F05FFB0025D2
:103AF0000AE00648083001F059FB05E0034C204677
:103B0000083001F053FB65682846F8BDDCA00020B2
:103B100064656661756C740010B5044600F007F8C2
:103B200018B1606800B1001F10BD002010BD80B545
:103B3000406828B1FFF7B4FF411E4842484180BDAC
:103B4000002080BD10B5044600F00BF818B1606885
:103B500000B1001F10BD002010BD4068411E88410B
:103B6000704780B5406828B1FFF79AFF0146404290
:103B7000484180BD002080BD0068704770B50E468A
:103B800004460025056045600AA13046FCF7A4FF05
:103B9000301841192160425D2AB12F2A01D06D1CD5
:103BA000F7E7491C21602946FFF77CFF606020464B
:103BB00070BDC0462F00000070B504469E4D2846DB
:103BC00001F0F4FA07F0EAF807F0FAF8204637F0C7
:103BD0005BFA064607F01AF907F004F9204637F0B9
:103BE00043FA01F0B3FCE060284601F0DFFA0EB1C1
:103BF0000020C643304670BDF8B51D4616460F4638
:103C000004468D4801F0D2FA07F0C8F807F0D8F85A
:103C1000204631463A462B4606F0BEF9044607F0E8
:103C2000F5F807F0DFF8844801F0C0FA2046F8BD47
:103C3000F0B585B016460D46074650180390384635
:103C400037F01AFA044604973846039F37F018FAFB
:103C5000001900210291CC43874235D808D204983C
:103C6000394637F005FAB7FBF0F14143781A2BD10A
:103C7000714801F09BFA11200190029C0EB304BB25
:103C80000396019E029C761E13D007F087F807F07A
:103C900097F80498294637F0DBF9074608B93C46FF
:103CA00001E00020C44307F0B1F807F09BF8002FB3
:103CB000E9D10498294637F0DBF94519039E361AF5
:103CC000DCE75D4801F072FA204605B0F0BDC04661
:103CD00070B50646584C204601F068FA07F05EF8C9
:103CE00007F06EF8304637F0B7F9054607F08EF862
:103CF00007F078F8F06801F025FC204601F056FA4C
:103D00000DB10020C543284670BDC046F0B589B04E
:103D1000049317460C46054637F0A6F90646284692
:103D200037F0AAF90790284637F0AAF906900895C7
:103D3000284637F095F900900025E8430394002CBD
:103D400077D03A46B7FBF6F17143791A71D10799EA
:103D5000069B5B18049CE11999426AD832463E469C
:103D60000292354801F022FA032001902F46039D6C
:103D7000002C5AD0002F58D10898314637F078F9E6
:103D8000B6FBF0F14143891B40188442234600D31F
:103D90000446284601998843A84202980493039553
:103DA00008D1844206D3B4FBF0F747430597069742
:103DB000079517E0A042024600D32246089FF86804
:103DC00029460592FCF772FF0298844207D2059AB1
:103DD000811AF8688018009AFDF702F80298F968CD
:103DE00007910690002711256D1E17D006F0D6FF0B
:103DF00006F0E6FF089834463146079A069B37F0EE
:103E000047F9064608B9374601E00020C74306F0E7
:103E1000FDFF06F0E7FF002E2646E5D1039D05983D
:103E20002D188619049C241AA2E7034801F0BEF954
:103E3000384609B0F0BDC046A8A10020F0B593B047
:103E40000C46054601A90846403000900026284649
:103E5000334600F099FD0746A86C296A6A6A012377
:103E6000009351180B1828462146324600F03AFEBE
:103E700048B930463FB901A800900022482328469F
:103E8000214600F003F813B0F0BD0000BCB5C90036
:103E90004118896B80690468A56900240093019426
:103EA0008A1806992346A84700B10148BCBDC04600
:103EB0001C01FF80F0B58DB0069317460D460446F1
:103EC00007A800901823204601F036F890BB05950E
:103ED000A06C1726B6FBF0F107AA92890B9BD218AB
:103EE000521EB2FBF0F289188D1C45430698281823
:103EF000616B884201D92A481CE0002003900090A1
:103F000001200599401AC1B220460491069A2B4619
:103F100000F0E8FD70B9A06C07A90091B6FBF0F1C4
:103F2000491C41438EB220460499069A3346FFF756
:103F3000ADFF08B10DB0F0BD12980290AD1B069810
:103F40003318F21905990DB31F46E06C0090402D0F
:103F50000695284600D3402085B2204616462B46BB
:103F600000F0EAFF0028E5D1E06C009020460499BB
:103F70003A462B46FFF78AFF0028DBD10698401B04
:103F8000EF193246AA1905463B46DBE7A06C591EDD
:103F9000B1FBF0F1491C4143029801600398C9E765
:103FA0000B01FF80F0B591B00C931446064687686C
:103FB0001046FCF709FE01460025E8430B94224613
:103FC000FFF75CF8179B1860169C256030698542E6
:103FD00028D2280139188A680C990A60385819685B
:103FE00081421CD31ED82C20315C0DA80A900FA84A
:103FF00009900EA80890002007901D460123069303
:1040000005900490039010AB02930190009030460D
:104010000B9B00F00DF82B460449884203D1206821
:10402000451CD2E7014811B0F0BDC0460701FF8032
:10403000F0B597B0109316460D460446269F3A6099
:1040400011A800901823204600F076FF03460028B0
:1040500000D0E8E00F950E97744B75481199814296
:1040600000D0E0E0259A11A88789A16C1598139BD0
:1040700013607A1E7E2A01D96C4BD4E01722B2FB62
:10408000F1F2521C4A439219C6198642674B00D27C
:10409000C9E000D2C7E00C97911937461646224670
:1040A000626B914200D3BEE00D9706961F9A904234
:1040B00001D2DB1CB7E0219E1E9F1D990B92801A36
:1040C000884200D308461C99019103973860069AEC
:1040D000314626B1019D15B908B15B1EA3E0249DB0
:1040E00007950026F54305950B9D02910A940996C4
:1040F0003DB10C9949198A1831460746059E089624
:104100000AE0142111AA059E3046FEF7B7FF069A71
:10411000464B08900C990D9F239805902298049087
:104120002098069007980660002F69D00D9731B14E
:10413000069850B10020109B58540E4617E00B987B
:104140008542039B05D2461B0CE040290E460BD24C
:104150000BE0029828B11E680B9830188542019B2D
:1041600005D30D9E402E00D340260A98C36C0C95B3
:104170000D461F4600930A980F991446334600F0E7
:10418000DBFE00284ED10B9828B9089831463A46F4
:10419000FEF774FF0890254B224655B1049868B18C
:1041A000109839463246FCF7BBFC58B909901F4BB2
:1041B0000BE00C9D7519002109911DE02946002096
:1041C000099004E0194B581D09902246294605988C
:1041D00050B10798006831463A46FEF74FFF29462E
:1041E0002246124B079C2060891B01D10B981218A4
:1041F0000C9D10988019109092190D9FBF1B93E78A
:1042000011460B980E9A0A9D18B91698089C84427C
:1042100009D1A86C491EB1FBF0F1491C4143116062
:10422000099B00E00346184617B0F0BD0201FF806D
:104230008366685470B51446856C1720B0FBF5F69C
:104240000846FCF7C1FC2018401EB0FBF5F0301802
:10425000801C684370BD0000F8B50646806DC84CF0
:10426000884232D117460D4602B973BB286860B345
:10427000A86AC0182969884201D9241D25E0686907
:1042800019463A461C46FEF7F9FE68612C20315C5F
:104290002A6A0097274630462346FFF7F7FD50B1BC
:1042A0000446306AA969EA69414011430DD030469D
:1042B00000F0E4FA09E0A86AC019296A0024C919C3
:1042C0002962A862686A604168622046F8BDC046FB
:1042D000F0B593B00446806DA94F884203D03E46A6
:1042E000304613B0F0BD0D4608680028F7D02869A5
:1042F000A96A0022814218D1A0680C902C200D9050
:10430000215C0E92AA69009518232046FFF7BEFD96
:104310000E9A0646114650B9A06901680969884796
:1043200090B11B373E460E9A00E03E1D11462A60B2
:104330000029D5D1A869E969226A42400A43CFD051
:10434000204600F09BFACBE7206AAA69E969504051
:104350000127084302D10026394680E00D98215CF0
:104360000FA80A9010A8099011A808900026079697
:10437000069605960496039612A80290F0430190C3
:10438000009620463346FFF753FE31460646002886
:104390000E9ACCD10B97A868002823D43420285C2F
:1043A0000D9F0C9EA0B12069EA6A90420AD9801A3A
:1043B000030110013118084610301A46FCF7B7FC0B
:1043C000EA6A2069401C206120460B9900F076FBC8
:1043D000E86A296B000131503018A969EA698160E7
:1043E000C26015E02069401E2061EA6A90420D9F7C
:1043F0000C9909D9801A03011001081801461031DF
:104400001A46FCF794FCEA6A0021204600F056FBAD
:10441000A06C296A491EB1FBF0F14A1C4243E261DB
:10442000E15D0FA80A9010A8099011A80890002635
:104430000796069605960496039612A80290019692
:10444000009620463346FFF7F3FD38B9E15DE26997
:10445000002600961823204600F044FB0B990E9A84
:1044600065E7C046F0B595B00D930C920C46074633
:104470002820385C8F49002847D0B8681090002069
:104480000B902C200F9008460E9400283FD06268B5
:1044900039698A423FD20F98395C1001109A10187E
:1044A00082683B6D11A80A9012A8099013A8089081
:1044B000002607960696059601200490039614A8F8
:1044C0000290019600963846FFF7B2FD18BB3D6D8D
:1044D000A46854B12046FCF777FB024628462146E3
:1044E000FCF794FB002873480AD12846FCF76CFBC4
:1044F0000D9988420DD20C982946FCF73FFB3046B7
:104500000E9C6168491C6160BFE7C81D03E00B9801
:1045100001E06848801E15B0F0BDC046F8B50E46F3
:1045200004462820215C164849B15EB15C34002560
:10453000102D06D0216831B1241D6D1CF8E70D3017
:10454000F8BD1F30F8BD0C20174601F00DF83946B4
:104550000746306069B1087858B108460E46FCF746
:1045600033FB401C00F0F2FFB8603146FCF706FB5D
:1045700001E00020B86000203D6078602760F8BD51
:104580000101FF80B0B505462820285C60B10C46CB
:10459000886800F0D7FF2068800028180025C565CE
:1045A000204600F0D1FF00E0014D2846B0BDC046D6
:1045B0000E01FF80F0B595B0044680681490002588
:1045C00013952561236A01200D902C200C902F4615
:1045D000E069834268D21E460C98215C236D13A8C3
:1045E0000A9010A8099011A808900D9807900695B8
:1045F0000595049003950FA802900195009520461B
:104600003246FFF715FD00284DD1226D11A801900B
:104610000EA8009012AB20462946FFF7C3FC0746C0
:1046200010B1244887423FD11098139B21498F42F3
:104630001DD100282F46CBD40B93E1682069884216
:1046400004D314A9204600F056F920690E9FC01B20
:10465000020138011499091808461030FCF767FB6D
:104660002069401C2061384600270B9B02E000288F
:1046700009D40E9800011499119A0A5008180021C3
:104680008660C160A4E72069401E20610E99401A2F
:104690000201080114990818014610311E46FCF762
:1046A00046FB334694E707461398E061384615B059
:1046B000F0BDC0460701FF80F0B585B004464069F3
:1046C0000168896B884706460F460025A563E563A8
:1046D0002564656460690168096B2A462B46884732
:1046E000029001915420049425547800F10F081889
:1046F000F90F014300D02F46F80709B10121CE0779
:1047000000967108081803907C08049E5436002710
:104710000398281A3846A04113D2049840690168CA
:10472000096B2A463B468847019A51400246029B44
:104730005A400A43511E8A413178114331702D1875
:10474000E6E70098401B04998F63CD630D644864CD
:1047500005B0F0BDF0B587B00546C8002818806BDD
:104760008418A8690168096B002722463B468847E0
:1047700005902E46A8690168496B8847401C09D0FE
:10478000B0690168C969059A0092019722463B46C3
:1047900088471CE006A8FF210170012004903B46D9
:1047A0002746059D03968DB1B06901688969059119
:1047B00004990091019306A93A461C46059EB0470C
:1047C00028B96D1E7F1C039E2346ECE7184607B0F0
:1047D000F0BDE0B50022009200F0D6F88CBD0000DC
:1047E000F0B587B0244F402A43D8144606460491BA
:1047F0000025009529462B4600F0C6F8A0B305A871
:104800004480082101800395E84302942146049ADC
:10481000FEF734FC06902C20305C0121081AC1B24E
:104820003046FFF70BFB074618BB039D022D1FD038
:1048300004980090ECB230462146039A029BFFF7A1
:1048400025FB98B905A80090402208233046214650
:10485000FFF71CFB50B9B069016809698847074632
:104860006D1C0028E2D004E0173702E0074600E0A4
:10487000039F384607B0F0BD0501FF80F0B585B055
:10488000044687682C26805D0125281AC1B220467F
:10489000FFF7D4FA68BB02960195206A616A0D1889
:1048A00003950495083700262069864210D20298A5
:1048B000215C3A6803A8009020462B46FFF7FAFADD
:1048C000B0B900203D6078601037761C039DEBE79F
:1048D0000495E561E06A0199081AE062208E401CA7
:1048E000208682B2002104AB204600F037F800E0B9
:1048F000049505B0F0BDFEB5029105460F2001906C
:104900000007EC68621C11468143501A411E884121
:10491000009201D1100101E00020C043AE6800F018
:1049200015FE0746240100190199C943611A4A1E60
:1049300091410901FCF782FA384631462246FBF7DD
:10494000B1FCAF600098E860304600F0FBFD0299D2
:1049500009B1A86808600020FEBD0000BFB511467F
:1049600002AA01245480118000210391046A456A3F
:104970002C191C6003685C69009102490823A04758
:1049800004B0B0BDE6FA0100F0B59BB0039302910C
:1049900007460024209804904020079008200690A5
:1049A0000594022C27D018A80090E5B23846294675
:1049B000079A069B00F0C0FAD8B918A80088082802
:1049C00015D118A84388402B11D808A80090384664
:1049D0002946059A00F0B0FA58B918A8418800266F
:1049E000F04308AAFEF74AFB1999884207D0641CD5
:1049F000D7E7064600E0124E30461BB0F0BD0298E5
:104A000020B118A94A8808A9FCF750F90399049B1A
:104A100011B118A840880860002BEDD0189819999A
:104A2000197118700A0EDA710A0C9A71090A597113
:104A3000010ED970010C9970000A5870DCE7C0466D
:104A40000701FF80FEB51E460546C8002818806B8A
:104A500084185420285C089F20B3019702960027F1
:104A60003E46A8690168096B32463B468847801973
:104A70007941201A3846884107D3A8690168096B33
:104A800032463B4688473618EBE7A01B029C206065
:104A9000A8690168096B0023324688472168401ADB
:104AA000019F09E0A8690168C96A8847B4FBF0F171
:104AB0004143611A3160401A3860FEBDB0B511B98A
:104AC0000021C94300E001215C239C2B08D0C4587D
:104AD00024B16568954201D96D1865601B1DF4E726
:104AE000B0BD0000F0B587B01F46164604910446DD
:104AF0000C98039000200290C7B106A8009005AB67
:104B0000204604993246FFF79DFF069DBD4200D323
:104B10003D46059808B1039929B1321A20460499F7
:104B2000FFF718FE20B97F1BAE19E5E7029800E0F9
:104B3000014807B0F0BDC0461C01FF80F0B593B03E
:104B40001E4615460C46074600F0D8FC60B30C958F
:104B50000EA801900DA80090002511AB38462946FB
:104B60002246FFF71FFA00BB199818990B912C21C8
:104B7000795C119A10AB0A930FAB09930EAB0893B3
:104B800007950695012305930495039012A80290BA
:104B900001960C98009038462346FFF749FA0B9A85
:104BA0001AB11299116000E0E24813B0F0BDC0469E
:104BB000FEB51D4616460A46044616B90DB1DD4837
:104BC000FEBD089821684F6A009002A920462B4636
:104BD000B84738B92068876A0299204632462B4682
:104BE000B84700B1FEBD2068C26A029920469047CE
:104BF000FEBDC046F0B599B001462820085C20B142
:104C000028310120087000263BE01020C86040F2E7
:104C10000010109100F09AFC044640F20011FCF7DD
:104C20000FF90027F843109948631098076110980E
:104C30008460402000F098FC10994969FEF7D0FE8E
:104C40001099886101688968884710990646D8B12B
:104C5000204600F077FC1099886918B1016849680E
:104C600088471099C86C0C4600F06CFC206D00F071
:104C700069FCA06D00F068FCA765E7642765A76183
:104C8000A760304619B0F0BD0C9448690168896A84
:104C900088470546109885644026304600F056FC4B
:104CA0001099C864802000F051FC109908653824E0
:104CB000204600F059FC109988652146FCF7BEF8A3
:104CC00010985C303146FCF7BBF84720B0FBF5F09C
:104CD000401C6843109908624C49082210980E92B3
:104CE000FFF7A8FA109948621098FFF7E5FC109BAF
:104CF0001C463C3413AE01200F900D97022F37D085
:104D000018A80025C55535802068596B884200D306
:104D1000084658631A6A17A80A9016A8099015A899
:104D2000089007950F98069005900495039514A890
:104D300002900E98019011A80090F9B21846F94B14
:104D4000FFF776F9324988420AD0002848D11198F5
:104D5000308018A90322CA55109B1886DF6203E031
:104D600018A80221C155109B0834B61C7F1CC5E74A
:104D700018A80078022817D003280D9F0C9C35D165
:104D800018A84078032831D113A84188139A521EDD
:104D900092B28A4201D300210F910F99D962490042
:104DA00040180088188621E018A8407802280D9F36
:104DB0000C9C1BD1002518462946FFF73FF801221D
:104DC000109802861098C56218A80270109B1C33B8
:104DD00010982946FFF7C2FD1099002800D10FE76F
:104DE000009529462A462B4605F082FF586BD8616C
:104DF0001846FFF7DFFB1099002800D100E70646B0
:104E00000348864200D1FBE622E7C046E6FA0100ED
:104E10000201FF80F8B504462820205C98B10025E7
:104E200001262F46F9B201290FD8A06C226A636AC5
:104E300000969A18131820462A46FFF753FE7F1C47
:104E40000028EFD0F8BD0C48F8BD00252561E562CB
:104E50002686206AE061A068E1680901FBF7EEFFA1
:104E600023461C33228E2046294601B0049CA646C8
:104E7000F0BC01B0FFF772BD0E01FF8070B50446B3
:104E80002820205C2546283578B1A0690168C968CA
:104E90008847A06910B1016849688847A068044E36
:104EA000B047E06CB047206DB0470020287070BD5F
:104EB000455500001CB5026854690122D2070092D2
:104EC00000221346A0471CBDF0B591B014460E4613
:104ED000074600F013FB50B30DA801900CA80090FA
:104EE000002510AB384629463246FFF75BF8F8B983
:104EF0002C20395C109A0FA80A900EA809900DA8D2
:104F00000890079506950595049503950BA80290C2
:104F1000E8430190009538463346FFF789F83CB1E5
:104F200030B90E980B9921606060284600E07B48FC
:104F300011B0F0BD0101FF80FEB59D18466B0A4C13
:104F4000B5420FD8089DC9004118896B8069066871
:104F500077690026009301968A1829463346B84798
:104F600000B904462046FEBD1B01FF80F0B58BB0A2
:104F70001C460F46054600260A9609960896079293
:104F8000114600F0BBFA654B109A65490A422FD1D1
:104F900070B305920694AC6D3C6062490798FBF7CC
:104FA00051FF614930B32068884206D12846FFF797
:104FB00065FC0746002800D0ACE028460799069A11
:104FC000FFF738F9E9690A18696B8A420BD904902E
:104FD0002846FFF753FC0746002800D09AE0E9690D
:104FE00004980A18696B8A4251D94C4F0A3791E0EC
:104FF0001F4690E0286A342100226254A061E261D9
:105000000992089213461146AF6C2363A662E262CE
:10501000454A22601722B2FBF7F2521C7A438018ED
:105020002062714161620598A06041486060079FFD
:105030003846FBF7C9FD06992161E681A081F0435E
:1050400014212246FEF71AF86061A1893A46FEF75C
:1050500015F860612C20295CA389226A00972846F4
:10506000FEF714FF50B10746286AA169E269414082
:1050700011434FD02846FFF701FC4BE0A089216A7D
:1050800008182062606A70416062374643E004900D
:1050900009A8019008A8009000210AAB28460391B6
:1050A000079AFEF77FFF07462048874212D08FBB42
:1050B0002C20295C0A9A009418232846FFF73CFF0D
:1050C000074638BB207AC007039B1F460FD0134FFB
:1050D00011371FE0059800281AD4E86829690127CC
:1050E000814203D300212846FFF705FC039B3420AF
:1050F0002754EA69A261E3612C20295C00932846C9
:10510000049BFFF7EFFCA069E169089A099B7BE724
:105110000248871D266038460BB0F0BD0101FF80B4
:10512000F4FFFF7FE6FA0100836668540701FF8001
:1051300018000100B0B50446002585650586C562E6
:105140008560C560056141611748083020602046D0
:1051500018301121FBF774FE204634302121FBF773
:105160006FFE0F20C04320B121188D64CD6408303C
:10517000F9E75C209C2802D02550001DFAE7204664
:10518000B0BDC04680B500F005F880BC02BC8E46BC
:1051900000F0DAB910B50446034808302060204614
:1051A000FFF76CFE204610BDECEA010001460068E6
:1051B00008B9086800B17047081D086070470120F1
:1051C0000021704710B52821415C002421B181697C
:1051D000001D00F0B5F900E02046214610BD10B5D5
:1051E0002821415C002429B181698918001D00F043
:1051F000A7F900E02046214610BDF0B589B008931C
:10520000144605468669C769001D00F097F900211C
:10521000301A07918F410019069008994F41059760
:105220000F9E0E9802900494071903964E41286829
:10523000816B284688470197C01BB14101D207986E
:1052400025E02868016B2846049A089B8847024697
:105250000B46069F3846059C2146FBF7E9F81343A9
:10526000079814D1002001994A1E86412868016BD5
:1052700028463346884702460B4602983818039959
:105280004C412146FBF7D4F813435842584109B02A
:10529000F0BD80B52821415C19B1001D00F04CF92A
:1052A00080BD0020C04380BD10B52821415C002492
:1052B00019B1001D00F03CF900E02046214610BD68
:1052C000026A416A1046704700A07047464C41533D
:1052D00048494150000000000120704711207047EC
:1052E000F0B585B01D46164604460068416A204662
:1052F000884702460B4630462946FBF799F80027B7
:10530000134321D1019603950B9D0A9E2068416AA3
:105310002046884702460B460296304604952946A9
:10532000FBF786F813430FD1029801994618049DA4
:10533000039845412068816B20468847801BA9411E
:1053400001D2002700E00127384605B0F0BDF8B5CE
:105350001C46164605460068016B284688470246EB
:105360000B4630462146FBF763F8134301D0002675
:105370001BE0079806998F19444100267A1E2346A0
:10538000B3412868016B2846884702460B463846D9
:105390002146FBF74DF8134307D12868816B284657
:1053A0008847C01BA141E2D301263046F8BDF0B5C5
:1053B00085B01D46164604460068816A2046884727
:1053C00002460B4630462946FBF732F800271343C6
:1053D00021D1019603950B9D0A9E2068816A204683
:1053E000884702460B460296304604952946FBF74D
:1053F0001FF813430FD1029801994618049D039892
:1054000045412068816B20468847801BA94101D215
:10541000002700E00127384605B0F0BD012000213B
:1054200070473821415C19B140680168C96A084772
:105430000020014670473821415C19B1406801687D
:10544000096B084700200146704700003821415C85
:1054500019B140680168496B084701487047C04668
:105460005FF0FFFF01200021704701463820085CF3
:1054700010B18869C96970470020014670474068CB
:105480000168896C08470000FEB5007A029000931D
:105490001F680F2420070190174E4AB30D78029819
:1054A000B0B92DBA2B01019805402D09EB18332511
:1054B000280618408000AD061D40AB08181855237B
:1054C0001D0605406D005B06034058084019050E97
:1054D00028097D402B079B0EF3583D095D402B09A1
:1054E00025404540A80037585F40491C521ED4E76C
:1054F000009807600020FEBDA8E90100B0B50024B7
:1055000069B10D46087850B12846FBF75DFB80284D
:1055100005D804A12846FBF7CFFA4442444120466F
:10552000B0BDC046202A2F3F3A3B227C3C3E5C0067
:1055300035F09ABD35F0A0BD35F092BD35F0A0BD77
:1055400035F096BDFAF715BFFAF713BF1CB5044640
:10555000FAF7DEFE00B11CBD002100910948224689
:105560000B4605F0C5FBC0461CB50446FAF7D0FE55
:1055700000B11CBD00210091024822460B4605F0F7
:10558000B7FBC0461F010180BFF34F8F034804499A
:105590000160BFF34F8F00BFFDE7C0460CED00E098
:1055A0000400FA0570467047012070470278032313
:1055B0001A400021012A07D002781340012B03D0A2
:1055C00002210A4302700121084670470178FC223B
:1055D0000A40511C01707047F8B51E4614460F462C
:1055E000054604F081FE781C0ED02846314604F0B2
:1055F000EBFE0121284604F021FE28462146F8BC96
:1056000004BC964604F084BEF8BD80B505F002FBEC
:1056100080BC01BC864605F00FBC0000FFB500232E
:10562000002858D0002956D044692546463D882D8B
:1056300051D803680193071DA8CF284E77430097E0
:1056400040F610676F433C255D43039202911AB9FF
:10565000C82C01D1002303E0032626407342734186
:1056600030265E431E4B9B19006980001858019933
:105670004B19DB1900995A1810181A4A8018CE2CA9
:105680000CD100230399029E11B9174A904222D8E7
:10569000012907D1154A90421DD803E0472C0399F0
:1056A000029E16DB1122D3435D1CC82C00DC2B4666
:1056B00001B12B4640F26D126243641E042594FB37
:1056C000F5F41219D21846F2CE33D21A03495143D7
:1056D000401830600123184604B0F0BD805101002D
:1056E0005CF4010080AEFEFF7F223100FFD02F006E
:1056F00001F080B9FEE710B5FDF766FE28B101683C
:10570000896A8847002802D410BD092400E0444279
:10571000FAF7E4FD04600020C04310BD05F0C5B8F1
:10572000B0B50D4604462149FBF78CFBB8B12049C2
:105730002046FBF787FBA0B11E492046FBF782FB02
:1057400088B12078402814D16078A178090208181F
:10575000E17822791202511809040C1807E000249C
:1057600002E0012400E002242046FDF72DFE204641
:10577000B0BDA80706D4680706D42807C1170920BA
:10578000084002E0022000E001202907890F02D032
:1057900040F200214018290240F200420A408118DC
:1057A0002046B0BC04BC96460FF062BE40EB010040
:1057B00047EB010038EB0100002205F0F1B910B50C
:1057C000002A07D4144662B1224616F004FC0028D1
:1057D00008D503E0FAF782FD162101600020C043DE
:1057E00010BD0020201A10BDE0B501A908700120ED
:1057F000024616F0F0FB8CBD10B503680024591862
:10580000016010786041107010BD10B5891A002336
:10581000DCB2A14203D9A41801555B1CF8E710BD06
:1058200005F044BB05F095BB05F0C7BB10B50120E2
:1058300040F21811FAF756FD044610B1204605F063
:10584000D0FB204610BD10B5044605F0C4FB204631
:1058500010BC02BC8E46FAF78CBD05F0C9BB05F042
:1058600035BC0000BCB50524092936D8054688009A
:1058700001A318188746C04600F012B800F012B80D
:1058800000F012B800F01DB800F027B800F025B8FD
:1058900000F023B800F021B800F015B800F018B8F7
:1058A000042116E005210FE003CA01AA04F0A6FCBA
:1058B00098B9019A032100242846234600F0A3FB4F
:1058C0000BE0012105E00221284600F08BFB03E0FC
:1058D0000621284600F0A7FB00242046BCBD484214
:1058E0004841800070470000F0B5CFB0144606462E
:1058F0004068242804D13068076A2020706000E0E6
:105900000027009107223A400620C34309A83946E0
:1059100000F0C6FB18B101281CD005277CE1C04D62
:10592000A91C09A8324600F05DFB780000D56BE1A8
:1059300000264D964C964E964BA94EAA304600F046
:10594000C3F9012808D14E98001D4C904BA800883F
:10595000071F0BE002275FE1202742A9384615F018
:10596000C3FA08B1032708E042A84C904D97A91D3F
:1059700009A84CAA00F036FB0027002F00D04BE10D
:105980004CA815F0F1F8429030B14C98439009A81A
:1059900042AA294600F047FB4CA815F0B3F8429004
:1059A00038B14C98439029460A3109A842AA00F020
:1059B0003AFB21204E904EA842A915F055FB08B1A4
:1059C000032709E042A84C904E984D90691C09A805
:1059D0004CAA00F007FB0027002F00D01CE112208A
:1059E0004E904D964C964B9601273CA94BAA3846B3
:1059F00000F06AF90128079706D14B98001D4C90DA
:105A00003CA80088001F09E04EA842A915F06EFAD4
:105A100008B1032709E042A84C904E984D90691DAB
:105A200009A84CAA00F0FFFA0027002F00D0F3E0ED
:105A300020204E904EA842A915F05AFA08B103272B
:105A400009E042A84C904E984D90E91D09A84CAA37
:105A500000F0C8FA0027002F00D0DDE042A800F0D7
:105A60002DF908B10746D7E0429A29460931D317E4
:105A700009A800F0C8FA4C9602204EA94CAA00F0E2
:105A800023F901280BD14EA801884C98001D091F4D
:105A900042AA04F0B3FB48B942A8028802E015F01C
:105AA00037F8024646F20000824201D9052706E097
:105AB0002946083109A800273B4600F0A4FA002F28
:105AC00000D0A9E0F043029005960798072800D17E
:105AD00087E03C960790C7B23BA93DAA3CAB38464D
