:020000040000FA
:10000000481C0020992B0100F1160100CF2A0100A5
:1000100000000000000000000000000000000000E0
:100020000000000000000000000000000D2C010096
:100030000000000000000000F1160100F1160100B0
:10004000752C01007B2C0100F1160100F116010056
:10005000F1160100F1160100F1160100F116010080
:10006000812C0100F1160100F1160100872C01001E
:10007000F11601008D2C0100B9020000FF81000083
:10008000F1160100F1160100F1160100F116010050
:10009000F1160100F1160100F1160100F116010040
:1000A000932C0100992C0100F1160100F1160100BA
:1000B000F1160100F1160100F1160100F116010020
:1000C00000F002F812F04FFD0CA030C808382418D8
:1000D0002D18A246671EAB4654465D46AC4201D180
:1000E00012F041FD7E460F3E0FCCB646012633424C
:1000F00000D0FB1AA246AB46334318475C2C0100E4
:100100008C2C0100103A02D378C878C1FAD8520773
:1001100001D330C830C101D504680C6070470000BD
:100120000023002400250026103A01D378C1FBD813
:10013000520700D330C100D50B6070471FB5C046D1
:10014000C04612F093FC04B00FB41FBD826902498F
:100150008161024810447047610100000100000005
:1001600001B41EB400B50FF067FE01B401988646D5
:1001700001BC01B01EBD0000F0B4404649465246E5
:100180005B460FB402A0013001B50648004700BF2E
:1001900001BC86460FBC8046894692469B46F0BC11
:1001A00070470000C1000000401E00BF00BF00BF3C
:1001B00000BF00BF00BF00BF00BF00BF00BF00BF47
:1001C00000BFF1D17047000070B505460C461646D9
:1001D00002E00FCC0FC5103E102EFAD2082E02D32B
:1001E00003CC03C5083E042E07D301CC01C5361F3E
:1001F00003E021782970641C6D1C761EF9D270BD55
:100200008307FF22DB0E9A408907090E99400028D8
:100210000BDA0007000F0838830828489B001B18DA
:10022000D86990430843D8617047830824489B00ED
:100230001B181868904308431860704710B50446AF
:1002400000210120FFF7DCFF00211820FFF7D8FF75
:1002500000210B20FFF7D4FF02211920FFF7D0FF68
:1002600002210D20FFF7CCFF02210E20FFF7C8FF6F
:1002700002210F20FFF7C4FF0221C81FFFF7C0FFB4
:1002800003211620FFF7BCFF03211520FFF7B8FF5D
:10029000204600F019F8002010BD49210180704768
:1002A00010B500F04FF810BD0648704710B500F0CB
:1002B0004AF810BD704770477047000000ED00E03D
:1002C00000E400E003F900C330B50546384C95B0B2
:1002D00006202070A01CFFF7E0FF5920A0803548C1
:1002E00061880069344A80B2D269344B120C98425A
:1002F00004D18A4208D032A1B42003E0884203D05E
:100300002FA1B72012F0DDFB334802F057F9044665
:10031000072000F0D7F92146254800F015FA6D1E98
:10032000072D0AD8302168460170857001F0CCF99C
:10033000002802D009A800F065FC204601F0BBFAB5
:1003400015B030BD704710B50C46014660390B2919
:1003500003D8214601F01CFF06E001466C39032951
:1003600004D8214601F047FF206010BD01467039D6
:100370001F2903D8214600F03FF8F5E701469039E0
:100380000F2903D8214600F0C1F8EDE70146A03956
:100390000F2903D8214600F029F9E5E70146B039D5
:1003A0000F2903D8214600F006F9DDE70120DBE73D
:1003B000140000200010001040000010FFFF00009B
:1003C0007372635C636F72655F66756E6374696F89
:1003D0006E732E63000000006D1C000070477047B4
:1003E00070477047704770477047704710B50128D5
:1003F00001D100F0CEF910BD10B57038030012F035
:1004000065FC150C10141C20232A31363B3F434752
:100410004E535A626A72797E8300086803F0FDFBCE
:1004200010BD086803F050FC10BD0C790B7B8A6886
:100430000868214603F06EFC10BD086803F0E8FC74
:1004400010BD03F0BAF910BD08884A6880B21146A1
:1004500003F06CFE10BD0A790888114680B203F0E3
:10046000BCFE10BD087840B203F0C7FE10BD08887E
:1004700080B203F0E3FE10BD086803F0F2FE10BD89
:10048000086803F00AFF10BD086803F036FF10BDCE
:10049000088982B209C9194603F061FF10BD05C978
:1004A000114603F0B0FF10BD08884A6880B21146BB
:1004B00003F0CEFF10BD0B7908888A6880B2194618
:1004C00004F010F810BD0B7908888A6880B21946CC
:1004D00004F0B9F810BD08884B688A6880B21946E4
:1004E00004F0FAF810BD08884A6880B2114604F09A
:1004F00045F910BD088880B204F05EF910BD088887
:1005000080B204F07CF910BD012010BD10B5903808
:10051000030012F0DBFB09060F161D242C363F46A4
:100520004E0088888A6883B20888194680B204F031
:1005300030FD10BD08884A6880B2114604F086FD7F
:1005400010BD08884A6880B2114604F0C9FD10BD8C
:1005500008884A6880B2114604F0FFFD10BD088883
:100560004B688A6880B2194604F030FE10BD0889D5
:1005700082B2888883B20888194680B204F065FE8A
:1005800010BD08894B6882B20888194680B204F011
:100590009AFE10BD08884A6880B2114604F0CAFE6F
:1005A00010BD888882B20888114680B204F05EFFD0
:1005B00010BD012010BD10B5B02805D0B12808D05D
:1005C000B2280BD0012010BD088880B205F042FA95
:1005D00010BD088880B205F06DFA10BD08884B6820
:1005E0008A6880B2194605F076FA10BD10B5A038B9
:1005F000030012F06BFB0B070E172028323C434D13
:10060000545D65004B6808788A68194606F090FDCD
:1006100010BD88888A6883B20888194680B206F0BF
:100620009CFD10BD08884C68CB688A6880B2214662
:1006300006F0A3FD10BD08884B688A6880B2194691
:1006400006F0BDFD10BD8888CB6884B208888A6832
:1006500080B2214606F0DDFD10BD8888CB6884B2EB
:1006600008888A6880B2214606F0E3FD10BD08883C
:100670004A6880B2114606F00BFE10BD088982B2AE
:10068000888883B20888194680B206F00BFE10BD38
:1006900008884A6880B2114606F024FE10BD088919
:1006A0004B6882B20888194680B206F0A1FE10BDE0
:1006B00008884B688A6880B2194606F05EFF10BD54
:1006C000012010BD10B507F09BF80FF0CFF907F02F
:1006D00049FD0FF01DFB07F0B3FD07F0D1FC10BD85
:1006E0001CB50446002069460870204608F020FD2D
:1006F0006946204608F0DEFB002803D1FBA1B120AB
:1007000012F0DFF901A9204608F033FB002803D1DD
:10071000F6A1B62012F0D5F9684600781CBD70B578
:10072000F74D002428462C7620308471C47112F0D5
:10073000DBFA284640380470203084738474847651
:100740002C74AC7070BDEAE710B50C46ED49828898
:100750008A8042884A800078087008460A38847087
:1007600008F0DDFAFFF7DBFF204609F01FFDE44A41
:10077000E0321146383908461446813808F04AFDFF
:100780002146E0480AF0FDFF08F0C9FC12F0ACFA7F
:1007900010BD10B50120FFF721FE10BDF8B509F01E
:1007A0004CF9D84DD64C0A3D022802D0207C0028B6
:1007B0007CD0207E0026102819D1A078002803D0F4
:1007C000CAA1D14812F07DF9CD48E838817A89076D
:1007D0000DD50146267160398989E180C17A21727F
:1007E00081896181C089A0810120A0702676C44FD3
:1007F000203FB87C002859D1C4486946808908F058
:1008000059FB002805D06946687809784018687057
:1008100004E0C520B5A1C00012F053F9207C0028E7
:1008200038D0BA488189FF300930406D80898142D3
:1008300004D0B548ADA1223012F043F9B348808905
:1008400008F0DEFB002804D1AF48A8A1283012F040
:1008500038F908F04CFC00281CD0AC488089FFF720
:100860003FFF697840186870A5484038416D2031D5
:100870000A7C012A0DD1A54A3E779289C287487C1D
:1008800020700120B876207E102801D0282800D1C1
:10089000267626746978002908D09C488289FF3022
:1008A0000930C28601870120B8746E7009F0BAF869
:1008B000002805D1207C002802D0A87801F0A2FEF3
:1008C000F8BDF8B50F460446FFF768FF8C4D403D74
:1008D00028788B4E002813D0002F10D1307E0028AE
:1008E00004D0FF2081A1BE3012F0EBF82C22A91C0D
:1008F000204611F049FF0E202070002028708FE064
:100900007F4D203DA87B002818D0002FF7D1307EE6
:10091000102808D0282806D0002804D0FF2073A172
:10092000CA3012F0CEF80120E070E87BA070287C7D
:1009300060700F2020700020A87371E00121204614
:1009400008F00EFC002807D0307C002851D1394631
:10095000204608F005FCF8BDA97C69480C380090D9
:1009600068480A38002913D00178052910D2002FD1
:1009700056D1491C0170002666700D2020700120A0
:1009800028750622A01C009911F0FEFEAE7447E007
:100990005C4800210A380170B078002814D0002F7C
:1009A0003ED1307E002803D050A1594812F089F87A
:1009B000002565700120524920700A22091DA01CE3
:1009C00011F0E2FEB5702BE0394620460AF046FEF3
:1009D000002825D1A87C002805D0002F20D1494827
:1009E0000A380178C5E7A87E002802D0307C0028AC
:1009F00001D00020F8BD002F12D1307E002804D095
:100A00008D203AA1800012F05CF8002666700A2062
:100A10003B4920700622091FA01C11F0B5FEAE76DE
:100A20000120F8BD10B53648017E002908D1007CB0
:100A3000012805D001210020FFF743FF002801D045
:100A4000072010BD012010BD10B5012409F0F8FBEE
:100A50000443FFF7E7FF044308F062FB014621432C
:100A6000084610BDF8B51D4614460E4608F0A1F91B
:100A7000002807D0684608F0A7F9002803D0002C0A
:100A800007D101E00120F8BD992018A1800012F0E3
:100A900018F808F045F9A04204D21D4813A15830B7
:100AA00012F00FF8009807F0B9FD3146009807F0F2
:100AB000C7FDE2B22946009807F07EFF08F096F9DC
:100AC000002804D19D2009A1800011F0FAFF08F050
:100AD00029FB0E4800244030C17B002902D0C4739A
:100AE00009F080FC0948C480CCE700007372635CA5
:100AF0006C6C5F6374726C2E73302E6300000000A8
:100B0000E0020020240000200B06000098010020D5
:100B10000D02000010B50179002907D001290AD083
:100B2000F749FE2011F0CDFF002010BD831D428843
:100B30000488022103E042880488831D01212046A5
:100B4000FFF790FF10BDF8B51F4615460E46044648
:100B500008F073FF022803D0EA48007C00281FD069
:100B6000E9488089208008F04BFA002803D1E44945
:100B7000E64811F0A6FF0524684608F04CFA002864
:100B80000ED0009807F094FD3070022809D001289B
:100B900007D008F080FA641E2406240EECD1002051
:100BA000F8BD3946009807F01FFF2880002804D1BF
:100BB000D648D349123011F084FF08F06CFA0028AF
:100BC00004D1AF20CE49800011F07BFF0120F8BD99
:100BD00038B50446831D821C6946FFF7B4FF002820
:100BE0000DD00020607168460078012808D00228E6
:100BF00006D0FF20C249203011F063FF012038BD2C
:100C00002071FBE700215CE670B5BE4C0546403C18
:100C10002078002803D1BB48007E002803D0B849C3
:100C2000BB4811F04EFF287808F093FB28780AF0B3
:100C3000EEFE00202071012060713921E1702070EA
:100C400070BD70B5AF4D0446403D2878002803D1F3
:100C5000AC48007E002804D0AD48A949183811F0EE
:100C600030FFA94E2188B089884203D108F0E5FE03
:100C7000022807D002202871012068713821E9700C
:100C8000287070BD7F2070769F48E1782030C17356
:100C9000A17881730020EEE710B59A4C403C207893
:100CA000002807D19748007E002803D108F0C5FE30
:100CB000032804D161209249C00011F002FF91493C
:100CC00000202031C8712071012060713A21E1704B
:100CD000207010BD70B58B4C0646403C2078002833
:100CE00007D18848007E002803D108F0A6FE03281B
:100CF00004D186488249783011F0E3FE814D2035D9
:100D0000E87908280CD2E87910220001001968302F
:100D1000314600F09FFDE879401CE871002000E0BA
:100D200007202071012060713B21E170207070BDAF
:100D3000F8B5744C0546403C2078002803D1714832
:100D4000007E002804D072486D49443811F0B9FE85
:100D5000A878002801D0012804D1A888FF21F53106
:100D6000884204D96A4866493E3811F0AAFE664EA8
:100D70002988B089884203D108F05FFE022807D095
:100D800002202071012060713621E1702070F8BDD1
:100D90005D48002720308772A988B185012131760E
:100DA000A978012900D00021817257484030C07BCA
:100DB000002801D009F016FB2771E3E770B5514C0C
:100DC0000546403C2078002807D14E48007E002888
:100DD00003D108F032FE002804D04D484849673856
:100DE00011F06FFE287809F02EFA00202071012002
:100DF00060713021E170207070BD70B5414C0546C6
:100E0000403C2078002803D13E48007E002804D0D2
:100E10003F483B490D3011F054FE287800280BD094
:100E2000012809D0022807D06878402804D3384820
:100E30003349143011F045FE284608F0F6FD00282D
:100E400001D0002000E00C202071012060713421CD
:100E5000E170207070BD70B52A4C0546403C20788A
:100E6000002807D12748007E002803D108F0E5FDBF
:100E7000002804D0264822495C3811F022FE297847
:100E8000002914D00A2912D0142910D01E290ED0FE
:100E900028290CD032290AD04B2908D0642906D041
:100EA000FF2904D01A481649503811F00AFE284686
:100EB00009F028FA00202071012060713321E170CF
:100EC000207070BD70B50F4C0546403C207800285E
:100ED00003D10C4A107E002804D00D48084975380B
:100EE00011F0EFFD062229460A4811F04DFC0020C2
:100EF0002071012060713221E170207070BD00000E
:100F0000EC0A0000E002002098010020A30200008B
:100F1000910500001D00002070B5F84C05462078B2
:100F2000002804D120464030007E002803D0F44938
:100F3000F44811F0C6FD00216956042914D0002997
:100F400012D0081D10D0001D0ED0001D0CD0001DA9
:100F50000AD0001D08D00A3006D0283104D0A120C4
:100F6000E749C00011F0ADFDE74829780170012084
:100F700060713121E1702070C0E710B5DF4C20783E
:100F8000002804D120464030007E002804D067208D
:100F9000DB49000111F095FD07F0C2FEE08007F08B
:100FA00087FF207200202071012060710521E1700F
:100FB000207010BDF8B5D14C07462034A07B2546E3
:100FC0002035002805D1287E002802D1A8780028E5
:100FD00004D0CC48CA492A3811F073FD08F02DFD21
:100FE0001026022822D1C9483988808988421DD11B
:100FF000C249483908460A7F6038807A002A03D0FF
:1010000080070CD40C200CE0800708D40620087759
:10101000BE484030C07B002801D009F0E3F92E76AD
:101020000020E07326740120A073F8BD0220F8E7C9
:1010300010B5B24C2078002804D120464030007E04
:10104000002804D0AF48AE493C3811F03AFD0020EA
:1010500020710E20A0700F20E070FF20A0710020F2
:10106000C0432081AA480178A1728188A18140886B
:10107000E08101206071207010BD10B59F4C207878
:10108000002804D120464030007E002804D0DB2018
:101090009B49800011F015FD0821A01D0EF082FD76
:1010A00000202071012060712B21E170207010BDA3
:1010B00070B5924D04462878002804D12846403067
:1010C000007E002804D0B7208D49C00011F0F9FC43
:1010D0008E4810222146303800F0BCFB8B4810228D
:1010E000A118203800F0B6FB884830380EF061FEB9
:1010F0008649102210392C46A81D00F0ABFB0020B9
:1011000020710E20A0702A20E070012060712070F4
:10111000F4E6F8B5794C05462034A07B2646203607
:10112000002802D1307E002804D076487449DC388B
:1011300011F0C7FCA978052912D0132910D0142961
:101140000ED015290CD01A290AD0292908D03D29FA
:1011500006D03B2904D06B486949D43811F0B1FC62
:1011600028886C49884204D966486549CB3811F013
:10117000A8FC08F062FC0C212827022809D163484A
:101180002A888089904215D15C484838027E002A1E
:1011900001D0E17310E0A97841760121017637761C
:1011A0000020E07359484030C07B002804D009F08B
:1011B00019F901E00220E07327740120A073F8BD43
:1011C00070B54E4C05462078002804D122464032A6
:1011D000107E002804D083204949C00011F071FC22
:1011E0004648294660300622054611F0CDFA012016
:1011F000A8710021217160711721E17020707DE6D6
:10120000F0B5414F85B0403F3D7A06463B480078F7
:10121000002804D13846A038007E002803D0384981
:101220003D4811F04EFC3078002806D0012804D04B
:101230000D203349800111F044FC082D39D2324889
:1012400020380190C469307800282CD0012804D0BF
:1012500031482B490F3011F034FC29460831012068
:10126000884004430120A84020430090B179234CDA
:1012700008027279690009191043FF310131888130
:10128000B01C11F0E2FA717800020843A9000919B4
:10129000C031C862387A401C387201990098C86120
:1012A0000020207108E0294608310120884084434D
:1012B000D8E7124807210171012110480B22417122
:1012C000C270017005B0F0BD10B50C4C207800283C
:1012D00004D120464030007E002804D00E48084942
:1012E0000E3811F0EEFB11F0FFFC00202071012000
:1012F00060710A21E170207010BD0000A002002082
:10130000EC0A000006050000C00300209801002040
:1013100024000020FF0E00003F03000010B508F07D
:101320000AFF002803D0FC49FC4811F0CAFB07F073
:10133000F5FE07F0D8FC0AF016FA002804D0F748AA
:10134000F5490E3011F0BDFB07F039FF002804D03D
:10135000F248F149123011F0B4FB11F0C5FCF0482D
:1013600000240470FFF7DBF9EE480121047141719C
:101370000222C2700170BFE770B5EA4D04462878BA
:10138000002804D128464030007E002804D0EF20F9
:10139000E149800011F095FB20781F2801D8601CDE
:1013A00004D1DE48DC49DE3011F08BFB00202871CF
:1013B0002078611C07F0BCFF012068712021E970D2
:1013C00028709BE5F8B5D74C054620782646403670
:1013D00000280CD1307E002809D108F02EFB00280F
:1013E00002D1307C002807D0287800280ED0CB48C6
:1013F000C949EB3011F065FB2878012806D0002898
:1014000004D0C648C449F03011F05BFB0120607184
:1014100028780027C44D01280BD0002008F074FE66
:10142000002844D00C2020711B20E0700120207087
:10143000F8BD0C20207107F003FF0028F4D0BA4853
:1014400002210C300EF037FB002806D00F21A889AE
:10145000090211F013FAA98100E0AF8101220321F2
:10146000B14807F0E9FAB04808F051F8A88907F048
:1014700059FC002803D1A849AC4811F022FBA889E7
:10148000002107F053FE002804D0A848A249001DFF
:1014900011F017FB317F708B08F0D9FE002804D0C3
:1014A000A2489D49083011F00CFB2771BCE7277159
:1014B000307C0028B8D1A889FFF712F9B4E770B5DD
:1014C000984D04462878002804D128464030007EF4
:1014D000002804D0954890493B3811F0F2FA207862
:1014E0001F2801D8601C04D190488B493A3811F06C
:1014F000E8FA002028712078611C07F02DFF0120F8
:1015000068711A21E9702870F8E4F8B5854D044631
:1015100028780C272E464036002806D1307E002839
:1015200003D108F08AFA032804D16F207A49C00059
:1015300011F0C7FA6079002801D001282FD1A079D5
:10154000002801D001282AD1A07B002805D001283D
:1015500003D0022801D0032821D1607B40071ED090
:10156000618801208003814202D82288824201D909
:1015700020790CE02079002804D0022805D0032827
:1015800003D004E0202904D209E0A02A01D20128D6
:1015900005D12088884207D92079012804D06348E2
:1015A0005D495F3811F08DFA20887083207930779B
:1015B0006079002802D0012803D00CE05C4A0021A9
:1015C00005E0584A60329079002804D00121204675
:1015D00007F03AFE074601202F7168711821E97063
:1015E0002870F8BD70B54F4C05462078002804D10E
:1015F00020464030007E002804D04C484649B63092
:1016000011F05FFA08F019FA0C2102280ED14648B1
:101610002A8883899A4219D10246C032137F002B4F
:1016200004D1807E0E2803D00F2801D0217103E061
:1016300005201077002020710E20A0702E20E07071
:101640002888E08001206071207057E40220F2E7D2
:1016500070B5344C05462078002804D1204640302F
:10166000007E002804D031482B498A3011F029FA35
:1016700008F0E3F90C2102280ED12B482A8883892F
:101680009A421FD10646C036327F002A04D1807E9E
:101690000E2803D00F2801D0217109E02148102223
:1016A000A91C1E3811F070F804203077002020713A
:1016B0000E20A0702D20E0702888E080012060714D
:1016C00020701BE40220F2E710B501780B0011F046
:1016D000FDFA3C90904590906590909090484B908A
:1016E00090905E619090909090904F3590393D90A1
:1016F00090909041909090909090905390575B90E4
:101700001F319078686C7074907C90878B84809087
:10171000801CFFF79DFF6AE0EC0A0000DF0200007A
:10172000C0030020A002002098010020E90300006F
:101730001D000020801CFFF755FF58E0801CFFF7BC
:10174000E4FE54E0801CFFF7BAFE50E0801CFFF777
:1017500039FE4CE0801CFFF70FFE48E0FFF7DEFD8E
:1017600045E0FFF7B1FD42E0801CFFF749FD3EE098
:10177000801CFFF725FD3AE0801CFFF7CAFC36E02D
:10178000801CFFF795FC32E0FFF777FC2FE0FFF7B6
:101790004FFC2CE0801CFFF70DFC28E0FFF7EDFB71
:1017A00025E0801CFFF7B8FB21E0801CFFF78AFBD7
:1017B0001DE0801CFFF74FFB19E0801CFFF71DFBAD
:1017C00015E0801CFFF7FAFA11E0801CFFF7B0FA71
:1017D0000DE0801CFFF77EFA09E0FFF75DFA06E0F6
:1017E000801CFFF72EFA02E0801CFFF70DFA0120A3
:1017F00082E5002080E510B51D491E4811F061F911
:101800007AE570B51D4A012411461B4D4031030095
:1018100011F05CFA05191C1C04191C00012200219E
:10182000154807F009F91548002148380177417734
:10183000C03808F068FD002804D00E480C49D330A9
:1018400011F03FF964E40C74556561E46D200849BA
:101850000001F5E730B5134606E0CC18203CE47FE4
:10186000D51A44555B1EDBB2002BF6D130BD00000B
:10187000EC0A0000CA05000098010020A002002028
:1018800010B5030011F022FA070805080B0B0E0E25
:10189000110003F0FAFF10BD01F0BAFF10BD0BF00C
:1018A0009BFF10BD0DF004FE10BDFF20F8A17D30A0
:1018B00011F007F910BD7FB5F94AFA4C51689268EA
:1018C0000192009120700823F74A1946F7480EF05C
:1018D00093FB0025F6480EF0ADFB6D1CEDB2072D15
:1018E000F8D3F1490320803140020BF0C7FF0028F4
:1018F00003D0E7A1912011F0E4F81E220221ED4867
:101900000AF077FBEB481E22032110300BF0EBF8B6
:10191000E8480722342174300AF0C4FAE5484C2123
:10192000283010F090FFE3496A46743108464C387D
:101930004164FF317B31816401211172039002F017
:1019400016F902A80CF0CCFA002803D0D0A1A520EB
:1019500011F0B7F8D54802222421A8380AF0A2FADB
:10196000D24802222C215C380AF09CFAD2490B2082
:101970000DF08AFE002803D0C5A1B22011F0A1F815
:1019800003F070FF03F076F904F0D6FD6B46CB4A06
:101990000821CBA002F04BF8002803D0BCA1B9204D
:1019A00011F08FF8012005F0C8F8002803D0B8A185
:1019B000BB2011F086F87921C900C44810F043FF1C
:1019C000C249B74A0020135C0D18401CC0B2EB702E
:1019D0000428F8D3002060606070A0707FBD70B5EF
:1019E000BB4E0546706A94B00C46401C04D1B06AE8
:1019F000C0430004000C0BD0306AC007C00F287031
:101A0000706A10F033FFB06A2071000A607113E051
:101A10002B206946087009A968460AF089FA00284F
:101A200003D09BA1DF2011F04CF801202870062282
:101A30000AA9204610F0A8FE2878002815D0607961
:101A4000C0210843607117206946087000A806226B
:101A50002146023010F098FE09A968460AF068FA9B
:101A6000002816D08AA1F42011E0322069460870BF
:101A700000A806222146023010F086FE09A9684619
:101A80000AF056FA002804D0FF2081A1013011F09D
:101A900018F814B070BDF0B58D4C0646206895B0AE
:101AA0000D463746401C0837002808D16068401CA6
:101AB00005D1A068401C02D1E068401C11D020680C
:101AC000314610F0D3FE6068311D10F0CFFEA068E3
:101AD000394610F0CBFEE06831460C3110F0C6FEFE
:101AE00025E02B206946087009A968460AF020FA0B
:101AF000002804D0FF2066A1203010F0E2FF082269
:101B00000AA9304610F040FE2B206946087009A94A
:101B100068460AF00DFA002804D0FF205CA12730A7
:101B200010F0CFFF08220AA9384610F02DFE2069D8
:101B30002E46401C0836002808D16069401C05D19B
:101B4000A069401C02D1E069401C12D020692946DE
:101B500010F08CFE6069291D10F088FEA0693146E6
:101B600010F084FEE06929460C3110F07FFE15B0BC
:101B7000F0BD2B246846047009A90AF0D9F90028A1
:101B800004D0FF2042A1453010F09BFF082209AF8E
:101B90000AA9284610F0F8FD6846047009A90AF061
:101BA000C7F9002804D0FF2039A14C3010F089FF7C
:101BB0000822391D304610F0E7FDD8E710B50021A6
:101BC00008460EF0ECFA002101200EF0E8FA0021A0
:101BD00002200EF0E4FA002103200EF0E0FA0021CA
:101BE00004200EF0DCFA002105200EF0D8FA10BD1A
:101BF00010B5364CA0780A2804D3FF2024A19630D3
:101C000010F05FFF20786021484300190830002160
:101C100001704178E722C908C900C91C1140417010
:101C2000204A0121517010BD70B51E4C607800280B
:101C30000ED0264800250178491CC9B201700A2936
:101C400000D105708178491C81700EF072FB6570BF
:101C500070BD70B5134C05466068002804D0FF20A5
:101C60000BA1BF3010F02DFF656070BD70B50D4E3B
:101C7000164DFFF7BDFF7168044600292AD0602287
:101C8000FEF7A2FAFFF7D0FF00207060F1E7000036
:101C90007372635C686F73745F636F72652E630049
:101CA000F82C01002C000020C40300206C1100203F
:101CB00081180000440A0020141000203412000093
:101CC0006E52463531383232000000004C0C002094
:101CD000800000102879002852D0FE480AF0F2F85F
:101CE0006060002804D1FF20FB49DD3010F0E9FEE0
:101CF00060680AF045F9002810D0204601F0A5F8E8
:101D00006078010707D5C008C000401C60702879C2
:101D1000401E287126E0EF48616829E0ED486168BF
:101D20000AF0D9F8687900282AD0EA484C380AF035
:101D3000C9F86060002803D1E749E84810F0C1FE07
:101D400060680AF021F9002815D0204603F0DCFD78
:101D50006078010709D5C008C000801C60706879F0
:101D6000401E6871FFF760FF83E7DA4861684C380E
:101D70000AF0B1F87DE7D74861684C380AF0ABF853
:101D800070BDF7B505460078002700090C463E46B1
:101D9000062804D0D148D049223010F092FE287A8B
:101DA00000280ED0012814D0CC48CB49433010F085
:101DB00088FE0298002C068001D0278066800020D3
:101DC000FEBD02270926002C0ED0A889A080A87B82
:101DD00008E003271426002C06D02869E060A88AB2
:101DE0002082287B2072E4E702980680E7E770B53E
:101DF0000E4600211C4619801546030010F066FFB0
:101E00000723050B1711231D2300224629463046C0
:101E100003F046FD70BD22462946304601F09BFA8C
:101E200070BD22462946304604F081FA70BD224634
:101E30002946304602F052FF70BD22462946304600
:101E4000FFF79FFF70BD4D20A349C00010F039FE81
:101E5000032070BD01469F4810B54C380AF03BF88E
:101E60009F494879401CC0B24871012803D19D4860
:101E7000007800F0C7FB10BDF8B505460720400705
:101E80000F460A18012189038A4209D2002D02D087
:101E90002818884204D2E81C80088000A84201D09B
:101EA0001020F8BD8E488178002911D03988009122
:101EB0004178602251430C18083420783B460007D3
:101EC000000F00222146FFF792FF060004D015E024
:101ED000002038800520F8BD002D13D039880098E7
:101EE000814201D90C260DE020783B460007000F07
:101EF0002A462146FFF77BFF060005D00C2E01D0B5
:101F0000002038803046F8BD754D6878401CC0B25E
:101F100068700A2801D100206870A878401EA87057
:101F200061784807400F022810D00128EAD169489B
:101F3000616809F0D0FF2879401CC0B228710128DF
:101F4000E0D16848007800F05DFBDBE7C806D9D433
:101F50006068FFF77FFFD5E770B504466248164614
:101F60000D46814204D15D485B49DB3010F0A9FD8C
:101F7000012E05D059485849EB3010F0A2FD70BD34
:101F80005848012181706620207000202072A581B0
:101F9000A17370BD70B516460D46040001D1FFF760
:101FA00027FE662101700121017229680161A9885B
:101FB00081820673002C01D1FFF736FE70BD072128
:101FC0004907012241189203914201D31020704722
:101FD0000721017000207047052210B5920390423E
:101FE0000ED301239B04C21A404B9A4208D3404BA4
:101FF000984205D2072252078A18DB139A4201D36E
:10200000102010BD0DF079FB10BD052310B59B030A
:1020100099420ED301239B04344CCB1AA34208D31C
:10202000334B994205D2E3020124D318A403A342FF
:1020300001D3102010BD022803D0102801D00920A0
:1020400010BD0DF080FB0028FAD0052010BD70B542
:1020500005239B03984212D301239B04234CC31AEC
:10206000A3420CD3224B984209D2E4020D19DB1390
:102070009D4204D2002A04D014199C4201D310209E
:1020800070BD0DF086FB0028FAD0072070BD10B59A
:1020900004460720400701212018890394B0884294
:1020A00002D3102014B010BD01F0ADFD002801D006
:1020B0001120F7E70F2008A9087369460BA809F05B
:1020C00037FF0028EED16846007A207068464089C4
:1020D00060800FE010110020901C0000FF01000044
:1020E0004C0C00202C000020FFFF00000000FC1F13
:1020F0000040002068468089A0800020D2E710B50B
:1021000094B0044601F07FFD002801D01120C9E7FA
:10211000002C01D00720C5E7392168460170002155
:10212000817009A909F004FF002803D01549164859
:1021300010F0C7FC0020B5E770B5144C0846A17834
:10214000002913D000280FD0072252070123851839
:102150009B039D4203D20568AA189A4201D310201E
:1021600070BD8288002A03D0012903D0082070BDE9
:10217000092070BD04F042FA0028FAD10021A170B4
:1021800070BD0000901C0000790300002C000020AE
:1021900010B56038030010F099FD07050A0E131AF8
:1021A00021252C0005C91146FFF766FE10BD086801
:1021B000FFF705FF10BD05C91146FFF70DFF10BD64
:1021C0004B6808788A681946FFF71FFF10BD4B68F7
:1021D0008A6808681946FFF73AFF10BD0868FFF7DC
:1021E00056FF10BD08884A6880B21146FFF7A4FF69
:1021F00010BD012010BD10B56C2801D0012010BD0C
:102200000878FFF77CFF10BD10B5EFF31080C4070E
:10221000E40F72B6D6484178491C417040780128D5
:1022200001D10EF0ABF8002C00D162B610BD70B534
:10223000CF4CE07800280AD10125E570FFF7E4FFD4
:102240000EF0A4F8002804D000200EF077F800204B
:1022500070BDC84865714560F9E770B5EFF310804F
:10226000C507ED0F72B6C24C6078002803D1C2A139
:102270008F2010F026FC6078401E60706078002887
:1022800001D10EF07FF8002D00D162B670BD10B5FF
:10229000B748C178002904D000214171C170FFF70F
:1022A000DCFF002010BD10B504460EF06FF8B049F9
:1022B000C978084000D001202060002010BDF8B58A
:1022C0000246AB4C0026A6710820042101251027E8
:1022D000130010F0FBFC0D080A0C0E101214161E51
:1022E000262123252800257122E0022001E021710A
:1022F0001EE020711CE027711AE02020F9E701267A
:1023000016E0FFF781FF0EF041F80028FBD002260F
:102310000EE02171A5710BE02771FBE7202000E0A2
:1023200040202071F6E7FF2093A17E3010F0C9FB1A
:102330000EF038F8002809D00EF03AF8B04205D176
:1023400030460EF038F80028FAD024E0012080074B
:10235000C5608D4A002151608C4A9661854B0222EE
:102360005A6085608A4803690569DB43DB06DB1731
:102370005B1C10273D430561834D00E020BF6F6863
:10238000002FFBD0002B03D1076910239F43076167
:10239000784882606960A07900280CD00DF0F6FFC3
:1023A00005460DF053FF7B4A002D02D0A260E0608D
:1023B00001E0E260A060002E01D100F0B1F8F8BDAC
:1023C00010B504460DF0E8FF002805D0684901204B
:1023D000C8704A78521C4A702046FFF770FF10BD43
:1023E000F8B5694FB8680025012802D1BD600DF02D
:1023F000A5FF7868012800D17D60386801265C4C13
:10240000012814D13D606079002803D000200DF030
:1024100095FF65712078002809D00DF0B7FF0028DE
:1024200005D05948C038866300060661A670386931
:1024300001282CD13D6100F068F801208007466139
:10244000A079002815D00DF0A1FF00900DF0FEFE40
:102450000099002901D0E16800E0A168411A022931
:1024600001DA8A1C13DC0099002901D0E06000E049
:10247000A060FFF7C9FE0DF089FF002806D0424892
:10248000C038866300060661A67000E02670F86812
:10249000012819D100F039F800F037F800F035F8CC
:1024A000A078002804D1FF2033A1053010F009FBEB
:1024B000FD60A5702570FFF7D0FE0DF042FA0028F0
:1024C00002D03148C038C663F8BD10B5284CE0785A
:1024D000002801D10DF056FF01208107886100F02E
:1024E00014F8A07800280BD0274CE068002803D10E
:1024F0000DF061FF0028F8D10020E06000F005F841
:1025000000201C49C043886010BD08B550206946B2
:1025100008806A461088411E11800028F9D108BD44
:10252000F8B5144819278760174900200860C8606B
:102530000DF02CFFBD0701240D4E002805D01248D8
:10254000C03884632C61B47000E03470FFF75CFE27
:10255000084847600D4930798863FFF7D6FFAC61C2
:10256000FFF7D3FF0849002008616C61F8BD000047
:1025700034000020000300407372635C736F635F7C
:10258000636C6F636B2E6300000100400005004028
:1025900000ED00E0FFFFFF7F01203F49400608609B
:1025A0003E4908603E490A68FF231B029A43831292
:1025B0001A430A60384980390860704710B50246EE
:1025C0000420384904E0C3005B181B79002B0AD0B3
:1025D0000346401EC0B2002BF5D133A1432010F0BA
:1025E00070FAFF2010BDC300CA50002259184A716A
:1025F0008A7101220A7110BD2A4A0021C000801888
:102600000171704710B50446042803D326A1522057
:1026100010F057FA2348E1000C182079012803D064
:1026200021A1532010F04DFA6079A179401CC0B26D
:10263000814200D060710120174940068031086056
:1026400010BD70B5164800680004800F022803D042
:1026500015A1692010F035FA124E194C0325207887
:10266000C10088190279012A07D1427983799A42F7
:1026700003D042798271705880472078401CC0B2E4
:102680002070042801D30020207028466D1EEDB272
:102690000028E4D170BD000080E100E080E200E0AD
:1026A00018E400E08C1100207372635C736F635F49
:1026B0007369676E616C6C696E672E630000000061
:1026C000440000208107C90E002808DA0007000F27
:1026D000083880082C4A80008018C06904E080080F
:1026E0002A4A800080180068C8400006800F7047A2
:1026F00010B50D20FFF7E6FFC4B20420C043FFF77A
:10270000E1FFC0B2844203D021A11A2010F0D9F910
:1027100010BD0121234A48031060234B00221A6098
:10272000224A5160224A1060224A11601D498039B4
:102730000860704701211B4A480310601D4A516020
:10274000194A002111601A490860704710B51649EE
:102750000868012804D00EA1562010F0B2F910BD6F
:10276000154880680022C0B20A600DF041FA10BD21
:1027700010B50D4801680029FCD0FFF7E7FF0120E4
:102780000B494003086010BD00ED00E000E400E0EC
:102790007372635C736F635F68616C5F726E672EE8
:1027A0006300000080E100E000D1004000D3004061
:1027B00080E200E000D0004000D5004030B40121AC
:1027C000BB48C9020160CD1005604A030260B948E8
:1027D00003681B021B0A036004680023240A240206
:1027E0000460B5480468240A24020460B348012444
:1027F00044608460B24C23606360A360B14B196095
:102800001D601A60B04B19601A600121016030BC74
:10281000704710B40121A648CC0204600A0202608D
:102820000B060360A54841608160A549002008604F
:1028300048608860A34804600260036010BC704771
:102840000121A048C9020160C91001607047002839
:1028500005D0012805D0022805D19C4870479C4826
:1028600070479C48704710B59BA18B2010F029F948
:10287000002010BD70B500219E4C9F4D9F4A904B8B
:10288000002808D001281DD0022822D092A1B32010
:1028900010F017F970BD01200004A060A86011605D
:1028A0001960974B42109A60964A9060804A0012D5
:1028B0001060954801608648016094480160944822
:1028C000017070BD01204004A060A8605160596093
:1028D00070BD01208004A060A8609160996070BD07
:1028E000F8B59446834A844D00240127744E00288D
:1028F00008D0012836D0022844D077A1E82010F073
:10290000E0F8F8BD891E0902090A01200004906060
:1029100034606860794A1160012B21D000217C4A23
:102920007C4B517061463D31DC63DF637A4B5C6008
:1029300002249C6004241C61734B196073490F606E
:10294000604B891519606F4B58605F48016074488F
:102950007249C16086606A49600348601770F8BDBB
:102960000121DCE701205B4E40046E4F012B04D1B6
:102970003460506068603960F8BD906034606860B1
:102980003960F8BD0120514E8004674F012BF4D10E
:10299000EEE766484068704770B5494D28680026E4
:1029A000544C012806D1A068C00303D501200004BF
:1029B000A0602E606868012809D1A068800306D550
:1029C00001204004A0606E6001200EF05BFAA86850
:1029D000012809D1A068400306D501208004A06029
:1029E000AE6002200EF04EFA70BD10B5484908786E
:1029F000002818D00120424AC0039060414A40009C
:102A000090602B4A001210603F4A00201060304A4C
:102A100010603E4A106008704A78002A02D0487060
:102A20000EF030FA10BD0320FAE7012040490006FD
:102A300008607047012023490006086070470120A4
:102A40003B4940050860704701201E494005086069
:102A5000704730490020C8637047410A354AC005B5
:102A6000C00D5043801C5143400A0818704710B4F1
:102A7000314C430B63431B0C5C020C602D4C6343D5
:102A8000C31A2E485C0258432A4B400D4343E31AB5
:102A90000124DB0324041B191B1613700A68101889
:102AA000086010BC704710B50EF0B6FA10BD0000FB
:102AB00080E100E008E400E018E400E000B000403D
:102AC00040B1004080E200E000E100E048B1004099
:102AD0004081004044B100407372635C72656D5F79
:102AE00068616C5F6576656E745F74696D65722E82
:102AF0006300000000B3004040B3004040B5004018
:102B000000F5014000830040408500400082004005
:102B100045000020C08F004000850040008000403C
:102B200080F5014044B5004048B5004000B5004084
:102B300000E200E0093D0000378600006F0C010054
:102B400010B50EF055FA10BD012001218140064A52
:102B5000116000BF00200549C8630120C8637047A9
:102B600000200249C863704780E100E0C01F0040B8
:102B700070B5FF4D044629680300A03110F0A6F897
:102B800008053E08080E1D2C3242FAA1D22033E07F
:102B9000887F012832D0F7A1D8202DE001F058FE1F
:102BA00005282BD001F054FE062827D001F050FE56
:102BB000072823D0EFA1DB201EE001F049FE032807
:102BC0001CD001F045FE062818D001F041FE072870
:102BD00014D0E8A1E0200FE0887F05280ED0E5A101
:102BE000E52009E001F034FE052807D001F030FEB1
:102BF000062803D0DFA1E8200FF063FF2868A0308B
:102C0000847770BDDBA1EC20F6E7D949C1220968C1
:102C1000525CD206920F05D1A0318A8A824201D13C
:102C2000887D70470020704770B5044611202070E1
:102C30000021CF4D61702968C0318978002908D002
:102C400003290ED0042910D0FF20CAA116300FF09E
:102C500038FF20780009012802D92868807E60703A
:102C600070BD0007000F203002E00007000F303079
:102C70002070EEE730B50388C249C34C8B4202D0C6
:102C80009A1FA2421ED242888A4202D0951FA542B4
:102C900018D2934216D883887D24E400A34211D829
:102CA000C088884205D0B84D04460A3C2D1FAC426E
:102CB00008D2884208D08A4206D05B1C5A43C00022
:102CC000824201DD072030BD002030BDFFB500226B
:102CD000099B002802D0994205DC5CE0002902D162
:102CE000002004B0F0BD0920FBE7845C002C12D06A
:102CF00085186F780D2F4CD010DC3B000FF0E6FFED
:102D00000A421B2A2A303032323A3A42835C002B84
:102D10003FD1521CD2B28A42F8DBE1E7122F31D008
:102D200004DC0E2F35D00F2F2CD132E0142F11D010
:102D3000152F27D116E0022CD5D1AB78039C072B99
:102D4000237001D25B0701D40A20CAE7029B012449
:102D50001B7814E0E343DB0708E0012C08D011E006
:102D60000620BEE70F2523072D075B19002BF4D0A3
:102D70003046B6E7029B1B789C070AD40224234303
:102D8000029C2370835C521C9A18D2B28A4204DDE2
:102D9000A9E70B20A5E7192676028A42A5DB9FE763
:102DA00005E00278401C002A01D0002070470A4646
:102DB000491E89B2002AF4D10120704730B56C4D0C
:102DC0000021286887B0C943A0308182002484751F
:102DD000214606200DF0E3F9002105200DF0DFF972
:102DE000002102200DF0DBF90120FFF7C1FE286869
:102DF000BF210C54C0300470012069460870684639
:102E00000BF08FF807B030BD10B5594A94B0126876
:102E1000A032927F042A0AD028236A461370508079
:102E2000132906D03B2904D0072014B010BD082078
:102E3000FBE71171104609A909F07AF8040002D1E4
:102E40000420FFF795FE2046EFE7F0B59BB00400A5
:102E500003D148A14D480FF034FE72202070606805
:102E6000002701780826491F414D0B000FF02EFF67
:102E70000F096ECBFB6E70F9F8AA6E6E6E6EF7F6E8
:102E80006E002868A030807F032804D0972039A1E5
:102E900080000FF016FE002108460DF080F96078E2
:102EA00010233043607028680146C0314A781A43C5
:102EB0004A7061688A783C2A45D08E880146012292
:102EC000A0318A756268D2890A836268128A4A834D
:102ED0006268528A8A838E8261680622C979C173C8
:102EE0006168103008310FF04FFC0520FFF740FEFD
:102EF0002868C2210F54017FFB2211400177B021C5
:102F000009584A7A920892004A72C782304602F003
:102F1000B5FC002804D01D4816A122300FF0D1FDC9
:102F2000304601F0C7FE002804D04F2011A1C00098
:102F30000FF0C7FD304603F00FFB002806D0134802
:102F40000CA1273023E10120FFF712FE1BB0F0BDDA
:102F5000878801F07DFC052820D001F079FC062847
:102F60001CD001F075FC072818D001F071FC0FE0AF
:102F7000480000207372635C6761705F636F726505
:102F80002E630000FFFF00007B0C000053020000D6
:102F9000042803D0FB49FC480FF093FD60783043D0
:102FA00060702868C030417831434170FFF706FFF8
:102FB000384602F068FC384601F082FE384603F0DD
:102FC00001FBC3E701F044FC052810D001F040FCF0
:102FD00006280CD001F03CFC072808D001F038FC92
:102FE000042804D0E848E74913300FF06AFD606810
:102FF000807902F000FD0028A8D06178314361702B
:103000006168C880A2E701F023FC052810D001F018
:103010001FFC06280CD001F01BFC072808D001F08B
:1030200017FC042804D05520D649C0000FF049FDF4
:103030006078304360706068C1882868A030018380
:10304000616809894183616849898183002102207F
:103050000DF0A5F82868A030C77777E70CE167E1A5
:103060006FE070E0FFE701F0F3FB052810D001F0FE
:10307000EFFB06280CD001F0EBFB072808D001F08D
:10308000E7FB042804D0C048BE4935300FF019FDD5
:103090002868BE21095C042993D0807D40063CD578
:1030A000606802210C30FFF77BFE002835D0606895
:1030B0000821001DFFF774FE00282ED02868014665
:1030C00080310A6B527A920708D1C222125C002A20
:1030D00008D1C28AD30505D5D20703D1C38A4022BD
:1030E0009343C382C38A80229343C3822D236A46BB
:1030F0001370A030808A5080CB698A694869096A58
:1031000001AC0DC4049109A9684608F011FF00281C
:10311000A3D09D489B49573039E062682868A421B4
:1031200092890A5261680822091DA6300FF02CFB13
:1031300010A806742868A630159014A80AF0F1FEAD
:1031400004E70121817101F083FB052810D001F013
:103150007FFB06280CD001F07BFB072808D001F08C
:1031600077FB042804D0884886497B300FF0A9FCFF
:103170002868BE21095C0429E2D061688A79002AA6
:1031800002D08978002905D07F487E49E1300FF0D0
:1031900098FCDBE6617831436170B0210958497AC7
:1031A0008907890F01294DD1817D09064AD4017F04
:1031B000490701D5042100E00321C03081702B2094
:1031C0006946087009A9684608F0B2FE002804D0D4
:1031D0006D486C4997300FF074FC69462868098D7A
:1031E00001830E2210A90A7468491591027A0A70A7
:1031F000024609324A600F320A61521D8A6010325B
:10320000CA60133A4A618A328A61921CCA61423AA0
:103210000A6210324A6210328A62403A8A63D21FCE
:10322000CA63521C54300A64486414A80CF004F8B1
:10323000022815D0002813D053485249BF300FF050
:1032400040FC0DE0817D4906017F490701D504213D
:1032500000E00321C0308170002106200CF09FFFA8
:103260002868C18A0A0602D440229143C1828AB2E8
:1032700080218A43C28269E62868A030807F0328C3
:1032800004D041483F49ED300FF01BFC00210846B7
:103290000CF085FF60781023304360702868014689
:1032A000C0314A781A434A7061688A783C2A00D152
:1032B00049E68E8801460122A0318A756268D2896A
:1032C0000A836268128A4A836268528A8A838E827B
:1032D00061680622C979C1736168103008310FF046
:1032E00053FA0520FFF744FC2868C2210F54017FE0
:1032F000FB2211400177C782304602F0BFFA002856
:1033000004D0E3201F4980000FF0DBFB304601F0C2
:10331000D1FC002803D01B491D480FF0D2FB3046DA
:1033200003F01AF90028A6D019481649801C2EE788
:1033300060783043607009E600290BD0888015481A
:103340000068A030028BCA80028B0A81428B4A81BE
:10335000808B88817047F7B5064600780C460027B9
:10336000010982B03D4601296FD00A4800680090EB
:10337000C03002296AD0072910D00A2967D0014934
:103380000548DAE1742F0000860200000C120020CC
:103390008F030000480000201105000071680A78C2
:1033A000521F13000FF092FC0F09B054B0B02F5B06
:1033B0005B47B0B0B0B0656FB0008A783C2A1BD0D4
:1033C00010271625002C7DD08888A0807068A21D4B
:1033D000C08920827068C089E0817068008A60823C
:1033E0007068408AA082716808460831C07901F08F
:1033F00034FA0020607375E019270725002CE2D00D
:103400000021A17171E011270725002CDBD08988EC
:103410000091A1807168F7228979A17141781140EA
:103420004170009802F030FA009801F04DFC0098CD
:1034300003F0D6F8ACE101270925002CC3D0888819
:10344000A080706880792072A2E160E09DE178E060
:10345000888812270E252146FFF76EFF98E118276E
:103460000825002CAFD08888A080A01DFFF7DCFBCA
:103470008EE11A270725002CA5D04888A080706807
:103480000079A07184E18A783C2A32D01027162571
:10349000002C98D08888A0807068C08920827068CD
:1034A000C089E0817068008A60827068408AA0826A
:1034B0007168607B497D40084000C907C90F084317
:1034C000607300E036E17168C007497DC00F4908AC
:1034D0004900084360737168A21D08460831C0792D
:1034E00001F0BBF9FB480068C0304178EF22114081
:1034F00031E119270725002C88D00021A1714278DD
:10350000EF210A40427043E1F349F44815E1307A73
:10351000012803D0F148F04917300EE112270E259B
:1035200070892146FFF708FF002C87D0707840078C
:10353000400F032888D1E7480068C0304178FB225B
:10354000D5E7E4490968A031002C01D08A8AA2801D
:10355000327A921E13000FF0B9FB073B4651EEDBA7
:103560006B05EE0013270C25002C85D0F1688978B7
:103570008907890F0129217A27D04908490021723A
:10358000FD221140F268E32392785207D20F5200D5
:10359000114321720022E2801940F3681B785B0717
:1035A000DB0E19432172DF231940F3685B78DB07D8
:1035B0009B0E194321726272F1680122C978A172CF
:1035C00001781143F722114016E001221143D6E79A
:1035D00015270C25002C8FD0F06806220068A11D4D
:1035E0000EF032F8D4E016270725002C84D0317B6A
:1035F000A1710178082219E00170C9E01427122591
:10360000002C92D000980099C07BA21D103101F0CF
:1036100024F9B089E081207C01210843F921084088
:103620002074AC480068C030017802221143E3E7FF
:1036300017273825002C7DD03221A01D0FF001F96D
:103640000020A071207A03210843A24A2072116849
:10365000FB260B7F30405B07DB0F9B00184320727B
:10366000B0204058407A800751D0A07A8A7D400827
:10367000D2074000D20F1043FD221040A0728B7D74
:1036800030409B07DB0F9B00184308231843EF23B0
:103690001840A0728A7DE07AD206D20F30409200A4
:1036A0001043E072F72210408A7DD206D20FD2007A
:1036B0001043E072088BA0812046102264310E3046
:1036C0000FF062F88349A07F0968C0078A7EC00FA7
:1036D00052001043A0770A7F400852074000D20FE3
:1036E0001043A077084644304DC820344DC4303CC8
:1036F0003D20405C224630323E3101F0AEF8754844
:1037000000688030006B417A8908890041723FE08F
:10371000327B022A14D017273825002C2ED0012AFC
:103720001BD0032A1BD0042A1CD0052A1AD06A49B0
:103730006A4801E022E024E0B1300FF0C2F927E04E
:1037400019270725002C19D0898AA1800121A17190
:1037500041784908490041701AE0012000E0022048
:10376000A07106E0707B0007000F8030A071052A71
:1037700002D00020E0710BE00120FBE704980580F7
:103780000CE09F205449C000D7E7317A002908D0C7
:103790000498002C058001D027806580002005B0AA
:1037A000F0BD19270725002CE8D00021C943A180CE
:1037B0000021A1714178FD2299E600B595B001F094
:1037C00047F8022803D001F043F8032819D11B2140
:1037D00008A801730021817369460BA808F0A8FBB3
:1037E000002804D1684640781B2802D0032015B079
:1037F00000BD002108460CF0D2FC68468078002805
:1038000001D00820F3E70120FFF7B2F90020EEE72E
:1038100070B500252F4C002807D0022817D0A9200A
:103820002D49C0000FF04DF970BDFFF7C6FF00280D
:10383000FAD1FEF7DDF9222101700572FEF7F4F9E5
:103840002068C030417802221143417070BDFEF7FC
:10385000CFF912210170012101722168A0318A8AF9
:103860004281CD77FEF7E0F92068C030417804222C
:10387000EAE770B50D46040004D155201649000151
:103880000FF01FF92078012804D0134914480FF0D5
:1038900018F970BDA18813480E4E814209D1E28803
:1038A000824206D130681321A030808AFFF7ACFA3B
:1038B00070BD814202D1E088002815D01220287006
:1038C000687808210843687007CC083507C50021CF
:1038D00011E0000048000020742F00003D040000AB
:1038E0006E050000FFFF0000002278231146022031
:1038F0000CF0B3FB02213068A030C17770BDF748EF
:103900000068C0308078704738B5F44C05460178BF
:1039100020680B00A0300FF0D9F909863506067132
:1039200013365A758600807F052803D0EC49ED4890
:103930000FF0C7F820680422017F114301775DE092
:10394000A98800291ED0808AE74988421AD0A86831
:10395000002804D1E348E2490F300FF0B2F8A8681C
:1039600006220A38A86000902068AB88A030808AC0
:10397000042101F0B7FE002804D0DA48D8491430F9
:103980000FF09FF838BD2979807F02290BD00428D9
:10399000F8D0284600F072FF20681321A030808AFA
:1039A000FFF732FA38BD062804D0CE48CC491E3085
:1039B0000FF087F8284600F061FF20680122C03030
:1039C0004178114341700520FFF7D2F838BD00F06F
:1039D0003FFF052808D000F03BFF042804D0C14871
:1039E000BF493C300FF06DF80ECDC0480361C26096
:1039F0008160A2210170FEF72CF938BD284600F045
:103A00003DFF38BD00F024FF052808D000F020FF5E
:103A1000062804D0B348B2494D300FF052F80720C1
:103A2000FFF7A6F8EAE7AF48AD495630A8E7FFB57B
:103A300093B00124684603218470C9021D460180A9
:103A400009F063FF00226946012003F027F80646CB
:103A500009F05FFF002E5CD1684615218470490291
:103A6000018000271C2101A808970EF0ECFE012020
:103A70000146103108A801700020014608A84170D5
:103A80008178F9200140891C214308A8817068468B
:103A9000017902263143017114998185C7851F215F
:103AA000018608A80A9013980D906846099009F0BD
:103AB0002CFF0EAA09A901A802F0D4FD074609F0BF
:103AC00028FF002F02D0384617B0F0BD834F68465C
:103AD0003968008F4880684684708549018008A84D
:103AE0008078F9210840801C4108490008A88170AD
:103AF00068468685068615A80D9009F006FF0EAA71
:103B000009A901A802F0AEFD064609F002FF002E49
:103B100001D03046D8E768463968008F88807449FC
:103B200068468470C91C0180298810A801806988B2
:103B30004180A9888180E988C18008216846818503
:103B4000018610A80D9009F0E0FE0EAA09A901A8AF
:103B500002F088FD044609F0DCFE002C01D020466E
:103B6000B2E768463968008FC8800020ACE770B5BE
:103B700004465E48C421A8300EF065FE5B48574DF0
:103B8000A83000212860C943A030818200268675B4
:103B90000120FEF7EDFF2868BF210E5401460931D0
:103BA0000830FDF71CFF296808462D311D30FDF750
:103BB00072FF002C26D02868B0210C501E21A18154
:103BC000217A8F2211401031217201461831216172
:103BD00009396161491CA1610839E161491C21620F
:103BE0009B31616287392160103161601339E16274
:103BF000091F21637E3121643039616310318430C3
:103C0000A163E06370BD35480068A030807F042860
:103C100001D0002070470120704730B504460520D0
:103C2000800395B0844208D3012080043149201AD2
:103C3000884202D33048844202D3102015B030BDF0
:103C400026490868A030807F012801D00820F5E7C8
:103C5000FFF7D9FF002801D01120EFE70D68012000
:103C600028722278002A08D024491720012A0AD075
:103C7000022A1FD0032A25D121E03220694608708C
:103C80000020287205E0A2799209032A1AD1694618
:103C9000087000A80622611C02300EF075FD28464F
:103CA0000622611C09300EF06FFD09A9684608F074
:103CB0003FF9C3E7A2799209012A03D1E7E7A27984
:103CC0009209E4D00846B9E707214907012210B557
:103CD00041189203914213D3102010BD48000020D8
:103CE000742F000085050000FFFF0000AC110020CC
:103CF000012A00000000FC1F0040002002320000EA
:103D0000F949024609680B7A0931184600F0A5FD09
:103D10000020E2E7FFB599B005460020694608712A
:103D2000087208A9087408751E461446052001216A
:103D300080038904ED4AEE4B002D06D085420DD359
:103D40006F1A97420AD39D4208D2002C09D08442B0
:103D500004D3601A904201D39C4202D310201DB0BC
:103D6000F0BD2846204318D01F270CAB01AA0097AE
:103D700028461A99FEF7AAFF0028F0D10DAB02AA37
:103D8000314620460097FEF7A1FF0028E7D168469C
:103D9000007AC10703D00A20E1E70720DFE78007A8
:103DA00005D568460079800701D50B20D7E7FFF7D6
:103DB0002AFF002801D01120D1E703AF002D0FD03A
:103DC0001A20694608731A9888732946F81C1A9AAB
:103DD0000EF0DAFC0EA903A808F0AAF80028BED15C
:103DE000002C0ED02021684601738673324621468E
:103DF000F81C0EF0C9FC0EA903A808F099F80028D9
:103E0000ADD1B94908A80968007C08700020A6E770
:103E1000F0B5044695B0002014900520800384423C
:103E200075D301208004B14F201AB8426FD3B04837
:103E300084426CD2207801280CD105216068890366
:103E4000884264D301218904411AB9425FD3A84949
:103E500088425CD200F0FCFC022809D000F0F8FC9B
:103E6000032805D0A048BE210068095C012902D0C2
:103E7000082015B0F0BDC121095CCA06920F03D11C
:103E80008A0701D4490701D51120F2E721780129D9
:103E900015D0228A974D1346203BAB4272D202299D
:103EA00001D0032901D1A02A6CD3012907D00278BF
:103EB000D20704D0628A002A64D0B42A62D80029CA
:103EC00006D0012908D0022904D003295AD110E0D4
:103ED000002512E0022510E061680125097800291B
:103EE0000BD0012907D0022905D0032903D082482D
:103EF000BFE7032501E001211491217A002907D0B1
:103F0000012907D0022907D003293BD106E037E079
:103F1000002604E0012602E0022600E00326002D30
:103F200001D0022D3FD1002E3DD0E168002929D0DB
:103F30000A79002A27D0082A24D80B7B9C46082B14
:103F400020D8002A0CD005230A689B039A4217D375
:103F500001239B04D31ABB4212D3654B9A420FD262
:103F60006246002A13D0896805229203914207D342
:103F7000012292048A1ABA4202D35D4A914206D3C0
:103F8000102076E75EE00B7B002B5BD0D5E7017855
:103F9000890702D05848401E6BE7022D03D1022E3C
:103FA00050D0032E4ED0182269460A70228A4A80C9
:103FB000228A8A808D71007A0127002802D0012888
:103FC0007ED102E00020C87100E0CF711498087221
:103FD000217802A80130012922D006210EF031FCFF
:103FE00007216846C173067409A907F0A1FF0028DC
:103FF000C7D10A206946087009A9684607F098FFEA
:104000000028BED13A206946087009A9684607F021
:104010008FFF0028B5D1002D08D0022D06D04AE030
:1040200061680622491C0EF0AFFBD9E7002E42D092
:10403000002623E00168B00009580978002903D060
:10404000012905D0072014E700216A46917001E09C
:1040500069468F70E16806220968095800A8491C62
:1040600003300EF091FB0B206946087009A96846E1
:1040700007F05EFF002884D1761CF6B2E068017973
:10408000B142D7D8002612E08068B100415800A89C
:10409000102202300EF078FB3B206946087009A917
:1040A000684607F045FF0028CDD1761CF6B2E068DF
:1040B000017BB142E8D81B2168460170877000E09F
:1040C0002EE009A907F034FF0028BCD108A84079E8
:1040D0001B2825D1002D15D0012D0FD0022D21D068
:1040E000032D12D11EE00000480000200000FC1F3C
:1040F00000400020E13F0000023200000320FEF7F4
:1041000037FD11E00320FEF733FD608A00280BD055
:1041100000228300114610460BF09FFF002803D0B9
:104120000320A6E60220EEE70020A2E670B586B0E6
:104130000C0006460CD00520800384424BD301209E
:104140008004FD49201A884245D3FC48844242D26B
:10415000FB4DBF212868095C022903D0C03040789C
:10416000400702D5112006B070BD002C04D02046B7
:10417000FEF780FD0028F6D13046FEF746FD012807
:1041800003D0022823D0EF48EDE721001BD10820FF
:1041900069468882286801ABC08805AA002103F01F
:1041A00048F80028DFD16846808A082801D003201B
:1041B000D9E7684681888181C188C18101890182EE
:1041C0004189418203A9304601F0E5FBCBE7002C91
:1041D00001D00620C7E71020C5E770B50C4605469C
:1041E000FEF713FD012803D0022801D0D54870BD89
:1041F00021462846FEF708FE70BD00B50146143082
:1042000095B0192801D2880707D008461E3004D07F
:104210000A3002D0072015B000BDFFF7F4FC0028DB
:1042200001D01120F7E7C648312200684170684686
:104230000270817009A907F07BFEECE701B582B03E
:10424000022069460880BE4802AB00686A46808842
:10425000002102F073FE69460988022900D003207C
:104260000EBD38B502216A46118007214907012297
:1042700041189203914201D3102038BDB049034642
:1042800009686A468C880021204602F0D2FF694600
:1042900009880229F1D0032038BD3EB50446082024
:1042A0006946088005208003844208D301208004E9
:1042B000A149201A884202D3A048844201D3102089
:1042C0003EBD2046FEF7D6FC0028F9D1208869467D
:1042D00088806088C880A0880881E08848819848E4
:1042E00001AB00686A46C088002102F027FE6946DB
:1042F00009880829E4D003203EBD1FB504460820E4
:104300006946888105208003844208D30120800407
:104310008949201A884202D38848844202D3102057
:1043200004B0DAE486486B46006803AAC08800211E
:1043300002F07FFF0028F3D169468989082901D05E
:104340000320EDE769460988218069464988618034
:1043500069468988A1806946C988E180E0E7FEB5A1
:1043600005460520800317460E46814208D30121E9
:104370008904714A731A934202D3704B9E4201D34F
:104380001020FEBD1F2F01D90C20FEBD6C4C8542B4
:104390002AD3681A904227D39D4225D2206801A9CA
:1043A000408802F07DFD0028EFD1287869464871E9
:1043B000206801A9408802F056FD0028E5D1694631
:1043C0000090087802210843694608704979090776
:1043D00003D0082108436946087020686946408870
:1043E00002F0EBFC0028D0D169460F8120683346EB
:1043F000408802AA002102F0A1FD69460989B9425C
:10440000C3D00320FEBD38B50C4607210122490761
:104410009203002802D04318934202D261189142BD
:1044200001D3102038BD21886A461180002801D0B0
:1044300000290BD04249034609684D8800212846CF
:1044400002F0F7FE69460988218038BD0C2038BD8E
:1044500010B50C460521890386B08C4208D3012192
:104460008904354A611A914202D334498C4202D3FD
:10447000102006B031E432490968A031897F05294E
:1044800001D00820F5E7FEF7C0FB012803D0022881
:1044900026D02C48EDE720881E2801D20720E8E727
:1044A0000620FEF765FB052168460170007981084A
:1044B000A0788900C007C00F014368460171FB2046
:1044C0000140A0788007C00F800001436846017159
:1044D0002188C18009F025FD0028CAD00320C8E743
:1044E0000620C6E770B586B014460D46FEF78DFB74
:1044F000012803D0022801D0124834E6104EC02112
:104500003068095CC90706D0BE21095C042902D0C5
:10451000002D02D05AE0082025E6052189038C42AF
:1045200008D301218904044A611A914202D3034944
:104530008C4209D3102016E60000FC1F004000202A
:104540004800002001300000A178C906490F042965
:104550000CD8E178072909D3102907D822798A4293
:1045600004D3102A02D822881E2A01D00720FAE597
:104570008030026BF7239172026B2179D172026B4A
:10458000117A1940A3789B06DB0FDB0019431172E7
:10459000026B21889181026BA378517ADB0789082D
:1045A0008900DB0F19435172FB231940A378026B7A
:1045B0009B07DB0F9B0019435172006BA278017AB5
:1045C000D206C908C900520F114301720B20694677
:1045D0000870852D25D008DC002D1AD0812D1AD029
:1045E000822D1AD0832D08D119E0862D1BD0882D5D
:1045F0001BD0892D1BD08A2D1BD00B2008710520C4
:10460000FEF7B6FA684609F08CFC002813D00320A8
:10461000A9E50020F2E70120F0E70220EEE7032001
:10462000ECE70520EAE70620E8E70820E6E70920AE
:10463000E4E70A20E2E73068C03001784908490021
:10464000017000208FE570B5924E0D46316886B03E
:10465000C03109781446090701D4082083E5FEF724
:10466000D4FA012803D0022801D08B487BE5002D25
:1046700013D005208003844208D301208004874999
:10468000201A884202D38648844201D310206AE56A
:10469000012D0BD0022D02D106E0002C01D0072005
:1046A00061E50020029005E0022000E0012069465B
:1046B00008710294032069460870684609F031FCCD
:1046C000002801D003204EE53068F722C030017881
:1046D00011400170002046E570B594B014460E46B6
:1046E000FEF793FA012804D0022802D06A4814B0D9
:1046F00070BD684D2868C0300078800701D408205C
:10470000F5E7002C01D00720F1E7FFF77CFA00283D
:1047100001D01120EBE7002E1DD02D21684601703D
:104720002C68B420015B684641801022B11C01A8AE
:104730000EF02AF8207FFB210840B17CC907490F01
:1047400008432077B07CFF214008A076E08A8231C0
:104750000843E08207E02E21684601702868A030F7
:10476000818A6846418009A9684607F0E1FB29680B
:10477000FD23C0310A781A400A70B8E710B50C461C
:10478000FEF743FA012803D0022801D0424810BDA9
:1047900005208003844208D3012080043F49201A69
:1047A000884202D33E48844201D3102010BD2046E7
:1047B000FEF73AFA002010BD10B594B00446FEF79B
:1047C00024FA012804D0022802D0334814B010BDC6
:1047D00030480068A030807F04280ED03820694619
:1047E00008704C8001200871487109A9684607F0DB
:1047F0009FFB0028EAD00B20E8E70020E6E710B591
:1048000094B00446FEF701FA012803D0022801D033
:104810002148DBE71F480068A030807F04280BD0C8
:104820003820694608704C8000200871487109A939
:10483000684607F07DFBC9E70020C7E71548006818
:10484000A030807F052801D30120704700207047E9
:1048500010480068A030807F704708B513460028D4
:1048600006D010A00068009048796A468009105C64
:1048700018700622581C0DF087FF08BD10B50446BD
:10488000FDF7B6F9A22101700ECC08300EC0FDF77D
:10489000CBF910BD48000020013000000000FC1FD3
:1048A000004000200302FF01FFB581B001980E46D1
:1048B000C078174610360E37022809D0032840D09A
:1048C00005287DD0F2A1F7480EF0FBF805B0F0BD49
:1048D000CC890A2060430E30188031230A98002AC0
:1048E0000380F3D04868008890800020D080108139
:1048F000097B9481891FCDB21AE0308871683880B5
:1049000048780A7800021043F880C8788A78000254
:1049100010433881BA1C091D28460AF014FF002DE7
:1049200001D0002802D000203871788008360A377C
:104930002046641EA4B20028DFD101990020C8706F
:10494000C4E7CC890A2060430E30188032230A98CD
:10495000002A0380BAD04868002500889080D5805E
:104960001581087B401FC0B20090948142E07168BD
:1049700032880878FA803A79C30752085200DB0F70
:104980001A43FD231A408307DB0F5B001A43FB2306
:104990001A404307DB0F9B001A43F7231A40030713
:1049A000DB0FDB001A43EF231A40C306DB0F1B01AA
:1049B0001A43DF231A408306DB0F5B011A4300E032
:1049C00020E0BF231A404306DB0F9B011A433A71D4
:1049D000C00978718A784B781002184338813A46BA
:1049E000C91C00980AF0AFFE002801D0BD703D80C0
:1049F00008360A372046641EA4B20028B7D10198B1
:104A0000C57063E7087BCC89801E85B228460830D4
:104A100060431030188034230A98002A03808FD016
:104A200048681746008890800020D08010819481CB
:104A30001037E000D581C0190CE03088388000982C
:104A400078602A46716800980DF09EFE009808363E
:104A50000837401900902046641EA4B20028ECD10B
:104A60006BE7FFB50546C07881B00C460A9E03008F
:104A70000EF02CF90BA3071733414F6D8F9D9D9DB1
:104A8000A300207B1746082806D0032804D08548B9
:104A90007FA153300EF015F804990E2008803020C5
:104AA0000CE0207B1746042804D07E4878A17030A3
:104AB0000EF007F804990E20088031203080002F76
:104AC00044D060680088B880607AFF300130F88098
:104AD000E08938810020B88137E0207B1746042820
:104AE00004D070486AA18C300DF0EBFF04990E20C1
:104AF00008803220E2E7207B1746022804D069486C
:104B000063A1A8300DF0DDFF04990E20088033204A
:104B1000D4E7207B1746042804D062485CA1C33048
:104B20000DF0CFFF04981021018034203080002F39
:104B30000CD060680088B880607AFF300130F8805F
:104B4000E08938810020B881F881E870BEE6207BDA
:104B50001746052806D0062804D052484CA1E0305C
:104B60000DF0AFFF04981221018035203080002F16
:104B7000ECD060680088B880607AFF300130F8803F
:104B8000E0893881E089B88100203882A988F981DC
:104B9000DBE7207B1746072804D042483CA1F730CA
:104BA0000DF08FFF04990E200880362086E70096CE
:104BB0002846049B00F02BFD88E635A13A480DF00D
:104BC00080FF83E670B5054600780C460826030092
:104BD0000EF07CF8124C3434241C380A0A0A0A0AF3
:104BE0000A0A0A0A0A0A0A4C6878002804D02E48E1
:104BF00027A12C300DF065FF002C03D12A4824A1F9
:104C00002D3008E060783043607020E0002CF9D14E
:104C100025481FA135300DF054FFF3E7002904D0DB
:104C200021481BA13D300DF04CFFFCF7E1FF04468D
:104C3000407830436070FCF7F7FF08E01A4814A191
:104C4000473002E0184812A14C300DF03AFF002C1A
:104C50000AD06078000707D593202070204658229C
:104C600029460830FBF7B0FA002070BD0E4808A1B5
:104C70005030EAE710B500200C4C0D490346C20045
:104C80008C525218401C0006D370000EF7D010BD95
:104C90007372635C67617474635F636F72652E63C4
:104CA000000000005A020000B2030000FFFF0000F5
:104CB0004C000020FD4908800120887000207047CA
:104CC000FA4900208870704710B50021F748C943A1
:104CD00001800021C17007F065F9D8E7F7B584B00D
:104CE0000546002768460781878068680C4600886B
:104CF00000F0EAFB0646287A032805D0002E03D1EF
:104D0000EB49EC480DF0DDFE287A2146C01E123139
:104D1000009103000DF0DAFF0FF1F0EF3D09AA4614
:104D20005C6D34B3CCF28B8BEF00F078012803D0AC
:104D3000DF49AD200DF0C5FEA8896946C0000E30E0
:104D4000888030200881002C22D068680188A180EA
:104D5000E7802781A989A18100200DE0C100B279F7
:104D600009190A74B288CA8182005219D3894B8208
:104D7000128A401C8A8280B2A1898142EED8D6E094
:104D800002A8009001AB22462946304600F0CAFB3B
:104D9000F0E002A8009001AB22462946304600F020
:104DA00003FCE7E0F07806281AD0FF20C049223043
:104DB00014E068680188A180E7802781A989A18122
:104DC000B188E181E9892182EA89296900982BE08B
:104DD000F078062804D0FF20B5493C300DF071FE74
:104DE000E88969461230888035200881002CE0D19E
:104DF000C0E0F078072804D0FF20AD4956300DF010
:104E000060FEA88969460E30888036200881002C13
:104E1000BED068680188A180E7802781A989A18127
:104E20002046AA890E3029690DF0AEFC7FE0E889A2
:104E30006946123080B2382288800A81002C78D0EE
:104E400068680188A180E7802781A989A181287AE3
:104E5000102809D00221A173E9892182EA892969F0
:104E600000980DF091FC85E00121F4E702A8009084
:104E700001AB224629463046FFF716FD7AE0F0786E
:104E8000082803D08A498C480DF01BFE142069467F
:104E9000888037200881002C6CD068680188A18048
:104EA000E7802781A989A18167820120A0733EE064
:104EB000F078092804D080487D4917300DF001FEB4
:104EC000288A69461430888037200881002C51D008
:104ED00068680188A180E78004212781A173A989DE
:104EE000A181E9892182298A618220462A8A143097
:104EF000696999E702E038E01CE024E0F0780A28CC
:104F000004D06D486A4932300DF0DBFD142069464B
:104F1000888037200881002C2CD068680188A18007
:104F2000E78027810521A173A78127826782F77017
:104F300020E017E002A8009001AB22462946304647
:104F4000FFF78FFD16E00D206946392288800A811F
:104F5000002C07D00120E08054480188A1802781DF
:104F6000277307E00699088010E0524850493C300A
:104F70000DF0A7FD6846069980880880002C05D0B2
:104F8000684600892080684680886080002007B0DD
:104F9000F0BDF7B594B015460F46149800F09FFA8F
:104FA00004000AD0032000F087FB022802D2E07838
:104FB000002804D0112017B0F0BD4048FBE71720AF
:104FC000694601260883002D0FD003216846017130
:104FD0001021018210A80246059004A928460AF073
:104FE000D8FB00280DD00720E5E7082168460171AD
:104FF00000210781C943418105218673C90281814E
:105000000CE0A878A0712888A080684605218673E6
:10501000C902818100210781C943418109AA023265
:1050200006A901A806F0F7FF002802D000F06AFAEE
:10503000C1E707A800906846038B04220321149857
:1050400000F050FB0028B6D1E670B4E770B592B01E
:105050000D0006460ED000F042FA04000CD00320EA
:1050600000F02AFB022802D2E078002806D01120A6
:1050700012B070BD1020FBE71048F9E71721684611
:10508000818004210172298881816988C18101217F
:1050900081740B4901820AAA023201A902A806F012
:1050A000BAFF00280ED000F02DFAE1E74C000020F6
:1050B000904C00003B04000063020000013000003F
:1050C0000228000008A80090684683880422032173
:1050D000304600F007FB0028CAD10221E170C7E783
:1050E00070B592B00D0006460DD000F0F8F904003E
:1050F0000BD0032000F0E0FA022802D2E07800286A
:1051000005D01120B4E71020B2E7FA48B0E7172124
:105110006846818004210172298881816988C18162
:1051200001218174F44901820AAA023201A902A86C
:1051300006F071FF002802D000F0E4F998E708A813
:1051400000906846838804220321304600F0CAFAA2
:1051500000288DD10321E1708AE770B592B00D006F
:1051600006460DD000F0BBF904000BD0032000F080
:10517000A3FA022802D2E078002805D0112077E7B0
:10518000102075E7DB4873E7022168460172298821
:1051900081816988C181172181800AAA023201A90F
:1051A00002A806F038FF002802D000F0ABF95FE754
:1051B00008A800906846838804220321304600F046
:1051C00091FA0028DBD10421E17051E7F0B591B0EC
:1051D00015000E4607460ED000F081F904000CD0F1
:1051E000032000F069FA022802D2E078002806D0F5
:1051F000112011B0F0BD1020FBE7BE48F9E71721E0
:105200006846818004210172298881816988C18171
:10521000B1788174318801820AAA023201A902A8F8
:1052200006F0F9FE002802D000F06CF9E1E708A8CA
:1052300000906846838804220321384600F052FA21
:105240000028D6D10521E170D3E7F7B592B0154615
:105250000E46129800F043F904000AD0032000F033
:105260002BFA022802D2E078002804D0112015B0D1
:10527000F0BDA048FBE70627002D12D06846077254
:105280008681C581A5801720694688800AAA0232D6
:1052900001A902A806F0BFFE002807D000F032F9ED
:1052A000E5E70521684601728681EBE708A80090D2
:1052B0006846838804220321129800F013FA00281C
:1052C000D5D1E770D3E7F7B592B016460D000ED0F2
:1052D000129800F004F904000BD0032000F0ECF960
:1052E000022802D2E078002805D01120BFE7102064
:1052F000BDE78048BBE7072768460772868117210C
:10530000049581800AAA023201A902A806F083FE50
:10531000002802D000F0F6F8A9E708A80090684637
:10532000838804220321129800F0DCF900289ED122
:10533000E7709CE7F3B5172091B00C46002915D013
:1053400021780B000DF0C2FC062B05051A041C2B5E
:105350001520C01EE28880B2002A02D0A368002B6C
:1053600004D0824204D90C2013B0F0BD1020FBE71A
:10537000042905D0A088002811D101E00620F3E718
:10538000119800F0ACF805000BD02078092701280F
:105390001AD0022807D0042824D0052835D00720A9
:1053A000E2E75448E0E76846077161880181E188D7
:1053B0004181A06808260390304600F07DF9072857
:1053C00029D34C48801CCFE70C21684601716188C5
:1053D0000181E1884181A06803900EE0E87800280F
:1053E00011D118E00D216846017161880181A18801
:1053F0004181E1888181A06804900326304600F055
:105400005BF90228EAD31120AEE70E21684601714C
:10541000217B0172F1E717216846018309AA023254
:1054200006A901A806F0F7FD002802D000F06AF8EE
:105430009AE707A800906846038B0422314611982A
:1054400000F050F900288FD12178012907D00229D6
:105450008AD0042905D0052905D0032084E7082136
:1054600002E0EF7080E70A21E9707DE730B591B086
:105470000C46054600F033F8002808D0032000F061
:105480001BF9022805D31B48801C11B030BD1948F8
:10549000FBE70F216846017104811721018309AAE6
:1054A000023206A901A806F0B6FD002802D000F0DD
:1054B00029F8EAE707A800906846038B0422032135
:1054C000284600F00FF9E0E70C49884205D00C4966
:1054D0000988814201D10A4870470020704710B501
:1054E000FFF7F2FF002802D08178C90700D1002021
:1054F00010BD00000130000003280000FFFF000085
:105500004C000020002806D0012805D0052805D031
:10551000062805D0032070471120704708207047E7
:105520005C487047FFB583B003980C9EC0781D4659
:1055300014460F46012803D05749D2200DF0C1FA76
:10554000F889C0000E30288030203080387B001F62
:10555000C0B20190002C26D078680088A08000207E
:10556000E0802081F889A081002616E0F00005196E
:10557000C01900902A4641690E3201980AF0E3F8FA
:10558000002802D000202874E8810098761C008A48
:1055900068820098B6B2408AA882A089B042E5D855
:1055A00003990020C870F2E4F8B50646C0781F469B
:1055B00014460D46042804D0FF20374903300DF06F
:1055C00080FAA889062148430E3038803321069896
:1055D000002C01801AD068680088A0800020E0803C
:1055E0002081A989A18103460CE019460622514376
:1055F0004A190919D789CF81977C8F74128A5B1C4D
:105600000A829BB2A1899942EFD8F070F8BD70B5BB
:1056100014460546142204981A8037220280002C72
:1056200018D0486800260088A080487AFF300130F2
:10563000E080C8892081C889A0816682E87808282E
:1056400009D0092811D00A2819D0134913480DF0A0
:1056500038FAEE7070BD087B0C2804D00F480E4954
:105660000C380DF02EFA012012E0087B0D2804D032
:105670000A48094908380DF024FA042008E0087B9C
:105680000E2804D005480449001F0DF01AFA052021
:10569000A073DEE702300000904C000081030000A0
:1056A00001460020FA4A02E0401C082803D24300C9
:1056B000D35A8B42F8D1704730B50446F44A0020E3
:1056C000163A117953790AE05518AD79A54201D1FE
:1056D000401CC0B2491CC9B2102900D100218B4224
:1056E000F2D130BDFFB5EA4881B0163841790A9C45
:1056F000491CCDB21E46102D00D10025E4481638B5
:105700000079A84202D1042005B0F0BD0820FFF7BF
:10571000D3FF0746072804D9FF20DEA1A5300DF0EE
:10572000D0F90298082801D1072F17D001982080BE
:10573000301D6080002060712071E6800398208118
:10574000204606F019FC00280AD0D14802991638E4
:105750004379821D995445710020D5E7D248D3E79B
:10576000FF20CCA1B7300DF0ACF90320CCE7F0B5A9
:105770008DB0044600256846057116468C46062005
:10578000FFF79AFF00281CD121780127C8070028BD
:1057900001D0132917D9684687766178C17602212E
:1057A0008183C58304A8009070680C2300880522BB
:1057B0000621FFF797FF002803D0B6A185200DF042
:1057C00080F90DB0F0BDB24816380278002AF8D042
:1057D000427863789A42F4D1012918D0132919D15B
:1057E0006146062916D10570002101200AF0D7FC78
:1057F00068460771706801886846C1800021C94306
:105800000181607922790102114368461AE06146FC
:10581000062908D0684600790028D2D0314601A870
:10582000FEF727F8CDE70570002101200AF0B7FC4C
:105830006846077160792279010211436846018147
:105840000021C9434181E9E7914810B5002116388C
:1058500001704A1E428041700171417101200AF0BD
:105860009EFC10BD10B5FFF7EFFF002088490246EF
:105870004300401CCA520828FAD310BD8449163987
:10588000488000207047DFE770470EB50121684669
:10589000017086498180C1800021FDF7EAFF0EBDBD
:1058A000F7B505460078002700090C463E4601285A
:1058B00004D0FF2077A168300DF003F9287A022880
:1058C0000CD0FF2073A17E300DF0FBF80298002C65
:1058D000068001D0278066800020FEBDEA897027FF
:1058E00010460A3086B2002C0BD068680088A08071
:1058F000A8892081E28020460A3029690CF044FF03
:10590000E4E702980680E7E7F0B543680246D979F4
:105910009C79090221435C7A1E7A25025C88981DD5
:105920003543241F87B0A1421DD11B79022B1AD108
:10593000042D1AD0052D2AD0062D1AD0402D12D3B1
:10594000061D0F4614462846FFF7AAFE08280AD06F
:105950001120207002202072A581E78126616078E5
:1059600008210843607007B0F0BD001D00F0E1F8A9
:10597000F9E7041D0D46FEF761FF0028F3D006216C
:10598000684601700194057208F0CBFAEBE7001D40
:10599000FFF7EDFEE7E710B53D4C8AB0163C2278E4
:1059A000012A26D012236A46937363789B1CD37313
:1059B000082313820B8853824B8893828B88D3826F
:1059C000C988118301A900910C2305220721FFF743
:1059D00089FE00280BD10022F023114601200AF095
:1059E0003CFB012020706078801C607000200AB0B1
:1059F00010BD1120FBE7F0B5254C0027163C87B001
:105A00000646A51D1FE060792179884204D1112046
:105A100020A140010DF055F82079405D042804D004
:105A2000082808D17F1CFFB205E0072069460870EE
:105A3000684608F076FA2079401CC0B22071102820
:105A400001D1002020713046761EF6B20028DAD14E
:105A5000384688E710B50446402801D2072010BD1B
:105A6000FFF71EFE082802D03120000210BD0021E1
:105A7000074802E0491C082903D24A00825A002A3A
:105A8000F8D1082914D049004452002010BD00006C
:105A90002E1300207372635C6C326361705F636FFE
:105AA00072652E630000000003300000FFFF00005D
:105AB0000420EBE700B5402801D2072000BDFFF726
:105AC000EFFD082805D000213B4A4000115208464E
:105AD00000BD052000BDF0B58BB016460C00074692
