:020000040000FA
:1000000000040020E508000079050000C508000094
:10001000830500008D05000097050000000000002A
:1000200000000000000000000000000009090000BE
:10003000A105000000000000AB050000B5050000B0
:10004000BF050000C9050000D3050000DD05000064
:10005000E7050000F1050000FB05000005060000B3
:100060000F06000019060000230600002D06000000
:1000700037060000410600004B0600005506000050
:100080005F06000069060000730600007D060000A0
:1000900087060000910600009B060000A5060000F0
:1000A000AF060000B9060000C3060000CD06000040
:1000B000D7060000E1060000EB060000F506000090
:1000C000FF06000009070000130700001D070000DD
:1000D00027070000310700003B070000450700002C
:1000E0004F07000059070000630700006D0700007C
:1000F00077070000810700008B07000095070000CC
:100100009F0700001FB500F003F88DE80F001FBD2A
:1001100000F0DEBB1FB56FF00100009040100390AF
:10012000029001904FF010208069000B420900F00E
:100130001F045DF822300120A04083434DF8223097
:10014000684600F044F91FBDF0B54FF6FF734FF459
:10015000B4751A466E1E11E0A94201D3344600E080
:100160000C46091B30F8027B641E3B441A44F9D14B
:100170009CB204EB134394B204EB12420029EBD17E
:1001800098B200EB134002EB124140EA0140F0BD8F
:10019000DD4992B00446D1E90001CDE91001FF220A
:1001A0004021684600F03AFB94E80F008DE80F000C
:1001B000684610A902E004C841F8042D8842FAD12B
:1001C00010216846FFF7C0FF1090AA208DF8440068
:1001D000FFF7A0FF00F0F2F84FF01024A069102202
:1001E0006946803000F001F9A069082210A900F0EA
:1001F000FCF800F0D7F84FF080510A6949690068AF
:100200004A43824201D8102070470020704710B541
:10021000D0E900214FF0805002EB8103026944696C
:100220006243934209D84FF01022536903EB8103D4
:100230000169406941438B4201D9092010BD5069D1
:10024000401C01D0002010BD0F2010BD70B501680A
:100250000446AE4D4FF01020062951D2DFE801F0E0
:10026000320318283B1DD4E90265646829463046EC
:1002700000F0CDF82A462146304600F0B6F8AA0034
:100280002146304600F09EFA002800D0032070BDC1
:1002900000F050FB4FF4805007E0201DFFF7ABFF4C
:1002A0000028F4D100F046FB60682860002070BD93
:1002B000241D94E80700920000F084FA0028F6D08C
:1002C0000E2070BD8069401C12D0201DFFF79FFFDB
:1002D0000028F6D109E08069401C09D0201DFFF7F5
:1002E0008AFF0028EDD1606820B12046FFF750FF5B
:1002F000042070BDFFF70EFF00F060F800F052F828
:10030000072070BD10B50C46182802D001200860E7
:1003100010BD2068FFF79AFF206010BD4FF0102439
:10032000A069401C05D0A569A66980353079AA2846
:1003300008D06069401C2DD060690068401C29D03D
:1003400060692CE010212846FFF7FEFE31688142EB
:100350001CD1A16901F18002C03105E030B108CAA9
:1003600051F8040D984201D1012000E000208A429A
:10037000F4D158B1286810B1042803D0FEE728460C
:1003800000F057F861496868086008E000F016F866
:1003900000F008F84FF480500168491C01D000F0CB
:1003A000A3FAFEE7BFF34F8F59480168594A01F499
:1003B000E06111430160BFF34F8FFEE74FF0102063
:1003C0008169491C02D0806900F0ADB87047524A7B
:1003D00001681160121D416811604F4A8168103236
:1003E0001160111DC068086070472DE9F041174683
:1003F0000D460646002406E03046296800F0A6F8BF
:10040000641C2D1D361DBC42F6D3BDE8F08170B5CD
:100410000C4605464FF4806608E0284600F083F855
:10042000B44205D3A4F5806405F58055002CF4D1C1
:1004300070BD4168044609B1012500E000254FF078
:1004400010267069A268920000F0BCF9C8B120467D
:1004500000F01AF89DB17669A56864684FF4002031
:1004600084420AD2854208D229463046FFF7CFFFA0
:100470002A4621463046FFF7B8FFFFF79FFFFFF7F8
:1004800091FFFFF747FEF8E72DE9FF414FF01024F9
:10049000616980680D0B01EB800000F6FF70010BB5
:1004A00000200090019002900246039068460123CC
:1004B0000BE0560902F01F0C50F8267003FA0CFCF2
:1004C00047EA0C0740F82670521CAA42F1D30AE012
:1004D0004A0901F01F0650F8225003FA06F6354388
:1004E00040F82250491C8029F2D3A169090B4A091E
:1004F00001F01F0150F822408B409C4340F82240FD
:10050000FFF765FFBDE8FF815809000000000020EB
:100510000CED00E00400FA050006004014480168F4
:100520000029FCD07047134A0221116010490B6862
:10053000002BFCD00F4B1B1D186008680028FCD056
:100540000020106008680028FCD07047094B10B5E7
:1005500001221A60064A1468002CFCD00160106861
:100560000028FCD00020186010680028FCD010BDC6
:1005700000E4014004E5014008208F49096809585A
:10058000084710208C4909680958084714208A49EF
:100590000968095808471820874909680958084711
:1005A0003020854909680958084738208249096878
:1005B000095808473C2080490968095808474020E5
:1005C0007D4909680958084744207B49096809584A
:1005D0000847482078490968095808474C20764957
:1005E000096809580847502073490968095808479D
:1005F0005420714909680958084758206E4909680C
:10060000095808475C206C49096809580847602068
:100610006949096809580847642067490968095801
:100620000847682064490968095808476C206249EE
:1006300009680958084770205F4909680958084740
:1006400074205D4909680958084778205A490968A3
:10065000095808477C2058490968095808478020EC
:1006600055490968095808478420534909680958B9
:100670000847882050490968095808478C204E4986
:1006800009680958084790204B49096809580847E4
:10069000942049490968095808479820464909683B
:1006A000095808479C204449096809580847A02070
:1006B0004149096809580847A4203F490968095871
:1006C0000847A8203C49096809580847AC203A491E
:1006D000096809580847B020374909680958084788
:1006E000B4203549096809580847B82032490968D3
:1006F00009580847BC203049096809580847C020F4
:100700002D49096809580847C4202B490968095828
:100710000847C8202849096809580847CC202649B5
:10072000096809580847D02023490968095808472B
:10073000D4202149096809580847D8201E4909686A
:1007400009580847DC201C49096809580847E02077
:100750001949096809580847E420174909680958E0
:100760000847E8201449096809580847EC2012494D
:10077000096809580847F0200F49096809580847CF
:10078000F4200D49096809580847F8200A49096802
:1007900009580847FC2008490968095808475FF4C8
:1007A0008070054909680958084700000348044952
:1007B000024A034B70470000000000206809000057
:1007C0006809000040EA010310B59B070FD1042A15
:1007D0000DD310C808C9121F9C42F8D020BA19BA0C
:1007E000884201D9012010BD4FF0FF3010BD1AB171
:1007F000D30703D0521C07E0002010BD10F8013BC6
:1008000011F8014B1B1B07D110F8013B11F8014BEC
:100810001B1B01D1921EF1D1184610BD02F0FF033F
:1008200043EA032242EA024200F005B870477047EB
:1008300070474FF000020429C0F0128010F0030C42
:1008400000F01B80CCF1040CBCF1020F18BF00F8C3
:10085000012BA8BF20F8022BA1EB0C0100F00DB872
:100860005FEAC17C24BF00F8012B00F8012B48BFD0
:1008700000F8012B70474FF0000200B51346944674
:100880009646203922BFA0E80C50A0E80C50B1F1E8
:100890002001BFF4F7AF090728BFA0E80C5048BFFC
:1008A0000CC05DF804EB890028BF40F8042B08BF9A
:1008B000704748BF20F8022B11F0804F18BF00F896
:1008C000012B7047014B1B68DB68184700000020B4
:1008D00009480A497047FFF7FBFFFFF713FC00BD0B
:1008E00020BFFDE7064B1847064A1060016881F3F8
:1008F0000888406800470000680900006809000097
:100900001D030000000000201EF0040F0CBFEFF3D9
:100910000881EFF30981886902380078182803D12B
:1009200000E00000074A1047074A12682C3212689C
:100930001047000000B5054B1B68054A9B589847B7
:1009400000BD000005030000000000205409000065
:1009500004000000001000000000000000FFFFFF86
:040960000090D00330
:10100000481200202D000200B99F00009BFF010044
:10101000B99F0000B99F0000B99F000000000000C8
:101020000000000000000000000000008500020039
:10103000B99F000000000000B99F0000B99F0000A8
:10104000ED000200F3000200B99F0000B99F00000C
:10105000B99F0000B99F0000B99F0000B99F000030
:10106000F9000200B99F0000B99F0000FF000200D4
:10107000B99F0000050102000B01020011010200EE
:10108000B99F0000B99F0000B99F0000B99F000000
:10109000B99F0000B99F0000B99F0000B99F0000F0
:1010A000170102001D010200B99F0000B99F000056
:1010B000B99F0000B99F0000B99F0000B99F0000D0
:1010C00023010200B99F0000B99F0000B99F0000F2
:1010D000B99F0000B99F0000B99F0000B99F0000B0
:1010E000B99F0000B99F0000B99F0000B99F0000A0
:1010F000B99F0000B99F0000B99F0000B99F000090
:10110000B99F0000B99F000000F002F81EF07BFFBD
:101110000AA090E8000C82448344AAF10107DA4552
:1011200001D11EF070FFAFF2090EBAE80F0013F004
:10113000010F18BFFB1A43F00103184770F50100B7
:1011400090F501000A4410F8014B14F00F0508BF98
:1011500010F8015B240908BF10F8014B6D1E05D083
:1011600010F8013B6D1E01F8013BF9D1641E03D05C
:10117000641E01F8015BFBD19142E4D3704700008B
:101180000023002400250026103A28BF78C1FBD890
:10119000520728BF30C148BF0B6070471FB500F031
:1011A0003DF88DE80F001FBD1EF0040F0CBFEFF3DC
:1011B0000880EFF30980014A104700000B9E0000F1
:1011C0008269034981614FF00100104470470000BB
:1011D000D511000001B41EB400B511F095F801B4AA
:1011E0000198864601BC01B01EBD0000F0B4404627
:1011F000494652465B460FB402A0013001B506488D
:10120000004700BF01BC86460FBC80468946924617
:101210009B46F0BC70470000091100001EF0F0BEB4
:1012200070B51C4C054608202070A01C00F065F825
:101230005920A08029462046BDE8704006F092BFA4
:1012400010B506F09AFF13490020891E087010BDE2
:1012500070B50C460F49891E097829B1A0F16001CB
:10126000532906D3012011E0602802D043F2010087
:101270000CE020CC084E94E80E0006EB8000A0F5B0
:101280008050241FD0F8806E2846B047206070BD83
:10129000012070470A0000209001020010B50446AA
:1012A0000021012000F03FF80021182000F03BF859
:1012B00000210B2000F037F80421192000F033F84A
:1012C00004210D2000F02FF804210E2000F02BF84F
:1012D00004210F2000F027F80421C84300F023F870
:1012E0000721162000F01FF80721152000F01BF839
:1012F0002046FFF795FF002010BD8F210180704729
:10130000FFF79EBF10487047104A10B514680F4B86
:101310000F4A08331A60FFF79BFF0C48001D04605A
:1013200010BD704770474907090E002806DA00F023
:101330000F0000F1E02080F8141D704700F1E0205C
:1013400080F800147047000003F9004310050240C4
:101350000100000130B5F74D044610280AD0112CC9
:1013600006D02846122C817806D0132C08D0FFDF37
:10137000AC7030BDFFDFFBE71129F9D0FFDFF7E7E5
:101380001129F5D0FFDFF3E770B50FF0AAF9044695
:1013900010F082FD201AC4B206200DF085FB054630
:1013A00006200DF089FB2E1A07200DF07DFB054667
:1013B00007200DF081FBDF49281A3218887812289F
:1013C0000DD000231A4413280BD0002002440878C3
:1013D000022808D000201044201AC0B270BD01239A
:1013E000F0E70120F2E70120F5E7D24800B50079E7
:1013F000D049420897B051F8050F89880CD01722C0
:101400008DF80020CDF80200ADF806100BA9684653
:101410000AF007FF17B000BD4322F1E702210DF0EB
:1014200098BB2DE9F04196B01D4690460E46074602
:10143000FFF7F4FF04000BD02078222804D3A07F0C
:10144000C0F34010A84206D1082016B0BDE8F081D4
:1014500043F20200F9E748208DF80000ADF8027071
:101460003DB101208DF804008DF805608DF80680EF
:1014700002E000208DF804000BA968460AF0D1FEB6
:10148000A07F65F34510A0770020DEE730B5044665
:10149000A1F120000D460A284AD2DFE800F0050736
:1014A0000C1C2328353A3F44FFDF42E020782028F7
:1014B0003FD1FFDF3DE09F480178032939D0807894
:1014C000132836D02078242833D0252831D023285B
:1014D0002FD0FFDF2DE0207822282AD0232828D8FB
:1014E000FFDF26E02078222823D0FFDF21E02078CC
:1014F00022281ED024281CD026281AD0272818D00D
:10150000292816D0FFDF14E02078252811D0FFDF2E
:101510000FE0207825280CD0FFDF0AE0207825286E
:1015200007D0FFDF05E02078282802D0FFDF00E0A9
:10153000FFDF257030BD30B50B8840F67B444FF699
:10154000FF72022801D0934204D09D1FA54224D2ED
:10155000022802D04D88954203D04D88AD1FA54288
:101560001BD24C88A34218D88B88B3F5FA7F14D2CB
:10157000022802D0C888904205D0C88840F6774536
:101580000A38A84209D2C888904208D0944206D0AE
:101590005B1C6343B3EB800F01DB072030BD0020F1
:1015A00030BD70B514460D46064611F01BF960B902
:1015B0000DB1A54201D90C2070BD002409E000BF87
:1015C00056F8240011F00EF908B1102070BD641C0B
:1015D000E4B2AC42F4D3002070BDF0B50024059D08
:1015E00010B1A94203D851E009B90020F0BD09208B
:1015F000F0BD055D8DB107197E78112E3FD00FDC4F
:101600000A2E3CD2DFE806F03B1624242A2A2C2C92
:101610003333025D72BB641CE4B28C42F9D3E4E75D
:101620001D2E2CDAA6F11206042E28D2DFE806F0D1
:1016300027271018022DDAD1BD781D70072D01D291
:101640006D0701D40A20F0BD157845F0010515E0BD
:10165000EE43F60707E0012D07D010E00620F0BDAD
:101660002E07A6F18056002EF5D06046F0BD157805
:10167000AE0701D50B20F0BD45F002051570055DE4
:10168000641C2C44E4B28C4202D9B0E74FF4485CAD
:101690008C42AED3A9E710B50278540809D00122D4
:1016A00043F20223012C07D0022C0DD0032C13D1BE
:1016B0000FE00020087005E080790324B4EB901F50
:1016C0000AD10A70002010BD8079B2EB901F03D1BF
:1016D000F7E780798009F4D0184610BD154A917B50
:1016E00039B1D17B022908D0032908D043F2022066
:1016F00070470146101D01F0CFBB032100E001211E
:1017000001700020704738B50C460546694601F067
:10171000C3FB00280DD19DF80010207861F347002D
:10172000207055F8010FC4F80100A888A4F805003E
:10173000002038BDB401002038B51378C0B10228AC
:1017400016D0FAA46D46246800944C7905EB9414E5
:10175000247864F34703137003280ED003F0FE00CF
:1017600010700868C2F801008888A2F8050038BD2A
:1017700023F0FE0313700228EED1D8B240F001002E
:10178000EEE730B50C46097897B0222902D208203E
:1017900017B030BD28218DF80010ADF80200132AD3
:1017A00003D03B2A01D00720F2E78DF804200BA9D3
:1017B00068460AF036FD050003D121212046FFF7D7
:1017C00065FE2846E4E700B597B023218DF80010A8
:1017D000ADF802001088ADF804005088ADF806009E
:1017E000D088ADF80A009088ADF808000020ADF868
:1017F0000C00ADF80E000BA968460AF012FD09E6D0
:101800002DE9FF470220CA4E8DF804000027708A98
:10181000ADF80600B84643F202094DE001A80DF00C
:1018200002F9050006D0708AA8B3A6F81280ADF8B8
:1018300006803FE0039CA07F01072DD504F1240022
:101840000090A28EBDF80800214604F1360301F095
:10185000A2FF050005D04D452BD0112D3DD0FFDF57
:101860003BE0A07F20F00800A077E07F810861F3D3
:101870000000C10861F34100E07794F8210000F016
:101880001F0084F820002078282827D1292120460D
:10189000FFF7FCFD22E015E040070BD5BDF808007E
:1018A000214604F10E02FFF78EFF05000DD04D45D5
:1018B00010D100257F1CFFB202200DF0F5F8401C6E
:1018C000B842ABD8052D12D008E0A07F20F004006C
:1018D000A07703E0112D00D0FFDF0025BDF8060042
:1018E0007082052D05D0284604B0BDE8F087A6F823
:1018F00012800020F8E72DE9F047040000D1FFDF57
:1019000020788B4E20F00F00801C20F0F00070300B
:10191000207060680178091F1529E6D2DFE801F020
:10192000580B0C5CF80C0DF8F835580C0C587F5817
:10193000580C0C585800FFDFD7E785882846FFF77A
:101940006DFD040000D1FFDF06F0BEFC707C21219C
:1019500040F0040070742046FFF798FD284607F019
:10196000A1F9284603F05AFF284604F0B3FF2946A0
:10197000022010F0F4FEA07F20F01000A077FFF707
:101980003FFF0028B1D0FFDFAFE786883046FFF782
:1019900045FD00B9FFDF60688078012800D0FFDFD7
:1019A00060688179304607F0D9FB05009DD006F0CC
:1019B00088FC040000D1FFDF207820F00F00801C9D
:1019C00020F0F000203020706680062020726572C2
:1019D000BDE8F04706F078BC86883046FFF71EFD6C
:1019E000050000D1FFDF06F06FFC60683146C0885B
:1019F000288160680089688160684089A881022028
:101A000010F0ADFE0020A875A87F00F003000228AA
:101A100092D1FFF7F5FE00288ED0FFDF65E78078D2
:101A20003C2803D0002502280AD000E00125002729
:101A300020B13C2802D0022800D0FFDF17B1A0E07F
:101A40000127F5E706F040FC707C002D40F008000F
:101A500070746AD165680221B5F80480AD1C4746F0
:101A600038460DF06DF80446032138460DF068F84D
:101A70008246052138460DF063F881460421384638
:101A80000DF05EF8074604B9FFDFBAF1000F00D190
:101A9000FFDFB9F1000F00D1FFDF07B9FFDF22211F
:101AA0002046FFF7F3FC2879012832D00227A07FD7
:101AB000062167F30100A077288B2081688B608165
:101AC000A88BA08105F1120001F01DFA18B3687906
:101AD000800700D5FFDF6979E07D61F34700E0759D
:101AE000D5F80600A0616889A083062105F10C00E5
:101AF00001F009FAF0B130794108607861F34700EC
:101B00006070D6F80500C4F80200B6F809001AE0C3
:101B100044E00127CBE7E07D20F0FE00801CE0756B
:101B2000D5F81200A061E88ADEE71DE00302FF019C
:101B3000B4010020607820F0FE00801C6070E8682E
:101B4000C4F80200288AE080F748007884F8220070
:101B5000A07F00F00301404607F096F8012F03D064
:101B6000022F0ED0FFDFC0E63078032800D0FFDF61
:101B70000021084610F0F3FDBDE8F047012001F018
:101B800065B9B078132800D0FFDF0021072010F0DE
:101B9000E6FDBDE8F0471120FFF7DCBB2046BDE8BD
:101BA000F04702F0BBB82DE9F047054600780C4637
:101BB00000270109DFF874A391463E46012974D03D
:101BC00000234FF6FF70022970D0072909D00A2997
:101BD0006DD0FFDFA9F800600CB12780668000207F
:101BE00083E6D5F804C004F108029CF8001012291D
:101BF00067D00EDC04F118080A2913D004DC04298C
:101C00007ED007297DD13FE00E2951D01129F9D18D
:101C1000BAE0132976D0142975D017293CD0182999
:101C2000F0D1D4E011270926002C76D0BCF804802E
:101C3000A4F804806868807920729AF811104046F0
:101C400021F004018AF8111004210CF094FF052101
:101C500040460CF090FF002140460CF08CFF012123
:101C600040460CF088FF032140460CF084FF02211F
:101C700040460CF080FF062140460CF07CFF072117
:101C800040460CF078FFA5E712271026BCF80400A8
:101C9000214601F019F99DE71C270926A4B3BCF8D9
:101CA0000200A080686800793CE1E0E00BE1D8E048
:101CB0001B27092644B30420207268684088A0804E
:101CC00088E79CF802003C282AD0102718260CF13F
:101CD000020CCCB1BCF80200A080BCF818006082F5
:101CE000BCF818002082BCF81A00A082BCF81C00C6
:101CF000E0829CF805000CF10601FFF71DFD04E0F1
:101D000018E0ADE098E072E007E09CF8040010B144
:101D10000120E07309E00220FBE7A9F800605EE71C
:101D20001B270926002CF8D023729AF8111021F0F5
:101D30000801DCE01D273726002CEED0A080696862
:101D40000879491DFFF7F8FC686890F82B00A0752A
:101D50006868C0780428E07D13D020F00100E075A9
:101D600069681F22C97861F34200E0756968C97A21
:101D700061F3C700E075696840460C311EF047F812
:101D800028E740F00100EAE71D273726002CC4D0E1
:101D9000A0806968481D0B7901461846FFF7CCFC06
:101DA000696804F10F02C87A0C31FFF7C5FC686856
:101DB000807CA0756868C178E07D61F3420020F006
:101DC000F900E0751F2140461EF0BAF802E720270F
:101DD0001026002CA1D0A080686804F10902407A86
:101DE00020726868C11C8078FFF7A6FCF2E6212704
:101DF0000B26002C91D0BCF80400A0806868807885
:101E0000207268688079012805D0022803D0032851
:101E10000ED0FFDF002060726868C079012805D00D
:101E2000022803D0032805D0FFDF0020A072D1E6EE
:101E30000420F0E70420F9E704271026002CA6D0A0
:101E4000BCF80200A0806868808820816868C0882B
:101E5000608168680089A08168684089E081B9E68E
:101E60004A4621462846BDE8F04702F0CCB8287A19
:101E7000012803D0022814D0FFDFABE61F2710266D
:101E8000002C84D06888A08068892081A88960811E
:101E9000E889A081288AE0819AF8111021F02001B8
:101EA00025E0122710266888214601F00DF8002C45
:101EB00090D0687800F00700052887D19AF81110B3
:101EC00021F0020113E0297A072931D2DFE801F07D
:101ED0000512120404042300C2E71B270926002C64
:101EE00088D0A08023729AF8111021F001018AF89D
:101EF00011106FE61B270926002CA0D0A080287A9D
:101F0000012806D0032020729AF8111021F0100148
:101F1000EDE70220F7E701270926002C8FD068881B
:101F2000A080687A207255E610000020B4010020DD
:101F3000FFDF4FE610B5F94896B08078132802D03D
:101F4000082016B010BD22208DF800000BA96846AD
:101F50000AF067F904460021072010F000FC204633
:101F6000EFE700B5ED4897B08078122801D008203F
:101F700045E41E208DF8000000208DF802008DF849
:101F800003000BA968460AF04CF90028F0D10021A3
:101F9000072010F0E4FB1120FFF7DCF900202EE40D
:101FA00000B5DE4897B00078012814D01B208DF8CA
:101FB000000000208DF802000BA968460AF031F9F4
:101FC000002807D10021084610F0C9FB012000F0CD
:101FD0003DFF002013E4082011E42DE9F041CF4C2F
:101FE000002740B102281DD0072842D0082800D081
:101FF000FFDFBDE8F081FFF7D3FF0028F9D106F03D
:1020000060F90028F5D0017821F00F01891C21F03A
:10201000F00120310170077206F056F9607C40F043
:1020200001001DE08EB23046FFF7F8F9050000D13F
:10203000FFDF28782128DCD006F043F990B1017841
:1020400021F00F01891C21F0F001103101700221F3
:1020500001724680AF7506F037F9607C40F00200EF
:102060006074C6E729463046BDE8F0411322FFF709
:1020700088BBA578122D03D0132D04D0FFDFB8E75D
:10208000FFF76FFF01E0FFF755FF0028B1D106F021
:1020900018F90028ADD0017821F00F01891C21F03A
:1020A000F00120310170122D07D00221017206F0DB
:1020B0000BF9607C40F01000D2E70121F6E72DE932
:1020C000F04116460C00074600D1FFDF307820F0C3
:1020D0000F00801C20F0F0001030307020780128B4
:1020E00003D0022817D0FFDF83E73846FFF796F9C1
:1020F000050000D1FFDF0220A87506F0E5F8206892
:10210000B0606068F060208930828448417C41F092
:10211000200141746DE73846FFF780F9050000D1D2
:10212000FFDF61884FF6FF70814209D1A2888242A9
:1021300006D129463846BDE8F0411322FFF721BBFE
:10214000814201D1A08848B106F0BEF82068B06095
:102150006068F06020893082002006E07823002249
:102160003946022010F05EFA0120A87541E730B52B
:10217000054697B00C46084610F034FB80BB0020A3
:102180000121203D082D6DD2DFE805F004264145F0
:10219000515866740021082010F0BAFA10B11120CD
:1021A00017B030BD24208DF80000D4F80200CDF81F
:1021B0000200A0798DF806000BA968460AF031F8F4
:1021C000050055D1082300221146184610F02AFABE
:1021D00008284DD0FFDF4BE0606810F045FB08B1E8
:1021E0001020DDE74B208DF800002088ADF80200BC
:1021F0006088ADF804000BA968460AF012F80500E3
:1022000036D1606878B3BDF83010018030E02068C6
:1022100002F09AF909E04C220AE000BF8DF80210A2
:1022200015E000BF8DF8020011E0054620E04522D0
:102230008DF800202278D207F4D0EFE738208DF80F
:1022400000002088ADF802006088ADF804000BA9FA
:10225000684609F0E6FFE8E7207828B1A0F11B0105
:10226000E12902D3072503E01B202D490025087032
:10227000284695E72078C00802D16078C00801D0D0
:1022800007208DE73F208DF8000020788DF80300AF
:1022900060788DF80400207830B100208DF80200BD
:1022A000617819B1002102E00120F7E7022108431B
:1022B000B8E730B5054697B00C46084610F0B6FAB8
:1022C00008B110206CE7202D07D0212D2AD0222D17
:1022D00028D0232D26D0072062E72088FFF79EF81C
:1022E00020B10078222804D2082059E743F20200E6
:1022F00056E725208DF800002088ADF802000BA9D4
:10230000684609F08EFF0028DCD1DDF83210C4F8F1
:1023100002109DF83610A17142E70000B4010020C0
:102320001000002006203BE7FC487047FB49091FCE
:1023300008747047F948001F007C00F001007047E6
:1023400038B5F6481421001F1DF0D8FD012000F01B
:102350007DFD1120FEF7FEFFF149FB20EF4C0870D8
:10236000241F611D684605F00CFF9DF800102079C0
:1023700061F3470020F0010020710020A0734FF4AA
:102380006170A0810220E073FFF72FF800B1FFDF3A
:1023900000F042FE01F07DFC38BD10B50C463E2138
:1023A00020461DF0ABFDA07F20F00300A077202089
:1023B00020700020A07584F8230010BD70477CB504
:1023C000054610F00FFA08B110207CBDD34C241F35
:1023D000211D60680090A06801902846FFF793F9DE
:1023E0000028F2D1FFF701F80028EED000996160D3
:1023F000BDF8041021819DF80610A1727CBD10B5B6
:10240000044610F013FA08B1102010BDC34922464B
:10241000091F0879491D4008FFF78EF9002010BDFB
:102420002DE9F0479CB00D4604004FF0000812D093
:102430000822FFF7B6F800281CD1002609E000BFEB
:1024400054F8260004A9FFF726F9002812D1761CBB
:10245000F6B2AE42F4D32F460A2006AD0DF1440A7F
:102460008DF8180026465146284609F0DAFE20B1BC
:1024700043F203201CB0BDE8F0874046DFF89C82A1
:10248000A8F1040888F803002EB300244FF00B09CC
:102490001DE000BF56F8240005A9FFF7FCF800B1C5
:1024A000FFDF9DF81400A87056F8240050F8011FB3
:1024B000C5F803108088A5F8070085F800905146FC
:1024C000284609F0AEFE00B1FFDF641CE4B2BC4256
:1024D000E0D388F803700020CCE72DE9F0479EB0E8
:1024E0001546894604001ED00F4608222946FFF7EC
:1024F00058F8002811D1002613E000BF54F8260038
:1025000005A9103000F0C8FC002806D13FB157F8EB
:10251000260010F067F910B110201EB0ABE7761C52
:10252000F6B2AE42EAD30026A5F101081CE000BFD6
:1025300006F1010A0AF0FF0712E000BF54F8260076
:10254000017C4A0854F827100B7CB2EB530F05D1DD
:102550000622113011311DF02EFCC0B17F1CFFB2DC
:10256000AF42EBD30AF0FF064645E1DBC8462F46F3
:10257000342007AD0DF148098DF81C002646494668
:10258000284609F04EFE28B143F20420C5E743F285
:102590000520C2E796B300242CE000BF56F82400C3
:1025A000A91C103000F078FC00B1FFDF56F82400C1
:1025B000102250F8111FC5F803108088A5F80700F5
:1025C00056F8241005F109001DF021FCB8F1000FA8
:1025D00015D058F82410102205F119001DF017FC31
:1025E000322028704946284609F01BFE00B1FFDF63
:1025F000641CE4B2BC42D1D3012206E004E005F140
:10260000190001F095FFEBE700224946284600F04B
:102610006EFC002081E770B596B0044610F0E2F839
:1026200018B9606810F029F910B1102016B070BD0B
:1026300060884AF2B811884206D8384D20786E4634
:102640002D1F18B1012804D00720EFE7FEF7CDFEBB
:102650001AE06078022804D0032802D043F2022056
:10266000E4E7E87317208DF80000E97B0020CDF83F
:102670000200ADF80600022932D003292DD0FFDF79
:102680000BA9684609F0CDFD0028CFD1606801F0A4
:1026900042FF207870B101208DF80200F01C01F09B
:1026A00047FF4E208DF800000BA9684609F0B9FDE0
:1026B00000B1FFDF6088A8B1A88180B2ADF8020048
:1026C00030208DF800000BA9684609F0AAFD00B182
:1026D000FFDF2078A8730020A8E78DF80700CFE778
:1026E0004020FAE74FF46170E6E710B5044610F0B9
:1026F0009DF820B9606838B110F0B6F808B1102024
:1027000010BD606801F014FF0448001F81896180DA
:10271000C17B6170807B2070002010BDB80100205B
:10272000100000202DE9F0419CB0054600208DF8F6
:1027300064008DF860008DF830008DF868001E464A
:1027400014468846284610F098F818B9204610F02C
:1027500094F810B110201CB04BE455EA040018D0D6
:102760001F270CAB19AA414628460097FEF735FFF4
:102770000028F0D11AAB18AA314620460097FEF780
:102780002CFF0028E7D19DF86000C00703D00A2085
:10279000E1E70720DFE701AF7DB11A208DF80400E3
:1027A0008DF8068042462946F81C1DF030FB0DA925
:1027B00001A809F036FD0028CDD17CB120208DF88C
:1027C00004008DF8066032462146F81C1DF01FFB00
:1027D0000DA901A809F025FD0028BCD1FF499DF8ED
:1027E000300048700020B6E72DE9F0439BB04FF071
:1027F0000008FBA104468DF83480D1E90001CDE941
:10280000190120460FF0EEFF90B92078012803D17E
:1028100060680FF0E7FF58B9F04D4FF00109A87B51
:1028200050B1E87B022807D1606810F026F818B193
:1028300010201BB0BDE8F0832878012801D00820C3
:10284000F7E707200CF038F918B9207848B10128CB
:1028500007D0FEF799FD30B1687C10F00C0F08D15D
:1028600003E01220E5E71320E3E7C10701D1800769
:1028700001D51120DDE7608943F6E172A0F1200166
:102880009142217807D301297ED100287CD1A189EA
:10289000002979D10FE0022901D0032901D1A02814
:1028A00072D3012907D06978C90704D0A18900290A
:1028B0006AD0B42968D8217831B1012908D0022919
:1028C00004D0032960D10AE0002609E0022607E0CF
:1028D00008B9A08908B1042609E0012607E003260B
:1028E000A87B50B1E87B022807D1606828B10DA908
:1028F0006068FEF7D0FE00289BD1207A30B1012815
:1029000006D0022806D003286DD105E0002704E098
:10291000012702E0022700E003270EB1022E0ED1AC
:102920006FB1E87880B36878800702D043F2012065
:102930007FE7022E03D1022F55D0032F53D018204A
:102940008DF838006089ADF83A006089ADF83C0038
:102950008DF83E600DF13F00FEF7C0FE00B1FFDFD5
:102960009DF834008DF840002078012806D0A87B1F
:1029700068B1E87B02280AD1606840B1606850F80D
:10298000011FCDF8411000E02DE0808802E04046B4
:10299000CDF84180ADF845008DF84870A07BC0F3BC
:1029A0004002014662F35F01C0F3800041EA80000B
:1029B00019A9085C8DF84700A8B169460EA809F06E
:1029C00030FC0028B4D11B208DF838008DF83A90E7
:1029D00069460EA809F025FC0028A9D19DF8010040
:1029E0001B2819D101E0072023E7052E09D2DFE8D3
:1029F00006F0030305050300032000E0022000F0B9
:102A000025FA012E0AD0A08940B100228300114688
:102A100010460FF007FE08B103200AE7002008E780
:102A20002DE9FC4107460D46032608460FF025FF19
:102A3000002864D13846FEF7F1FC040005D0207868
:102A4000222805D20820BDE8FC8143F20200FAE703
:102A5000A07F00F0030C2DB129466046FEF76BFD08
:102A60000600F0D15D48BCF1010F05D0BCF1020FAA
:102A700017D0FFDF3046E6E7A27D2946012A02D0C3
:102A8000407C800701D51120DDE729B9684600F0B8
:102A9000D0FB0028D7D16946384606F0E2FA064650
:102AA000E8E7A17D022914D1407C800611D425B12C
:102AB000A07F40070BD4002100E00121384606F03A
:102AC00018FB0600D6D1A075002DD3D002E0112648
:102AD000D0E7A5B12A4621463846FEF774FE0646E1
:102AE0001128C7D1A07F4107C4D4296844F80E1F1C
:102AF0006968616040F0040020740026BAE7102085
:102B0000A1E770B50C460546FEF788FC010005D02C
:102B100022462846BDE87040FEF733BE43F202006D
:102B200070BD00B597B042218DF800108DF80200FD
:102B30000BA9684609F075FB17B000BD0123FEF72D
:102B400070BC00231A461946FEF76BBC30B597B02F
:102B500004460FF047FE10B1102017B030BD2046DC
:102B600000F088F90028F8D11C4DA878112801D070
:102B70000820F2E7FEF708FC20B1687CC00603D508
:102B80001120EAE71320E8E72078800701D5E878EC
:102B900018B31D208DF800002078022200F00100FB
:102BA0008DF802006088ADF80400A088ADF806003A
:102BB0002078C0F3400102EA500001438DF809106B
:102BC00002A8FEF78BFD00B1FFDF0BA9684609F0F4
:102BD00028FB0028C1D11E2006E01DE0B401002022
:102BE00007060504030201008DF8000001208DF89E
:102BF000020000208DF803000BA9684609F011FBC4
:102C00000028AAD1E08800F051F90400A5D11220D3
:102C1000FEF7A0FB2046A0E707209EE7F0B597B09F
:102C200015460C4607460FF028FE38B920460FF02F
:102C3000D9FD18B928460FF0D5FD10B1102017B0F6
:102C4000F0BDB84E707C10F0180F01D1400701D5CF
:102C50001120F4E7204600F00DF90028EFD12946B5
:102C60000220FEF768FC0028E9D1B078112803D0D3
:102C7000122801D00820E2E72078C0F34001394350
:102C800011D0800700D577B906200BF015FF40B1B1
:102C90002078800701D5F07828B1B078122804D0C8
:102CA00007E01220CBE70720C9E7FFF75AF9002811
:102CB000C5D1FEF769FB022801D21320BFE721200E
:102CC0008DF800006088ADF80200A088ADF804001F
:102CD0002078C0F340008DF806002078800716D4D5
:102CE0003878420808D0012A18D043F20221022A7B
:102CF00018D0032A18D115E0C00700D002208DF8A3
:102D0000070057F8010F0290B888ADF80C000DF1DC
:102D10000E00FEF7E3FC58B1032090E7C00705D092
:102D20000320ECE7C00701D0084688E70120E6E76A
:102D30002888ADF810006888ADF81200A888ADF8B2
:102D40001400E888ADF816000020ADF81800ADF8C2
:102D50001A000BA9684609F064FA00288BD1E088B4
:102D600000F0A4F8040086D11320FEF7F3FA204601
:102D700065E730B5054697B00C4608460FF056FD9E
:102D800008B11020E9E62846FEF748FB38B1017883
:102D9000222902D3807F800604D40820DDE643F296
:102DA0000200DAE613208DF80000ADF802500BA9FE
:102DB000684609F036FA0028E4D19DF932107F29DF
:102DC00001D02170C9E60520C7E630B5054697B0A9
:102DD0000C4608460FF006FD08B11020BDE6284657
:102DE000FEF71CFB20B10078222804D20820B4E6AC
:102DF00043F20200B1E62178E8B2C90802D1617855
:102E0000C90801D00720A8E652218DF80010ADF8BE
:102E1000020020788DF8050060788DF80600207893
:102E200030B100208DF80400617819B1002102E072
:102E30000120F7E7022108438DF804000020ADF8D7
:102E400008000BA9684609F0ECF986E630B5354D67
:102E5000040008D0012C04D0022C06D0032C04D08E
:102E6000FFDF2C7030BDFFDFFBE728780128F8D0AA
:102E7000FFDFF6E7418843F6FD730A1F9A4209D245
:102E80008088042806D3B0F5804F03D8884201D843
:102E900000207047072070470278520804D0012AAA
:102EA00002D043F202207047FEF7F5BB10B548B1DF
:102EB00083000022114607200FF0B4FB072801D041
:102EC00003202AE4002028E470B50C0006460DD04B
:102ED000FEF7A4FA050000D1FFDFA6802889208133
:102EE000288960816889A081A889E08170BD10B5BA
:102EF00002F0010282703122027009F092F900287A
:102F000000D0FFDF09E410B500231A4603E0845C1B
:102F10002343521CD2B28A42F9D30BB10020D0E72E
:102F20000120CEE7B40100204FF0E0224FF4004131
:102F30000020C2F8801120490870204990020860E2
:102F4000704730B51C4D04462878A04218BF002CAD
:102F500002D0002818BFFFDF2878A04208BF30BD8C
:102F60002C701749154A0020ECB1164DDFF858C0F7
:102F7000131F012C0DD0022C1CBFFFDF30BD0860D9
:102F800003200860CCF800504FF400001060186077
:102F900030BD086002200860CCF800504FF040704F
:102FA0001060186030BD086008604FF060701060FD
:102FB00030BD00B5FFDF00BD1A00002008F501405C
:102FC00000F50040FC02002014F5004018B117285D
:102FD00002D2072070471720084908800020704758
:102FE00006480088704770B50C46054607F0B5FBEB
:102FF00021462846BDE8704008F070BC460000201D
:1030000018FFFFFFDBE5B151001002008F00FFFF4A
:1030100084000000404B4C00FE48002101604160EC
:1030200070472DE9F743044692B091460120FFF71F
:103030007DF960680FF018FC58B160680FF01DFC56
:1030400038B9607800F00300022802D10020FFF7B1
:103050006DF94D4648460FF0C5FB18B1102015B06C
:10306000BDE8F08329460120FEF765FA0028F6D175
:1030700001258DF842504FF4C050ADF840000022B9
:1030800010A9284603F0B8FE0028E8D18DF8425078
:103090004FF42850ADF8400000261C2168460796E2
:1030A0001CF04EFF9DF81C0007AF20F00F00401CE5
:1030B00020F0F00010308DF81C0020788DF81D00F5
:1030C00061789DF81E000DF1400861F3420040F068
:1030D00001008DF81E009DF8000008AA40F00200D3
:1030E0008DF800002089ADF83000ADF832606089BD
:1030F000ADF834000B9760680E900AA9CDF82880CF
:10310000684603F078FC0028A9D1C24CBDF8200025
:1031100008AA20808DF8425042F60120ADF8400008
:103120009DF81E000AA920F00600801C20F0010076
:103130008DF81E000220ADF83000ADF8340013A861
:103140000E90684603F057FC002888D1BDF8200097
:103150006080211D484600F032F9002887D18DF8A3
:10316000425042F6A620ADF840001C216846079662
:103170001CF0E6FE9DF81C00ADF8345020F00F0066
:10318000401C20F0F00010308DF81C009DF81D0050
:1031900008AA20F0FF008DF81D009DF81E000AA966
:1031A00020F0060040F00100801C8DF81E009DF804
:1031B00000008DF8445040F002008DF80000CDE989
:1031C0000A8711A80E90ADF83050684603F013FC42
:1031D000002899D1BDF82000E08000203FE73EB5EF
:1031E00004460820ADF8000020460FF0FBFA08B1B5
:1031F00010203EBD21460120FEF79DF90028F8D1A0
:103200002088ADF804006088ADF80600A088ADF80D
:103210000800E088ADF80A007E4801AB6A46808865
:10322000002103F0E3FFBDF800100829E1D00320DE
:103230003EBD1FB50446002002900820ADF80800EE
:10324000CDF80CD020460FF0CDFA10B1102004B00C
:1032500010BD704802AA81884FF6FF7004F09EF9F5
:103260000028F4D1BDF80810082901D00320EEE7AA
:10327000BDF800102180BDF802106180BDF8041077
:10328000A180BDF80610E180E1E701B582B002201F
:10329000ADF800005F4802AB6A464088002103F0A9
:1032A000A5FFBDF80010022900D003200EBD1CB5FB
:1032B000002100910221ADF8001001900FF0B6FA44
:1032C00008B110201CBD53486A4641884FF6FF7074
:1032D00004F064F9BDF800100229F3D003201CBDEE
:1032E000FEB514460E460746FFF724F828B13046CF
:1032F0000FF078FA18B11020FEBD0F20FEBDF82C9B
:1033000001D90C20FEBD38460FF06CFA414D18BBB8
:10331000288801A903F0F8F80028F3D138788DF84F
:103320000500288801A903F03FFF0028EAD100909A
:103330009DF800009DF8051040F002008DF8000097
:10334000090703D040F008008DF80000288869467E
:1033500003F0C7FE0028D5D1ADF8084028883346D1
:1033600002AA002103F042FFBDF80810A142C9D013
:103370000320FEBD7CB50546002000900190088822
:10338000ADF800000C46284601950FF06DFA18B90B
:1033900020460FF04BFA08B110207CBD15B1BDF8E6
:1033A000000050B11B486A4601884FF6FF7004F0D8
:1033B000F5F8BDF8001021807CBD0C207CBD30B537
:1033C00093B0044600200D460090142101A81CF083
:1033D000B7FD1C2108A81CF0B3FD9DF80000CDF836
:1033E00008D020F00F00401C20F0F00010308DF8C5
:1033F00000009DF8010020F0FF008DF801009DF80D
:10340000200040F002008DF8200001208DF84600D9
:1034100002E000001200002042F60420ADF8440053
:1034200011A801902088ADF83C006088ADF83E00FE
:10343000A088ADF84000E088ADF842009DF8020099
:1034400006AA20F00600801C20F001008DF8020082
:103450000820ADF80C00ADF810000FA8059001A9E8
:1034600008A803F0C8FA002803D1BDF81800288086
:10347000002013B030BD000010B504460FF0B2F9C3
:1034800008B1102010BD2078C0F30210042807D81E
:103490006078072804D3A178102901D8814201D28D
:1034A000072010BDE078410706D421794A0703D4EC
:1034B000000701D4080701D5062010BD002010BD6B
:1034C00010B513785C08C37F64F30003C3771478E6
:1034D000A40864F34103C3771078C309887863F3C1
:1034E0004100887013781C094B7864F347134B70C4
:1034F0001378DB0863F3000088705078487110BDC2
:1035000010B5C4780B7864F300030B70C4786408BA
:1035100064F341030B70C478A40864F382030B7056
:10352000C478E40864F3C3030B700379117863F380
:103530000001117003795B0863F341011170037995
:103540009B0863F3820111700079C00860F3C30126
:10355000117010BD70B514460D46064604F0B1FE5C
:1035600080B10178142221F00F01891C21F0F001B3
:10357000A03100F8081B21461CF08EFCBDE870400D
:1035800004F0A2BE29463046BDE870401322FEF783
:10359000F8B870B514460E46054604F092FE70B1B8
:1035A000017821F00F01891C21F0F0012031017018
:1035B000458021688160BDE8704004F085BE3146D9
:1035C0002846BDE870401322FEF7DBB810B5FE4C6C
:1035D00094F8300000280CD104F120014FF6FF725E
:1035E000A1F110000CF0F3FE00B1FFDF012084F820
:1035F000300010BD2DE9F047064608A8894690E83E
:1036000030041F469046142128461CF099FC0021E6
:10361000CAF80010B8F1000F03D0B9F1000F03D1C0
:1036200014E03878C00711D020680FF0FFF8E8BB2D
:10363000B8F1000F07D120681230286020681430DC
:1036400068602068A8602168CAF800103878800790
:1036500028D560680FF008F940BBB9F1000F2DD0F4
:10366000FEF762FE0168C6F8B4118188A6F8B811A9
:10367000807986F8BA01FFF7A9FFDFF84C8308F1DB
:103680002008C5F80C80626862B196F8B40106F2B1
:10369000B51140081032FEF74FF81022414660681D
:1036A0001CF0B5FB3878400712D500E003E0A068B5
:1036B0000FF0BCF850B11020BDE8F087606800281A
:1036C000F9D0E8606068C6F8B001EBE7A06828614F
:1036D0000020F1E730B5054608780C4620F00F00D1
:1036E000401C20F0F001103121700020607095F82E
:1036F000230030B104280FD0052811D0062814D09B
:10370000FFDF20780121B1EB101F04D295F82000D3
:1037100000F01F00607030BD21F0F000203002E0AA
:1037200021F0F00030302070EBE721F0F000403065
:10373000F9E710B510B190F8A94044B1A24890F84B
:10374000354000205CB108601060186010BD00F1C9
:10375000A8040C6000F1D001F8301160F5E79A4C34
:1037600034340C60F0E700B58BB00723CDE90212CA
:103770008DF801300191944900236431059109933A
:1037800001468DF8103068460CF0F9FD002800D095
:10379000FFDF0BB000BD30B597B00C462C251A9951
:1037A0008DF80050ADF80200B3B118680190586868
:1037B0000290ADF80C2010220DF10E001CF027FB3A
:1037C0000BA9684608F02DFD002803D1A17F41F028
:1037D0001001A17717B030BD00200190E8E72DE976
:1037E000F0470646008A8CB080B20D468246FDF74F
:1037F00015FE0446744F3078283FDFF8CC814FF037
:103800000009122873D2DFE800F072E93509367733
:103810007E98A8F3E7E6E5E4E35BE3E3A07F00F04E
:103820000300012806D0002150460BF092F9050054
:1038300003D101E00121F7E7FFDF98F85C100906EA
:1038400002D5D8F860000BE0032105F121000EF04D
:1038500075FCD5F821005D49B0FBF1F201FB1200C7
:10386000C5F8210070686866B068A86620782528C9
:1038700000D0FFDFECE0A07F00F00300012806D0BD
:10388000002150460BF065F9060003D101E001214B
:10389000F7E7FFDF7078810702D52178252904D06A
:1038A00040F0010070700CB006E70220287096F816
:1038B0002000287106F121003136C5E90206F2E741
:1038C000A07F00F00300012806D0002150460BF035
:1038D00040F9040003D101E00121F7E7FFDF607840
:1038E000C10605D51320287041346C60DBE7CEE1BA
:1038F00040F008006070D6E73348082128380EF001
:103900001DFC032016E02A208DF8000010220DF186
:10391000020071681CF07BFA10220DF11200B168F0
:103920001CF075FA284968462C3908F07AFC00B179
:10393000FFDF042028706F60B5E7E07FC00600D588
:10394000FFDFB0680090B38806220321504605F0DF
:1039500002FA0028A7D0FFDFA5E704B9FFDF7168EE
:1039600021B1102204F124001CF051FA2821204634
:10397000FDF78CFDA07F00F0030002280ED104F1BA
:103980002400002300901A4621465046FFF703FF0B
:10399000112807D029212046FDF778FD307A84F8D8
:1039A000200080E7A07F000700D5FFDF14F81E0F7E
:1039B00040F008002070A4F81690C4F81890C4F8DD
:1039C0001C90617808460AE0F401002040420F0094
:1039D00030E058E196E08CE062E009E03FE061F31E
:1039E0008200410861F3C3006070307AE0705AE7EA
:1039F000A07F00F00300012806D0002150460BF004
:103A0000A8F8040003D101E00121F7E7FFDF02215C
:103A100004F175000EF092FB1020287004F5DA70A6
:103A20006860B4F875002882FE486C346C61C5E9A2
:103A3000028038E7A07F00F00300012805D00021B4
:103A400050460BF086F818B901E00121F8E7FFDFD6
:103A50000CB0324621465046BDE8F0477AE504B93D
:103A6000FFDF207821289CD93079012802D0022854
:103A70000AD103E0E07F40F01000E07798F85C1096
:103A800041F0010188F85C10324621465046FFF7AC
:103A900061FD0CB02046BDE8F0472321FDF7F6BCE0
:103AA000327901230321504605F004F878B1112042
:103AB0002870327905F10800AA80031D00900321C7
:103AC000504605F074F8002891D0FFDFEBE6A07FA8
:103AD00000F00300012806D0002150460BF039F811
:103AE000040003D101E00121F7E7FFDF3079207006
:103AF000D9E60321504605F0CFFB002899D11220CA
:103B00002870D0E6A07F00F00300012806D0002135
:103B100050460BF01EF8050003D101E00121F7E744
:103B2000FFDF95F8740000F00300012878D1A07F32
:103B300000F00307E07FC0F3400616B1012F04D068
:103B40002BE095F89000C0072AD0D5F8AC1119B336
:103B500095F87320087C62F387000874E27FD5F83B
:103B6000AC1162F341000874D5F8AC1166F30000A3
:103B70000874AEB1D5F8AC01102204F124017835F7
:103B80001CF045F9287E40F001002876287820F0C6
:103B9000010005F8780900E016B1022F04D02CE0EE
:103BA00095F87800C00726D0D5F8A81119B395F874
:103BB0007320087C62F387000874E27FD5F8A811AF
:103BC00062F341000874D5F8A81166F30000087488
:103BD0008EB1D5F8A801102204F1240178351CF02B
:103BE00016F9287840F0010005F8180B287820F025
:103BF000010005F89009022F41D0002000EB4000A1
:103C000005EBC00090F87800800709D595F86C00A6
:103C1000D5F8B021400805F16D011032FDF78CFD9B
:103C200005208DF8000015F8740F6A4600F00300B7
:103C30008DF8010028798DF80200287F8DF80300A7
:103C400021465046FFF7A5FC2078252805D02128DD
:103C500007D0FFDF2078222803D922212046FDF754
:103C600015FCA07F00F0030001280AD00021504677
:103C70000AF081FF00283FF422AEFFDF13E60120A7
:103C8000BCE70121F3E7716881F801900BE6FFDFE3
:103C900009E670B5634C0025103C14F85C0F20F069
:103CA0008000207065600CF032FB5E49A1F11000CD
:103CB00004F099FA04F82C5C0620607259487C30B4
:103CC00020615030A0611030E06170BD70B50D46CC
:103CD000FDF7A4FB040000D1FFDF4FF4DE7128469E
:103CE0001CF02EF94F485430686104F1240028611B
:103CF000A07F00F00300012808D0022105F5907094
:103D00000CF006FB002800D0FFDF70BD0121F5E7B5
:103D10000A46014602F590700CF01ABB70B50546D4
:103D200040689CB0017808290DD00B2903D00C29DC
:103D300036D101218171686886883046FDF76EFBB7
:103D4000040033D131E046883046FDF767FB0400BC
:103D500000D1FFDF2078212822D0282822D16868CE
:103D600002210C3001F0B2F9E0B168680821001DB1
:103D700001F0ACF9B0B12D208DF80000ADF8026073
:103D8000102204F1240101A81CF041F80BA9684697
:103D900008F047FA00B1FFDF29212046FDF776FB46
:103DA0001CB070BD04F090FAFAE7FFDFA07F00F0CE
:103DB0000301022902D120F01000A07720782128E9
:103DC0000AD06868817909B1807880B1A07F00F05D
:103DD0000300022859D0FFDFA07F00F00300022873
:103DE000DED1FDF70DFD0028DAD0FFDFD8E704F0C3
:103DF0006BFAE07FC10723D0800701D5062000E0E1
:103E0000052084F82300207829281BD02428E3D11A
:103E1000314606200EF0A3FC22212046FDF736FB9A
:103E2000A07F01E00402002000F0030001282AD056
:103E3000002130460AF09FFE0028CDD0FFDFCBE7FF
:103E40000420DEE7A07F00F00300012806D0002157
:103E500030460AF07EFE050003D101E00121F7E7BC
:103E6000FFDF25212046FDF711FB0F208DF85800BC
:103E700016A905F590700CF062FA0228ACD0002863
:103E8000AAD0FFDFA8E70121D3E704F01DFAA3E7DA
:103E90002DE9F0438BB09946154688460646FDF756
:103EA000BDFA04004ED0207822284BD3232849D0D5
:103EB000E07FC00646D4A07F00F00300012806D0B2
:103EC000002130460AF045FE070002D00BE0012138
:103ED000F7E7A07F00F00300012804D1012130465C
:103EE0000AF02EFE074601AB02AA03A93846FFF7E7
:103EF00020FC039800B9FFDF4FB1039807F59077D6
:103F000087612078222806D0242804D007E003996E
:103F10000020886103E025212046FDF7B7FA0398C9
:103F20000B21417046628580C0E9028902990161D6
:103F30000199416104A90CF022FA022802D000285C
:103F400000D0FFDF0BB0BDE8F08330B587B0054689
:103F5000FDF764FA017822292FD9807F00F0030051
:103F6000012806D0002128460AF0F3FD040003D101
:103F700001E00121F7E7FFDF227801230321284632
:103F800004F098FD002818D011208DF80400227844
:103F900003A80090ADF8082004AB0321284604F0E4
:103FA00006FE00B1FFDF01A904F590700CF0C7F91F
:103FB000022802D0002800D0FFDF07B030BD10B5C6
:103FC00086B00446FDF72AFA0178222919D9807FA4
:103FD00000F00300012806D0002120460AF0B9FDB8
:103FE000040003D101E00121F7E7FFDF12208DF883
:103FF0000000694604F590700CF0A1F9002800D08B
:10400000FFDF06B010BD2DE9F05F05460C46002726
:104010000078904601093E46BB4604F1080A022991
:104020007ED0072902D00A2909D142E068680178C8
:10403000082905D00B292CD00C292AD0FFDFC6E196
:1040400014271C26002C6CD04088A080FDF7E6F9D0
:104050005FEA000900D1FFDF99F8170052464008D7
:1040600009F11801FDF768FB68688089208268689B
:104070004168C4F812108068C4F81600A07E20F0D1
:10408000060040F00100A07699F81E0040F04001C3
:104090004DE01A270A26002CD5D08088A080FDF795
:1040A000BDF9050000D1FFDF51462846FFF712FB9E
:1040B0008DE10CB1288BA080287A0E287ED006DCFA
:1040C00001287CD0022808D0032804D135E010282C
:1040D00076D0112875D0FFDF79E11E270926002C44
:1040E000B1D0A088FDF79AF95FEA000900D1FFDF9F
:1040F000287B00F003000128207A1BD020F001006B
:104100002072297B890861F341002072297BC9084C
:1041100061F382002072297B090961F3C30001E089
:104120004AE117E1207299F81E0040F0800189F8F9
:104130001E104CE140F00100E2E713270D26002C91
:10414000AAD0A088FDF76AF98146807F00F00300BD
:10415000012806D00021A0880AF0FBFC050003D14D
:1041600001E00121F7E7FFDF99F81E0000F00302EC
:10417000012A59D0A86E817801F003010129217A22
:1041800054D021F00101217283789B0863F341012F
:1041900021728378DB0863F38201217283781B0923
:1041A00063F3C3012172037863F30611217243782C
:1041B00063F3C711217284F809B003E05EE0A4E064
:1041C0008CE09CE0C178A172012A32D04279E17A78
:1041D00062F30001E1724279520862F34101E17237
:1041E0004279920862F38201E1724279D20862F365
:1041F000C301E1720279217B62F30001217302792C
:10420000520862F3410121730279920862F382013C
:1042100021730079C00860F3C301217399F800008D
:1042200023285AD9262168E0686EA4E741F00101ED
:10423000A9E70279E17A62F30001E172027952089A
:1042400062F34101E1720279920862F38201E17244
:104250000279D20862F3C301E1724279217B62F3F1
:10426000000121734279520862F3410121734279BE
:10427000920862F3820121734079CBE71827102658
:10428000002C67D0A088FDF7C9F88246807F00F037
:104290000300012807D00021A0880AF05AFC5FEA39
:1042A000000903D101E00121F6E7FFDFE868A06023
:1042B00099F8010040F0040189F8011099F8020012
:1042C000800708D5012020739AF8000023287ED9A2
:1042D0002721504663E084F80CB078E015270F26BC
:1042E000C4B3A088FDF79AF8814606225146E868D3
:1042F00007F0FFFF0120A073AEE048464FE016270D
:1043000009263CB3287B207261E0297BFE48022904
:104310000CD019270E26ECB101290DD003291AD093
:1043200004291BD0052919D0FFDF23E01B2709260C
:10433000BCB30121217205E001212172617A21F0D3
:104340000301617210F85C1F4A08520062F3060113
:1043500001700FE02BE00220207207E0687B052946
:1043600000F00F0040F0800020721BD0607A20F037
:1043700003006072A088FDF751F8054600782128F7
:1043800025D0232800D0FFDFA87F00F003000128FC
:1043900010D00021A0880AF0EEFB22212846FDF76C
:1043A00075F814E0607A20F00300401CE1E7A8F8FB
:1043B000006011E00121EDE70CB16888A080287A47
:1043C00003282BD004280AD005284BD0FFDFA8F8FB
:1043D00000600CB1278066800020BDE8F09F1527A3
:1043E0000F26002CE3D0A088FDF718F8807F00F09E
:1043F0000300012806D00021A0880AF0AAFB0500CE
:1044000003D101E00121F7E7FFDFD5F82100062203
:10441000514607F06EFF84F80EB0D8E7172709263B
:10442000002CC4D0A088FCF7F9FF8146807F00F003
:104430000300012806D00021A0880AF08AFB0500AD
:1044400003D101E00121F7E7FFDFA878800701D55C
:10445000022000E00120207299F800002328B6D93C
:1044600027214AE719270E26002CA0D0A088FCF7A8
:10447000D5FF5FEA000900D1FFDFC4F808B0A4F857
:104480000CB084F808B0A07A40F00300A07299F84C
:104490001F1061F38200A07299F81F1001EA510108
:1044A00061F3C300A072687A00F0030001288ED186
:1044B000607A40F00400607299F81E00E97A00F01A
:1044C0000300012813D0607B61F300006073AA7AB7
:1044D000217B62F300012173EA7A520862F3410002
:1044E0006073A87A400860F3410121736FE7207B75
:1044F00061F300002073AA7A617B62F300016173AB
:10450000EA7A520862F341002073A87A400860F307
:10451000410161735BE710B57B4C30B1014610225D
:1045200004F120001BF073FC012084F8300010BD62
:1045300010B50446FFF74AF8734920461022BDE83B
:10454000104020311BF063BC70B56F4C06004FF07B
:10455000000514D00EF046F908B110250DE0062133
:10456000304607F0ADFE411C06D0206614F85C0F03
:1045700040F08000207000E00725284670BD14F848
:104580005C0F20F08000F5E7007810F00F0204D0F7
:10459000012A05D0022A0CD110E0000909D10AE055
:1045A0000009012807D0022805D0032803D00428D9
:1045B00001D0072070470870002070470620704720
:1045C00005282AD2DFE800F003070F171F0008783C
:1045D00020F0FF001EE0087820F00F00401C20F0C3
:1045E000F000103016E0087820F00F00401C20F09A
:1045F000F00020300EE0087820F00F00401C20F082
:10460000F000303006E0087820F00F00401C20F069
:10461000F0004030087000207047072070472DE9F7
:10462000F041804688B00D46002708460EF025F977
:10463000A8B94046FCF7F2FE040003D020782228F7
:1046400015D104E043F2020008B0BDE8F08145B99D
:10465000A07F010603D500F00300022801D010203E
:10466000F2E7A07FC10601D4010702D50DB10820F1
:10467000EAE7254991F85C10C90701D01120E3E76A
:10468000E17FC90601D50D20DEE700F00300022816
:1046900005D125B12846FEF7EFFE0700D4D1A07F53
:1046A00000F00300012806D0002140460AF051FA2C
:1046B000060002D00CE00121F7E7A07F00F0030024
:1046C00001280BD0002140460AF03AFA060007D034
:1046D000A07F00F00300022804D009E00121F2E7E6
:1046E0000420B1E725B12A4631462046FEF7E8FE10
:1046F00007AB1A4669463046FFF71BF8009800B929
:10470000FFDF0C20009901E0F4010020487006F55D
:104710009070C1F82480486100200881A07F00F0DB
:104720000300012828D0EDB302200871301D8861F4
:10473000707840090877B078C0F34000487728784F
:1047400000F00102887F62F301008877E27F62F364
:1047500082008877E27F520862F3C3008877B278DC
:1047600062F304108877A878C87701F121022846FF
:104770002031FEF7C5FE22E001200871287800F004
:104780000102087E62F3010008762A78520862F37B
:10479000820008762A78920862F3C30008762A78A5
:1047A000D20800E007E062F30410087624212046D6
:1047B000FCF76CFE0BE0032008710520087625212C
:1047C0002046FCF763FEA07F20F08000A07701A9BF
:1047D00000980BF0D4FD022801D000B1FFDF38466D
:1047E00032E72DE9FF4FF94A0D4699B09A4607CABC
:1047F00014AB002783E807001998FCF70FFE0600AA
:1048000006D03078262806D008201DB0BDE8F08FED
:1048100043F20200F9E7B07F00F00309B9F1010F9C
:1048200003D0B9F1020F07D008E03DB91B98FEF79D
:1048300023FE0028E9D101E01B9878BBB07F00F08F
:104840000300012806D0002119980AF082F904001B
:1048500003D101E00121F7E7FFDF852D25D007DC3B
:10486000D5B1812D1BD0822D1BD0832D08D11AE00C
:10487000862D1CD0882D1CD0892D1CD08A2D1CD0B3
:104880000F2020710F281AD001208DF83400201D30
:104890000E902079A8B158E10020F2E70FE0012046
:1048A000EFE70220EDE70320EBE70520E9E706202C
:1048B000E7E70820E5E70920E3E70A20E1E707202A
:1048C000A3E7B9F1010F17D0D4E9195080460220AF
:1048D000019001200090A87898F80210C0F3C00061
:1048E000C1F3C00108405FEA000B5DD050460DF0F7
:1048F00079FF00286CD12DE0D4E9198501200190C1
:1049000002200090214630461B9AFEF7D9FD1B98E5
:10491000007800F00101A87861F30100A870F17F30
:1049200061F38200A870F17F490861F3C300A870A9
:10493000A17861F30410A870607840092870A0780D
:10494000C0F3400068701B988078E87000206871A0
:104950002871C0E7DAF80C000DF044FFC0BBDAF8AC
:104960001C000DF03FFF98BBDAF80C00A060DAF8ED
:104970001C00E06098F80100A17800F0010041EA15
:104980004000A07098F80210C0B2C1F30011891E57
:104990000840A070002084F82000009906F117005C
:1049A00002290BD001210AE098F80110A07801F04B
:1049B0000101FD2242EA41010840E2E7002104EB47
:1049C000810188610199701C022902D0012101E056
:1049D00028E0002104EB81018861A87800F0030041
:1049E000012849D198F8020000F00300012843D1C2
:1049F000B9F1010F04D12A1D691D1B98FEF780FD36
:104A0000297998F8040001408DF82C10687998F8FD
:104A1000052010408DF8300001432DD050460DF098
:104A2000E1FE08B11020F0E60AF1100004F5D4719F
:104A300004F17C020490B9F1020F3CD00090CDE962
:104A4000012100210BAB5A462046FEF7D3FD00287A
:104A5000E9D104F5D67104F19402B9F1010F30D017
:104A600004980090CDE9012100210CAB5A46204664
:104A7000FEF7C0FD0028D6D1A078800740D4A878E2
:104A800098F80210C0F38000C1F38001084337D0CA
:104A9000297898F8000014AAB9F1010F17D032F85C
:104AA00010204B00DA4012F0030718D0012F1ED05F
:104AB000022F12D11DE0CDF800A0CDE90121012186
:104AC000C0E7CDF800A0CDE901210121CDE732F802
:104AD00011204300DA4002F00307032F07D0BBF197
:104AE000000F0DD0012906D0042904D008E00227C8
:104AF000F5E70127F3E7012801D0042800D10427B6
:104B0000F07F40F001006BF34100F077A07881075F
:104B10004FF003000CD5A071BBF1000F15D100BF01
:104B20008DF85C0017AA31461998FEF732FD0CE0AB
:104B30000221022F18D0012F18D0042F22D00020DC
:104B4000A071F07F20F00100F07725213046FCF7BE
:104B50009DFC0DA904F590700BF0F1FB10B102283B
:104B600000D0FFDF002050E6A171D9E7A1710D212F
:104B700004F124001BF0E4F9607840F0020060705A
:104B80000420CDE70120A071DFE72DE9F04387B0D5
:104B9000914688460446FCF741FC070006D0387869
:104BA000272806D0082007B0BDE8F08343F20200B2
:104BB000F9E7B87F00F00300012809D00021204662
:104BC00009F0C7FF040006D104E00000DC02020087
:104BD0000121F4E7FFDFA679012E08D0B8F1000F1C
:104BE0000FD048460DF0FEFDB8B11020DBE7B9F15B
:104BF000000F25D1B8F1000F09D0B8F1010F1FD176
:104C000020E0022E05D0032E05D0FFDF28E00C2582
:104C100026E0012524E0022522E0B8F1020F03D0AE
:104C2000B8F1010F0AD00BE0032E09D100251022A4
:104C3000494604F121001BF0EAF811E0022E01D0F0
:104C40000720B0E70025102104F121001BF056F9E0
:104C50005FEA090004D0062107F032FBC4F8210006
:104C60006078252140F0020060703846FCF70EFCA9
:104C70006078C10713D020F00100607002208DF829
:104C8000000004F1210002908DF804506946FF30C5
:104C90000BF055FB022804D018B1FFDF01E084F8C7
:104CA000205000207FE730B587B00D460446FCF762
:104CB000B5FB88B1807F00F0030001280FD00021F0
:104CC000204609F046FF04000ED028460DF08AFD6C
:104CD00038B1102007B030BD43F20200FAE70121DD
:104CE000EEE76078400701D40820F3E7294604F195
:104CF0004100202205461BF08AF8607840F0100041
:104D0000607001070FD520F00800607013208DF847
:104D10000000694604F5907001950BF010FB022825
:104D200001D000B1FFDF0020D4E770B592B00D468E
:104D30000646FCF773FB18B10178272940D103E040
:104D400043F2020012B070BD807F00F00300012822
:104D500006D00021304609F0FCFE040003D101E03A
:104D60000121F7E7FFDFA079022829D1A078C00749
:104D700026D0002302220321304603F09BFE08B315
:104D80000C208DF805000A9604A804F59074022200
:104D900000900694ADF80C2005AB0321304603F0DB
:104DA00006FF00B1FFDF04208DF808008DF81C50CD
:104DB0000BA901A80BF0E3FA00B1FFDF0020C1E767
:104DC0000820BFE71120BDE770B5064686B014463F
:104DD0000D4608460DF006FD18B920460DF026FDDB
:104DE00010B1102006B070BDA6F57F40FF380ED080
:104DF0003046FCF713FB38B1417822464B08811C42
:104E00001846FCF799FC07E043F20200EAE7204667
:104E1000FDF7F5FA0028E5D11021E01D0DF08EF91F
:104E2000E21D29466846FEF79EFC102204F1170099
:104E300001991AF0ECFF0020D4E72DE9F041044677
:104E400090B015468846002708460DF016FD18B9A3
:104E500028460DF012FD18B1102010B0BDE8F08109
:104E60002046FCF7DBFA060003D03078272818D15B
:104E700002E043F20200F0E7B07F00F003000128F7
:104E800006D00021204609F064FE040003D101E0B1
:104E90000121F7E7FFDF6078400702D5A07880079F
:104EA00001D40820D9E7B07F00F00300012818D012
:104EB000D4E91901407800B1B5B1487810B1B8F122
:104EC000000F11D0C5B1EA1D02A8E168FEF74BFC46
:104ED000102205F1170003991AF06DFF30B1042775
:104EE0000AE0D4E91910E5E70720B6E71022E91D2A
:104EF00004F131001AF08BFFB8F1000F06D0102238
:104F000008F1070104F121001AF081FF60782521E2
:104F100040F0020060703046FCF7B8FA6078C107D4
:104F200015D020F00100607002208DF8200004F1FF
:104F300021000A9010300B908DF8247008A9EF30F2
:104F40000BF0FDF9022804D018B1FFDF01E084F86E
:104F50002070002081E7F8B515460E460746FCF79D
:104F60005DFA040004D02078222804D00820F8BD7F
:104F700043F20200F8BDA07F00F00300022802D037
:104F800043F20500F8BD30460DF02CFC18B9284658
:104F90000DF028FC08B11020F8BD00953288B31C34
:104FA00021463846FEF7F7FB112814D00028F3D12C
:104FB000297C4A08E17F62F30001E1772A7C62F3F1
:104FC0004101E177297C890884F82010A17F21F034
:104FD0008001A177F8BDA17F0907FBD4D6F80200B4
:104FE000C4F83600D6F80600C4F83A003088A08627
:104FF0001022294604F124001AF009FF287C4108F8
:10500000E07F61F38200E077297C61F3C300E07701
:10501000287C800884F82100A07F40F00800A07759
:105020000020D3E770B596B00D46064613B10720B1
:1050300016B070BDFCF7F2F9040007D020782228E2
:1050400002D3A07F400604D40820F1E743F2020017
:10505000EEE7C5B12D208DF80000ADF802601022FA
:10506000294601A81AF0D3FE287C4108E07F61F3AD
:105070000000E077297C61F34100E077287C80081C
:1050800084F8200004E02E208DF80000ADF80260C6
:105090000BA9684607F0C5F8A17F21F04001A17770
:1050A000C6E770B50D46FCF7B9F9040005D02846EF
:1050B0000DF0BCFB20B1102070BD43F2020070BDAA
:1050C00029462046FEF706FB002070BD05E000BF24
:1050D00010F8012B0AB100207047491E89B2F7D29F
:1050E00001207047F0B50078059F1E4614460D4616
:1050F000012800D0FFDF0C2030803A203880002CBF
:1051000008D0287A052806D0287B012800D0FFDFA8
:1051100017206081F0BDA889FBE72DE9F04786B034
:10512000144691F80C900E9A0D46B9F1010F0BD070
:10513000102100782E8A8846052807D0062833D00B
:10514000FFDF06B0BDE8F0870221F2E7E8890C2115
:1051500000EB400001EB4000188033201080002C51
:10516000EFD0E889608100271AE00096688808F18E
:10517000020301AA696900F06FFE06EB0800801CBB
:1051800007EB470186B204EB4102BDF804009081B1
:105190000DF1060140460E320BF092F97F1CBFB2B2
:1051A0006089B842E1D8CCE734201080E889B9F1B1
:1051B000010F11D0122148430E301880002CC0D0AE
:1051C000E88960814846B9F1010F00D002202073C0
:1051D00000270DF1040A1FE00621ECE7009668881D
:1051E00008F1020301AA696900F036FE06EB080027
:1051F000801C86B2B9F1010F12D007EBC70004EB97
:105200004000BDF80410C18110220AF102011030E3
:105210001AF0FDFD7F1CBFB26089B842DED890E76E
:1052200007EB470104EB4102BDF80400D0810AF10D
:105230000201404610320BF043F9EBE72DE9F0474D
:105240000E4688B090F800C096F80C80378AF58931
:105250000C20109902F10C044FF0000ABCF1030F6E
:1052600008D0BCF1040F3ED0BCF1070F7DD0FFDFAA
:1052700008B067E705EB850C00EB4C001880312087
:105280000880002AF4D0A8F1060000F0FF0955813B
:1052900025E0182101A81AF053FE009770884346B4
:1052A00001AA716900F0D8FDBDF804002080BDF8A6
:1052B0000600E080BDF808002081A21C0DF10A0163
:1052C00048460BF0FDF8B9F1000F00D018B184F892
:1052D00004A0A4F802A007EB080087B20A346D1EF0
:1052E000ADB2D6D2C4E705EB850C00EB4C001880BC
:1052F00032200880002ABBD0A8F1050000F0FF0989
:10530000558137E000977088434601AA716900F023
:10531000A3FD9DF80600BDF80410E1802179420844
:1053200060F3000162F34101820862F38201C20866
:1053300062F3C301020962F30411420962F34511E9
:10534000820962F386112171C0096071BDF80700FE
:10535000208122460DF1090148460BF0B1F818B141
:1053600084F802A0A4F800A000E007E007EB080022
:1053700087B20A346D1EADB2C4D279E7A8F102003B
:1053800084B205FB08F000F10E0CA3F800C0352331
:105390000B80002AA6D055819481009783B2708833
:1053A0000E32716900F058FD62E72DE9F84F1E4694
:1053B0000A9D0C4681462AB1607A00F58070D08043
:1053C000E089108199F800000C274FF000084FF099
:1053D0000E0A0D2873D2DFE800F09E070E1C28305D
:1053E0003846556A73737300214648460095FFF7A7
:1053F00079FEBDE8F88F207B9146082802D003286B
:1054000000D0FFDF378030200AE000BFA9F80A8013
:10541000EFE7207B9146042800D0FFDF3780312062
:105420002880B9F1000FF1D1E3E7207B91460428F1
:1054300000D0FFDF37803220F2E7207B9146022840
:1054400000D0FFDF37803320EAE7207B17460228B1
:1054500000D0FFDF3420A6F800A02880002FC8D09D
:10546000A7F80A80C5E7207B1746042800D0FFDF95
:105470003520A6F800A02880002FBAD04046A7F813
:105480000A8012E0207B1746052802D0062800D0AB
:10549000FFDF1020308036202880002FA9D0E0893F
:1054A0007881A7F80E80B9F80200B881A1E7207BC7
:1054B0009146072800D0FFDF37803720B0E72AE089
:1054C0004FF0120018804FF038001700288090D05D
:1054D000E0897881A7F80E80A7F8108099F800007D
:1054E0000A2805D00B2809D00C280DD0FFDF80E753
:1054F000207B0C2800D0FFDF01200AE0207B0D2854
:1055000000D0FFDF042004E0207B0E2800D0FFDF66
:10551000052038736DE7FFDF6BE770B50C46054675
:10552000FBF77CFF20B10078222804D2082070BD50
:1055300043F2020070BD0521284609F00AFB2060F5
:1055400008B1002070BD032070BDFFB585B00746CF
:10555000089814460D46022628B908A93846FFF7D0
:10556000DCFF002840D108980121801D04F097FD40
:10557000ADF8080002464DB100233146384603F02D
:1055800099FA98B30898007880BB05E0207809283C
:1055900020D00F282BD0FFDF03A8009004ABBDF86C
:1055A00008203146384603F002FB00281CD1089839
:1055B00002A9801D60606780DDE90332204604F0A7
:1055C0007BFD40B3072824D2DFE800F01A1823231C
:1055D000211C1E00072600233146384603F06AFAD4
:1055E0000028D9D143F2040009B0F0BD06E0002341
:1055F0003146384603F05EFA0028CDD11120F3E79A
:105600000020F1E70820EFE743F20300ECE7072072
:10561000EAE70320E8E703980090BDF80830042289
:105620003146384603F097FB0028DDD1002DDBD052
:1056300008990D70D8E710B586B01C46AAB10423AE
:105640008DF800301388ADF808305288ADF80A2084
:105650008A788DF80E200988ADF80C1000236A4670
:105660002146FFF772FF06B010BD1020FBE770B5B2
:105670000D46052109F06DFA040000D1FFDF29462F
:10568000A01DBDE8704004F0F3BC70B596B00C46A8
:105690000646FFF7ECFF05462146304601F0CFFDF8
:1056A0000121304601F0E9FD002D25D13046FBF700
:1056B000B5FE050000D1FFDF95F822001B281BD99D
:1056C000172C19D93A208DF80000ADF8026095F832
:1056D0002200211D884201D9241D00E00446ADF8B6
:1056E000044040F64800ADF806000BA9684606F0F5
:1056F00098FD002800D0FFDF16B070BD2DE9F843FB
:105700000D468046002602F0DCFD0446287812286B
:1057100078D2DFE800F07753533C355532321332FC
:1057200032320932323232322879001FC0B20228B6
:1057300001D0102810D114BBFFDF34E004B9FFDF23
:105740000521404609F005FA0078032806D0042810
:105750000BD0072827D0FFDF072654E02879801FC9
:10576000C0B202281FD050B1F6E72879401FC0B25E
:10577000022818D0102816D0EEE704B9FFDF12E097
:1057800004B9FFDF287901280DD1172136E0052162
:10579000404609F0DEF9070000D1FFDFB91D4046A1
:1057A00004F03FFC2CB12A462146404600F064FB41
:1057B00029E013214046FDF7A4F924E0FFDF22E0B1
:1057C00004B9FFDF0521404609F0C3F9070000D105
:1057D000FFDF6946B81D04F02CFC00B1FFDFA9888B
:1057E000172901D2172200E00A46BDF800008242C4
:1057F00002D9014602E005E01729C6D34046FFF76B
:1058000044FFD0E7FFDF3046BDE8F8830020087092
:10581000881D04F0FABB891D04F00ABC70B505466A
:10582000052109F096F9040000D1FFDFA11D2846EB
:10583000BDE8704004F0F5BB2DE9F74F90B04FF094
:10584000000AADF830A0ADF804A047880C46054624
:105850000521384609F07DF9060000D1FFDF24B1AB
:10586000A780A4F806A0A4F808A0297A04F11000E3
:105870003827C91E4FF00C0B4FF001084FF01209EA
:1058800002900F297ED2DFE801F0F2F1F08008D318
:10589000898EA03DDCF3EEB7B7003078022800D047
:1058A000FFDFA8890BEBC001ADF804103021ADF883
:1058B0003010002C25D06081B5F80E8000271DE047
:1058C00004EBC709317989F80E107188A9F80C101A
:1058D000CDF800806888042305AA296900F0BCFA85
:1058E000BDF81410A9F8101008F10400BDF8161046
:1058F0007F1C1FFA80F8A9F81210BFB26089B84265
:10590000DED809E13078022800D0FFDFE9890BEB0F
:10591000C100ADF804003020ADF8300095F80CB0AF
:10592000002CABF10400C0B20F90EAD06181B5F851
:105930001090002723E000BFCDF8009068885B46F8
:1059400003AA696900F088FA09EB0B001FFA80F9D5
:1059500004EBC70808F10C0204A90F980AF0B0FD87
:1059600018B188F80EA0A8F80CA0BDF80C10A8F883
:105970001010BDF80E107F1CA8F81210BFB260897D
:10598000B84200E0C7E0D7D8C6E00CA8009001AB51
:10599000224629463046FFF7C0FBBDE03078082894
:1059A00005D0FFDF03E03078082800D0FFDFE8896A
:1059B0001030ADF804003620ADF83000002C3FD098
:1059C000A98961817188A18127E03078092800D0F8
:1059D000FFDFA88900F10C01ADF804103721ADF804
:1059E0003010002C2CD06081E8890090AB89688849
:1059F00004F10C02296955E0E8893921103080B2A0
:105A0000ADF80400ADF83010002C72D0A989618186
:105A1000287A10280AD002212173E989E181288A95
:105A20000090EB8968886969029A3BE00121F3E7FD
:105A30000CA8009001AB224629463046FFF7FEFB3A
:105A40006AE030780A2800D0FFDFADF80490ADF8A6
:105A500030704CB3A9896181A4F810A0A4F80EA0FD
:105A600084F80C8058E020E002E030E038E041E0CB
:105A700030780B2800D0FFDF288AADF83070123064
:105A8000ADF8040084B104212173A9896181E989F9
:105A9000E181298A2182688A00902B8A688804F132
:105AA0001202696900F0D8F936E030780C2800D08D
:105AB000FFDFADF80490ADF8307044B305212173D9
:105AC000A4F80AA0A4F80EA0A4F810A024E00CA842
:105AD000009001AB224629463046FFF703FB1BE04E
:105AE0000CA8009001AB224629463046FFF75DFC2A
:105AF00012E00DE00B203B21ADF80400ADF83010B2
:105B000034B1A4F80680A4F808A084F80AA003E041
:105B10001299088014E0FFDF1299BDF80400088094
:105B200074B1BDF830002080BDF804006080287A90
:105B3000032805D0102803D0112801D086F800A032
:105B400013B00020BDE8F08F2DE9F84356880F46CA
:105B5000804615460521304608F0FBFF040000D1C1
:105B6000FFDFA41D00943B46414630466A6804F0BE
:105B700057FC49E670B50D46052108F0EAFF040020
:105B800000D1FFDF2946A01DBDE8704004F05CBADB
:105B900070B50D46052108F0DCFF040000D1FFDFE1
:105BA0002946A01DBDE8704004F081BA2DE9F043FC
:105BB0008BB00D461446814606A9FFF7AEFC0028BF
:105BC00014D14FF6FF7601274FF420588CB10320F3
:105BD0008DF800001020ADF8100007A8059007AA66
:105BE000204604A90AF08BFC78B107200BB0BDE871
:105BF000F0830820ADF808508DF80E708DF8000085
:105C0000ADF80A60ADF80C800CE00698A17801713F
:105C1000218841808DF80E70ADF80850ADF80C80E9
:105C2000ADF80A606A4602214846069BFFF78DFCE4
:105C3000DCE708B501228DF8022042F60202ADF839
:105C400000200A4603236946FFF7F5FC08BD08B5A6
:105C500001228DF8022042F60302ADF800200A4628
:105C600004236946FFF7E7FC08BD00B587B079B1AA
:105C700002228DF800200A88ADF808204988ADF886
:105C80000A1000236A460521FFF75FFC07B000BD3C
:105C90001020FBE709B10723CDE40720704770B55A
:105CA00088B00D461446064606A9FFF736FC0028C4
:105CB0000ED17CB10620ADF808508DF80000ADF88B
:105CC0000A40069B6A4608215C803046FFF73DFC8F
:105CD00008B070BD05208DF80000ADF80850F0E761
:105CE00000B587B059B107238DF80030ADF8082012
:105CF000039100236A460921FFF727FCC6E710201D
:105D0000C4E770B588B00C460646002506A9FFF723
:105D100004FC0028DCD106980121801D04F0BFF9A5
:105D20009CB12178062921D2DFE801F02005051673
:105D30000318801E80B2C01EE28880B20AB1A36838
:105D40001BB1824203D90C20C2E71020C0E704290E
:105D500004D0A08850B901E00620B9E7012913D08A
:105D6000022905D004291CD005292AD00720AFE735
:105D700009208DF800006088ADF80800E088ADF8D3
:105D80000A00A068039023E00C208DF800006088D2
:105D9000ADF80800E088ADF80A00A0680A25039075
:105DA00016E00D208DF800006088ADF80800A0888E
:105DB000ADF80A00E088ADF80C00A0680B2504904F
:105DC00006E00E208DF8000060788DF808000C25A4
:105DD0006A4629463046069BFFF7B7FB78E700B5D1
:105DE00087B00F228DF80020ADF8081000236A4616
:105DF0001946FFF7AAFB49E700B587B071B1022247
:105E00008DF800200A88ADF808204988ADF80A10FE
:105E100000236A460621FFF798FB37E7102035E795
:105E200070B586B0064601200D46ADF808108DF815
:105E30000000014600236A463046FFF786FB040057
:105E400008D12946304601F0EBF90021304601F037
:105E500014FA204606B070BDF8B51C4615460E462D
:105E6000069F08F0D1FF2346FF1DBCB231462A46EB
:105E7000009408F0B8FBF8BD10B5488008781446C7
:105E800020F00F00C01C20F0F00090300B4608708E
:105E90001822214603F1080019F0FEFFBDE810406A
:105EA00002F012BA18B18178012938D101E010202E
:105EB0007047018842F60112881A914231D018DCED
:105EC00042F60102A1EB020091422AD00CDC41B360
:105ED000B1F5C05F25D06FF4C050081821D0A0F5EF
:105EE0007060FF381BD11CE001281AD002280AD1AB
:105EF00017E0B0F5807F14D008DC012811D002280B
:105F00000FD003280DD0FF2809D10AE0B0F5817F1A
:105F100007D0A0F58070033803D0012801D00020FD
:105F200070470F2070470B2826D008DC1BD2DFE813
:105F300000F01C2025251A25292325271E001128BD
:105F40001CD008DC0C2817D00D281DD00F2815D028
:105F5000102808D110E0822809D0842810D0852884
:105F600010D0872812D003207047002070470520EA
:105F7000704743F203007047072070470F207047B7
:105F800004207047062070470C20704743F202003F
:105F9000704708280DD2DFE800F00406040C0C0856
:105FA0000C0A002070471120704707207047082016
:105FB00070470320704738B50C46050041D069464C
:105FC000FEF7E2FA002819D19DF80010607861F31D
:105FD000020060706946681CFEF7D6FA00280DD1F1
:105FE0009DF80010607861F3C5006070A978C1F376
:105FF0004101012903D0022905D0072038BD2178AD
:1060000021F0200102E0217841F0200121704107B8
:1060100004D0A978C90861F386106070607810F028
:10602000380F07D0A978090961F3C710607010F024
:10603000380F02D16078400603D5207840F0400048
:106040002070002038BD70B5044600200880154639
:106050006068FFF7B0FF002816D12089A189884227
:1060600011D860688078C0070AD0B1F5007F0AD8DF
:1060700040F20120B1FBF0F200FB1210288007E093
:10608000B1F5FF7F01D90C2070BD01F201212980FB
:10609000002070BD10B50478137864F3000313700A
:1060A0000478640864F3410313700478A40864F36B
:1060B000820313700478E40864F3C3031370047854
:1060C000240964F3041313700478640964F345131A
:1060D00013700078800960F38613137031B108786B
:1060E000C10701D1800701D5012000E0002060F345
:1060F000C713137010BD4278530702D002F0070394
:1061000006E012F0380F02D0C2F3C20300E0012310
:106110004A7863F302024A70407810F0380F02D0D8
:10612000C0F3C20005E0430702D000F0070000E022
:10613000012060F3C5024A7070472DE9F04F95B019
:106140000D00804615D0B8F1000F16D01221284658
:1061500019F0D4FE4FF6FF7B05AA0121584605F041
:1061600091FE0024264637464FF420596FF4205AFA
