:020000041000EA
:1000000000000108F76E03100D000000D904001075
:1000100000000000000000000000000000000000E0
:10002000000000000000000000000000292F031065
:100030000000000000000000AD2F0310B92F0310D6
:10004000516F0310516F0310516F0310516F031064
:10005000516F0310516F0310516F0310516F031054
:10006000516F0310516F0310516F0310516F031044
:10007000516F0310516F0310516F0310516F031034
:10008000516F0310516F0310516F0310516F031024
:10009000516F0310516F0310516F0310516F031014
:1000A000516F0310516F0310516F0310516F031004
:1000B000516F0310516F0310516F0310516F0310F4
:1000C00010B5064C2378002B07D1054B002B02D02E
:1000D000044800E000BF0123237010BD6819000828
:1000E0000000000074EB0410084B10B5002B03D087
:1000F0000749084800E000BF07480368002B00D10B
:1001000010BD064B002BFBD09847F9E7000000001C
:100110006C19000874EB04108C110008000000003A
:10012000164B002B00D1144B9D46402292029A1A86
:10013000924600218B460F461348144A121A3FF08C
:1001400071FD0F4B002B00D098470E4B002B00D0B9
:1001500098470020002104000D000D48002802D01F
:100160000C4832F045F83FF05BF92000290032F0EE
:1001700077FC32F033F8C0460000080000000108A8
:10018000000000009D290310681900081CBA00082F
:10019000F12103100000000010B598B00390002377
:1001A00015930023149305AB180030231A00002187
:1001B0003FF038FD80231B061900102001F034FCAD
:1001C00003001593159B1022134005D1159B71490F
:1001D0007148312231F0E0F905AB1900102001F02F
:1001E00083FC031E00D0D2E005AB5B68002B0BD074
:1001F00005AB9B681493149B013305D0149B654990
:1002000066483B2231F0C8F905AB1B68022B06D0CB
:10021000032B00D186E0012B00D183E0A8E005ABE1
:100220001A6905AB5B69D21805AB9B69D21805AB9F
:10023000DB69D318162B03D105AB1B6A142B05D031
:100240005449574B4522180031F0A6F91E203FF0C3
:1002500013F903001393139B002B05D14D49514B08
:100260004B22180031F098F9139B1E220021180030
:100270003FF0D8FC139B17930023169328E005AB9F
:10028000586805AB169A04329200D358179A1699FB
:1002900001F03EFD0300129305AB169A0432920062
:1002A000D258129B9A420CD005AB169A0432920097
:1002B000D25838493C48129B00931300532231F026
:1002C0006BF9179A129BD3181793169B0133169349
:1002D000169B022BD3D9139A344B110018003FF010
:1002E00077FF03001193119B002B05D02949304B58
:1002F0005B22180031F050F905AB5C682D4B1800FB
:100300003FF0B2FF030001332A4A0021200001F030
:100310003BFD139B18003FF0B9F800231393002313
:1003200017932DE005AB1B6A002B1BD105AB5B6A55
:10033000002B17D105AB9B6A002B13D105ABDB6AF1
:10034000002B0FD105AB1B69002B0BD105AB5B69F3
:10035000002B07D105AB9B69002B03D105ABDB69F3
:10036000002B0CD00B49144B6D22180031F014F9FE
:1003700005AB1B6807491148732231F00DF9C046DF
:1003800005AB5B680021180001F084FD12E7C04650
:1003900010E7C0461C5C0410945A0410C05A0410A4
:1003A000FC5A04103C5B0410605B0410705A04108B
:1003B000885B0410885A0410AC5B0410F85B0410CE
:1003C00000B583B00190019B002B05D11049114B62
:1003D0006E22180031F0E0F80F4B180004F05CFFBB
:1003E0000E4B180008F0EEF80D4B180008F064FAF8
:1003F0000C4B180009F0E8F90B4B180000F016F848
:10040000019B054A1A600523180003B000BDC046D1
:10041000485C04102C5C0410C4000008E8000008CC
:100420000C010008300100085401000800B585B037
:100430000190019B002B05D11F49204B542218002D
:1004400031F0AAF81E4B180034F03CFE0200019B6C
:10045000DA61019BDB69002B05D11749194B592241
:10046000180031F099F80023039309E0164A039B22
:100470005B01D3180833019A1A60039B013303937D
:10048000039B002BF2D0019B0F4ADA600F4A104BFE
:100490000021180036F036FB0200019B5A60019BD8
:1004A0005B68002B05D104490A4B6322180031F028
:1004B00073F8C04605B000BD445D0410845C0410B0
:1004C000345D0410A05C04109C0100087801000851
:1004D00099010010E85C04102C4B05E02C4B03E064
:1004E0002C4B01E02C4BFFE7EFF308802B497246C1
:1004F0000A4201D0EFF309809C46294B1968026833
:100500000A60043142680A60043182680A6004317A
:10051000C2680A600431F0C147460F6004314F469B
:100520000F60043157460F6004315F460F6004319D
:1005300002690A60083142690A60043182690A600E
:100540000431C2690A60043103462033154E324239
:1005500000D0043375460D4E354200D148330C4669
:10056000103C2360EFF309820A600431EFF3088244
:100570000A60043172460A600431EFF314820A60A3
:100580006046074900F010F8FEE700001000000088
:1005900020000000300000004000000004000000C7
:1005A0005C5D04100002000000B587B0039002916A
:1005B000002305931C4B180030F068FE039B302B82
:1005C0000AD0402B0FD0202B14D1184B180030F03C
:1005D0005DFE174B059314E0164B180030F056FEE5
:1005E000154B05930DE0154B180030F04FFE144BE2
:1005F000059306E0134B180030F048FE124B0593AC
:10060000C046124B180030F041FE00F027F8104BA6
:10061000180030F03BFE0F4BDA6B0F4905980023B2
:100620000093002331F066F8605D04108C5D0410C7
:100630003E01FF809C5D04103F01FF80A85D041017
:100640004001FF80B45D04103D01FF80C05D0410D7
:10065000CC5D041060A80008EC5D041070B586B095
:10066000002305930CE02E4A059B9B00D3181A68C3
:1006700005992C4B180030F009FE059B01330593BA
:10068000059B0C2BEFDD264B5C6B254B9D6B244BA8
:10069000DE6B234B1A6C224B596C214B9B6C22480E
:1006A00002930191009233002A00210030F0EEFD08
:1006B0001E4B1A681E4B1100180030F0E7FD184B56
:1006C000DB6C0822134012D01A4B180030F0DEFD0C
:1006D000134B1B6D0122134004D0174B180030F050
:1006E000D5FD0CE0154B180030F0D0FD07E0144BA1
:1006F000180030F0CBFD114B180030F0C7FD084B4F
:10070000DB6C0422134004D00E4B180030F0BEFD09
:1007100003E00D4B180030F0B9FDC04606B070BDC7
:1007200060A80008FC5D04100C5E041000ED00E001
:100730005C5E04106C5E04107C5E04108C5E041021
:10074000A05E0410B05E0410BC5E041082B0019084
:100750000091009B180002B07047000000B58FB0F8
:10076000039002910192039B002B05D13849394B2C
:100770002C22180030F0D4FC029B002B05D1344908
:10078000354B2D22180030F0CBFC00F01DFE03008D
:100790000B930B9B002B02D00B9B1B6801E00123EA
:1007A0005B420A93039B0121180030F06BFE0300AB
:1007B0000993099B002BF5D000230D9300230C9384
:1007C00033E0002304930C9B1A04099B1343089302
:1007D000039B5A680C9B1B01D318079304AB069329
:1007E000089B0593059A0699079B180030F024FE94
:1007F000031E17D0089B0D93039B5A680C9B1B018B
:10080000D318029ADA60039B5A680C9B1B01D31819
:100810000A9A5A60039B5A680C9B1B01D318019AD1
:100820009A6008E00C9B01330C93039B5B881A00D1
:100830000C9B9A42C5D80D9B002B05D10449074B50
:100840005822180030F06CFC0D9B18000FB000BD52
:10085000C85E0410105F04102C5F0410485F041081
:1008600000B58BB003900291039B002B05D1394951
:10087000394B6122180030F053FC029B002B05D14C
:100880003449364B6222180030F04AFC029B1B0CA4
:100890000993039B5B881A00099B9A4209D8039B22
:1008A0005B881A00099B2E492E480092682230F07E
:1008B00073FE039B5A68099B1B01D3181A68029B9D
:1008C0009A4205D0029B264927486C2230F064FEEC
:1008D00000F07AFD03000893089B002B02D0089BD0
:1008E0001B6801E001235B420793039B5A68099B45
:1008F0001B01D3185A68079B9A420ED0039B5A6873
:10090000099B1B01D3189A68079B9A4205D014498A
:10091000164B7622180030F03FFE039B5A68099B65
:100920001B01D31800225A60039B5A68099B1B01C4
:10093000D31800229A60039B5A68099B1B01D318A5
:10094000069300230593069B059A1A60C0460BB0D8
:1009500000BDC046C85E0410105F0410685F04103C
:1009600018610410845F0410D45F04101060041038
:1009700000B589B003900291039B002B05D1364945
:10098000364B8122180030F0CBFB029B002B05D1A7
:100990003349344B8422180030F0FEFD029B1B0CBF
:1009A0000793039B5B881A00079B9A4209D8039B15
:1009B0005B881A00079B2A492B4800928A2230F054
:1009C000EBFD039B5A68079B1B01D3181A68029B17
:1009D0009A4205D0029B224924488E2230F0DCFD49
:1009E00000F0F2FC03000693069B002B02D0069B4E
:1009F0001B6801E001235B420593039B5A68079B38
:100A00001B01D3185A68059B9A420ED0039B5A6863
:100A1000079B1B01D3189A68059B9A4205D0104981
:100A2000134B9822180030F0B7FD039B5A68079BC0
:100A30001B01D318DB68002B05D107490D4B9D2204
:100A4000180030F06DFB039B5A68079B1B01D318FD
:100A5000DB68180009B000BDC85E0410105F041008
:100A6000346104104C600410845F0410D45F0410DF
:100A70008C600410DC60041084B0019000910023AD
:100A800003930FE0019BDA68039B5B01D318029389
:100A9000029B1A68009B9A4201D1029B08E0039BCB
:100AA00001330393019B1A69039B9A42EAD80023FE
:100AB000180004B07047000000B585B00190002315
:100AC000039316E00F4B1968039A1300DB009B1881
:100AD0009B00CB18019A11001800FFF7CDFF03000F
:100AE0000293029B002B01D0029B08E0039B013381
:100AF0000393044B5A68039B9A42E3D800231800DF
:100B000005B000BDEC01000800B587B0039002916C
:100B1000029B002B0DD1039B1B7D01225340DBB2B6
:100B2000002B06D0039B1B681A491B48382230F063
:100B300033FD029B002B2BD0029B5B69002B06D15F
:100B4000029B1B68134915483D2230F025FD002308
:100B500005930CE0029B5A69059B9B00D3181A6809
:100B6000039B1B689A4212D0059B01330593029B9D
:100B70009A69059B9A42EDD8039B1A68029B1B68F1
:100B80000449074800931300462230F005FDC04693
:100B900007B000BD50640410506104108861041057
:100BA000C061041000B583B001900091009A0199D2
:100BB000034B1800FFF7D2FD0300180003B000BD7F
:100BC000F401000800B583B00190019A044B1100B4
:100BD0001800FFF7CDFE0300180003B000BDC046AB
:100BE000F401000800B585B001900091019B9B685D
:100BF000DA6901235B421900100034F087FA030020
:100C00000393039B002B05D02349244B5722180044
:100C100030F086FA019BDB69002B03D1019B009A1F
:100C20009A6103E0019BDB69009A1A61019B009ABB
:100C3000DA61019B9B685A68019B5B681900100090
:100C400035F0B8FF03000293029B002B05DA12492E
:100C5000134B6622180030F063FA019B5B68029A1E
:100C6000134005D10C490F4B6722180030F058FA99
:100C7000019B9B68DB69180034F072FA0300039350
:100C8000039B002B05D00449044B6B22180030F065
:100C900047FAC04605B000BD00620410446204106B
:100CA000586204107462041030B58BB00590049142
:100CB000049B002B05D15649564B7022180030F08A
:100CC0002FFA059B1800FFF7F7FE03000993099B15
:100CD000002B05D1059B50495048742230F05CFC34
:100CE000099B1B69002B05D1049B1A68099BDB68D3
:100CF0009A4209D8099B1B69012B17D1049B1A68DA
:100D0000099BDB689A4211D0049B1D68099B1A68F5
:100D1000099BD968099B1B693F4C4148029301918B
:100D200000922B007A22210030F036FC00F04CFBC0
:100D300003000893089A099B11001800FFF7E4FECE
:100D4000089A049B0C21180000F078FB03001A009D
:100D500001235340DBB2002B05D02F49314B8122B8
:100D6000180030F019FC304B9B690021180033F05B
:100D7000D3F803000793079B002B1BD1049B2B4A3E
:100D80005A60089B002B0FD0049B9B68180034F01E
:100D9000F7FC03000693069B002B35D01C49244B1F
:100DA0008A22180030F0BCF9049B9B68180001F0FF
:100DB000F7FA29E0099B9B681A68079B1100180045
:100DC000FFF7F0FE0200049B5A60079B02225A754F
:100DD000079B089A1A60079B099A5A60079B049A16
:100DE000DA60079B01221A75079B00229A60079B15
:100DF00000221A61079B00229A75079A099B11002D
:100E00001800FFF7EFFE00E0C0460BB030BDC04653
:100E100000620410906204103C640410A462041088
:100E2000C462041024630410EC0100080100008077
:100E30004462041000B58FB00190009109AB180016
:100E400010231A0000213EF0EDFE05AB00221A60CF
:100E500005AB00225A6005AB09AA9A6005AB1022C7
:100E6000DA6002AB009A1A6002AB00225A6005AB4E
:100E70001A000021012034F02FFC020002AB9A601E
:100E800002AB9B68002B05D119491A4BB7221800F9
:100E900030F082FB02AA019B11001800FFF704FF4B
:100EA00002AB9A6801235B421900100034F040FC49
:100EB00003000D930D9B002B05D00F490F4BBD2256
:100EC000180030F02DF902AB9B68180034F07AFC62
:100ED00003000D930D9B002B05D00749074BC02243
:100EE000180030F01DF902AB5B6818000FB000BDB0
:100EF000706404105463041000620410446204100F
:100F000000B585B001900091009B002B05D13649BA
:100F1000364BC922180030F003F9019B1800FFF787
:100F200051FE03000393039B002B05D12E49304B48
:100F3000CB22180030F0F4F8039B1A68009B1821AC
:100F4000180000F07BFA03001A0001235340DBB2C3
:100F5000002B05D02749284BCE22180030F01CFB6F
:100F6000039B9B7D012B1DD1009B802212061A61E1
:100F7000039B1B68002B05D1009B5B69180001F0E7
:100F80000FFA2EE0009B5B69180034F0F9FB0300B8
:100F90000293029B002B24D01349184BD82218002F
:100FA00030F0BEF8039B153304220321180000F033
:100FB000A3F9039B009ADA60039B02221A75009B37
:100FC0001868009B5968009B9A68009BDB6800F0DA
:100FD00067F9039B5B68039A11001800FFF702FE94
:100FE00000E0C04605B000BD00620410906204102D
:100FF0008C6304107C640410A46304104462041025
:1010000000B595B003900291019200930FAB1800C8
:1010100010231A0000213EF005FE0BAB00221A60DF
:101020000BAB00225A600BAB0FAA9A600BAB1022DD
:10103000DA6005AB029A1A6005AB019A5A6005ABFB
:10104000009A9A6005AB169ADA6005AB00221A6125
:101050000BAB1A000021012034F03EFB020005AB6F
:101060005A6105AB5B69002B06D183235A001B49EB
:101070001B4B180030F090FA05AA039B11001800D2
:10108000FFF73EFF05AB5A6901235B4219001000D0
:1010900034F04EFB03001393139B002B06D08623E2
:1010A0005A001049104B180030F03AF805AB5B6954
:1010B000180034F087FB03001393139B002B07D019
:1010C0001023FF331A000749074B180030F028F8A7
:1010D00005AB1B69180015B000BDC0468C64041038
:1010E00054630410006204104462041000B585B01B
:1010F00001900091009B002B06D18C235A002049BF
:10110000204B180030F00CF8019B1800FFF75AFD37
:1011100003000393039B002B07D11C23FF331A000A
:101120001749194B18002FF0FBFF039B1A68009B0F
:101130000821180000F082F903001A00012353402F
:10114000DBB2002B06D08F235A001049104B180039
:1011500030F022FA039B15330321180000F004F944
:10116000039B009ADA60039B03221A75039B5B685A
:10117000039A11001800FFF735FDC04605B000BD09
:1011800000620410906204108C63041098640410D0
:10119000D463041000B58FB00190019B002B55D093
:1011A00009AB180010231A0000213EF03BFD05ABEF
:1011B00000221A6005AB00225A6005AB09AA9A60AA
:1011C00005AB1022DA6003AB019A1A6005AB1A0076
:1011D0000021012034F080FA020003AB5A6003AB17
:1011E0005B68002B06D1A1235A001A491A4B18003C
:1011F00030F0D2F903AA019B11001800FFF776FF27
:1012000003AB5A6801235B421900100034F090FAD6
:1012100003000D930D9B002B06D0A4235A000F4909
:101220000F4B18002FF07CFF03AB5B68180034F005
:10123000C9FA03000D930D9B002B08D04C23FF33FC
:101240001A000649064B18002FF06AFFC0460FB07F
:1012500000BDC046A86404100464041000620410B9
:101260004462041000B585B0019000230393019BF4
:101270001800FFF721FC03000293029B002B0AD009
:1012800000F0A2F8031E03D1029B1B7D002B02D0AD
:10129000029BDB680393039B180005B000BD0000B0
:1012A00000B589B00790069105920493079B002B27
:1012B00002D1069B002B0AD1059B002B02D1049B77
:1012C000002B04D1069A049BD318042B0CD9079A3F
:1012D00007490848049B0293059B0193069B0093D2
:1012E0001300262230F058F9C04609B000BDC046B0
:1012F000D4650410B464041000B587B003900800EE
:1013000011000B236B44021C1A700A236B440A1C45
:101310001A7017236B440B226A4412781A700A233E
:101320006B441A7817216944039B180030F054F875
:1013300003001A0001235340DBB2002B0DD017230A
:101340006B441B781A000B236B441B780449054837
:10135000009313002F2230F01FF9C04607B000BDE4
:10136000E46504100865041000B589B003900A0014
:101370000B236B441A70039B069317236B44069A46
:1013800012781A7017236B441A781F236B441A7053
:101390001F226A440B236B4412781B789A420CD0AC
:1013A0001F236B441A780B236B441B7804490548B0
:1013B00000931300382230F0EFF8C04609B000BDAA
:1013C000FC6504100865041000B583B035F0C8FB57
:1013D00003000093009B002B05D11549154B5E229D
:1013E00018002FF09DFE0023019317E0124B19689F
:1013F000019A1300DB009B189B00CB185A68009BD6
:101400009A4208D10C4B1968019A1300DB009B1813
:101410009B00CB1808E0019B01330193064B5A68EF
:10142000019B9A42E2D80023180003B000BDC046D9
:1014300054650410B4650410EC0100088CB00390EE
:1014400002910192039B002B01D1002376E0029BC5
:10145000002B01D1012371E0039A029BD3185A1E7D
:10146000039B9A4201D2002368E080231B050B9363
:1014700080235B020A9380235B05099380231B036F
:101480000893304B0793304B0693304B0593F02372
:10149000DB020493019B002B27D1039A079B9A42FE
:1014A0000FD3079A069BD218039B9A4209D9039A35
:1014B000029BD2180799069BCB189A4201D80123A8
:1014C0003CE0039A059B9A4237D3059A049BD218B5
:1014D000039B9A4231D9039A029BD2180599049B27
:1014E000CB189A4229D8012328E0039A0B9B9A42F1
:1014F0000FD30B9A0A9BD218039B9A4209D9039ADD
:10150000029BD2180B990A9BCB189A4201D801234F
:1015100014E0039A099B9A420FD3099A089BD218A8
:10152000039B9A4209D9039A029BD2180999089BF6
:10153000CB189A4201D8012300E0002318000CB018
:101540007047C04600000108007503000000081045
:1015500010B536F089FC174B1A0018210A2032F01A
:10156000AFFC0200144B9A61134B9B69002B05D111
:10157000124A134B1100180030F00EF8114B1A00EC
:1015800028210A2032F09CFC02000B4BDA610A4B46
:10159000DB69002B05D1094A0B4B110018002FF015
:1015A000FBFF054B1800FEF70BFF0200024B5A60D1
:1015B000C04610BDBC010008EC010008A466041080
:1015C00044660410D40100087066041010B5034B83
:1015D0001B68180001F040F8F9E7C0461002000847
:1015E00000B583B001900091009A0199034B180057
:1015F000FFF7B4F80300180003B000BDFC010008B9
:1016000000B583B00190019A044B11001800FFF758
:10161000AFF90300180003B000BDC046FC0100088C
:1016200000B583B00190019A034B11001800FFF739
:1016300017F9C04603B000BDFC01000800B583B037
:101640000190019A034B11001800FFF709F9C046F9
:1016500003B000BDF401000884B0019000910023A4
:10166000039311E0019BDA68039B5B01D3185A686E
:10167000009B9A4205D1019BDA68039B5B01D3185A
:1016800008E0039B01330393019B1A69039B9A4271
:10169000E8D80023180004B07047000010B596B0D9
:1016A0000190009103AB180028231A0000213EF09E
:1016B000B9FA03AB019A1A60019B1B7D022B00D083
:1016C000F2E0019BD868019B1B681A001821FFF704
:1016D000B5FE03001A0001235340DBB2002B05D0F6
:1016E0009249934B5B2218002FF056FF019BDB6859
:1016F0001393139B1B681293139B5B681193139BAB
:101700009B681093139BDB680F930F9B109A1199A2
:101710001298FFF7C5FD119BD9B203AB242299544F
:10172000119B002B5BD0119BD900019B1A68129B67
:101730001800FFF783FE03001A0001235340DBB2B9
:10174000002B05D079497B4B6B2218002FF024FF2A
:10175000002315933FE0159BDB00129AD3185B68BA
:10176000002B34D0159BDB00129AD01803AA159BCE
:10177000DB000421D3185B18020003CA03C3159BC6
:10178000DB00129AD3185968009B159A0432920014
:10179000D15003AA159BDB00D3180433186803AAA1
:1017A000159BDB00D31808331968019B1B681A00CE
:1017B000FFF744FE03001A0001235340DBB2002B65
:1017C00006D0159B59495C487C222FF0E5FEC046A7
:1017D000159B01331593159A119B9A42BBD30F9B0E
:1017E000002B61D00F9BD900019B1A68109B180039
:1017F000FFF724FE03001A0001235340DBB2002B45
:1018000005D04A494D4B832218002FF0C5FE002316
:10181000149345E0149BDB00109AD3185B68002BEF
:101820003AD0119A149BD318149AD20010998818A0
:1018300003AADB000421D3185B18020003CA03C308
:10184000149BDB00109AD3185968009B149A083235
:101850009200D150119A149BD31803AADB00D3181D
:1018600004331868119A149BD31803AADB00D31809
:1018700008331968019B1B681A00FFF7DFFD03009E
:101880001A0001235340DBB2002B06D0149B2749DA
:101890002B4894222FF080FEC046149B01331493F2
:1018A000149A0F9B9A42B5D3264BDA6901235B4207
:1018B0001900100032F030FB03000E930E9B002B3A
:1018C00005D11A49204B9D2218002FF065FE0E9B72
:1018D00003AA13CA13C313CA13C313CA13C31268C8
:1018E0001A600E9B00211800FFF77AFE03000D938B
:1018F000019B1B7D1A00009B1A60019B9A68009B4C
:10190000DA60009B0D9A5A60019B1B68002B04D182
:10191000009B012252429A6004E0019B1B681A68F6
:10192000009B9A60C04616B010BDC046DC6C041027
:10193000B4660410DC660410FC6604102067041012
:1019400040670410EC0100086867041000B587B018
:101950000190019B9B68DA6901235B42190010002A
:1019600033F0D4FB03000593059B002B05D02849D9
:10197000284BB32218002FF0D3FB019B9B690493E3
:10198000049B002B05D12449244BB92218002FF0C9
:1019900003FE049B1A69019B9A61049B00221A6151
:1019A000019B9B69002B1DD1019B0022DA61019BE9
:1019B0005B68180035F026F903000393039B002BA6
:1019C00005DA1349164BC52218002FF0A9FB019B1D
:1019D0005B68039A134005D10D49124BC6221800CB
:1019E0002FF09EFB019B9B68DB69180033F0B8FB6E
:1019F00003000593059B002B05D00549054BCB2221
:101A000018002FF08DFB049B180007B000BDC046E6
:101A100094670410D8670410F06C0410EC6704108D
:101A20000C6804102868041000B589B00390029176
:101A3000FFF7CAFC03000793079B002B05D125493C
:101A4000254BD32218002FF06BFB079B9B680822C5
:101A500013430693039B013302D1069B03930DE0CE
:101A6000069BDB43039A134008D0039A1B491C488A
:101A7000069B00931300DB222FF08EFD029B002BB0
:101A800002DA01235B4200E0002303981A000221DE
:101A900035F0F4F803000593059B069A1A40059B60
:101AA0009A420DD0029A80231B069A4202D0059BCF
:101AB000023305D007490B4BE72218002FF030FB0B
:101AC000059B023301D0059B00E00023180009B0FC
:101AD00000BDC0469467041044680410106D0410E3
:101AE00064680410A068041010B58AB003900291D5
:101AF000FFF76AFC03000993099B002B05D15149AC
:101B0000514BEF2218002FF00BFB099A029B30215A
:101B10001800FFF793FC03001A0001235340DBB2C7
:101B2000002B05D049494A4BF22218002FF034FD12
:101B3000029B3022002118003EF074F8039B002B1A
:101B400006D0039B013B039A134001D1012200E020
:101B5000002223236B441A701A7801210A401A705C
:101B600023236B441B7801225340DBB2002B04D1AA
:101B7000099B9B68039A134009D1099B9B68039AB0
:101B80003249344800931300FE222FF005FD35F052
:101B90005DF803000793039B079A134007D10423C2
:101BA000FF331A0029492C4B18002FF0F5FC039A3B
:101BB000099B11001800FFF74FFD03000693069BD9
:101BC000002B07D1039C84235A002049234823007B
:101BD0002FF0E2FC069B1800FFF7B8FE0300059308
:101BE000059B1B7D022B0AD0032B10D0012B15D196
:101BF000059B153302211800FFF7B6FB18E0059B83
:101C00001533052204211800FFF776FB10E0059B31
:101C1000153303211800FFF7A7FB09E0059B1B7D87
:101C20001C0092235A0009490D4823002FF0B4FCF0
:101C3000029A059B11001800FFF730FD00231800E1
:101C40000AB010BD94670410446804101C6D0410A1
:101C50001C6904103869041084690410A069041018
:101C6000F069041000B587B00390029101920093CF
:101C7000039B1800FFF7C4FC03000593059B1B683A
:101C8000153305211800FFF76FFB029B032B07D9C3
:101C90003423FF331A001C491C4B18002FF07CFC26
:101CA000059B24229B5C1A00029B9A4201D80023C8
:101CB00027E0029BDB00059AD31804330493049BAE
:101CC0005A68009B9A4202D2049B5B680093009B77
:101CD000002B15D0019B002B06D0049B1968009A9D
:101CE000019B18003DF00CFF049B1A68009BD21862
:101CF000049B1A60049B5A68009BD21A049B5A608A
:101D0000009B180007B000BD246D0410246A041065
:101D100000B587B00390029101920093FFF754FB46
:101D200003000593059B002B06D1A7235A001249F7
:101D3000124B18002FF0F4F9059A0099019B180036
:101D4000FFF77CFB03001A0001235340DBB2002B9A
:101D500007D05223FF331A0009490A4B18002FF00D
:101D60001BFC009B019A02990398FFF77BFF03007D
:101D7000180007B000BDC046946704104468041002
:101D8000346D0410406A041010B58AB005900491B7
:101D900003920293029B002B6CD0FFF715FB03000C
:101DA0000993099B002B07D16423FF331A003349A1
:101DB000334B18002FF0B4F9099A0299039B1800CD
:101DC000FFF73CFB03001A0001235340DBB2002B5A
:101DD00006D0B3235A002B492B4B18002FF0DCFB05
:101DE000059B1800FFF70CFC03000893089B1B6879
:101DF000153305211800FFF7B7FA089B24229B5CD6
:101E00001A00049B9B180493049B032B07D970238F
:101E1000FF331A001B491D4B18002FF0BDFB049B1C
:101E2000DB00089AD31804330793079B5A68029B78
:101E30009A420AD2079B5B68029CBA22520011495F
:101E40001348009323002FF0A7FB079B1B68029AFF
:101E5000039918003DF054FE079B1A68029BD218A4
:101E6000079B1A60079B5A68029BD21A079B5A600D
:101E7000C04600E0C0460AB010BDC04694670410DA
:101E800044680410406D0410406A0410606A041035
:101E90007C6A041010B58EB001900091019B18006F
:101EA000FFF7AEFB03000B930B9B1B680D930D9B81
:101EB000002B06D1C1235A008B498C4B18002FF000
:101EC0002FF90D9BDB68002B07D18423FF331A0009
:101ED0008549874B18002FF023F9019B1800FFF765
:101EE0009FFB0B9B2822002118003DF09BFE814B9D
:101EF000DB690B9A1100180032F036F803000A93E0
:101F00000A9B002B07D08E23FF331A0076497A4BA9
:101F100018002FF005F900230C930D9B1A68272356
:101F20006B4451424A411A700D9B1B7D022B51D0CC
:101F3000032B00D179E0012B00D0A3E0009B002B04
:101F40000BD0009B6D4A934207D0009CCB235A00D4
:101F50006B496C4823002FF01FFB0D9BDB68089337
:101F6000089B9B680C93009B644A93422AD10D9B6B
:101F7000153302211800FFF7F7F9089B5B6818007A
:101F8000FFF75CFB0D9B1822002118003DF04AFE74
:101F9000584B9B690D9A1100180031F0E5FF0300C2
:101FA0000793079B002B07D0AA23FF331A004E4943
:101FB000514B18002FF0B4F8089B009A5A60002388
:101FC0000D936AE00D9B1533032202211800FFF7E1
:101FD00093F962E0009A80231B069A420CD0009B82
:101FE000494A934208DA009CB823FF331A00444957
:101FF000464823002FF0D0FA0D9B1533032205210C
:102000001800FFF779F9009A80231B069A4202D143
:102010000D9B01229A750D9BDB680693069B009A27
:102020001A61069B5B690C9337E00D9BDB68059397
:10203000059B5B680C930D9B15330122032118004F
:10204000FFF75AF9059B1B681800FFF7F7FA0D9B7D
:102050001822002118003DF0E5FD264B9B690D9AE2
:102060001100180031F080FF0300049300230D934A
:10207000049B002B10D0EC235A001B491E4B180068
:102080002FF04EF80D9B1B7D1C00F0235A001C49BD
:102090001F4823002FF080FAC0460D9B002B05D06F
:1020A0000D9B0022DA600D9B00221A7527236B44DA
:1020B0001B78002B04D00C9B180000F071F910E085
:1020C0000C9B180033F05CFB03000393039B002B75
:1020D00007D0EE23FF331A000349074B18002FF0F7
:1020E0001FF8C0460EB010BD94670410BC6A0410FF
:1020F000DC6A0410EC010008D867041001000080BD
:102100004C6D0410046B041080000080406B0410C0
:10211000786B041000B585B001900091019B180008
:10212000FFF76EFA03000393039B1B68009A9A6003
:10213000C04605B000BD000000B583B0154B1B685C
:102140005B69180033F01CFB03000193019B002B1B
:1021500008D0019B033305D00F49104B44221800CF
:102160002EF0DEFF0E4B1B681B69180033F008FBD6
:1021700003000193019B002B08D0019B033305D082
:102180000549064B472218002EF0CAFFC04603B08F
:1021900000BDC0460C020008706D0410D06D041024
:1021A0001002000810B536F091F8C04610BD10B509
:1021B00036F08CF8C04610BD00B587B001AB186092
:1021C00059609A6001AB1B68022B11D002D8012B19
:1021D00005D045E0032B15D0042B1DD040E001AB0A
:1021E0009A6801AB5B6819001000FEF75DFD3DE0E9
:1021F00001AB9B681A0001AB5B6819001000FEF789
:102200007FFE33E001AB9B681A0001AB5B681900ED
:102210001000FEF76BFF29E001AB5B680593059B9F
:10222000002208211800FFF709F903001A00012312
:102230005340DBB2002B05D00E490F4B6C22180027
:102240002FF0AAF901AB9B681800FFF70BF802000A
:10225000059B1A60059B5B68180000F0A1F805E07B
:102260000649074B752218002EF05AFFC04607B0EA
:1022700000BDC046AC6E0410086E0410706D0410F2
:10228000306E041000B599B0394B17930FAB394A33
:102290001A60179B0C331A000FAB5A60179B483318
:1022A0001A000FAB9A606B4618003C231A000021FD
:1022B0003DF0B8FC6B46304A1A600FAB5B68169372
:1022C0000FAB9B6815936946169B3C2218003DF0A6
:1022D00017FC6946159B3C2218003DF011FC0FA924
:1022E000179B0C2218003DF00BFC244B180032F019
:1022F000E9FE03001493149B002B05D12049214BC8
:102300009F2218002EF00CFF1F4B1A000021012005
:1023100033F0E2F903001393139B002B05D1184906
:102320001A4BA22218002EF0FBFE194B1A000021B6
:10233000012033F0D1F903001293129B002B05D139
:102340000F49144BA52218002EF0EAFE124B186814
:10235000139B149A159900F03DF8104B1B68129AC4
:102360001699180000F096F8C04619B000BDC04696
:1023700000750408779A333D0C4A28637C6E04107C
:10238000706D0410386E04108C6E04104C6E0410C6
:102390009C6E0410646E04100C0200081002000809
:1023A00000B587B0019003AB18000C231A00002180
:1023B0003DF038FC019A03AB5A60054B186803AB3B
:1023C00019685A689B6800F0B5F8C04607B000BDB0
:1023D0000C02000800B585B00390029101920093B1
:1023E000039B002B05D12349234B242218002EF0F8
:1023F00097FE029B002B05D11E49204B2522180079
:102400002EF08EFE029B1B681D4A934205D019498F
:102410001C4B262218002EF083FE019B002B05D1B9
:102420001449194B272218002EF07AFE009B002B2E
:1024300005D11049154B282218002EF071FE039B80
:10244000134A1A60029B1A1D039B5A60029B0833B1
:102450001A00039B9A60029B0C331A00039BDA60FC
:10246000039B019A1A61039B009A5A61C04605B00A
:1024700000BDC046BC6E0410086F0410186F041035
:102480000C4A2863306F0410606F0410706F0410E2
:10249000FFD948A200B585B0039002910192039B39
:1024A000002B05D11C491D4B372218002EF038FE99
:1024B000029B002B05D11849194B382218002EF029
:1024C0002FFE029B1B68174A934205D01249164BF8
:1024D000392218002EF024FE019B002B05D10E4955
:1024E000124B3A2218002EF01BFE039B104A1A6072
:1024F000029B1A1D039B5A60029B08331A00039B20
:102500009A60029B0C331A00039BDA60039B019ACA
:102510001A61C04605B000BDBC6E0410086F0410FF
:10252000186F04100C4A2863306F0410886F041071
:1025300042658BA610B586B0039068460160426084
:102540008360039B002B05D13D493E4B4722180079
:102550002EF0E6FD039B1B683B4A934205D03849A9
:102560003A4B482218002EF0DBFD039B1A69012329
:102570005B421900100032F0C9FD03000593059B72
:10258000002B1BD02E49324B4B2218002EF0C8FDD9
:10259000039B5A69FA235B001900100033F0C8F856
:1025A00003000593059B002B08D0059B023305D043
:1025B0002349284B502218002EF0B2FD039B9B6844
:1025C0001B68013303221A40039B5B681B689A4215
:1025D000DED0039BD968039B9B681A6813005B00DD
:1025E0009B189B00CB186A4613CA13C3039B9B68B6
:1025F000039A92681268013203210A401A60039B11
:102600005B681B68013303221A40039B9B681B68AD
:102610009A4201D1FFF7C6FD039B1B69180032F0F7
:102620009FFD03000593059B002B05D00449084B33
:102630005D2218002EF074FDC04606B010BDC046E5
:10264000BC6E0410086F0410FFD948A29C6F0410E0
:10265000C86F0410DC6F041010B586B00190019BA8
:10266000002B05D12D492E4B632218002EF058FD6A
:10267000019B1B682B4A934205D028492A4B6422B0
:1026800018002EF04DFD019B1A69FA235B0019001A
:10269000100033F04DF803000593059B002B31D05B
:1026A000059B02332ED01D49204B682218002EF0C6
:1026B00037FD019BD968019B5B681A6813005B00BA
:1026C0009B189B00CA1802AB13CA13C3019B5B681B
:1026D000019A52681268013203210A401A60019B74
:1026E0009B681B68023303221A40019B5B681B68CE
:1026F0009A4201D1FFF75BFD02AB186859689A68EE
:10270000FFF75AFD019B5B681A68019B9B681B6879
:102710009A42CED1C04606B010BDC046BC6E041071
:10272000086F041042658BA614700410DC6F04104F
:1027300000B58BB0029101920F236B44021C1A70FA
:10274000364B1B68012B01D1002364E0344B089306
:10275000089B1B88334A934201D001235BE0089B0E
:102760005B881A002E4BD31807932D4B0433099323
:10277000019B032B01D801234DE0029B0693069B8E
:10278000284A1A80069B04225A80029B0433029333
:1027900037E0099B0593059B1B881B0B9AB20F23FF
:1027A0006B441B789BB29A4221D1069B5B881A002E
:1027B000059B5B88D3181A00019B9A4201D901231B
:1027C00029E0059B5B881A000599029B18003DF0E3
:1027D00097F9059B5B881A00029B9B180293069B46
:1027E0005A88059B5B88D3189AB2069B5A80059B32
:1027F0005B88002B0AD0059B5B881A00099B9B18FD
:102800000993099A079B9A42C3D300E0C046034B41
:1028100001221A60002318000BB000BD58200008E8
:10282000807004101620000082B00190019B0733D5
:1028300001D1402300E04023180002B0704700009F
:1028400070B58EB00790069104A90A604B603723DB
:102850006B4400221A70079B1800FFF7E5FF030086
:102860000C9311230B9326236B4400221A8012AB86
:102870005A680C9B9A4201D2062340E026226A4401
:102880000B9B1900012003F0EFFA03000A930A9B47
:10289000002B01D00B2332E026236B44188804ABB5
:1028A0001C6804AB5D6812AB1A6812AB5B681499C4
:1028B0000431144E0291019300922B00220031004A
:1028C00003F02CFA03000A930A9B002B0AD026235C
:1028D0006B441B88180003F013FB37236B44012261
:1028E0001A7003E012AB1A68149B1A6026236B441B
:1028F0001B88180003F004FB37236B441B78180077
:102900000EB070BD0900071000B5A5B0039001A876
:102910000160426000931CAB180018231A000021CC
:102920003DF080F904AB180060231A0000213DF04F
:1029300079F98B236B441CAA04A8602100F07CF970
:1029400003002393239B002B07D11CAB9B68002B18
:1029500003D01CAB1B69002B01D107234FE08B2355
:102960006B441B781A00009B1A6026AB5A681CAB9C
:10297000DB689A4201D2072341E026AB18681CAB02
:1029800099681CABDB681A003DF0BAF81CABDA683A
:1029900026AB5A60082326AA944663445A681CABA7
:1029A0005B699A4201D2072329E0082326AA9446AC
:1029B000634418681CAB19691CAB5B691A003DF0D5
:1029C0009FF81CAB5A69082326A98C4663445A60B9
:1029D00026AB1A682A9B1A6026AB5A682A9B5A6053
:1029E000082326AA944663441A682B9B1A6008237E
:1029F00026AA944663445A682B9B5A600023180009
:102A000025B000BD002318007047000084B001907D
:102A1000019B064A934202D1054B039302E0054B0A
:102A20000393C046039B180004B07047C0E6FEFF46
:102A3000090000010200000110B586B0019000916C
:102A400017236B4400221A7017246C44FFF7DAFF37
:102A50000300237017236B441B78002B03D017232C
:102A60006B441B782FE0019B0493049B04330422E6
:102A7000002118003DF0D6F8049B1C1D009B180097
:102A8000FFF7C4FF03001900200003F091F80300D2
:102A90000393039B002B07D1049B00221A6017238A
:102AA0006B4400221A700BE0039B863304D117237A
:102AB0006B4403221A7003E017236B4404221A703C
:102AC00017236B441B78180006B010BD00B587B003
:102AD000039001AB19605A60039B0593059B1B682B
:102AE000002B0FD101AB1B68002B0BD0059B181DD1
:102AF00001AB196801AB5B681A0003F093F80200A0
:102B0000059B1A60C04607B000BD00B589B00390B0
:102B100001A80160426000931F236B4400221A70D9
:102B2000039B0693069B1B68002B24D1069B181D54
:102B300001AB196801AB5A68009B043303F0A5F898
:102B400003000593059B002B08D101AB1A68009B7D
:102B50001A601F236B4400221A7010E0059B8A3311
:102B600004D11F236B4405221A7008E01F236B4415
:102B700004221A7003E01F236B4404221A701F23DF
:102B80006B441B78180009B000BD86B00390029119
:102B90000192019B05930CE0029B1A78039B1A702B
:102BA000029B01330293039B01330393059B013B7B
:102BB0000593059B002BEFD1C04606B0704700007F
:102BC00084B001900091019B184A1340184A934227
:102BD00002D1019B9AB200E000220E236B441A80BE
:102BE0000E236B441B88173B072B18D89A00114BF8
:102BF000D3181B689F46009B01221A7012E0009BAD
:102C000002221A700EE0009B03221A700AE0009B59
:102C100004221A7006E0009B05221A7002E0862347
:102C20005B4200E00023180004B070470000FFEF93
:102C3000000003604070041010B592B00390029140
:102C4000019200930023119300230F9300230E930E
:102C50000023059300230D9300230C9311230B9362
:102C600012236B4400221A8012226A440B9B190023
:102C7000012003F0F9F803000A930A9B002B01D00E
:102C8000012328E112236B441B8806AA07A9180018
:102C900003F016FA03000A930A9B002B07D01223B5
:102CA0006B441B88180003F02BF9012313E1079BE9
:102CB0008A4A13408A4A934207D012236B441B88E6
:102CC000180003F01DF9012305E1079B854A134015
:102CD0000993099AC023DB051A408023DB059A4239
:102CE00003D1069B0733DB0841E0099B7E4A9342F0
:102CF00008D1069B5B080133DA081300DB009B1840
:102D00003B3334E0099B794A934203D1069BDB08AD
:102D100010332CE0099B764A934206D1069BDA08D1
:102D200013005B009B185A3321E0099B714A9342C0
:102D300006D1069BDA0813005B009B184A3316E0A5
:102D4000099B1B0C1B046C4A934203D1069B07335F
:102D5000DB080CE0099B1B0C1B04614A934205D164
:102D6000069B0733DB085B00013300E000230E9372
:102D70000E9B18003CF080FB03000F930F9B002B71
:102D800007D112236B441B88180003F0B9F8012304
:102D9000A1E012236B44188805AB0E9A0F9903F03B
:102DA00037FA03000A930A9B002B0BD00F9B1800E5
:102DB0003CF06CFB12236B441B88180003F0A0F856
:102DC000012388E0079B009A11001800FFF7F8FE26
:102DD00003000A930A9B002B0BD00F9B18003CF0BA
:102DE00055FB12236B441B88180003F089F801235C
:102DF00071E00F9B1093039B1193059B013B5B08B4
:102E0000180042F0DBFD03000C00180021003BF02D
:102E100023FF03000C001800210040F081FF030095
:102E20000D93059B013B5B08180042F0C7FD0300B2
:102E30000C00180021003BF00FFF03000C001800ED
:102E4000210040F06DFF03000C930D9B002B15D06B
:102E5000109B013310930D9B0893089A1099119BB6
:102E60001800FFF792FE019B119A9A60019B089A45
:102E7000DA60119A089BD318119305E0019B002298
:102E80009A60019B0022DA600C9B002B12D0109AF2
:102E90000D9BD31810930C9B0893089A1099119BC3
:102EA0001800FFF772FE019B119A1A61019B089AA4
:102EB0005A6105E0019B00221A61019B00225A61C0
:102EC0000F9B18003CF0E2FA12236B441B88180099
:102ED00003F016F80023180012B010BD0000FFEF39
:102EE00000000360FFFFFFEF0000017000000160C1
:102EF00000000270000002600000037000B583B0A3
:102F000005F0E3FB03000193019BC0229201934271
:102F100023D0C022920193420AD8802252019342C8
:102F200015D080229201934214D0002B0DD020E0C6
:102F3000A022D201934216D0C022D201934215D0D2
:102F40008022D20193420BD013E0002312E08023B1
:102F50005B010FE080239B010CE0C0239B0109E093
:102F60008023DB0106E0A023DB0103E0C023DB01BB
:102F700000E00023180003B000BD000000B58FB0D2
:102F80000190009111230B931E236B4400221A80A1
:102F900000230D9300230A930023049300230C9332
:102FA000002303931E226A440B9B1900012002F0A8
:102FB0005BFF03000993099B002B01D00123B7E0BD
:102FC0001E236B441B8805AA06A9180003F078F895
:102FD00003000993099B002B02D001230C9399E075
:102FE000069B554A1340554A934202D001230C9345
:102FF00090E0069B524A13400893089AC023DB05D1
:103000001A408023DB059A4203D1059B0733DB0876
:1030100041E0089B4B4A934208D1059B5B08013372
:10302000DA081300DB009B183B3334E0089B464A68
:10303000934203D1059BDB0810332CE0089B434AE5
:10304000934206D1059BDA0813005B009B185A33A4
:1030500021E0089B3E4A934206D1059BDA08130003
:103060005B009B184A3316E0089B1B0C1B04394A73
:10307000934203D1059B0733DB080CE0089B1B0C34
:103080001B042E4A934205D1059B0733DB085B00E6
:10309000013300E000230A930A9B18003CF0ECF98E
:1030A00003000D930D9B002B02D101230C9331E003
:1030B0001E236B44188804AB0A9A0D9903F0A8F8F4
:1030C00003000993099B002B02D001230C9321E0FC
:1030D000214A03AB1100180002F06AFD03000993B6
:1030E000099B002B02D001230C9313E0049A0D9945
:1030F00003AB180002F096FD019B009903A8202263
:1031000002F0C3FD03000993099B002B02D00123A9
:103110000C93C0460D9B002B03D00D9B18003CF078
:10312000B5F91E236B441B88180002F0E9FE0C9BC6
:1031300018000FB000BDC0460000FFEF00000360A4
:10314000FFFFFFEF0000017000000160000002704F
:1031500000000260000003700900000182B00190CD
:10316000034B1A68019B1A600023180002B07047D5
:103170005C22000882B0019000910323180002B085
:10318000704700B585B001900091009B01221A7034
:10319000009B5A1C019B11001800FFF7EFFE030073
:1031A0000393019B1B685A1C019B1A60039B180028
:1031B00005B000BD82B0019000910323180002B059
:1031C0007047000000B583B001900091019B1A6820
:1031D0000449009B18003CF093FC0023180003B046
:1031E00000BDC0462C71041010B5FFF787FE030028
:1031F000180010BD82B00190019B0C221A60024B96
:10320000180002B07047C0466070041082B0019090
:10321000019B0D221A60024B180002B07047C04695
:103220007070041084B0039002916B4607331A70DB
:10323000029B002B01D1042300E00023180004B0FE
:10324000704784B0019002AB00221A6002AB0022EA
:103250005A60019B02AA03CA03C3019804B07047D5
:1032600000B595B00790069105920493002313933F
:103270000023129332236B4401221A8011231193ED
:10328000012310930AAB00221A600AAB00225A6095
:10329000724B0F9300230E9332226A441199109BB4
:1032A000180002F095FD03001393139B002B01D02F
:1032B000139BCFE002AB1800FFF7C3FF684A0F99DA
:1032C0000AAB180002F05AFE32236B441B880AAA8C
:1032D0001100180002F060FE03001393139B002BF3
:1032E00001D0139BB6E0059B1B0C1B045D4A934267
:1032F00002D087235B42ADE0079B002B14D0069BD6
:10330000202B03D087235B4213939CE032236B4432
:103310001888069B079A059902F088FE030013930C
:10332000139B002B13D08EE080235B00129332237B
:103330006B441888129A059900230093002302F029
:1033400081FF03001393139B002B00D076E0322300
:103350006B441B8809AA08A9180002F0B1FE0300FB
:103360001393139B002B00D06AE0089B3E4A134046
:103370000D930D9AC023DB051A408023DB059A428A
:1033800003D1099B0733DB0841E00D9B374A934289
:1033900008D1099B5B080133DA081300DB009B1896
:1033A0003B3334E00D9B324A934203D1099BDB0847
:1033B00010332CE00D9B2F4A934206D1099BDA086B
:1033C00013005B009B185A3321E00D9B2A4A93425D
:1033D00006D1099BDA0813005B009B184A3316E0FC
:1033E0000D9B1B0C1B041F4A934203D1099B0733FF
:1033F000DB080CE00D9B1B0C1B04204A934205D1FB
:10340000099B0733DB085B00013300E000230E93C8
:1034100032236B441888179B169A049902F0F8FE21
:1034200003001393139B002B0CD1179B1A680E9B60
:103430009A4208D987235B42139304E0C04602E016
:10344000C04600E0C04632236B441B88180002F0DF
:1034500057FD139B180015B000BDC046010C0000BD
:103460000900071000000370FFFFFFEF000001706C
:1034700000000160000002700000026000000360B4
:1034800010B584B0039000920193009B019C0399B6
:103490001A002300080002F02CFA069B079C0399EF
:1034A0001A002300080002F024FAC04604B010BD40
:1034B00000B585B0039001AB19605A6001AB039869
:1034C0001A685B68032102F049FAC04605B000BDE6
:1034D00010B584B0039000920193009B019C039966
:1034E0001A002300080002F004FA06AB03981968DA
:1034F0005A68FFF7DDFFC04604B010BD00B585B0C7
:10350000039001AB19605A6001AB03981A685B68BD
:10351000022102F023FAC04605B000BD10B584B008
:10352000039000920193009B019C03991A002300D1
:10353000080002F0DEF906AB039819685A68FFF735
:10354000DDFFC04604B010BD00B583B00190019B03
:103550000521180002F045FAC04603B000BD00B5D1
:1035600083B00190019B00220521180002F06BFA44
:10357000C04603B000BD00B583B00190019B02219D
:10358000180002F02EFAC04603B000BD00B583B0AB
:1035900001900091009A019B0221180002F053FA59
:1035A000C04603B000BD82B002006B4607331A70FC
:1035B0006B4607331B78002B02D0032B02D003E0AD
:1035C000002302E0042300E00323180002B0704748
:1035D00030B589B00590049103920293059B982120
:1035E000049A5A50059B9C21039A5A5005980C9BAB
:1035F00019685A6802F0C3F8059BA0331800049BB1
:10360000DB0FDB075A1E9341D9B2059B1E246C4485
:10361000039D029A00932B0001F034F903002370FC
:103620001E236B441B78002B0AD01F246C441E23DE
:103630006B441B781800FFF7B6FF030023700BE004
:10364000059B1800FFF797FF059B1800FFF77CFF0D
:103650001F236B4400221A701F236B441B78180031
:1036600009B030BD82B00190019B180002B07047D4
:1036700070B586B005900491029203930599049B5E
:103680001D00DB171E00029B039C009301942A007F
:1036900033000800FFF7F4FEC04606B070BD70B5F9
:1036A00086B00590049103920599049B1C00DB17DA
:1036B0001D00039A6B4641CA41C322002B0008003B
:1036C000FFF72CFFC04606B070BD70B586B0059000
:1036D000049103920599049B1C00DB171D00039ABB
:1036E0006B4641CA41C322002B000800FFF7F0FEE1
:1036F000C04606B070BD10B588B0019000911F2380
:103700006B4400221A70019B1800FFF728FF019BF1
:1037100005AA11001800FFF739FF019BA03318001C
:103720001E246C4405AB19685A6801F039F903008E
:1037300023701E236B441B78002B0AD01F246C447B
:103740001E236B441B781800FFF72DFF0300237026
:1037500021E0019B1D246C4403AA1100180002F013
:10376000EEF9030023701D236B441B78012B04D159
:103770001F236B4401221A700DE01D236B441B783C
:10378000002B04D01F236B4402221A7003E0009B1D
:1037900003AA03CA03C31F236B441B78180008B095
:1037A00010BD00B583B00190019B0421180002F008
:1037B00018F9C04603B000BD10B584B00390009264
:1037C0000193009B019C03991A002300080002F05A
:1037D00090F8039B1800FFF7E4FFC04604B010BD4B
:1037E00000B583B00190019B00220421180002F073
:1037F0002AF9C04603B000BD00B583B00190019B1B
:103800000521180002F0EDF8C04603B000BD10B568
:1038100084B0039000920193009B019C03991A00CD
:103820002300080002F065F8039B1800FFF7E4FF8F
:10383000C04604B010BD00B583B00190019B0022CA
:103840000521180002F0FFF8C04603B000BD00B526
:1038500085B0039002910192019A0299039B18008E
:103860003CF04EF90300180005B000BD00B583B070
:1038700080239A00054B19000120FEF759FF030031
:103880000193019B180003B000BDC0465C200008F6
:1038900082B002006B4607331A706B4607331B7801
:1038A000002B02D0012B02D003E0002302E0022310
:1038B00000E00523180002B0704700B587B0039000
:1038C00002910192029B022B09D0042B15D0012BEF
:1038D0001AD1039B1B781A00019B1A6017E0039909
:1038E00016236B4402221800FFF7B1FF16236B4426
:1038F0001B881A00019B1A6009E00399019B0422AE
:103900001800FFF7A4FF02E001235B4200E0002360
:10391000180007B000BD000000B589B00291019207
:1039200000930F236B44021C1A702A4B0693069BCC
:103930001B88294A934202D001235B4246E0069B42
:103940005B881A00234BD3180593009B1B68002B40
:1039500002D1224B079334E0009B196804AB042288
:103960001800FFF774FF009B1B6804AA52889B187D
:10397000079326E0079904AB04221800FFF767FFBE
:1039800004AB1B889B113F221A400F236B441B780A
:103990009A4210D104AB1B88DBB23F221340DAB24B
:1039A000029B1A70009B079A1A6004AB5A88019B0D
:1039B0001A8001230AE004AB5B881A00079B9B185E
:1039C0000793079A059B9A42D4D30023180009B0A5
:1039D00000BDC0465C2000081620000060200008E2
:1039E00010B588B0029101920F236B44021C1A702B
:1039F0001F236B4400221A70019B00221A60019C55
:103A0000029A172169441F236B4418782300FFF79B
:103A100083FF03000693069B012B0BD117236B44F6
:103A20001B780F226A4412789A4205D0069B012B1C
:103A3000E5D002E0C04600E0C046069B180008B092
:103A400010BD000030B587B0039001920B236B448A
:103A50000A1C1A700B236B441B78092B41D89A005F
:103A6000234BD3181B689F46019A039B0221180021
:103A7000FFF715FE37E0019A039B06211800FFF7B8
:103A800024FE30E0019A039B04211800FFF71DFE7D
:103A900029E0019A039B05211800FFF700FE22E0B0
:103AA000019B1868019B5B6804AA1900FFF705FFDA
:103AB00003000593059B002B01D0052314E0049B14
:103AC0001C0000231D00039822002B000321FFF798
:103AD000CFFD08E0019A039B01211800FFF7F5FDD7
:103AE00001E0052300E00023180007B030BDC04608
:103AF0004C71041000B58DB00390029101920093B7
:103B0000019B069301230B93019908AB0422180033
:103B1000FFF79DFE08AB5A881E236B441A8008AB42
:103B20001B88DBB23F221340DAB21D236B441A70AC
:103B3000039B1800FFF796FD03000A93009B002BE0
:103B400036D00A99022200230800FFF760FE2FE01A
:103B50001D236B441B78DB08DBB2002B18D0069BBF
:103B60001A1D04AB1A601E236B441B881A1F04AB7A
:103B70005A601D236B44197804AA039B1800FFF7B1
:103B800061FF03000993099B002B01D0099B1AE0F8
:103B9000029BD8B206AB1E226A441D216944FFF77E
:103BA000BBFE03000B930B9B013301D103230AE0FF
:103BB0000B9B002BCCD1009B002B03D00A9B180041
:103BC000FFF739FE002318000DB000BD00B58DB021
:103BD000039002910192019B069301230B93002312
:103BE0000A93019908AB04221800FFF730FE08ABD6
:103BF0005A881E236B441A8008AB1B88DBB23F2215
:103C00001340DAB21D236B441A70039B1800FFF7B0
:103C100029FD03000993099B1800FFF7EDFD35E02E
:103C20001D236B441B78DB08DBB2002B0CD00A9BF6
:103C3000002B1BD10A9B01330A93069A0299039821
:103C40000023FFF757FF11E0069B1A1D04AB1A6013
:103C50001E236B441B881A1F04AB5A601D236B4440
:103C6000197804AA039B1800FFF7ECFE029BD8B258
:103C700006AB1E226A441D216944FFF74DFE030076
:103C80000B930B9B013301D1032307E00B9B002B0C
:103C9000C6D1099B1800FFF7CEFD002318000DB018
:103CA00000BD000010B58AB00190002309930123E4
:103CB000089332E000230493089BD8B204AB162289
:103CC0006A440F216944FFF727FE03000693069B11
:103CD000013301D1032332E0069B012B1AD1099B4A
:103CE00001330993099B012B0ED1019B1800FFF7AB
:103CF000B9FC03000793134B0124644207991A008F
:103D000023000800FFF758FD049A0899019B18004A
:103D1000FFF75CFF089B01330893089B062BC9D96A
:103D2000099B002B04D0079B1800FFF759FD05E005
:103D30000549019801220023FFF79AFC002318008F
:103D40000AB010BD02DBFEFF01DBFEFF00B591B043
:103D5000019004AB180008231A0000213BF062FF19
:103D60000023029300230F9302AA0E236B44190031
:103D70000020FFF735FE03000F930F9B012B0AD1A4
:103D8000029B1A1D04AB1A600E236B441B881A1F7A
:103D900004AB5A6011E006AB19002020FFF7EAF9E6
:103DA00003000E930E9B002B01D003230CE004AB09
:103DB00006AA1A6004AB20225A6004AA0449019B97
:103DC0001800FFF76CFC0023180011B000BDC046BE
:103DD00004DBFEFF00B591B001902123059306AAF4
:103DE00005AB11001800FFF7CCF903000F930F9BF0
:103DF000002B01D003230CE003AB06AA1A60059A3E
:103E000003AB5A6003AA0449019B1800FFF747FC63
:103E10000023180011B000BDFFDAFEFF00B58FB01F
:103E200001902023049305AA04AB11001800FFF7AA
:103E3000C9F903000D930D9B002B01D003230CE067
:103E400002AB05AA1A60049A02AB5A6002AA04499E
:103E5000019B1800FFF723FC002318000FB000BDE2
:103E600005DBFEFF00B58FB001901223069304AB73
:103E7000180008231A0000213BF0D4FE002302930F
:103E800000230D9302AA0E236B4419000120FFF7B3
:103E9000A7FD03000D930D9B012B0AD1029B1A1D58
:103EA00004AB1A600E236B441B881A1F04AB5A60C4
:103EB00012E007AA06AB11001800FFF77BF9030018
:103EC0000C930C9B002B01D003230CE004AB07AA3E
:103ED0001A60069A04AB5A6004AA0449019B1800B0
:103EE000FFF7F3FB002318000FB000BD03DBFEFF5C
:103EF00030B585B0019002AB1800FFF72FF9030031
:103F00000393039B002B01D0039B0AE0029B1C0040
:103F1000DB171D000449019822002B00FFF7A8FBC6
:103F20000023180005B030BD07DBFEFF70B58AB076
:103F3000019004AB180008231A0000213BF072FE28
:103F4000002302930023089302AA0E236B44190056
:103F50000220FFF745FD03000893089B012B1DD1AC
:103F6000029B1A1D04AB1A600E236B441B881A1F98
:103F700004AB5A6004AB186804AB5B6806AA19006E
:103F8000FFF79BFC03000793079B002B01D0052341
:103F900021E0069A26236B441A8005E026246C440F
:103FA000FFF722F90300238026236B441A88C023DD
:103FB000DB019A4201D905230DE026236B441B88BF
:103FC0009BB21D0000231E00044901982A00330003
:103FD000FFF74EFB002318000AB070BD06DBFEFFA2
:103FE00000B583B001900091009A0449019B18002C
:103FF000FFF755FB0023180003B000BD00DBFEFFF8
:1040000000B587B0019003AB1800FFF7F3F802008A
:1040100004AB1A6004AB1B68002B08D0039A04ABF6
:104020005A6004AA0449019B1800FFF74EFB0023C5
:10403000180007B000BDC046FEDAFEFF00B587B02D
:10404000019003AB1800FFF7E1F8020004AB1A601F
:1040500004AB1B68002B08D0039A04AB5A6004AA77
:104060000449019B1800FFF730FB0023180007B03C
:1040700000BDC04608DBFEFF82B00190019B242BEF
:1040800007D002D8202B04D005E0302B01D0402BE4
:1040900001D1002300E00423180002B0704730B5BE
:1040A000BFB005900491039200233D9300233C93FD
:1040B000059B5B68242B06D1059B1B681B6A3C9300
:1040C000059B20225A603C9B072213403B93072309
:1040D0005B423A93E7246C4407235D423B9A3C9948
:1040E00007A8049B00932B00FFF772FA03002370CC
:1040F000E7236B441B78002B08D0E7236B441B7825
:104100001800FFF7C5FB03003D938CE0059A07AB51
:1041100011001800FFF764FF03003D933D9B002B47
:1041200000D06DE03C9A8023DB05134050D107ABF3
:104130001800FFF70BFE03003D933D9B002B61D160
:1041400007AB1800FFF75CFF03003D933D9B002B7E
:104150005AD107AB1800FFF771FF03003D933D9B59
:10416000002B53D107AB1800FFF734FE03003D933B
:104170003D9B002B4CD107AB1800FFF773FE0300EB
:104180003D933D9B002B45D107AB1800FFF746FE42
:1041900003003D933D9B002B3ED107AB1800FFF77A
:1041A000A7FE03003D933D9B002B37D107AB1800C2
:1041B000FFF7BCFE03003D933D9B002B30D107ABC6
:1041C0001800FFF76FFD03003D933D9B002B29D1A5
:1041D000E7246C44039A07AB11001800FFF78BFA31
:1041E00003002370E7236B441B78002B1BD0E723CD
:1041F0006B441B781800FFF74BFB03003D9312E064
:10420000C04610E0C0460EE0C0460CE0C0460AE0E2
:10421000C04608E0C04606E0C04604E0C04602E0F2
:10422000C04600E0C0463D9B18003FB030BD00B521
:104230008DB0039002910192009300230B93039B96
:104240001A6809AB1A60039B5A6809AB5A60019B54
:104250001A6807AB1A60019B5A6807AB5A6009AB32
:104260005B681800FFF708FF03000B930B9B002B04
:104270002DD109AB186809AB5B6801221900FEF764
:10428000D1FF03000B930B9B002B22D107AB1868C7
:1042900007AB5B6802221900FEF7C4FF03000B9313
:1042A0000B9B002B17D105AA07A909AB1800FFF734
:1042B000F6FE03000B930B9B002B0ED105AB1A6887
:1042C000019B1A6005AB5A68019B5A6006E0C04624
:1042D00004E0C04602E0C04600E0C0460B9B180068
:1042E0000DB000BD00B58FB0039002910192009314
:1042F00000230D93039B1B681B680C93019B1B6899
:104300000B9309AB00221A6009AB0C9A5A6007ABF9
:1043100000221A6007AB144A5A60019B5B68032BAA
:1043200002D804230D931BE00C9B1800FFF7A4FE9A
:1043300003000D930D9B002B0FD105AA07A909AB14
:104340001800FFF7ACFE03000D930D9B002B06D168
:1043500005AB5A680B9B1A6002E0C04600E0C046FD
:104360000D9B18000FB000BDFFFFFF7F82B06B46B2
:10437000186059606B461B685A425341DBB2180003
:1043800002B0704710B584B0039000920193009B77
:10439000019C03991A002300080001F0AAFA069B69
:1043A000079C03991A002300080001F0A2FAC046F6
:1043B00004B010BD00B585B0039001AB19605A6020
:1043C00001AB03981A685B68022101F0C7FAC04686
:1043D00005B000BD10B584B0039000920193009B1E
:1043E000019C03991A002300080001F082FA06AB31
:1043F000039819685A68FFF7DDFFC04604B010BD86
:1044000000B583B00190019B0421180001F0E9FA86
:10441000C04603B000BD00B583B00190019B0022EF
:104420000421180001F00FFBC04603B000BD00B529
:1044300083B00190019B0521180001F0D2FAC0461B
:1044400003B000BD00B583B00190019B002205219F
:10445000180001F0F8FAC04603B000BD00B583B003
:104460006B46186059606B4618685968FFF77EFF05
:104470000300180003B000BD82B00190019B073318
:1044800001D1402300E04023180002B0704782B001
:1044900000B589B0039001A80160426004220AA916
:1044A0008C4662441360039B1800FFF7E5FF03008E
:1044B000049304230AAA944663445A68049B9A42CC
:1044C00004D21F236B4406221A7032E000230693A5
:1044D0001DE0049A069BD31A059301AB5A68059B0D
:1044E0009A4202D201AB5B68059304230AAA944660
:1044F00063441A68069BD01801AB1B68059A190023
:104500003BF0FEFA01AB5B68069AD3180693069A55
:10451000049B9A42DDD304230AAA944663441A6892
:104520000D9B1A600D9B049A5A601F236B44002256
:104530001A701F236B441B78180009B008BC02B026
:1045400018470000F0B5D1B00B905D4850ACA446C0
:1045500060440160426008931DAB1FAA1A601DAB46
:1045600020225A6013AB15AA1A6013AB20225A609E
:104570004DAB00221A604DAB00225A603824FF3444
:1045800002AB9C4664440EAF4DAA0B980FAB05934B
:1045900011AB049313A908236B4460C960C31DA920
:1045A0006B4660C960C33B0011685268FEF7ACF906
:1045B000030023703823FF3302AA944663441B7818
:1045C000002B73D13E4B50AA9446634427A8196828
:1045D0005A6801F0D4F827AB1800FFF728FF27A985
:1045E0000223002400930194012200230800FFF716
:1045F000C9FE0E9B0693DB17079301235B42DC1772
:1046000027A9069D079E009501961A002300080021
:10461000FFF7B8FE02204042C11727AC11AA6B4633
:1046200060CA60C302000B002000FFF7D3FE032026
:104630004042C11727AC234B50AAD2186B4660CA20
:1046400060C302000B002000FFF7C4FE27AB180078
:10465000FFF7F8FE9B24640002AB9C4664440CAA5E
:1046600027AB1100180001F06AFA030023709B23A6
:104670005B0002AA944663441B78002B07D03823C2
:10468000FF3302AA9446634402221A700FE008998D
:104690000D4B50AAD2180B0003CA03C33823FF33B3
:1046A00002AA9446634400221A7000E0C0463823F0
:1046B000FF3302AA944663441B78180051B0F0BD42
:1046C000E4FEFFFFFCFEFFFFF0FEFFFF30B5CDB0C4
:1046D000214C4CADAC466444206061601F494CA83D
:1046E000844661440A604B603023FF336B440022F0
:1046F0001A703024FF346C44194A05AB11001800BD
:10470000FEF79AF9030023703023FF336B441B78C4
:10471000002B18D1104B4CAA9446634405A8196885
:104720005A68FEF7D3F93024FF346C4450990B4B90
:104730004CAAD21805A80B0011685268FEF7E5F9DB
:104740000300237000E0C0463023FF336B441B7826
:1047500018004DB030BDC046D8FEFFFFD0FEFFFFB1
:10476000C0E6FEFF10B59EB0059003A80160426050
:10477000029309AB0BAA1A6009AB4B225A6077244B
:104780006C4407AB09AA059811685268FFF7DAFE76
:104790000300237077236B441B78002B0ED1772402
:1047A0006C4403AB07A9029A00921A685B68086818
:1047B0004968FFF78BFF0300237000E0C0467723B2
:1047C0006B441B7818001EB010BD30B5B3B0059017
:1047D000049102A90A604B6002AB09A819685A68E3
:1047E00000F0CDFF09AB1800FFF721FE049B1C0071
:1047F000DB171D0009A90094019501220023080080
:10480000FFF7C0FD09AB1800FFF71CFEC7246C447E
:104810002FAA09AB1100180001F091F903002370D1
:10482000C7236B441B78002B04D107AB2FAA03CA04
:1048300003C305E007AB00221A6007AB00225A60F1
:10484000059B07AA03CA03C3059833B030BD10B552
:1048500086B0059003AB19605A60059B1800FFF7FE
:10486000E6FD059903AA6B4611CA11C30422002371
:104870000800FFF7AFFD059B1800FFF7E3FDC046FA
:1048800006B010BD10B596B00590039202931323A5
:104890006B440A1C1A700AAB0CAA1A600AAB2022DD
:1048A0005A60039B180000F0D3F903001493149B83
:1048B0003A4A934201D101236CE0059B039A9A6125
:1048C000059B029ADA61059B13226A442021127823
:1048D0005A54059B189A5A6213236B441B78002B79
:1048E0000AD057246C4408AA0AAB1868596800F02B
:1048F00071FA030023700AE057246C4408AB0AAA3B
:10490000029811685268FFF72DFF030023705723A8
:104910006B441B78002B39D1189912220023080010
:1049200001F04FF8189B1800FFF76AFD059A06ABD7
:104930001A6006AB10225A60059C684606AB0399C4
:104940001A685B68FFF741FF6A462300103303CA09
:1049500003C3059B18695969FFF780FD031E04D046
:1049600057236B4400221A7011E0059B18981969AF
:104970005A69FFF71FFD08AB189819685A68FFF7C6
:1049800066FF57236B4400221A7000E0C04657238D
:104990006B441B78180016B010BDC046FFFFFF7FA8
:1049A000F0B5ABB0079005AB19605A6013AB15AA10
:1049B0001A6013AB40225A6009AB0BAA1A6009AB0C
:1049C00020225A60079B9869A7246C4427AD09AA46
:1049D00005A908236B44C0C9C0C3079B69461033AF
:1049E000C0CBC0C12B001168526800F041F9030030
:1049F0002370A7236B441B78002B3ED1079B2022FA
:104A00009B5C002B13D0079B9D69A7246C4413ABC0
:104A100027AA25A901916946586808601B68116892
:104A200052682800FFF733FD0300237013E0079B53
:104A30009869079BDD69A7246C4427AB25AA0292DD
:104A400013A96A46C0C9C0C21A685B682900FDF78D
:104A5000F7FE03002370A7236B441B78002B0ED1B5
:104A6000079B586A25AB19685A68FFF7A3FC079B98
:104A70005B6A1800FFF7CFFC02E0C04600E0C046CA
:104A8000A7236B441B7818002BB0F0BD82B06B4697
:104A9000186059606B461B685A425341DBB21800DC
:104AA00002B0704700B583B001900091009B1800E0
:104AB0003BF0DAFB0100019B009A1A60019B5960F0
:104AC000019803B000BD82B030B587B0059003A84F
:104AD0000160426004220AA98C4662441360059872
:104AE00003AA04230AA9C9186B4630C930C300239E
:104AF0001168526800F04CFC059807B030BC08BC47
:104B000002B0184784B0039001A80160426000938E
:104B100001AB5A68009B9A4206D2039B00221A609E
:104B2000039B00225A6006E001AB1A68039B1A60DF
:104B3000039B009A5A60039804B0704700B583B095
:104B40006B46186059606B4618685968FFF79EFFFE
:104B50000300180003B000BD82B010B586B0059008
:104B600003A801604260042208A98C4662441360D5
:104B7000059C042308AA9446634403AA694658681E
:104B800008601B68116852682000FFF79CFF0598B9
:104B900006B010BC08BC02B0184700B585B0039041
:104BA00001A80160426000930398009B01AA11686C
:104BB0005268FFF7A7FF039805B000BD00B585B0A8
:104BC000039001AB19605A6001AB03981A685B68E7
:104BD000032100F0C3FEC04605B000BD00B585B09E
:104BE0000190009102AB009A11001800FFF75AFFE4
:104BF00002AB019819685A68FFF7E0FFC04605B09C
:104C000000BD00B585B0039001AB19605A6001ABDF
:104C100003981A685B68022100F0A0FEC04605B048
:104C200000BD00B583B00190019B0421180000F085
:104C3000D8FEC04603B000BD00B583B00190019B13
:104C400000220421180000F0FEFEC04603B000BDA3
:104C500082B00190019B073301D1034B00E0034B6D
:104C6000180002B07047C046C0E6FEFFFFFFFF7F9E
:104C700010B5534CA5440390524888ACA4466044F8
:104C80000160426000934DAB4FAA1A604DAB2122E8
:104C90005A604DAB58A819685A6800F070FD58ABBF
:104CA0001800FFF7BEFF484A58AB11001800FFF785
:104CB00095FF8AAB58A819685A68FFF7A2FF7EAB28
:104CC00000221A607EAB00225A607EAB58A8196899
:104CD0005A68FFF796FF80AB00221A6080AB002273
:104CE0005A6080AB58A819685A68FFF78AFF82ABF0
:104CF00000221A6082AB00225A6082AB58A8196861
:104D00005A68FFF77EFF58AB1800FFF795FF2F4C4E
:104D10006C444BAA58AB1100180000F010FF0300C0
:104D200023702A4B6B441B78002B04D0284B6B4418
:104D300014221A703CE0039B1800FFF789FF030060
:104D40008693234C6C44869A05AB11001800FDF73E
:104D500073FE030023701E4B6B441B78002B26D17F
:104D60004BAB5B68023B84A84BAA11685268FFF703
:104D700014FF84AB05A819685A68FDF7A7FE08233D
:104D80008AAA9446634405A819685A68FDF79EFEEE
:104D90000F4C6C4400990B4B88AAD21805A80B0045
:104DA00011685268FDF7B1FE0300237000E0C046B1
:104DB000074B6B441B78180088239B009D4410BD53
:104DC000E0FDFFFFE4FDFFFF747104101E02000010
:104DD0001F02000030B593B006AB18605960059211
:104DE00008AB154A13CA13C313CA13C303CA03C3B8
:104DF00010AB08AA1A6010AB20225A60059C02ADC5
:104E000010AB06AA6946586808601B6811685268AA
:104E10002800FFF7A1FE02AA230003CA03C3059BD3
:104E200018685968FFF78AFE031E01D0072300E0C7
:104E30000023180013B030BD8071041082B00190BF
:104E4000019B9A68024B1A60C04602B07047C04688
:104E50005C22000800B595B004AB180030231A009E
:104E600000213AF0DFFE0023139304AB1900102059
:104E7000FCF73AFE031E00D099E004AB1B68022B3E
:104E800006D0032B00D189E0012B00D186E07EE023
:104E900000231293002311930023109304AB1B698A
:104EA0001900012039F06EFF03001293129B002BB2
:104EB00002D10523139372E004AB586804AB1B695D
:104EC000129A0021FCF724FF0300109304AB1A6927
:104ED000109B9A4209D0129B18003AF0D7FA354934
:104EE000354B432218002CF057FB04AB1B6A19000A
:104EF000012039F047FF03001193119B002B06D1CD
:104F000005231393129B18003AF0C0FA47E002AB56
:104F1000129A1A6004AB1A6902AB5A606B46119A76
:104F20001A6004AB1A6A6B465A60FEF79FFC0300D6
:104F30001393139B002B08D0129B18003AF0A6FA8B
:104F4000119B18003AF0A2FA29E004AB1800FFF711
:104F500075FF6A4602A801230121FFF768F90300E3
:104F60001393139B002B08D104AB58686B461A6847
:104F70006B465B680021FCF707FF129B18003AF0B4
:104F800085FA119B18003AF081FAC04607E004AB9D
:104F90001B680849094863222CF0FEFAC04604AB9E
:104FA0005B68139A11001800FCF774FF00E0C0461C
:104FB00015B000BDE4710410A0710410C07104109C
:104FC00000B595B006AB180030231A0000213AF066
:104FD00029FE0023139306AB19002020FCF784FD63
:104FE000031E62D106AB1B68022B04D0032B4FD0EB
:104FF000012B4DD045E00023129306AB586806AB59
:105000001B6905AA0021FCF783FE0300129306AB7F
:105010001A69129B9A4205D02549264B8022180016
:105020002CF0BAFA02AB05AA1A6006AB1A6902ABF9
:105030005A606B4604AA1A6006AB1A6A6B465A603D
:10504000FEF714FC03001393139B002B22D106AB35
:105050001800FFF7F3FE6A4602A801230121FFF7BB
:1050600041F903001393139B002B15D106AB58682D
:105070006B461A686B465B680021FCF785FEC046EC
:105080000AE006AB1B680A490B4895222CF084FA0B
:10509000C04602E0C04600E0C04606AB5B68139A1B
:1050A00011001800FCF7F6FE00E0C04615B000BD88
:1050B000FC710410A0710410C071041030B595B0DB
:1050C00004AB180030231A0000213AF0ABFD002396
:1050D000139304AB19004020FCF706FD031E00D01B
:1050E000B2E004AB1B68022B06D0032B00D1A0E07A
:1050F000012B00D19DE095E0002311930023039341
:10510000002312930023109304AB1B69042B03D0DC
:1051100091235B4213938FE004AB586804AB1B6987
:1051200002AA0021FCF7F4FD0300109304AB1A69F6
:10513000109B9A4205D04649464BB82218002CF0E5
:105140002BFA04AB1B6A1900012039F01BFE030087
:105150001193119B002B03D18D235B4213936BE0C2
:1051600004AB5B69002B2FD004AB5B6919000120F5
:1051700039F008FE03001293129B002B07D18D23F8
:105180005B421393119B18003AF080F954E004AB92
:10519000586804AB5B69129A0121FCF7B9FD030062
:1051A000109304AB5A69109B9A420DD0119B1800C2
:1051B0003AF06CF9129B18003AF068F92449254B33
:1051C000CD2218002CF0E8F904AB5969029C04AB1D
:1051D0001B6A119D129803AA019200932B002200D2
:1051E000FEF73EF803001393139B002B06D104AB8C
:1051F0005868039B119A0021FCF7C6FD04AB586860
:1052000003AA04230121FCF7BFFD119B18003AF00B
:105210003DF9129B002B0ED0129B18003AF036F984
:10522000C04608E004AB1B6809490B48E6222CF095
:10523000B3F9C04600E0C04604AB5B68139A1100A6
:105240001800FCF727FE00E0C04615B030BDC04690
:1052500018720410A0710410C071041000B585B05C
:10526000019080231B0619007020FCF7DDFB030072
:105270000393039B1022134001D0FFF7EBFD039B28
:105280002022134001D0FFF79BFE039B40221340D6
:10529000E7D0FFF713FFE4E700B585B00190019B6D
:1052A000002B05D11F49204B762218002CF074F9F1
:1052B0001E4B18002FF006FF0200019BDA61019BD4
:1052C000DB69002B05D11749194B7B2218002CF004
:1052D00063F90023039309E0164A039B5B01D3188B
:1052E0000833019A1A60039B01330393039B022B3B
:1052F000F2D9019B0F4ADA600F4A104B00211800C7
:1053000031F000FC0200019B5A60019B5B68002B9E
:1053100005D104490A4B852218002CF03DF9C046FE
:1053200005B000BD1C730410507204100C730410FF
:105330006C72041038020008140200085D5200105C
:10534000AC72041082B00190019B00229A60019B14
:1053500000229A73C04602B0704782B00190019B50
:105360005A68019B9B68D31A180002B0704700B5B9
:1053700083B001900091019B1800FFF7EEFF010040
:10538000009A002391425B41DBB2180003B000BDDC
:1053900000B585B0039001A801604260009301ABA5
:1053A0005A68009B9A4207D306AB5A6801AB59680A
:1053B000009BCB1A9A4206D9039B00221A60039BDA
:1053C00000225A6014E001AB1A68009BD01806ABAB
:1053D000196806AB5B681A003AF092FB01AB1968DA
:1053E00006AB5A68009BD218039B1960039B5A6056
:1053F000039805B000BD000000B585B0039001AB77
:1054000019605A60039B064A9A81039B1800FFF7B4
:1054100099FF039B01AA03CA03C3C04605B000BDA0
:105420000F0B000000B589B0039001A80160426035
:105430000093039B9B7B002B5DD1039B9B892F4A91
:10544000934203D0039B01229A7355E0039B9A6811
:10545000039B5B689A4203D9039B01229A734BE03A
:1054600001AB5A68039B11001800FFF780FF031E71
:1054700003D1039B01229A733EE0039B9A68009B31
:105480009A4203D2039B01229A7335E0039B1A6868
:10549000009BD3180793039B9A68009BD31A06932B
:1054A00001AB5B68079AD3180593069B002B09D0C4
:1054B000039B1B68002B05D0069A0799059B1800D3
:1054C0003AF060FB039B1A68009BD3180493039B7C
:1054D0001B68002B07D001AB196801AB5A68049B0D
:1054E00018003AF04FFB039B9A6801AB5B68D21837
:1054F000039B9A6000E0C04609B000BD0F0B00009E
:1055000082B001900091009B9B7B002B06D0019BF9
:1055100000221A60019B00225A6016E0009B9B89C2
:105520000B4A934209D0009B01229A73019B0022EF
:105530001A60019B00225A6007E0009B1968009BDB
:105540009A68019B1960019B5A60019802B07047EC
:105550000F0B000086B0039001A801604260009329
:1055600001AB5A68009B9A4206D204AB00221A6033
:1055700004AB00225A6019E001AB1B68002B09D173
:1055800001AB5A68009BD21A04AB0021196004AB2E
:105590005A600BE001AB1A68009BD11801AB5A6846
:1055A000009BD21A04AB196004AB5A60039B04AA97
:1055B00003CA03C3039806B0704782B00190019BF1
:1055C0009B68180002B0704700B587B00390029145
:1055D0000192009304AB029A1A6004AB019A5A60DC
:1055E000009B04AA039811685268FFF71BFFC0468E
:1055F00007B000BD00B585B0039001AB19605A60DB
:10560000039B1800FFF7D9FF030001AA0398116854
:105610005268FFF707FFC04605B000BD82B0019099
:10562000019B9B7B180002B0704782B00190019AE9
:10563000019B80215A50019B80229B5804229A7121
:10564000C04602B0704786B0039001920B236B44B2
:105650000A1C1A7017236B4400221A70039B8022C5
:105660009A58039B78339A4204D117236B44022241
:105670001A7018E0039B80229B5808331A00039B82
:1056800080215A50039B80229B5800229A80039BC2
:1056900080229B58019A1A60039B80229B580B2200
:1056A0006A4412789A7117236B441B78180006B06D
:1056B000704782B00190019B80229B58083B1A00E2
:1056C000019B80215A50C04602B0704782B00190C1
:1056D000019B80229B589B881A000A4B9B1A012B26
:1056E00001DC03230AE0019B80229B58019A802160
:1056F00052589288013292B29A800023180002B068
:105700007047C046FEFF000000B585B00190019BC8
:1057100080229B589B799AB20E236B44033A1A80DD
:10572000019B80229B589A880E236B441B8819008A
:1057300010003EF0D9F803009BB2180005B000BD80
:1057400082B00190019B80229B581B68180002B018
:10575000704782B00190019B80229B589B79180072
:1057600002B0704782B00190019B80229A58019B41
:10577000D31A5A1E9341DBB2180002B0704700B52D
:1057800085B0039001AB19605A60039B98220021F9
:1057900018003AF047FA039801AB19685A68FFF706
:1057A0002BFE039B14331800FFF73FFFC04605B0E4
:1057B00000BD000010B58AB0039001920B236B442A
:1057C0000A1C1A7004AB093309930D9B002B0ED1F0
:1057D0000D9B002B02D10C9B172B08D8019B002B93
:1057E00005D123226A440C9B0D9C137044E02223B4
:1057F0006B4400221A7031E022236B441A781B2379
:105800006B442C498A5C1A700023079313E0099BB0
:10581000013B09930C9B0D9CDAB2099B1A700D9BFE
:105820001B060C9A120A13430C930D9B1B0A0D9333
:10583000079B013307931B236B441A78079B9A42FB
:10584000E5DC1B236B441B78019AD31A01932223B6
:105850006B441A7822236B4401321A700C9B0D9A08
:105860001343C9D1019B002BC6DC23236B442222A6
:105870006A44127817321A70099B013B09930B2373
:105880006B441B785B01DAB223236B441B78D3187B
:10589000DAB2099B1A70039804AB09331A00099B0A
:1058A000D31A1A000E9B0999FFF78EFEC0460AB064
:1058B00010BDC0462C73041010B588B00790049238
:1058C00005931B236B440A1C1A70079B1800FFF7F3
:1058D00074FE02001B236B44197807980292049B04
:1058E000059C009301940022FFF764FFC04608B0B6
:1058F00010BD30B589B0039000920193039B1B7CCF
:10590000002B28D1019B002B0ADA009BDC43019B72
:10591000DD43049405951F236B4401221A7007E0B0
:10592000009B019C049305941F236B4400221A7072
:10593000049B059C1F226A44117803981A002300D7
:10594000FFF7BAFF039B14331800FFF7BFFE0300F5
:105950001A00039B1A74C04609B030BD30B585B03B
:105960000390080069460A604B600B236B44021CDD
:105970001A70039B1B7C002B20D10B236B441B78DC
:10598000092B0CD06B465B681C0000231D000B2309
:105990006B441978039822002B00FFF78DFF0398C2
:1059A0006B4619685A68FFF725FE039B14331800ED
:1059B000FFF78CFE03001A00039B1A74C04605B063
:1059C00030BD10B584B0039000920193009B019C00
:1059D00003981A0023000621FFF76EFFC04604B0AB
:1059E00010BD00B585B001900A006B4603331A70F4
:1059F000019B14331800FFF769FE03001A00019B96
:105A00001A74019B1B7C002B1AD1019B1800FFF715
:105A1000D4FD03000393039B663303D9019B072244
:105A20001A740DE0019B14331800039A6B4603337C
:105A30001B781900FFF707FE03001A00019B1A7478
:105A4000C04605B000BD30B593B00990079223233E
:105A50006B440A1C1A70099B1B7C002B6CD1099BA0
:105A600014331800FFF77EFE031E03D1099B0422A6
:105A70001A7461E0099B14331800FFF76AFE0300F3
:105A80001A0023236B441B78934203D0099B1022F6
:105A90001A7451E0099B14331800FFF751FE0300FC
:105AA0001193099B1800FFF788FD03001093109ACB
:105AB000119BD31A0F9323236B441B78022B06D020
:105AC000099B14331800FFF71FFE030000E00F9B33
:105AD0000E930E9B1C0000231D0023236B4419789A
