:020000041000EA
:100000000000010873BE01100D000000918F011067
:1000100000000000000000000000000000000000E0
:10002000000000000000000000000000C19E011060
:100030000000000000000000459F0110519F0110CA
:10004000CDBE0110CDBE0110CDBE0110CDBE011040
:10005000CDBE0110CDBE0110CDBE0110CDBE011030
:10006000CDBE0110CDBE0110CDBE0110CDBE011020
:10007000CDBE0110CDBE0110CDBE0110CDBE011010
:10008000CDBE0110CDBE0110CDBE0110CDBE011000
:10009000CDBE0110CDBE0110CDBE0110CDBE0110F0
:1000A000CDBE0110CDBE0110CDBE0110CDBE0110E0
:1000B000CDBE0110CDBE0110CDBE0110CDBE0110D0
:1000C00010B5064C2378002B07D1054B002B02D02E
:1000D000044800E000BF0123237010BD381500085C
:1000E0000000000044D10210044B10B5002B03D0D7
:1000F0000349044800E000BF10BDC04600000000F6
:100100003C15000844D10210164B002B00D1144BB3
:100110009D46402292029A1A924600218B460F4633
:100120001348144A121A20F053F80F4B002B00D03A
:1001300098470E4B002B00D0984700200021040068
:100140000D000D48002802D00C4819F06FFA1FF07E
:1001500023FC2000290019F09BFD19F09FFBC046ED
:10016000000008000000010800000000F19B0110E1
:10017000381500080CB700082D960110000000008B
:1001800010B5041E04D17B220F49104819F07EF9E6
:100190000F481AF005FFE061002810D00D4B0E4A01
:1001A0009C629C649C60E36000210C481BF032FD63
:1001B0006060002807D18A2203490948E6E78022C7
:1001C00001490848E2E710BD986702101468021060
:1001D000B4680210C4000008C4680210E9240010CA
:1001E0006F6802102F68021010B5041E05D19E2200
:1001F00013491448520019F049F913481AF0D0FE77
:10020000E061002804D142220D49FF320F48F2E795
:100210000F4B0022190001329C6020330B2AFAD1C7
:10022000E1600C4A00210C481BF0F4FC60600028DF
:1002300004D14C220249FF320848DCE710BDC04619
:10024000A8670210146802107C690210F868021096
:10025000240100088C6902109531001038690210E1
:1002600010B5041E05D1CD2211491248520019F0D3
:100270000DF911481AF094FEE061002811D00F4BDF
:100280000F4A9C629C649C60E36000210D481BF057
:10029000C1FC6060002809D1AA220549FF320A4842
:1002A000E5E7A0220249FF320848E0E710BDC0465A
:1002B000B867021014680210FC6A0210D803000824
:1002C0000C6B02100D440010BA6A02107C6A021016
:1002D00010B5041E04D1134A1349144819F0D6F876
:1002E00013481AF05DFEE061002814D0114B002184
:1002F0001A00883214609C629C649C669C60E36077
:100300000D4A0E481BF086FC6060002808D10C4A9C
:1003100005490C48E2E78422034992000A48DDE7D8
:1003200010BDC0460B020000C66702101468021020
:10033000446A021038030008546A02107D4C001011
:100340001A020000056A0210CC69021010B5041EE2
:1003500005D1FF220F491048920019F097F80F4875
:100360001AF01EFEE06100280ED00D4B0D4A9C6075
:10037000E36000210C481BF04DFC6060002807D1B1
:100380000A4A04490A48E8E70A4A02490A48E4E7EF
:1003900010BDC046CF67021014680210C46B021073
:1003A00038040008D46B0210150400100B04000080
:1003B000776B021001040000306B021070B5041E50
:1003C00004D10C4A0C490D4819F060F80C4D280076
:1003D000FFF7D6FE0B48FFF707FF0B48FFF740FF7C
:1003E0000A48FFF775FF0A48FFF7B0FF25600520B0
:1003F00070BDC04696040000E6670210B0690210A6
:1004000084020008A8020008CC020008F0020008DC
:1004100014030008F0B591B03022002104A81FF0A9
:10042000D7FE80211020090600F048FC10220300AE
:10043000104204D146494748213219F027F804A94F
:10044000102000F05DFC0028EBD1059B0293002BEF
:1004500006D0069B5A1C03D03B223D493E48ECE7A0
:10046000049B022B1CD0032B01D0012B6BD10C9BC6
:1004700002930D9B0393039A029B13430E9A13431B
:100480000F9A1343089A1343099A13430A9A134382
:100490000B9A0292134351D06D222D492F4815E03B
:1004A000089B0293099B0393039A029B94460A9A22
:1004B00063449B180B9A9B180292162B03D10C9B3A
:1004C0000293142B04D045222149254818F0DEFF61
:1004D0001E201FF08BFA051E03D14B221C49214818
:1004E000F4E71E2200211FF073FE2F00002604AC4B
:1004F00023693A003100059800F05CFD23698342CE
:1005000005D0009053221249174818F0BFFF01365A
:10051000FF180434032EEBD12900144820F026F9EB
:10052000011E03D05B220A491148CFE705980A2330
:10053000104A00F05FFD28001FF062FA00210598C4
:1005400000F0A4FD6DE7732201490B4875E7C04632
:10055000A06C0210B06C0210DA6C0210BC6D0210BC
:10056000146D0210546D0210756D0210806C021033
:100570009A6D0210966C0210066E0210F0B587B0EC
:1005800006000291039200F0CBFA002826D00368FF
:1005900000930121300018F013FE071EF9D000254A
:1005A00073880020AB4217D92B012C040193736888
:1005B0002A013C43059005A99818220018F046FE30
:1005C00000280ED020007368019A9B18029ADA6006
:1005D000009A5A60039A9A6007B0F0BD01235B420B
:1005E000D6E70135DCE7000037B5428805000B0C83
:1005F0009A4205D8009215496822154818F046FF1E
:100600001C0143681B598B4205D00B006C220F491B
:10061000104818F03BFF00F083FA00280DD0026864
:100620006B681B19596891420AD09968914207D0AA
:1006300076220649084818F029FF01225242EFE7C6
:1006400000225A609A601A6037BDC0462A6E0210B6
:10065000626E0210B06E0210EC6E021037B505002B
:10066000002904D184221749174818F00FFF428847
:100670000B0C9A4205D8009212498A22134818F0AE
:1006800005FF1C0143681B598B4205D00B008E22CD
:100690000C490F4818F0FAFE00F042FA00280CD07E
:1006A00002686B681C196368934209D0A36893427F
:1006B00006D0982203490748D7E701225242F0E7C3
:1006C000E0683EBD466E0210286F0210626E021096
:1006D000B06E0210656F0210F0B5002106000D4BE0
:1006E0005D681B680C338D4201D1002010E00022B0
:1006F0005F68BA4202D101312433F4E7186854012B
:1007000000190468A64201D00132F2E70028F2D0B5
:10071000F0BDC0468804000870B50D00012104003A
:1007200083684942D8691AF051FCE369002B0BD168
:10073000A561A368E561616858681BF095FAA36834
:10074000D8691AF059FC70BD1D61F2E7F0B585B0AB
:1007500005000E00FFF7C0FF041E05D12B00742218
:100760003A493B4818F092FE0369002B0ED13268DB
:10077000C1688A4210D90293E3687A220193236800
:10078000324900933348336818F080FE012B03D1BF
:100790003268C1688A42EED100F0C2F9071E07D163
:1007A000237D002B1ED1236838222B492B48D9E703
:1007B000416900290BD000228069236882420BD155
:1007C0003A68254900922648462218F05FFE0368E1
:1007D0003D2221492348C5E795004D599D4201D04E
:1007E0000132EBE73A000C21300000F0B1F90028AB
:1007F00004D1812215491C4818F048FE1B4B0021EA
:10080000986919F04FFF051E0BD1194BB068736042
:10081000002F03D01AF05AFD05B0F0BD00F04AFDDC
:10082000FAE7A36801001A681248FFF7A7FE002341
:10083000114A706029002F606C60EE60AB602B6124
:10084000AA82AB752000FFF767FFE5E7D36F0210C0
:10085000EC7002100A710210B36F0210677102107F
:10086000D67102109F7102101672021088040008DF
:10087000010000809004000801020000F0B510247F
:100880008DB004AD0F0022000021060028001FF0EB
:100890009FFC002108AA0120089109910A950B9458
:1008A000019702911AF0D6FC0390002804D1B722D8
:1008B00009490A4818F0EAFD01A93000FFF746FF90
:1008C0000121039849421AF0DBFC03981AF032FD2B
:1008D00002980DB0F0BDC046E56F0210B470021072
:1008E00070B50D0001001848FFF7B8FE182104008C
:1008F0000268280000F02CF9002804D1CE22134908
:10090000134818F0C3FDA37D012B0CD180231B06D7
:100910002B6123686869002B02D100F0CBFC70BD0D
:100920001AF0D4FCFBE7200004221530032100F06C
:10093000CFF802232375E5600FCD00F0AFF821005A
:100940006068FFF7E9FEEAE790040008F16F021023
:1009500023700210F0B5102491B00F001600002192
:100960002200050002A801931FF032FC002102AB17
:100970000893019B06AA0C93169B012006910791F0
:1009800009940A970B960D930E911AF063FC0F9041
:10099000002805D183220A4952000A4818F076FD42
:1009A0000AA92800FFF79CFF01210F9849421AF07D
:1009B00067FC0F981AF0BEFC0E9811B0F0BDC0464F
:1009C00000700210B470021070B50D0001000F48E5
:1009D000FFF744FE082104000268280000F0B8F880
:1009E000002805D18F220A4952000A4818F04EFD0E
:1009F00020000321153000F083F80323E560237500
:100A000021006068FFF788FE70BDC04690040008B2
:100A1000097002108670021070B504008AB00028B8
:100A200025D0102502AE2A00002130001FF0D0FB97
:100A3000002106AA012006910791089609950094C5
:100A40001AF008FC0190002805D1A12209495200A2
:100A5000094818F01BFD69462000FFF7B5FF01218A
:100A6000019849421AF00CFC01981AF063FC0AB094
:100A700070BDC046197002105070021010B5FFF71B
:100A80002BFE041E01D1002010BD00F049F8002803
:100A900002D1237D002BF6D0E068F5E71FB50028D2
:100AA00001D1002906D1002A01D1002B02D1CC1896
:100AB000042C08D9029301920091030026220249D6
:100AC000024818F0E3FC1FBD46720210CB72021000
:100AD00030B50F2485B06C440D002170210018F052
:100AE000A1FB002806D123782F2200950249034854
:100AF00018F0CCFC05B030BD557202107F720210A8
:100B000007B50378DBB2994205D00091382202493B
:100B1000024818F0BBFC07BD6A7202107F72021017
:100B200070B51BF08DF80022084B5C681B6894427E
:100B300002D10021080070BD190024331D00203DA2
:100B40002D688542F6D00132F1E7C04688040008DE
:100B500010B5031E12D0012300290FD041184C1EDE
:100B60000023A0420AD89A4215D1134B134CC31844
:100B7000A34205D8124B8B425241D3B2180010BD8C
:100B8000104B114CC0181300A042F7D80F4A8A42EC
:100B90005B41DBB2F2E7F8220D4C1206821800230B
:100BA000A24201D80B4AF2E7F022120680180A4A44
:100BB0009042E3D8094AEAE70000FFF7FF74030018
:100BC000007504080000FCEFFF7F0B0000800F1091
:100BD000FFFF000000000108FFFF030000000410F9
:100BE00010B51BF053FC0E4A18210A2019F044FDE1
:100BF0000C4CA061002803D10B490C4818F046FCAE
:100C00000B4A28210A2019F037FDE061002802D1A3
:100C100005490848F2E72000FFF7D0FB606010BDEF
:100C200070040008880400081F7302102C7302105F
:100C3000580400085873021010B5024B186800F0F1
:100C4000CFFBFAE7A8040008F7B50C00010018482C
:100C500017000193FFF702FD06000068052115301B
:100C6000FFF74EFF032C05D934221249FF321248F8
:100C700018F00CFC731DDB7F0025A34215D9E4009E
:100C80003619B568019B9D4200D91D00002D0CD07E
:100C9000002F04D02A00716838001FF0EFF9736844
:100CA0005B197360B3685B1BB3602800FEBDC04670
:100CB00098040008F97302107A77021037B504001F
:100CC0000D00FFF72DFF836808201843631C0AD02E
:100CD0002300834306D000902300DB220649074807
:100CE00018F0D4FB2000EA1702211BF017F8831C30
:100CF00000D100203EBDC046E8730210E676021027
:100D0000F0B593B00F000400FFF70AFF3021060092
:100D100002003800FFF71CFF002804D1F22294499A
:100D2000944818F0B3FB3022002138001FF050FA2D
:100D3000B268002C04D0651E254001D1224206D1A4
:100D400000922300FE228A498B4818F09FFB1AF07C
:100D5000D5FF20420AD02B00326993420BD1842266
:100D6000230083498548520018F090FB04228049F3
:100D7000FF328348D5E7F1685D014D1969688C42FF
:100D800001D00133E9E7002DE9D00121AB684942E8
:100D9000D8691AF01BF9AC69002C03D1B922794942
:100DA0007948BEE700222369AB612261934203D1F7
:100DB000EB6168681AF08CFFAB68D8691AF01CF90F
:100DC0002000237D1530022B09D0032B21D00221D6
:100DD000012B1FD09222664952006C48C4E70522BD
:100DE0000421FFF775FE2822002108A81FF0F0F962
:100DF0000022237D0792022B00D089E0226818216F
:100E0000E068FFF7A5FE002807D15B226049614832
:100E100087E71900FFF774FEE5E7E3685E681D6881
:100E20009A68DB683100280004930692FFF736FECB
:100E3000F3B20793002E29D1049B002B68D0049BAA
:100E40002268D9000698FFF783FE002853D008AB2C
:100E5000F6009E190023069D03936B689C46002BA9
:100E60004DD02A00331D03CA03C3039B61469A0079
:100E70003B002033995070682268FFF769FE002814
:100E80003DD1039B9422424943486DE7F10022681B
:100E90002800FFF75DFE00281ED008AB0593002355
:100EA00003936B689C46002B1AD02A00059B0433E1
:100EB00003CA03C3039B61469A003B001033995059
:100EC000059B22685868FFF743FE002808D1039B62
:100ED0007C222F49314847E76B222D49304820E7D3
:100EE000039B083501330393059B08330593039B4C
:100EF0009E42D6D1A0E7832225492A4811E7039BC9
:100F0000083501330393039A049B08369342A4D116
:100F10000121254B4942D86919F0C4FB011E03D1B8
:100F20009D221B492148FCE60D2306AA9B18079A1F
:100F30000894DA77020008AB61CB61C261CB61C271
:100F400061CB61C21B681A4813600022FFF716FBD1
:100F5000237D3B60A3687860FB602368002B04D08E
:100F60001B680020BB6013B0F0BD01235B42F8E7B3
:100F7000F1730210237402103F740210A774021060
:100F80008B740210CA730210F674021016750210E8
:100F9000B673021048750210D07502108C750210DD
:100FA0006D750210B075021088040008F575021006
:100FB00098040008F8B514000F001D000600FFF7A4
:100FC000AFFD290002002000FFF7C2FD002805D177
:100FD00052220649FF32064818F058FA2B00390011
:100FE00030002200FFF730FEF8BDC0460674021044
:100FF0001E760210F7B507000C0016001D1E3AD031
:10100000FFF78EFD290002003000FFF7A1FD002848
:1010100005D1B32218491948520018F037FA39009F
:101020001748FFF71BFB0700006805211530FFF785
:1010300067FD7B1DD97F0C19032C04D970220E4942
:10104000FF321048E9E7E4003C19A368AB4207D23D
:10105000BA22009352002B0007490B4818F016FAE9
:101060002A00310060681FF009F863685B1963604B
:10107000A3685D1BA560F7BD0F7402101E760210F9
:1010800098040008207702103B770210F7B507009C
:101090000D0001004348FFF7E1FA0600046839003B
:1010A0004048FFF7A1FA2822002130001FF090F8F5
:1010B0003D4F3100F86919F015FB20002368153009
:1010C0000193237D022B36D0032B4DD0012B60D111
:1010D000364B002D08D09D4206D0CB222B00344940
:1010E0003448520018F0D2F9E668B26800929D4286
:1010F00017D10221FFF704FD71682F48FFF774FA3A
:101100001822002120001FF063F82100B86919F0AF
:10111000E9FA7560019B0098002B3FD100F0CAF8F6
:10112000F7BD03220221FFF7D3FC002CF2D00023ED
:10113000E3602375EEE7214BEB187E2B05D8B82230
:101140002B00FF321A491E48CCE703220521FFF786
:10115000BFFC80231B069D4201D10123A375E368D8
:101160001D615B690093E0E7E56819006A68009219
:101170000122FFF7ADFC29680F48FFF735FA182266
:10118000002120001FF024F82100B86919F0AAFA04
:10119000C0E7F022064952000A48A3E71AF096F881
:1011A000BEE7C046980400088804000801000080DB
:1011B000197402103D76021090040008FFFFFF7FB3
:1011C00078760210B076021010B50C0001000348CA
:1011D000FFF744FA03689C6010BDC04698040008FD
:1011E000054B10B51B6858691AF070F8034B1B6863
:1011F00018691AF06BF810BDAC040008A8040008C8
:1012000010B51BF0E3F910BD10B51BF0DFF910BDF0
:10121000F0B53C2695B01D4C3822002106A81EF0E2
:10122000D7FF1B4D1B4B320005A9200005931EF074
:1012300025FF320005A928001EF020FF164B02A949
:101240000C2216480293039404951EF017FF1448CD
:1012500019F0A6FE134A06000021012019F0FAFF3A
:10126000114A07000021012019F0F4FF01900F48F6
:101270003B0032002900006800F062F80C4B019A34
:101280002100186800F06AF815B0F0BD0C7504086C
:10129000487504080C4A2863779A333D00750408A2
:1012A000B4770210A4770210C4770210AC040008CF
:1012B000A80400081FB504000C22002101A81EF09C
:1012C00087FF0021034822000B000068029400F011
:1012D00051F81FBDAC04000830B585B0019001384D
:1012E0000C00029115000392032806D823F0BCF8E5
:1012F00002070B0F1000FFF729FA05B030BD1000F0
:10130000FFF7EEFAF9E71000FFF75EFBF5E70022C2
:1013100008212000FFF71CFC002804D16C2206499C
:10132000064818F0B3F82800FFF7A8FB20606068B3
:10133000FFF7C0FFE1E7C04694770210487502103E
:1013400010B5054C026104600C1D44600C3104347E
:101350008460C160436110BDFFD948A2044B0261A3
:1013600003600B1D43600C3104338360C160704720
:1013700042658BA6F0B585B00191012101AC050055
:1013800049420069FA276260A360032619F01EFE35
:101390007F00AA6869681368086801338C46334087
:1013A000834218D00C2310684343E868C31883CCE9
:1013B00083C3136801333340136063461B681268AC
:1013C00001333340934201D1FFF71AFF286919F026
:1013D00013FE05B0F0BD3900686919F051FFD8E778
:1013E000FA21F0B54900050085B0006919F048FF01
:1013F000AB686A689C4610681B68984201D105B0CA
:10140000F0BD0C211368E8684B4301ACC318200001
:10141000C2CBC2C00321136801330B401360634683
:101420001B68126802330B40934201D1FFF7ECFEB8
:1014300007CCFFF751FFDBE7F0B5214B85B01B6808
:1014400003900E0001920020012B08D01D4D1E4A72
:101450006B7829781B020B43934202D0012005B020
:10146000F0BD019A032AF9D933800423E978AA78D8
:101470000902114302912C1D7380F718029BEB188F
:101480009C4216D22388039A1B0B93420ED162888A
:10149000738801999B188B42E0D8380021001EF018
:1014A000EDFD63887288FF189B1873806388002B9A
:1014B00004D10122024B00201A60D0E7E418DDE7D6
:1014C000A88900082878021016200000F0B51E2513
:1014D00089B0059300230F9F6D4404920E9E2B80CC
:1014E00006243F2F1BD92A001121012001F0C8FB3F
:1014F0000534002813D1109B2888043302930197E8
:101500000096059B049A094901F078FB002809D050
:10151000288801F0D5FB0A3C288801F0D1FB200087
:1015200009B0F0BD109B04001E60F5E7090007102C
:10153000F0B50F25A7B01E002C9B182201932D9B00
:10154000002102932E9B08A800932F9B03931EF06B
:101550003FFE602200210EA81EF03AFE04ABED18FB
:101560002B0008AA60210EA800F06EF8041E02D01D
:10157000072027B0F0BD0A990029F9D00C9F002F51
:10158000F6D02B7833600B9E029B9E42F0D832003F
:1015900001981EF073FD0D9D039B9D42E8D82A0023
:1015A000390000981EF06AFD019A309B200044C368
:1015B000319B009A24C3DCE770B50C00061D0021A6
:1015C0000500042230001EF003FE0A4B3000E41830
:1015D00061426141072349421940074BC91801F094
:1015E000A7FA002801D1286070BD8630431E9841BB
:1015F0000330F9E7401901000200000113B5036848
:10160000040000910192002B05D1002903D0043081
:1016100001F0B8FA206013BD37B51C0003680091D3
:101620000192002B0DD1231D04300D0001F0C7FAEB
:10163000002803D10300256018003EBD05238A3031
:10164000FAD00423F8E70000F0B589B00093002336
:10165000150004AA961C0290320011210120079364
:10166000338001F00DFB012400280BD1308806AA3D
:1016700005A901F073FB33880193002805D01800F9
:1016800001F01EFB200009B0F0BD059B394A19008E
:1016900003921140384A914201D00198F0E7374A4D
:1016A000069C1340364A934217D1E40810342000B8
:1016B0001EF09CF9071E01980BD007AB22003900E1
:1016C000019801F06DFB002814D038001EF098F945
:1016D000308801F0F5FA0124D4E72A4A934204D174
:1016E0000323E4085C434A34E1E70734E408640078
:1016F0000134DCE70598039B1F4A03409342E4D181
:1017000080B217380728E0D822F0A4FE042022DF98
:10171000DFDF24260123009A1370079B5A1E002343
:10172000012A1BD95208781CC15C029CE154013388
:101730009342F9D10023AC60EA60A1188018C45C20
:10174000CC5401339342FAD129610AE00223E2E743
:101750000323E0E70423DEE70523DCE7AB60EB606F
:101760002B616B6138001EF04BF9308801F0A8FA4C
:10177000002487E70000FFEF00000360FFFFFFEF9A
:101780000000016000000260024B1B680360002043
:101790007047C046AC8B000803207047F0B589B095
:1017A00002AB01249D1D0023070001910C702A004B
:1017B000112120002B800693079301F061FA002885
:1017C0004BD1288805AA04A901F0C8FA002840D105
:1017D000049B264A26491A408A423AD1254A059C4A
:1017E0001340254A934227D1E408103420001EF00C
:1017F000FDF8061E2DD0288806AB2200310001F02E
:10180000CFFA00282FD11D4907A801F091F900282F
:1018100029D1069A310007A801F0B4F901993B00DB
:101820000131202207A801F0CAF90400601E84419A
:1018300030001EF0E5F80DE0114A934204D1032375
:10184000E4085C434A34D1E70734E4086400013417
:10185000CCE70124288801F033FA20003B680133EB
:101860003B6009B0F0BD0124E2E7C0460000FFEF95
:1018700000000360FFFFFFEF0000016009000001AE
:1018800000000260032070470B0010B50268034996
:1018900018001EF0F3FB002010BDC04605780210B2
:1018A00010B502F04BFDC02203009201904209D016
:1018B0000AD880225201904204D0802292019342A1
:1018C00000D00023180010BDA022D2019042F9D010
:1018D000C022D2019042F5D08022D201EFE7000071
:1018E0000C23036000487047F87702100D23036053
:1018F00000487047EA77021048424841800070472C
:10190000F0B50E258BB0039302ABED1802900023C7
:1019100001200F00160011212A0028800893099346
:1019200001F08EF9041E1AD1364A374908A801F091
:10193000DDF9288808A901F0DBF9041E0FD1334A2C
:10194000330C1B04934259D1029B2888002B2FD0C3
:10195000202F07D087246442288801F0B1F92000A5
:101960000BB0F0BD3B00029A310001F0DDF9041E1E
:10197000F2D1288806AA07A901F0F0F9041EEBD1DC
:10198000C0228021079BD2051A40C9058A4217D17F
:10199000069BDE1DF6082888119B109A039901F01A
:1019A000FFF9041ED8D1119B1B68B342D4D9D1E7EB
:1019B0008022009423005200310001F00FFAD6E794
:1019C000134A14491A408A4203D1069BDE08103696
:1019D000E1E711498A4205D10326069BDB085E43F5
:1019E0004A36D8E70D4A060013400D4A9342D2D139
:1019F000069BDE1DF60876000136CCE7872464429C
:101A0000ADE7C04609000710010C0000000003709C
:101A1000FFFFFFEF00000160000002600000FFEF29
:101A200000000360F7B51600020005001F00089BC8
:101A300098320C001160566006CB00F061FF280060
:101A4000E10FA030009533003A0000F03FFB041E88
:101A500004D0033C60424441E01CFEBD022128004A
:101A600000F09CFF2800052100F098FF2000F4E71B
:101A70007047D0B516001F000400CB170A0000F015
:101A800054FF32003B00200000F04FFFD0BD73B583
:101A9000050016685468CB170A0000F046FF3200B4
:101AA00028002300022100F054FF73BD73B5050028
:101AB00016685468CB170A0000F037FF3200280080
:101AC0002300032100F045FF73BD7FB5060000220F
:101AD0000D00052100F083FF6A460221300000F06E
:101AE0007EFF30000099A030019A00F0F3FB00283F
:101AF00005D0033843425841033004B070BD02ACF6
:101B00002100300000F0B8FF03000128F5D00220CA
:101B1000002BF2D106CC06C51800EEE7030000202A
:101B2000242B05D005D8203B1800431E9841800087
:101B300070470020302BFBD0403BF5E710B51EF07E
:101B40009DFA10BDF0B51D0087B0184B02910190B1
:101B500003925A882968D3180093154C002907D09E
:101B600005AC20000422FFF7E9FF64882B681C19EC
:101B70003F27009BA34201D8002013E005AE0422BA
:101B800021003000FFF7DAFF338801989A113A40BC
:101B90007188824208D101201F40029B1F70039B65
:101BA0002C60198007B0F0BD6418E2E7AC8900082A
:101BB000B08900080023F7B506000F001500136078
:101BC0000A4A0B4B12889A420DD16B46DC1D3A0033
:101BD0002B0021000020FFF7B5FF012802D1237858
:101BE000B342EDD1FEBD01204042FBE7AC890008C5
:101BF0001620000037B51400022907D004290ED0A2
:101C0000012912D10378236000203EBD6B469D1D43
:101C10000A0001002800FFF791FF2B88F3E70A0074
:101C200001002000FFF78AFFEEE701204042ECE7C9
:101C300037B513000400092927D8080022F014FC46
:101C40001012142325252525050B02212000FFF75E
:101C50001EFF00203EBD06212000FFF727FFF8E70A
:101C60000421F9E70521F1E701AA03CBFFF7C2FF41
:101C700005000520002DEDD1019A2B000321200045
:101C8000FFF7F7FEE5E70121E6E70520E2E70000C0
:101C9000F0B54368CDB0060005920025242B03D192
:101CA00003681D6A202343600722072300912A400E
:101CB0005B4229001AA8FFF7B5FE002806D00225CE
:101CC000012800D0052528004DB0F0BD3200C649DE
:101CD0001AA8FFF7DCFE8023DB051D4000D066E17B
:101CE000082229000FA80DAE1EF072FA0EAA3100CC
:101CF00028000E95FFF75EFF012800D00BE10E9B38
:101D000004330F933388043B0FAAB8491AA81093E1
:101D1000FFF7BDFE0FA8FFF7E3FD11AE11900028FD
:101D200006D00F9B3200B2491AA87360FFF7BEFEBF
:101D30000FA8FFF7DBFD1190002806D00F9B3200A3
:101D4000AC491AA87360FFF7B1FE212331000EA839
:101D50000E93FFF723FD0325071EB4D10E9B0FAA98
:101D6000A5491AA810930F96FFF791FE1223082297
:101D700039000FA80CAD0D931EF02AFA0EAA290007
:101D800001200E97FFF716FF012800D0CFE00E9B31
:101D900004330F932B88043B0FAA98491AA8109379
:101DA000FFF784FE202311AE0EAF310038000E93F2
:101DB000FFF76AFD0325002800D084E70E9B0FAAD9
:101DC0008F491AA810930F96FFF761FE3000FFF7B6
:101DD000DBFC051E00D076E7119B119A89491AA8F1
:101DE000DB17FFF746FE3200390002201195FFF79E
:101DF000E1FE012800D0A5E03988119B0439181DA7
:101E00000FAAFFF7F7FE002800D05BE70F9B9AB2FE
:101E1000C023DB019A4200D954E700237A491AA86B
:101E2000FFF727FE01230024029300230A93774B38
:101E3000774A1B88934275D112226B4604A9521827
:101E40000F211B7A04A8049309180AAB0498FFF722
:101E500079FE431C66D0012800D09BE00134012CA0
:101E60000CD11AA8FFF704FE01236A4A5B420390D3
:101E700000F05BFD0421039800F090FD3F270A9BD2
:101E80000BAD1900042228000C93FFF757FE6A8857
:101E900009AB1A802B8808AA3B401AA81370FFF7D9
:101EA000E7FD05210500002600F078FD08AB197854
:101EB000CB0800D184E0002E58D10C9B0DAE190048
:101EC000042230000E93FFF739FE1623728804A90E
:101ED0005B181A801122338852183B401AA81370DD
:101EE000FFF7C6FD112304AA9B181978CB082DD142
:101EF000464B474A1B88934237D1162204A95218F1
:101F0000112104A809180EAB0498FFF71BFE01303D
:101F10000128E7D829E011AD29002020FFF73CFC7B
:101F2000002801D00325CEE60F952023ECE63100F2
:101F30000DA8FFF7A7FC0325002800D0C3E60F96E5
:101F40000D9B29E7FFF7ACFC020061E70E9B04AA9A
:101F50000433119316239B181B8811AA043B1AA85B
:101F60001293FFF765FE0028C2D00126274B284AAE
:101F70001B8893420ED109AA0CAB08A90498FFF75D
:101F8000E1FD0200431C05D000288FD10521280067
:101F900000F025FD029B01330293072B00D044E79C
:101FA000002C19D000220421039800F018FD059997
:101FB0001AA8FFF78AFD0025A84200D183E67EE635
:101FC0000C9B0FAA04330F9309AB1B881AA8043B80
:101FD0001093FFF72DFEC9E7012200230E491AA82E
:101FE000FFF747FDE3E7C04600DBFEFF04DBFEFF33
:101FF000FEDAFEFF08DBFEFFFFDAFEFF03DBFEFF7B
:1020000005DBFEFF07DBFEFF06DBFEFFAC890008F9
:102010001620000002DBFEFF01DBFEFF802210B570
:10202000920002490120FFF707FA10BDAC890008B1
:1020300070B5136886B04568066802935368280037
:102040001400009601950393FFF768FD002818D14E
:10205000012229003000FFF74FFC002811D1022295
:1020600003990298FFF748FC00280AD104AA02A9A4
:102070006846FFF70DFE002803D1049B2360059BF3
:10208000636006B070BD0000002110B5036886B023
:102090001B6814680091029152680B4901930391E7
:1020A0000420032A0DD91800FFF738FD002808D1B5
:1020B00004AA02A96846FFF7EBFD002801D1059BA1
:1020C000236006B010BDC046FFFFFF7FF3B50600DA
:1020D000FFB010001F000D00079200F059F97B4B74
:1020E0000124984266D0079BF761B3613319DD770D
:1020F000869B7362002D60D020211FA811AA159025
:10210000169100F0CBF9041E54D1002312228698B8
:1021100000F03FFC0421869800F040FC10223AAD0C
:10212000310028001892179600F0EAFB05212800DC
:1021300000F034FC01220023280000F0F6FB079B8E
:10214000079ADB17280000F0F0FB05212800220089
:1021500000F045FC27A9280000F08EFC002800D0E4
:10216000B0E0279B289A33617261002B22D03300A4
:102170002A00103303CB03C202216B683A9A869877
:1021800000F0E7FB119E129D0521869800F006FCE9
:1021900004220023869800F0C8FB320002218698B2
:1021A0002B003A963B9500F0D4FB0022052186983F
:1021B00000F015FC20007FB0F6BD202127AB09936D
:1021C0004B230C910E9111A91FA8059117AA0FA9D5
:1021D0000A930B920D900491139514950DAA02A9E0
:1021E00011CA11C16A460BAB03CB03C208AB29006D
:1021F0002A003800FFF79CF9041EDBD10A9A0999DE
:102200003AA800F07DFB05213AA800F0C7FB0122A7
:1022100000233AA800F089FB022200233AA800F02C
:1022200084FB089D01225242D317EF173AA800F011
:102230007CFB2A003B003AA800F077FB0F9F109D23
:1022400002225242D3173AA800F06FFB2B003A004B
:1022500002213AA81597169500F07BFB119F129D5D
:1022600003225242D3173AA800F05FFB2B003A003A
:1022700002213AA81597169500F06BFB2200052164
:102280003AA800F0ACFB15A93AA800F0F5FB02341F
:10229000002800D08EE71FAB179320230C493AA8E3
:1022A0001893FFF789F9041E00D083E71599169A51
:1022B0003AA8FFF7A3F911AB1799189A3AA8FFF7B4
:1022C000ABF920E7220023004DE7C046FFFFFF7F68
:1022D000C0E6FEFFF0B5ABB007921AAA0C924025FB
:1022E0002022040006910CAF12A90F927D600E917E
:1022F00006AB02A8944644CB44C023006846103382
:1023000044CB44C008AB6246A06900F04FF8061EFB
:102310002CD1631CDB7F002B2BD00700089B05937F
:10232000099B04931AABD819049B2A009D4200D93B
:102330001A0005991DF0A2FE049BFF18ED1A3F2F0D
:10234000F0D91AAB0A9340230B93656A08220AA9B5
:1023500010A81DF093FE109A02212800119B00F096
:10236000F8FA00220421606A00F039FB30002BB03B
:10237000F0BD0AAB02936B4606CF06C3089A099BD1
:10238000E169A069FFF7A2F80028DED00600EDE7BA
:10239000073043425841034B40421840024BC0189B
:1023A0007047C046C1E6FE7FFFFFFF7FF3B5FFB079
:1023B000029103920BA92122050014A8019300F0B9
:1023C0009FFA042114A800F0E9FA0A23304A0321F5
:1023D00014A83AAE3A923B9300F0BBFA33000024C3
:1023E00086AF06CF06C314A83A9A879B022100F055
:1023F000B0FA22002300022114A83A943B9400F082
:10240000A8FA22002300022114A83A943B9400F079
:10241000A0FA23002200022114A83A943B9400F071
:1024200098FA2200042114A800F0D9FA07A914A8E8
:1024300000F022FB03001420A34222D10735694299
:102440006941144D4942144B2940C9183000FFF727
:10245000B3F8A04215D108998A1E914213D209906F
:102460000A9009990A9A3000FFF7C8F888997A68A3
:102470003000FFF7C3F8019B0299039A3000FFF781
:10248000CBF87FB0F6BD079B0A920993E9E7C046F7
:10249000F4780210C1E6FE7FFFFFFF7F70B52024B5
:1024A00092B00AAE0290039115000E49220030004E
:1024B0001DF0E4FD6A460994089608AB03CB03C2FD
:1024C00004AC039A02992000002300F04DF9230088
:1024D00006CB06C5236807205A4253415B42184089
:1024E00012B070BDD4780210F0B597B08021702082
:1024F0000906FEF7E3FB10230700184215D030222F
:1025000000210AA81DF064FE0AA91020FEF7F8FBBE
:10251000061E0AD10A9B022B21D0032B01D0012BCE
:1025200066D131000B98FEF7B1FD2024274200D17F
:1025300090E0302200210AA81DF04AFE0AA92000DE
:10254000FEF7DEFB011E00D084E00A9B022B54D074
:10255000032B02D0012B00D095E00C0076E00E9DFD
:10256000012029001CF09EFE041E1DD002002B003D
:1025700031000B98FEF71EFD0E9B02900393039A09
:10258000904207D020001DF03BFA44227049714868
:1025900016F07CFF129E012031001CF083FE051E08
:1025A00004D120001DF02CFA0526BAE7029B0996FB
:1025B000069407930890FFF731FD061E06D0200011
:1025C0001DF01EFA28001DF01BFAAAE7624B0C9AB8
:1025D00006A81A60012308AA1900FFF729FD061EA4
:1025E000EDD10100099B089A0B98FEF703FDE6E781
:1025F00064225749594816F049FF04AD0E9B2A0042
:102600000B98FEF7D7FC0E9B0293984202D08122D2
:102610005349BCE705AB0893129B069507900293BC
:102620000993FFF7FBFC041E10D14B4B0C9A06A834
:102630001A60012308AA1900FFF726FD041E05D120
:102640000100099B089A0B98FEF7D4FC21000B9817
:10265000FEF71CFD4024274200D147E7302200212D
:102660000AA81DF0B5FD0AA92000FEF749FB011ECE
:1026700000D03BE70A9B022B08D0032B01D0012B93
:1026800063D10C005CE096223549B3E70E9B0690BF
:102690008724042B1ED108AA0B98FEF78BFC0E9BF7
:1026A0000293984202D0B9222E4970E71299012074
:1026B0001CF0F8FD051E0CD00F9C002C1ED0210034
:1026C00001201CF0EFFD0700061E05D128001DF0BB
:1026D00097F98D24644233E02300020001210B9816
:1026E000FEF768FC0F9B0293984208D028001DF06B
:1026F00087F938001DF084F9CE22D5E72600129B19
:1027000006AF0293009301972B00089A0F993000AF
:10271000FFF7F6F8041E05D10100069B2A000B986E
:10272000FEF768FC0B9804233A000121FEF762FCD7
:1027300028001DF065F9002E02D030001DF060F970
:1027400021000B98FEF7A2FCD0E6E722054951E7ED
:10275000FF78021044790210AC8B000864790210F3
:10276000147902102E790210F7B5050000911C00B3
:10277000934203D8099ED21AB24204D200232B609E
:102780006B602800FEBD009F3200F8180899A4195C
:102790001DF074FC2F606C60F3E7000082B06B46A4
:1027A0005A60054A0091828100228260827306CBC2
:1027B00006C002B07047C0460F0B000073B5009111
:1027C00001921E00837B0400002B05D1124B8289ED
:1027D0009A4202D00123A37373BD826843689A4270
:1027E000F8D8019D9B1AAB42F4D3B242F2D3921BAC
:1027F00006D00168002903D0891948191DF090FC02
:102800002068002804D080192A0000991DF088FC57
:10281000A3685D19A560DFE70F0B00008B7B10B587
:10282000002B03D000230360436010BD054A8C8950
:10283000944202D001228A73F5E78B6843600B68EB
:102840000360F2E70F0B0000F0B515248BB0119D6B
:1028500004AB0290039101921098E418002D2FD13F
:1028600017282DD8002A2ED12100C0B2039B013990
:102870005B01C0180870621A129B0298FFF79EFF56
:102880000BB0F0BD114EF75C0E00013EF2439446D2
:102890008C4467450EDC019A0133D21BC91B01929F
:1028A000DBB206002E43EDD1019A002AEADC173391
:1028B000D8B2DBE72A063070000A10432D0AE4E79D
:1028C00000232100EDE72B00FBE7C04687790210CB
:1028D0001FB584680092019302940022FFF7B4FFB1
:1028E0001FBD00008388054A0321D21A012A02DD98
:1028F00000210133838008007047C046FEFF0000BE
:1029000013B5040000910192002198221DF060FC93
:10291000019A00992000FFF741FF220023001432A2
:1029200094331A600423A37613BD10B5017C040010
:1029300000290DD1002B02DAD243DB430131200004
:10294000FFF7C6FF230094331868FFF7CBFF20740E
:1029500010BD30B585B06D4600926B60037C0400FD
:10296000002B14D1092902D0019AFFF7B1FF2A00E8
:1029700002AB03CA03C32000A36802996A68FFF789
:102980001DFF230094331868FFF7ACFF207405B0D7
:1029900030BD10B50621FFF79BFF10BDF8B505004F
:1029A0009435040028680E00FFF79CFF207400286F
:1029B00005D1A7683B00663302D907232374F8BD0D
:1029C00022002B688C320221934206D01A000100AB
:1029D00008322A6098819F609E732174EFE7F0B5FA
:1029E000037C89B004000D001700002B08D10600FD
:1029F0000200943633681432934203D104232374C3
:102A000009B0F0BD9A798A4201D01023F7E71A681D
:102A1000049282680592022924D11300049A981A1C
:102A2000049B009002930023290001931A002000C8
:102A3000FFF70AFF002F11D0210006A8FFF7EEFED6
:102A4000059A049B06999B1AA2689B18079A9342C1
:102A50000FD8D21A002900D0C91806C73368083B1E
:102A60003360CDE70339988889B221F011FD80B237
:102A7000D6E700221100F0E773B5057C0E00002DAB
:102A80000FD1030094331A68803B9A420BD1837BA9
:102A9000002B0AD16C4601002000FFF7BFFE0CCCD2
:102AA0000CC6280076BD0A25FBE70125F9E710B51D
:102AB0000C000121FDF7E2FE00232060984200DCBB
:102AC000913B180010BD10B504000068FDF7A4FF8D
:102AD0000023236010BD73B5050006A810C8067852
:102AE000286800280ADD0094FDF734FF0400002E5A
:102AF00002D02800FFF7E7FF200076BD892464425A
:102B0000FAE77FB51E0000230C0003A9150003930C
:102B1000FFF7CDFF002809D101230193089B2A006C
:102B200000932100330003A8FFF7D5FF04B070BD68
:102B300030B5026887B00500002A1DD10E2002AB17
:102B400018705A800493082303910D4829000593B7
:102B5000FFF7ADFF041E0CD101900090030001228D
:102B600004A92800FFF7B7FF041E02D02800FFF7D2
:102B7000AAFF200007B030BD89246442F9E7C046AF
:102B8000020F00000F2330B589B0050002A80370C2
:102B9000002304904380082006910590079201933A
:102BA0000093022204A928000393FFF794FF041E58
:102BB00002D02800FFF787FF200009B030BD30B5F4
:102BC00010248FB01500039204AA147000240692FA
:102BD00054800822079203AA089204220C9301232E
:102BE00009920D92023A0A91019300920AAB06A94A
:102BF00005940B95FFF76FFF0FB030BD30B58FB068
:102C00000993129B03910A93139B00210B93149B2E
:102C100008920C9302222425042302AC049105910E
:102C200010316080257007910D9300920AAB06A9C0
:102C300002480694FFF765FF0FB030BD030F000098
:102C400000B58FB00391118806AB1980002108915F
:102C5000043119730A9310230B9303AB0C930123D4
:102C60000492022207900D9100930AA904AB034835
:102C70000592FFF746FF0FB000BDC046060F0000EB
:102C800000B58FB00391118806AB1980002108911F
:102C9000053119730A9310230B9303AB0C93042390
:102CA000049202220D93033B079000930AA904AB00
:102CB00002480592FFF725FF0FB000BD060F000088
:102CC000062100B589B004AA002310801173029276
:102CD00010220093039202A90F3A0348059306932A
:102CE000FFF70FFF09B000BD060F000006C07047D8
:102CF00000B58BB002AA10800B2006921073102230
:102D0000089107924A1E91410023C900099100933E
:102D1000022206A9034803930493FFF7F2FE0BB0C7
:102D200000BDC046060F000070B58AB016001D0039
:102D3000049100230222102102AC2080227307910B
:102D4000009306A904480393069408960995FFF793
:102D5000D8FE0AB070BDC046060F000000B58DB0A9
:102D600004AB188000200590069008301873029379
:102D70001023089103930A924B1E9941531E9A41C6
:102D800002238900920009910B920093012208AB63
:102D900002A90248FFF7B5FE0DB000BD060F000006
:102DA00010B58CB004AC208000200A930423059059
:102DB00006900A3020730B930630023B0390089173
:102DC00009920093012208AB02A903480294FFF77D
:102DD00098FE0CB010BDC046060F000030B58FB095
:102DE00003921D1E129C04D1002C04D08720404267
:102DF00017E0002CFAD00691292104AA1080117343
:102E000008921022099203AA00230A920422009336
:102E10000B9208A9013A044805930C950D94FFF70D
:102E200070FE0FB030BDC046060F0000802210B506
:102E30005200002101481DF0CBF910BDB08B0008F5
:102E4000802210B55200002101481DF0C1F910BDCB
:102E5000B08B00080B4A70B5002314001588002DB4
:102E600007D15568002D04D1DB00E052E31859600A
:102E700070BD01330832202BF0D13B2202490348B8
:102E800016F004FBB08B00088B790210E179021078
:102E9000002370B5084ADC00A1180D88854203D1D3
:102EA0000023A3524B6070BD0133202BF3D1482285
:102EB0000249034816F0EAFAB08B0008B57902100F
:102EC000197A0210002210B5074B1C88844202D1E7
:102ED0005C688C4205D001320833202AF5D10020ED
:102EE00010BD0120FCE7C046B08B000810B50400FF
:102EF000C0681CF085FD00216068FEF765F910BD13
:102F0000084B5A68904204D01A690121904201D0BE
:102F1000704700210C224A43002199509B185960A8
:102F20001972F5E7B08C0008F0B599B03022002195
:102F30000CA81DF04DF980200CA98001FDF7E0FEE2
:102F4000041E16D10C9B022B15D0032B00D1F3E0ED
:102F5000012B00D0F7E0FC21180049001CF0A2F979
:102F6000011E42D00D98FEF72FF921000D98FEF7B3
:102F70008DF819B0F0BD09AD01000C2228001DF03C
:102F800027F9109B0C2B00D0D2E02A0021000D98CD
:102F9000FEF710F8109B0593834204D0734A7449DE
:102FA000744816F073FA28782A38052800D9C1E049
:102FB00021F05AFA03122F515997002308A90F98AC
:102FC000089305F04FF8041ECFD10100042308AA8E
:102FD0000D98FEF70FF8C8E7149E002E07D03100B9
:102FE00001201CF05FF9051E02D18D2444E035005C
:102FF000320029000F9805F03FF8041E05D10100AA
:1030000033002A000D98FDF7F5FF28001CF0F8FCAE
:10301000ABE768880E99FFF755FF00282BD0119B6E
:1030200007AA01210D98FDF7C5FF042801D0524AD7
:10303000B5E7129B08AA02210D98FDF7BBFF0428F3
:1030400001D04E4AABE768880F9B089A079905F0B4
:103050007FF9040089E70F9804F0BAFF04000CA878
:10306000FFF744FF81E768880E99119C129FFFF7D4
:1030700029FF002802D18824644276E70025AC426B
:103080000FD0210001201CF00DF9051E1CD00200FC
:10309000230001210D98FDF78DFF844201D0384AAD
:1030A0007DE70026B74253D0390001201CF0FAF822
:1030B000061E0AD002003B0002210D98FDF77AFFA0
:1030C000874245D02F4A6AE706008D2464422800D3
:1030D0001CF096FC30001CF093FC002C00D144E75F
:1030E000BDE768880E99119CFFF7ECFE0028C2D05E
:1030F000002C0FD0210001201CF0D4F80200061E85
:1031000013D0230001210D98FDF754FF844202D013
:103110001D4A44E726006B686988320000930F98C7
:10312000230005F07DF90400D4E78D24644296E77E
:103130009124A1E786249FE70F98002800D114E787
:1031400004F046FF8BE7114A0949114816F09EF931
:103150000B9B09AA51880F9803930094029701963C
:103160002B000A9A05F021F90400B0E725060000BB
:10317000357B021044790210570600005D060000FE
:103180007C06000087060000A9060000CC060000AF
:1031900064790210F0B5A7B08021C4480906FDF794
:1031A0008DFD10220990104229D0002120321AA84A
:1031B0001DF00EF81AA91020FDF7A2FD00281ED15F
:1031C0001A9B022B06D0032B02D0012B00D0ADE0BE
:1031D000040010E005F0D0FA041E0CD1B44A1368C4
:1031E00001331360012B06D101001822B1481CF0F5
:1031F000EFFFFFF71BFE21001B98FDF747FF202480
:10320000099B234223D0302200211AA81CF0E0FFA2
:1032100020001AA9FDF774FD041E18D11A9B022B79
:1032200000D188E0032B00D18EE1012B00D092E188
:10323000B421180049001CF035F8011E00D18EE1C0
:103240001B98FDF7C1FF21001B98FDF71FFF4024CD
:10325000099B234222D0302200211AA81CF0B8FF7B
:1032600020001AA9FDF74CFD041E17D11A9B022B52
:1032700000D176E1032B00D1B0E2012B00D0B4E203
:10328000E02118001CF00EF8011E00D1B0E21B98DE
:10329000FDF79AFF21001B98FDF7F8FE8024099B9B
:1032A0006400234222D0302200211AA81CF090FF93
:1032B0001AA92000FDF724FD051E17D11A9B022B29
:1032C00000D197E2032B00D184E3012B00D088E3E7
:1032D0004C2118001BF0E6FF011E00D184E31B986F
:1032E000FDF772FF29001B98FDF7D0FE8024099B93
:1032F000234201D100F087FF302200211AA81CF0E0
:1033000067FF1AA92000FDF7FBFC051E01D000F0A5
:103310007AFF1A9B022B00D168E3032B03D0012B09
:1033200001D000F01CFC2C0000F069FF98226249DB
:10333000624816F0ABF811AD0100082228001CF01D
:1033400047FF1E9B082B00D0F9E02A0021001B98A4
:10335000FDF730FE1E9B0A93984204D0E72258499D
:10336000584816F093F828781538052800D9E9E070
:1033700021F07AF803162566AAE068881C99FFF701
:10338000A1FD002818D069886A681D9804F02EF8FD
:10339000051E00D157E71AA8FFF7A8FD2C0052E739
:1033A00068881C99FFF78EFD002805D069886A6837
:1033B0001D9804F020F8EBE788256D42EBE71F9D90
:1033C000002D36D0C82329005B009D4200D919008A
:1033D00001201BF067FF0A90002809D11D988D2657
:1033E00003F0DAFE76421AA8FFF780FD34002AE7E0
:1033F000C8232F005B009D4200D91F003B000A9AA2
:1034000001211B98FDF7D6FD874202D08B22520086
:10341000A5E73A000A991D9803F0F2FF061E01D1B4
:10342000ED1BE5D10A981CF0EBFA002E00D10AE75B
:10343000D9E72A0029001D9803F0E2FF0600F4E70F
:1034400000230DAA0D930E9301211F9B1B98FDF7DE
:10345000B1FD1F9B0A93984202D03422FF327EE7CF
:103460000D9C1D9E002C1FD0210001201BF01AFF77
:1034700005003000002D4DD022000EAB2900300099
:1034800003F0EEFF041E0BD101000E9B2A001B98D7
:10349000FDF7B0FD04230EAA01211B98FDF7AAFD3C
:1034A00028001CF0ADFA39E02500E5E7F07F0000C8
:1034B000C88C0008B08C0008537A0210647902109E
:1034C000877A02104479021000230EAA0E9301217C
:1034D0001F9B1B98FDF76EFD1F9B0A93984203D11B
:1034E000209C0E9B9C4201D0A92290E7002C19D071
:1034F000210001201BF0D6FE0200051E09D023008A
:1035000002211B98FDF756FD0E9B98420BD0AE2270
:103510007DE71D988D2403F03FFE64421AA8FFF753
:10352000E5FC90E625000E9A29001D9803F0C7FFE0
:103530000400B5E71D9803F02FFE0400EEE7912488
:10354000644280E68624FBE71D98002800D17AE6D5
:1035500003F022FEE2E78822B749FF32E8E6B74CE3
:1035600071E611AD0100082228001CF031FE1E9BFF
:10357000082B00D02EE12A0021001B98FDF71AFD30
:103580001E9B0A93984203D0D7225200AC49E7E62B
:1035900028780E38062800D91EE120F065FF0410B7
:1035A0004E83B2B7F00069681D9803F089F90400F2
:1035B000002C00D16EE61AA8FFF798FC6AE61F9D62
:1035C000002D33D0C82329005B009D4200D919008B
:1035D00001201BF067FE071E05D11D988D2403F006
:1035E00021F964421EE0C8232E005B009D4200D9F1
:1035F0001E0033003A0001211B98FDF7DBFC8642D8
:1036000001D0E622C1E7320039001D9803F09CF991
:10361000041E01D1AD1BE6D138001CF0F1F9002CDD
:1036200000D137E61D98FFF76BFCC4E72A0029009C
:103630001D9803F089F90400F1E700230DAA0D930A
:103640000E9301211F9B1B98FDF7B4FC1F9B0A934F
:10365000984201D0F52298E70D9C1D9E002C1FD0AA
:10366000210001201BF01EFE05003000002DB5D00A
:1036700022000EAB2900300003F06EF9041E0BD1BE
:1036800001000E9B2A001B98FDF7B4FC04230EAA30
:1036900001211B98FDF7AEFC28001CF0B1F9C1E731
:1036A0002500E5E700230EAA0E9301211F9B1B981E
:1036B000FDF780FC1F9B0A93984203D1209C0E9B30
:1036C0009C4201D05F4A61E7002C12D0210001200A
:1036D0001BF0E8FD0200051E00D17EE72300022159
:1036E0001B98FDF767FC0E9B984203D08522920041
:1036F0004CE725000E9A29001D9803F0F9FC040000
:10370000CAE71D9803F08EF804008BE700254E4BA6
:103710001C981A680E951D99904202D15E68B142BC
:1037200014D0DD68A84213D11E69B14210D1012224
:103730000E920C214A439B181A7A002101321A7208
:103740001B9804230EAAFDF755FCA3E52A00F0E719
:1037500000260E96B24202D15E68002E06D0002DE1
:103760000AD11A69002A07D101320E920C256A4348
:1037700098509B185960DFE7892464428AE51F9BB3
:103780000EAA01211B98FDF715FC1F9B0A93984276
:1037900001D02E4AFAE60E9B1C9A012B17D80C2555
:1037A0005D43294FEB599A4211D17E197068002868
:1037B0000DD01D9903F0BCFC337A0400013BDBB251
:1037C0003372002B00D0F3E6EB517360F0E68924EE
:1037D0006442F0E69124D0E78624CEE71D980028C5
:1037E00000D157E503F01EF81CE7194A14499FE57C
:1037F000124C4FE50EAC0100082220001CF0E8FC42
:103800001E9B082B00D0E0E0220029001B98FDF74A
:10381000D1FB1E9B0A93984202D00E4A0E499FE5A7
:1038200020781B38062800D9D2E020F01DFE172A88
:103830003955739EC900C046877A02100100008086
:10384000997A02100A020000B08C00083B020000C6
:103850005D020000AB030000D87A021060881C995A
:10386000FFF730FB002818D0618862681D9804F0CB
:10387000B5F9041E00D135E51AA8FFF737FB25007E
:1038800030E560881C99FFF71DFB002805D0618892
:1038900062681D9804F0A7F9EBE788246442EBE71F
:1038A0000021229C102211A80D911CF091FC0DAB5F
:1038B000220011A91D9804F0BDF9051E26D10D9B0B
:1038C00011AA01001B98FDF795FB04230DAA012105
:1038D0001B98FDF78FFB05E51F9C1022002111A806
:1038E0001CF076FC230011AA01211B98FDF762FB56
:1038F000844202D0F822920090E7220011A91D987C
:1039000004F076F90500002D00D1EBE41AA8FFF7CA
:10391000EDFAE7E400271F9D229E1197BD420FD0CC
:10392000290001201BF0BEFC0200071E15D02B0051
:1039300001211B98FDF73EFB854201D0C94A6DE786
:103940000024A64201D100F0ADFC310001201BF0A3
:10395000A9FC041E01D000F0A5FC8D251D9804F0E3
:1039600071F800246D4200F0B4FC0023229D1193F5
:103970001D9E9D420BD0290001201BF093FC041ECC
:1039800006D18D25300004F05DF86D42BEE72C00B5
:103990002A0011AB2100300004F0ACF9051E0BD158
:1039A0000100119B22001B98FDF724FB042311AAA0
:1039B00001211B98FDF71EFB20001CF021F8A5E754
:1039C0001D9804F03FF80500A0E791256D4289E4B9
:1039D0008625FBE71D98002800D183E404F032F827
:1039E00094E7A14AA149A3E4A14D7BE41E9B912445
:1039F0000A93102B00D0AEE01B9E11AC01001022E8
:103A000020001CF0E5FB1023220029003000FDF708
:103A1000D1FA1E9B0A93984202D0964A96499FE497
:103A200060881C99FFF74EFA002800D192E02078B8
:103A30002438032800D990E020F016FD02285656BD
:103A40000025229F0E951F9CAF4205D03900012012
:103A50001BF028FC051E15D00026B44200D1AFE3B0
:103A6000210001201BF01EFC061E0CD002002300CA
:103A700001211B98FDF79EFA844200D1A0E3A72202
:103A80009200CBE706008D246442B2E300261F9B20
:103A9000209F0A93B34210D0190001201BF002FCB2
:103AA000061E1FD00A9B020001211B98FDF782FA17
:103AB0000A9B834201D0714AB0E70025AF4200D192
:103AC000BCE3390001201BF0EDFB051EDBD002003A
:103AD0003B0002211B98FDF76DFA874200D1ADE350
:103AE000674A9BE70500CEE700231F9E0E93229FA7
:103AF0009E4201D100F0D4FB310001201BF0D2FB2B
:103B0000051E25D00200330001211B98FDF752FA53
:103B1000864201D05B4A81E72E00A368EB180A9326
:103B20003D1E00D195E3390001201BF0BBFB051EB3
:103B300000D08EE38D246442ADE30492624601928C
:103B40000A9A039700920295320003F013FF94E360
:103B50000600EFE78824644251E38624FBE74A4AE3
:103B60004549FFF7E5FB1E9D9126242D57D11B9F4C
:103B700011AE01002A0030001CF02AFB2B0032009D
:103B800021003800FDF716FA1E9B0A93984204D0D4
:103B9000CE2292003D49FFF7E3FB70881C99FFF7A6
:103BA00091F900283AD03378223B012B39D81F9D58
:103BB0000E94229F002D00D100E3290001201BF06C
:103BC00071FB041E28D002002B0001211B98FDF779
:103BD000F1F9854201D0D422DBE72500F368E31830
:103BE0000A933C1E00D17DE2390001201BF05AFBF4
:103BF000041E00D076E28D2676429BE203920A9A5A
:103C000006960292624605970192049400950B9BDA
:103C100016AA04F05FF97FE20500ECE788267642F9
:103C20008EE28626FBE71A4A1849FFF781FB1E9BA6
:103C30000A93102B00D0B7E11B9E11AD010010229A
:103C400028001CF0C5FA10232A0021003000FDF7DF
:103C5000B1F91E9B0A93984220D00E4A0E49FFF7F5
:103C60007FFBC046F703000049040000D87A021029
:103C7000010000807E020000AC7A0210BE0200004B
:103C8000C9020000E702000017030000C57A021015
:103C9000820300006E040000F07A0210287B1C9E54
:103CA0000238272800D981E120F0E8FB5D003301CC
:103CB00040015B01730184009400BC00E5003A0000
:103CC0005100280080018001800180018001800175
:103CD00080018001800180018001800180018001DC
:103CE00080018001800180018001800180018001CC
:103CF00080018001800180018001FF00288831005F
:103D0000229FFFF7DFF8002834D028880EA904F09E
:103D100063F8041E00D030E23B000EAA21007AE0D6
:103D2000288831001F9CFFF7CDF8002822D02300FF
:103D30000EAA01211B98FDF73DF9844201D0A54A46
:103D40008CE728880EA904F021F8040015E22888E1
:103D50003100229FFFF7B6F800280BD028880EA963
:103D600004F02AF8D5E7288831001F9CFFF7AAF84D
:103D7000002802D188246442FFE1002C07D02100F2
:103D800001201BF08FFA061E02D18D24F3E72600D6
:103D90002300320001211B98FDF70CF9844201D069
:103DA0008D4A5BE7288823003200A96802F0AAFC4C
:103DB00004005AE028883100FFF784F80028D9D0A1
:103DC000288802F0CBFC041E00D0D6E12888FFF73B
:103DD0005FF8D2E10023288831000D930E93FFF79E
:103DE00071F800281BD028880EAA0DA902F0CDFC7E
:103DF0000400229B0A93032B05D904230DAA00215A
:103E00001B98FDF7F7F8239B0A93032B00D8B4E126
:103E1000042301210EAA1B98FDF7ECF8ADE18824DC
:103E20006442E6E728883100229CFFF74BF800281F
:103E3000A0D0002C1DD0210001201BF033FA061E5B
:103E4000A3D028880EAB2200310002F0BFFC041E74
:103E500005D101000E9B32001B98FDF7CBF804231F
:103E60000EAA01211B98FDF7C5F830001BF0C8FD14
:103E700083E12600E5E728883100229CFFF722F83D
:103E8000002800D176E7002C0DD0210001201BF086
:103E900009FA061E00D178E728880EAB220031000F
:103EA00002F0A9FCD3E72600F6E7288831001F9F1F
:103EB000209CFFF707F8002800D15BE73B000EAA23
:103EC00001211B98FDF776F8874201D0434AC5E6E9
:103ED000434BAA6800269A4213D1B44211D0210064
:103EE00001201BF0DFF90200061E00D14DE7230080
:103EF00002211B98FDF75EF8844202D0A822D2006E
:103F0000ACE62888009433000E9AA96804F036FBCA
:103F10004EE7280004F01EFD041E00D02DE1288885
:103F20003100FEF797FF02232A00F7E61F9B0EAA37
:103F300001211B980F96FDF73DF81F9B0A939842AD
:103F400001D0284A8AE6042804D0274A274928486D
:103F5000FFF707FA2B000E990F9A686804F025FD09
:103F6000DAE71F9B0EAA01211B980F96FDF722F896
:103F70001F9B0A93984201D0AE22C0E7042801D0CB
:103F80001C4AE3E72B000E990F9A686804F0E8FCDE
:103F9000C2E728883100FEF795FF002800D1E9E646
:103FA000288804F02FFD0EE79124E4E68624E2E65B
:103FB000B3220E49D200FFF7BBF9229E002E1BD080
:103FC000310001201BF06EF9051E16D18D246442CC
:103FD00022E0C04695040000C10400003305000043
:103FE000000001705B0500005F050000F07A021020
:103FF000557B02107405000035003100280004F0E4
:10400000A7FA041E05D1010033002A001B98FCF713
:10401000F1FF28001BF0F4FC21001B98FDF736F897
:104020008024099B6401234215D0002130221AA864
:104030001CF0CEF81AA92000FCF762FE00280AD175
:104040001A9B022B2FD0032B01D0012B3DD1002135
:104050001B98FDF71BF8099B9B0401D5FEF764FF35
:104060008024099BE401234201D1FFF795F8002148
:1040700030221AA81CF0ACF81AA92000FCF740FE68
:10408000002801D0FFF788F81A9B022B21D0032BC0
:1040900026D0012B24D0934A9349FFF749F9934A3C
:1040A0009349FFF745F9934A1368002B01DD013B63
:1040B000136011680029CAD118228F481CF088F8B3
:1040C000FEF7BEFE04F03CFBC1E7C0228B49FFF7C0
:1040D0002FF9862149421B98FCF7D8FFFFF75CF8BF
:1040E0000100F8E7F2683389708871689446326994
:1040F00036780B9333000EAE222B00D07EE5039270
:104100000A9A0696029262460597019204940095D7
:104110000B9B16AA03F06CFE061E0BD101000E9B32
:1041200022001B98FCF766FF04230EAA01211B98AE
:10413000FCF760FF28001BF063FC20001BF060FC14
:1041400031001B98FCF7A2FF8024099BE400234266
:1041500017D0302200211AA81CF03AF820001AA922
:10416000FCF7CEFD041E0CD11A9B022B00D15EE59C
:10417000032B02D0012B00D01AE721001B98FCF77B
:1041800085FF8024099B2401234200D148E70021B8
:1041900030221AA81CF01CF81AA92000FCF7B0FD68
:1041A000002800D03CE71A9B022B00D105E7032B27
:1041B00002D0012B00D072E704002DE70A9510E52C
:1041C00011A90EAB48883200029301972300009595
:1041D000129903F0ABF9041E05D10E9B2A002100B1
:1041E0001B98FCF707FF04230EAA01211B98FCF77C
:1041F00001FF30001BF004FC28001BF001FC210033
:104200001B98FCF743FF8024099BA40023429BD00A
:10421000302200211AA81BF0DBFF20001AA9FCF7AE
:104220006FFD041E90D11A9B022B00D19BE4032B3F
:1042300002D0012B00D0F6E4260081E70A9B6088BB
:104240000193009661683B002A0003F06BFA0400BA
:10425000CFE7E26860886168A368247894460EAA74
:10426000262C00D069E40492624601920A9A0397D0
:1042700000920295320003F009FB041E05D10100F3
:104280000E9B2A001B98FCF7B5FE04230EAA012101
:104290001B98FCF7AFFE28001BF0B2FB3000ACE728
:1042A0000A963DE411AB01932A00009623003900E1
:1042B0001D9803F0EBFC051E0BD1119B2200290079
:1042C0001B98FCF797FE042311AA01211B98FCF709
:1042D00091FE38001BF094FB20001BF091FBFFF7D0
:1042E00012FBC046CF0500000D7B0210FC0500004C
:1042F000237B0210C88C0008B08C00086D7A021075
:1043000080235B01036000207047802310B55B01B0
:10431000984202D100F0AAFB10BD86204042FBE784
:10432000BFF34F8F034B044ADA60BFF34F8FC04691
:10433000FDE7C04600ED00E00400FA05882030B536
:10434000012187B04002FCF799FA00240500200003
:10435000A54215DD03AB049304230593033B0093AF
:10436000220004AB210028000394FCF7F3FA802319
:104370001B06984200D103942800FCF74DFB0398DC
:1043800007B030BD10B5FFF7CBFF036907B5042BAD
:1043900002D0802000060EBD01AA00214068FCF773
:1043A00009FE0428F5D10198FFF7AFFFF3E773B5D5
:1043B000066A0500042E0CD101A8FFF7A1FF041E18
:1043C00005D10100330001AA6868FCF713FE200044
:1043D00076BD80242406FAE7036810B50400022B9A
:1043E00005D0032B01D0012B07D1002101E0884724
:1043F00001006068FCF74AFE10BD4A2201490248EC
:1044000015F044F88E7B0210066E021070B58CB069
:1044100030220021684680261BF0DAFE1025360681
:1044200031007020FCF74AFC0400284209D069469C
:104430002800FCF765FC0028F2D10E496846FFF71A
:10444000CBFF2020044208D06946FCF759FC002825
:10445000E6D109496846FFF7BFFF40200442DFD09C
:104460006946FCF74DFC0028DAD104496846FFF79D
:10447000B3FFD5E7AF4300108B4300108543001016
:10448000184B984224D010DC174B984222D004DC01
:10449000164B984220D0842312E0154B98421DD031
:1044A000144B9842F7D18E230AE0134B984209DC53
:1044B000124B984214DA124BC01892230128EAD802
:1044C0005B4203E00023984200D0843B1800704711
:1044D0008523F5E79823F3E78723F1E78C23EFE7BC
:1044E0009523EDE71201FF800201FF800101FF80AB
:1044F0000701FF800B01FF804601FF804501FF801F
:10450000E5FE007FF0B53F240021A446059D0F4E37
:1045100067462F40F75D4C1CE4B24754AD0913D1F8
:10452000233502310555C9B21C3517002F40F75D00
:104530004C1C4754920999060A43E1B214009B09A6
:104540001C43F2D14454F0BD2100E1E79E7B0210F0
:10455000F0B589B003930023150006930268079312
:104560000193059305AB00939769082306AA0400FD
:104570000E00B84700280FD1059B01001848082BF2
:104580000FD1069A2B689A4204D80CD1079A6B680F
:104590009A4208D9134804E0134B01219842F0D005
:1045A000124814F073FF9A4215D22A0006A920007F
:1045B000039B984700280CD10022236800925F6972
:1045C0002A00082331002000B847002805D00848F9
:1045D000E7E70848E5E70029EED109B0F0BDC0469D
:1045E000DE7B02102A7C02100701FF80027C021091
:1045F000767C0210597C0210F0B51D00012389B0B1
:104600000F00109904001600994319D113002B4391
:1046100019D0132203A81BF0DBFD2B00320003A8E6
:104620000097FFF76FFF109A236800925D690F9A59
:104630000E9B03A92000A847FFF722FF09B0F0BD99
:1046400086204042FAE78720FBE7F0B51D00130003
:104650008BB004000F0016002B4335D0002113222D
:1046600005A81BF0B5FD32002B0005A80097FFF749
:1046700049FF236803AADB6905A9200098470028A1
:104680001ED1039A109B9A421ED311995B188B423C
:104690001AD39A4202D28A20404213E0109A236829
:1046A000019202AA009202909D69129A119B05A99B
:1046B0002000A847002803D1029B119A9342EAD315
:1046C000FFF7DEFE0BB0F0BD8720E5E7F0B51E007A
:1046D00013008DB0050003911700129C33431FD0C7
:1046E0000021132207A81BF073FD039B3A000093DF
:1046F00007A83300FFF706FF2B6805AADB6907A9A7
:1047000028009847002807D10123069A60601A42C2
:1047100000D06360059B2360FFF7B2FE0DB0F0BDD3
:1047200087204042FAE7F0B51D00130089B004006D
:104730000F0016002B4313D00021132203A81BF0F7
:1047400047FD32002B0003A80097FFF7DBFE23682C
:1047500003A91B6A20009847FFF792FE09B0F0BD3D
:1047600087204042FAE710B503681B699847FFF7B6
:1047700087FE10BD0020704770B50B4C2378BFF347
:104780005B8F0A4DDB070CD4200014F059FF002882
:1047900007D0200014F06BFF054A0649280014F0EA
:1047A00043FF280070BDC046CC8C0008D08C0008A8
:1047B000C00000088571011037B5FFF7DDFF0A4919
:1047C00012F0E6FC6A461100084B1860084B30CB2B
:1047D00030C1002802D1074814F058FE064B0749A3
:1047E000FFF7B6FE37BDC046A47C0210188D000846
:1047F0009C7C0210C17C021075470010E27C021004
:10480000F0B50C4C1F00236885B005001600002B86
:1048100001D1FFF7D1FF0C9B320002930B9B2900C3
:1048200001930A9B009320683B00FFF7E5FE05B06B
:10483000F0BDC046188D0008F0B50C4C1F00236871
:1048400085B005001600002B01D1FFF7B5FF0C9BCA
:10485000320002930B9B290001930A9B009320686E
:104860003B00FFF7F2FE05B0F0BDC046188D000812
:10487000F7B5094C1F00236805001600002B01D175
:10488000FFF79AFF089B3200009329003B00206845
:10489000FFF71CFFFEBDC046188D0008F8B5084C98
:1048A0001F00236805001600002B01D1FFF784FFCD
:1048B00032003B0029002068FFF735FFF8BDC046F5
:1048C000188D000810B5FFF757FF064912F060FC7D
:1048D000054B1860002802D1044814F0D7FDFFF7FB
:1048E00042FF10BDA47C0210188D0008C17C02108C
:1048F00030B58BB002900391002B01D1002A22D158
:1049000002A90491069308210EAB08930423059194
:104910000F48073907920993FBF7B0FF051E15DD15
:1049200000230322009304A9FCF714F88023040059
:104930001B06984201D1922464422800FCF76CF8CF
:1049400020000BB030BD87246442F9E79224FBE7D6
:10495000011A010030B58DB00392109A04900591B0
:10496000002A01D1002B24D104A908910821099122
:1049700003A90A918D20042140020B91033906926C
:104980000793FBF77BFF051E16DD01230222009330
:1049900008A906ABFBF7DEFF802304001B06984244
:1049A00001D1922464422800FCF736F820000DB0B3
:1049B00030BD87246442F9E79224FBE7F0B58BB061
:1049C00002900391161E24D000230493059302AB9A
:1049D0000693082304AC0121104807930894099317
:1049E000FBF74CFF071E17DD012208AB009206A95A
:1049F000FBF7B0FF0CCC0CC6802305001B069842C9
:104A000001D192256D423800FCF706F828000BB062
:104A1000F0BD87256D42F9E79225FBE7021A0100F8
:104A200030B587B002AB04930823029003910121B3
:104A30000D480593FBF722FF051E12DD002301221E
:104A4000009304A9FBF786FF802304001B0698420D
:104A500001D1922464422800FBF7DEFF200007B05A
:104A600030BD92246442F9E7031A010037B50121F1
:104A70000C48FBF703FF051E11DD00210B00009120
:104A80000A00FBF767FF802304001B06984201D150
:104A9000922464422800FBF7BFFF20003EBD922411
:104AA0006442FAE7041A010010B5FFF70BFF10BDCE
:104AB0000023002213B50092019303690400082B20
:104AC00002D08020000616BD6A4600214068FCF72F
:104AD00071FA0828F5D1009A019BA068FFF7DEFE65
:104AE000F1E770B586B004AE040008220021300062
:104AF0001BF06EFB00230022029203932369082B14
:104B000004D080252D06280006B070BD236A082B2E
:104B1000F7D102AA00216068FCF74CFA0828F0D10E
:104B2000029A039B0096A068FFF7A2FE051EEAD139
:104B30000100236A32006068FCF75CFAE3E70023B7
:104B40000022002170B588B0069207930369040023
:104B50000591082B04D080252D06280008B070BDD3
:104B60004569042DF7D106AA4068FCF723FA082806
:104B7000F1D12B0005AA01216068FCF71BFA04287B
:104B8000E9D1256A28001AF031FF061E14D0059BD2
:104B9000029001950093A068069A079BFFF74CFED0
:104BA000051E05D10100236A32006068FCF722FA75
:104BB00030001AF025FFD0E792256D42CDE70023A3
:104BC0000022002170B588B00692079303690400A3
:104BD00046690591082B04D080242406200008B0E3
:104BE00070BD8569042DF7D106AA4068FCF7E2F98B
:104BF0000828F1D12B0005AA02216068FCF7DAF938
:104C00000428E9D130001AF0F1FE051E0BD06369CB
:104C1000020001216068FCF7CDF96369984205D074
:104C200028001AF0EDFE92246442D7E7059B019517
:104C300002930096069A079BA068FFF7E1FD040027
:104C400028001AF0DDFEC9E7036810B50400022B46
:104C500005D0032B01D0012B07D1002101E08847AB
:104C600001006068FCF712FA10BDA3220149024856
:104C700014F00CFCF27C0210066E021070B58CB0C1
:104C80003022002168468025F8261BF0A1FA2D0667
:104C9000760029003000FCF711F8040012F05AF9F0
:104CA000031E04D0B6222149214814F0EFFB202036
:104CB000044208D06946FCF723F80028E9D11D49D1
:104CC0006846FFF7C1FF1020044208D06946FCF790
:104CD00017F80028DDD118496846FFF7B5FF4020D6
:104CE000044208D06946FCF70BF80028D1D11349DB
:104CF0006846FFF7A9FF8020044208D06946FBF709
:104D0000FFFF0028C5D10E496846FFF79DFF8020B0
:104D100040000442BDD06946FBF7F2FF0028B8D13D
:104D200008496846FFF790FFB3E7C046027D0210CE
:104D30000C7D0210BF4B00103F4B0010E34A0010E7
:104D4000B14A0010A94A00100020704700207047A7
:104D5000012000217047C169806970470048704791
:104D60003D7D0210F0B5431C87B00593DB7F050045
:104D7000002B00D143622E0024360121300014F0B4
:104D80002CFA00230490019301280AD12F1D38002A
:104D900000F030FA0190002806D00499300014F099
:104DA00035FA019807B0F0BD29696A69AB69EC6909
:104DB0005B18544138000293039400F0F5F90400A5
:104DC000380000F0EDF9039B2418002B02D1029B60
:104DD000A34206D90121300014F018FA194B0193AF
:104DE000DFE76B69380002932C6900F0D9F9019B69
:104DF000029A934201D1A042ECD82C696B691C4302
:104E000004D1380000F0CCF96C612861AC69EB6921
:104E10001C4312D1380000F0C7F90600380000F03A
:104E2000BFF927003200230006002869696992193A
:104E30007B41121A8B41AA61EB610123059AD3775A
:104E4000AFE7C0465FF0FFFFF0B50669476985B080
:104E5000040004300292039300F0A2F9029A039B2B
:104E600005000A980B9912184B4100920193236890
:104E700020009B6B9847019B8B4203D805D1009B78
:104E8000834202D9002005B0F0BD029A039BB618F8
:104E90005F412A000023B61A9F4123682000196B46
:104EA000029A039B884702000B00300039001FF074
:104EB000D9FC1A43E6D10A9A0B9B00980199B618BF
:104EC0005F4101225242D317801859410B002168DB
:104ED0000200096B2000884702000B0030003900F7
:104EE0001FF0C0FC1A4350425041C0B2CBE7000053
:104EF000F0B585B003911F00431CDB7F1600040052
:104F00000A9D0B9A002B02D10B4805B0F0BD036837
:104F100001920095D96B32003B0088470028F3D0FE
:104F20002269636992197B411100201D0A002B0040
:104F3000039900F099F9E8E75FF0FFFFF0B585B05D
:104F400003911F00431CDB7F160004000A9D0B9A8F
:104F5000002B02D10B4805B0F0BD0368019200950B
:104F6000196C32003B0088470028F3D0226963693E
:104F700092197B411100201D0A002B00039900F0BB
:104F80008FF9E8E75FF0FFFFF7B51F00431CDB7FF9
:104F900016000400089D099A002B01D10A48FEBDA5
:104FA000036801920095596C32003B008847002845
:104FB000F4D022696369B6185F41201D2A003100D0
:104FC00000F0F4F9EBE7C0465FF0FFFF421C03007E
:104FD000002010B5D27F824202D0181D00F0D8F810
:104FE000002110BD10B5431CDB7F002B03D0043023
:104FF00000F0DEF810BD01204042FBE770B51D0057
:10500000036814009B6A0600984702000B0020000A
:1050100029001FF027FC1A4301D0002070BD33681F
:1050200030009B6A984702000B00049805991FF016
:1050300019FC1A43F1D1049A059BA4185D41336809
:1050400030009B6B984701238D4202D802D18442E5
:1050500000D90023D8B2E1E770B5451C0400E87F11
:10506000002801D1606270BD20000121243014F0BD
:10507000CDF8030000208342F5D1E877201D00F031
:10508000D7F8F0E710B50400044B08330360FFF7CE
:10509000E3FF201D00F07BF8200010BD487D0210CA
:1050A00010B50400FFF7EEFF200028211AF0F6F8F3
:1050B000200010BD421C0300002010B5D27F8242A8
:1050C00003D0181D196900F067F8002110BD411CBC
:1050D0000300002010B5C97F814204D01969181D52
:1050E000891800F059F8002110BD70B51D00036843
:1050F00014005B6A0600984702000B00200029009C
:105100001FF0B0FB1A4301D0002070BD336830009F
:105110005B6A984702000B00049805991FF0A2FBF8
:105120001A43F1D1049A059BA4185D4133683000FD
:105130009B6B984701238D4202D802D1844200D94B
:105140000023D8B2E1E700000E4B73B5083304002A
:1051500008C015000E0000F019F80023621C26613B
:105160006361A561E361D3776362721C01D09D42E4
:1051700006D10093002304481A00190014F0A8F97E
:10518000200076BD487D02100101FF807047704706
:1051900010B517F017FB10BD10B517F003FB10BDCD
:1051A00010B517F011FB10BD10B517F010FB10BDB6
:1051B00010B517F00FFB10BD70B505000468002C8A
:1051C00014D10B4E3068002803D00121494215F05C
:1051D000FDFE2C68002C04D12C1D200014F0F6FBE1
:1051E0002C603068002801D015F006FF200070BD4B
:1051F000F8A5000870B505000C4E3000FFF7DCFF85
:1052000014F0ECFB280017F08DFA0400280017F0CA
:10521000D9FA14F057FB68603000FFF7CDFF14F0A7
:10522000F7FB601E8441604270BDC0461C8D0008C3
:1052300070B506000B4D2800FFF7BEFF14F0CEFB43
:10524000300017F071FA441EA041444270680028F3
:1052500001D014F03FFB2800FFF7AEFF14F0D8FB9D
:10526000200070BD1C8D0008F7B50F00160005006A
:105270000A4C01932000FFF79FFF14F0AFFB3A00A8
:105280003100019B280013F0D7FB05002000FFF739
:1052900093FF14F0BDFB2800FEBDC0461C8D000826
:1052A000F0B587B0019100920293050017F08AFAD9
:1052B0000700280017F08BFA0600280017F084FA80
:1052C0003900039000981FF069F90C1E69D1019B09
:1052D000002B66D0029A009B9B18039AB618B34223
:1052E0005FD83148FFF768FF14F078FB029B002B72
:1052F0004FD0002C4BD10099280017F053FA04002E
:10530000010000981FF04AF9029B601A984200D9E8
:1053100018000322019B134201D1B8422ED206008D
:10532000B84200D93E003200019968681AF0A6FE22
:10533000BE4205D26B68BA1B9819FF211AF048FFCC
:105340006B680497059310230393049B059A0099B7
:10535000280017F0F3F9041E06D0039B013B0393CA
:10536000002BF2D101246442029B9B1B0293009B01
:105370009B190093019B9B190193B7E739001FF01C
:1053800087F87843019B049006000593DBE701242E
:1053900064420548FFF710FF14F03AFB200007B005
:1053A000F0BD01246442F9E71C8D0008F7B50D003B
:1053B0001700060017F00BFA0400300017F004FA8B
:1053C0002018EC19A04203D2012464422000FEBD43
:1053D000A0421FD81948FFF7EFFE14F0FFFA00248F
:1053E000002F24D0002C20D110230193290030005D
:1053F00017F09CF9041E06D0019B013B0193002B82
:10540000F4D1012464422900300017F0CBF93F1A8F
:105410002D18E5E72100300017F0C4F90100200045
:105420001FF0BCF80029CFD1D4E70124644203481F
:10543000FFF7C2FE14F0ECFAC8E7C0461C8D000866
:10544000704710B50400182119F028FF200010BD86
:1054500010B5037D002B04D10248FFF7ADFE14F018
:10546000D7FA10BD448D000816204042704710B591
:1054700003681B69984710BD10B503689B6998477E
:1054800010BD10B503689B6A984710BD002081428B
:1054900000D11938704701207047162040427047EC
:1054A000162040427047704710B503689B689847C4
:1054B00010BD000010B50400084B00220833236023
:1054C0000023A260E36000230800A16123616361FF
:1054D000034913F0B1FC200010BDC046B08102109A
:1054E000A954001007B5010000900831806913F03D
:1054F000E4FC07BD010010B50831806913F006FD1A
:1055000010BD000010B50400034B08330360FFF723
:10551000F1FF200010BDC046B081021010B5036835
:1055200001221B690021984710BD002210B50368B5
:1055300011001B69984710BD030000B57F3304DAE2
:10554000FF234042DB011840404203006C3300D18E
:105550007EE203006C3300DD07E1AA4B984200D1E4
:1055600079E200DD7BE0A84B984200D176E23BDC9B
:10557000A64B984200D174E21BDCA54B984200D1A7
:1055800072E20BDCA34B984200D170E29723A24A4F
:105590005B42904200D01333180000BD9F4B9842ED
:1055A00000D167E296239E4A5B429042F4D01233C8
:1055B000F2E79C4B984200D15FE20ADC9A4B98429A
:1055C00000D15DE28623994A5B429042E4D00233E7
:1055D000E2E7974B984200D155E28D23954A5B4212
:1055E0009042D9D00933D7E7934B984200D14DE28E
:1055F0001ADC924B984200D14BE20ADC904B984265
:1056000000D149E287238F4A5B429042C4D00333E2
:10561000C2E78D4B984200D141E295238B4A5B4211
:105620009042B9D01133B7E7894B984200D139E2A3
:105630000ADC884B984200D137E29523864A5B42C8
:105640009042A9D01133A7E7844B984200D12FE2B2
:105650008623834A5B4290429ED002339CE7814B73
:10566000984200D127E23EDC7F4B984200D125E2F0
:105670001CDC7E4B984200D123E20BDC7C4B984231
:1056800000D121E295237B4A5B42904200D183E71F
:10569000113381E7784B984200D118E28723774A8B
:1056A0005B42904200D177E7033375E7744B984231
:1056B00000D10FE20BDC734B984200D10DE287233F
:1056C000714A5B42904200D166E7033364E76F4B57
:1056D000984200D104E287236D4A5B42904200D198
:1056E0005AE7033358E76B4B984200D1FBE11CDCCF
:1056F000694B984200D1F9E10BDC684B984200D12C
:10570000F7E18723664A5B42904200D144E70333C6
:1057100042E7644B984200D1EEE1EE239B01C018B2
:105720000300581E8341853B36E75F4B984200D10A
:10573000E5E10BDC5D4B984200D1E3E186235C4A56
:105740005B42904200D127E7023325E7594B98424C
:1057500000D1DAE103007A3300D1D9E1564B984207
:1057600000D1D8E184235B4216E70300273300D140
:10577000D4E10300273300DDE5E00300383300D136
:10578000CFE10300383300DD98E00300603300D13F
:10579000CAE1030060331CDC0300663300D1C6E1BC
:1057A000030066330ADC03006A3300D1C2E18723B9
:1057B0005B42683000D1EFE60333EDE6030064336B
:1057C00000D1BAE187235B42623000D1E4E60333C3
:1057D000E2E603003C330ADC03003D3300DBAFE1CB
:1057E00094235B42403000D1D6E61033D4E6030068
:1057F0003A3300D1A7E193235B42393000D1CBE6A5
:105800000F33C9E680BBFFFF00AFFFFF809EFFFFA5
:10581000009DFFFF009CFFFF809CFFFF809DFFFF1E
:10582000009EFFFF80ADFFFF009FFFFF809FFFFFF7
:1058300000AEFFFF80AEFFFF80B2FFFF00B1FFFFB1
:1058400080AFFFFF80B0FFFF80B1FFFF00B2FFFF1E
:1058500080B4FFFF80B3FFFF00B4FFFF80BAFFFFFB
:1058600000BBFFFF00C2FFFF80BEFFFF00BDFFFFC8
:1058700000BCFFFF80BCFFFF80BDFFFF00BEFFFF3D
:1058800080C0FFFF00BFFFFF80BFFFFF00C1FFFF21
:1058900080C1FFFF00C5FFFF80C3FFFF80C2FFFF85
:1058A00000C3FFFF00C4FFFF80C6FFFF80C5FFFFEE
:1058B00000C6FFFF80C7FFFF00C7FFFF03003233B2
:1058C00000D143E1030032331CDC0300353300D147
:1058D0003FE1030035330ADC0300373300D13BE1FD
:1058E00086235B42363000D156E6023354E603008D
:1058F000343300D133E193235B42333000D14BE6A4
:105900000F3349E603002D3300D12BE103002D3383
:105910000ADC0300313300D127E193235B422F30AF
:1059200000D139E60F3337E60300293300D11FE1F8
:105930000300293300DD1EE193235B422B3000D1AD
:105940002AE60F3328E60300123300D116E10300E4
:1059500012333CDC0300193300D112E10300193388
:1059600018DC030022330EDC0300243300DB0BE1E0
:105970000300263300D10AE193235B42253000D196
:105980000AE60F3308E686235B42203000D103E6A7
:10599000023301E60300163300D1FBE003001633A7
:1059A0000ADC0300183300D1F7E093235B42173081
:1059B00000D1F1E50F33EFE50300143300D1EFE040
:1059C00093235B42133000D1E6E50F33E4E5030097
:1059D0000C3300D1E7E003000C331CDC03000F3371
:1059E00000D1E3E003000F330ADC0300113300D1E0
:1059F000DFE08D235B42103000D1CDE50933CBE5EC
:105A000003000E3300D1D7E087235B420D3000D175
:105A1000C2E50333C0E5831D00D1D0E0831D0ADC5D
:105A200003000A3300D1CDE08A235B42083000D165
:105A3000B2E50633B0E5831C00D1C6E000239842EE
:105A400000D1A9E5031D00D1C2E084235B42A3E598
:105A50008A235B42A0E58D235B429DE587235B4261
:105A60009AE58D235B4297E595235B4294E593236A
:105A70005B4291E589235B428EE593235B428BE594
:105A800087235B4288E592235B4285E58D235B4259
:105A900082E58A235B427FE586235B427CE58623A1
:105AA0005B4279E593235B4276E587235B4273E5AE
:105AB00093235B4270E592235B426DE593235B4247
:105AC0006AE597235B4267E58A235B4264E5972397
:105AD0005B4261E58D235B425EE596235B425BE5BD
